{
	"contracts/tokens/Moola.sol": {
		"Moola": {
			"abi": [
				{
					"anonymous": false,
					"inputs": [
						{
							"indexed": true,
							"internalType": "address",
							"name": "owner",
							"type": "address"
						},
						{
							"indexed": true,
							"internalType": "address",
							"name": "spender",
							"type": "address"
						},
						{
							"indexed": false,
							"internalType": "uint256",
							"name": "value",
							"type": "uint256"
						}
					],
					"name": "Approval",
					"type": "event"
				},
				{
					"anonymous": false,
					"inputs": [
						{
							"indexed": false,
							"internalType": "uint8",
							"name": "version",
							"type": "uint8"
						}
					],
					"name": "Initialized",
					"type": "event"
				},
				{
					"anonymous": false,
					"inputs": [
						{
							"indexed": true,
							"internalType": "address",
							"name": "previousOwner",
							"type": "address"
						},
						{
							"indexed": true,
							"internalType": "address",
							"name": "newOwner",
							"type": "address"
						}
					],
					"name": "OwnershipTransferred",
					"type": "event"
				},
				{
					"anonymous": false,
					"inputs": [
						{
							"indexed": false,
							"internalType": "address",
							"name": "account",
							"type": "address"
						}
					],
					"name": "Paused",
					"type": "event"
				},
				{
					"anonymous": false,
					"inputs": [
						{
							"indexed": true,
							"internalType": "address",
							"name": "from",
							"type": "address"
						},
						{
							"indexed": true,
							"internalType": "address",
							"name": "to",
							"type": "address"
						},
						{
							"indexed": false,
							"internalType": "uint256",
							"name": "value",
							"type": "uint256"
						}
					],
					"name": "Transfer",
					"type": "event"
				},
				{
					"anonymous": false,
					"inputs": [
						{
							"indexed": false,
							"internalType": "address",
							"name": "account",
							"type": "address"
						}
					],
					"name": "Unpaused",
					"type": "event"
				},
				{
					"anonymous": false,
					"inputs": [
						{
							"indexed": false,
							"internalType": "address",
							"name": "receiver",
							"type": "address"
						},
						{
							"indexed": false,
							"internalType": "uint256",
							"name": "amount",
							"type": "uint256"
						},
						{
							"indexed": false,
							"internalType": "uint256",
							"name": "time",
							"type": "uint256"
						}
					],
					"name": "dailyDairyClaimed",
					"type": "event"
				},
				{
					"inputs": [
						{
							"internalType": "address",
							"name": "owner",
							"type": "address"
						},
						{
							"internalType": "address",
							"name": "spender",
							"type": "address"
						}
					],
					"name": "allowance",
					"outputs": [
						{
							"internalType": "uint256",
							"name": "",
							"type": "uint256"
						}
					],
					"stateMutability": "view",
					"type": "function"
				},
				{
					"inputs": [
						{
							"internalType": "address",
							"name": "spender",
							"type": "address"
						},
						{
							"internalType": "uint256",
							"name": "amount",
							"type": "uint256"
						}
					],
					"name": "approve",
					"outputs": [
						{
							"internalType": "bool",
							"name": "",
							"type": "bool"
						}
					],
					"stateMutability": "nonpayable",
					"type": "function"
				},
				{
					"inputs": [
						{
							"internalType": "address",
							"name": "account",
							"type": "address"
						}
					],
					"name": "balanceOf",
					"outputs": [
						{
							"internalType": "uint256",
							"name": "",
							"type": "uint256"
						}
					],
					"stateMutability": "view",
					"type": "function"
				},
				{
					"inputs": [
						{
							"internalType": "uint256",
							"name": "_tokenId",
							"type": "uint256"
						}
					],
					"name": "claimDairy",
					"outputs": [],
					"stateMutability": "nonpayable",
					"type": "function"
				},
				{
					"inputs": [],
					"name": "decimals",
					"outputs": [
						{
							"internalType": "uint8",
							"name": "",
							"type": "uint8"
						}
					],
					"stateMutability": "view",
					"type": "function"
				},
				{
					"inputs": [
						{
							"internalType": "address",
							"name": "spender",
							"type": "address"
						},
						{
							"internalType": "uint256",
							"name": "subtractedValue",
							"type": "uint256"
						}
					],
					"name": "decreaseAllowance",
					"outputs": [
						{
							"internalType": "bool",
							"name": "",
							"type": "bool"
						}
					],
					"stateMutability": "nonpayable",
					"type": "function"
				},
				{
					"inputs": [
						{
							"internalType": "uint256",
							"name": "_tokenId",
							"type": "uint256"
						}
					],
					"name": "getLastClaimed",
					"outputs": [
						{
							"internalType": "uint256",
							"name": "",
							"type": "uint256"
						}
					],
					"stateMutability": "view",
					"type": "function"
				},
				{
					"inputs": [
						{
							"internalType": "address",
							"name": "spender",
							"type": "address"
						},
						{
							"internalType": "uint256",
							"name": "addedValue",
							"type": "uint256"
						}
					],
					"name": "increaseAllowance",
					"outputs": [
						{
							"internalType": "bool",
							"name": "",
							"type": "bool"
						}
					],
					"stateMutability": "nonpayable",
					"type": "function"
				},
				{
					"inputs": [
						{
							"internalType": "string",
							"name": "name_",
							"type": "string"
						},
						{
							"internalType": "string",
							"name": "symbol_",
							"type": "string"
						}
					],
					"name": "initialize",
					"outputs": [],
					"stateMutability": "nonpayable",
					"type": "function"
				},
				{
					"inputs": [
						{
							"internalType": "address",
							"name": "to",
							"type": "address"
						},
						{
							"internalType": "uint256",
							"name": "amount",
							"type": "uint256"
						}
					],
					"name": "mint",
					"outputs": [],
					"stateMutability": "nonpayable",
					"type": "function"
				},
				{
					"inputs": [],
					"name": "name",
					"outputs": [
						{
							"internalType": "string",
							"name": "",
							"type": "string"
						}
					],
					"stateMutability": "view",
					"type": "function"
				},
				{
					"inputs": [],
					"name": "owner",
					"outputs": [
						{
							"internalType": "address",
							"name": "",
							"type": "address"
						}
					],
					"stateMutability": "view",
					"type": "function"
				},
				{
					"inputs": [],
					"name": "paused",
					"outputs": [
						{
							"internalType": "bool",
							"name": "",
							"type": "bool"
						}
					],
					"stateMutability": "view",
					"type": "function"
				},
				{
					"inputs": [],
					"name": "renounceOwnership",
					"outputs": [],
					"stateMutability": "nonpayable",
					"type": "function"
				},
				{
					"inputs": [
						{
							"internalType": "uint256",
							"name": "_cooldown",
							"type": "uint256"
						}
					],
					"name": "setCooldown",
					"outputs": [],
					"stateMutability": "nonpayable",
					"type": "function"
				},
				{
					"inputs": [
						{
							"internalType": "address",
							"name": "_moola",
							"type": "address"
						}
					],
					"name": "setMoolaNFTAddress",
					"outputs": [],
					"stateMutability": "nonpayable",
					"type": "function"
				},
				{
					"inputs": [
						{
							"internalType": "address",
							"name": "_whitelist",
							"type": "address"
						}
					],
					"name": "setWhitelist",
					"outputs": [],
					"stateMutability": "nonpayable",
					"type": "function"
				},
				{
					"inputs": [],
					"name": "symbol",
					"outputs": [
						{
							"internalType": "string",
							"name": "",
							"type": "string"
						}
					],
					"stateMutability": "view",
					"type": "function"
				},
				{
					"inputs": [],
					"name": "totalSupply",
					"outputs": [
						{
							"internalType": "uint256",
							"name": "",
							"type": "uint256"
						}
					],
					"stateMutability": "view",
					"type": "function"
				},
				{
					"inputs": [
						{
							"internalType": "address",
							"name": "to",
							"type": "address"
						},
						{
							"internalType": "uint256",
							"name": "amount",
							"type": "uint256"
						}
					],
					"name": "transfer",
					"outputs": [
						{
							"internalType": "bool",
							"name": "",
							"type": "bool"
						}
					],
					"stateMutability": "nonpayable",
					"type": "function"
				},
				{
					"inputs": [
						{
							"internalType": "address",
							"name": "from",
							"type": "address"
						},
						{
							"internalType": "address",
							"name": "to",
							"type": "address"
						},
						{
							"internalType": "uint256",
							"name": "amount",
							"type": "uint256"
						}
					],
					"name": "transferFrom",
					"outputs": [
						{
							"internalType": "bool",
							"name": "",
							"type": "bool"
						}
					],
					"stateMutability": "nonpayable",
					"type": "function"
				},
				{
					"inputs": [
						{
							"internalType": "address",
							"name": "newOwner",
							"type": "address"
						}
					],
					"name": "transferOwnership",
					"outputs": [],
					"stateMutability": "nonpayable",
					"type": "function"
				}
			],
			"devdoc": {
				"kind": "dev",
				"methods": {
					"allowance(address,address)": {
						"details": "See {IERC20-allowance}."
					},
					"approve(address,uint256)": {
						"details": "See {IERC20-approve}. NOTE: If `amount` is the maximum `uint256`, the allowance is not updated on `transferFrom`. This is semantically equivalent to an infinite approval. Requirements: - `spender` cannot be the zero address."
					},
					"balanceOf(address)": {
						"details": "See {IERC20-balanceOf}."
					},
					"decreaseAllowance(address,uint256)": {
						"details": "Atomically decreases the allowance granted to `spender` by the caller. This is an alternative to {approve} that can be used as a mitigation for problems described in {IERC20-approve}. Emits an {Approval} event indicating the updated allowance. Requirements: - `spender` cannot be the zero address. - `spender` must have allowance for the caller of at least `subtractedValue`."
					},
					"increaseAllowance(address,uint256)": {
						"details": "Atomically increases the allowance granted to `spender` by the caller. This is an alternative to {approve} that can be used as a mitigation for problems described in {IERC20-approve}. Emits an {Approval} event indicating the updated allowance. Requirements: - `spender` cannot be the zero address."
					},
					"mint(address,uint256)": {
						"params": {
							"amount": "??",
							"to": "??"
						}
					},
					"name()": {
						"details": "Returns the name of the token."
					},
					"owner()": {
						"details": "Returns the address of the current owner."
					},
					"paused()": {
						"details": "Returns true if the contract is paused, and false otherwise."
					},
					"renounceOwnership()": {
						"details": "Leaves the contract without owner. It will not be possible to call `onlyOwner` functions anymore. Can only be called by the current owner. NOTE: Renouncing ownership will leave the contract without an owner, thereby removing any functionality that is only available to the owner."
					},
					"symbol()": {
						"details": "Returns the symbol of the token, usually a shorter version of the name."
					},
					"totalSupply()": {
						"details": "See {IERC20-totalSupply}."
					},
					"transfer(address,uint256)": {
						"details": "See {IERC20-transfer}. Requirements: - `to` cannot be the zero address. - the caller must have a balance of at least `amount`."
					},
					"transferFrom(address,address,uint256)": {
						"details": "See {IERC20-transferFrom}. Emits an {Approval} event indicating the updated allowance. This is not required by the EIP. See the note at the beginning of {ERC20}. NOTE: Does not update the allowance if the current allowance is the maximum `uint256`. Requirements: - `from` and `to` cannot be the zero address. - `from` must have a balance of at least `amount`. - the caller must have allowance for ``from``'s tokens of at least `amount`."
					},
					"transferOwnership(address)": {
						"details": "Transfers ownership of the contract to a new account (`newOwner`). Can only be called by the current owner."
					}
				},
				"version": 1
			},
			"evm": {
				"assembly": "    /* \"contracts/tokens/Moola.sol\":562:2550  contract Moola is ERC20Upgradeable, OwnableUpgradeable, PausableUpgradeable {\r... */\n  mstore(0x40, 0x80)\n  callvalue\n  dup1\n  iszero\n  tag_1\n  jumpi\n  0x00\n  dup1\n  revert\ntag_1:\n  pop\n  dataSize(sub_0)\n  dup1\n  dataOffset(sub_0)\n  0x00\n  codecopy\n  0x00\n  return\nstop\n\nsub_0: assembly {\n        /* \"contracts/tokens/Moola.sol\":562:2550  contract Moola is ERC20Upgradeable, OwnableUpgradeable, PausableUpgradeable {\r... */\n      mstore(0x40, 0x80)\n      callvalue\n      dup1\n      iszero\n      tag_1\n      jumpi\n      0x00\n      dup1\n      revert\n    tag_1:\n      pop\n      jumpi(tag_2, lt(calldatasize, 0x04))\n      shr(0xe0, calldataload(0x00))\n      dup1\n      0x70a08231\n      gt\n      tag_25\n      jumpi\n      dup1\n      0xa457c2d7\n      gt\n      tag_26\n      jumpi\n      dup1\n      0xa457c2d7\n      eq\n      tag_19\n      jumpi\n      dup1\n      0xa9059cbb\n      eq\n      tag_20\n      jumpi\n      dup1\n      0xbe023d84\n      eq\n      tag_21\n      jumpi\n      dup1\n      0xd1a20509\n      eq\n      tag_22\n      jumpi\n      dup1\n      0xdd62ed3e\n      eq\n      tag_23\n      jumpi\n      dup1\n      0xf2fde38b\n      eq\n      tag_24\n      jumpi\n      0x00\n      dup1\n      revert\n    tag_26:\n      dup1\n      0x70a08231\n      eq\n      tag_14\n      jumpi\n      dup1\n      0x715018a6\n      eq\n      tag_15\n      jumpi\n      dup1\n      0x854cff2f\n      eq\n      tag_16\n      jumpi\n      dup1\n      0x8da5cb5b\n      eq\n      tag_17\n      jumpi\n      dup1\n      0x95d89b41\n      eq\n      tag_18\n      jumpi\n      0x00\n      dup1\n      revert\n    tag_25:\n      dup1\n      0x39509351\n      gt\n      tag_27\n      jumpi\n      dup1\n      0x39509351\n      eq\n      tag_8\n      jumpi\n      dup1\n      0x40c10f19\n      eq\n      tag_9\n      jumpi\n      dup1\n      0x4cd88b76\n      eq\n      tag_10\n      jumpi\n      dup1\n      0x4fc3f41a\n      eq\n      tag_11\n      jumpi\n      dup1\n      0x59176c8d\n      eq\n      tag_12\n      jumpi\n      dup1\n      0x5c975abb\n      eq\n      tag_13\n      jumpi\n      0x00\n      dup1\n      revert\n    tag_27:\n      dup1\n      0x06fdde03\n      eq\n      tag_3\n      jumpi\n      dup1\n      0x095ea7b3\n      eq\n      tag_4\n      jumpi\n      dup1\n      0x18160ddd\n      eq\n      tag_5\n      jumpi\n      dup1\n      0x23b872dd\n      eq\n      tag_6\n      jumpi\n      dup1\n      0x313ce567\n      eq\n      tag_7\n      jumpi\n    tag_2:\n      0x00\n      dup1\n      revert\n        /* \"@openzeppelin/contracts-upgradeable/token/ERC20/ERC20Upgradeable.sol\":2493:2591  function name() public view virtual override returns (string memory) {... */\n    tag_3:\n      tag_28\n      tag_29\n      jump\t// in\n    tag_28:\n      mload(0x40)\n      tag_30\n      swap2\n      swap1\n      tag_31\n      jump\t// in\n    tag_30:\n      mload(0x40)\n      dup1\n      swap2\n      sub\n      swap1\n      return\n        /* \"@openzeppelin/contracts-upgradeable/token/ERC20/ERC20Upgradeable.sol\":4770:4967  function approve(address spender, uint256 amount) public virtual override returns (bool) {... */\n    tag_4:\n      tag_32\n      tag_33\n      calldatasize\n      0x04\n      tag_34\n      jump\t// in\n    tag_33:\n      tag_35\n      jump\t// in\n    tag_32:\n      mload(0x40)\n        /* \"#utility.yul\":3986:4000   */\n      swap1\n      iszero\n        /* \"#utility.yul\":3979:4001   */\n      iszero\n        /* \"#utility.yul\":3961:4002   */\n      dup2\n      mstore\n        /* \"#utility.yul\":3949:3951   */\n      0x20\n        /* \"#utility.yul\":3934:3952   */\n      add\n        /* \"@openzeppelin/contracts-upgradeable/token/ERC20/ERC20Upgradeable.sol\":4770:4967  function approve(address spender, uint256 amount) public virtual override returns (bool) {... */\n      tag_30\n        /* \"#utility.yul\":3916:4008   */\n      jump\n        /* \"@openzeppelin/contracts-upgradeable/token/ERC20/ERC20Upgradeable.sol\":3581:3687  function totalSupply() public view virtual override returns (uint256) {... */\n    tag_5:\n        /* \"@openzeppelin/contracts-upgradeable/token/ERC20/ERC20Upgradeable.sol\":3668:3680  _totalSupply */\n      sload(0x35)\n        /* \"@openzeppelin/contracts-upgradeable/token/ERC20/ERC20Upgradeable.sol\":3581:3687  function totalSupply() public view virtual override returns (uint256) {... */\n    tag_38:\n      mload(0x40)\n        /* \"#utility.yul\":10734:10759   */\n      swap1\n      dup2\n      mstore\n        /* \"#utility.yul\":10722:10724   */\n      0x20\n        /* \"#utility.yul\":10707:10725   */\n      add\n        /* \"@openzeppelin/contracts-upgradeable/token/ERC20/ERC20Upgradeable.sol\":3581:3687  function totalSupply() public view virtual override returns (uint256) {... */\n      tag_30\n        /* \"#utility.yul\":10689:10765   */\n      jump\n        /* \"@openzeppelin/contracts-upgradeable/token/ERC20/ERC20Upgradeable.sol\":5529:5815  function transferFrom(... */\n    tag_6:\n      tag_32\n      tag_43\n      calldatasize\n      0x04\n      tag_44\n      jump\t// in\n    tag_43:\n      tag_45\n      jump\t// in\n        /* \"contracts/tokens/Moola.sol\":1709:1796  function decimals() public view virtual override returns (uint8) {\r... */\n    tag_7:\n      mload(0x40)\n        /* \"contracts/tokens/Moola.sol\":1788:1790  18 */\n      0x12\n        /* \"#utility.yul\":4165:4201   */\n      dup2\n      mstore\n        /* \"#utility.yul\":4153:4155   */\n      0x20\n        /* \"#utility.yul\":4138:4156   */\n      add\n        /* \"contracts/tokens/Moola.sol\":1709:1796  function decimals() public view virtual override returns (uint8) {\r... */\n      tag_30\n        /* \"#utility.yul\":4120:4207   */\n      jump\n        /* \"@openzeppelin/contracts-upgradeable/token/ERC20/ERC20Upgradeable.sol\":6210:6444  function increaseAllowance(address spender, uint256 addedValue) public virtual returns (bool) {... */\n    tag_8:\n      tag_32\n      tag_52\n      calldatasize\n      0x04\n      tag_34\n      jump\t// in\n    tag_52:\n      tag_53\n      jump\t// in\n        /* \"contracts/tokens/Moola.sol\":1926:2021  function mint(address to, uint256 amount) external onlyWhitelist {\r... */\n    tag_9:\n      tag_55\n      tag_56\n      calldatasize\n      0x04\n      tag_34\n      jump\t// in\n    tag_56:\n      tag_57\n      jump\t// in\n    tag_55:\n      stop\n        /* \"contracts/tokens/Moola.sol\":1050:1309  function initialize(string memory name_, string memory symbol_)\r... */\n    tag_10:\n      tag_55\n      tag_59\n      calldatasize\n      0x04\n      tag_60\n      jump\t// in\n    tag_59:\n      tag_61\n      jump\t// in\n        /* \"contracts/tokens/Moola.sol\":1423:1515  function setCooldown(uint256 _cooldown) external onlyOwner {\r... */\n    tag_11:\n      tag_55\n      tag_63\n      calldatasize\n      0x04\n      tag_64\n      jump\t// in\n    tag_63:\n      tag_65\n      jump\t// in\n        /* \"contracts/tokens/Moola.sol\":2027:2423  function claimDairy(uint256 _tokenId) external {\r... */\n    tag_12:\n      tag_55\n      tag_67\n      calldatasize\n      0x04\n      tag_64\n      jump\t// in\n    tag_67:\n      tag_68\n      jump\t// in\n        /* \"@openzeppelin/contracts-upgradeable/security/PausableUpgradeable.sol\":1341:1425  function paused() public view virtual returns (bool) {... */\n    tag_13:\n        /* \"@openzeppelin/contracts-upgradeable/security/PausableUpgradeable.sol\":1411:1418  _paused */\n      and(0xff, sload(0x97))\n        /* \"@openzeppelin/contracts-upgradeable/security/PausableUpgradeable.sol\":1341:1425  function paused() public view virtual returns (bool) {... */\n      jump(tag_32)\n        /* \"@openzeppelin/contracts-upgradeable/token/ERC20/ERC20Upgradeable.sol\":3745:3870  function balanceOf(address account) public view virtual override returns (uint256) {... */\n    tag_14:\n      tag_38\n      tag_73\n      calldatasize\n      0x04\n      tag_74\n      jump\t// in\n    tag_73:\n      sub(shl(0xa0, 0x01), 0x01)\n        /* \"@openzeppelin/contracts-upgradeable/token/ERC20/ERC20Upgradeable.sol\":3845:3863  _balances[account] */\n      and\n        /* \"@openzeppelin/contracts-upgradeable/token/ERC20/ERC20Upgradeable.sol\":3819:3826  uint256 */\n      0x00\n        /* \"@openzeppelin/contracts-upgradeable/token/ERC20/ERC20Upgradeable.sol\":3845:3863  _balances[account] */\n      swap1\n      dup2\n      mstore\n        /* \"@openzeppelin/contracts-upgradeable/token/ERC20/ERC20Upgradeable.sol\":3845:3854  _balances */\n      0x33\n        /* \"@openzeppelin/contracts-upgradeable/token/ERC20/ERC20Upgradeable.sol\":3845:3863  _balances[account] */\n      0x20\n      mstore\n      0x40\n      swap1\n      keccak256\n      sload\n      swap1\n        /* \"@openzeppelin/contracts-upgradeable/token/ERC20/ERC20Upgradeable.sol\":3745:3870  function balanceOf(address account) public view virtual override returns (uint256) {... */\n      jump\n        /* \"@openzeppelin/contracts-upgradeable/access/OwnableUpgradeable.sol\":1908:2009  function renounceOwnership() public virtual onlyOwner {... */\n    tag_15:\n      tag_55\n      tag_78\n      jump\t// in\n        /* \"contracts/tokens/Moola.sol\":1315:1417  function setWhitelist(address _whitelist) external onlyOwner {\r... */\n    tag_16:\n      tag_55\n      tag_80\n      calldatasize\n      0x04\n      tag_74\n      jump\t// in\n    tag_80:\n      tag_81\n      jump\t// in\n        /* \"@openzeppelin/contracts-upgradeable/access/OwnableUpgradeable.sol\":1276:1361  function owner() public view virtual returns (address) {... */\n    tag_17:\n        /* \"@openzeppelin/contracts-upgradeable/access/OwnableUpgradeable.sol\":1348:1354  _owner */\n      sload(0x65)\n        /* \"@openzeppelin/contracts-upgradeable/access/OwnableUpgradeable.sol\":1276:1361  function owner() public view virtual returns (address) {... */\n      mload(0x40)\n      sub(shl(0xa0, 0x01), 0x01)\n        /* \"@openzeppelin/contracts-upgradeable/access/OwnableUpgradeable.sol\":1348:1354  _owner */\n      swap1\n      swap2\n      and\n        /* \"#utility.yul\":3409:3460   */\n      dup2\n      mstore\n        /* \"#utility.yul\":3397:3399   */\n      0x20\n        /* \"#utility.yul\":3382:3400   */\n      add\n        /* \"@openzeppelin/contracts-upgradeable/access/OwnableUpgradeable.sol\":1276:1361  function owner() public view virtual returns (address) {... */\n      tag_30\n        /* \"#utility.yul\":3364:3466   */\n      jump\n        /* \"@openzeppelin/contracts-upgradeable/token/ERC20/ERC20Upgradeable.sol\":2704:2806  function symbol() public view virtual override returns (string memory) {... */\n    tag_18:\n      tag_28\n      tag_87\n      jump\t// in\n        /* \"@openzeppelin/contracts-upgradeable/token/ERC20/ERC20Upgradeable.sol\":6931:7358  function decreaseAllowance(address spender, uint256 subtractedValue) public virtual returns (bool) {... */\n    tag_19:\n      tag_32\n      tag_90\n      calldatasize\n      0x04\n      tag_34\n      jump\t// in\n    tag_90:\n      tag_91\n      jump\t// in\n        /* \"@openzeppelin/contracts-upgradeable/token/ERC20/ERC20Upgradeable.sol\":4066:4255  function transfer(address to, uint256 amount) public virtual override returns (bool) {... */\n    tag_20:\n      tag_32\n      tag_94\n      calldatasize\n      0x04\n      tag_34\n      jump\t// in\n    tag_94:\n      tag_95\n      jump\t// in\n        /* \"contracts/tokens/Moola.sol\":1521:1644  function setMoolaNFTAddress(address _moola) external onlyOwner {\r... */\n    tag_21:\n      tag_55\n      tag_98\n      calldatasize\n      0x04\n      tag_74\n      jump\t// in\n    tag_98:\n      tag_99\n      jump\t// in\n        /* \"contracts/tokens/Moola.sol\":2429:2547  function getLastClaimed(uint256 _tokenId) external view returns (uint256) {\r... */\n    tag_22:\n      tag_38\n      tag_101\n      calldatasize\n      0x04\n      tag_64\n      jump\t// in\n    tag_101:\n        /* \"contracts/tokens/Moola.sol\":2494:2501  uint256 */\n      0x00\n        /* \"contracts/tokens/Moola.sol\":2517:2541  nftLastClaimed[_tokenId] */\n      swap1\n      dup2\n      mstore\n        /* \"contracts/tokens/Moola.sol\":2517:2531  nftLastClaimed */\n      0xcd\n        /* \"contracts/tokens/Moola.sol\":2517:2541  nftLastClaimed[_tokenId] */\n      0x20\n      mstore\n      0x40\n      swap1\n      keccak256\n      sload\n      swap1\n        /* \"contracts/tokens/Moola.sol\":2429:2547  function getLastClaimed(uint256 _tokenId) external view returns (uint256) {\r... */\n      jump\n        /* \"@openzeppelin/contracts-upgradeable/token/ERC20/ERC20Upgradeable.sol\":4313:4462  function allowance(address owner, address spender) public view virtual override returns (uint256) {... */\n    tag_23:\n      tag_38\n      tag_105\n      calldatasize\n      0x04\n      tag_106\n      jump\t// in\n    tag_105:\n      tag_107\n      jump\t// in\n        /* \"@openzeppelin/contracts-upgradeable/access/OwnableUpgradeable.sol\":2158:2356  function transferOwnership(address newOwner) public virtual onlyOwner {... */\n    tag_24:\n      tag_55\n      tag_110\n      calldatasize\n      0x04\n      tag_74\n      jump\t// in\n    tag_110:\n      tag_111\n      jump\t// in\n        /* \"@openzeppelin/contracts-upgradeable/token/ERC20/ERC20Upgradeable.sol\":2493:2591  function name() public view virtual override returns (string memory) {... */\n    tag_29:\n        /* \"@openzeppelin/contracts-upgradeable/token/ERC20/ERC20Upgradeable.sol\":2547:2560  string memory */\n      0x60\n        /* \"@openzeppelin/contracts-upgradeable/token/ERC20/ERC20Upgradeable.sol\":2579:2584  _name */\n      0x36\n        /* \"@openzeppelin/contracts-upgradeable/token/ERC20/ERC20Upgradeable.sol\":2572:2584  return _name */\n      dup1\n      sload\n      tag_113\n      swap1\n      tag_114\n      jump\t// in\n    tag_113:\n      dup1\n      0x1f\n      add\n      0x20\n      dup1\n      swap2\n      div\n      mul\n      0x20\n      add\n      mload(0x40)\n      swap1\n      dup2\n      add\n      0x40\n      mstore\n      dup1\n      swap3\n      swap2\n      swap1\n      dup2\n      dup2\n      mstore\n      0x20\n      add\n      dup3\n      dup1\n      sload\n      tag_115\n      swap1\n      tag_114\n      jump\t// in\n    tag_115:\n      dup1\n      iszero\n      tag_116\n      jumpi\n      dup1\n      0x1f\n      lt\n      tag_117\n      jumpi\n      0x0100\n      dup1\n      dup4\n      sload\n      div\n      mul\n      dup4\n      mstore\n      swap2\n      0x20\n      add\n      swap2\n      jump(tag_116)\n    tag_117:\n      dup3\n      add\n      swap2\n      swap1\n      0x00\n      mstore\n      keccak256(0x00, 0x20)\n      swap1\n    tag_118:\n      dup2\n      sload\n      dup2\n      mstore\n      swap1\n      0x01\n      add\n      swap1\n      0x20\n      add\n      dup1\n      dup4\n      gt\n      tag_118\n      jumpi\n      dup3\n      swap1\n      sub\n      0x1f\n      and\n      dup3\n      add\n      swap2\n    tag_116:\n      pop\n      pop\n      pop\n      pop\n      pop\n      swap1\n      pop\n        /* \"@openzeppelin/contracts-upgradeable/token/ERC20/ERC20Upgradeable.sol\":2493:2591  function name() public view virtual override returns (string memory) {... */\n      swap1\n      jump\t// out\n        /* \"@openzeppelin/contracts-upgradeable/token/ERC20/ERC20Upgradeable.sol\":4770:4967  function approve(address spender, uint256 amount) public virtual override returns (bool) {... */\n    tag_35:\n        /* \"@openzeppelin/contracts-upgradeable/token/ERC20/ERC20Upgradeable.sol\":4853:4857  bool */\n      0x00\n        /* \"@openzeppelin/contracts-upgradeable/utils/ContextUpgradeable.sol\":929:939  msg.sender */\n      caller\n        /* \"@openzeppelin/contracts-upgradeable/token/ERC20/ERC20Upgradeable.sol\":4907:4939  _approve(owner, spender, amount) */\n      tag_122\n        /* \"@openzeppelin/contracts-upgradeable/utils/ContextUpgradeable.sol\":929:939  msg.sender */\n      dup2\n        /* \"@openzeppelin/contracts-upgradeable/token/ERC20/ERC20Upgradeable.sol\":4923:4930  spender */\n      dup6\n        /* \"@openzeppelin/contracts-upgradeable/token/ERC20/ERC20Upgradeable.sol\":4932:4938  amount */\n      dup6\n        /* \"@openzeppelin/contracts-upgradeable/token/ERC20/ERC20Upgradeable.sol\":4907:4915  _approve */\n      tag_123\n        /* \"@openzeppelin/contracts-upgradeable/token/ERC20/ERC20Upgradeable.sol\":4907:4939  _approve(owner, spender, amount) */\n      jump\t// in\n    tag_122:\n      pop\n        /* \"@openzeppelin/contracts-upgradeable/token/ERC20/ERC20Upgradeable.sol\":4956:4960  true */\n      0x01\n      swap4\n        /* \"@openzeppelin/contracts-upgradeable/token/ERC20/ERC20Upgradeable.sol\":4770:4967  function approve(address spender, uint256 amount) public virtual override returns (bool) {... */\n      swap3\n      pop\n      pop\n      pop\n      jump\t// out\n        /* \"@openzeppelin/contracts-upgradeable/token/ERC20/ERC20Upgradeable.sol\":5529:5815  function transferFrom(... */\n    tag_45:\n        /* \"@openzeppelin/contracts-upgradeable/token/ERC20/ERC20Upgradeable.sol\":5656:5660  bool */\n      0x00\n        /* \"@openzeppelin/contracts-upgradeable/utils/ContextUpgradeable.sol\":929:939  msg.sender */\n      caller\n        /* \"@openzeppelin/contracts-upgradeable/token/ERC20/ERC20Upgradeable.sol\":5712:5750  _spendAllowance(from, spender, amount) */\n      tag_127\n        /* \"@openzeppelin/contracts-upgradeable/token/ERC20/ERC20Upgradeable.sol\":5728:5732  from */\n      dup6\n        /* \"@openzeppelin/contracts-upgradeable/utils/ContextUpgradeable.sol\":929:939  msg.sender */\n      dup3\n        /* \"@openzeppelin/contracts-upgradeable/token/ERC20/ERC20Upgradeable.sol\":5743:5749  amount */\n      dup6\n        /* \"@openzeppelin/contracts-upgradeable/token/ERC20/ERC20Upgradeable.sol\":5712:5727  _spendAllowance */\n      tag_128\n        /* \"@openzeppelin/contracts-upgradeable/token/ERC20/ERC20Upgradeable.sol\":5712:5750  _spendAllowance(from, spender, amount) */\n      jump\t// in\n    tag_127:\n        /* \"@openzeppelin/contracts-upgradeable/token/ERC20/ERC20Upgradeable.sol\":5760:5787  _transfer(from, to, amount) */\n      tag_129\n        /* \"@openzeppelin/contracts-upgradeable/token/ERC20/ERC20Upgradeable.sol\":5770:5774  from */\n      dup6\n        /* \"@openzeppelin/contracts-upgradeable/token/ERC20/ERC20Upgradeable.sol\":5776:5778  to */\n      dup6\n        /* \"@openzeppelin/contracts-upgradeable/token/ERC20/ERC20Upgradeable.sol\":5780:5786  amount */\n      dup6\n        /* \"@openzeppelin/contracts-upgradeable/token/ERC20/ERC20Upgradeable.sol\":5760:5769  _transfer */\n      tag_130\n        /* \"@openzeppelin/contracts-upgradeable/token/ERC20/ERC20Upgradeable.sol\":5760:5787  _transfer(from, to, amount) */\n      jump\t// in\n    tag_129:\n      pop\n        /* \"@openzeppelin/contracts-upgradeable/token/ERC20/ERC20Upgradeable.sol\":5804:5808  true */\n      0x01\n      swap5\n        /* \"@openzeppelin/contracts-upgradeable/token/ERC20/ERC20Upgradeable.sol\":5529:5815  function transferFrom(... */\n      swap4\n      pop\n      pop\n      pop\n      pop\n      jump\t// out\n        /* \"@openzeppelin/contracts-upgradeable/token/ERC20/ERC20Upgradeable.sol\":6210:6444  function increaseAllowance(address spender, uint256 addedValue) public virtual returns (bool) {... */\n    tag_53:\n        /* \"@openzeppelin/contracts-upgradeable/token/ERC20/ERC20Upgradeable.sol\":6298:6302  bool */\n      0x00\n        /* \"@openzeppelin/contracts-upgradeable/utils/ContextUpgradeable.sol\":929:939  msg.sender */\n      caller\n        /* \"@openzeppelin/contracts-upgradeable/token/ERC20/ERC20Upgradeable.sol\":6352:6416  _approve(owner, spender, allowance(owner, spender) + addedValue) */\n      tag_122\n        /* \"@openzeppelin/contracts-upgradeable/utils/ContextUpgradeable.sol\":929:939  msg.sender */\n      dup2\n        /* \"@openzeppelin/contracts-upgradeable/token/ERC20/ERC20Upgradeable.sol\":6368:6375  spender */\n      dup6\n        /* \"@openzeppelin/contracts-upgradeable/token/ERC20/ERC20Upgradeable.sol\":6405:6415  addedValue */\n      dup6\n        /* \"@openzeppelin/contracts-upgradeable/token/ERC20/ERC20Upgradeable.sol\":6377:6402  allowance(owner, spender) */\n      tag_135\n        /* \"@openzeppelin/contracts-upgradeable/utils/ContextUpgradeable.sol\":929:939  msg.sender */\n      dup4\n        /* \"@openzeppelin/contracts-upgradeable/token/ERC20/ERC20Upgradeable.sol\":6368:6375  spender */\n      dup4\n        /* \"@openzeppelin/contracts-upgradeable/token/ERC20/ERC20Upgradeable.sol\":6377:6386  allowance */\n      tag_107\n        /* \"@openzeppelin/contracts-upgradeable/token/ERC20/ERC20Upgradeable.sol\":6377:6402  allowance(owner, spender) */\n      jump\t// in\n    tag_135:\n        /* \"@openzeppelin/contracts-upgradeable/token/ERC20/ERC20Upgradeable.sol\":6377:6415  allowance(owner, spender) + addedValue */\n      tag_136\n      swap2\n      swap1\n      tag_137\n      jump\t// in\n    tag_136:\n        /* \"@openzeppelin/contracts-upgradeable/token/ERC20/ERC20Upgradeable.sol\":6352:6360  _approve */\n      tag_123\n        /* \"@openzeppelin/contracts-upgradeable/token/ERC20/ERC20Upgradeable.sol\":6352:6416  _approve(owner, spender, allowance(owner, spender) + addedValue) */\n      jump\t// in\n        /* \"contracts/tokens/Moola.sol\":1926:2021  function mint(address to, uint256 amount) external onlyWhitelist {\r... */\n    tag_57:\n        /* \"contracts/tokens/Moola.sol\":922:932  msg.sender */\n      caller\n        /* \"contracts/tokens/Moola.sol\":912:933  whitelist[msg.sender] */\n      0x00\n      swap1\n      dup2\n      mstore\n        /* \"contracts/tokens/Moola.sol\":912:921  whitelist */\n      0xcc\n        /* \"contracts/tokens/Moola.sol\":912:933  whitelist[msg.sender] */\n      0x20\n      mstore\n      0x40\n      swap1\n      keccak256\n      sload\n      0xff\n      and\n        /* \"contracts/tokens/Moola.sol\":904:952  require(whitelist[msg.sender], \"Only whitelist\") */\n      tag_139\n      jumpi\n      mload(0x40)\n      shl(0xe5, 0x461bcd)\n      dup2\n      mstore\n        /* \"#utility.yul\":9681:9683   */\n      0x20\n        /* \"contracts/tokens/Moola.sol\":904:952  require(whitelist[msg.sender], \"Only whitelist\") */\n      0x04\n      dup3\n      add\n        /* \"#utility.yul\":9663:9684   */\n      mstore\n        /* \"#utility.yul\":9720:9722   */\n      0x0e\n        /* \"#utility.yul\":9700:9718   */\n      0x24\n      dup3\n      add\n        /* \"#utility.yul\":9693:9723   */\n      mstore\n      shl(0x92, 0x13db9b1e481dda1a5d195b1a5cdd)\n        /* \"#utility.yul\":9739:9757   */\n      0x44\n      dup3\n      add\n        /* \"#utility.yul\":9732:9776   */\n      mstore\n        /* \"#utility.yul\":9793:9811   */\n      0x64\n      add\n        /* \"contracts/tokens/Moola.sol\":904:952  require(whitelist[msg.sender], \"Only whitelist\") */\n    tag_140:\n      mload(0x40)\n      dup1\n      swap2\n      sub\n      swap1\n      revert\n    tag_139:\n        /* \"contracts/tokens/Moola.sol\":1998:2015  _mint(to, amount) */\n      tag_143\n        /* \"contracts/tokens/Moola.sol\":2004:2006  to */\n      dup3\n        /* \"contracts/tokens/Moola.sol\":2008:2014  amount */\n      dup3\n        /* \"contracts/tokens/Moola.sol\":1998:2003  _mint */\n      tag_144\n        /* \"contracts/tokens/Moola.sol\":1998:2015  _mint(to, amount) */\n      jump\t// in\n    tag_143:\n        /* \"contracts/tokens/Moola.sol\":1926:2021  function mint(address to, uint256 amount) external onlyWhitelist {\r... */\n      pop\n      pop\n      jump\t// out\n        /* \"contracts/tokens/Moola.sol\":1050:1309  function initialize(string memory name_, string memory symbol_)\r... */\n    tag_61:\n        /* \"@openzeppelin/contracts-upgradeable/proxy/utils/Initializable.sol\":3111:3130  bool isTopLevelCall */\n      0x00\n        /* \"@openzeppelin/contracts-upgradeable/proxy/utils/Initializable.sol\":3133:3158  _setInitializedVersion(1) */\n      tag_146\n        /* \"@openzeppelin/contracts-upgradeable/proxy/utils/Initializable.sol\":3156:3157  1 */\n      0x01\n        /* \"@openzeppelin/contracts-upgradeable/proxy/utils/Initializable.sol\":3133:3155  _setInitializedVersion */\n      tag_147\n        /* \"@openzeppelin/contracts-upgradeable/proxy/utils/Initializable.sol\":3133:3158  _setInitializedVersion(1) */\n      jump\t// in\n    tag_146:\n        /* \"@openzeppelin/contracts-upgradeable/proxy/utils/Initializable.sol\":3111:3158  bool isTopLevelCall = _setInitializedVersion(1) */\n      swap1\n      pop\n        /* \"@openzeppelin/contracts-upgradeable/proxy/utils/Initializable.sol\":3172:3186  isTopLevelCall */\n      dup1\n        /* \"@openzeppelin/contracts-upgradeable/proxy/utils/Initializable.sol\":3168:3233  if (isTopLevelCall) {... */\n      iszero\n      tag_148\n      jumpi\n        /* \"@openzeppelin/contracts-upgradeable/proxy/utils/Initializable.sol\":3202:3215  _initializing */\n      0x00\n        /* \"@openzeppelin/contracts-upgradeable/proxy/utils/Initializable.sol\":3202:3222  _initializing = true */\n      dup1\n      sload\n      not(0xff00)\n      and\n      0x0100\n      or\n      swap1\n      sstore\n        /* \"@openzeppelin/contracts-upgradeable/proxy/utils/Initializable.sol\":3168:3233  if (isTopLevelCall) {... */\n    tag_148:\n        /* \"contracts/tokens/Moola.sol\":1155:1183  __ERC20_init(name_, symbol_) */\n      tag_150\n        /* \"contracts/tokens/Moola.sol\":1168:1173  name_ */\n      dup4\n        /* \"contracts/tokens/Moola.sol\":1175:1182  symbol_ */\n      dup4\n        /* \"contracts/tokens/Moola.sol\":1155:1167  __ERC20_init */\n      tag_151\n        /* \"contracts/tokens/Moola.sol\":1155:1183  __ERC20_init(name_, symbol_) */\n      jump\t// in\n    tag_150:\n        /* \"contracts/tokens/Moola.sol\":1190:1206  __Ownable_init() */\n      tag_152\n        /* \"contracts/tokens/Moola.sol\":1190:1204  __Ownable_init */\n      tag_153\n        /* \"contracts/tokens/Moola.sol\":1190:1206  __Ownable_init() */\n      jump\t// in\n    tag_152:\n        /* \"contracts/tokens/Moola.sol\":1213:1230  __Pausable_init() */\n      tag_154\n        /* \"contracts/tokens/Moola.sol\":1213:1228  __Pausable_init */\n      tag_155\n        /* \"contracts/tokens/Moola.sol\":1213:1230  __Pausable_init() */\n      jump\t// in\n    tag_154:\n        /* \"contracts/tokens/Moola.sol\":1239:1276  _mint(msg.sender, 10000000000 * 1e18) */\n      tag_156\n        /* \"contracts/tokens/Moola.sol\":1245:1255  msg.sender */\n      caller\n        /* \"contracts/tokens/Moola.sol\":1257:1275  10000000000 * 1e18 */\n      0x204fce5e3e25026110000000\n        /* \"contracts/tokens/Moola.sol\":1239:1244  _mint */\n      tag_144\n        /* \"contracts/tokens/Moola.sol\":1239:1276  _mint(msg.sender, 10000000000 * 1e18) */\n      jump\t// in\n    tag_156:\n        /* \"contracts/tokens/Moola.sol\":1294:1303  1 minutes */\n      0x3c\n        /* \"contracts/tokens/Moola.sol\":1283:1291  cooldown */\n      0xca\n        /* \"contracts/tokens/Moola.sol\":1283:1303  cooldown = 1 minutes */\n      sstore\n        /* \"@openzeppelin/contracts-upgradeable/proxy/utils/Initializable.sol\":3253:3352  if (isTopLevelCall) {... */\n      dup1\n      iszero\n      tag_157\n      jumpi\n        /* \"@openzeppelin/contracts-upgradeable/proxy/utils/Initializable.sol\":3303:3308  false */\n      0x00\n        /* \"@openzeppelin/contracts-upgradeable/proxy/utils/Initializable.sol\":3287:3308  _initializing = false */\n      dup1\n      sload\n      not(0xff00)\n      and\n      swap1\n      sstore\n        /* \"@openzeppelin/contracts-upgradeable/proxy/utils/Initializable.sol\":3327:3341  Initialized(1) */\n      mload(0x40)\n      0x01\n        /* \"#utility.yul\":4165:4201   */\n      dup2\n      mstore\n        /* \"@openzeppelin/contracts-upgradeable/proxy/utils/Initializable.sol\":3327:3341  Initialized(1) */\n      0x7f26b83ff96e1f2b6a682f133852f6798a09c465da95921460cefb3847402498\n      swap1\n        /* \"#utility.yul\":4153:4155   */\n      0x20\n        /* \"#utility.yul\":4138:4156   */\n      add\n        /* \"@openzeppelin/contracts-upgradeable/proxy/utils/Initializable.sol\":3327:3341  Initialized(1) */\n      mload(0x40)\n      dup1\n      swap2\n      sub\n      swap1\n      log1\n        /* \"@openzeppelin/contracts-upgradeable/proxy/utils/Initializable.sol\":3253:3352  if (isTopLevelCall) {... */\n    tag_157:\n        /* \"contracts/tokens/Moola.sol\":1050:1309  function initialize(string memory name_, string memory symbol_)\r... */\n      pop\n      pop\n      pop\n      jump\t// out\n        /* \"contracts/tokens/Moola.sol\":1423:1515  function setCooldown(uint256 _cooldown) external onlyOwner {\r... */\n    tag_65:\n        /* \"@openzeppelin/contracts-upgradeable/access/OwnableUpgradeable.sol\":1348:1354  _owner */\n      and(sub(shl(0xa0, 0x01), 0x01), sload(0x65))\n        /* \"@openzeppelin/contracts-upgradeable/utils/ContextUpgradeable.sol\":929:939  msg.sender */\n      caller\n        /* \"@openzeppelin/contracts-upgradeable/access/OwnableUpgradeable.sol\":1488:1511  owner() == _msgSender() */\n      eq\n        /* \"@openzeppelin/contracts-upgradeable/access/OwnableUpgradeable.sol\":1480:1548  require(owner() == _msgSender(), \"Ownable: caller is not the owner\") */\n      tag_163\n      jumpi\n      mload(0x40)\n      shl(0xe5, 0x461bcd)\n      dup2\n      mstore\n      0x04\n      add\n      tag_140\n      swap1\n      tag_165\n      jump\t// in\n    tag_163:\n        /* \"contracts/tokens/Moola.sol\":1489:1497  cooldown */\n      0xca\n        /* \"contracts/tokens/Moola.sol\":1489:1509  cooldown = _cooldown */\n      sstore\n        /* \"contracts/tokens/Moola.sol\":1423:1515  function setCooldown(uint256 _cooldown) external onlyOwner {\r... */\n      jump\t// out\n        /* \"contracts/tokens/Moola.sol\":2027:2423  function claimDairy(uint256 _tokenId) external {\r... */\n    tag_68:\n        /* \"contracts/tokens/Moola.sol\":2089:2097  moolaNFT */\n      sload(0xcb)\n        /* \"contracts/tokens/Moola.sol\":2089:2115  moolaNFT.ownerOf(_tokenId) */\n      mload(0x40)\n      shl(0xe1, 0x31a9108f)\n      dup2\n      mstore\n      0x04\n      dup2\n      add\n        /* \"#utility.yul\":10734:10759   */\n      dup4\n      swap1\n      mstore\n        /* \"contracts/tokens/Moola.sol\":2119:2129  msg.sender */\n      caller\n      swap2\n      sub(shl(0xa0, 0x01), 0x01)\n        /* \"contracts/tokens/Moola.sol\":2089:2097  moolaNFT */\n      and\n      swap1\n        /* \"contracts/tokens/Moola.sol\":2089:2105  moolaNFT.ownerOf */\n      0x6352211e\n      swap1\n        /* \"#utility.yul\":10707:10725   */\n      0x24\n      add\n        /* \"contracts/tokens/Moola.sol\":2089:2115  moolaNFT.ownerOf(_tokenId) */\n      0x20\n      mload(0x40)\n      dup1\n      dup4\n      sub\n      dup2\n      dup7\n      dup1\n      extcodesize\n      iszero\n      dup1\n      iszero\n      tag_169\n      jumpi\n      0x00\n      dup1\n      revert\n    tag_169:\n      pop\n      gas\n      staticcall\n      iszero\n      dup1\n      iszero\n      tag_171\n      jumpi\n      returndatasize\n      0x00\n      dup1\n      returndatacopy\n      revert(0x00, returndatasize)\n    tag_171:\n      pop\n      pop\n      pop\n      pop\n      mload(0x40)\n      returndatasize\n      not(0x1f)\n      0x1f\n      dup3\n      add\n      and\n      dup3\n      add\n      dup1\n      0x40\n      mstore\n      pop\n      dup2\n      add\n      swap1\n      tag_172\n      swap2\n      swap1\n      tag_173\n      jump\t// in\n    tag_172:\n      sub(shl(0xa0, 0x01), 0x01)\n        /* \"contracts/tokens/Moola.sol\":2089:2129  moolaNFT.ownerOf(_tokenId) == msg.sender */\n      and\n      eq\n        /* \"contracts/tokens/Moola.sol\":2081:2146  require(moolaNFT.ownerOf(_tokenId) == msg.sender, \"UNAUTHORIZED\") */\n      tag_174\n      jumpi\n      mload(0x40)\n      shl(0xe5, 0x461bcd)\n      dup2\n      mstore\n        /* \"#utility.yul\":6236:6238   */\n      0x20\n        /* \"contracts/tokens/Moola.sol\":2081:2146  require(moolaNFT.ownerOf(_tokenId) == msg.sender, \"UNAUTHORIZED\") */\n      0x04\n      dup3\n      add\n        /* \"#utility.yul\":6218:6239   */\n      mstore\n        /* \"#utility.yul\":6275:6277   */\n      0x0c\n        /* \"#utility.yul\":6255:6273   */\n      0x24\n      dup3\n      add\n        /* \"#utility.yul\":6248:6278   */\n      mstore\n      shl(0xa2, 0x15539055551213d492569151)\n        /* \"#utility.yul\":6294:6312   */\n      0x44\n      dup3\n      add\n        /* \"#utility.yul\":6287:6329   */\n      mstore\n        /* \"#utility.yul\":6346:6364   */\n      0x64\n      add\n        /* \"contracts/tokens/Moola.sol\":2081:2146  require(moolaNFT.ownerOf(_tokenId) == msg.sender, \"UNAUTHORIZED\") */\n      tag_140\n        /* \"#utility.yul\":6208:6370   */\n      jump\n        /* \"contracts/tokens/Moola.sol\":2081:2146  require(moolaNFT.ownerOf(_tokenId) == msg.sender, \"UNAUTHORIZED\") */\n    tag_174:\n        /* \"contracts/tokens/Moola.sol\":2187:2211  nftLastClaimed[_tokenId] */\n      0x00\n      dup2\n      dup2\n      mstore\n        /* \"contracts/tokens/Moola.sol\":2187:2201  nftLastClaimed */\n      0xcd\n        /* \"contracts/tokens/Moola.sol\":2187:2211  nftLastClaimed[_tokenId] */\n      0x20\n      mstore\n      0x40\n      swap1\n      keccak256\n      sload\n        /* \"contracts/tokens/Moola.sol\":2215:2221  1 days */\n      0x015180\n      swap1\n        /* \"contracts/tokens/Moola.sol\":2169:2211  block.timestamp - nftLastClaimed[_tokenId] */\n      tag_177\n      swap1\n        /* \"contracts/tokens/Moola.sol\":2169:2184  block.timestamp */\n      timestamp\n        /* \"contracts/tokens/Moola.sol\":2169:2211  block.timestamp - nftLastClaimed[_tokenId] */\n      tag_178\n      jump\t// in\n    tag_177:\n        /* \"contracts/tokens/Moola.sol\":2169:2221  block.timestamp - nftLastClaimed[_tokenId] >= 1 days */\n      lt\n      iszero\n        /* \"contracts/tokens/Moola.sol\":2153:2250  require(\r... */\n      tag_179\n      jumpi\n      mload(0x40)\n      shl(0xe5, 0x461bcd)\n      dup2\n      mstore\n        /* \"#utility.yul\":6577:6579   */\n      0x20\n        /* \"contracts/tokens/Moola.sol\":2153:2250  require(\r... */\n      0x04\n      dup3\n      add\n        /* \"#utility.yul\":6559:6580   */\n      mstore\n        /* \"#utility.yul\":6616:6618   */\n      0x0b\n        /* \"#utility.yul\":6596:6614   */\n      0x24\n      dup3\n      add\n        /* \"#utility.yul\":6589:6619   */\n      mstore\n      shl(0xa9, 0x27a71021a7a7a62227aba7)\n        /* \"#utility.yul\":6635:6653   */\n      0x44\n      dup3\n      add\n        /* \"#utility.yul\":6628:6669   */\n      mstore\n        /* \"#utility.yul\":6686:6704   */\n      0x64\n      add\n        /* \"contracts/tokens/Moola.sol\":2153:2250  require(\r... */\n      tag_140\n        /* \"#utility.yul\":6549:6710   */\n      jump\n        /* \"contracts/tokens/Moola.sol\":2153:2250  require(\r... */\n    tag_179:\n        /* \"contracts/tokens/Moola.sol\":2259:2292  _mint(msg.sender, dailyAllowance) */\n      tag_182\n        /* \"contracts/tokens/Moola.sol\":2265:2275  msg.sender */\n      caller\n        /* \"contracts/tokens/Moola.sol\":2277:2291  dailyAllowance */\n      sload(0xc9)\n        /* \"contracts/tokens/Moola.sol\":2259:2264  _mint */\n      tag_144\n        /* \"contracts/tokens/Moola.sol\":2259:2292  _mint(msg.sender, dailyAllowance) */\n      jump\t// in\n    tag_182:\n        /* \"contracts/tokens/Moola.sol\":2299:2323  nftLastClaimed[_tokenId] */\n      0x00\n      dup2\n      dup2\n      mstore\n        /* \"contracts/tokens/Moola.sol\":2299:2313  nftLastClaimed */\n      0xcd\n        /* \"contracts/tokens/Moola.sol\":2299:2323  nftLastClaimed[_tokenId] */\n      0x20\n      swap1\n      dup2\n      mstore\n      0x40\n      swap2\n      dup3\n      swap1\n      keccak256\n        /* \"contracts/tokens/Moola.sol\":2326:2341  block.timestamp */\n      timestamp\n        /* \"contracts/tokens/Moola.sol\":2299:2341  nftLastClaimed[_tokenId] = block.timestamp */\n      swap1\n      dup2\n      swap1\n      sstore\n        /* \"contracts/tokens/Moola.sol\":2385:2399  dailyAllowance */\n      sload(0xc9)\n        /* \"contracts/tokens/Moola.sol\":2355:2417  dailyDairyClaimed(msg.sender, dailyAllowance, block.timestamp) */\n      dup4\n      mload\n        /* \"contracts/tokens/Moola.sol\":2373:2383  msg.sender */\n      caller\n        /* \"#utility.yul\":3673:3724   */\n      dup2\n      mstore\n        /* \"#utility.yul\":3740:3758   */\n      swap3\n      dup4\n      add\n        /* \"#utility.yul\":3733:3767   */\n      mstore\n        /* \"#utility.yul\":3783:3801   */\n      dup2\n      dup4\n      add\n        /* \"#utility.yul\":3776:3810   */\n      mstore\n        /* \"contracts/tokens/Moola.sol\":2355:2417  dailyDairyClaimed(msg.sender, dailyAllowance, block.timestamp) */\n      swap1\n      mload\n      0x8dce8756778b482ef8cfef8c65faadc506ce94e081bb6cc3a2d3448d99de9a50\n      swap2\n      dup2\n      swap1\n      sub\n        /* \"#utility.yul\":3661:3663   */\n      0x60\n        /* \"contracts/tokens/Moola.sol\":2355:2417  dailyDairyClaimed(msg.sender, dailyAllowance, block.timestamp) */\n      add\n      swap1\n      log1\n        /* \"contracts/tokens/Moola.sol\":2027:2423  function claimDairy(uint256 _tokenId) external {\r... */\n      pop\n      jump\t// out\n        /* \"@openzeppelin/contracts-upgradeable/access/OwnableUpgradeable.sol\":1908:2009  function renounceOwnership() public virtual onlyOwner {... */\n    tag_78:\n        /* \"@openzeppelin/contracts-upgradeable/access/OwnableUpgradeable.sol\":1348:1354  _owner */\n      and(sub(shl(0xa0, 0x01), 0x01), sload(0x65))\n        /* \"@openzeppelin/contracts-upgradeable/utils/ContextUpgradeable.sol\":929:939  msg.sender */\n      caller\n        /* \"@openzeppelin/contracts-upgradeable/access/OwnableUpgradeable.sol\":1488:1511  owner() == _msgSender() */\n      eq\n        /* \"@openzeppelin/contracts-upgradeable/access/OwnableUpgradeable.sol\":1480:1548  require(owner() == _msgSender(), \"Ownable: caller is not the owner\") */\n      tag_190\n      jumpi\n      mload(0x40)\n      shl(0xe5, 0x461bcd)\n      dup2\n      mstore\n      0x04\n      add\n      tag_140\n      swap1\n      tag_165\n      jump\t// in\n    tag_190:\n        /* \"@openzeppelin/contracts-upgradeable/access/OwnableUpgradeable.sol\":1972:2002  _transferOwnership(address(0)) */\n      tag_193\n        /* \"@openzeppelin/contracts-upgradeable/access/OwnableUpgradeable.sol\":1999:2000  0 */\n      0x00\n        /* \"@openzeppelin/contracts-upgradeable/access/OwnableUpgradeable.sol\":1972:1990  _transferOwnership */\n      tag_194\n        /* \"@openzeppelin/contracts-upgradeable/access/OwnableUpgradeable.sol\":1972:2002  _transferOwnership(address(0)) */\n      jump\t// in\n    tag_193:\n        /* \"@openzeppelin/contracts-upgradeable/access/OwnableUpgradeable.sol\":1908:2009  function renounceOwnership() public virtual onlyOwner {... */\n      jump\t// out\n        /* \"contracts/tokens/Moola.sol\":1315:1417  function setWhitelist(address _whitelist) external onlyOwner {\r... */\n    tag_81:\n        /* \"@openzeppelin/contracts-upgradeable/access/OwnableUpgradeable.sol\":1348:1354  _owner */\n      and(sub(shl(0xa0, 0x01), 0x01), sload(0x65))\n        /* \"@openzeppelin/contracts-upgradeable/utils/ContextUpgradeable.sol\":929:939  msg.sender */\n      caller\n        /* \"@openzeppelin/contracts-upgradeable/access/OwnableUpgradeable.sol\":1488:1511  owner() == _msgSender() */\n      eq\n        /* \"@openzeppelin/contracts-upgradeable/access/OwnableUpgradeable.sol\":1480:1548  require(owner() == _msgSender(), \"Ownable: caller is not the owner\") */\n      tag_198\n      jumpi\n      mload(0x40)\n      shl(0xe5, 0x461bcd)\n      dup2\n      mstore\n      0x04\n      add\n      tag_140\n      swap1\n      tag_165\n      jump\t// in\n    tag_198:\n      sub(shl(0xa0, 0x01), 0x01)\n        /* \"contracts/tokens/Moola.sol\":1383:1404  whitelist[_whitelist] */\n      and\n      0x00\n      swap1\n      dup2\n      mstore\n        /* \"contracts/tokens/Moola.sol\":1383:1392  whitelist */\n      0xcc\n        /* \"contracts/tokens/Moola.sol\":1383:1404  whitelist[_whitelist] */\n      0x20\n      mstore\n      0x40\n      swap1\n      keccak256\n        /* \"contracts/tokens/Moola.sol\":1383:1411  whitelist[_whitelist] = true */\n      dup1\n      sload\n      not(0xff)\n      and\n        /* \"contracts/tokens/Moola.sol\":1407:1411  true */\n      0x01\n        /* \"contracts/tokens/Moola.sol\":1383:1411  whitelist[_whitelist] = true */\n      or\n      swap1\n      sstore\n        /* \"contracts/tokens/Moola.sol\":1315:1417  function setWhitelist(address _whitelist) external onlyOwner {\r... */\n      jump\t// out\n        /* \"@openzeppelin/contracts-upgradeable/token/ERC20/ERC20Upgradeable.sol\":2704:2806  function symbol() public view virtual override returns (string memory) {... */\n    tag_87:\n        /* \"@openzeppelin/contracts-upgradeable/token/ERC20/ERC20Upgradeable.sol\":2760:2773  string memory */\n      0x60\n        /* \"@openzeppelin/contracts-upgradeable/token/ERC20/ERC20Upgradeable.sol\":2792:2799  _symbol */\n      0x37\n        /* \"@openzeppelin/contracts-upgradeable/token/ERC20/ERC20Upgradeable.sol\":2785:2799  return _symbol */\n      dup1\n      sload\n      tag_113\n      swap1\n      tag_114\n      jump\t// in\n        /* \"@openzeppelin/contracts-upgradeable/token/ERC20/ERC20Upgradeable.sol\":6931:7358  function decreaseAllowance(address spender, uint256 subtractedValue) public virtual returns (bool) {... */\n    tag_91:\n        /* \"@openzeppelin/contracts-upgradeable/token/ERC20/ERC20Upgradeable.sol\":7024:7028  bool */\n      0x00\n        /* \"@openzeppelin/contracts-upgradeable/utils/ContextUpgradeable.sol\":929:939  msg.sender */\n      caller\n        /* \"@openzeppelin/contracts-upgradeable/token/ERC20/ERC20Upgradeable.sol\":7024:7028  bool */\n      dup2\n        /* \"@openzeppelin/contracts-upgradeable/token/ERC20/ERC20Upgradeable.sol\":7105:7130  allowance(owner, spender) */\n      tag_210\n        /* \"@openzeppelin/contracts-upgradeable/utils/ContextUpgradeable.sol\":929:939  msg.sender */\n      dup3\n        /* \"@openzeppelin/contracts-upgradeable/token/ERC20/ERC20Upgradeable.sol\":7122:7129  spender */\n      dup7\n        /* \"@openzeppelin/contracts-upgradeable/token/ERC20/ERC20Upgradeable.sol\":7105:7114  allowance */\n      tag_107\n        /* \"@openzeppelin/contracts-upgradeable/token/ERC20/ERC20Upgradeable.sol\":7105:7130  allowance(owner, spender) */\n      jump\t// in\n    tag_210:\n        /* \"@openzeppelin/contracts-upgradeable/token/ERC20/ERC20Upgradeable.sol\":7078:7130  uint256 currentAllowance = allowance(owner, spender) */\n      swap1\n      pop\n        /* \"@openzeppelin/contracts-upgradeable/token/ERC20/ERC20Upgradeable.sol\":7168:7183  subtractedValue */\n      dup4\n        /* \"@openzeppelin/contracts-upgradeable/token/ERC20/ERC20Upgradeable.sol\":7148:7164  currentAllowance */\n      dup2\n        /* \"@openzeppelin/contracts-upgradeable/token/ERC20/ERC20Upgradeable.sol\":7148:7183  currentAllowance >= subtractedValue */\n      lt\n      iszero\n        /* \"@openzeppelin/contracts-upgradeable/token/ERC20/ERC20Upgradeable.sol\":7140:7225  require(currentAllowance >= subtractedValue, \"ERC20: decreased allowance below zero\") */\n      tag_211\n      jumpi\n      mload(0x40)\n      shl(0xe5, 0x461bcd)\n      dup2\n      mstore\n        /* \"#utility.yul\":10024:10026   */\n      0x20\n        /* \"@openzeppelin/contracts-upgradeable/token/ERC20/ERC20Upgradeable.sol\":7140:7225  require(currentAllowance >= subtractedValue, \"ERC20: decreased allowance below zero\") */\n      0x04\n      dup3\n      add\n        /* \"#utility.yul\":10006:10027   */\n      mstore\n        /* \"#utility.yul\":10063:10065   */\n      0x25\n        /* \"#utility.yul\":10043:10061   */\n      0x24\n      dup3\n      add\n        /* \"#utility.yul\":10036:10066   */\n      mstore\n        /* \"#utility.yul\":10102:10136   */\n      0x45524332303a2064656372656173656420616c6c6f77616e63652062656c6f77\n        /* \"#utility.yul\":10082:10100   */\n      0x44\n      dup3\n      add\n        /* \"#utility.yul\":10075:10137   */\n      mstore\n      shl(0xd8, 0x207a65726f)\n        /* \"#utility.yul\":10153:10171   */\n      0x64\n      dup3\n      add\n        /* \"#utility.yul\":10146:10181   */\n      mstore\n        /* \"#utility.yul\":10198:10217   */\n      0x84\n      add\n        /* \"@openzeppelin/contracts-upgradeable/token/ERC20/ERC20Upgradeable.sol\":7140:7225  require(currentAllowance >= subtractedValue, \"ERC20: decreased allowance below zero\") */\n      tag_140\n        /* \"#utility.yul\":9996:10223   */\n      jump\n        /* \"@openzeppelin/contracts-upgradeable/token/ERC20/ERC20Upgradeable.sol\":7140:7225  require(currentAllowance >= subtractedValue, \"ERC20: decreased allowance below zero\") */\n    tag_211:\n        /* \"@openzeppelin/contracts-upgradeable/token/ERC20/ERC20Upgradeable.sol\":7259:7319  _approve(owner, spender, currentAllowance - subtractedValue) */\n      tag_129\n        /* \"@openzeppelin/contracts-upgradeable/token/ERC20/ERC20Upgradeable.sol\":7268:7273  owner */\n      dup3\n        /* \"@openzeppelin/contracts-upgradeable/token/ERC20/ERC20Upgradeable.sol\":7275:7282  spender */\n      dup7\n        /* \"@openzeppelin/contracts-upgradeable/token/ERC20/ERC20Upgradeable.sol\":7303:7318  subtractedValue */\n      dup7\n        /* \"@openzeppelin/contracts-upgradeable/token/ERC20/ERC20Upgradeable.sol\":7284:7300  currentAllowance */\n      dup5\n        /* \"@openzeppelin/contracts-upgradeable/token/ERC20/ERC20Upgradeable.sol\":7284:7318  currentAllowance - subtractedValue */\n      sub\n        /* \"@openzeppelin/contracts-upgradeable/token/ERC20/ERC20Upgradeable.sol\":7259:7267  _approve */\n      tag_123\n        /* \"@openzeppelin/contracts-upgradeable/token/ERC20/ERC20Upgradeable.sol\":7259:7319  _approve(owner, spender, currentAllowance - subtractedValue) */\n      jump\t// in\n        /* \"@openzeppelin/contracts-upgradeable/token/ERC20/ERC20Upgradeable.sol\":4066:4255  function transfer(address to, uint256 amount) public virtual override returns (bool) {... */\n    tag_95:\n        /* \"@openzeppelin/contracts-upgradeable/token/ERC20/ERC20Upgradeable.sol\":4145:4149  bool */\n      0x00\n        /* \"@openzeppelin/contracts-upgradeable/utils/ContextUpgradeable.sol\":929:939  msg.sender */\n      caller\n        /* \"@openzeppelin/contracts-upgradeable/token/ERC20/ERC20Upgradeable.sol\":4199:4227  _transfer(owner, to, amount) */\n      tag_122\n        /* \"@openzeppelin/contracts-upgradeable/utils/ContextUpgradeable.sol\":929:939  msg.sender */\n      dup2\n        /* \"@openzeppelin/contracts-upgradeable/token/ERC20/ERC20Upgradeable.sol\":4216:4218  to */\n      dup6\n        /* \"@openzeppelin/contracts-upgradeable/token/ERC20/ERC20Upgradeable.sol\":4220:4226  amount */\n      dup6\n        /* \"@openzeppelin/contracts-upgradeable/token/ERC20/ERC20Upgradeable.sol\":4199:4208  _transfer */\n      tag_130\n        /* \"@openzeppelin/contracts-upgradeable/token/ERC20/ERC20Upgradeable.sol\":4199:4227  _transfer(owner, to, amount) */\n      jump\t// in\n        /* \"contracts/tokens/Moola.sol\":1521:1644  function setMoolaNFTAddress(address _moola) external onlyOwner {\r... */\n    tag_99:\n        /* \"@openzeppelin/contracts-upgradeable/access/OwnableUpgradeable.sol\":1348:1354  _owner */\n      and(sub(shl(0xa0, 0x01), 0x01), sload(0x65))\n        /* \"@openzeppelin/contracts-upgradeable/utils/ContextUpgradeable.sol\":929:939  msg.sender */\n      caller\n        /* \"@openzeppelin/contracts-upgradeable/access/OwnableUpgradeable.sol\":1488:1511  owner() == _msgSender() */\n      eq\n        /* \"@openzeppelin/contracts-upgradeable/access/OwnableUpgradeable.sol\":1480:1548  require(owner() == _msgSender(), \"Ownable: caller is not the owner\") */\n      tag_221\n      jumpi\n      mload(0x40)\n      shl(0xe5, 0x461bcd)\n      dup2\n      mstore\n      0x04\n      add\n      tag_140\n      swap1\n      tag_165\n      jump\t// in\n    tag_221:\n        /* \"contracts/tokens/Moola.sol\":1591:1599  moolaNFT */\n      0xcb\n        /* \"contracts/tokens/Moola.sol\":1591:1638  moolaNFT = IERC721EnumerableUpgradeable(_moola) */\n      dup1\n      sload\n      not(sub(shl(0xa0, 0x01), 0x01))\n      and\n      sub(shl(0xa0, 0x01), 0x01)\n      swap3\n      swap1\n      swap3\n      and\n      swap2\n      swap1\n      swap2\n      or\n      swap1\n      sstore\n        /* \"contracts/tokens/Moola.sol\":1521:1644  function setMoolaNFTAddress(address _moola) external onlyOwner {\r... */\n      jump\t// out\n        /* \"@openzeppelin/contracts-upgradeable/token/ERC20/ERC20Upgradeable.sol\":4313:4462  function allowance(address owner, address spender) public view virtual override returns (uint256) {... */\n    tag_107:\n      sub(shl(0xa0, 0x01), 0x01)\n        /* \"@openzeppelin/contracts-upgradeable/token/ERC20/ERC20Upgradeable.sol\":4428:4446  _allowances[owner] */\n      swap2\n      dup3\n      and\n        /* \"@openzeppelin/contracts-upgradeable/token/ERC20/ERC20Upgradeable.sol\":4402:4409  uint256 */\n      0x00\n        /* \"@openzeppelin/contracts-upgradeable/token/ERC20/ERC20Upgradeable.sol\":4428:4446  _allowances[owner] */\n      swap1\n      dup2\n      mstore\n        /* \"@openzeppelin/contracts-upgradeable/token/ERC20/ERC20Upgradeable.sol\":4428:4439  _allowances */\n      0x34\n        /* \"@openzeppelin/contracts-upgradeable/token/ERC20/ERC20Upgradeable.sol\":4428:4446  _allowances[owner] */\n      0x20\n      swap1\n      dup2\n      mstore\n      0x40\n      dup1\n      dup4\n      keccak256\n        /* \"@openzeppelin/contracts-upgradeable/token/ERC20/ERC20Upgradeable.sol\":4428:4455  _allowances[owner][spender] */\n      swap4\n      swap1\n      swap5\n      and\n      dup3\n      mstore\n      swap2\n      swap1\n      swap2\n      mstore\n      keccak256\n      sload\n      swap1\n        /* \"@openzeppelin/contracts-upgradeable/token/ERC20/ERC20Upgradeable.sol\":4313:4462  function allowance(address owner, address spender) public view virtual override returns (uint256) {... */\n      jump\t// out\n        /* \"@openzeppelin/contracts-upgradeable/access/OwnableUpgradeable.sol\":2158:2356  function transferOwnership(address newOwner) public virtual onlyOwner {... */\n    tag_111:\n        /* \"@openzeppelin/contracts-upgradeable/access/OwnableUpgradeable.sol\":1348:1354  _owner */\n      and(sub(shl(0xa0, 0x01), 0x01), sload(0x65))\n        /* \"@openzeppelin/contracts-upgradeable/utils/ContextUpgradeable.sol\":929:939  msg.sender */\n      caller\n        /* \"@openzeppelin/contracts-upgradeable/access/OwnableUpgradeable.sol\":1488:1511  owner() == _msgSender() */\n      eq\n        /* \"@openzeppelin/contracts-upgradeable/access/OwnableUpgradeable.sol\":1480:1548  require(owner() == _msgSender(), \"Ownable: caller is not the owner\") */\n      tag_229\n      jumpi\n      mload(0x40)\n      shl(0xe5, 0x461bcd)\n      dup2\n      mstore\n      0x04\n      add\n      tag_140\n      swap1\n      tag_165\n      jump\t// in\n    tag_229:\n      sub(shl(0xa0, 0x01), 0x01)\n        /* \"@openzeppelin/contracts-upgradeable/access/OwnableUpgradeable.sol\":2246:2268  newOwner != address(0) */\n      dup2\n      and\n        /* \"@openzeppelin/contracts-upgradeable/access/OwnableUpgradeable.sol\":2238:2311  require(newOwner != address(0), \"Ownable: new owner is the zero address\") */\n      tag_232\n      jumpi\n      mload(0x40)\n      shl(0xe5, 0x461bcd)\n      dup2\n      mstore\n        /* \"#utility.yul\":5426:5428   */\n      0x20\n        /* \"@openzeppelin/contracts-upgradeable/access/OwnableUpgradeable.sol\":2238:2311  require(newOwner != address(0), \"Ownable: new owner is the zero address\") */\n      0x04\n      dup3\n      add\n        /* \"#utility.yul\":5408:5429   */\n      mstore\n        /* \"#utility.yul\":5465:5467   */\n      0x26\n        /* \"#utility.yul\":5445:5463   */\n      0x24\n      dup3\n      add\n        /* \"#utility.yul\":5438:5468   */\n      mstore\n        /* \"#utility.yul\":5504:5538   */\n      0x4f776e61626c653a206e6577206f776e657220697320746865207a65726f2061\n        /* \"#utility.yul\":5484:5502   */\n      0x44\n      dup3\n      add\n        /* \"#utility.yul\":5477:5539   */\n      mstore\n      shl(0xd0, 0x646472657373)\n        /* \"#utility.yul\":5555:5573   */\n      0x64\n      dup3\n      add\n        /* \"#utility.yul\":5548:5584   */\n      mstore\n        /* \"#utility.yul\":5601:5620   */\n      0x84\n      add\n        /* \"@openzeppelin/contracts-upgradeable/access/OwnableUpgradeable.sol\":2238:2311  require(newOwner != address(0), \"Ownable: new owner is the zero address\") */\n      tag_140\n        /* \"#utility.yul\":5398:5626   */\n      jump\n        /* \"@openzeppelin/contracts-upgradeable/access/OwnableUpgradeable.sol\":2238:2311  require(newOwner != address(0), \"Ownable: new owner is the zero address\") */\n    tag_232:\n        /* \"@openzeppelin/contracts-upgradeable/access/OwnableUpgradeable.sol\":2321:2349  _transferOwnership(newOwner) */\n      tag_235\n        /* \"@openzeppelin/contracts-upgradeable/access/OwnableUpgradeable.sol\":2340:2348  newOwner */\n      dup2\n        /* \"@openzeppelin/contracts-upgradeable/access/OwnableUpgradeable.sol\":2321:2339  _transferOwnership */\n      tag_194\n        /* \"@openzeppelin/contracts-upgradeable/access/OwnableUpgradeable.sol\":2321:2349  _transferOwnership(newOwner) */\n      jump\t// in\n    tag_235:\n        /* \"@openzeppelin/contracts-upgradeable/access/OwnableUpgradeable.sol\":2158:2356  function transferOwnership(address newOwner) public virtual onlyOwner {... */\n      pop\n      jump\t// out\n        /* \"@openzeppelin/contracts-upgradeable/token/ERC20/ERC20Upgradeable.sol\":10456:10826  function _approve(... */\n    tag_123:\n      sub(shl(0xa0, 0x01), 0x01)\n        /* \"@openzeppelin/contracts-upgradeable/token/ERC20/ERC20Upgradeable.sol\":10587:10606  owner != address(0) */\n      dup4\n      and\n        /* \"@openzeppelin/contracts-upgradeable/token/ERC20/ERC20Upgradeable.sol\":10579:10647  require(owner != address(0), \"ERC20: approve from the zero address\") */\n      tag_238\n      jumpi\n      mload(0x40)\n      shl(0xe5, 0x461bcd)\n      dup2\n      mstore\n        /* \"#utility.yul\":8864:8866   */\n      0x20\n        /* \"@openzeppelin/contracts-upgradeable/token/ERC20/ERC20Upgradeable.sol\":10579:10647  require(owner != address(0), \"ERC20: approve from the zero address\") */\n      0x04\n      dup3\n      add\n        /* \"#utility.yul\":8846:8867   */\n      mstore\n        /* \"#utility.yul\":8903:8905   */\n      0x24\n        /* \"#utility.yul\":8883:8901   */\n      dup1\n      dup3\n      add\n        /* \"#utility.yul\":8876:8906   */\n      mstore\n        /* \"#utility.yul\":8942:8976   */\n      0x45524332303a20617070726f76652066726f6d20746865207a65726f20616464\n        /* \"#utility.yul\":8922:8940   */\n      0x44\n      dup3\n      add\n        /* \"#utility.yul\":8915:8977   */\n      mstore\n      shl(0xe0, 0x72657373)\n        /* \"#utility.yul\":8993:9011   */\n      0x64\n      dup3\n      add\n        /* \"#utility.yul\":8986:9020   */\n      mstore\n        /* \"#utility.yul\":9037:9056   */\n      0x84\n      add\n        /* \"@openzeppelin/contracts-upgradeable/token/ERC20/ERC20Upgradeable.sol\":10579:10647  require(owner != address(0), \"ERC20: approve from the zero address\") */\n      tag_140\n        /* \"#utility.yul\":8836:9062   */\n      jump\n        /* \"@openzeppelin/contracts-upgradeable/token/ERC20/ERC20Upgradeable.sol\":10579:10647  require(owner != address(0), \"ERC20: approve from the zero address\") */\n    tag_238:\n      sub(shl(0xa0, 0x01), 0x01)\n        /* \"@openzeppelin/contracts-upgradeable/token/ERC20/ERC20Upgradeable.sol\":10665:10686  spender != address(0) */\n      dup3\n      and\n        /* \"@openzeppelin/contracts-upgradeable/token/ERC20/ERC20Upgradeable.sol\":10657:10725  require(spender != address(0), \"ERC20: approve to the zero address\") */\n      tag_241\n      jumpi\n      mload(0x40)\n      shl(0xe5, 0x461bcd)\n      dup2\n      mstore\n        /* \"#utility.yul\":5833:5835   */\n      0x20\n        /* \"@openzeppelin/contracts-upgradeable/token/ERC20/ERC20Upgradeable.sol\":10657:10725  require(spender != address(0), \"ERC20: approve to the zero address\") */\n      0x04\n      dup3\n      add\n        /* \"#utility.yul\":5815:5836   */\n      mstore\n        /* \"#utility.yul\":5872:5874   */\n      0x22\n        /* \"#utility.yul\":5852:5870   */\n      0x24\n      dup3\n      add\n        /* \"#utility.yul\":5845:5875   */\n      mstore\n        /* \"#utility.yul\":5911:5945   */\n      0x45524332303a20617070726f766520746f20746865207a65726f206164647265\n        /* \"#utility.yul\":5891:5909   */\n      0x44\n      dup3\n      add\n        /* \"#utility.yul\":5884:5946   */\n      mstore\n      shl(0xf0, 0x7373)\n        /* \"#utility.yul\":5962:5980   */\n      0x64\n      dup3\n      add\n        /* \"#utility.yul\":5955:5987   */\n      mstore\n        /* \"#utility.yul\":6004:6023   */\n      0x84\n      add\n        /* \"@openzeppelin/contracts-upgradeable/token/ERC20/ERC20Upgradeable.sol\":10657:10725  require(spender != address(0), \"ERC20: approve to the zero address\") */\n      tag_140\n        /* \"#utility.yul\":5805:6029   */\n      jump\n        /* \"@openzeppelin/contracts-upgradeable/token/ERC20/ERC20Upgradeable.sol\":10657:10725  require(spender != address(0), \"ERC20: approve to the zero address\") */\n    tag_241:\n      sub(shl(0xa0, 0x01), 0x01)\n        /* \"@openzeppelin/contracts-upgradeable/token/ERC20/ERC20Upgradeable.sol\":10736:10754  _allowances[owner] */\n      dup4\n      dup2\n      and\n      0x00\n      dup2\n      dup2\n      mstore\n        /* \"@openzeppelin/contracts-upgradeable/token/ERC20/ERC20Upgradeable.sol\":10736:10747  _allowances */\n      0x34\n        /* \"@openzeppelin/contracts-upgradeable/token/ERC20/ERC20Upgradeable.sol\":10736:10754  _allowances[owner] */\n      0x20\n      swap1\n      dup2\n      mstore\n      0x40\n      dup1\n      dup4\n      keccak256\n        /* \"@openzeppelin/contracts-upgradeable/token/ERC20/ERC20Upgradeable.sol\":10736:10763  _allowances[owner][spender] */\n      swap5\n      dup8\n      and\n      dup1\n      dup5\n      mstore\n      swap5\n      dup3\n      mstore\n      swap2\n      dup3\n      swap1\n      keccak256\n        /* \"@openzeppelin/contracts-upgradeable/token/ERC20/ERC20Upgradeable.sol\":10736:10772  _allowances[owner][spender] = amount */\n      dup6\n      swap1\n      sstore\n        /* \"@openzeppelin/contracts-upgradeable/token/ERC20/ERC20Upgradeable.sol\":10787:10819  Approval(owner, spender, amount) */\n      swap1\n      mload\n        /* \"#utility.yul\":10734:10759   */\n      dup5\n      dup2\n      mstore\n        /* \"@openzeppelin/contracts-upgradeable/token/ERC20/ERC20Upgradeable.sol\":10787:10819  Approval(owner, spender, amount) */\n      0x8c5be1e5ebec7d5bd14f71427d1e84f3dd0314c0f7b2291e5b200ac8c7c3b925\n      swap2\n        /* \"#utility.yul\":10707:10725   */\n      add\n        /* \"@openzeppelin/contracts-upgradeable/token/ERC20/ERC20Upgradeable.sol\":10787:10819  Approval(owner, spender, amount) */\n      mload(0x40)\n      dup1\n      swap2\n      sub\n      swap1\n      log3\n        /* \"@openzeppelin/contracts-upgradeable/token/ERC20/ERC20Upgradeable.sol\":10456:10826  function _approve(... */\n      pop\n      pop\n      pop\n      jump\t// out\n        /* \"@openzeppelin/contracts-upgradeable/token/ERC20/ERC20Upgradeable.sol\":11107:11548  function _spendAllowance(... */\n    tag_128:\n        /* \"@openzeppelin/contracts-upgradeable/token/ERC20/ERC20Upgradeable.sol\":11237:11261  uint256 currentAllowance */\n      0x00\n        /* \"@openzeppelin/contracts-upgradeable/token/ERC20/ERC20Upgradeable.sol\":11264:11289  allowance(owner, spender) */\n      tag_246\n        /* \"@openzeppelin/contracts-upgradeable/token/ERC20/ERC20Upgradeable.sol\":11274:11279  owner */\n      dup5\n        /* \"@openzeppelin/contracts-upgradeable/token/ERC20/ERC20Upgradeable.sol\":11281:11288  spender */\n      dup5\n        /* \"@openzeppelin/contracts-upgradeable/token/ERC20/ERC20Upgradeable.sol\":11264:11273  allowance */\n      tag_107\n        /* \"@openzeppelin/contracts-upgradeable/token/ERC20/ERC20Upgradeable.sol\":11264:11289  allowance(owner, spender) */\n      jump\t// in\n    tag_246:\n        /* \"@openzeppelin/contracts-upgradeable/token/ERC20/ERC20Upgradeable.sol\":11237:11289  uint256 currentAllowance = allowance(owner, spender) */\n      swap1\n      pop\n      not(0x00)\n        /* \"@openzeppelin/contracts-upgradeable/token/ERC20/ERC20Upgradeable.sol\":11303:11319  currentAllowance */\n      dup2\n        /* \"@openzeppelin/contracts-upgradeable/token/ERC20/ERC20Upgradeable.sol\":11303:11340  currentAllowance != type(uint256).max */\n      eq\n        /* \"@openzeppelin/contracts-upgradeable/token/ERC20/ERC20Upgradeable.sol\":11299:11542  if (currentAllowance != type(uint256).max) {... */\n      tag_251\n      jumpi\n        /* \"@openzeppelin/contracts-upgradeable/token/ERC20/ERC20Upgradeable.sol\":11384:11390  amount */\n      dup2\n        /* \"@openzeppelin/contracts-upgradeable/token/ERC20/ERC20Upgradeable.sol\":11364:11380  currentAllowance */\n      dup2\n        /* \"@openzeppelin/contracts-upgradeable/token/ERC20/ERC20Upgradeable.sol\":11364:11390  currentAllowance >= amount */\n      lt\n      iszero\n        /* \"@openzeppelin/contracts-upgradeable/token/ERC20/ERC20Upgradeable.sol\":11356:11424  require(currentAllowance >= amount, \"ERC20: insufficient allowance\") */\n      tag_248\n      jumpi\n      mload(0x40)\n      shl(0xe5, 0x461bcd)\n      dup2\n      mstore\n        /* \"#utility.yul\":6917:6919   */\n      0x20\n        /* \"@openzeppelin/contracts-upgradeable/token/ERC20/ERC20Upgradeable.sol\":11356:11424  require(currentAllowance >= amount, \"ERC20: insufficient allowance\") */\n      0x04\n      dup3\n      add\n        /* \"#utility.yul\":6899:6920   */\n      mstore\n        /* \"#utility.yul\":6956:6958   */\n      0x1d\n        /* \"#utility.yul\":6936:6954   */\n      0x24\n      dup3\n      add\n        /* \"#utility.yul\":6929:6959   */\n      mstore\n        /* \"#utility.yul\":6995:7026   */\n      0x45524332303a20696e73756666696369656e7420616c6c6f77616e6365000000\n        /* \"#utility.yul\":6975:6993   */\n      0x44\n      dup3\n      add\n        /* \"#utility.yul\":6968:7027   */\n      mstore\n        /* \"#utility.yul\":7044:7062   */\n      0x64\n      add\n        /* \"@openzeppelin/contracts-upgradeable/token/ERC20/ERC20Upgradeable.sol\":11356:11424  require(currentAllowance >= amount, \"ERC20: insufficient allowance\") */\n      tag_140\n        /* \"#utility.yul\":6889:7068   */\n      jump\n        /* \"@openzeppelin/contracts-upgradeable/token/ERC20/ERC20Upgradeable.sol\":11356:11424  require(currentAllowance >= amount, \"ERC20: insufficient allowance\") */\n    tag_248:\n        /* \"@openzeppelin/contracts-upgradeable/token/ERC20/ERC20Upgradeable.sol\":11466:11517  _approve(owner, spender, currentAllowance - amount) */\n      tag_251\n        /* \"@openzeppelin/contracts-upgradeable/token/ERC20/ERC20Upgradeable.sol\":11475:11480  owner */\n      dup5\n        /* \"@openzeppelin/contracts-upgradeable/token/ERC20/ERC20Upgradeable.sol\":11482:11489  spender */\n      dup5\n        /* \"@openzeppelin/contracts-upgradeable/token/ERC20/ERC20Upgradeable.sol\":11510:11516  amount */\n      dup5\n        /* \"@openzeppelin/contracts-upgradeable/token/ERC20/ERC20Upgradeable.sol\":11491:11507  currentAllowance */\n      dup5\n        /* \"@openzeppelin/contracts-upgradeable/token/ERC20/ERC20Upgradeable.sol\":11491:11516  currentAllowance - amount */\n      sub\n        /* \"@openzeppelin/contracts-upgradeable/token/ERC20/ERC20Upgradeable.sol\":11466:11474  _approve */\n      tag_123\n        /* \"@openzeppelin/contracts-upgradeable/token/ERC20/ERC20Upgradeable.sol\":11466:11517  _approve(owner, spender, currentAllowance - amount) */\n      jump\t// in\n    tag_251:\n        /* \"@openzeppelin/contracts-upgradeable/token/ERC20/ERC20Upgradeable.sol\":11107:11548  function _spendAllowance(... */\n      pop\n      pop\n      pop\n      pop\n      jump\t// out\n        /* \"@openzeppelin/contracts-upgradeable/token/ERC20/ERC20Upgradeable.sol\":7821:8472  function _transfer(... */\n    tag_130:\n      sub(shl(0xa0, 0x01), 0x01)\n        /* \"@openzeppelin/contracts-upgradeable/token/ERC20/ERC20Upgradeable.sol\":7947:7965  from != address(0) */\n      dup4\n      and\n        /* \"@openzeppelin/contracts-upgradeable/token/ERC20/ERC20Upgradeable.sol\":7939:8007  require(from != address(0), \"ERC20: transfer from the zero address\") */\n      tag_253\n      jumpi\n      mload(0x40)\n      shl(0xe5, 0x461bcd)\n      dup2\n      mstore\n        /* \"#utility.yul\":8458:8460   */\n      0x20\n        /* \"@openzeppelin/contracts-upgradeable/token/ERC20/ERC20Upgradeable.sol\":7939:8007  require(from != address(0), \"ERC20: transfer from the zero address\") */\n      0x04\n      dup3\n      add\n        /* \"#utility.yul\":8440:8461   */\n      mstore\n        /* \"#utility.yul\":8497:8499   */\n      0x25\n        /* \"#utility.yul\":8477:8495   */\n      0x24\n      dup3\n      add\n        /* \"#utility.yul\":8470:8500   */\n      mstore\n        /* \"#utility.yul\":8536:8570   */\n      0x45524332303a207472616e736665722066726f6d20746865207a65726f206164\n        /* \"#utility.yul\":8516:8534   */\n      0x44\n      dup3\n      add\n        /* \"#utility.yul\":8509:8571   */\n      mstore\n      shl(0xd8, 0x6472657373)\n        /* \"#utility.yul\":8587:8605   */\n      0x64\n      dup3\n      add\n        /* \"#utility.yul\":8580:8615   */\n      mstore\n        /* \"#utility.yul\":8632:8651   */\n      0x84\n      add\n        /* \"@openzeppelin/contracts-upgradeable/token/ERC20/ERC20Upgradeable.sol\":7939:8007  require(from != address(0), \"ERC20: transfer from the zero address\") */\n      tag_140\n        /* \"#utility.yul\":8430:8657   */\n      jump\n        /* \"@openzeppelin/contracts-upgradeable/token/ERC20/ERC20Upgradeable.sol\":7939:8007  require(from != address(0), \"ERC20: transfer from the zero address\") */\n    tag_253:\n      sub(shl(0xa0, 0x01), 0x01)\n        /* \"@openzeppelin/contracts-upgradeable/token/ERC20/ERC20Upgradeable.sol\":8025:8041  to != address(0) */\n      dup3\n      and\n        /* \"@openzeppelin/contracts-upgradeable/token/ERC20/ERC20Upgradeable.sol\":8017:8081  require(to != address(0), \"ERC20: transfer to the zero address\") */\n      tag_256\n      jumpi\n      mload(0x40)\n      shl(0xe5, 0x461bcd)\n      dup2\n      mstore\n        /* \"#utility.yul\":5022:5024   */\n      0x20\n        /* \"@openzeppelin/contracts-upgradeable/token/ERC20/ERC20Upgradeable.sol\":8017:8081  require(to != address(0), \"ERC20: transfer to the zero address\") */\n      0x04\n      dup3\n      add\n        /* \"#utility.yul\":5004:5025   */\n      mstore\n        /* \"#utility.yul\":5061:5063   */\n      0x23\n        /* \"#utility.yul\":5041:5059   */\n      0x24\n      dup3\n      add\n        /* \"#utility.yul\":5034:5064   */\n      mstore\n        /* \"#utility.yul\":5100:5134   */\n      0x45524332303a207472616e7366657220746f20746865207a65726f2061646472\n        /* \"#utility.yul\":5080:5098   */\n      0x44\n      dup3\n      add\n        /* \"#utility.yul\":5073:5135   */\n      mstore\n      shl(0xe8, 0x657373)\n        /* \"#utility.yul\":5151:5169   */\n      0x64\n      dup3\n      add\n        /* \"#utility.yul\":5144:5177   */\n      mstore\n        /* \"#utility.yul\":5194:5213   */\n      0x84\n      add\n        /* \"@openzeppelin/contracts-upgradeable/token/ERC20/ERC20Upgradeable.sol\":8017:8081  require(to != address(0), \"ERC20: transfer to the zero address\") */\n      tag_140\n        /* \"#utility.yul\":4994:5219   */\n      jump\n        /* \"@openzeppelin/contracts-upgradeable/token/ERC20/ERC20Upgradeable.sol\":8017:8081  require(to != address(0), \"ERC20: transfer to the zero address\") */\n    tag_256:\n      sub(shl(0xa0, 0x01), 0x01)\n        /* \"@openzeppelin/contracts-upgradeable/token/ERC20/ERC20Upgradeable.sol\":8163:8178  _balances[from] */\n      dup4\n      and\n        /* \"@openzeppelin/contracts-upgradeable/token/ERC20/ERC20Upgradeable.sol\":8141:8160  uint256 fromBalance */\n      0x00\n        /* \"@openzeppelin/contracts-upgradeable/token/ERC20/ERC20Upgradeable.sol\":8163:8178  _balances[from] */\n      swap1\n      dup2\n      mstore\n        /* \"@openzeppelin/contracts-upgradeable/token/ERC20/ERC20Upgradeable.sol\":8163:8172  _balances */\n      0x33\n        /* \"@openzeppelin/contracts-upgradeable/token/ERC20/ERC20Upgradeable.sol\":8163:8178  _balances[from] */\n      0x20\n      mstore\n      0x40\n      swap1\n      keccak256\n      sload\n        /* \"@openzeppelin/contracts-upgradeable/token/ERC20/ERC20Upgradeable.sol\":8196:8217  fromBalance >= amount */\n      dup2\n      dup2\n      lt\n      iszero\n        /* \"@openzeppelin/contracts-upgradeable/token/ERC20/ERC20Upgradeable.sol\":8188:8260  require(fromBalance >= amount, \"ERC20: transfer amount exceeds balance\") */\n      tag_261\n      jumpi\n      mload(0x40)\n      shl(0xe5, 0x461bcd)\n      dup2\n      mstore\n        /* \"#utility.yul\":7275:7277   */\n      0x20\n        /* \"@openzeppelin/contracts-upgradeable/token/ERC20/ERC20Upgradeable.sol\":8188:8260  require(fromBalance >= amount, \"ERC20: transfer amount exceeds balance\") */\n      0x04\n      dup3\n      add\n        /* \"#utility.yul\":7257:7278   */\n      mstore\n        /* \"#utility.yul\":7314:7316   */\n      0x26\n        /* \"#utility.yul\":7294:7312   */\n      0x24\n      dup3\n      add\n        /* \"#utility.yul\":7287:7317   */\n      mstore\n        /* \"#utility.yul\":7353:7387   */\n      0x45524332303a207472616e7366657220616d6f756e7420657863656564732062\n        /* \"#utility.yul\":7333:7351   */\n      0x44\n      dup3\n      add\n        /* \"#utility.yul\":7326:7388   */\n      mstore\n      shl(0xd0, 0x616c616e6365)\n        /* \"#utility.yul\":7404:7422   */\n      0x64\n      dup3\n      add\n        /* \"#utility.yul\":7397:7433   */\n      mstore\n        /* \"#utility.yul\":7450:7469   */\n      0x84\n      add\n        /* \"@openzeppelin/contracts-upgradeable/token/ERC20/ERC20Upgradeable.sol\":8188:8260  require(fromBalance >= amount, \"ERC20: transfer amount exceeds balance\") */\n      tag_140\n        /* \"#utility.yul\":7247:7475   */\n      jump\n        /* \"@openzeppelin/contracts-upgradeable/token/ERC20/ERC20Upgradeable.sol\":8188:8260  require(fromBalance >= amount, \"ERC20: transfer amount exceeds balance\") */\n    tag_261:\n      sub(shl(0xa0, 0x01), 0x01)\n        /* \"@openzeppelin/contracts-upgradeable/token/ERC20/ERC20Upgradeable.sol\":8294:8309  _balances[from] */\n      dup1\n      dup6\n      and\n      0x00\n      swap1\n      dup2\n      mstore\n        /* \"@openzeppelin/contracts-upgradeable/token/ERC20/ERC20Upgradeable.sol\":8294:8303  _balances */\n      0x33\n        /* \"@openzeppelin/contracts-upgradeable/token/ERC20/ERC20Upgradeable.sol\":8294:8309  _balances[from] */\n      0x20\n      mstore\n      0x40\n      dup1\n      dup3\n      keccak256\n        /* \"@openzeppelin/contracts-upgradeable/token/ERC20/ERC20Upgradeable.sol\":8312:8332  fromBalance - amount */\n      dup6\n      dup6\n      sub\n        /* \"@openzeppelin/contracts-upgradeable/token/ERC20/ERC20Upgradeable.sol\":8294:8332  _balances[from] = fromBalance - amount */\n      swap1\n      sstore\n        /* \"@openzeppelin/contracts-upgradeable/token/ERC20/ERC20Upgradeable.sol\":8352:8365  _balances[to] */\n      swap2\n      dup6\n      and\n      dup2\n      mstore\n      swap1\n      dup2\n      keccak256\n        /* \"@openzeppelin/contracts-upgradeable/token/ERC20/ERC20Upgradeable.sol\":8352:8375  _balances[to] += amount */\n      dup1\n      sload\n        /* \"@openzeppelin/contracts-upgradeable/token/ERC20/ERC20Upgradeable.sol\":8326:8332  amount */\n      dup5\n      swap3\n        /* \"@openzeppelin/contracts-upgradeable/token/ERC20/ERC20Upgradeable.sol\":8294:8309  _balances[from] */\n      swap1\n        /* \"@openzeppelin/contracts-upgradeable/token/ERC20/ERC20Upgradeable.sol\":8352:8375  _balances[to] += amount */\n      tag_264\n      swap1\n        /* \"@openzeppelin/contracts-upgradeable/token/ERC20/ERC20Upgradeable.sol\":8326:8332  amount */\n      dup5\n      swap1\n        /* \"@openzeppelin/contracts-upgradeable/token/ERC20/ERC20Upgradeable.sol\":8352:8375  _balances[to] += amount */\n      tag_137\n      jump\t// in\n    tag_264:\n      swap3\n      pop\n      pop\n      dup2\n      swap1\n      sstore\n      pop\n        /* \"@openzeppelin/contracts-upgradeable/token/ERC20/ERC20Upgradeable.sol\":8406:8408  to */\n      dup3\n      sub(shl(0xa0, 0x01), 0x01)\n        /* \"@openzeppelin/contracts-upgradeable/token/ERC20/ERC20Upgradeable.sol\":8391:8417  Transfer(from, to, amount) */\n      and\n        /* \"@openzeppelin/contracts-upgradeable/token/ERC20/ERC20Upgradeable.sol\":8400:8404  from */\n      dup5\n      sub(shl(0xa0, 0x01), 0x01)\n        /* \"@openzeppelin/contracts-upgradeable/token/ERC20/ERC20Upgradeable.sol\":8391:8417  Transfer(from, to, amount) */\n      and\n      0xddf252ad1be2c89b69c2b068fc378daa952ba7f163c4a11628f55a4df523b3ef\n        /* \"@openzeppelin/contracts-upgradeable/token/ERC20/ERC20Upgradeable.sol\":8410:8416  amount */\n      dup5\n        /* \"@openzeppelin/contracts-upgradeable/token/ERC20/ERC20Upgradeable.sol\":8391:8417  Transfer(from, to, amount) */\n      mload(0x40)\n      tag_265\n      swap2\n        /* \"#utility.yul\":10734:10759   */\n      dup2\n      mstore\n        /* \"#utility.yul\":10722:10724   */\n      0x20\n        /* \"#utility.yul\":10707:10725   */\n      add\n      swap1\n        /* \"#utility.yul\":10689:10765   */\n      jump\n        /* \"@openzeppelin/contracts-upgradeable/token/ERC20/ERC20Upgradeable.sol\":8391:8417  Transfer(from, to, amount) */\n    tag_265:\n      mload(0x40)\n      dup1\n      swap2\n      sub\n      swap1\n      log3\n        /* \"@openzeppelin/contracts-upgradeable/token/ERC20/ERC20Upgradeable.sol\":8428:8465  _afterTokenTransfer(from, to, amount) */\n      tag_251\n        /* \"contracts/tokens/Moola.sol\":1050:1309  function initialize(string memory name_, string memory symbol_)\r... */\n      jump\n        /* \"@openzeppelin/contracts-upgradeable/token/ERC20/ERC20Upgradeable.sol\":8748:9137  function _mint(address account, uint256 amount) internal virtual {... */\n    tag_144:\n      sub(shl(0xa0, 0x01), 0x01)\n        /* \"@openzeppelin/contracts-upgradeable/token/ERC20/ERC20Upgradeable.sol\":8831:8852  account != address(0) */\n      dup3\n      and\n        /* \"@openzeppelin/contracts-upgradeable/token/ERC20/ERC20Upgradeable.sol\":8823:8888  require(account != address(0), \"ERC20: mint to the zero address\") */\n      tag_269\n      jumpi\n      mload(0x40)\n      shl(0xe5, 0x461bcd)\n      dup2\n      mstore\n        /* \"#utility.yul\":10430:10432   */\n      0x20\n        /* \"@openzeppelin/contracts-upgradeable/token/ERC20/ERC20Upgradeable.sol\":8823:8888  require(account != address(0), \"ERC20: mint to the zero address\") */\n      0x04\n      dup3\n      add\n        /* \"#utility.yul\":10412:10433   */\n      mstore\n        /* \"#utility.yul\":10469:10471   */\n      0x1f\n        /* \"#utility.yul\":10449:10467   */\n      0x24\n      dup3\n      add\n        /* \"#utility.yul\":10442:10472   */\n      mstore\n        /* \"#utility.yul\":10508:10541   */\n      0x45524332303a206d696e7420746f20746865207a65726f206164647265737300\n        /* \"#utility.yul\":10488:10506   */\n      0x44\n      dup3\n      add\n        /* \"#utility.yul\":10481:10542   */\n      mstore\n        /* \"#utility.yul\":10559:10577   */\n      0x64\n      add\n        /* \"@openzeppelin/contracts-upgradeable/token/ERC20/ERC20Upgradeable.sol\":8823:8888  require(account != address(0), \"ERC20: mint to the zero address\") */\n      tag_140\n        /* \"#utility.yul\":10402:10583   */\n      jump\n        /* \"@openzeppelin/contracts-upgradeable/token/ERC20/ERC20Upgradeable.sol\":8823:8888  require(account != address(0), \"ERC20: mint to the zero address\") */\n    tag_269:\n        /* \"@openzeppelin/contracts-upgradeable/token/ERC20/ERC20Upgradeable.sol\":8975:8981  amount */\n      dup1\n        /* \"@openzeppelin/contracts-upgradeable/token/ERC20/ERC20Upgradeable.sol\":8959:8971  _totalSupply */\n      0x35\n      0x00\n        /* \"@openzeppelin/contracts-upgradeable/token/ERC20/ERC20Upgradeable.sol\":8959:8981  _totalSupply += amount */\n      dup3\n      dup3\n      sload\n      tag_273\n      swap2\n      swap1\n      tag_137\n      jump\t// in\n    tag_273:\n      swap1\n      swap2\n      sstore\n      pop\n      pop\n      sub(shl(0xa0, 0x01), 0x01)\n        /* \"@openzeppelin/contracts-upgradeable/token/ERC20/ERC20Upgradeable.sol\":8991:9009  _balances[account] */\n      dup3\n      and\n      0x00\n      swap1\n      dup2\n      mstore\n        /* \"@openzeppelin/contracts-upgradeable/token/ERC20/ERC20Upgradeable.sol\":8991:9000  _balances */\n      0x33\n        /* \"@openzeppelin/contracts-upgradeable/token/ERC20/ERC20Upgradeable.sol\":8991:9009  _balances[account] */\n      0x20\n      mstore\n      0x40\n      dup2\n      keccak256\n        /* \"@openzeppelin/contracts-upgradeable/token/ERC20/ERC20Upgradeable.sol\":8991:9019  _balances[account] += amount */\n      dup1\n      sload\n        /* \"@openzeppelin/contracts-upgradeable/token/ERC20/ERC20Upgradeable.sol\":9013:9019  amount */\n      dup4\n      swap3\n        /* \"@openzeppelin/contracts-upgradeable/token/ERC20/ERC20Upgradeable.sol\":8991:9009  _balances[account] */\n      swap1\n        /* \"@openzeppelin/contracts-upgradeable/token/ERC20/ERC20Upgradeable.sol\":8991:9019  _balances[account] += amount */\n      tag_274\n      swap1\n        /* \"@openzeppelin/contracts-upgradeable/token/ERC20/ERC20Upgradeable.sol\":9013:9019  amount */\n      dup5\n      swap1\n        /* \"@openzeppelin/contracts-upgradeable/token/ERC20/ERC20Upgradeable.sol\":8991:9019  _balances[account] += amount */\n      tag_137\n      jump\t// in\n    tag_274:\n      swap1\n      swap2\n      sstore\n      pop\n      pop\n        /* \"@openzeppelin/contracts-upgradeable/token/ERC20/ERC20Upgradeable.sol\":9034:9071  Transfer(address(0), account, amount) */\n      mload(0x40)\n        /* \"#utility.yul\":10734:10759   */\n      dup2\n      dup2\n      mstore\n      sub(shl(0xa0, 0x01), 0x01)\n        /* \"@openzeppelin/contracts-upgradeable/token/ERC20/ERC20Upgradeable.sol\":9034:9071  Transfer(address(0), account, amount) */\n      dup4\n      and\n      swap1\n        /* \"@openzeppelin/contracts-upgradeable/token/ERC20/ERC20Upgradeable.sol\":9051:9052  0 */\n      0x00\n      swap1\n        /* \"@openzeppelin/contracts-upgradeable/token/ERC20/ERC20Upgradeable.sol\":9034:9071  Transfer(address(0), account, amount) */\n      0xddf252ad1be2c89b69c2b068fc378daa952ba7f163c4a11628f55a4df523b3ef\n      swap1\n        /* \"#utility.yul\":10722:10724   */\n      0x20\n        /* \"#utility.yul\":10707:10725   */\n      add\n        /* \"@openzeppelin/contracts-upgradeable/token/ERC20/ERC20Upgradeable.sol\":9034:9071  Transfer(address(0), account, amount) */\n      mload(0x40)\n      dup1\n      swap2\n      sub\n      swap1\n      log3\n        /* \"contracts/tokens/Moola.sol\":1926:2021  function mint(address to, uint256 amount) external onlyWhitelist {\r... */\n      pop\n      pop\n      jump\t// out\n        /* \"@openzeppelin/contracts-upgradeable/proxy/utils/Initializable.sol\":5287:6095  function _setInitializedVersion(uint8 version) private returns (bool) {... */\n    tag_147:\n        /* \"@openzeppelin/contracts-upgradeable/proxy/utils/Initializable.sol\":5351:5355  bool */\n      0x00\n        /* \"@openzeppelin/contracts-upgradeable/proxy/utils/Initializable.sol\":5684:5697  _initializing */\n      dup1\n      sload\n      0x0100\n      swap1\n      div\n      0xff\n      and\n        /* \"@openzeppelin/contracts-upgradeable/proxy/utils/Initializable.sol\":5680:6089  if (_initializing) {... */\n      iszero\n      tag_278\n      jumpi\n        /* \"@openzeppelin/contracts-upgradeable/proxy/utils/Initializable.sol\":5738:5745  version */\n      dup2\n        /* \"@openzeppelin/contracts-upgradeable/proxy/utils/Initializable.sol\":5738:5750  version == 1 */\n      0xff\n      and\n        /* \"@openzeppelin/contracts-upgradeable/proxy/utils/Initializable.sol\":5749:5750  1 */\n      0x01\n        /* \"@openzeppelin/contracts-upgradeable/proxy/utils/Initializable.sol\":5738:5750  version == 1 */\n      eq\n        /* \"@openzeppelin/contracts-upgradeable/proxy/utils/Initializable.sol\":5738:5799  version == 1 && !AddressUpgradeable.isContract(address(this)) */\n      dup1\n      iszero\n      tag_279\n      jumpi\n      pop\n        /* \"@openzeppelin/contracts-upgradeable/proxy/utils/Initializable.sol\":5793:5797  this */\n      address\n        /* \"@openzeppelin/contracts-upgradeable/utils/AddressUpgradeable.sol\":1476:1495  account.code.length */\n      extcodesize\n        /* \"@openzeppelin/contracts-upgradeable/utils/AddressUpgradeable.sol\":1476:1499  account.code.length > 0 */\n      iszero\n        /* \"@openzeppelin/contracts-upgradeable/proxy/utils/Initializable.sol\":5738:5799  version == 1 && !AddressUpgradeable.isContract(address(this)) */\n    tag_279:\n        /* \"@openzeppelin/contracts-upgradeable/proxy/utils/Initializable.sol\":5713:5879  require(... */\n      tag_282\n      jumpi\n      mload(0x40)\n      shl(0xe5, 0x461bcd)\n      dup2\n      mstore\n      0x04\n      add\n      tag_140\n      swap1\n      tag_284\n      jump\t// in\n    tag_282:\n      pop\n        /* \"@openzeppelin/contracts-upgradeable/proxy/utils/Initializable.sol\":5900:5905  false */\n      0x00\n      swap2\n        /* \"@openzeppelin/contracts-upgradeable/proxy/utils/Initializable.sol\":5287:6095  function _setInitializedVersion(uint8 version) private returns (bool) {... */\n      swap1\n      pop\n      jump\t// out\n        /* \"@openzeppelin/contracts-upgradeable/proxy/utils/Initializable.sol\":5680:6089  if (_initializing) {... */\n    tag_278:\n        /* \"@openzeppelin/contracts-upgradeable/proxy/utils/Initializable.sol\":5944:5956  _initialized */\n      sload(0x00)\n        /* \"@openzeppelin/contracts-upgradeable/proxy/utils/Initializable.sol\":5944:5966  _initialized < version */\n      0xff\n      dup1\n      dup5\n      and\n        /* \"@openzeppelin/contracts-upgradeable/proxy/utils/Initializable.sol\":5944:5956  _initialized */\n      swap2\n      and\n        /* \"@openzeppelin/contracts-upgradeable/proxy/utils/Initializable.sol\":5944:5966  _initialized < version */\n      lt\n        /* \"@openzeppelin/contracts-upgradeable/proxy/utils/Initializable.sol\":5936:6017  require(_initialized < version, \"Initializable: contract is already initialized\") */\n      tag_286\n      jumpi\n      mload(0x40)\n      shl(0xe5, 0x461bcd)\n      dup2\n      mstore\n      0x04\n      add\n      tag_140\n      swap1\n      tag_284\n      jump\t// in\n    tag_286:\n      pop\n        /* \"@openzeppelin/contracts-upgradeable/proxy/utils/Initializable.sol\":6031:6043  _initialized */\n      0x00\n        /* \"@openzeppelin/contracts-upgradeable/proxy/utils/Initializable.sol\":6031:6053  _initialized = version */\n      dup1\n      sload\n      not(0xff)\n      and\n      0xff\n      swap3\n      swap1\n      swap3\n      and\n      swap2\n      swap1\n      swap2\n      or\n      swap1\n      sstore\n      0x01\n      swap1\n        /* \"@openzeppelin/contracts-upgradeable/proxy/utils/Initializable.sol\":5287:6095  function _setInitializedVersion(uint8 version) private returns (bool) {... */\n      jump\t// out\n        /* \"@openzeppelin/contracts-upgradeable/token/ERC20/ERC20Upgradeable.sol\":2116:2263  function __ERC20_init(string memory name_, string memory symbol_) internal onlyInitializing {... */\n    tag_151:\n        /* \"@openzeppelin/contracts-upgradeable/proxy/utils/Initializable.sol\":4698:4711  _initializing */\n      sload(0x00)\n      0x0100\n      swap1\n      div\n      0xff\n      and\n        /* \"@openzeppelin/contracts-upgradeable/proxy/utils/Initializable.sol\":4690:4759  require(_initializing, \"Initializable: contract is not initializing\") */\n      tag_289\n      jumpi\n      mload(0x40)\n      shl(0xe5, 0x461bcd)\n      dup2\n      mstore\n      0x04\n      add\n      tag_140\n      swap1\n      tag_291\n      jump\t// in\n    tag_289:\n        /* \"@openzeppelin/contracts-upgradeable/token/ERC20/ERC20Upgradeable.sol\":2218:2256  __ERC20_init_unchained(name_, symbol_) */\n      tag_143\n        /* \"@openzeppelin/contracts-upgradeable/token/ERC20/ERC20Upgradeable.sol\":2241:2246  name_ */\n      dup3\n        /* \"@openzeppelin/contracts-upgradeable/token/ERC20/ERC20Upgradeable.sol\":2248:2255  symbol_ */\n      dup3\n        /* \"@openzeppelin/contracts-upgradeable/token/ERC20/ERC20Upgradeable.sol\":2218:2240  __ERC20_init_unchained */\n      tag_294\n        /* \"@openzeppelin/contracts-upgradeable/token/ERC20/ERC20Upgradeable.sol\":2218:2256  __ERC20_init_unchained(name_, symbol_) */\n      jump\t// in\n        /* \"@openzeppelin/contracts-upgradeable/access/OwnableUpgradeable.sol\":988:1083  function __Ownable_init() internal onlyInitializing {... */\n    tag_153:\n        /* \"@openzeppelin/contracts-upgradeable/proxy/utils/Initializable.sol\":4698:4711  _initializing */\n      sload(0x00)\n      0x0100\n      swap1\n      div\n      0xff\n      and\n        /* \"@openzeppelin/contracts-upgradeable/proxy/utils/Initializable.sol\":4690:4759  require(_initializing, \"Initializable: contract is not initializing\") */\n      tag_296\n      jumpi\n      mload(0x40)\n      shl(0xe5, 0x461bcd)\n      dup2\n      mstore\n      0x04\n      add\n      tag_140\n      swap1\n      tag_291\n      jump\t// in\n    tag_296:\n        /* \"@openzeppelin/contracts-upgradeable/access/OwnableUpgradeable.sol\":1050:1076  __Ownable_init_unchained() */\n      tag_193\n        /* \"@openzeppelin/contracts-upgradeable/access/OwnableUpgradeable.sol\":1050:1074  __Ownable_init_unchained */\n      tag_300\n        /* \"@openzeppelin/contracts-upgradeable/access/OwnableUpgradeable.sol\":1050:1076  __Ownable_init_unchained() */\n      jump\t// in\n        /* \"@openzeppelin/contracts-upgradeable/security/PausableUpgradeable.sol\":1048:1145  function __Pausable_init() internal onlyInitializing {... */\n    tag_155:\n        /* \"@openzeppelin/contracts-upgradeable/proxy/utils/Initializable.sol\":4698:4711  _initializing */\n      sload(0x00)\n      0x0100\n      swap1\n      div\n      0xff\n      and\n        /* \"@openzeppelin/contracts-upgradeable/proxy/utils/Initializable.sol\":4690:4759  require(_initializing, \"Initializable: contract is not initializing\") */\n      tag_302\n      jumpi\n      mload(0x40)\n      shl(0xe5, 0x461bcd)\n      dup2\n      mstore\n      0x04\n      add\n      tag_140\n      swap1\n      tag_291\n      jump\t// in\n    tag_302:\n        /* \"@openzeppelin/contracts-upgradeable/security/PausableUpgradeable.sol\":1111:1138  __Pausable_init_unchained() */\n      tag_193\n        /* \"@openzeppelin/contracts-upgradeable/security/PausableUpgradeable.sol\":1111:1136  __Pausable_init_unchained */\n      tag_306\n        /* \"@openzeppelin/contracts-upgradeable/security/PausableUpgradeable.sol\":1111:1138  __Pausable_init_unchained() */\n      jump\t// in\n        /* \"@openzeppelin/contracts-upgradeable/access/OwnableUpgradeable.sol\":2510:2697  function _transferOwnership(address newOwner) internal virtual {... */\n    tag_194:\n        /* \"@openzeppelin/contracts-upgradeable/access/OwnableUpgradeable.sol\":2602:2608  _owner */\n      0x65\n      dup1\n      sload\n      sub(shl(0xa0, 0x01), 0x01)\n        /* \"@openzeppelin/contracts-upgradeable/access/OwnableUpgradeable.sol\":2618:2635  _owner = newOwner */\n      dup4\n      dup2\n      and\n      not(sub(shl(0xa0, 0x01), 0x01))\n      dup4\n      and\n      dup2\n      or\n      swap1\n      swap4\n      sstore\n        /* \"@openzeppelin/contracts-upgradeable/access/OwnableUpgradeable.sol\":2650:2690  OwnershipTransferred(oldOwner, newOwner) */\n      mload(0x40)\n        /* \"@openzeppelin/contracts-upgradeable/access/OwnableUpgradeable.sol\":2602:2608  _owner */\n      swap2\n      and\n      swap2\n        /* \"@openzeppelin/contracts-upgradeable/access/OwnableUpgradeable.sol\":2618:2635  _owner = newOwner */\n      swap1\n        /* \"@openzeppelin/contracts-upgradeable/access/OwnableUpgradeable.sol\":2602:2608  _owner */\n      dup3\n      swap1\n        /* \"@openzeppelin/contracts-upgradeable/access/OwnableUpgradeable.sol\":2650:2690  OwnershipTransferred(oldOwner, newOwner) */\n      0x8be0079c531659141344cd1fd0a4f28419497f9722a3daafe3b4186f6b6457e0\n      swap1\n        /* \"@openzeppelin/contracts-upgradeable/access/OwnableUpgradeable.sol\":2583:2599  address oldOwner */\n      0x00\n      swap1\n        /* \"@openzeppelin/contracts-upgradeable/access/OwnableUpgradeable.sol\":2650:2690  OwnershipTransferred(oldOwner, newOwner) */\n      log3\n        /* \"@openzeppelin/contracts-upgradeable/access/OwnableUpgradeable.sol\":2510:2697  function _transferOwnership(address newOwner) internal virtual {... */\n      pop\n      pop\n      jump\t// out\n        /* \"@openzeppelin/contracts-upgradeable/token/ERC20/ERC20Upgradeable.sol\":2269:2428  function __ERC20_init_unchained(string memory name_, string memory symbol_) internal onlyInitializing {... */\n    tag_294:\n        /* \"@openzeppelin/contracts-upgradeable/proxy/utils/Initializable.sol\":4698:4711  _initializing */\n      sload(0x00)\n      0x0100\n      swap1\n      div\n      0xff\n      and\n        /* \"@openzeppelin/contracts-upgradeable/proxy/utils/Initializable.sol\":4690:4759  require(_initializing, \"Initializable: contract is not initializing\") */\n      tag_312\n      jumpi\n      mload(0x40)\n      shl(0xe5, 0x461bcd)\n      dup2\n      mstore\n      0x04\n      add\n      tag_140\n      swap1\n      tag_291\n      jump\t// in\n    tag_312:\n        /* \"@openzeppelin/contracts-upgradeable/token/ERC20/ERC20Upgradeable.sol\":2381:2394  _name = name_ */\n      dup2\n      mload\n      tag_315\n      swap1\n        /* \"@openzeppelin/contracts-upgradeable/token/ERC20/ERC20Upgradeable.sol\":2381:2386  _name */\n      0x36\n      swap1\n        /* \"@openzeppelin/contracts-upgradeable/token/ERC20/ERC20Upgradeable.sol\":2381:2394  _name = name_ */\n      0x20\n      dup6\n      add\n      swap1\n      tag_316\n      jump\t// in\n    tag_315:\n      pop\n        /* \"@openzeppelin/contracts-upgradeable/token/ERC20/ERC20Upgradeable.sol\":2404:2421  _symbol = symbol_ */\n      dup1\n      mload\n      tag_157\n      swap1\n        /* \"@openzeppelin/contracts-upgradeable/token/ERC20/ERC20Upgradeable.sol\":2404:2411  _symbol */\n      0x37\n      swap1\n        /* \"@openzeppelin/contracts-upgradeable/token/ERC20/ERC20Upgradeable.sol\":2404:2421  _symbol = symbol_ */\n      0x20\n      dup5\n      add\n      swap1\n      tag_316\n      jump\t// in\n        /* \"@openzeppelin/contracts-upgradeable/access/OwnableUpgradeable.sol\":1089:1200  function __Ownable_init_unchained() internal onlyInitializing {... */\n    tag_300:\n        /* \"@openzeppelin/contracts-upgradeable/proxy/utils/Initializable.sol\":4698:4711  _initializing */\n      sload(0x00)\n      0x0100\n      swap1\n      div\n      0xff\n      and\n        /* \"@openzeppelin/contracts-upgradeable/proxy/utils/Initializable.sol\":4690:4759  require(_initializing, \"Initializable: contract is not initializing\") */\n      tag_319\n      jumpi\n      mload(0x40)\n      shl(0xe5, 0x461bcd)\n      dup2\n      mstore\n      0x04\n      add\n      tag_140\n      swap1\n      tag_291\n      jump\t// in\n    tag_319:\n        /* \"@openzeppelin/contracts-upgradeable/access/OwnableUpgradeable.sol\":1161:1193  _transferOwnership(_msgSender()) */\n      tag_193\n        /* \"@openzeppelin/contracts-upgradeable/utils/ContextUpgradeable.sol\":929:939  msg.sender */\n      caller\n        /* \"@openzeppelin/contracts-upgradeable/access/OwnableUpgradeable.sol\":1161:1179  _transferOwnership */\n      tag_194\n        /* \"@openzeppelin/contracts-upgradeable/access/OwnableUpgradeable.sol\":1161:1193  _transferOwnership(_msgSender()) */\n      jump\t// in\n        /* \"@openzeppelin/contracts-upgradeable/security/PausableUpgradeable.sol\":1151:1246  function __Pausable_init_unchained() internal onlyInitializing {... */\n    tag_306:\n        /* \"@openzeppelin/contracts-upgradeable/proxy/utils/Initializable.sol\":4698:4711  _initializing */\n      sload(0x00)\n      0x0100\n      swap1\n      div\n      0xff\n      and\n        /* \"@openzeppelin/contracts-upgradeable/proxy/utils/Initializable.sol\":4690:4759  require(_initializing, \"Initializable: contract is not initializing\") */\n      tag_325\n      jumpi\n      mload(0x40)\n      shl(0xe5, 0x461bcd)\n      dup2\n      mstore\n      0x04\n      add\n      tag_140\n      swap1\n      tag_291\n      jump\t// in\n    tag_325:\n        /* \"@openzeppelin/contracts-upgradeable/security/PausableUpgradeable.sol\":1224:1231  _paused */\n      0x97\n        /* \"@openzeppelin/contracts-upgradeable/security/PausableUpgradeable.sol\":1224:1239  _paused = false */\n      dup1\n      sload\n      not(0xff)\n      and\n      swap1\n      sstore\n        /* \"@openzeppelin/contracts-upgradeable/security/PausableUpgradeable.sol\":1151:1246  function __Pausable_init_unchained() internal onlyInitializing {... */\n      jump\t// out\n    tag_316:\n      dup3\n      dup1\n      sload\n      tag_328\n      swap1\n      tag_114\n      jump\t// in\n    tag_328:\n      swap1\n      0x00\n      mstore\n      keccak256(0x00, 0x20)\n      swap1\n      0x1f\n      add\n      0x20\n      swap1\n      div\n      dup2\n      add\n      swap3\n      dup3\n      tag_330\n      jumpi\n      0x00\n      dup6\n      sstore\n      jump(tag_333)\n    tag_330:\n      dup3\n      0x1f\n      lt\n      tag_331\n      jumpi\n      dup1\n      mload\n      not(0xff)\n      and\n      dup4\n      dup1\n      add\n      or\n      dup6\n      sstore\n      jump(tag_333)\n    tag_331:\n      dup3\n      dup1\n      add\n      0x01\n      add\n      dup6\n      sstore\n      dup3\n      iszero\n      tag_333\n      jumpi\n      swap2\n      dup3\n      add\n    tag_332:\n      dup3\n      dup2\n      gt\n      iszero\n      tag_333\n      jumpi\n      dup3\n      mload\n      dup3\n      sstore\n      swap2\n      0x20\n      add\n      swap2\n      swap1\n      0x01\n      add\n      swap1\n      jump(tag_332)\n    tag_333:\n      pop\n      tag_334\n      swap3\n      swap2\n      pop\n      tag_335\n      jump\t// in\n    tag_334:\n      pop\n      swap1\n      jump\t// out\n    tag_335:\n    tag_336:\n      dup1\n      dup3\n      gt\n      iszero\n      tag_334\n      jumpi\n      0x00\n      dup2\n      sstore\n      0x01\n      add\n      jump(tag_336)\n        /* \"#utility.yul\":14:753   */\n    tag_339:\n        /* \"#utility.yul\":57:62   */\n      0x00\n        /* \"#utility.yul\":110:113   */\n      dup3\n        /* \"#utility.yul\":103:107   */\n      0x1f\n        /* \"#utility.yul\":95:101   */\n      dup4\n        /* \"#utility.yul\":91:108   */\n      add\n        /* \"#utility.yul\":87:114   */\n      slt\n        /* \"#utility.yul\":77:79   */\n      tag_341\n      jumpi\n        /* \"#utility.yul\":132:137   */\n      dup1\n        /* \"#utility.yul\":125:130   */\n      dup2\n        /* \"#utility.yul\":118:138   */\n      revert\n        /* \"#utility.yul\":77:79   */\n    tag_341:\n        /* \"#utility.yul\":172:178   */\n      dup2\n        /* \"#utility.yul\":159:179   */\n      calldataload\n        /* \"#utility.yul\":198:216   */\n      0xffffffffffffffff\n        /* \"#utility.yul\":235:237   */\n      dup1\n        /* \"#utility.yul\":231:233   */\n      dup3\n        /* \"#utility.yul\":228:238   */\n      gt\n        /* \"#utility.yul\":225:227   */\n      iszero\n      tag_343\n      jumpi\n        /* \"#utility.yul\":241:259   */\n      tag_343\n      tag_344\n      jump\t// in\n    tag_343:\n        /* \"#utility.yul\":316:318   */\n      0x40\n        /* \"#utility.yul\":310:319   */\n      mload\n        /* \"#utility.yul\":284:286   */\n      0x1f\n        /* \"#utility.yul\":370:383   */\n      dup4\n      add\n      not(0x1f)\n        /* \"#utility.yul\":366:388   */\n      swap1\n      dup2\n      and\n        /* \"#utility.yul\":390:392   */\n      0x3f\n        /* \"#utility.yul\":362:393   */\n      add\n        /* \"#utility.yul\":358:398   */\n      and\n        /* \"#utility.yul\":346:399   */\n      dup2\n      add\n      swap1\n        /* \"#utility.yul\":414:432   */\n      dup3\n      dup3\n      gt\n        /* \"#utility.yul\":434:456   */\n      dup2\n      dup4\n      lt\n        /* \"#utility.yul\":411:457   */\n      or\n        /* \"#utility.yul\":408:410   */\n      iszero\n      tag_346\n      jumpi\n        /* \"#utility.yul\":460:478   */\n      tag_346\n      tag_344\n      jump\t// in\n    tag_346:\n        /* \"#utility.yul\":500:510   */\n      dup2\n        /* \"#utility.yul\":496:498   */\n      0x40\n        /* \"#utility.yul\":489:511   */\n      mstore\n        /* \"#utility.yul\":535:537   */\n      dup4\n        /* \"#utility.yul\":527:533   */\n      dup2\n        /* \"#utility.yul\":520:538   */\n      mstore\n        /* \"#utility.yul\":581:584   */\n      dup7\n        /* \"#utility.yul\":574:578   */\n      0x20\n        /* \"#utility.yul\":569:571   */\n      dup6\n        /* \"#utility.yul\":561:567   */\n      dup9\n        /* \"#utility.yul\":557:572   */\n      add\n        /* \"#utility.yul\":553:579   */\n      add\n        /* \"#utility.yul\":550:585   */\n      gt\n        /* \"#utility.yul\":547:549   */\n      iszero\n      tag_347\n      jumpi\n        /* \"#utility.yul\":602:607   */\n      dup5\n        /* \"#utility.yul\":595:600   */\n      dup6\n        /* \"#utility.yul\":588:608   */\n      revert\n        /* \"#utility.yul\":547:549   */\n    tag_347:\n        /* \"#utility.yul\":670:672   */\n      dup4\n        /* \"#utility.yul\":663:667   */\n      0x20\n        /* \"#utility.yul\":655:661   */\n      dup8\n        /* \"#utility.yul\":651:668   */\n      add\n        /* \"#utility.yul\":644:648   */\n      0x20\n        /* \"#utility.yul\":636:642   */\n      dup4\n        /* \"#utility.yul\":632:649   */\n      add\n        /* \"#utility.yul\":619:673   */\n      calldatacopy\n        /* \"#utility.yul\":693:708   */\n      swap3\n      dup4\n      add\n        /* \"#utility.yul\":710:714   */\n      0x20\n        /* \"#utility.yul\":689:715   */\n      add\n        /* \"#utility.yul\":682:723   */\n      swap4\n      swap1\n      swap4\n      mstore\n      pop\n        /* \"#utility.yul\":697:703   */\n      swap4\n        /* \"#utility.yul\":67:753   */\n      swap3\n      pop\n      pop\n      pop\n      jump\t// out\n        /* \"#utility.yul\":758:1015   */\n    tag_74:\n        /* \"#utility.yul\":817:823   */\n      0x00\n        /* \"#utility.yul\":870:872   */\n      0x20\n        /* \"#utility.yul\":858:867   */\n      dup3\n        /* \"#utility.yul\":849:856   */\n      dup5\n        /* \"#utility.yul\":845:868   */\n      sub\n        /* \"#utility.yul\":841:873   */\n      slt\n        /* \"#utility.yul\":838:840   */\n      iszero\n      tag_349\n      jumpi\n        /* \"#utility.yul\":891:897   */\n      dup1\n        /* \"#utility.yul\":883:889   */\n      dup2\n        /* \"#utility.yul\":876:898   */\n      revert\n        /* \"#utility.yul\":838:840   */\n    tag_349:\n        /* \"#utility.yul\":935:944   */\n      dup2\n        /* \"#utility.yul\":922:945   */\n      calldataload\n        /* \"#utility.yul\":954:985   */\n      tag_350\n        /* \"#utility.yul\":979:984   */\n      dup2\n        /* \"#utility.yul\":954:985   */\n      tag_351\n      jump\t// in\n    tag_350:\n        /* \"#utility.yul\":1004:1009   */\n      swap4\n        /* \"#utility.yul\":828:1015   */\n      swap3\n      pop\n      pop\n      pop\n      jump\t// out\n        /* \"#utility.yul\":1020:1281   */\n    tag_173:\n        /* \"#utility.yul\":1090:1096   */\n      0x00\n        /* \"#utility.yul\":1143:1145   */\n      0x20\n        /* \"#utility.yul\":1131:1140   */\n      dup3\n        /* \"#utility.yul\":1122:1129   */\n      dup5\n        /* \"#utility.yul\":1118:1141   */\n      sub\n        /* \"#utility.yul\":1114:1146   */\n      slt\n        /* \"#utility.yul\":1111:1113   */\n      iszero\n      tag_353\n      jumpi\n        /* \"#utility.yul\":1164:1170   */\n      dup1\n        /* \"#utility.yul\":1156:1162   */\n      dup2\n        /* \"#utility.yul\":1149:1171   */\n      revert\n        /* \"#utility.yul\":1111:1113   */\n    tag_353:\n        /* \"#utility.yul\":1201:1210   */\n      dup2\n        /* \"#utility.yul\":1195:1211   */\n      mload\n        /* \"#utility.yul\":1220:1251   */\n      tag_350\n        /* \"#utility.yul\":1245:1250   */\n      dup2\n        /* \"#utility.yul\":1220:1251   */\n      tag_351\n      jump\t// in\n        /* \"#utility.yul\":1286:1684   */\n    tag_106:\n        /* \"#utility.yul\":1354:1360   */\n      0x00\n        /* \"#utility.yul\":1362:1368   */\n      dup1\n        /* \"#utility.yul\":1415:1417   */\n      0x40\n        /* \"#utility.yul\":1403:1412   */\n      dup4\n        /* \"#utility.yul\":1394:1401   */\n      dup6\n        /* \"#utility.yul\":1390:1413   */\n      sub\n        /* \"#utility.yul\":1386:1418   */\n      slt\n        /* \"#utility.yul\":1383:1385   */\n      iszero\n      tag_356\n      jumpi\n        /* \"#utility.yul\":1436:1442   */\n      dup1\n        /* \"#utility.yul\":1428:1434   */\n      dup2\n        /* \"#utility.yul\":1421:1443   */\n      revert\n        /* \"#utility.yul\":1383:1385   */\n    tag_356:\n        /* \"#utility.yul\":1480:1489   */\n      dup3\n        /* \"#utility.yul\":1467:1490   */\n      calldataload\n        /* \"#utility.yul\":1499:1530   */\n      tag_357\n        /* \"#utility.yul\":1524:1529   */\n      dup2\n        /* \"#utility.yul\":1499:1530   */\n      tag_351\n      jump\t// in\n    tag_357:\n        /* \"#utility.yul\":1549:1554   */\n      swap2\n      pop\n        /* \"#utility.yul\":1606:1608   */\n      0x20\n        /* \"#utility.yul\":1591:1609   */\n      dup4\n      add\n        /* \"#utility.yul\":1578:1610   */\n      calldataload\n        /* \"#utility.yul\":1619:1652   */\n      tag_358\n        /* \"#utility.yul\":1578:1610   */\n      dup2\n        /* \"#utility.yul\":1619:1652   */\n      tag_351\n      jump\t// in\n    tag_358:\n        /* \"#utility.yul\":1671:1678   */\n      dup1\n        /* \"#utility.yul\":1661:1678   */\n      swap2\n      pop\n      pop\n        /* \"#utility.yul\":1373:1684   */\n      swap3\n      pop\n      swap3\n      swap1\n      pop\n      jump\t// out\n        /* \"#utility.yul\":1689:2155   */\n    tag_44:\n        /* \"#utility.yul\":1766:1772   */\n      0x00\n        /* \"#utility.yul\":1774:1780   */\n      dup1\n        /* \"#utility.yul\":1782:1788   */\n      0x00\n        /* \"#utility.yul\":1835:1837   */\n      0x60\n        /* \"#utility.yul\":1823:1832   */\n      dup5\n        /* \"#utility.yul\":1814:1821   */\n      dup7\n        /* \"#utility.yul\":1810:1833   */\n      sub\n        /* \"#utility.yul\":1806:1838   */\n      slt\n        /* \"#utility.yul\":1803:1805   */\n      iszero\n      tag_360\n      jumpi\n        /* \"#utility.yul\":1856:1862   */\n      dup1\n        /* \"#utility.yul\":1848:1854   */\n      dup2\n        /* \"#utility.yul\":1841:1863   */\n      revert\n        /* \"#utility.yul\":1803:1805   */\n    tag_360:\n        /* \"#utility.yul\":1900:1909   */\n      dup4\n        /* \"#utility.yul\":1887:1910   */\n      calldataload\n        /* \"#utility.yul\":1919:1950   */\n      tag_361\n        /* \"#utility.yul\":1944:1949   */\n      dup2\n        /* \"#utility.yul\":1919:1950   */\n      tag_351\n      jump\t// in\n    tag_361:\n        /* \"#utility.yul\":1969:1974   */\n      swap3\n      pop\n        /* \"#utility.yul\":2026:2028   */\n      0x20\n        /* \"#utility.yul\":2011:2029   */\n      dup5\n      add\n        /* \"#utility.yul\":1998:2030   */\n      calldataload\n        /* \"#utility.yul\":2039:2072   */\n      tag_362\n        /* \"#utility.yul\":1998:2030   */\n      dup2\n        /* \"#utility.yul\":2039:2072   */\n      tag_351\n      jump\t// in\n    tag_362:\n        /* \"#utility.yul\":1793:2155   */\n      swap3\n      swap6\n        /* \"#utility.yul\":2091:2098   */\n      swap3\n      swap5\n      pop\n      pop\n      pop\n        /* \"#utility.yul\":2145:2147   */\n      0x40\n        /* \"#utility.yul\":2130:2148   */\n      swap2\n      swap1\n      swap2\n      add\n        /* \"#utility.yul\":2117:2149   */\n      calldataload\n      swap1\n        /* \"#utility.yul\":1793:2155   */\n      jump\t// out\n        /* \"#utility.yul\":2160:2485   */\n    tag_34:\n        /* \"#utility.yul\":2228:2234   */\n      0x00\n        /* \"#utility.yul\":2236:2242   */\n      dup1\n        /* \"#utility.yul\":2289:2291   */\n      0x40\n        /* \"#utility.yul\":2277:2286   */\n      dup4\n        /* \"#utility.yul\":2268:2275   */\n      dup6\n        /* \"#utility.yul\":2264:2287   */\n      sub\n        /* \"#utility.yul\":2260:2292   */\n      slt\n        /* \"#utility.yul\":2257:2259   */\n      iszero\n      tag_364\n      jumpi\n        /* \"#utility.yul\":2310:2316   */\n      dup2\n        /* \"#utility.yul\":2302:2308   */\n      dup3\n        /* \"#utility.yul\":2295:2317   */\n      revert\n        /* \"#utility.yul\":2257:2259   */\n    tag_364:\n        /* \"#utility.yul\":2354:2363   */\n      dup3\n        /* \"#utility.yul\":2341:2364   */\n      calldataload\n        /* \"#utility.yul\":2373:2404   */\n      tag_365\n        /* \"#utility.yul\":2398:2403   */\n      dup2\n        /* \"#utility.yul\":2373:2404   */\n      tag_351\n      jump\t// in\n    tag_365:\n        /* \"#utility.yul\":2423:2428   */\n      swap5\n        /* \"#utility.yul\":2475:2477   */\n      0x20\n        /* \"#utility.yul\":2460:2478   */\n      swap4\n      swap1\n      swap4\n      add\n        /* \"#utility.yul\":2447:2479   */\n      calldataload\n      swap4\n      pop\n      pop\n      pop\n        /* \"#utility.yul\":2247:2485   */\n      jump\t// out\n        /* \"#utility.yul\":2490:3063   */\n    tag_60:\n        /* \"#utility.yul\":2578:2584   */\n      0x00\n        /* \"#utility.yul\":2586:2592   */\n      dup1\n        /* \"#utility.yul\":2639:2641   */\n      0x40\n        /* \"#utility.yul\":2627:2636   */\n      dup4\n        /* \"#utility.yul\":2618:2625   */\n      dup6\n        /* \"#utility.yul\":2614:2637   */\n      sub\n        /* \"#utility.yul\":2610:2642   */\n      slt\n        /* \"#utility.yul\":2607:2609   */\n      iszero\n      tag_367\n      jumpi\n        /* \"#utility.yul\":2660:2666   */\n      dup2\n        /* \"#utility.yul\":2652:2658   */\n      dup3\n        /* \"#utility.yul\":2645:2667   */\n      revert\n        /* \"#utility.yul\":2607:2609   */\n    tag_367:\n        /* \"#utility.yul\":2705:2714   */\n      dup3\n        /* \"#utility.yul\":2692:2715   */\n      calldataload\n        /* \"#utility.yul\":2734:2752   */\n      0xffffffffffffffff\n        /* \"#utility.yul\":2775:2777   */\n      dup1\n        /* \"#utility.yul\":2767:2773   */\n      dup3\n        /* \"#utility.yul\":2764:2778   */\n      gt\n        /* \"#utility.yul\":2761:2763   */\n      iszero\n      tag_368\n      jumpi\n        /* \"#utility.yul\":2796:2802   */\n      dup4\n        /* \"#utility.yul\":2788:2794   */\n      dup5\n        /* \"#utility.yul\":2781:2803   */\n      revert\n        /* \"#utility.yul\":2761:2763   */\n    tag_368:\n        /* \"#utility.yul\":2824:2874   */\n      tag_369\n        /* \"#utility.yul\":2866:2873   */\n      dup7\n        /* \"#utility.yul\":2857:2863   */\n      dup4\n        /* \"#utility.yul\":2846:2855   */\n      dup8\n        /* \"#utility.yul\":2842:2864   */\n      add\n        /* \"#utility.yul\":2824:2874   */\n      tag_339\n      jump\t// in\n    tag_369:\n        /* \"#utility.yul\":2814:2874   */\n      swap4\n      pop\n        /* \"#utility.yul\":2927:2929   */\n      0x20\n        /* \"#utility.yul\":2916:2925   */\n      dup6\n        /* \"#utility.yul\":2912:2930   */\n      add\n        /* \"#utility.yul\":2899:2931   */\n      calldataload\n        /* \"#utility.yul\":2883:2931   */\n      swap2\n      pop\n        /* \"#utility.yul\":2956:2958   */\n      dup1\n        /* \"#utility.yul\":2946:2954   */\n      dup3\n        /* \"#utility.yul\":2943:2959   */\n      gt\n        /* \"#utility.yul\":2940:2942   */\n      iszero\n      tag_370\n      jumpi\n        /* \"#utility.yul\":2977:2983   */\n      dup3\n        /* \"#utility.yul\":2969:2975   */\n      dup4\n        /* \"#utility.yul\":2962:2984   */\n      revert\n        /* \"#utility.yul\":2940:2942   */\n    tag_370:\n      pop\n        /* \"#utility.yul\":3005:3057   */\n      tag_371\n        /* \"#utility.yul\":3049:3056   */\n      dup6\n        /* \"#utility.yul\":3038:3046   */\n      dup3\n        /* \"#utility.yul\":3027:3036   */\n      dup7\n        /* \"#utility.yul\":3023:3047   */\n      add\n        /* \"#utility.yul\":3005:3057   */\n      tag_339\n      jump\t// in\n    tag_371:\n        /* \"#utility.yul\":2995:3057   */\n      swap2\n      pop\n      pop\n        /* \"#utility.yul\":2597:3063   */\n      swap3\n      pop\n      swap3\n      swap1\n      pop\n      jump\t// out\n        /* \"#utility.yul\":3068:3258   */\n    tag_64:\n        /* \"#utility.yul\":3127:3133   */\n      0x00\n        /* \"#utility.yul\":3180:3182   */\n      0x20\n        /* \"#utility.yul\":3168:3177   */\n      dup3\n        /* \"#utility.yul\":3159:3166   */\n      dup5\n        /* \"#utility.yul\":3155:3178   */\n      sub\n        /* \"#utility.yul\":3151:3183   */\n      slt\n        /* \"#utility.yul\":3148:3150   */\n      iszero\n      tag_373\n      jumpi\n        /* \"#utility.yul\":3201:3207   */\n      dup1\n        /* \"#utility.yul\":3193:3199   */\n      dup2\n        /* \"#utility.yul\":3186:3208   */\n      revert\n        /* \"#utility.yul\":3148:3150   */\n    tag_373:\n      pop\n        /* \"#utility.yul\":3229:3252   */\n      calldataload\n      swap2\n        /* \"#utility.yul\":3138:3258   */\n      swap1\n      pop\n      jump\t// out\n        /* \"#utility.yul\":4212:4815   */\n    tag_31:\n        /* \"#utility.yul\":4324:4328   */\n      0x00\n        /* \"#utility.yul\":4353:4355   */\n      0x20\n        /* \"#utility.yul\":4382:4384   */\n      dup1\n        /* \"#utility.yul\":4371:4380   */\n      dup4\n        /* \"#utility.yul\":4364:4385   */\n      mstore\n        /* \"#utility.yul\":4414:4420   */\n      dup4\n        /* \"#utility.yul\":4408:4421   */\n      mload\n        /* \"#utility.yul\":4457:4463   */\n      dup1\n        /* \"#utility.yul\":4452:4454   */\n      dup3\n        /* \"#utility.yul\":4441:4450   */\n      dup6\n        /* \"#utility.yul\":4437:4455   */\n      add\n        /* \"#utility.yul\":4430:4464   */\n      mstore\n        /* \"#utility.yul\":4482:4486   */\n      dup3\n        /* \"#utility.yul\":4495:4635   */\n    tag_379:\n        /* \"#utility.yul\":4509:4515   */\n      dup2\n        /* \"#utility.yul\":4506:4507   */\n      dup2\n        /* \"#utility.yul\":4503:4516   */\n      lt\n        /* \"#utility.yul\":4495:4635   */\n      iszero\n      tag_381\n      jumpi\n        /* \"#utility.yul\":4604:4618   */\n      dup6\n      dup2\n      add\n        /* \"#utility.yul\":4600:4623   */\n      dup4\n      add\n        /* \"#utility.yul\":4594:4624   */\n      mload\n        /* \"#utility.yul\":4570:4587   */\n      dup6\n      dup3\n      add\n        /* \"#utility.yul\":4589:4591   */\n      0x40\n        /* \"#utility.yul\":4566:4592   */\n      add\n        /* \"#utility.yul\":4559:4625   */\n      mstore\n        /* \"#utility.yul\":4524:4534   */\n      dup3\n      add\n        /* \"#utility.yul\":4495:4635   */\n      jump(tag_379)\n    tag_381:\n        /* \"#utility.yul\":4653:4659   */\n      dup2\n        /* \"#utility.yul\":4650:4651   */\n      dup2\n        /* \"#utility.yul\":4647:4660   */\n      gt\n        /* \"#utility.yul\":4644:4646   */\n      iszero\n      tag_382\n      jumpi\n        /* \"#utility.yul\":4723:4727   */\n      dup4\n        /* \"#utility.yul\":4718:4720   */\n      0x40\n        /* \"#utility.yul\":4709:4715   */\n      dup4\n        /* \"#utility.yul\":4698:4707   */\n      dup8\n        /* \"#utility.yul\":4694:4716   */\n      add\n        /* \"#utility.yul\":4690:4721   */\n      add\n        /* \"#utility.yul\":4683:4728   */\n      mstore\n        /* \"#utility.yul\":4644:4646   */\n    tag_382:\n      pop\n        /* \"#utility.yul\":4799:4801   */\n      0x1f\n        /* \"#utility.yul\":4778:4793   */\n      add\n      not(0x1f)\n        /* \"#utility.yul\":4774:4803   */\n      and\n        /* \"#utility.yul\":4759:4804   */\n      swap3\n      swap1\n      swap3\n      add\n        /* \"#utility.yul\":4806:4808   */\n      0x40\n        /* \"#utility.yul\":4755:4809   */\n      add\n      swap4\n        /* \"#utility.yul\":4333:4815   */\n      swap3\n      pop\n      pop\n      pop\n      jump\t// out\n        /* \"#utility.yul\":7480:7890   */\n    tag_284:\n        /* \"#utility.yul\":7682:7684   */\n      0x20\n        /* \"#utility.yul\":7664:7685   */\n      dup1\n      dup3\n      mstore\n        /* \"#utility.yul\":7721:7723   */\n      0x2e\n        /* \"#utility.yul\":7701:7719   */\n      swap1\n      dup3\n      add\n        /* \"#utility.yul\":7694:7724   */\n      mstore\n        /* \"#utility.yul\":7760:7794   */\n      0x496e697469616c697a61626c653a20636f6e747261637420697320616c726561\n        /* \"#utility.yul\":7755:7757   */\n      0x40\n        /* \"#utility.yul\":7740:7758   */\n      dup3\n      add\n        /* \"#utility.yul\":7733:7795   */\n      mstore\n      shl(0x92, 0x191e481a5b9a5d1a585b1a5e9959)\n        /* \"#utility.yul\":7826:7828   */\n      0x60\n        /* \"#utility.yul\":7811:7829   */\n      dup3\n      add\n        /* \"#utility.yul\":7804:7848   */\n      mstore\n        /* \"#utility.yul\":7880:7883   */\n      0x80\n        /* \"#utility.yul\":7865:7884   */\n      add\n      swap1\n        /* \"#utility.yul\":7654:7890   */\n      jump\t// out\n        /* \"#utility.yul\":7895:8251   */\n    tag_165:\n        /* \"#utility.yul\":8097:8099   */\n      0x20\n        /* \"#utility.yul\":8079:8100   */\n      dup1\n      dup3\n      mstore\n        /* \"#utility.yul\":8116:8134   */\n      dup2\n      dup2\n      add\n        /* \"#utility.yul\":8109:8139   */\n      mstore\n        /* \"#utility.yul\":8175:8209   */\n      0x4f776e61626c653a2063616c6c6572206973206e6f7420746865206f776e6572\n        /* \"#utility.yul\":8170:8172   */\n      0x40\n        /* \"#utility.yul\":8155:8173   */\n      dup3\n      add\n        /* \"#utility.yul\":8148:8210   */\n      mstore\n        /* \"#utility.yul\":8242:8244   */\n      0x60\n        /* \"#utility.yul\":8227:8245   */\n      add\n      swap1\n        /* \"#utility.yul\":8069:8251   */\n      jump\t// out\n        /* \"#utility.yul\":9067:9474   */\n    tag_291:\n        /* \"#utility.yul\":9269:9271   */\n      0x20\n        /* \"#utility.yul\":9251:9272   */\n      dup1\n      dup3\n      mstore\n        /* \"#utility.yul\":9308:9310   */\n      0x2b\n        /* \"#utility.yul\":9288:9306   */\n      swap1\n      dup3\n      add\n        /* \"#utility.yul\":9281:9311   */\n      mstore\n        /* \"#utility.yul\":9347:9381   */\n      0x496e697469616c697a61626c653a20636f6e7472616374206973206e6f742069\n        /* \"#utility.yul\":9342:9344   */\n      0x40\n        /* \"#utility.yul\":9327:9345   */\n      dup3\n      add\n        /* \"#utility.yul\":9320:9382   */\n      mstore\n      shl(0xa8, 0x6e697469616c697a696e67)\n        /* \"#utility.yul\":9413:9415   */\n      0x60\n        /* \"#utility.yul\":9398:9416   */\n      dup3\n      add\n        /* \"#utility.yul\":9391:9432   */\n      mstore\n        /* \"#utility.yul\":9464:9467   */\n      0x80\n        /* \"#utility.yul\":9449:9468   */\n      add\n      swap1\n        /* \"#utility.yul\":9241:9474   */\n      jump\t// out\n        /* \"#utility.yul\":10959:11087   */\n    tag_137:\n        /* \"#utility.yul\":10999:11002   */\n      0x00\n        /* \"#utility.yul\":11030:11031   */\n      dup3\n        /* \"#utility.yul\":11026:11032   */\n      not\n        /* \"#utility.yul\":11023:11024   */\n      dup3\n        /* \"#utility.yul\":11020:11033   */\n      gt\n        /* \"#utility.yul\":11017:11019   */\n      iszero\n      tag_402\n      jumpi\n        /* \"#utility.yul\":11036:11054   */\n      tag_402\n      tag_403\n      jump\t// in\n    tag_402:\n      pop\n        /* \"#utility.yul\":11072:11081   */\n      add\n      swap1\n        /* \"#utility.yul\":11007:11087   */\n      jump\t// out\n        /* \"#utility.yul\":11092:11217   */\n    tag_178:\n        /* \"#utility.yul\":11132:11136   */\n      0x00\n        /* \"#utility.yul\":11160:11161   */\n      dup3\n        /* \"#utility.yul\":11157:11158   */\n      dup3\n        /* \"#utility.yul\":11154:11162   */\n      lt\n        /* \"#utility.yul\":11151:11153   */\n      iszero\n      tag_406\n      jumpi\n        /* \"#utility.yul\":11165:11183   */\n      tag_406\n      tag_403\n      jump\t// in\n    tag_406:\n      pop\n        /* \"#utility.yul\":11202:11211   */\n      sub\n      swap1\n        /* \"#utility.yul\":11141:11217   */\n      jump\t// out\n        /* \"#utility.yul\":11222:11602   */\n    tag_114:\n        /* \"#utility.yul\":11301:11302   */\n      0x01\n        /* \"#utility.yul\":11297:11309   */\n      dup2\n      dup2\n      shr\n      swap1\n        /* \"#utility.yul\":11344:11356   */\n      dup3\n      and\n      dup1\n        /* \"#utility.yul\":11365:11367   */\n      tag_408\n      jumpi\n        /* \"#utility.yul\":11419:11423   */\n      0x7f\n        /* \"#utility.yul\":11411:11417   */\n      dup3\n        /* \"#utility.yul\":11407:11424   */\n      and\n        /* \"#utility.yul\":11397:11424   */\n      swap2\n      pop\n        /* \"#utility.yul\":11365:11367   */\n    tag_408:\n        /* \"#utility.yul\":11472:11474   */\n      0x20\n        /* \"#utility.yul\":11464:11470   */\n      dup3\n        /* \"#utility.yul\":11461:11475   */\n      lt\n        /* \"#utility.yul\":11441:11459   */\n      dup2\n        /* \"#utility.yul\":11438:11476   */\n      eq\n        /* \"#utility.yul\":11435:11437   */\n      iszero\n      tag_409\n      jumpi\n        /* \"#utility.yul\":11518:11528   */\n      0x4e487b71\n        /* \"#utility.yul\":11513:11516   */\n      0xe0\n        /* \"#utility.yul\":11509:11529   */\n      shl\n        /* \"#utility.yul\":11506:11507   */\n      0x00\n        /* \"#utility.yul\":11499:11530   */\n      mstore\n        /* \"#utility.yul\":11553:11557   */\n      0x22\n        /* \"#utility.yul\":11550:11551   */\n      0x04\n        /* \"#utility.yul\":11543:11558   */\n      mstore\n        /* \"#utility.yul\":11581:11585   */\n      0x24\n        /* \"#utility.yul\":11578:11579   */\n      0x00\n        /* \"#utility.yul\":11571:11586   */\n      revert\n        /* \"#utility.yul\":11435:11437   */\n    tag_409:\n      pop\n        /* \"#utility.yul\":11277:11602   */\n      swap2\n      swap1\n      pop\n      jump\t// out\n        /* \"#utility.yul\":11607:11734   */\n    tag_403:\n        /* \"#utility.yul\":11668:11678   */\n      0x4e487b71\n        /* \"#utility.yul\":11663:11666   */\n      0xe0\n        /* \"#utility.yul\":11659:11679   */\n      shl\n        /* \"#utility.yul\":11656:11657   */\n      0x00\n        /* \"#utility.yul\":11649:11680   */\n      mstore\n        /* \"#utility.yul\":11699:11703   */\n      0x11\n        /* \"#utility.yul\":11696:11697   */\n      0x04\n        /* \"#utility.yul\":11689:11704   */\n      mstore\n        /* \"#utility.yul\":11723:11727   */\n      0x24\n        /* \"#utility.yul\":11720:11721   */\n      0x00\n        /* \"#utility.yul\":11713:11728   */\n      revert\n        /* \"#utility.yul\":11739:11866   */\n    tag_344:\n        /* \"#utility.yul\":11800:11810   */\n      0x4e487b71\n        /* \"#utility.yul\":11795:11798   */\n      0xe0\n        /* \"#utility.yul\":11791:11811   */\n      shl\n        /* \"#utility.yul\":11788:11789   */\n      0x00\n        /* \"#utility.yul\":11781:11812   */\n      mstore\n        /* \"#utility.yul\":11831:11835   */\n      0x41\n        /* \"#utility.yul\":11828:11829   */\n      0x04\n        /* \"#utility.yul\":11821:11836   */\n      mstore\n        /* \"#utility.yul\":11855:11859   */\n      0x24\n        /* \"#utility.yul\":11852:11853   */\n      0x00\n        /* \"#utility.yul\":11845:11860   */\n      revert\n        /* \"#utility.yul\":11871:12002   */\n    tag_351:\n      sub(shl(0xa0, 0x01), 0x01)\n        /* \"#utility.yul\":11946:11977   */\n      dup2\n      and\n        /* \"#utility.yul\":11936:11978   */\n      dup2\n      eq\n        /* \"#utility.yul\":11926:11928   */\n      tag_235\n      jumpi\n        /* \"#utility.yul\":11992:11993   */\n      0x00\n        /* \"#utility.yul\":11989:11990   */\n      dup1\n        /* \"#utility.yul\":11982:11994   */\n      revert\n\n    auxdata: 0xa26469706673582212205862b08996d209c1fc6a0ee03bcc43640577bace9ae5e15c2b1eb96030b1a37464736f6c63430008040033\n}\n",
				"bytecode": {
					"linkReferences": {},
					"object": "608060405234801561001057600080fd5b506113c1806100206000396000f3fe608060405234801561001057600080fd5b50600436106101425760003560e01c806370a08231116100b8578063a457c2d71161007c578063a457c2d71461028f578063a9059cbb146102a2578063be023d84146102b5578063d1a20509146102c8578063dd62ed3e146102e8578063f2fde38b146102fb57600080fd5b806370a0823114610228578063715018a614610251578063854cff2f146102595780638da5cb5b1461026c57806395d89b411461028757600080fd5b8063395093511161010a57806339509351146101bc57806340c10f19146101cf5780634cd88b76146101e45780634fc3f41a146101f757806359176c8d1461020a5780635c975abb1461021d57600080fd5b806306fdde0314610147578063095ea7b31461016557806318160ddd1461018857806323b872dd1461019a578063313ce567146101ad575b600080fd5b61014f61030e565b60405161015c91906111bf565b60405180910390f35b61017861017336600461111b565b6103a0565b604051901515815260200161015c565b6035545b60405190815260200161015c565b6101786101a83660046110db565b6103b8565b6040516012815260200161015c565b6101786101ca36600461111b565b6103dc565b6101e26101dd36600461111b565b6103fe565b005b6101e26101f2366004611146565b610461565b6101e26102053660046111a7565b610505565b6101e26102183660046111a7565b610534565b60975460ff16610178565b61018c610236366004611064565b6001600160a01b031660009081526033602052604090205490565b6101e26106b1565b6101e2610267366004611064565b6106e7565b6065546040516001600160a01b03909116815260200161015c565b61014f610735565b61017861029d36600461111b565b610744565b6101786102b036600461111b565b6107bf565b6101e26102c3366004611064565b6107cd565b61018c6102d63660046111a7565b600090815260cd602052604090205490565b61018c6102f63660046110a3565b610819565b6101e2610309366004611064565b610844565b60606036805461031d9061130f565b80601f01602080910402602001604051908101604052809291908181526020018280546103499061130f565b80156103965780601f1061036b57610100808354040283529160200191610396565b820191906000526020600020905b81548152906001019060200180831161037957829003601f168201915b5050505050905090565b6000336103ae8185856108df565b5060019392505050565b6000336103c6858285610a03565b6103d1858585610a7d565b506001949350505050565b6000336103ae8185856103ef8383610819565b6103f991906112e0565b6108df565b33600090815260cc602052604090205460ff166104535760405162461bcd60e51b815260206004820152600e60248201526d13db9b1e481dda1a5d195b1a5cdd60921b60448201526064015b60405180910390fd5b61045d8282610c4b565b5050565b600061046d6001610d2a565b90508015610485576000805461ff0019166101001790555b61048f8383610db2565b610497610de3565b61049f610e12565b6104b5336b204fce5e3e25026110000000610c4b565b603c60ca558015610500576000805461ff0019169055604051600181527f7f26b83ff96e1f2b6a682f133852f6798a09c465da95921460cefb38474024989060200160405180910390a15b505050565b6065546001600160a01b0316331461052f5760405162461bcd60e51b815260040161044a90611260565b60ca55565b60cb546040516331a9108f60e11b81526004810183905233916001600160a01b031690636352211e9060240160206040518083038186803b15801561057857600080fd5b505afa15801561058c573d6000803e3d6000fd5b505050506040513d601f19601f820116820180604052508101906105b09190611087565b6001600160a01b0316146105f55760405162461bcd60e51b815260206004820152600c60248201526b15539055551213d49256915160a21b604482015260640161044a565b600081815260cd6020526040902054620151809061061390426112f8565b101561064f5760405162461bcd60e51b815260206004820152600b60248201526a27a71021a7a7a62227aba760a91b604482015260640161044a565b61065b3360c954610c4b565b600081815260cd6020908152604091829020429081905560c9548351338152928301528183015290517f8dce8756778b482ef8cfef8c65faadc506ce94e081bb6cc3a2d3448d99de9a509181900360600190a150565b6065546001600160a01b031633146106db5760405162461bcd60e51b815260040161044a90611260565b6106e56000610e41565b565b6065546001600160a01b031633146107115760405162461bcd60e51b815260040161044a90611260565b6001600160a01b0316600090815260cc60205260409020805460ff19166001179055565b60606037805461031d9061130f565b600033816107528286610819565b9050838110156107b25760405162461bcd60e51b815260206004820152602560248201527f45524332303a2064656372656173656420616c6c6f77616e63652062656c6f77604482015264207a65726f60d81b606482015260840161044a565b6103d182868684036108df565b6000336103ae818585610a7d565b6065546001600160a01b031633146107f75760405162461bcd60e51b815260040161044a90611260565b60cb80546001600160a01b0319166001600160a01b0392909216919091179055565b6001600160a01b03918216600090815260346020908152604080832093909416825291909152205490565b6065546001600160a01b0316331461086e5760405162461bcd60e51b815260040161044a90611260565b6001600160a01b0381166108d35760405162461bcd60e51b815260206004820152602660248201527f4f776e61626c653a206e6577206f776e657220697320746865207a65726f206160448201526564647265737360d01b606482015260840161044a565b6108dc81610e41565b50565b6001600160a01b0383166109415760405162461bcd60e51b8152602060048201526024808201527f45524332303a20617070726f76652066726f6d20746865207a65726f206164646044820152637265737360e01b606482015260840161044a565b6001600160a01b0382166109a25760405162461bcd60e51b815260206004820152602260248201527f45524332303a20617070726f766520746f20746865207a65726f206164647265604482015261737360f01b606482015260840161044a565b6001600160a01b0383811660008181526034602090815260408083209487168084529482529182902085905590518481527f8c5be1e5ebec7d5bd14f71427d1e84f3dd0314c0f7b2291e5b200ac8c7c3b925910160405180910390a3505050565b6000610a0f8484610819565b90506000198114610a775781811015610a6a5760405162461bcd60e51b815260206004820152601d60248201527f45524332303a20696e73756666696369656e7420616c6c6f77616e6365000000604482015260640161044a565b610a7784848484036108df565b50505050565b6001600160a01b038316610ae15760405162461bcd60e51b815260206004820152602560248201527f45524332303a207472616e736665722066726f6d20746865207a65726f206164604482015264647265737360d81b606482015260840161044a565b6001600160a01b038216610b435760405162461bcd60e51b815260206004820152602360248201527f45524332303a207472616e7366657220746f20746865207a65726f206164647260448201526265737360e81b606482015260840161044a565b6001600160a01b03831660009081526033602052604090205481811015610bbb5760405162461bcd60e51b815260206004820152602660248201527f45524332303a207472616e7366657220616d6f756e7420657863656564732062604482015265616c616e636560d01b606482015260840161044a565b6001600160a01b03808516600090815260336020526040808220858503905591851681529081208054849290610bf29084906112e0565b92505081905550826001600160a01b0316846001600160a01b03167fddf252ad1be2c89b69c2b068fc378daa952ba7f163c4a11628f55a4df523b3ef84604051610c3e91815260200190565b60405180910390a3610a77565b6001600160a01b038216610ca15760405162461bcd60e51b815260206004820152601f60248201527f45524332303a206d696e7420746f20746865207a65726f206164647265737300604482015260640161044a565b8060356000828254610cb391906112e0565b90915550506001600160a01b03821660009081526033602052604081208054839290610ce09084906112e0565b90915550506040518181526001600160a01b038316906000907fddf252ad1be2c89b69c2b068fc378daa952ba7f163c4a11628f55a4df523b3ef9060200160405180910390a35050565b60008054610100900460ff1615610d71578160ff166001148015610d4d5750303b155b610d695760405162461bcd60e51b815260040161044a90611212565b506000919050565b60005460ff808416911610610d985760405162461bcd60e51b815260040161044a90611212565b506000805460ff191660ff92909216919091179055600190565b600054610100900460ff16610dd95760405162461bcd60e51b815260040161044a90611295565b61045d8282610e93565b600054610100900460ff16610e0a5760405162461bcd60e51b815260040161044a90611295565b6106e5610ee1565b600054610100900460ff16610e395760405162461bcd60e51b815260040161044a90611295565b6106e5610f11565b606580546001600160a01b038381166001600160a01b0319831681179093556040519116919082907f8be0079c531659141344cd1fd0a4f28419497f9722a3daafe3b4186f6b6457e090600090a35050565b600054610100900460ff16610eba5760405162461bcd60e51b815260040161044a90611295565b8151610ecd906036906020850190610f44565b508051610500906037906020840190610f44565b600054610100900460ff16610f085760405162461bcd60e51b815260040161044a90611295565b6106e533610e41565b600054610100900460ff16610f385760405162461bcd60e51b815260040161044a90611295565b6097805460ff19169055565b828054610f509061130f565b90600052602060002090601f016020900481019282610f725760008555610fb8565b82601f10610f8b57805160ff1916838001178555610fb8565b82800160010185558215610fb8579182015b82811115610fb8578251825591602001919060010190610f9d565b50610fc4929150610fc8565b5090565b5b80821115610fc45760008155600101610fc9565b600082601f830112610fed578081fd5b813567ffffffffffffffff8082111561100857611008611360565b604051601f8301601f19908116603f0116810190828211818310171561103057611030611360565b81604052838152866020858801011115611048578485fd5b8360208701602083013792830160200193909352509392505050565b600060208284031215611075578081fd5b813561108081611376565b9392505050565b600060208284031215611098578081fd5b815161108081611376565b600080604083850312156110b5578081fd5b82356110c081611376565b915060208301356110d081611376565b809150509250929050565b6000806000606084860312156110ef578081fd5b83356110fa81611376565b9250602084013561110a81611376565b929592945050506040919091013590565b6000806040838503121561112d578182fd5b823561113881611376565b946020939093013593505050565b60008060408385031215611158578182fd5b823567ffffffffffffffff8082111561116f578384fd5b61117b86838701610fdd565b93506020850135915080821115611190578283fd5b5061119d85828601610fdd565b9150509250929050565b6000602082840312156111b8578081fd5b5035919050565b6000602080835283518082850152825b818110156111eb578581018301518582016040015282016111cf565b818111156111fc5783604083870101525b50601f01601f1916929092016040019392505050565b6020808252602e908201527f496e697469616c697a61626c653a20636f6e747261637420697320616c72656160408201526d191e481a5b9a5d1a585b1a5e995960921b606082015260800190565b6020808252818101527f4f776e61626c653a2063616c6c6572206973206e6f7420746865206f776e6572604082015260600190565b6020808252602b908201527f496e697469616c697a61626c653a20636f6e7472616374206973206e6f74206960408201526a6e697469616c697a696e6760a81b606082015260800190565b600082198211156112f3576112f361134a565b500190565b60008282101561130a5761130a61134a565b500390565b600181811c9082168061132357607f821691505b6020821081141561134457634e487b7160e01b600052602260045260246000fd5b50919050565b634e487b7160e01b600052601160045260246000fd5b634e487b7160e01b600052604160045260246000fd5b6001600160a01b03811681146108dc57600080fdfea26469706673582212205862b08996d209c1fc6a0ee03bcc43640577bace9ae5e15c2b1eb96030b1a37464736f6c63430008040033",
					"opcodes": "PUSH1 0x80 PUSH1 0x40 MSTORE CALLVALUE DUP1 ISZERO PUSH2 0x10 JUMPI PUSH1 0x0 DUP1 REVERT JUMPDEST POP PUSH2 0x13C1 DUP1 PUSH2 0x20 PUSH1 0x0 CODECOPY PUSH1 0x0 RETURN INVALID PUSH1 0x80 PUSH1 0x40 MSTORE CALLVALUE DUP1 ISZERO PUSH2 0x10 JUMPI PUSH1 0x0 DUP1 REVERT JUMPDEST POP PUSH1 0x4 CALLDATASIZE LT PUSH2 0x142 JUMPI PUSH1 0x0 CALLDATALOAD PUSH1 0xE0 SHR DUP1 PUSH4 0x70A08231 GT PUSH2 0xB8 JUMPI DUP1 PUSH4 0xA457C2D7 GT PUSH2 0x7C JUMPI DUP1 PUSH4 0xA457C2D7 EQ PUSH2 0x28F JUMPI DUP1 PUSH4 0xA9059CBB EQ PUSH2 0x2A2 JUMPI DUP1 PUSH4 0xBE023D84 EQ PUSH2 0x2B5 JUMPI DUP1 PUSH4 0xD1A20509 EQ PUSH2 0x2C8 JUMPI DUP1 PUSH4 0xDD62ED3E EQ PUSH2 0x2E8 JUMPI DUP1 PUSH4 0xF2FDE38B EQ PUSH2 0x2FB JUMPI PUSH1 0x0 DUP1 REVERT JUMPDEST DUP1 PUSH4 0x70A08231 EQ PUSH2 0x228 JUMPI DUP1 PUSH4 0x715018A6 EQ PUSH2 0x251 JUMPI DUP1 PUSH4 0x854CFF2F EQ PUSH2 0x259 JUMPI DUP1 PUSH4 0x8DA5CB5B EQ PUSH2 0x26C JUMPI DUP1 PUSH4 0x95D89B41 EQ PUSH2 0x287 JUMPI PUSH1 0x0 DUP1 REVERT JUMPDEST DUP1 PUSH4 0x39509351 GT PUSH2 0x10A JUMPI DUP1 PUSH4 0x39509351 EQ PUSH2 0x1BC JUMPI DUP1 PUSH4 0x40C10F19 EQ PUSH2 0x1CF JUMPI DUP1 PUSH4 0x4CD88B76 EQ PUSH2 0x1E4 JUMPI DUP1 PUSH4 0x4FC3F41A EQ PUSH2 0x1F7 JUMPI DUP1 PUSH4 0x59176C8D EQ PUSH2 0x20A JUMPI DUP1 PUSH4 0x5C975ABB EQ PUSH2 0x21D JUMPI PUSH1 0x0 DUP1 REVERT JUMPDEST DUP1 PUSH4 0x6FDDE03 EQ PUSH2 0x147 JUMPI DUP1 PUSH4 0x95EA7B3 EQ PUSH2 0x165 JUMPI DUP1 PUSH4 0x18160DDD EQ PUSH2 0x188 JUMPI DUP1 PUSH4 0x23B872DD EQ PUSH2 0x19A JUMPI DUP1 PUSH4 0x313CE567 EQ PUSH2 0x1AD JUMPI JUMPDEST PUSH1 0x0 DUP1 REVERT JUMPDEST PUSH2 0x14F PUSH2 0x30E JUMP JUMPDEST PUSH1 0x40 MLOAD PUSH2 0x15C SWAP2 SWAP1 PUSH2 0x11BF JUMP JUMPDEST PUSH1 0x40 MLOAD DUP1 SWAP2 SUB SWAP1 RETURN JUMPDEST PUSH2 0x178 PUSH2 0x173 CALLDATASIZE PUSH1 0x4 PUSH2 0x111B JUMP JUMPDEST PUSH2 0x3A0 JUMP JUMPDEST PUSH1 0x40 MLOAD SWAP1 ISZERO ISZERO DUP2 MSTORE PUSH1 0x20 ADD PUSH2 0x15C JUMP JUMPDEST PUSH1 0x35 SLOAD JUMPDEST PUSH1 0x40 MLOAD SWAP1 DUP2 MSTORE PUSH1 0x20 ADD PUSH2 0x15C JUMP JUMPDEST PUSH2 0x178 PUSH2 0x1A8 CALLDATASIZE PUSH1 0x4 PUSH2 0x10DB JUMP JUMPDEST PUSH2 0x3B8 JUMP JUMPDEST PUSH1 0x40 MLOAD PUSH1 0x12 DUP2 MSTORE PUSH1 0x20 ADD PUSH2 0x15C JUMP JUMPDEST PUSH2 0x178 PUSH2 0x1CA CALLDATASIZE PUSH1 0x4 PUSH2 0x111B JUMP JUMPDEST PUSH2 0x3DC JUMP JUMPDEST PUSH2 0x1E2 PUSH2 0x1DD CALLDATASIZE PUSH1 0x4 PUSH2 0x111B JUMP JUMPDEST PUSH2 0x3FE JUMP JUMPDEST STOP JUMPDEST PUSH2 0x1E2 PUSH2 0x1F2 CALLDATASIZE PUSH1 0x4 PUSH2 0x1146 JUMP JUMPDEST PUSH2 0x461 JUMP JUMPDEST PUSH2 0x1E2 PUSH2 0x205 CALLDATASIZE PUSH1 0x4 PUSH2 0x11A7 JUMP JUMPDEST PUSH2 0x505 JUMP JUMPDEST PUSH2 0x1E2 PUSH2 0x218 CALLDATASIZE PUSH1 0x4 PUSH2 0x11A7 JUMP JUMPDEST PUSH2 0x534 JUMP JUMPDEST PUSH1 0x97 SLOAD PUSH1 0xFF AND PUSH2 0x178 JUMP JUMPDEST PUSH2 0x18C PUSH2 0x236 CALLDATASIZE PUSH1 0x4 PUSH2 0x1064 JUMP JUMPDEST PUSH1 0x1 PUSH1 0x1 PUSH1 0xA0 SHL SUB AND PUSH1 0x0 SWAP1 DUP2 MSTORE PUSH1 0x33 PUSH1 0x20 MSTORE PUSH1 0x40 SWAP1 KECCAK256 SLOAD SWAP1 JUMP JUMPDEST PUSH2 0x1E2 PUSH2 0x6B1 JUMP JUMPDEST PUSH2 0x1E2 PUSH2 0x267 CALLDATASIZE PUSH1 0x4 PUSH2 0x1064 JUMP JUMPDEST PUSH2 0x6E7 JUMP JUMPDEST PUSH1 0x65 SLOAD PUSH1 0x40 MLOAD PUSH1 0x1 PUSH1 0x1 PUSH1 0xA0 SHL SUB SWAP1 SWAP2 AND DUP2 MSTORE PUSH1 0x20 ADD PUSH2 0x15C JUMP JUMPDEST PUSH2 0x14F PUSH2 0x735 JUMP JUMPDEST PUSH2 0x178 PUSH2 0x29D CALLDATASIZE PUSH1 0x4 PUSH2 0x111B JUMP JUMPDEST PUSH2 0x744 JUMP JUMPDEST PUSH2 0x178 PUSH2 0x2B0 CALLDATASIZE PUSH1 0x4 PUSH2 0x111B JUMP JUMPDEST PUSH2 0x7BF JUMP JUMPDEST PUSH2 0x1E2 PUSH2 0x2C3 CALLDATASIZE PUSH1 0x4 PUSH2 0x1064 JUMP JUMPDEST PUSH2 0x7CD JUMP JUMPDEST PUSH2 0x18C PUSH2 0x2D6 CALLDATASIZE PUSH1 0x4 PUSH2 0x11A7 JUMP JUMPDEST PUSH1 0x0 SWAP1 DUP2 MSTORE PUSH1 0xCD PUSH1 0x20 MSTORE PUSH1 0x40 SWAP1 KECCAK256 SLOAD SWAP1 JUMP JUMPDEST PUSH2 0x18C PUSH2 0x2F6 CALLDATASIZE PUSH1 0x4 PUSH2 0x10A3 JUMP JUMPDEST PUSH2 0x819 JUMP JUMPDEST PUSH2 0x1E2 PUSH2 0x309 CALLDATASIZE PUSH1 0x4 PUSH2 0x1064 JUMP JUMPDEST PUSH2 0x844 JUMP JUMPDEST PUSH1 0x60 PUSH1 0x36 DUP1 SLOAD PUSH2 0x31D SWAP1 PUSH2 0x130F JUMP JUMPDEST DUP1 PUSH1 0x1F ADD PUSH1 0x20 DUP1 SWAP2 DIV MUL PUSH1 0x20 ADD PUSH1 0x40 MLOAD SWAP1 DUP2 ADD PUSH1 0x40 MSTORE DUP1 SWAP3 SWAP2 SWAP1 DUP2 DUP2 MSTORE PUSH1 0x20 ADD DUP3 DUP1 SLOAD PUSH2 0x349 SWAP1 PUSH2 0x130F JUMP JUMPDEST DUP1 ISZERO PUSH2 0x396 JUMPI DUP1 PUSH1 0x1F LT PUSH2 0x36B JUMPI PUSH2 0x100 DUP1 DUP4 SLOAD DIV MUL DUP4 MSTORE SWAP2 PUSH1 0x20 ADD SWAP2 PUSH2 0x396 JUMP JUMPDEST DUP3 ADD SWAP2 SWAP1 PUSH1 0x0 MSTORE PUSH1 0x20 PUSH1 0x0 KECCAK256 SWAP1 JUMPDEST DUP2 SLOAD DUP2 MSTORE SWAP1 PUSH1 0x1 ADD SWAP1 PUSH1 0x20 ADD DUP1 DUP4 GT PUSH2 0x379 JUMPI DUP3 SWAP1 SUB PUSH1 0x1F AND DUP3 ADD SWAP2 JUMPDEST POP POP POP POP POP SWAP1 POP SWAP1 JUMP JUMPDEST PUSH1 0x0 CALLER PUSH2 0x3AE DUP2 DUP6 DUP6 PUSH2 0x8DF JUMP JUMPDEST POP PUSH1 0x1 SWAP4 SWAP3 POP POP POP JUMP JUMPDEST PUSH1 0x0 CALLER PUSH2 0x3C6 DUP6 DUP3 DUP6 PUSH2 0xA03 JUMP JUMPDEST PUSH2 0x3D1 DUP6 DUP6 DUP6 PUSH2 0xA7D JUMP JUMPDEST POP PUSH1 0x1 SWAP5 SWAP4 POP POP POP POP JUMP JUMPDEST PUSH1 0x0 CALLER PUSH2 0x3AE DUP2 DUP6 DUP6 PUSH2 0x3EF DUP4 DUP4 PUSH2 0x819 JUMP JUMPDEST PUSH2 0x3F9 SWAP2 SWAP1 PUSH2 0x12E0 JUMP JUMPDEST PUSH2 0x8DF JUMP JUMPDEST CALLER PUSH1 0x0 SWAP1 DUP2 MSTORE PUSH1 0xCC PUSH1 0x20 MSTORE PUSH1 0x40 SWAP1 KECCAK256 SLOAD PUSH1 0xFF AND PUSH2 0x453 JUMPI PUSH1 0x40 MLOAD PUSH3 0x461BCD PUSH1 0xE5 SHL DUP2 MSTORE PUSH1 0x20 PUSH1 0x4 DUP3 ADD MSTORE PUSH1 0xE PUSH1 0x24 DUP3 ADD MSTORE PUSH14 0x13DB9B1E481DDA1A5D195B1A5CDD PUSH1 0x92 SHL PUSH1 0x44 DUP3 ADD MSTORE PUSH1 0x64 ADD JUMPDEST PUSH1 0x40 MLOAD DUP1 SWAP2 SUB SWAP1 REVERT JUMPDEST PUSH2 0x45D DUP3 DUP3 PUSH2 0xC4B JUMP JUMPDEST POP POP JUMP JUMPDEST PUSH1 0x0 PUSH2 0x46D PUSH1 0x1 PUSH2 0xD2A JUMP JUMPDEST SWAP1 POP DUP1 ISZERO PUSH2 0x485 JUMPI PUSH1 0x0 DUP1 SLOAD PUSH2 0xFF00 NOT AND PUSH2 0x100 OR SWAP1 SSTORE JUMPDEST PUSH2 0x48F DUP4 DUP4 PUSH2 0xDB2 JUMP JUMPDEST PUSH2 0x497 PUSH2 0xDE3 JUMP JUMPDEST PUSH2 0x49F PUSH2 0xE12 JUMP JUMPDEST PUSH2 0x4B5 CALLER PUSH12 0x204FCE5E3E25026110000000 PUSH2 0xC4B JUMP JUMPDEST PUSH1 0x3C PUSH1 0xCA SSTORE DUP1 ISZERO PUSH2 0x500 JUMPI PUSH1 0x0 DUP1 SLOAD PUSH2 0xFF00 NOT AND SWAP1 SSTORE PUSH1 0x40 MLOAD PUSH1 0x1 DUP2 MSTORE PUSH32 0x7F26B83FF96E1F2B6A682F133852F6798A09C465DA95921460CEFB3847402498 SWAP1 PUSH1 0x20 ADD PUSH1 0x40 MLOAD DUP1 SWAP2 SUB SWAP1 LOG1 JUMPDEST POP POP POP JUMP JUMPDEST PUSH1 0x65 SLOAD PUSH1 0x1 PUSH1 0x1 PUSH1 0xA0 SHL SUB AND CALLER EQ PUSH2 0x52F JUMPI PUSH1 0x40 MLOAD PUSH3 0x461BCD PUSH1 0xE5 SHL DUP2 MSTORE PUSH1 0x4 ADD PUSH2 0x44A SWAP1 PUSH2 0x1260 JUMP JUMPDEST PUSH1 0xCA SSTORE JUMP JUMPDEST PUSH1 0xCB SLOAD PUSH1 0x40 MLOAD PUSH4 0x31A9108F PUSH1 0xE1 SHL DUP2 MSTORE PUSH1 0x4 DUP2 ADD DUP4 SWAP1 MSTORE CALLER SWAP2 PUSH1 0x1 PUSH1 0x1 PUSH1 0xA0 SHL SUB AND SWAP1 PUSH4 0x6352211E SWAP1 PUSH1 0x24 ADD PUSH1 0x20 PUSH1 0x40 MLOAD DUP1 DUP4 SUB DUP2 DUP7 DUP1 EXTCODESIZE ISZERO DUP1 ISZERO PUSH2 0x578 JUMPI PUSH1 0x0 DUP1 REVERT JUMPDEST POP GAS STATICCALL ISZERO DUP1 ISZERO PUSH2 0x58C JUMPI RETURNDATASIZE PUSH1 0x0 DUP1 RETURNDATACOPY RETURNDATASIZE PUSH1 0x0 REVERT JUMPDEST POP POP POP POP PUSH1 0x40 MLOAD RETURNDATASIZE PUSH1 0x1F NOT PUSH1 0x1F DUP3 ADD AND DUP3 ADD DUP1 PUSH1 0x40 MSTORE POP DUP2 ADD SWAP1 PUSH2 0x5B0 SWAP2 SWAP1 PUSH2 0x1087 JUMP JUMPDEST PUSH1 0x1 PUSH1 0x1 PUSH1 0xA0 SHL SUB AND EQ PUSH2 0x5F5 JUMPI PUSH1 0x40 MLOAD PUSH3 0x461BCD PUSH1 0xE5 SHL DUP2 MSTORE PUSH1 0x20 PUSH1 0x4 DUP3 ADD MSTORE PUSH1 0xC PUSH1 0x24 DUP3 ADD MSTORE PUSH12 0x15539055551213D492569151 PUSH1 0xA2 SHL PUSH1 0x44 DUP3 ADD MSTORE PUSH1 0x64 ADD PUSH2 0x44A JUMP JUMPDEST PUSH1 0x0 DUP2 DUP2 MSTORE PUSH1 0xCD PUSH1 0x20 MSTORE PUSH1 0x40 SWAP1 KECCAK256 SLOAD PUSH3 0x15180 SWAP1 PUSH2 0x613 SWAP1 TIMESTAMP PUSH2 0x12F8 JUMP JUMPDEST LT ISZERO PUSH2 0x64F JUMPI PUSH1 0x40 MLOAD PUSH3 0x461BCD PUSH1 0xE5 SHL DUP2 MSTORE PUSH1 0x20 PUSH1 0x4 DUP3 ADD MSTORE PUSH1 0xB PUSH1 0x24 DUP3 ADD MSTORE PUSH11 0x27A71021A7A7A62227ABA7 PUSH1 0xA9 SHL PUSH1 0x44 DUP3 ADD MSTORE PUSH1 0x64 ADD PUSH2 0x44A JUMP JUMPDEST PUSH2 0x65B CALLER PUSH1 0xC9 SLOAD PUSH2 0xC4B JUMP JUMPDEST PUSH1 0x0 DUP2 DUP2 MSTORE PUSH1 0xCD PUSH1 0x20 SWAP1 DUP2 MSTORE PUSH1 0x40 SWAP2 DUP3 SWAP1 KECCAK256 TIMESTAMP SWAP1 DUP2 SWAP1 SSTORE PUSH1 0xC9 SLOAD DUP4 MLOAD CALLER DUP2 MSTORE SWAP3 DUP4 ADD MSTORE DUP2 DUP4 ADD MSTORE SWAP1 MLOAD PUSH32 0x8DCE8756778B482EF8CFEF8C65FAADC506CE94E081BB6CC3A2D3448D99DE9A50 SWAP2 DUP2 SWAP1 SUB PUSH1 0x60 ADD SWAP1 LOG1 POP JUMP JUMPDEST PUSH1 0x65 SLOAD PUSH1 0x1 PUSH1 0x1 PUSH1 0xA0 SHL SUB AND CALLER EQ PUSH2 0x6DB JUMPI PUSH1 0x40 MLOAD PUSH3 0x461BCD PUSH1 0xE5 SHL DUP2 MSTORE PUSH1 0x4 ADD PUSH2 0x44A SWAP1 PUSH2 0x1260 JUMP JUMPDEST PUSH2 0x6E5 PUSH1 0x0 PUSH2 0xE41 JUMP JUMPDEST JUMP JUMPDEST PUSH1 0x65 SLOAD PUSH1 0x1 PUSH1 0x1 PUSH1 0xA0 SHL SUB AND CALLER EQ PUSH2 0x711 JUMPI PUSH1 0x40 MLOAD PUSH3 0x461BCD PUSH1 0xE5 SHL DUP2 MSTORE PUSH1 0x4 ADD PUSH2 0x44A SWAP1 PUSH2 0x1260 JUMP JUMPDEST PUSH1 0x1 PUSH1 0x1 PUSH1 0xA0 SHL SUB AND PUSH1 0x0 SWAP1 DUP2 MSTORE PUSH1 0xCC PUSH1 0x20 MSTORE PUSH1 0x40 SWAP1 KECCAK256 DUP1 SLOAD PUSH1 0xFF NOT AND PUSH1 0x1 OR SWAP1 SSTORE JUMP JUMPDEST PUSH1 0x60 PUSH1 0x37 DUP1 SLOAD PUSH2 0x31D SWAP1 PUSH2 0x130F JUMP JUMPDEST PUSH1 0x0 CALLER DUP2 PUSH2 0x752 DUP3 DUP7 PUSH2 0x819 JUMP JUMPDEST SWAP1 POP DUP4 DUP2 LT ISZERO PUSH2 0x7B2 JUMPI PUSH1 0x40 MLOAD PUSH3 0x461BCD PUSH1 0xE5 SHL DUP2 MSTORE PUSH1 0x20 PUSH1 0x4 DUP3 ADD MSTORE PUSH1 0x25 PUSH1 0x24 DUP3 ADD MSTORE PUSH32 0x45524332303A2064656372656173656420616C6C6F77616E63652062656C6F77 PUSH1 0x44 DUP3 ADD MSTORE PUSH5 0x207A65726F PUSH1 0xD8 SHL PUSH1 0x64 DUP3 ADD MSTORE PUSH1 0x84 ADD PUSH2 0x44A JUMP JUMPDEST PUSH2 0x3D1 DUP3 DUP7 DUP7 DUP5 SUB PUSH2 0x8DF JUMP JUMPDEST PUSH1 0x0 CALLER PUSH2 0x3AE DUP2 DUP6 DUP6 PUSH2 0xA7D JUMP JUMPDEST PUSH1 0x65 SLOAD PUSH1 0x1 PUSH1 0x1 PUSH1 0xA0 SHL SUB AND CALLER EQ PUSH2 0x7F7 JUMPI PUSH1 0x40 MLOAD PUSH3 0x461BCD PUSH1 0xE5 SHL DUP2 MSTORE PUSH1 0x4 ADD PUSH2 0x44A SWAP1 PUSH2 0x1260 JUMP JUMPDEST PUSH1 0xCB DUP1 SLOAD PUSH1 0x1 PUSH1 0x1 PUSH1 0xA0 SHL SUB NOT AND PUSH1 0x1 PUSH1 0x1 PUSH1 0xA0 SHL SUB SWAP3 SWAP1 SWAP3 AND SWAP2 SWAP1 SWAP2 OR SWAP1 SSTORE JUMP JUMPDEST PUSH1 0x1 PUSH1 0x1 PUSH1 0xA0 SHL SUB SWAP2 DUP3 AND PUSH1 0x0 SWAP1 DUP2 MSTORE PUSH1 0x34 PUSH1 0x20 SWAP1 DUP2 MSTORE PUSH1 0x40 DUP1 DUP4 KECCAK256 SWAP4 SWAP1 SWAP5 AND DUP3 MSTORE SWAP2 SWAP1 SWAP2 MSTORE KECCAK256 SLOAD SWAP1 JUMP JUMPDEST PUSH1 0x65 SLOAD PUSH1 0x1 PUSH1 0x1 PUSH1 0xA0 SHL SUB AND CALLER EQ PUSH2 0x86E JUMPI PUSH1 0x40 MLOAD PUSH3 0x461BCD PUSH1 0xE5 SHL DUP2 MSTORE PUSH1 0x4 ADD PUSH2 0x44A SWAP1 PUSH2 0x1260 JUMP JUMPDEST PUSH1 0x1 PUSH1 0x1 PUSH1 0xA0 SHL SUB DUP2 AND PUSH2 0x8D3 JUMPI PUSH1 0x40 MLOAD PUSH3 0x461BCD PUSH1 0xE5 SHL DUP2 MSTORE PUSH1 0x20 PUSH1 0x4 DUP3 ADD MSTORE PUSH1 0x26 PUSH1 0x24 DUP3 ADD MSTORE PUSH32 0x4F776E61626C653A206E6577206F776E657220697320746865207A65726F2061 PUSH1 0x44 DUP3 ADD MSTORE PUSH6 0x646472657373 PUSH1 0xD0 SHL PUSH1 0x64 DUP3 ADD MSTORE PUSH1 0x84 ADD PUSH2 0x44A JUMP JUMPDEST PUSH2 0x8DC DUP2 PUSH2 0xE41 JUMP JUMPDEST POP JUMP JUMPDEST PUSH1 0x1 PUSH1 0x1 PUSH1 0xA0 SHL SUB DUP4 AND PUSH2 0x941 JUMPI PUSH1 0x40 MLOAD PUSH3 0x461BCD PUSH1 0xE5 SHL DUP2 MSTORE PUSH1 0x20 PUSH1 0x4 DUP3 ADD MSTORE PUSH1 0x24 DUP1 DUP3 ADD MSTORE PUSH32 0x45524332303A20617070726F76652066726F6D20746865207A65726F20616464 PUSH1 0x44 DUP3 ADD MSTORE PUSH4 0x72657373 PUSH1 0xE0 SHL PUSH1 0x64 DUP3 ADD MSTORE PUSH1 0x84 ADD PUSH2 0x44A JUMP JUMPDEST PUSH1 0x1 PUSH1 0x1 PUSH1 0xA0 SHL SUB DUP3 AND PUSH2 0x9A2 JUMPI PUSH1 0x40 MLOAD PUSH3 0x461BCD PUSH1 0xE5 SHL DUP2 MSTORE PUSH1 0x20 PUSH1 0x4 DUP3 ADD MSTORE PUSH1 0x22 PUSH1 0x24 DUP3 ADD MSTORE PUSH32 0x45524332303A20617070726F766520746F20746865207A65726F206164647265 PUSH1 0x44 DUP3 ADD MSTORE PUSH2 0x7373 PUSH1 0xF0 SHL PUSH1 0x64 DUP3 ADD MSTORE PUSH1 0x84 ADD PUSH2 0x44A JUMP JUMPDEST PUSH1 0x1 PUSH1 0x1 PUSH1 0xA0 SHL SUB DUP4 DUP2 AND PUSH1 0x0 DUP2 DUP2 MSTORE PUSH1 0x34 PUSH1 0x20 SWAP1 DUP2 MSTORE PUSH1 0x40 DUP1 DUP4 KECCAK256 SWAP5 DUP8 AND DUP1 DUP5 MSTORE SWAP5 DUP3 MSTORE SWAP2 DUP3 SWAP1 KECCAK256 DUP6 SWAP1 SSTORE SWAP1 MLOAD DUP5 DUP2 MSTORE PUSH32 0x8C5BE1E5EBEC7D5BD14F71427D1E84F3DD0314C0F7B2291E5B200AC8C7C3B925 SWAP2 ADD PUSH1 0x40 MLOAD DUP1 SWAP2 SUB SWAP1 LOG3 POP POP POP JUMP JUMPDEST PUSH1 0x0 PUSH2 0xA0F DUP5 DUP5 PUSH2 0x819 JUMP JUMPDEST SWAP1 POP PUSH1 0x0 NOT DUP2 EQ PUSH2 0xA77 JUMPI DUP2 DUP2 LT ISZERO PUSH2 0xA6A JUMPI PUSH1 0x40 MLOAD PUSH3 0x461BCD PUSH1 0xE5 SHL DUP2 MSTORE PUSH1 0x20 PUSH1 0x4 DUP3 ADD MSTORE PUSH1 0x1D PUSH1 0x24 DUP3 ADD MSTORE PUSH32 0x45524332303A20696E73756666696369656E7420616C6C6F77616E6365000000 PUSH1 0x44 DUP3 ADD MSTORE PUSH1 0x64 ADD PUSH2 0x44A JUMP JUMPDEST PUSH2 0xA77 DUP5 DUP5 DUP5 DUP5 SUB PUSH2 0x8DF JUMP JUMPDEST POP POP POP POP JUMP JUMPDEST PUSH1 0x1 PUSH1 0x1 PUSH1 0xA0 SHL SUB DUP4 AND PUSH2 0xAE1 JUMPI PUSH1 0x40 MLOAD PUSH3 0x461BCD PUSH1 0xE5 SHL DUP2 MSTORE PUSH1 0x20 PUSH1 0x4 DUP3 ADD MSTORE PUSH1 0x25 PUSH1 0x24 DUP3 ADD MSTORE PUSH32 0x45524332303A207472616E736665722066726F6D20746865207A65726F206164 PUSH1 0x44 DUP3 ADD MSTORE PUSH5 0x6472657373 PUSH1 0xD8 SHL PUSH1 0x64 DUP3 ADD MSTORE PUSH1 0x84 ADD PUSH2 0x44A JUMP JUMPDEST PUSH1 0x1 PUSH1 0x1 PUSH1 0xA0 SHL SUB DUP3 AND PUSH2 0xB43 JUMPI PUSH1 0x40 MLOAD PUSH3 0x461BCD PUSH1 0xE5 SHL DUP2 MSTORE PUSH1 0x20 PUSH1 0x4 DUP3 ADD MSTORE PUSH1 0x23 PUSH1 0x24 DUP3 ADD MSTORE PUSH32 0x45524332303A207472616E7366657220746F20746865207A65726F2061646472 PUSH1 0x44 DUP3 ADD MSTORE PUSH3 0x657373 PUSH1 0xE8 SHL PUSH1 0x64 DUP3 ADD MSTORE PUSH1 0x84 ADD PUSH2 0x44A JUMP JUMPDEST PUSH1 0x1 PUSH1 0x1 PUSH1 0xA0 SHL SUB DUP4 AND PUSH1 0x0 SWAP1 DUP2 MSTORE PUSH1 0x33 PUSH1 0x20 MSTORE PUSH1 0x40 SWAP1 KECCAK256 SLOAD DUP2 DUP2 LT ISZERO PUSH2 0xBBB JUMPI PUSH1 0x40 MLOAD PUSH3 0x461BCD PUSH1 0xE5 SHL DUP2 MSTORE PUSH1 0x20 PUSH1 0x4 DUP3 ADD MSTORE PUSH1 0x26 PUSH1 0x24 DUP3 ADD MSTORE PUSH32 0x45524332303A207472616E7366657220616D6F756E7420657863656564732062 PUSH1 0x44 DUP3 ADD MSTORE PUSH6 0x616C616E6365 PUSH1 0xD0 SHL PUSH1 0x64 DUP3 ADD MSTORE PUSH1 0x84 ADD PUSH2 0x44A JUMP JUMPDEST PUSH1 0x1 PUSH1 0x1 PUSH1 0xA0 SHL SUB DUP1 DUP6 AND PUSH1 0x0 SWAP1 DUP2 MSTORE PUSH1 0x33 PUSH1 0x20 MSTORE PUSH1 0x40 DUP1 DUP3 KECCAK256 DUP6 DUP6 SUB SWAP1 SSTORE SWAP2 DUP6 AND DUP2 MSTORE SWAP1 DUP2 KECCAK256 DUP1 SLOAD DUP5 SWAP3 SWAP1 PUSH2 0xBF2 SWAP1 DUP5 SWAP1 PUSH2 0x12E0 JUMP JUMPDEST SWAP3 POP POP DUP2 SWAP1 SSTORE POP DUP3 PUSH1 0x1 PUSH1 0x1 PUSH1 0xA0 SHL SUB AND DUP5 PUSH1 0x1 PUSH1 0x1 PUSH1 0xA0 SHL SUB AND PUSH32 0xDDF252AD1BE2C89B69C2B068FC378DAA952BA7F163C4A11628F55A4DF523B3EF DUP5 PUSH1 0x40 MLOAD PUSH2 0xC3E SWAP2 DUP2 MSTORE PUSH1 0x20 ADD SWAP1 JUMP JUMPDEST PUSH1 0x40 MLOAD DUP1 SWAP2 SUB SWAP1 LOG3 PUSH2 0xA77 JUMP JUMPDEST PUSH1 0x1 PUSH1 0x1 PUSH1 0xA0 SHL SUB DUP3 AND PUSH2 0xCA1 JUMPI PUSH1 0x40 MLOAD PUSH3 0x461BCD PUSH1 0xE5 SHL DUP2 MSTORE PUSH1 0x20 PUSH1 0x4 DUP3 ADD MSTORE PUSH1 0x1F PUSH1 0x24 DUP3 ADD MSTORE PUSH32 0x45524332303A206D696E7420746F20746865207A65726F206164647265737300 PUSH1 0x44 DUP3 ADD MSTORE PUSH1 0x64 ADD PUSH2 0x44A JUMP JUMPDEST DUP1 PUSH1 0x35 PUSH1 0x0 DUP3 DUP3 SLOAD PUSH2 0xCB3 SWAP2 SWAP1 PUSH2 0x12E0 JUMP JUMPDEST SWAP1 SWAP2 SSTORE POP POP PUSH1 0x1 PUSH1 0x1 PUSH1 0xA0 SHL SUB DUP3 AND PUSH1 0x0 SWAP1 DUP2 MSTORE PUSH1 0x33 PUSH1 0x20 MSTORE PUSH1 0x40 DUP2 KECCAK256 DUP1 SLOAD DUP4 SWAP3 SWAP1 PUSH2 0xCE0 SWAP1 DUP5 SWAP1 PUSH2 0x12E0 JUMP JUMPDEST SWAP1 SWAP2 SSTORE POP POP PUSH1 0x40 MLOAD DUP2 DUP2 MSTORE PUSH1 0x1 PUSH1 0x1 PUSH1 0xA0 SHL SUB DUP4 AND SWAP1 PUSH1 0x0 SWAP1 PUSH32 0xDDF252AD1BE2C89B69C2B068FC378DAA952BA7F163C4A11628F55A4DF523B3EF SWAP1 PUSH1 0x20 ADD PUSH1 0x40 MLOAD DUP1 SWAP2 SUB SWAP1 LOG3 POP POP JUMP JUMPDEST PUSH1 0x0 DUP1 SLOAD PUSH2 0x100 SWAP1 DIV PUSH1 0xFF AND ISZERO PUSH2 0xD71 JUMPI DUP2 PUSH1 0xFF AND PUSH1 0x1 EQ DUP1 ISZERO PUSH2 0xD4D JUMPI POP ADDRESS EXTCODESIZE ISZERO JUMPDEST PUSH2 0xD69 JUMPI PUSH1 0x40 MLOAD PUSH3 0x461BCD PUSH1 0xE5 SHL DUP2 MSTORE PUSH1 0x4 ADD PUSH2 0x44A SWAP1 PUSH2 0x1212 JUMP JUMPDEST POP PUSH1 0x0 SWAP2 SWAP1 POP JUMP JUMPDEST PUSH1 0x0 SLOAD PUSH1 0xFF DUP1 DUP5 AND SWAP2 AND LT PUSH2 0xD98 JUMPI PUSH1 0x40 MLOAD PUSH3 0x461BCD PUSH1 0xE5 SHL DUP2 MSTORE PUSH1 0x4 ADD PUSH2 0x44A SWAP1 PUSH2 0x1212 JUMP JUMPDEST POP PUSH1 0x0 DUP1 SLOAD PUSH1 0xFF NOT AND PUSH1 0xFF SWAP3 SWAP1 SWAP3 AND SWAP2 SWAP1 SWAP2 OR SWAP1 SSTORE PUSH1 0x1 SWAP1 JUMP JUMPDEST PUSH1 0x0 SLOAD PUSH2 0x100 SWAP1 DIV PUSH1 0xFF AND PUSH2 0xDD9 JUMPI PUSH1 0x40 MLOAD PUSH3 0x461BCD PUSH1 0xE5 SHL DUP2 MSTORE PUSH1 0x4 ADD PUSH2 0x44A SWAP1 PUSH2 0x1295 JUMP JUMPDEST PUSH2 0x45D DUP3 DUP3 PUSH2 0xE93 JUMP JUMPDEST PUSH1 0x0 SLOAD PUSH2 0x100 SWAP1 DIV PUSH1 0xFF AND PUSH2 0xE0A JUMPI PUSH1 0x40 MLOAD PUSH3 0x461BCD PUSH1 0xE5 SHL DUP2 MSTORE PUSH1 0x4 ADD PUSH2 0x44A SWAP1 PUSH2 0x1295 JUMP JUMPDEST PUSH2 0x6E5 PUSH2 0xEE1 JUMP JUMPDEST PUSH1 0x0 SLOAD PUSH2 0x100 SWAP1 DIV PUSH1 0xFF AND PUSH2 0xE39 JUMPI PUSH1 0x40 MLOAD PUSH3 0x461BCD PUSH1 0xE5 SHL DUP2 MSTORE PUSH1 0x4 ADD PUSH2 0x44A SWAP1 PUSH2 0x1295 JUMP JUMPDEST PUSH2 0x6E5 PUSH2 0xF11 JUMP JUMPDEST PUSH1 0x65 DUP1 SLOAD PUSH1 0x1 PUSH1 0x1 PUSH1 0xA0 SHL SUB DUP4 DUP2 AND PUSH1 0x1 PUSH1 0x1 PUSH1 0xA0 SHL SUB NOT DUP4 AND DUP2 OR SWAP1 SWAP4 SSTORE PUSH1 0x40 MLOAD SWAP2 AND SWAP2 SWAP1 DUP3 SWAP1 PUSH32 0x8BE0079C531659141344CD1FD0A4F28419497F9722A3DAAFE3B4186F6B6457E0 SWAP1 PUSH1 0x0 SWAP1 LOG3 POP POP JUMP JUMPDEST PUSH1 0x0 SLOAD PUSH2 0x100 SWAP1 DIV PUSH1 0xFF AND PUSH2 0xEBA JUMPI PUSH1 0x40 MLOAD PUSH3 0x461BCD PUSH1 0xE5 SHL DUP2 MSTORE PUSH1 0x4 ADD PUSH2 0x44A SWAP1 PUSH2 0x1295 JUMP JUMPDEST DUP2 MLOAD PUSH2 0xECD SWAP1 PUSH1 0x36 SWAP1 PUSH1 0x20 DUP6 ADD SWAP1 PUSH2 0xF44 JUMP JUMPDEST POP DUP1 MLOAD PUSH2 0x500 SWAP1 PUSH1 0x37 SWAP1 PUSH1 0x20 DUP5 ADD SWAP1 PUSH2 0xF44 JUMP JUMPDEST PUSH1 0x0 SLOAD PUSH2 0x100 SWAP1 DIV PUSH1 0xFF AND PUSH2 0xF08 JUMPI PUSH1 0x40 MLOAD PUSH3 0x461BCD PUSH1 0xE5 SHL DUP2 MSTORE PUSH1 0x4 ADD PUSH2 0x44A SWAP1 PUSH2 0x1295 JUMP JUMPDEST PUSH2 0x6E5 CALLER PUSH2 0xE41 JUMP JUMPDEST PUSH1 0x0 SLOAD PUSH2 0x100 SWAP1 DIV PUSH1 0xFF AND PUSH2 0xF38 JUMPI PUSH1 0x40 MLOAD PUSH3 0x461BCD PUSH1 0xE5 SHL DUP2 MSTORE PUSH1 0x4 ADD PUSH2 0x44A SWAP1 PUSH2 0x1295 JUMP JUMPDEST PUSH1 0x97 DUP1 SLOAD PUSH1 0xFF NOT AND SWAP1 SSTORE JUMP JUMPDEST DUP3 DUP1 SLOAD PUSH2 0xF50 SWAP1 PUSH2 0x130F JUMP JUMPDEST SWAP1 PUSH1 0x0 MSTORE PUSH1 0x20 PUSH1 0x0 KECCAK256 SWAP1 PUSH1 0x1F ADD PUSH1 0x20 SWAP1 DIV DUP2 ADD SWAP3 DUP3 PUSH2 0xF72 JUMPI PUSH1 0x0 DUP6 SSTORE PUSH2 0xFB8 JUMP JUMPDEST DUP3 PUSH1 0x1F LT PUSH2 0xF8B JUMPI DUP1 MLOAD PUSH1 0xFF NOT AND DUP4 DUP1 ADD OR DUP6 SSTORE PUSH2 0xFB8 JUMP JUMPDEST DUP3 DUP1 ADD PUSH1 0x1 ADD DUP6 SSTORE DUP3 ISZERO PUSH2 0xFB8 JUMPI SWAP2 DUP3 ADD JUMPDEST DUP3 DUP2 GT ISZERO PUSH2 0xFB8 JUMPI DUP3 MLOAD DUP3 SSTORE SWAP2 PUSH1 0x20 ADD SWAP2 SWAP1 PUSH1 0x1 ADD SWAP1 PUSH2 0xF9D JUMP JUMPDEST POP PUSH2 0xFC4 SWAP3 SWAP2 POP PUSH2 0xFC8 JUMP JUMPDEST POP SWAP1 JUMP JUMPDEST JUMPDEST DUP1 DUP3 GT ISZERO PUSH2 0xFC4 JUMPI PUSH1 0x0 DUP2 SSTORE PUSH1 0x1 ADD PUSH2 0xFC9 JUMP JUMPDEST PUSH1 0x0 DUP3 PUSH1 0x1F DUP4 ADD SLT PUSH2 0xFED JUMPI DUP1 DUP2 REVERT JUMPDEST DUP2 CALLDATALOAD PUSH8 0xFFFFFFFFFFFFFFFF DUP1 DUP3 GT ISZERO PUSH2 0x1008 JUMPI PUSH2 0x1008 PUSH2 0x1360 JUMP JUMPDEST PUSH1 0x40 MLOAD PUSH1 0x1F DUP4 ADD PUSH1 0x1F NOT SWAP1 DUP2 AND PUSH1 0x3F ADD AND DUP2 ADD SWAP1 DUP3 DUP3 GT DUP2 DUP4 LT OR ISZERO PUSH2 0x1030 JUMPI PUSH2 0x1030 PUSH2 0x1360 JUMP JUMPDEST DUP2 PUSH1 0x40 MSTORE DUP4 DUP2 MSTORE DUP7 PUSH1 0x20 DUP6 DUP9 ADD ADD GT ISZERO PUSH2 0x1048 JUMPI DUP5 DUP6 REVERT JUMPDEST DUP4 PUSH1 0x20 DUP8 ADD PUSH1 0x20 DUP4 ADD CALLDATACOPY SWAP3 DUP4 ADD PUSH1 0x20 ADD SWAP4 SWAP1 SWAP4 MSTORE POP SWAP4 SWAP3 POP POP POP JUMP JUMPDEST PUSH1 0x0 PUSH1 0x20 DUP3 DUP5 SUB SLT ISZERO PUSH2 0x1075 JUMPI DUP1 DUP2 REVERT JUMPDEST DUP2 CALLDATALOAD PUSH2 0x1080 DUP2 PUSH2 0x1376 JUMP JUMPDEST SWAP4 SWAP3 POP POP POP JUMP JUMPDEST PUSH1 0x0 PUSH1 0x20 DUP3 DUP5 SUB SLT ISZERO PUSH2 0x1098 JUMPI DUP1 DUP2 REVERT JUMPDEST DUP2 MLOAD PUSH2 0x1080 DUP2 PUSH2 0x1376 JUMP JUMPDEST PUSH1 0x0 DUP1 PUSH1 0x40 DUP4 DUP6 SUB SLT ISZERO PUSH2 0x10B5 JUMPI DUP1 DUP2 REVERT JUMPDEST DUP3 CALLDATALOAD PUSH2 0x10C0 DUP2 PUSH2 0x1376 JUMP JUMPDEST SWAP2 POP PUSH1 0x20 DUP4 ADD CALLDATALOAD PUSH2 0x10D0 DUP2 PUSH2 0x1376 JUMP JUMPDEST DUP1 SWAP2 POP POP SWAP3 POP SWAP3 SWAP1 POP JUMP JUMPDEST PUSH1 0x0 DUP1 PUSH1 0x0 PUSH1 0x60 DUP5 DUP7 SUB SLT ISZERO PUSH2 0x10EF JUMPI DUP1 DUP2 REVERT JUMPDEST DUP4 CALLDATALOAD PUSH2 0x10FA DUP2 PUSH2 0x1376 JUMP JUMPDEST SWAP3 POP PUSH1 0x20 DUP5 ADD CALLDATALOAD PUSH2 0x110A DUP2 PUSH2 0x1376 JUMP JUMPDEST SWAP3 SWAP6 SWAP3 SWAP5 POP POP POP PUSH1 0x40 SWAP2 SWAP1 SWAP2 ADD CALLDATALOAD SWAP1 JUMP JUMPDEST PUSH1 0x0 DUP1 PUSH1 0x40 DUP4 DUP6 SUB SLT ISZERO PUSH2 0x112D JUMPI DUP2 DUP3 REVERT JUMPDEST DUP3 CALLDATALOAD PUSH2 0x1138 DUP2 PUSH2 0x1376 JUMP JUMPDEST SWAP5 PUSH1 0x20 SWAP4 SWAP1 SWAP4 ADD CALLDATALOAD SWAP4 POP POP POP JUMP JUMPDEST PUSH1 0x0 DUP1 PUSH1 0x40 DUP4 DUP6 SUB SLT ISZERO PUSH2 0x1158 JUMPI DUP2 DUP3 REVERT JUMPDEST DUP3 CALLDATALOAD PUSH8 0xFFFFFFFFFFFFFFFF DUP1 DUP3 GT ISZERO PUSH2 0x116F JUMPI DUP4 DUP5 REVERT JUMPDEST PUSH2 0x117B DUP7 DUP4 DUP8 ADD PUSH2 0xFDD JUMP JUMPDEST SWAP4 POP PUSH1 0x20 DUP6 ADD CALLDATALOAD SWAP2 POP DUP1 DUP3 GT ISZERO PUSH2 0x1190 JUMPI DUP3 DUP4 REVERT JUMPDEST POP PUSH2 0x119D DUP6 DUP3 DUP7 ADD PUSH2 0xFDD JUMP JUMPDEST SWAP2 POP POP SWAP3 POP SWAP3 SWAP1 POP JUMP JUMPDEST PUSH1 0x0 PUSH1 0x20 DUP3 DUP5 SUB SLT ISZERO PUSH2 0x11B8 JUMPI DUP1 DUP2 REVERT JUMPDEST POP CALLDATALOAD SWAP2 SWAP1 POP JUMP JUMPDEST PUSH1 0x0 PUSH1 0x20 DUP1 DUP4 MSTORE DUP4 MLOAD DUP1 DUP3 DUP6 ADD MSTORE DUP3 JUMPDEST DUP2 DUP2 LT ISZERO PUSH2 0x11EB JUMPI DUP6 DUP2 ADD DUP4 ADD MLOAD DUP6 DUP3 ADD PUSH1 0x40 ADD MSTORE DUP3 ADD PUSH2 0x11CF JUMP JUMPDEST DUP2 DUP2 GT ISZERO PUSH2 0x11FC JUMPI DUP4 PUSH1 0x40 DUP4 DUP8 ADD ADD MSTORE JUMPDEST POP PUSH1 0x1F ADD PUSH1 0x1F NOT AND SWAP3 SWAP1 SWAP3 ADD PUSH1 0x40 ADD SWAP4 SWAP3 POP POP POP JUMP JUMPDEST PUSH1 0x20 DUP1 DUP3 MSTORE PUSH1 0x2E SWAP1 DUP3 ADD MSTORE PUSH32 0x496E697469616C697A61626C653A20636F6E747261637420697320616C726561 PUSH1 0x40 DUP3 ADD MSTORE PUSH14 0x191E481A5B9A5D1A585B1A5E9959 PUSH1 0x92 SHL PUSH1 0x60 DUP3 ADD MSTORE PUSH1 0x80 ADD SWAP1 JUMP JUMPDEST PUSH1 0x20 DUP1 DUP3 MSTORE DUP2 DUP2 ADD MSTORE PUSH32 0x4F776E61626C653A2063616C6C6572206973206E6F7420746865206F776E6572 PUSH1 0x40 DUP3 ADD MSTORE PUSH1 0x60 ADD SWAP1 JUMP JUMPDEST PUSH1 0x20 DUP1 DUP3 MSTORE PUSH1 0x2B SWAP1 DUP3 ADD MSTORE PUSH32 0x496E697469616C697A61626C653A20636F6E7472616374206973206E6F742069 PUSH1 0x40 DUP3 ADD MSTORE PUSH11 0x6E697469616C697A696E67 PUSH1 0xA8 SHL PUSH1 0x60 DUP3 ADD MSTORE PUSH1 0x80 ADD SWAP1 JUMP JUMPDEST PUSH1 0x0 DUP3 NOT DUP3 GT ISZERO PUSH2 0x12F3 JUMPI PUSH2 0x12F3 PUSH2 0x134A JUMP JUMPDEST POP ADD SWAP1 JUMP JUMPDEST PUSH1 0x0 DUP3 DUP3 LT ISZERO PUSH2 0x130A JUMPI PUSH2 0x130A PUSH2 0x134A JUMP JUMPDEST POP SUB SWAP1 JUMP JUMPDEST PUSH1 0x1 DUP2 DUP2 SHR SWAP1 DUP3 AND DUP1 PUSH2 0x1323 JUMPI PUSH1 0x7F DUP3 AND SWAP2 POP JUMPDEST PUSH1 0x20 DUP3 LT DUP2 EQ ISZERO PUSH2 0x1344 JUMPI PUSH4 0x4E487B71 PUSH1 0xE0 SHL PUSH1 0x0 MSTORE PUSH1 0x22 PUSH1 0x4 MSTORE PUSH1 0x24 PUSH1 0x0 REVERT JUMPDEST POP SWAP2 SWAP1 POP JUMP JUMPDEST PUSH4 0x4E487B71 PUSH1 0xE0 SHL PUSH1 0x0 MSTORE PUSH1 0x11 PUSH1 0x4 MSTORE PUSH1 0x24 PUSH1 0x0 REVERT JUMPDEST PUSH4 0x4E487B71 PUSH1 0xE0 SHL PUSH1 0x0 MSTORE PUSH1 0x41 PUSH1 0x4 MSTORE PUSH1 0x24 PUSH1 0x0 REVERT JUMPDEST PUSH1 0x1 PUSH1 0x1 PUSH1 0xA0 SHL SUB DUP2 AND DUP2 EQ PUSH2 0x8DC JUMPI PUSH1 0x0 DUP1 REVERT INVALID LOG2 PUSH5 0x6970667358 0x22 SLT KECCAK256 PC PUSH3 0xB08996 0xD2 MULMOD 0xC1 0xFC PUSH11 0xEE03BCC43640577BACE9A 0xE5 0xE1 0x5C 0x2B 0x1E 0xB9 PUSH1 0x30 0xB1 LOG3 PUSH21 0x64736F6C6343000804003300000000000000000000 "
				},
				"gasEstimates": {
					"creation": {
						"codeDepositCost": "1011400",
						"executionCost": "1054",
						"totalCost": "1012454"
					},
					"external": {
						"allowance(address,address)": "infinite",
						"approve(address,uint256)": "22541",
						"balanceOf(address)": "1254",
						"claimDairy(uint256)": "infinite",
						"decimals()": "289",
						"decreaseAllowance(address,uint256)": "23566",
						"getLastClaimed(uint256)": "1226",
						"increaseAllowance(address,uint256)": "23595",
						"initialize(string,string)": "infinite",
						"mint(address,uint256)": "infinite",
						"name()": "infinite",
						"owner()": "1090",
						"paused()": "1137",
						"renounceOwnership()": "23462",
						"setCooldown(uint256)": "21153",
						"setMoolaNFTAddress(address)": "22071",
						"setWhitelist(address)": "22111",
						"symbol()": "infinite",
						"totalSupply()": "1049",
						"transfer(address,uint256)": "44414",
						"transferFrom(address,address,uint256)": "infinite",
						"transferOwnership(address)": "infinite"
					}
				},
				"methodIdentifiers": {
					"allowance(address,address)": "dd62ed3e",
					"approve(address,uint256)": "095ea7b3",
					"balanceOf(address)": "70a08231",
					"claimDairy(uint256)": "59176c8d",
					"decimals()": "313ce567",
					"decreaseAllowance(address,uint256)": "a457c2d7",
					"getLastClaimed(uint256)": "d1a20509",
					"increaseAllowance(address,uint256)": "39509351",
					"initialize(string,string)": "4cd88b76",
					"mint(address,uint256)": "40c10f19",
					"name()": "06fdde03",
					"owner()": "8da5cb5b",
					"paused()": "5c975abb",
					"renounceOwnership()": "715018a6",
					"setCooldown(uint256)": "4fc3f41a",
					"setMoolaNFTAddress(address)": "be023d84",
					"setWhitelist(address)": "854cff2f",
					"symbol()": "95d89b41",
					"totalSupply()": "18160ddd",
					"transfer(address,uint256)": "a9059cbb",
					"transferFrom(address,address,uint256)": "23b872dd",
					"transferOwnership(address)": "f2fde38b"
				}
			},
			"storageLayout": {
				"storage": [
					{
						"astId": 130,
						"contract": "contracts/tokens/Moola.sol:Moola",
						"label": "_initialized",
						"offset": 0,
						"slot": "0",
						"type": "t_uint8"
					},
					{
						"astId": 133,
						"contract": "contracts/tokens/Moola.sol:Moola",
						"label": "_initializing",
						"offset": 1,
						"slot": "0",
						"type": "t_bool"
					},
					{
						"astId": 1580,
						"contract": "contracts/tokens/Moola.sol:Moola",
						"label": "__gap",
						"offset": 0,
						"slot": "1",
						"type": "t_array(t_uint256)50_storage"
					},
					{
						"astId": 454,
						"contract": "contracts/tokens/Moola.sol:Moola",
						"label": "_balances",
						"offset": 0,
						"slot": "51",
						"type": "t_mapping(t_address,t_uint256)"
					},
					{
						"astId": 460,
						"contract": "contracts/tokens/Moola.sol:Moola",
						"label": "_allowances",
						"offset": 0,
						"slot": "52",
						"type": "t_mapping(t_address,t_mapping(t_address,t_uint256))"
					},
					{
						"astId": 462,
						"contract": "contracts/tokens/Moola.sol:Moola",
						"label": "_totalSupply",
						"offset": 0,
						"slot": "53",
						"type": "t_uint256"
					},
					{
						"astId": 464,
						"contract": "contracts/tokens/Moola.sol:Moola",
						"label": "_name",
						"offset": 0,
						"slot": "54",
						"type": "t_string_storage"
					},
					{
						"astId": 466,
						"contract": "contracts/tokens/Moola.sol:Moola",
						"label": "_symbol",
						"offset": 0,
						"slot": "55",
						"type": "t_string_storage"
					},
					{
						"astId": 1045,
						"contract": "contracts/tokens/Moola.sol:Moola",
						"label": "__gap",
						"offset": 0,
						"slot": "56",
						"type": "t_array(t_uint256)45_storage"
					},
					{
						"astId": 10,
						"contract": "contracts/tokens/Moola.sol:Moola",
						"label": "_owner",
						"offset": 0,
						"slot": "101",
						"type": "t_address"
					},
					{
						"astId": 122,
						"contract": "contracts/tokens/Moola.sol:Moola",
						"label": "__gap",
						"offset": 0,
						"slot": "102",
						"type": "t_array(t_uint256)49_storage"
					},
					{
						"astId": 286,
						"contract": "contracts/tokens/Moola.sol:Moola",
						"label": "_paused",
						"offset": 0,
						"slot": "151",
						"type": "t_bool"
					},
					{
						"astId": 375,
						"contract": "contracts/tokens/Moola.sol:Moola",
						"label": "__gap",
						"offset": 0,
						"slot": "152",
						"type": "t_array(t_uint256)49_storage"
					},
					{
						"astId": 1651,
						"contract": "contracts/tokens/Moola.sol:Moola",
						"label": "dailyAllowance",
						"offset": 0,
						"slot": "201",
						"type": "t_uint256"
					},
					{
						"astId": 1653,
						"contract": "contracts/tokens/Moola.sol:Moola",
						"label": "cooldown",
						"offset": 0,
						"slot": "202",
						"type": "t_uint256"
					},
					{
						"astId": 1656,
						"contract": "contracts/tokens/Moola.sol:Moola",
						"label": "moolaNFT",
						"offset": 0,
						"slot": "203",
						"type": "t_contract(IERC721EnumerableUpgradeable)1296"
					},
					{
						"astId": 1660,
						"contract": "contracts/tokens/Moola.sol:Moola",
						"label": "whitelist",
						"offset": 0,
						"slot": "204",
						"type": "t_mapping(t_address,t_bool)"
					},
					{
						"astId": 1664,
						"contract": "contracts/tokens/Moola.sol:Moola",
						"label": "nftLastClaimed",
						"offset": 0,
						"slot": "205",
						"type": "t_mapping(t_uint256,t_uint256)"
					}
				],
				"types": {
					"t_address": {
						"encoding": "inplace",
						"label": "address",
						"numberOfBytes": "20"
					},
					"t_array(t_uint256)45_storage": {
						"base": "t_uint256",
						"encoding": "inplace",
						"label": "uint256[45]",
						"numberOfBytes": "1440"
					},
					"t_array(t_uint256)49_storage": {
						"base": "t_uint256",
						"encoding": "inplace",
						"label": "uint256[49]",
						"numberOfBytes": "1568"
					},
					"t_array(t_uint256)50_storage": {
						"base": "t_uint256",
						"encoding": "inplace",
						"label": "uint256[50]",
						"numberOfBytes": "1600"
					},
					"t_bool": {
						"encoding": "inplace",
						"label": "bool",
						"numberOfBytes": "1"
					},
					"t_contract(IERC721EnumerableUpgradeable)1296": {
						"encoding": "inplace",
						"label": "contract IERC721EnumerableUpgradeable",
						"numberOfBytes": "20"
					},
					"t_mapping(t_address,t_bool)": {
						"encoding": "mapping",
						"key": "t_address",
						"label": "mapping(address => bool)",
						"numberOfBytes": "32",
						"value": "t_bool"
					},
					"t_mapping(t_address,t_mapping(t_address,t_uint256))": {
						"encoding": "mapping",
						"key": "t_address",
						"label": "mapping(address => mapping(address => uint256))",
						"numberOfBytes": "32",
						"value": "t_mapping(t_address,t_uint256)"
					},
					"t_mapping(t_address,t_uint256)": {
						"encoding": "mapping",
						"key": "t_address",
						"label": "mapping(address => uint256)",
						"numberOfBytes": "32",
						"value": "t_uint256"
					},
					"t_mapping(t_uint256,t_uint256)": {
						"encoding": "mapping",
						"key": "t_uint256",
						"label": "mapping(uint256 => uint256)",
						"numberOfBytes": "32",
						"value": "t_uint256"
					},
					"t_string_storage": {
						"encoding": "bytes",
						"label": "string",
						"numberOfBytes": "32"
					},
					"t_uint256": {
						"encoding": "inplace",
						"label": "uint256",
						"numberOfBytes": "32"
					},
					"t_uint8": {
						"encoding": "inplace",
						"label": "uint8",
						"numberOfBytes": "1"
					}
				}
			},
			"userdoc": {
				"kind": "user",
				"methods": {
					"decimals()": {
						"notice": ":"
					},
					"mint(address,uint256)": {
						"notice": ":"
					}
				},
				"version": 1
			}
		}
	}
}