{
	"contracts/tokens/Moola.sol": {
		"Moola": {
			"abi": [
				{
					"anonymous": false,
					"inputs": [
						{
							"indexed": true,
							"internalType": "address",
							"name": "owner",
							"type": "address"
						},
						{
							"indexed": true,
							"internalType": "address",
							"name": "spender",
							"type": "address"
						},
						{
							"indexed": false,
							"internalType": "uint256",
							"name": "value",
							"type": "uint256"
						}
					],
					"name": "Approval",
					"type": "event"
				},
				{
					"anonymous": false,
					"inputs": [
						{
							"indexed": false,
							"internalType": "uint8",
							"name": "version",
							"type": "uint8"
						}
					],
					"name": "Initialized",
					"type": "event"
				},
				{
					"anonymous": false,
					"inputs": [
						{
							"indexed": true,
							"internalType": "address",
							"name": "previousOwner",
							"type": "address"
						},
						{
							"indexed": true,
							"internalType": "address",
							"name": "newOwner",
							"type": "address"
						}
					],
					"name": "OwnershipTransferred",
					"type": "event"
				},
				{
					"anonymous": false,
					"inputs": [
						{
							"indexed": false,
							"internalType": "address",
							"name": "account",
							"type": "address"
						}
					],
					"name": "Paused",
					"type": "event"
				},
				{
					"anonymous": false,
					"inputs": [
						{
							"indexed": true,
							"internalType": "address",
							"name": "from",
							"type": "address"
						},
						{
							"indexed": true,
							"internalType": "address",
							"name": "to",
							"type": "address"
						},
						{
							"indexed": false,
							"internalType": "uint256",
							"name": "value",
							"type": "uint256"
						}
					],
					"name": "Transfer",
					"type": "event"
				},
				{
					"anonymous": false,
					"inputs": [
						{
							"indexed": false,
							"internalType": "address",
							"name": "account",
							"type": "address"
						}
					],
					"name": "Unpaused",
					"type": "event"
				},
				{
					"anonymous": false,
					"inputs": [
						{
							"indexed": false,
							"internalType": "address",
							"name": "receiver",
							"type": "address"
						},
						{
							"indexed": false,
							"internalType": "uint256",
							"name": "amount",
							"type": "uint256"
						},
						{
							"indexed": false,
							"internalType": "uint256",
							"name": "time",
							"type": "uint256"
						}
					],
					"name": "dailyDairyClaimed",
					"type": "event"
				},
				{
					"inputs": [
						{
							"internalType": "address",
							"name": "owner",
							"type": "address"
						},
						{
							"internalType": "address",
							"name": "spender",
							"type": "address"
						}
					],
					"name": "allowance",
					"outputs": [
						{
							"internalType": "uint256",
							"name": "",
							"type": "uint256"
						}
					],
					"stateMutability": "view",
					"type": "function"
				},
				{
					"inputs": [
						{
							"internalType": "address",
							"name": "spender",
							"type": "address"
						},
						{
							"internalType": "uint256",
							"name": "amount",
							"type": "uint256"
						}
					],
					"name": "approve",
					"outputs": [
						{
							"internalType": "bool",
							"name": "",
							"type": "bool"
						}
					],
					"stateMutability": "nonpayable",
					"type": "function"
				},
				{
					"inputs": [
						{
							"internalType": "address",
							"name": "account",
							"type": "address"
						}
					],
					"name": "balanceOf",
					"outputs": [
						{
							"internalType": "uint256",
							"name": "",
							"type": "uint256"
						}
					],
					"stateMutability": "view",
					"type": "function"
				},
				{
					"inputs": [
						{
							"internalType": "uint256",
							"name": "_tokenId",
							"type": "uint256"
						}
					],
					"name": "claimDairy",
					"outputs": [],
					"stateMutability": "nonpayable",
					"type": "function"
				},
				{
					"inputs": [],
					"name": "decimals",
					"outputs": [
						{
							"internalType": "uint8",
							"name": "",
							"type": "uint8"
						}
					],
					"stateMutability": "view",
					"type": "function"
				},
				{
					"inputs": [
						{
							"internalType": "address",
							"name": "spender",
							"type": "address"
						},
						{
							"internalType": "uint256",
							"name": "subtractedValue",
							"type": "uint256"
						}
					],
					"name": "decreaseAllowance",
					"outputs": [
						{
							"internalType": "bool",
							"name": "",
							"type": "bool"
						}
					],
					"stateMutability": "nonpayable",
					"type": "function"
				},
				{
					"inputs": [
						{
							"internalType": "uint256",
							"name": "_tokenId",
							"type": "uint256"
						}
					],
					"name": "getLastClaimed",
					"outputs": [
						{
							"internalType": "uint256",
							"name": "",
							"type": "uint256"
						}
					],
					"stateMutability": "view",
					"type": "function"
				},
				{
					"inputs": [
						{
							"internalType": "address",
							"name": "spender",
							"type": "address"
						},
						{
							"internalType": "uint256",
							"name": "addedValue",
							"type": "uint256"
						}
					],
					"name": "increaseAllowance",
					"outputs": [
						{
							"internalType": "bool",
							"name": "",
							"type": "bool"
						}
					],
					"stateMutability": "nonpayable",
					"type": "function"
				},
				{
					"inputs": [
						{
							"internalType": "string",
							"name": "name_",
							"type": "string"
						},
						{
							"internalType": "string",
							"name": "symbol_",
							"type": "string"
						},
						{
							"internalType": "address",
							"name": "_moolaNFT",
							"type": "address"
						}
					],
					"name": "initialize",
					"outputs": [],
					"stateMutability": "nonpayable",
					"type": "function"
				},
				{
					"inputs": [
						{
							"internalType": "address",
							"name": "to",
							"type": "address"
						},
						{
							"internalType": "uint256",
							"name": "amount",
							"type": "uint256"
						}
					],
					"name": "mint",
					"outputs": [],
					"stateMutability": "nonpayable",
					"type": "function"
				},
				{
					"inputs": [],
					"name": "name",
					"outputs": [
						{
							"internalType": "string",
							"name": "",
							"type": "string"
						}
					],
					"stateMutability": "view",
					"type": "function"
				},
				{
					"inputs": [],
					"name": "owner",
					"outputs": [
						{
							"internalType": "address",
							"name": "",
							"type": "address"
						}
					],
					"stateMutability": "view",
					"type": "function"
				},
				{
					"inputs": [],
					"name": "paused",
					"outputs": [
						{
							"internalType": "bool",
							"name": "",
							"type": "bool"
						}
					],
					"stateMutability": "view",
					"type": "function"
				},
				{
					"inputs": [],
					"name": "renounceOwnership",
					"outputs": [],
					"stateMutability": "nonpayable",
					"type": "function"
				},
				{
					"inputs": [
						{
							"internalType": "address",
							"name": "_whitelist",
							"type": "address"
						}
					],
					"name": "setWhitelist",
					"outputs": [],
					"stateMutability": "nonpayable",
					"type": "function"
				},
				{
					"inputs": [],
					"name": "symbol",
					"outputs": [
						{
							"internalType": "string",
							"name": "",
							"type": "string"
						}
					],
					"stateMutability": "view",
					"type": "function"
				},
				{
					"inputs": [],
					"name": "totalSupply",
					"outputs": [
						{
							"internalType": "uint256",
							"name": "",
							"type": "uint256"
						}
					],
					"stateMutability": "view",
					"type": "function"
				},
				{
					"inputs": [
						{
							"internalType": "address",
							"name": "to",
							"type": "address"
						},
						{
							"internalType": "uint256",
							"name": "amount",
							"type": "uint256"
						}
					],
					"name": "transfer",
					"outputs": [
						{
							"internalType": "bool",
							"name": "",
							"type": "bool"
						}
					],
					"stateMutability": "nonpayable",
					"type": "function"
				},
				{
					"inputs": [
						{
							"internalType": "address",
							"name": "from",
							"type": "address"
						},
						{
							"internalType": "address",
							"name": "to",
							"type": "address"
						},
						{
							"internalType": "uint256",
							"name": "amount",
							"type": "uint256"
						}
					],
					"name": "transferFrom",
					"outputs": [
						{
							"internalType": "bool",
							"name": "",
							"type": "bool"
						}
					],
					"stateMutability": "nonpayable",
					"type": "function"
				},
				{
					"inputs": [
						{
							"internalType": "address",
							"name": "newOwner",
							"type": "address"
						}
					],
					"name": "transferOwnership",
					"outputs": [],
					"stateMutability": "nonpayable",
					"type": "function"
				}
			],
			"devdoc": {
				"kind": "dev",
				"methods": {
					"allowance(address,address)": {
						"details": "See {IERC20-allowance}."
					},
					"approve(address,uint256)": {
						"details": "See {IERC20-approve}. NOTE: If `amount` is the maximum `uint256`, the allowance is not updated on `transferFrom`. This is semantically equivalent to an infinite approval. Requirements: - `spender` cannot be the zero address."
					},
					"balanceOf(address)": {
						"details": "See {IERC20-balanceOf}."
					},
					"decreaseAllowance(address,uint256)": {
						"details": "Atomically decreases the allowance granted to `spender` by the caller. This is an alternative to {approve} that can be used as a mitigation for problems described in {IERC20-approve}. Emits an {Approval} event indicating the updated allowance. Requirements: - `spender` cannot be the zero address. - `spender` must have allowance for the caller of at least `subtractedValue`."
					},
					"increaseAllowance(address,uint256)": {
						"details": "Atomically increases the allowance granted to `spender` by the caller. This is an alternative to {approve} that can be used as a mitigation for problems described in {IERC20-approve}. Emits an {Approval} event indicating the updated allowance. Requirements: - `spender` cannot be the zero address."
					},
					"mint(address,uint256)": {
						"params": {
							"amount": "??",
							"to": "??"
						}
					},
					"name()": {
						"details": "Returns the name of the token."
					},
					"owner()": {
						"details": "Returns the address of the current owner."
					},
					"paused()": {
						"details": "Returns true if the contract is paused, and false otherwise."
					},
					"renounceOwnership()": {
						"details": "Leaves the contract without owner. It will not be possible to call `onlyOwner` functions anymore. Can only be called by the current owner. NOTE: Renouncing ownership will leave the contract without an owner, thereby removing any functionality that is only available to the owner."
					},
					"symbol()": {
						"details": "Returns the symbol of the token, usually a shorter version of the name."
					},
					"totalSupply()": {
						"details": "See {IERC20-totalSupply}."
					},
					"transfer(address,uint256)": {
						"details": "See {IERC20-transfer}. Requirements: - `to` cannot be the zero address. - the caller must have a balance of at least `amount`."
					},
					"transferFrom(address,address,uint256)": {
						"details": "See {IERC20-transferFrom}. Emits an {Approval} event indicating the updated allowance. This is not required by the EIP. See the note at the beginning of {ERC20}. NOTE: Does not update the allowance if the current allowance is the maximum `uint256`. Requirements: - `from` and `to` cannot be the zero address. - `from` must have a balance of at least `amount`. - the caller must have allowance for ``from``'s tokens of at least `amount`."
					},
					"transferOwnership(address)": {
						"details": "Transfers ownership of the contract to a new account (`newOwner`). Can only be called by the current owner."
					}
				},
				"version": 1
			},
			"evm": {
				"assembly": "    /* \"contracts/tokens/Moola.sol\":562:2345  contract Moola is ERC20Upgradeable, OwnableUpgradeable, PausableUpgradeable {\r... */\n  mstore(0x40, 0x80)\n  callvalue\n  dup1\n  iszero\n  tag_1\n  jumpi\n  0x00\n  dup1\n  revert\ntag_1:\n  pop\n  dataSize(sub_0)\n  dup1\n  dataOffset(sub_0)\n  0x00\n  codecopy\n  0x00\n  return\nstop\n\nsub_0: assembly {\n        /* \"contracts/tokens/Moola.sol\":562:2345  contract Moola is ERC20Upgradeable, OwnableUpgradeable, PausableUpgradeable {\r... */\n      mstore(0x40, 0x80)\n      callvalue\n      dup1\n      iszero\n      tag_1\n      jumpi\n      0x00\n      dup1\n      revert\n    tag_1:\n      pop\n      jumpi(tag_2, lt(calldatasize, 0x04))\n      shr(0xe0, calldataload(0x00))\n      dup1\n      0x70a08231\n      gt\n      tag_23\n      jumpi\n      dup1\n      0xa457c2d7\n      gt\n      tag_24\n      jumpi\n      dup1\n      0xa457c2d7\n      eq\n      tag_18\n      jumpi\n      dup1\n      0xa9059cbb\n      eq\n      tag_19\n      jumpi\n      dup1\n      0xd1a20509\n      eq\n      tag_20\n      jumpi\n      dup1\n      0xdd62ed3e\n      eq\n      tag_21\n      jumpi\n      dup1\n      0xf2fde38b\n      eq\n      tag_22\n      jumpi\n      jump(tag_2)\n    tag_24:\n      dup1\n      0x70a08231\n      eq\n      tag_13\n      jumpi\n      dup1\n      0x715018a6\n      eq\n      tag_14\n      jumpi\n      dup1\n      0x854cff2f\n      eq\n      tag_15\n      jumpi\n      dup1\n      0x8da5cb5b\n      eq\n      tag_16\n      jumpi\n      dup1\n      0x95d89b41\n      eq\n      tag_17\n      jumpi\n      jump(tag_2)\n    tag_23:\n      dup1\n      0x313ce567\n      gt\n      tag_25\n      jumpi\n      dup1\n      0x313ce567\n      eq\n      tag_8\n      jumpi\n      dup1\n      0x39509351\n      eq\n      tag_9\n      jumpi\n      dup1\n      0x40c10f19\n      eq\n      tag_10\n      jumpi\n      dup1\n      0x59176c8d\n      eq\n      tag_11\n      jumpi\n      dup1\n      0x5c975abb\n      eq\n      tag_12\n      jumpi\n      jump(tag_2)\n    tag_25:\n      dup1\n      0x06fdde03\n      eq\n      tag_3\n      jumpi\n      dup1\n      0x077f224a\n      eq\n      tag_4\n      jumpi\n      dup1\n      0x095ea7b3\n      eq\n      tag_5\n      jumpi\n      dup1\n      0x18160ddd\n      eq\n      tag_6\n      jumpi\n      dup1\n      0x23b872dd\n      eq\n      tag_7\n      jumpi\n    tag_2:\n      0x00\n      dup1\n      revert\n        /* \"@openzeppelin/contracts-upgradeable/token/ERC20/ERC20Upgradeable.sol\":2493:2591  function name() public view virtual override returns (string memory) {... */\n    tag_3:\n      tag_26\n      tag_27\n      jump\t// in\n    tag_26:\n      mload(0x40)\n      tag_28\n      swap2\n      swap1\n      tag_29\n      jump\t// in\n    tag_28:\n      mload(0x40)\n      dup1\n      swap2\n      sub\n      swap1\n      return\n        /* \"contracts/tokens/Moola.sol\":1018:1331  function initialize(\r... */\n    tag_4:\n      tag_30\n      0x04\n      dup1\n      calldatasize\n      sub\n      dup2\n      add\n      swap1\n      tag_31\n      swap2\n      swap1\n      tag_32\n      jump\t// in\n    tag_31:\n      tag_33\n      jump\t// in\n    tag_30:\n      stop\n        /* \"@openzeppelin/contracts-upgradeable/token/ERC20/ERC20Upgradeable.sol\":4770:4967  function approve(address spender, uint256 amount) public virtual override returns (bool) {... */\n    tag_5:\n      tag_34\n      0x04\n      dup1\n      calldatasize\n      sub\n      dup2\n      add\n      swap1\n      tag_35\n      swap2\n      swap1\n      tag_36\n      jump\t// in\n    tag_35:\n      tag_37\n      jump\t// in\n    tag_34:\n      mload(0x40)\n      tag_38\n      swap2\n      swap1\n      tag_39\n      jump\t// in\n    tag_38:\n      mload(0x40)\n      dup1\n      swap2\n      sub\n      swap1\n      return\n        /* \"@openzeppelin/contracts-upgradeable/token/ERC20/ERC20Upgradeable.sol\":3581:3687  function totalSupply() public view virtual override returns (uint256) {... */\n    tag_6:\n      tag_40\n      tag_41\n      jump\t// in\n    tag_40:\n      mload(0x40)\n      tag_42\n      swap2\n      swap1\n      tag_43\n      jump\t// in\n    tag_42:\n      mload(0x40)\n      dup1\n      swap2\n      sub\n      swap1\n      return\n        /* \"@openzeppelin/contracts-upgradeable/token/ERC20/ERC20Upgradeable.sol\":5529:5815  function transferFrom(... */\n    tag_7:\n      tag_44\n      0x04\n      dup1\n      calldatasize\n      sub\n      dup2\n      add\n      swap1\n      tag_45\n      swap2\n      swap1\n      tag_46\n      jump\t// in\n    tag_45:\n      tag_47\n      jump\t// in\n    tag_44:\n      mload(0x40)\n      tag_48\n      swap2\n      swap1\n      tag_39\n      jump\t// in\n    tag_48:\n      mload(0x40)\n      dup1\n      swap2\n      sub\n      swap1\n      return\n        /* \"contracts/tokens/Moola.sol\":1504:1591  function decimals() public view virtual override returns (uint8) {\r... */\n    tag_8:\n      tag_49\n      tag_50\n      jump\t// in\n    tag_49:\n      mload(0x40)\n      tag_51\n      swap2\n      swap1\n      tag_52\n      jump\t// in\n    tag_51:\n      mload(0x40)\n      dup1\n      swap2\n      sub\n      swap1\n      return\n        /* \"@openzeppelin/contracts-upgradeable/token/ERC20/ERC20Upgradeable.sol\":6210:6444  function increaseAllowance(address spender, uint256 addedValue) public virtual returns (bool) {... */\n    tag_9:\n      tag_53\n      0x04\n      dup1\n      calldatasize\n      sub\n      dup2\n      add\n      swap1\n      tag_54\n      swap2\n      swap1\n      tag_36\n      jump\t// in\n    tag_54:\n      tag_55\n      jump\t// in\n    tag_53:\n      mload(0x40)\n      tag_56\n      swap2\n      swap1\n      tag_39\n      jump\t// in\n    tag_56:\n      mload(0x40)\n      dup1\n      swap2\n      sub\n      swap1\n      return\n        /* \"contracts/tokens/Moola.sol\":1721:1816  function mint(address to, uint256 amount) external onlyWhitelist {\r... */\n    tag_10:\n      tag_57\n      0x04\n      dup1\n      calldatasize\n      sub\n      dup2\n      add\n      swap1\n      tag_58\n      swap2\n      swap1\n      tag_36\n      jump\t// in\n    tag_58:\n      tag_59\n      jump\t// in\n    tag_57:\n      stop\n        /* \"contracts/tokens/Moola.sol\":1822:2218  function claimDairy(uint256 _tokenId) external {\r... */\n    tag_11:\n      tag_60\n      0x04\n      dup1\n      calldatasize\n      sub\n      dup2\n      add\n      swap1\n      tag_61\n      swap2\n      swap1\n      tag_62\n      jump\t// in\n    tag_61:\n      tag_63\n      jump\t// in\n    tag_60:\n      stop\n        /* \"@openzeppelin/contracts-upgradeable/security/PausableUpgradeable.sol\":1341:1425  function paused() public view virtual returns (bool) {... */\n    tag_12:\n      tag_64\n      tag_65\n      jump\t// in\n    tag_64:\n      mload(0x40)\n      tag_66\n      swap2\n      swap1\n      tag_39\n      jump\t// in\n    tag_66:\n      mload(0x40)\n      dup1\n      swap2\n      sub\n      swap1\n      return\n        /* \"@openzeppelin/contracts-upgradeable/token/ERC20/ERC20Upgradeable.sol\":3745:3870  function balanceOf(address account) public view virtual override returns (uint256) {... */\n    tag_13:\n      tag_67\n      0x04\n      dup1\n      calldatasize\n      sub\n      dup2\n      add\n      swap1\n      tag_68\n      swap2\n      swap1\n      tag_69\n      jump\t// in\n    tag_68:\n      tag_70\n      jump\t// in\n    tag_67:\n      mload(0x40)\n      tag_71\n      swap2\n      swap1\n      tag_43\n      jump\t// in\n    tag_71:\n      mload(0x40)\n      dup1\n      swap2\n      sub\n      swap1\n      return\n        /* \"@openzeppelin/contracts-upgradeable/access/OwnableUpgradeable.sol\":1908:2009  function renounceOwnership() public virtual onlyOwner {... */\n    tag_14:\n      tag_72\n      tag_73\n      jump\t// in\n    tag_72:\n      stop\n        /* \"contracts/tokens/Moola.sol\":1337:1439  function setWhitelist(address _whitelist) external onlyOwner {\r... */\n    tag_15:\n      tag_74\n      0x04\n      dup1\n      calldatasize\n      sub\n      dup2\n      add\n      swap1\n      tag_75\n      swap2\n      swap1\n      tag_69\n      jump\t// in\n    tag_75:\n      tag_76\n      jump\t// in\n    tag_74:\n      stop\n        /* \"@openzeppelin/contracts-upgradeable/access/OwnableUpgradeable.sol\":1276:1361  function owner() public view virtual returns (address) {... */\n    tag_16:\n      tag_77\n      tag_78\n      jump\t// in\n    tag_77:\n      mload(0x40)\n      tag_79\n      swap2\n      swap1\n      tag_80\n      jump\t// in\n    tag_79:\n      mload(0x40)\n      dup1\n      swap2\n      sub\n      swap1\n      return\n        /* \"@openzeppelin/contracts-upgradeable/token/ERC20/ERC20Upgradeable.sol\":2704:2806  function symbol() public view virtual override returns (string memory) {... */\n    tag_17:\n      tag_81\n      tag_82\n      jump\t// in\n    tag_81:\n      mload(0x40)\n      tag_83\n      swap2\n      swap1\n      tag_29\n      jump\t// in\n    tag_83:\n      mload(0x40)\n      dup1\n      swap2\n      sub\n      swap1\n      return\n        /* \"@openzeppelin/contracts-upgradeable/token/ERC20/ERC20Upgradeable.sol\":6931:7358  function decreaseAllowance(address spender, uint256 subtractedValue) public virtual returns (bool) {... */\n    tag_18:\n      tag_84\n      0x04\n      dup1\n      calldatasize\n      sub\n      dup2\n      add\n      swap1\n      tag_85\n      swap2\n      swap1\n      tag_36\n      jump\t// in\n    tag_85:\n      tag_86\n      jump\t// in\n    tag_84:\n      mload(0x40)\n      tag_87\n      swap2\n      swap1\n      tag_39\n      jump\t// in\n    tag_87:\n      mload(0x40)\n      dup1\n      swap2\n      sub\n      swap1\n      return\n        /* \"@openzeppelin/contracts-upgradeable/token/ERC20/ERC20Upgradeable.sol\":4066:4255  function transfer(address to, uint256 amount) public virtual override returns (bool) {... */\n    tag_19:\n      tag_88\n      0x04\n      dup1\n      calldatasize\n      sub\n      dup2\n      add\n      swap1\n      tag_89\n      swap2\n      swap1\n      tag_36\n      jump\t// in\n    tag_89:\n      tag_90\n      jump\t// in\n    tag_88:\n      mload(0x40)\n      tag_91\n      swap2\n      swap1\n      tag_39\n      jump\t// in\n    tag_91:\n      mload(0x40)\n      dup1\n      swap2\n      sub\n      swap1\n      return\n        /* \"contracts/tokens/Moola.sol\":2224:2342  function getLastClaimed(uint256 _tokenId) external view returns (uint256) {\r... */\n    tag_20:\n      tag_92\n      0x04\n      dup1\n      calldatasize\n      sub\n      dup2\n      add\n      swap1\n      tag_93\n      swap2\n      swap1\n      tag_62\n      jump\t// in\n    tag_93:\n      tag_94\n      jump\t// in\n    tag_92:\n      mload(0x40)\n      tag_95\n      swap2\n      swap1\n      tag_43\n      jump\t// in\n    tag_95:\n      mload(0x40)\n      dup1\n      swap2\n      sub\n      swap1\n      return\n        /* \"@openzeppelin/contracts-upgradeable/token/ERC20/ERC20Upgradeable.sol\":4313:4462  function allowance(address owner, address spender) public view virtual override returns (uint256) {... */\n    tag_21:\n      tag_96\n      0x04\n      dup1\n      calldatasize\n      sub\n      dup2\n      add\n      swap1\n      tag_97\n      swap2\n      swap1\n      tag_98\n      jump\t// in\n    tag_97:\n      tag_99\n      jump\t// in\n    tag_96:\n      mload(0x40)\n      tag_100\n      swap2\n      swap1\n      tag_43\n      jump\t// in\n    tag_100:\n      mload(0x40)\n      dup1\n      swap2\n      sub\n      swap1\n      return\n        /* \"@openzeppelin/contracts-upgradeable/access/OwnableUpgradeable.sol\":2158:2356  function transferOwnership(address newOwner) public virtual onlyOwner {... */\n    tag_22:\n      tag_101\n      0x04\n      dup1\n      calldatasize\n      sub\n      dup2\n      add\n      swap1\n      tag_102\n      swap2\n      swap1\n      tag_69\n      jump\t// in\n    tag_102:\n      tag_103\n      jump\t// in\n    tag_101:\n      stop\n        /* \"@openzeppelin/contracts-upgradeable/token/ERC20/ERC20Upgradeable.sol\":2493:2591  function name() public view virtual override returns (string memory) {... */\n    tag_27:\n        /* \"@openzeppelin/contracts-upgradeable/token/ERC20/ERC20Upgradeable.sol\":2547:2560  string memory */\n      0x60\n        /* \"@openzeppelin/contracts-upgradeable/token/ERC20/ERC20Upgradeable.sol\":2579:2584  _name */\n      0x36\n        /* \"@openzeppelin/contracts-upgradeable/token/ERC20/ERC20Upgradeable.sol\":2572:2584  return _name */\n      dup1\n      sload\n      tag_105\n      swap1\n      tag_106\n      jump\t// in\n    tag_105:\n      dup1\n      0x1f\n      add\n      0x20\n      dup1\n      swap2\n      div\n      mul\n      0x20\n      add\n      mload(0x40)\n      swap1\n      dup2\n      add\n      0x40\n      mstore\n      dup1\n      swap3\n      swap2\n      swap1\n      dup2\n      dup2\n      mstore\n      0x20\n      add\n      dup3\n      dup1\n      sload\n      tag_107\n      swap1\n      tag_106\n      jump\t// in\n    tag_107:\n      dup1\n      iszero\n      tag_108\n      jumpi\n      dup1\n      0x1f\n      lt\n      tag_109\n      jumpi\n      0x0100\n      dup1\n      dup4\n      sload\n      div\n      mul\n      dup4\n      mstore\n      swap2\n      0x20\n      add\n      swap2\n      jump(tag_108)\n    tag_109:\n      dup3\n      add\n      swap2\n      swap1\n      0x00\n      mstore\n      keccak256(0x00, 0x20)\n      swap1\n    tag_110:\n      dup2\n      sload\n      dup2\n      mstore\n      swap1\n      0x01\n      add\n      swap1\n      0x20\n      add\n      dup1\n      dup4\n      gt\n      tag_110\n      jumpi\n      dup3\n      swap1\n      sub\n      0x1f\n      and\n      dup3\n      add\n      swap2\n    tag_108:\n      pop\n      pop\n      pop\n      pop\n      pop\n      swap1\n      pop\n        /* \"@openzeppelin/contracts-upgradeable/token/ERC20/ERC20Upgradeable.sol\":2493:2591  function name() public view virtual override returns (string memory) {... */\n      swap1\n      jump\t// out\n        /* \"contracts/tokens/Moola.sol\":1018:1331  function initialize(\r... */\n    tag_33:\n        /* \"@openzeppelin/contracts-upgradeable/proxy/utils/Initializable.sol\":3111:3130  bool isTopLevelCall */\n      0x00\n        /* \"@openzeppelin/contracts-upgradeable/proxy/utils/Initializable.sol\":3133:3158  _setInitializedVersion(1) */\n      tag_112\n        /* \"@openzeppelin/contracts-upgradeable/proxy/utils/Initializable.sol\":3156:3157  1 */\n      0x01\n        /* \"@openzeppelin/contracts-upgradeable/proxy/utils/Initializable.sol\":3133:3155  _setInitializedVersion */\n      tag_113\n        /* \"@openzeppelin/contracts-upgradeable/proxy/utils/Initializable.sol\":3133:3158  _setInitializedVersion(1) */\n      jump\t// in\n    tag_112:\n        /* \"@openzeppelin/contracts-upgradeable/proxy/utils/Initializable.sol\":3111:3158  bool isTopLevelCall = _setInitializedVersion(1) */\n      swap1\n      pop\n        /* \"@openzeppelin/contracts-upgradeable/proxy/utils/Initializable.sol\":3172:3186  isTopLevelCall */\n      dup1\n        /* \"@openzeppelin/contracts-upgradeable/proxy/utils/Initializable.sol\":3168:3233  if (isTopLevelCall) {... */\n      iszero\n      tag_114\n      jumpi\n        /* \"@openzeppelin/contracts-upgradeable/proxy/utils/Initializable.sol\":3218:3222  true */\n      0x01\n        /* \"@openzeppelin/contracts-upgradeable/proxy/utils/Initializable.sol\":3202:3215  _initializing */\n      0x00\n      0x01\n        /* \"@openzeppelin/contracts-upgradeable/proxy/utils/Initializable.sol\":3202:3222  _initializing = true */\n      0x0100\n      exp\n      dup2\n      sload\n      dup2\n      0xff\n      mul\n      not\n      and\n      swap1\n      dup4\n      iszero\n      iszero\n      mul\n      or\n      swap1\n      sstore\n      pop\n        /* \"@openzeppelin/contracts-upgradeable/proxy/utils/Initializable.sol\":3168:3233  if (isTopLevelCall) {... */\n    tag_114:\n        /* \"contracts/tokens/Moola.sol\":1149:1177  __ERC20_init(name_, symbol_) */\n      tag_116\n        /* \"contracts/tokens/Moola.sol\":1162:1167  name_ */\n      dup5\n        /* \"contracts/tokens/Moola.sol\":1169:1176  symbol_ */\n      dup5\n        /* \"contracts/tokens/Moola.sol\":1149:1161  __ERC20_init */\n      tag_117\n        /* \"contracts/tokens/Moola.sol\":1149:1177  __ERC20_init(name_, symbol_) */\n      jump\t// in\n    tag_116:\n        /* \"contracts/tokens/Moola.sol\":1184:1200  __Ownable_init() */\n      tag_118\n        /* \"contracts/tokens/Moola.sol\":1184:1198  __Ownable_init */\n      tag_119\n        /* \"contracts/tokens/Moola.sol\":1184:1200  __Ownable_init() */\n      jump\t// in\n    tag_118:\n        /* \"contracts/tokens/Moola.sol\":1207:1224  __Pausable_init() */\n      tag_120\n        /* \"contracts/tokens/Moola.sol\":1207:1222  __Pausable_init */\n      tag_121\n        /* \"contracts/tokens/Moola.sol\":1207:1224  __Pausable_init() */\n      jump\t// in\n    tag_120:\n        /* \"contracts/tokens/Moola.sol\":1271:1280  _moolaNFT */\n      dup2\n        /* \"contracts/tokens/Moola.sol\":1231:1239  moolaNFT */\n      0xca\n      0x00\n        /* \"contracts/tokens/Moola.sol\":1231:1281  moolaNFT = IERC721EnumerableUpgradeable(_moolaNFT) */\n      0x0100\n      exp\n      dup2\n      sload\n      dup2\n      0xffffffffffffffffffffffffffffffffffffffff\n      mul\n      not\n      and\n      swap1\n      dup4\n      0xffffffffffffffffffffffffffffffffffffffff\n      and\n      mul\n      or\n      swap1\n      sstore\n      pop\n        /* \"contracts/tokens/Moola.sol\":1288:1325  _mint(msg.sender, 10000000000 * 1e18) */\n      tag_122\n        /* \"contracts/tokens/Moola.sol\":1294:1304  msg.sender */\n      caller\n        /* \"contracts/tokens/Moola.sol\":1306:1324  10000000000 * 1e18 */\n      0x204fce5e3e25026110000000\n        /* \"contracts/tokens/Moola.sol\":1288:1293  _mint */\n      tag_123\n        /* \"contracts/tokens/Moola.sol\":1288:1325  _mint(msg.sender, 10000000000 * 1e18) */\n      jump\t// in\n    tag_122:\n        /* \"@openzeppelin/contracts-upgradeable/proxy/utils/Initializable.sol\":3257:3271  isTopLevelCall */\n      dup1\n        /* \"@openzeppelin/contracts-upgradeable/proxy/utils/Initializable.sol\":3253:3352  if (isTopLevelCall) {... */\n      iszero\n      tag_124\n      jumpi\n        /* \"@openzeppelin/contracts-upgradeable/proxy/utils/Initializable.sol\":3303:3308  false */\n      0x00\n        /* \"@openzeppelin/contracts-upgradeable/proxy/utils/Initializable.sol\":3287:3300  _initializing */\n      dup1\n      0x01\n        /* \"@openzeppelin/contracts-upgradeable/proxy/utils/Initializable.sol\":3287:3308  _initializing = false */\n      0x0100\n      exp\n      dup2\n      sload\n      dup2\n      0xff\n      mul\n      not\n      and\n      swap1\n      dup4\n      iszero\n      iszero\n      mul\n      or\n      swap1\n      sstore\n      pop\n        /* \"@openzeppelin/contracts-upgradeable/proxy/utils/Initializable.sol\":3327:3341  Initialized(1) */\n      0x7f26b83ff96e1f2b6a682f133852f6798a09c465da95921460cefb3847402498\n        /* \"@openzeppelin/contracts-upgradeable/proxy/utils/Initializable.sol\":3339:3340  1 */\n      0x01\n        /* \"@openzeppelin/contracts-upgradeable/proxy/utils/Initializable.sol\":3327:3341  Initialized(1) */\n      mload(0x40)\n      tag_125\n      swap2\n      swap1\n      tag_126\n      jump\t// in\n    tag_125:\n      mload(0x40)\n      dup1\n      swap2\n      sub\n      swap1\n      log1\n        /* \"@openzeppelin/contracts-upgradeable/proxy/utils/Initializable.sol\":3253:3352  if (isTopLevelCall) {... */\n    tag_124:\n        /* \"contracts/tokens/Moola.sol\":1018:1331  function initialize(\r... */\n      pop\n      pop\n      pop\n      pop\n      jump\t// out\n        /* \"@openzeppelin/contracts-upgradeable/token/ERC20/ERC20Upgradeable.sol\":4770:4967  function approve(address spender, uint256 amount) public virtual override returns (bool) {... */\n    tag_37:\n        /* \"@openzeppelin/contracts-upgradeable/token/ERC20/ERC20Upgradeable.sol\":4853:4857  bool */\n      0x00\n        /* \"@openzeppelin/contracts-upgradeable/token/ERC20/ERC20Upgradeable.sol\":4869:4882  address owner */\n      dup1\n        /* \"@openzeppelin/contracts-upgradeable/token/ERC20/ERC20Upgradeable.sol\":4885:4897  _msgSender() */\n      tag_128\n        /* \"@openzeppelin/contracts-upgradeable/token/ERC20/ERC20Upgradeable.sol\":4885:4895  _msgSender */\n      tag_129\n        /* \"@openzeppelin/contracts-upgradeable/token/ERC20/ERC20Upgradeable.sol\":4885:4897  _msgSender() */\n      jump\t// in\n    tag_128:\n        /* \"@openzeppelin/contracts-upgradeable/token/ERC20/ERC20Upgradeable.sol\":4869:4897  address owner = _msgSender() */\n      swap1\n      pop\n        /* \"@openzeppelin/contracts-upgradeable/token/ERC20/ERC20Upgradeable.sol\":4907:4939  _approve(owner, spender, amount) */\n      tag_130\n        /* \"@openzeppelin/contracts-upgradeable/token/ERC20/ERC20Upgradeable.sol\":4916:4921  owner */\n      dup2\n        /* \"@openzeppelin/contracts-upgradeable/token/ERC20/ERC20Upgradeable.sol\":4923:4930  spender */\n      dup6\n        /* \"@openzeppelin/contracts-upgradeable/token/ERC20/ERC20Upgradeable.sol\":4932:4938  amount */\n      dup6\n        /* \"@openzeppelin/contracts-upgradeable/token/ERC20/ERC20Upgradeable.sol\":4907:4915  _approve */\n      tag_131\n        /* \"@openzeppelin/contracts-upgradeable/token/ERC20/ERC20Upgradeable.sol\":4907:4939  _approve(owner, spender, amount) */\n      jump\t// in\n    tag_130:\n        /* \"@openzeppelin/contracts-upgradeable/token/ERC20/ERC20Upgradeable.sol\":4956:4960  true */\n      0x01\n        /* \"@openzeppelin/contracts-upgradeable/token/ERC20/ERC20Upgradeable.sol\":4949:4960  return true */\n      swap2\n      pop\n      pop\n        /* \"@openzeppelin/contracts-upgradeable/token/ERC20/ERC20Upgradeable.sol\":4770:4967  function approve(address spender, uint256 amount) public virtual override returns (bool) {... */\n      swap3\n      swap2\n      pop\n      pop\n      jump\t// out\n        /* \"@openzeppelin/contracts-upgradeable/token/ERC20/ERC20Upgradeable.sol\":3581:3687  function totalSupply() public view virtual override returns (uint256) {... */\n    tag_41:\n        /* \"@openzeppelin/contracts-upgradeable/token/ERC20/ERC20Upgradeable.sol\":3642:3649  uint256 */\n      0x00\n        /* \"@openzeppelin/contracts-upgradeable/token/ERC20/ERC20Upgradeable.sol\":3668:3680  _totalSupply */\n      sload(0x35)\n        /* \"@openzeppelin/contracts-upgradeable/token/ERC20/ERC20Upgradeable.sol\":3661:3680  return _totalSupply */\n      swap1\n      pop\n        /* \"@openzeppelin/contracts-upgradeable/token/ERC20/ERC20Upgradeable.sol\":3581:3687  function totalSupply() public view virtual override returns (uint256) {... */\n      swap1\n      jump\t// out\n        /* \"@openzeppelin/contracts-upgradeable/token/ERC20/ERC20Upgradeable.sol\":5529:5815  function transferFrom(... */\n    tag_47:\n        /* \"@openzeppelin/contracts-upgradeable/token/ERC20/ERC20Upgradeable.sol\":5656:5660  bool */\n      0x00\n        /* \"@openzeppelin/contracts-upgradeable/token/ERC20/ERC20Upgradeable.sol\":5672:5687  address spender */\n      dup1\n        /* \"@openzeppelin/contracts-upgradeable/token/ERC20/ERC20Upgradeable.sol\":5690:5702  _msgSender() */\n      tag_134\n        /* \"@openzeppelin/contracts-upgradeable/token/ERC20/ERC20Upgradeable.sol\":5690:5700  _msgSender */\n      tag_129\n        /* \"@openzeppelin/contracts-upgradeable/token/ERC20/ERC20Upgradeable.sol\":5690:5702  _msgSender() */\n      jump\t// in\n    tag_134:\n        /* \"@openzeppelin/contracts-upgradeable/token/ERC20/ERC20Upgradeable.sol\":5672:5702  address spender = _msgSender() */\n      swap1\n      pop\n        /* \"@openzeppelin/contracts-upgradeable/token/ERC20/ERC20Upgradeable.sol\":5712:5750  _spendAllowance(from, spender, amount) */\n      tag_135\n        /* \"@openzeppelin/contracts-upgradeable/token/ERC20/ERC20Upgradeable.sol\":5728:5732  from */\n      dup6\n        /* \"@openzeppelin/contracts-upgradeable/token/ERC20/ERC20Upgradeable.sol\":5734:5741  spender */\n      dup3\n        /* \"@openzeppelin/contracts-upgradeable/token/ERC20/ERC20Upgradeable.sol\":5743:5749  amount */\n      dup6\n        /* \"@openzeppelin/contracts-upgradeable/token/ERC20/ERC20Upgradeable.sol\":5712:5727  _spendAllowance */\n      tag_136\n        /* \"@openzeppelin/contracts-upgradeable/token/ERC20/ERC20Upgradeable.sol\":5712:5750  _spendAllowance(from, spender, amount) */\n      jump\t// in\n    tag_135:\n        /* \"@openzeppelin/contracts-upgradeable/token/ERC20/ERC20Upgradeable.sol\":5760:5787  _transfer(from, to, amount) */\n      tag_137\n        /* \"@openzeppelin/contracts-upgradeable/token/ERC20/ERC20Upgradeable.sol\":5770:5774  from */\n      dup6\n        /* \"@openzeppelin/contracts-upgradeable/token/ERC20/ERC20Upgradeable.sol\":5776:5778  to */\n      dup6\n        /* \"@openzeppelin/contracts-upgradeable/token/ERC20/ERC20Upgradeable.sol\":5780:5786  amount */\n      dup6\n        /* \"@openzeppelin/contracts-upgradeable/token/ERC20/ERC20Upgradeable.sol\":5760:5769  _transfer */\n      tag_138\n        /* \"@openzeppelin/contracts-upgradeable/token/ERC20/ERC20Upgradeable.sol\":5760:5787  _transfer(from, to, amount) */\n      jump\t// in\n    tag_137:\n        /* \"@openzeppelin/contracts-upgradeable/token/ERC20/ERC20Upgradeable.sol\":5804:5808  true */\n      0x01\n        /* \"@openzeppelin/contracts-upgradeable/token/ERC20/ERC20Upgradeable.sol\":5797:5808  return true */\n      swap2\n      pop\n      pop\n        /* \"@openzeppelin/contracts-upgradeable/token/ERC20/ERC20Upgradeable.sol\":5529:5815  function transferFrom(... */\n      swap4\n      swap3\n      pop\n      pop\n      pop\n      jump\t// out\n        /* \"contracts/tokens/Moola.sol\":1504:1591  function decimals() public view virtual override returns (uint8) {\r... */\n    tag_50:\n        /* \"contracts/tokens/Moola.sol\":1562:1567  uint8 */\n      0x00\n        /* \"contracts/tokens/Moola.sol\":1583:1585  18 */\n      0x12\n        /* \"contracts/tokens/Moola.sol\":1576:1585  return 18 */\n      swap1\n      pop\n        /* \"contracts/tokens/Moola.sol\":1504:1591  function decimals() public view virtual override returns (uint8) {\r... */\n      swap1\n      jump\t// out\n        /* \"@openzeppelin/contracts-upgradeable/token/ERC20/ERC20Upgradeable.sol\":6210:6444  function increaseAllowance(address spender, uint256 addedValue) public virtual returns (bool) {... */\n    tag_55:\n        /* \"@openzeppelin/contracts-upgradeable/token/ERC20/ERC20Upgradeable.sol\":6298:6302  bool */\n      0x00\n        /* \"@openzeppelin/contracts-upgradeable/token/ERC20/ERC20Upgradeable.sol\":6314:6327  address owner */\n      dup1\n        /* \"@openzeppelin/contracts-upgradeable/token/ERC20/ERC20Upgradeable.sol\":6330:6342  _msgSender() */\n      tag_141\n        /* \"@openzeppelin/contracts-upgradeable/token/ERC20/ERC20Upgradeable.sol\":6330:6340  _msgSender */\n      tag_129\n        /* \"@openzeppelin/contracts-upgradeable/token/ERC20/ERC20Upgradeable.sol\":6330:6342  _msgSender() */\n      jump\t// in\n    tag_141:\n        /* \"@openzeppelin/contracts-upgradeable/token/ERC20/ERC20Upgradeable.sol\":6314:6342  address owner = _msgSender() */\n      swap1\n      pop\n        /* \"@openzeppelin/contracts-upgradeable/token/ERC20/ERC20Upgradeable.sol\":6352:6416  _approve(owner, spender, allowance(owner, spender) + addedValue) */\n      tag_142\n        /* \"@openzeppelin/contracts-upgradeable/token/ERC20/ERC20Upgradeable.sol\":6361:6366  owner */\n      dup2\n        /* \"@openzeppelin/contracts-upgradeable/token/ERC20/ERC20Upgradeable.sol\":6368:6375  spender */\n      dup6\n        /* \"@openzeppelin/contracts-upgradeable/token/ERC20/ERC20Upgradeable.sol\":6405:6415  addedValue */\n      dup6\n        /* \"@openzeppelin/contracts-upgradeable/token/ERC20/ERC20Upgradeable.sol\":6377:6402  allowance(owner, spender) */\n      tag_143\n        /* \"@openzeppelin/contracts-upgradeable/token/ERC20/ERC20Upgradeable.sol\":6387:6392  owner */\n      dup6\n        /* \"@openzeppelin/contracts-upgradeable/token/ERC20/ERC20Upgradeable.sol\":6394:6401  spender */\n      dup10\n        /* \"@openzeppelin/contracts-upgradeable/token/ERC20/ERC20Upgradeable.sol\":6377:6386  allowance */\n      tag_99\n        /* \"@openzeppelin/contracts-upgradeable/token/ERC20/ERC20Upgradeable.sol\":6377:6402  allowance(owner, spender) */\n      jump\t// in\n    tag_143:\n        /* \"@openzeppelin/contracts-upgradeable/token/ERC20/ERC20Upgradeable.sol\":6377:6415  allowance(owner, spender) + addedValue */\n      tag_144\n      swap2\n      swap1\n      tag_145\n      jump\t// in\n    tag_144:\n        /* \"@openzeppelin/contracts-upgradeable/token/ERC20/ERC20Upgradeable.sol\":6352:6360  _approve */\n      tag_131\n        /* \"@openzeppelin/contracts-upgradeable/token/ERC20/ERC20Upgradeable.sol\":6352:6416  _approve(owner, spender, allowance(owner, spender) + addedValue) */\n      jump\t// in\n    tag_142:\n        /* \"@openzeppelin/contracts-upgradeable/token/ERC20/ERC20Upgradeable.sol\":6433:6437  true */\n      0x01\n        /* \"@openzeppelin/contracts-upgradeable/token/ERC20/ERC20Upgradeable.sol\":6426:6437  return true */\n      swap2\n      pop\n      pop\n        /* \"@openzeppelin/contracts-upgradeable/token/ERC20/ERC20Upgradeable.sol\":6210:6444  function increaseAllowance(address spender, uint256 addedValue) public virtual returns (bool) {... */\n      swap3\n      swap2\n      pop\n      pop\n      jump\t// out\n        /* \"contracts/tokens/Moola.sol\":1721:1816  function mint(address to, uint256 amount) external onlyWhitelist {\r... */\n    tag_59:\n        /* \"contracts/tokens/Moola.sol\":880:889  whitelist */\n      0xcb\n        /* \"contracts/tokens/Moola.sol\":880:901  whitelist[msg.sender] */\n      0x00\n        /* \"contracts/tokens/Moola.sol\":890:900  msg.sender */\n      caller\n        /* \"contracts/tokens/Moola.sol\":880:901  whitelist[msg.sender] */\n      0xffffffffffffffffffffffffffffffffffffffff\n      and\n      0xffffffffffffffffffffffffffffffffffffffff\n      and\n      dup2\n      mstore\n      0x20\n      add\n      swap1\n      dup2\n      mstore\n      0x20\n      add\n      0x00\n      keccak256\n      0x00\n      swap1\n      sload\n      swap1\n      0x0100\n      exp\n      swap1\n      div\n      0xff\n      and\n        /* \"contracts/tokens/Moola.sol\":872:920  require(whitelist[msg.sender], \"Only whitelist\") */\n      tag_147\n      jumpi\n      mload(0x40)\n      0x08c379a000000000000000000000000000000000000000000000000000000000\n      dup2\n      mstore\n      0x04\n      add\n      tag_148\n      swap1\n      tag_149\n      jump\t// in\n    tag_148:\n      mload(0x40)\n      dup1\n      swap2\n      sub\n      swap1\n      revert\n    tag_147:\n        /* \"contracts/tokens/Moola.sol\":1793:1810  _mint(to, amount) */\n      tag_151\n        /* \"contracts/tokens/Moola.sol\":1799:1801  to */\n      dup3\n        /* \"contracts/tokens/Moola.sol\":1803:1809  amount */\n      dup3\n        /* \"contracts/tokens/Moola.sol\":1793:1798  _mint */\n      tag_123\n        /* \"contracts/tokens/Moola.sol\":1793:1810  _mint(to, amount) */\n      jump\t// in\n    tag_151:\n        /* \"contracts/tokens/Moola.sol\":1721:1816  function mint(address to, uint256 amount) external onlyWhitelist {\r... */\n      pop\n      pop\n      jump\t// out\n        /* \"contracts/tokens/Moola.sol\":1822:2218  function claimDairy(uint256 _tokenId) external {\r... */\n    tag_63:\n        /* \"contracts/tokens/Moola.sol\":1914:1924  msg.sender */\n      caller\n        /* \"contracts/tokens/Moola.sol\":1884:1924  moolaNFT.ownerOf(_tokenId) == msg.sender */\n      0xffffffffffffffffffffffffffffffffffffffff\n      and\n        /* \"contracts/tokens/Moola.sol\":1884:1892  moolaNFT */\n      0xca\n      0x00\n      swap1\n      sload\n      swap1\n      0x0100\n      exp\n      swap1\n      div\n      0xffffffffffffffffffffffffffffffffffffffff\n      and\n        /* \"contracts/tokens/Moola.sol\":1884:1900  moolaNFT.ownerOf */\n      0xffffffffffffffffffffffffffffffffffffffff\n      and\n      0x6352211e\n        /* \"contracts/tokens/Moola.sol\":1901:1909  _tokenId */\n      dup4\n        /* \"contracts/tokens/Moola.sol\":1884:1910  moolaNFT.ownerOf(_tokenId) */\n      mload(0x40)\n      dup3\n      0xffffffff\n      and\n      0xe0\n      shl\n      dup2\n      mstore\n      0x04\n      add\n      tag_153\n      swap2\n      swap1\n      tag_43\n      jump\t// in\n    tag_153:\n      0x20\n      mload(0x40)\n      dup1\n      dup4\n      sub\n      dup2\n      dup7\n      dup1\n      extcodesize\n      iszero\n      dup1\n      iszero\n      tag_154\n      jumpi\n      0x00\n      dup1\n      revert\n    tag_154:\n      pop\n      gas\n      staticcall\n      iszero\n      dup1\n      iszero\n      tag_156\n      jumpi\n      returndatasize\n      0x00\n      dup1\n      returndatacopy\n      revert(0x00, returndatasize)\n    tag_156:\n      pop\n      pop\n      pop\n      pop\n      mload(0x40)\n      returndatasize\n      not(0x1f)\n      0x1f\n      dup3\n      add\n      and\n      dup3\n      add\n      dup1\n      0x40\n      mstore\n      pop\n      dup2\n      add\n      swap1\n      tag_157\n      swap2\n      swap1\n      tag_158\n      jump\t// in\n    tag_157:\n        /* \"contracts/tokens/Moola.sol\":1884:1924  moolaNFT.ownerOf(_tokenId) == msg.sender */\n      0xffffffffffffffffffffffffffffffffffffffff\n      and\n      eq\n        /* \"contracts/tokens/Moola.sol\":1876:1941  require(moolaNFT.ownerOf(_tokenId) == msg.sender, \"UNAUTHORIZED\") */\n      tag_159\n      jumpi\n      mload(0x40)\n      0x08c379a000000000000000000000000000000000000000000000000000000000\n      dup2\n      mstore\n      0x04\n      add\n      tag_160\n      swap1\n      tag_161\n      jump\t// in\n    tag_160:\n      mload(0x40)\n      dup1\n      swap2\n      sub\n      swap1\n      revert\n    tag_159:\n        /* \"contracts/tokens/Moola.sol\":2010:2016  1 days */\n      0x015180\n        /* \"contracts/tokens/Moola.sol\":1982:1996  nftLastClaimed */\n      0xcc\n        /* \"contracts/tokens/Moola.sol\":1982:2006  nftLastClaimed[_tokenId] */\n      0x00\n        /* \"contracts/tokens/Moola.sol\":1997:2005  _tokenId */\n      dup4\n        /* \"contracts/tokens/Moola.sol\":1982:2006  nftLastClaimed[_tokenId] */\n      dup2\n      mstore\n      0x20\n      add\n      swap1\n      dup2\n      mstore\n      0x20\n      add\n      0x00\n      keccak256\n      sload\n        /* \"contracts/tokens/Moola.sol\":1964:1979  block.timestamp */\n      timestamp\n        /* \"contracts/tokens/Moola.sol\":1964:2006  block.timestamp - nftLastClaimed[_tokenId] */\n      tag_162\n      swap2\n      swap1\n      tag_163\n      jump\t// in\n    tag_162:\n        /* \"contracts/tokens/Moola.sol\":1964:2016  block.timestamp - nftLastClaimed[_tokenId] >= 1 days */\n      lt\n      iszero\n        /* \"contracts/tokens/Moola.sol\":1948:2045  require(\r... */\n      tag_164\n      jumpi\n      mload(0x40)\n      0x08c379a000000000000000000000000000000000000000000000000000000000\n      dup2\n      mstore\n      0x04\n      add\n      tag_165\n      swap1\n      tag_166\n      jump\t// in\n    tag_165:\n      mload(0x40)\n      dup1\n      swap2\n      sub\n      swap1\n      revert\n    tag_164:\n        /* \"contracts/tokens/Moola.sol\":2054:2087  _mint(msg.sender, dailyAllowance) */\n      tag_167\n        /* \"contracts/tokens/Moola.sol\":2060:2070  msg.sender */\n      caller\n        /* \"contracts/tokens/Moola.sol\":2072:2086  dailyAllowance */\n      sload(0xc9)\n        /* \"contracts/tokens/Moola.sol\":2054:2059  _mint */\n      tag_123\n        /* \"contracts/tokens/Moola.sol\":2054:2087  _mint(msg.sender, dailyAllowance) */\n      jump\t// in\n    tag_167:\n        /* \"contracts/tokens/Moola.sol\":2121:2136  block.timestamp */\n      timestamp\n        /* \"contracts/tokens/Moola.sol\":2094:2108  nftLastClaimed */\n      0xcc\n        /* \"contracts/tokens/Moola.sol\":2094:2118  nftLastClaimed[_tokenId] */\n      0x00\n        /* \"contracts/tokens/Moola.sol\":2109:2117  _tokenId */\n      dup4\n        /* \"contracts/tokens/Moola.sol\":2094:2118  nftLastClaimed[_tokenId] */\n      dup2\n      mstore\n      0x20\n      add\n      swap1\n      dup2\n      mstore\n      0x20\n      add\n      0x00\n      keccak256\n        /* \"contracts/tokens/Moola.sol\":2094:2136  nftLastClaimed[_tokenId] = block.timestamp */\n      dup2\n      swap1\n      sstore\n      pop\n        /* \"contracts/tokens/Moola.sol\":2150:2212  dailyDairyClaimed(msg.sender, dailyAllowance, block.timestamp) */\n      0x8dce8756778b482ef8cfef8c65faadc506ce94e081bb6cc3a2d3448d99de9a50\n        /* \"contracts/tokens/Moola.sol\":2168:2178  msg.sender */\n      caller\n        /* \"contracts/tokens/Moola.sol\":2180:2194  dailyAllowance */\n      sload(0xc9)\n        /* \"contracts/tokens/Moola.sol\":2196:2211  block.timestamp */\n      timestamp\n        /* \"contracts/tokens/Moola.sol\":2150:2212  dailyDairyClaimed(msg.sender, dailyAllowance, block.timestamp) */\n      mload(0x40)\n      tag_168\n      swap4\n      swap3\n      swap2\n      swap1\n      tag_169\n      jump\t// in\n    tag_168:\n      mload(0x40)\n      dup1\n      swap2\n      sub\n      swap1\n      log1\n        /* \"contracts/tokens/Moola.sol\":1822:2218  function claimDairy(uint256 _tokenId) external {\r... */\n      pop\n      jump\t// out\n        /* \"@openzeppelin/contracts-upgradeable/security/PausableUpgradeable.sol\":1341:1425  function paused() public view virtual returns (bool) {... */\n    tag_65:\n        /* \"@openzeppelin/contracts-upgradeable/security/PausableUpgradeable.sol\":1388:1392  bool */\n      0x00\n        /* \"@openzeppelin/contracts-upgradeable/security/PausableUpgradeable.sol\":1411:1418  _paused */\n      0x97\n      0x00\n      swap1\n      sload\n      swap1\n      0x0100\n      exp\n      swap1\n      div\n      0xff\n      and\n        /* \"@openzeppelin/contracts-upgradeable/security/PausableUpgradeable.sol\":1404:1418  return _paused */\n      swap1\n      pop\n        /* \"@openzeppelin/contracts-upgradeable/security/PausableUpgradeable.sol\":1341:1425  function paused() public view virtual returns (bool) {... */\n      swap1\n      jump\t// out\n        /* \"@openzeppelin/contracts-upgradeable/token/ERC20/ERC20Upgradeable.sol\":3745:3870  function balanceOf(address account) public view virtual override returns (uint256) {... */\n    tag_70:\n        /* \"@openzeppelin/contracts-upgradeable/token/ERC20/ERC20Upgradeable.sol\":3819:3826  uint256 */\n      0x00\n        /* \"@openzeppelin/contracts-upgradeable/token/ERC20/ERC20Upgradeable.sol\":3845:3854  _balances */\n      0x33\n        /* \"@openzeppelin/contracts-upgradeable/token/ERC20/ERC20Upgradeable.sol\":3845:3863  _balances[account] */\n      0x00\n        /* \"@openzeppelin/contracts-upgradeable/token/ERC20/ERC20Upgradeable.sol\":3855:3862  account */\n      dup4\n        /* \"@openzeppelin/contracts-upgradeable/token/ERC20/ERC20Upgradeable.sol\":3845:3863  _balances[account] */\n      0xffffffffffffffffffffffffffffffffffffffff\n      and\n      0xffffffffffffffffffffffffffffffffffffffff\n      and\n      dup2\n      mstore\n      0x20\n      add\n      swap1\n      dup2\n      mstore\n      0x20\n      add\n      0x00\n      keccak256\n      sload\n        /* \"@openzeppelin/contracts-upgradeable/token/ERC20/ERC20Upgradeable.sol\":3838:3863  return _balances[account] */\n      swap1\n      pop\n        /* \"@openzeppelin/contracts-upgradeable/token/ERC20/ERC20Upgradeable.sol\":3745:3870  function balanceOf(address account) public view virtual override returns (uint256) {... */\n      swap2\n      swap1\n      pop\n      jump\t// out\n        /* \"@openzeppelin/contracts-upgradeable/access/OwnableUpgradeable.sol\":1908:2009  function renounceOwnership() public virtual onlyOwner {... */\n    tag_73:\n        /* \"@openzeppelin/contracts-upgradeable/access/OwnableUpgradeable.sol\":1499:1511  _msgSender() */\n      tag_173\n        /* \"@openzeppelin/contracts-upgradeable/access/OwnableUpgradeable.sol\":1499:1509  _msgSender */\n      tag_129\n        /* \"@openzeppelin/contracts-upgradeable/access/OwnableUpgradeable.sol\":1499:1511  _msgSender() */\n      jump\t// in\n    tag_173:\n        /* \"@openzeppelin/contracts-upgradeable/access/OwnableUpgradeable.sol\":1488:1511  owner() == _msgSender() */\n      0xffffffffffffffffffffffffffffffffffffffff\n      and\n        /* \"@openzeppelin/contracts-upgradeable/access/OwnableUpgradeable.sol\":1488:1495  owner() */\n      tag_174\n        /* \"@openzeppelin/contracts-upgradeable/access/OwnableUpgradeable.sol\":1488:1493  owner */\n      tag_78\n        /* \"@openzeppelin/contracts-upgradeable/access/OwnableUpgradeable.sol\":1488:1495  owner() */\n      jump\t// in\n    tag_174:\n        /* \"@openzeppelin/contracts-upgradeable/access/OwnableUpgradeable.sol\":1488:1511  owner() == _msgSender() */\n      0xffffffffffffffffffffffffffffffffffffffff\n      and\n      eq\n        /* \"@openzeppelin/contracts-upgradeable/access/OwnableUpgradeable.sol\":1480:1548  require(owner() == _msgSender(), \"Ownable: caller is not the owner\") */\n      tag_175\n      jumpi\n      mload(0x40)\n      0x08c379a000000000000000000000000000000000000000000000000000000000\n      dup2\n      mstore\n      0x04\n      add\n      tag_176\n      swap1\n      tag_177\n      jump\t// in\n    tag_176:\n      mload(0x40)\n      dup1\n      swap2\n      sub\n      swap1\n      revert\n    tag_175:\n        /* \"@openzeppelin/contracts-upgradeable/access/OwnableUpgradeable.sol\":1972:2002  _transferOwnership(address(0)) */\n      tag_179\n        /* \"@openzeppelin/contracts-upgradeable/access/OwnableUpgradeable.sol\":1999:2000  0 */\n      0x00\n        /* \"@openzeppelin/contracts-upgradeable/access/OwnableUpgradeable.sol\":1972:1990  _transferOwnership */\n      tag_180\n        /* \"@openzeppelin/contracts-upgradeable/access/OwnableUpgradeable.sol\":1972:2002  _transferOwnership(address(0)) */\n      jump\t// in\n    tag_179:\n        /* \"@openzeppelin/contracts-upgradeable/access/OwnableUpgradeable.sol\":1908:2009  function renounceOwnership() public virtual onlyOwner {... */\n      jump\t// out\n        /* \"contracts/tokens/Moola.sol\":1337:1439  function setWhitelist(address _whitelist) external onlyOwner {\r... */\n    tag_76:\n        /* \"@openzeppelin/contracts-upgradeable/access/OwnableUpgradeable.sol\":1499:1511  _msgSender() */\n      tag_182\n        /* \"@openzeppelin/contracts-upgradeable/access/OwnableUpgradeable.sol\":1499:1509  _msgSender */\n      tag_129\n        /* \"@openzeppelin/contracts-upgradeable/access/OwnableUpgradeable.sol\":1499:1511  _msgSender() */\n      jump\t// in\n    tag_182:\n        /* \"@openzeppelin/contracts-upgradeable/access/OwnableUpgradeable.sol\":1488:1511  owner() == _msgSender() */\n      0xffffffffffffffffffffffffffffffffffffffff\n      and\n        /* \"@openzeppelin/contracts-upgradeable/access/OwnableUpgradeable.sol\":1488:1495  owner() */\n      tag_183\n        /* \"@openzeppelin/contracts-upgradeable/access/OwnableUpgradeable.sol\":1488:1493  owner */\n      tag_78\n        /* \"@openzeppelin/contracts-upgradeable/access/OwnableUpgradeable.sol\":1488:1495  owner() */\n      jump\t// in\n    tag_183:\n        /* \"@openzeppelin/contracts-upgradeable/access/OwnableUpgradeable.sol\":1488:1511  owner() == _msgSender() */\n      0xffffffffffffffffffffffffffffffffffffffff\n      and\n      eq\n        /* \"@openzeppelin/contracts-upgradeable/access/OwnableUpgradeable.sol\":1480:1548  require(owner() == _msgSender(), \"Ownable: caller is not the owner\") */\n      tag_184\n      jumpi\n      mload(0x40)\n      0x08c379a000000000000000000000000000000000000000000000000000000000\n      dup2\n      mstore\n      0x04\n      add\n      tag_185\n      swap1\n      tag_177\n      jump\t// in\n    tag_185:\n      mload(0x40)\n      dup1\n      swap2\n      sub\n      swap1\n      revert\n    tag_184:\n        /* \"contracts/tokens/Moola.sol\":1429:1433  true */\n      0x01\n        /* \"contracts/tokens/Moola.sol\":1405:1414  whitelist */\n      0xcb\n        /* \"contracts/tokens/Moola.sol\":1405:1426  whitelist[_whitelist] */\n      0x00\n        /* \"contracts/tokens/Moola.sol\":1415:1425  _whitelist */\n      dup4\n        /* \"contracts/tokens/Moola.sol\":1405:1426  whitelist[_whitelist] */\n      0xffffffffffffffffffffffffffffffffffffffff\n      and\n      0xffffffffffffffffffffffffffffffffffffffff\n      and\n      dup2\n      mstore\n      0x20\n      add\n      swap1\n      dup2\n      mstore\n      0x20\n      add\n      0x00\n      keccak256\n      0x00\n        /* \"contracts/tokens/Moola.sol\":1405:1433  whitelist[_whitelist] = true */\n      0x0100\n      exp\n      dup2\n      sload\n      dup2\n      0xff\n      mul\n      not\n      and\n      swap1\n      dup4\n      iszero\n      iszero\n      mul\n      or\n      swap1\n      sstore\n      pop\n        /* \"contracts/tokens/Moola.sol\":1337:1439  function setWhitelist(address _whitelist) external onlyOwner {\r... */\n      pop\n      jump\t// out\n        /* \"@openzeppelin/contracts-upgradeable/access/OwnableUpgradeable.sol\":1276:1361  function owner() public view virtual returns (address) {... */\n    tag_78:\n        /* \"@openzeppelin/contracts-upgradeable/access/OwnableUpgradeable.sol\":1322:1329  address */\n      0x00\n        /* \"@openzeppelin/contracts-upgradeable/access/OwnableUpgradeable.sol\":1348:1354  _owner */\n      0x65\n      0x00\n      swap1\n      sload\n      swap1\n      0x0100\n      exp\n      swap1\n      div\n      0xffffffffffffffffffffffffffffffffffffffff\n      and\n        /* \"@openzeppelin/contracts-upgradeable/access/OwnableUpgradeable.sol\":1341:1354  return _owner */\n      swap1\n      pop\n        /* \"@openzeppelin/contracts-upgradeable/access/OwnableUpgradeable.sol\":1276:1361  function owner() public view virtual returns (address) {... */\n      swap1\n      jump\t// out\n        /* \"@openzeppelin/contracts-upgradeable/token/ERC20/ERC20Upgradeable.sol\":2704:2806  function symbol() public view virtual override returns (string memory) {... */\n    tag_82:\n        /* \"@openzeppelin/contracts-upgradeable/token/ERC20/ERC20Upgradeable.sol\":2760:2773  string memory */\n      0x60\n        /* \"@openzeppelin/contracts-upgradeable/token/ERC20/ERC20Upgradeable.sol\":2792:2799  _symbol */\n      0x37\n        /* \"@openzeppelin/contracts-upgradeable/token/ERC20/ERC20Upgradeable.sol\":2785:2799  return _symbol */\n      dup1\n      sload\n      tag_189\n      swap1\n      tag_106\n      jump\t// in\n    tag_189:\n      dup1\n      0x1f\n      add\n      0x20\n      dup1\n      swap2\n      div\n      mul\n      0x20\n      add\n      mload(0x40)\n      swap1\n      dup2\n      add\n      0x40\n      mstore\n      dup1\n      swap3\n      swap2\n      swap1\n      dup2\n      dup2\n      mstore\n      0x20\n      add\n      dup3\n      dup1\n      sload\n      tag_190\n      swap1\n      tag_106\n      jump\t// in\n    tag_190:\n      dup1\n      iszero\n      tag_191\n      jumpi\n      dup1\n      0x1f\n      lt\n      tag_192\n      jumpi\n      0x0100\n      dup1\n      dup4\n      sload\n      div\n      mul\n      dup4\n      mstore\n      swap2\n      0x20\n      add\n      swap2\n      jump(tag_191)\n    tag_192:\n      dup3\n      add\n      swap2\n      swap1\n      0x00\n      mstore\n      keccak256(0x00, 0x20)\n      swap1\n    tag_193:\n      dup2\n      sload\n      dup2\n      mstore\n      swap1\n      0x01\n      add\n      swap1\n      0x20\n      add\n      dup1\n      dup4\n      gt\n      tag_193\n      jumpi\n      dup3\n      swap1\n      sub\n      0x1f\n      and\n      dup3\n      add\n      swap2\n    tag_191:\n      pop\n      pop\n      pop\n      pop\n      pop\n      swap1\n      pop\n        /* \"@openzeppelin/contracts-upgradeable/token/ERC20/ERC20Upgradeable.sol\":2704:2806  function symbol() public view virtual override returns (string memory) {... */\n      swap1\n      jump\t// out\n        /* \"@openzeppelin/contracts-upgradeable/token/ERC20/ERC20Upgradeable.sol\":6931:7358  function decreaseAllowance(address spender, uint256 subtractedValue) public virtual returns (bool) {... */\n    tag_86:\n        /* \"@openzeppelin/contracts-upgradeable/token/ERC20/ERC20Upgradeable.sol\":7024:7028  bool */\n      0x00\n        /* \"@openzeppelin/contracts-upgradeable/token/ERC20/ERC20Upgradeable.sol\":7040:7053  address owner */\n      dup1\n        /* \"@openzeppelin/contracts-upgradeable/token/ERC20/ERC20Upgradeable.sol\":7056:7068  _msgSender() */\n      tag_195\n        /* \"@openzeppelin/contracts-upgradeable/token/ERC20/ERC20Upgradeable.sol\":7056:7066  _msgSender */\n      tag_129\n        /* \"@openzeppelin/contracts-upgradeable/token/ERC20/ERC20Upgradeable.sol\":7056:7068  _msgSender() */\n      jump\t// in\n    tag_195:\n        /* \"@openzeppelin/contracts-upgradeable/token/ERC20/ERC20Upgradeable.sol\":7040:7068  address owner = _msgSender() */\n      swap1\n      pop\n        /* \"@openzeppelin/contracts-upgradeable/token/ERC20/ERC20Upgradeable.sol\":7078:7102  uint256 currentAllowance */\n      0x00\n        /* \"@openzeppelin/contracts-upgradeable/token/ERC20/ERC20Upgradeable.sol\":7105:7130  allowance(owner, spender) */\n      tag_196\n        /* \"@openzeppelin/contracts-upgradeable/token/ERC20/ERC20Upgradeable.sol\":7115:7120  owner */\n      dup3\n        /* \"@openzeppelin/contracts-upgradeable/token/ERC20/ERC20Upgradeable.sol\":7122:7129  spender */\n      dup7\n        /* \"@openzeppelin/contracts-upgradeable/token/ERC20/ERC20Upgradeable.sol\":7105:7114  allowance */\n      tag_99\n        /* \"@openzeppelin/contracts-upgradeable/token/ERC20/ERC20Upgradeable.sol\":7105:7130  allowance(owner, spender) */\n      jump\t// in\n    tag_196:\n        /* \"@openzeppelin/contracts-upgradeable/token/ERC20/ERC20Upgradeable.sol\":7078:7130  uint256 currentAllowance = allowance(owner, spender) */\n      swap1\n      pop\n        /* \"@openzeppelin/contracts-upgradeable/token/ERC20/ERC20Upgradeable.sol\":7168:7183  subtractedValue */\n      dup4\n        /* \"@openzeppelin/contracts-upgradeable/token/ERC20/ERC20Upgradeable.sol\":7148:7164  currentAllowance */\n      dup2\n        /* \"@openzeppelin/contracts-upgradeable/token/ERC20/ERC20Upgradeable.sol\":7148:7183  currentAllowance >= subtractedValue */\n      lt\n      iszero\n        /* \"@openzeppelin/contracts-upgradeable/token/ERC20/ERC20Upgradeable.sol\":7140:7225  require(currentAllowance >= subtractedValue, \"ERC20: decreased allowance below zero\") */\n      tag_197\n      jumpi\n      mload(0x40)\n      0x08c379a000000000000000000000000000000000000000000000000000000000\n      dup2\n      mstore\n      0x04\n      add\n      tag_198\n      swap1\n      tag_199\n      jump\t// in\n    tag_198:\n      mload(0x40)\n      dup1\n      swap2\n      sub\n      swap1\n      revert\n    tag_197:\n        /* \"@openzeppelin/contracts-upgradeable/token/ERC20/ERC20Upgradeable.sol\":7259:7319  _approve(owner, spender, currentAllowance - subtractedValue) */\n      tag_200\n        /* \"@openzeppelin/contracts-upgradeable/token/ERC20/ERC20Upgradeable.sol\":7268:7273  owner */\n      dup3\n        /* \"@openzeppelin/contracts-upgradeable/token/ERC20/ERC20Upgradeable.sol\":7275:7282  spender */\n      dup7\n        /* \"@openzeppelin/contracts-upgradeable/token/ERC20/ERC20Upgradeable.sol\":7303:7318  subtractedValue */\n      dup7\n        /* \"@openzeppelin/contracts-upgradeable/token/ERC20/ERC20Upgradeable.sol\":7284:7300  currentAllowance */\n      dup5\n        /* \"@openzeppelin/contracts-upgradeable/token/ERC20/ERC20Upgradeable.sol\":7284:7318  currentAllowance - subtractedValue */\n      sub\n        /* \"@openzeppelin/contracts-upgradeable/token/ERC20/ERC20Upgradeable.sol\":7259:7267  _approve */\n      tag_131\n        /* \"@openzeppelin/contracts-upgradeable/token/ERC20/ERC20Upgradeable.sol\":7259:7319  _approve(owner, spender, currentAllowance - subtractedValue) */\n      jump\t// in\n    tag_200:\n        /* \"@openzeppelin/contracts-upgradeable/token/ERC20/ERC20Upgradeable.sol\":7347:7351  true */\n      0x01\n        /* \"@openzeppelin/contracts-upgradeable/token/ERC20/ERC20Upgradeable.sol\":7340:7351  return true */\n      swap3\n      pop\n      pop\n      pop\n        /* \"@openzeppelin/contracts-upgradeable/token/ERC20/ERC20Upgradeable.sol\":6931:7358  function decreaseAllowance(address spender, uint256 subtractedValue) public virtual returns (bool) {... */\n      swap3\n      swap2\n      pop\n      pop\n      jump\t// out\n        /* \"@openzeppelin/contracts-upgradeable/token/ERC20/ERC20Upgradeable.sol\":4066:4255  function transfer(address to, uint256 amount) public virtual override returns (bool) {... */\n    tag_90:\n        /* \"@openzeppelin/contracts-upgradeable/token/ERC20/ERC20Upgradeable.sol\":4145:4149  bool */\n      0x00\n        /* \"@openzeppelin/contracts-upgradeable/token/ERC20/ERC20Upgradeable.sol\":4161:4174  address owner */\n      dup1\n        /* \"@openzeppelin/contracts-upgradeable/token/ERC20/ERC20Upgradeable.sol\":4177:4189  _msgSender() */\n      tag_202\n        /* \"@openzeppelin/contracts-upgradeable/token/ERC20/ERC20Upgradeable.sol\":4177:4187  _msgSender */\n      tag_129\n        /* \"@openzeppelin/contracts-upgradeable/token/ERC20/ERC20Upgradeable.sol\":4177:4189  _msgSender() */\n      jump\t// in\n    tag_202:\n        /* \"@openzeppelin/contracts-upgradeable/token/ERC20/ERC20Upgradeable.sol\":4161:4189  address owner = _msgSender() */\n      swap1\n      pop\n        /* \"@openzeppelin/contracts-upgradeable/token/ERC20/ERC20Upgradeable.sol\":4199:4227  _transfer(owner, to, amount) */\n      tag_203\n        /* \"@openzeppelin/contracts-upgradeable/token/ERC20/ERC20Upgradeable.sol\":4209:4214  owner */\n      dup2\n        /* \"@openzeppelin/contracts-upgradeable/token/ERC20/ERC20Upgradeable.sol\":4216:4218  to */\n      dup6\n        /* \"@openzeppelin/contracts-upgradeable/token/ERC20/ERC20Upgradeable.sol\":4220:4226  amount */\n      dup6\n        /* \"@openzeppelin/contracts-upgradeable/token/ERC20/ERC20Upgradeable.sol\":4199:4208  _transfer */\n      tag_138\n        /* \"@openzeppelin/contracts-upgradeable/token/ERC20/ERC20Upgradeable.sol\":4199:4227  _transfer(owner, to, amount) */\n      jump\t// in\n    tag_203:\n        /* \"@openzeppelin/contracts-upgradeable/token/ERC20/ERC20Upgradeable.sol\":4244:4248  true */\n      0x01\n        /* \"@openzeppelin/contracts-upgradeable/token/ERC20/ERC20Upgradeable.sol\":4237:4248  return true */\n      swap2\n      pop\n      pop\n        /* \"@openzeppelin/contracts-upgradeable/token/ERC20/ERC20Upgradeable.sol\":4066:4255  function transfer(address to, uint256 amount) public virtual override returns (bool) {... */\n      swap3\n      swap2\n      pop\n      pop\n      jump\t// out\n        /* \"contracts/tokens/Moola.sol\":2224:2342  function getLastClaimed(uint256 _tokenId) external view returns (uint256) {\r... */\n    tag_94:\n        /* \"contracts/tokens/Moola.sol\":2289:2296  uint256 */\n      0x00\n        /* \"contracts/tokens/Moola.sol\":2312:2326  nftLastClaimed */\n      0xcc\n        /* \"contracts/tokens/Moola.sol\":2312:2336  nftLastClaimed[_tokenId] */\n      0x00\n        /* \"contracts/tokens/Moola.sol\":2327:2335  _tokenId */\n      dup4\n        /* \"contracts/tokens/Moola.sol\":2312:2336  nftLastClaimed[_tokenId] */\n      dup2\n      mstore\n      0x20\n      add\n      swap1\n      dup2\n      mstore\n      0x20\n      add\n      0x00\n      keccak256\n      sload\n        /* \"contracts/tokens/Moola.sol\":2305:2336  return nftLastClaimed[_tokenId] */\n      swap1\n      pop\n        /* \"contracts/tokens/Moola.sol\":2224:2342  function getLastClaimed(uint256 _tokenId) external view returns (uint256) {\r... */\n      swap2\n      swap1\n      pop\n      jump\t// out\n        /* \"@openzeppelin/contracts-upgradeable/token/ERC20/ERC20Upgradeable.sol\":4313:4462  function allowance(address owner, address spender) public view virtual override returns (uint256) {... */\n    tag_99:\n        /* \"@openzeppelin/contracts-upgradeable/token/ERC20/ERC20Upgradeable.sol\":4402:4409  uint256 */\n      0x00\n        /* \"@openzeppelin/contracts-upgradeable/token/ERC20/ERC20Upgradeable.sol\":4428:4439  _allowances */\n      0x34\n        /* \"@openzeppelin/contracts-upgradeable/token/ERC20/ERC20Upgradeable.sol\":4428:4446  _allowances[owner] */\n      0x00\n        /* \"@openzeppelin/contracts-upgradeable/token/ERC20/ERC20Upgradeable.sol\":4440:4445  owner */\n      dup5\n        /* \"@openzeppelin/contracts-upgradeable/token/ERC20/ERC20Upgradeable.sol\":4428:4446  _allowances[owner] */\n      0xffffffffffffffffffffffffffffffffffffffff\n      and\n      0xffffffffffffffffffffffffffffffffffffffff\n      and\n      dup2\n      mstore\n      0x20\n      add\n      swap1\n      dup2\n      mstore\n      0x20\n      add\n      0x00\n      keccak256\n        /* \"@openzeppelin/contracts-upgradeable/token/ERC20/ERC20Upgradeable.sol\":4428:4455  _allowances[owner][spender] */\n      0x00\n        /* \"@openzeppelin/contracts-upgradeable/token/ERC20/ERC20Upgradeable.sol\":4447:4454  spender */\n      dup4\n        /* \"@openzeppelin/contracts-upgradeable/token/ERC20/ERC20Upgradeable.sol\":4428:4455  _allowances[owner][spender] */\n      0xffffffffffffffffffffffffffffffffffffffff\n      and\n      0xffffffffffffffffffffffffffffffffffffffff\n      and\n      dup2\n      mstore\n      0x20\n      add\n      swap1\n      dup2\n      mstore\n      0x20\n      add\n      0x00\n      keccak256\n      sload\n        /* \"@openzeppelin/contracts-upgradeable/token/ERC20/ERC20Upgradeable.sol\":4421:4455  return _allowances[owner][spender] */\n      swap1\n      pop\n        /* \"@openzeppelin/contracts-upgradeable/token/ERC20/ERC20Upgradeable.sol\":4313:4462  function allowance(address owner, address spender) public view virtual override returns (uint256) {... */\n      swap3\n      swap2\n      pop\n      pop\n      jump\t// out\n        /* \"@openzeppelin/contracts-upgradeable/access/OwnableUpgradeable.sol\":2158:2356  function transferOwnership(address newOwner) public virtual onlyOwner {... */\n    tag_103:\n        /* \"@openzeppelin/contracts-upgradeable/access/OwnableUpgradeable.sol\":1499:1511  _msgSender() */\n      tag_207\n        /* \"@openzeppelin/contracts-upgradeable/access/OwnableUpgradeable.sol\":1499:1509  _msgSender */\n      tag_129\n        /* \"@openzeppelin/contracts-upgradeable/access/OwnableUpgradeable.sol\":1499:1511  _msgSender() */\n      jump\t// in\n    tag_207:\n        /* \"@openzeppelin/contracts-upgradeable/access/OwnableUpgradeable.sol\":1488:1511  owner() == _msgSender() */\n      0xffffffffffffffffffffffffffffffffffffffff\n      and\n        /* \"@openzeppelin/contracts-upgradeable/access/OwnableUpgradeable.sol\":1488:1495  owner() */\n      tag_208\n        /* \"@openzeppelin/contracts-upgradeable/access/OwnableUpgradeable.sol\":1488:1493  owner */\n      tag_78\n        /* \"@openzeppelin/contracts-upgradeable/access/OwnableUpgradeable.sol\":1488:1495  owner() */\n      jump\t// in\n    tag_208:\n        /* \"@openzeppelin/contracts-upgradeable/access/OwnableUpgradeable.sol\":1488:1511  owner() == _msgSender() */\n      0xffffffffffffffffffffffffffffffffffffffff\n      and\n      eq\n        /* \"@openzeppelin/contracts-upgradeable/access/OwnableUpgradeable.sol\":1480:1548  require(owner() == _msgSender(), \"Ownable: caller is not the owner\") */\n      tag_209\n      jumpi\n      mload(0x40)\n      0x08c379a000000000000000000000000000000000000000000000000000000000\n      dup2\n      mstore\n      0x04\n      add\n      tag_210\n      swap1\n      tag_177\n      jump\t// in\n    tag_210:\n      mload(0x40)\n      dup1\n      swap2\n      sub\n      swap1\n      revert\n    tag_209:\n        /* \"@openzeppelin/contracts-upgradeable/access/OwnableUpgradeable.sol\":2266:2267  0 */\n      0x00\n        /* \"@openzeppelin/contracts-upgradeable/access/OwnableUpgradeable.sol\":2246:2268  newOwner != address(0) */\n      0xffffffffffffffffffffffffffffffffffffffff\n      and\n        /* \"@openzeppelin/contracts-upgradeable/access/OwnableUpgradeable.sol\":2246:2254  newOwner */\n      dup2\n        /* \"@openzeppelin/contracts-upgradeable/access/OwnableUpgradeable.sol\":2246:2268  newOwner != address(0) */\n      0xffffffffffffffffffffffffffffffffffffffff\n      and\n      eq\n      iszero\n        /* \"@openzeppelin/contracts-upgradeable/access/OwnableUpgradeable.sol\":2238:2311  require(newOwner != address(0), \"Ownable: new owner is the zero address\") */\n      tag_212\n      jumpi\n      mload(0x40)\n      0x08c379a000000000000000000000000000000000000000000000000000000000\n      dup2\n      mstore\n      0x04\n      add\n      tag_213\n      swap1\n      tag_214\n      jump\t// in\n    tag_213:\n      mload(0x40)\n      dup1\n      swap2\n      sub\n      swap1\n      revert\n    tag_212:\n        /* \"@openzeppelin/contracts-upgradeable/access/OwnableUpgradeable.sol\":2321:2349  _transferOwnership(newOwner) */\n      tag_215\n        /* \"@openzeppelin/contracts-upgradeable/access/OwnableUpgradeable.sol\":2340:2348  newOwner */\n      dup2\n        /* \"@openzeppelin/contracts-upgradeable/access/OwnableUpgradeable.sol\":2321:2339  _transferOwnership */\n      tag_180\n        /* \"@openzeppelin/contracts-upgradeable/access/OwnableUpgradeable.sol\":2321:2349  _transferOwnership(newOwner) */\n      jump\t// in\n    tag_215:\n        /* \"@openzeppelin/contracts-upgradeable/access/OwnableUpgradeable.sol\":2158:2356  function transferOwnership(address newOwner) public virtual onlyOwner {... */\n      pop\n      jump\t// out\n        /* \"@openzeppelin/contracts-upgradeable/proxy/utils/Initializable.sol\":5287:6095  function _setInitializedVersion(uint8 version) private returns (bool) {... */\n    tag_113:\n        /* \"@openzeppelin/contracts-upgradeable/proxy/utils/Initializable.sol\":5351:5355  bool */\n      0x00\n        /* \"@openzeppelin/contracts-upgradeable/proxy/utils/Initializable.sol\":5684:5697  _initializing */\n      dup1\n      0x01\n      swap1\n      sload\n      swap1\n      0x0100\n      exp\n      swap1\n      div\n      0xff\n      and\n        /* \"@openzeppelin/contracts-upgradeable/proxy/utils/Initializable.sol\":5680:6089  if (_initializing) {... */\n      iszero\n      tag_217\n      jumpi\n        /* \"@openzeppelin/contracts-upgradeable/proxy/utils/Initializable.sol\":5749:5750  1 */\n      0x01\n        /* \"@openzeppelin/contracts-upgradeable/proxy/utils/Initializable.sol\":5738:5745  version */\n      dup3\n        /* \"@openzeppelin/contracts-upgradeable/proxy/utils/Initializable.sol\":5738:5750  version == 1 */\n      0xff\n      and\n      eq\n        /* \"@openzeppelin/contracts-upgradeable/proxy/utils/Initializable.sol\":5738:5799  version == 1 && !AddressUpgradeable.isContract(address(this)) */\n      dup1\n      iszero\n      tag_218\n      jumpi\n      pop\n        /* \"@openzeppelin/contracts-upgradeable/proxy/utils/Initializable.sol\":5755:5799  AddressUpgradeable.isContract(address(this)) */\n      tag_219\n        /* \"@openzeppelin/contracts-upgradeable/proxy/utils/Initializable.sol\":5793:5797  this */\n      address\n        /* \"@openzeppelin/contracts-upgradeable/proxy/utils/Initializable.sol\":5755:5784  AddressUpgradeable.isContract */\n      tag_220\n        /* \"@openzeppelin/contracts-upgradeable/proxy/utils/Initializable.sol\":5755:5799  AddressUpgradeable.isContract(address(this)) */\n      jump\t// in\n    tag_219:\n        /* \"@openzeppelin/contracts-upgradeable/proxy/utils/Initializable.sol\":5754:5799  !AddressUpgradeable.isContract(address(this)) */\n      iszero\n        /* \"@openzeppelin/contracts-upgradeable/proxy/utils/Initializable.sol\":5738:5799  version == 1 && !AddressUpgradeable.isContract(address(this)) */\n    tag_218:\n        /* \"@openzeppelin/contracts-upgradeable/proxy/utils/Initializable.sol\":5713:5879  require(... */\n      tag_221\n      jumpi\n      mload(0x40)\n      0x08c379a000000000000000000000000000000000000000000000000000000000\n      dup2\n      mstore\n      0x04\n      add\n      tag_222\n      swap1\n      tag_223\n      jump\t// in\n    tag_222:\n      mload(0x40)\n      dup1\n      swap2\n      sub\n      swap1\n      revert\n    tag_221:\n        /* \"@openzeppelin/contracts-upgradeable/proxy/utils/Initializable.sol\":5900:5905  false */\n      0x00\n        /* \"@openzeppelin/contracts-upgradeable/proxy/utils/Initializable.sol\":5893:5905  return false */\n      swap1\n      pop\n      jump(tag_216)\n        /* \"@openzeppelin/contracts-upgradeable/proxy/utils/Initializable.sol\":5680:6089  if (_initializing) {... */\n    tag_217:\n        /* \"@openzeppelin/contracts-upgradeable/proxy/utils/Initializable.sol\":5959:5966  version */\n      dup2\n        /* \"@openzeppelin/contracts-upgradeable/proxy/utils/Initializable.sol\":5944:5966  _initialized < version */\n      0xff\n      and\n        /* \"@openzeppelin/contracts-upgradeable/proxy/utils/Initializable.sol\":5944:5956  _initialized */\n      0x00\n      dup1\n      sload\n      swap1\n      0x0100\n      exp\n      swap1\n      div\n      0xff\n      and\n        /* \"@openzeppelin/contracts-upgradeable/proxy/utils/Initializable.sol\":5944:5966  _initialized < version */\n      0xff\n      and\n      lt\n        /* \"@openzeppelin/contracts-upgradeable/proxy/utils/Initializable.sol\":5936:6017  require(_initialized < version, \"Initializable: contract is already initialized\") */\n      tag_225\n      jumpi\n      mload(0x40)\n      0x08c379a000000000000000000000000000000000000000000000000000000000\n      dup2\n      mstore\n      0x04\n      add\n      tag_226\n      swap1\n      tag_223\n      jump\t// in\n    tag_226:\n      mload(0x40)\n      dup1\n      swap2\n      sub\n      swap1\n      revert\n    tag_225:\n        /* \"@openzeppelin/contracts-upgradeable/proxy/utils/Initializable.sol\":6046:6053  version */\n      dup2\n        /* \"@openzeppelin/contracts-upgradeable/proxy/utils/Initializable.sol\":6031:6043  _initialized */\n      0x00\n      dup1\n        /* \"@openzeppelin/contracts-upgradeable/proxy/utils/Initializable.sol\":6031:6053  _initialized = version */\n      0x0100\n      exp\n      dup2\n      sload\n      dup2\n      0xff\n      mul\n      not\n      and\n      swap1\n      dup4\n      0xff\n      and\n      mul\n      or\n      swap1\n      sstore\n      pop\n        /* \"@openzeppelin/contracts-upgradeable/proxy/utils/Initializable.sol\":6074:6078  true */\n      0x01\n        /* \"@openzeppelin/contracts-upgradeable/proxy/utils/Initializable.sol\":6067:6078  return true */\n      swap1\n      pop\n        /* \"@openzeppelin/contracts-upgradeable/proxy/utils/Initializable.sol\":5287:6095  function _setInitializedVersion(uint8 version) private returns (bool) {... */\n    tag_216:\n      swap2\n      swap1\n      pop\n      jump\t// out\n        /* \"@openzeppelin/contracts-upgradeable/token/ERC20/ERC20Upgradeable.sol\":2116:2263  function __ERC20_init(string memory name_, string memory symbol_) internal onlyInitializing {... */\n    tag_117:\n        /* \"@openzeppelin/contracts-upgradeable/proxy/utils/Initializable.sol\":4698:4711  _initializing */\n      0x00\n      0x01\n      swap1\n      sload\n      swap1\n      0x0100\n      exp\n      swap1\n      div\n      0xff\n      and\n        /* \"@openzeppelin/contracts-upgradeable/proxy/utils/Initializable.sol\":4690:4759  require(_initializing, \"Initializable: contract is not initializing\") */\n      tag_228\n      jumpi\n      mload(0x40)\n      0x08c379a000000000000000000000000000000000000000000000000000000000\n      dup2\n      mstore\n      0x04\n      add\n      tag_229\n      swap1\n      tag_230\n      jump\t// in\n    tag_229:\n      mload(0x40)\n      dup1\n      swap2\n      sub\n      swap1\n      revert\n    tag_228:\n        /* \"@openzeppelin/contracts-upgradeable/token/ERC20/ERC20Upgradeable.sol\":2218:2256  __ERC20_init_unchained(name_, symbol_) */\n      tag_232\n        /* \"@openzeppelin/contracts-upgradeable/token/ERC20/ERC20Upgradeable.sol\":2241:2246  name_ */\n      dup3\n        /* \"@openzeppelin/contracts-upgradeable/token/ERC20/ERC20Upgradeable.sol\":2248:2255  symbol_ */\n      dup3\n        /* \"@openzeppelin/contracts-upgradeable/token/ERC20/ERC20Upgradeable.sol\":2218:2240  __ERC20_init_unchained */\n      tag_233\n        /* \"@openzeppelin/contracts-upgradeable/token/ERC20/ERC20Upgradeable.sol\":2218:2256  __ERC20_init_unchained(name_, symbol_) */\n      jump\t// in\n    tag_232:\n        /* \"@openzeppelin/contracts-upgradeable/token/ERC20/ERC20Upgradeable.sol\":2116:2263  function __ERC20_init(string memory name_, string memory symbol_) internal onlyInitializing {... */\n      pop\n      pop\n      jump\t// out\n        /* \"@openzeppelin/contracts-upgradeable/access/OwnableUpgradeable.sol\":988:1083  function __Ownable_init() internal onlyInitializing {... */\n    tag_119:\n        /* \"@openzeppelin/contracts-upgradeable/proxy/utils/Initializable.sol\":4698:4711  _initializing */\n      0x00\n      0x01\n      swap1\n      sload\n      swap1\n      0x0100\n      exp\n      swap1\n      div\n      0xff\n      and\n        /* \"@openzeppelin/contracts-upgradeable/proxy/utils/Initializable.sol\":4690:4759  require(_initializing, \"Initializable: contract is not initializing\") */\n      tag_235\n      jumpi\n      mload(0x40)\n      0x08c379a000000000000000000000000000000000000000000000000000000000\n      dup2\n      mstore\n      0x04\n      add\n      tag_236\n      swap1\n      tag_230\n      jump\t// in\n    tag_236:\n      mload(0x40)\n      dup1\n      swap2\n      sub\n      swap1\n      revert\n    tag_235:\n        /* \"@openzeppelin/contracts-upgradeable/access/OwnableUpgradeable.sol\":1050:1076  __Ownable_init_unchained() */\n      tag_238\n        /* \"@openzeppelin/contracts-upgradeable/access/OwnableUpgradeable.sol\":1050:1074  __Ownable_init_unchained */\n      tag_239\n        /* \"@openzeppelin/contracts-upgradeable/access/OwnableUpgradeable.sol\":1050:1076  __Ownable_init_unchained() */\n      jump\t// in\n    tag_238:\n        /* \"@openzeppelin/contracts-upgradeable/access/OwnableUpgradeable.sol\":988:1083  function __Ownable_init() internal onlyInitializing {... */\n      jump\t// out\n        /* \"@openzeppelin/contracts-upgradeable/security/PausableUpgradeable.sol\":1048:1145  function __Pausable_init() internal onlyInitializing {... */\n    tag_121:\n        /* \"@openzeppelin/contracts-upgradeable/proxy/utils/Initializable.sol\":4698:4711  _initializing */\n      0x00\n      0x01\n      swap1\n      sload\n      swap1\n      0x0100\n      exp\n      swap1\n      div\n      0xff\n      and\n        /* \"@openzeppelin/contracts-upgradeable/proxy/utils/Initializable.sol\":4690:4759  require(_initializing, \"Initializable: contract is not initializing\") */\n      tag_241\n      jumpi\n      mload(0x40)\n      0x08c379a000000000000000000000000000000000000000000000000000000000\n      dup2\n      mstore\n      0x04\n      add\n      tag_242\n      swap1\n      tag_230\n      jump\t// in\n    tag_242:\n      mload(0x40)\n      dup1\n      swap2\n      sub\n      swap1\n      revert\n    tag_241:\n        /* \"@openzeppelin/contracts-upgradeable/security/PausableUpgradeable.sol\":1111:1138  __Pausable_init_unchained() */\n      tag_244\n        /* \"@openzeppelin/contracts-upgradeable/security/PausableUpgradeable.sol\":1111:1136  __Pausable_init_unchained */\n      tag_245\n        /* \"@openzeppelin/contracts-upgradeable/security/PausableUpgradeable.sol\":1111:1138  __Pausable_init_unchained() */\n      jump\t// in\n    tag_244:\n        /* \"@openzeppelin/contracts-upgradeable/security/PausableUpgradeable.sol\":1048:1145  function __Pausable_init() internal onlyInitializing {... */\n      jump\t// out\n        /* \"@openzeppelin/contracts-upgradeable/token/ERC20/ERC20Upgradeable.sol\":8748:9137  function _mint(address account, uint256 amount) internal virtual {... */\n    tag_123:\n        /* \"@openzeppelin/contracts-upgradeable/token/ERC20/ERC20Upgradeable.sol\":8850:8851  0 */\n      0x00\n        /* \"@openzeppelin/contracts-upgradeable/token/ERC20/ERC20Upgradeable.sol\":8831:8852  account != address(0) */\n      0xffffffffffffffffffffffffffffffffffffffff\n      and\n        /* \"@openzeppelin/contracts-upgradeable/token/ERC20/ERC20Upgradeable.sol\":8831:8838  account */\n      dup3\n        /* \"@openzeppelin/contracts-upgradeable/token/ERC20/ERC20Upgradeable.sol\":8831:8852  account != address(0) */\n      0xffffffffffffffffffffffffffffffffffffffff\n      and\n      eq\n      iszero\n        /* \"@openzeppelin/contracts-upgradeable/token/ERC20/ERC20Upgradeable.sol\":8823:8888  require(account != address(0), \"ERC20: mint to the zero address\") */\n      tag_247\n      jumpi\n      mload(0x40)\n      0x08c379a000000000000000000000000000000000000000000000000000000000\n      dup2\n      mstore\n      0x04\n      add\n      tag_248\n      swap1\n      tag_249\n      jump\t// in\n    tag_248:\n      mload(0x40)\n      dup1\n      swap2\n      sub\n      swap1\n      revert\n    tag_247:\n        /* \"@openzeppelin/contracts-upgradeable/token/ERC20/ERC20Upgradeable.sol\":8899:8948  _beforeTokenTransfer(address(0), account, amount) */\n      tag_250\n        /* \"@openzeppelin/contracts-upgradeable/token/ERC20/ERC20Upgradeable.sol\":8928:8929  0 */\n      0x00\n        /* \"@openzeppelin/contracts-upgradeable/token/ERC20/ERC20Upgradeable.sol\":8932:8939  account */\n      dup4\n        /* \"@openzeppelin/contracts-upgradeable/token/ERC20/ERC20Upgradeable.sol\":8941:8947  amount */\n      dup4\n        /* \"@openzeppelin/contracts-upgradeable/token/ERC20/ERC20Upgradeable.sol\":8899:8919  _beforeTokenTransfer */\n      tag_251\n        /* \"@openzeppelin/contracts-upgradeable/token/ERC20/ERC20Upgradeable.sol\":8899:8948  _beforeTokenTransfer(address(0), account, amount) */\n      jump\t// in\n    tag_250:\n        /* \"@openzeppelin/contracts-upgradeable/token/ERC20/ERC20Upgradeable.sol\":8975:8981  amount */\n      dup1\n        /* \"@openzeppelin/contracts-upgradeable/token/ERC20/ERC20Upgradeable.sol\":8959:8971  _totalSupply */\n      0x35\n      0x00\n        /* \"@openzeppelin/contracts-upgradeable/token/ERC20/ERC20Upgradeable.sol\":8959:8981  _totalSupply += amount */\n      dup3\n      dup3\n      sload\n      tag_252\n      swap2\n      swap1\n      tag_145\n      jump\t// in\n    tag_252:\n      swap3\n      pop\n      pop\n      dup2\n      swap1\n      sstore\n      pop\n        /* \"@openzeppelin/contracts-upgradeable/token/ERC20/ERC20Upgradeable.sol\":9013:9019  amount */\n      dup1\n        /* \"@openzeppelin/contracts-upgradeable/token/ERC20/ERC20Upgradeable.sol\":8991:9000  _balances */\n      0x33\n        /* \"@openzeppelin/contracts-upgradeable/token/ERC20/ERC20Upgradeable.sol\":8991:9009  _balances[account] */\n      0x00\n        /* \"@openzeppelin/contracts-upgradeable/token/ERC20/ERC20Upgradeable.sol\":9001:9008  account */\n      dup5\n        /* \"@openzeppelin/contracts-upgradeable/token/ERC20/ERC20Upgradeable.sol\":8991:9009  _balances[account] */\n      0xffffffffffffffffffffffffffffffffffffffff\n      and\n      0xffffffffffffffffffffffffffffffffffffffff\n      and\n      dup2\n      mstore\n      0x20\n      add\n      swap1\n      dup2\n      mstore\n      0x20\n      add\n      0x00\n      keccak256\n      0x00\n        /* \"@openzeppelin/contracts-upgradeable/token/ERC20/ERC20Upgradeable.sol\":8991:9019  _balances[account] += amount */\n      dup3\n      dup3\n      sload\n      tag_253\n      swap2\n      swap1\n      tag_145\n      jump\t// in\n    tag_253:\n      swap3\n      pop\n      pop\n      dup2\n      swap1\n      sstore\n      pop\n        /* \"@openzeppelin/contracts-upgradeable/token/ERC20/ERC20Upgradeable.sol\":9055:9062  account */\n      dup2\n        /* \"@openzeppelin/contracts-upgradeable/token/ERC20/ERC20Upgradeable.sol\":9034:9071  Transfer(address(0), account, amount) */\n      0xffffffffffffffffffffffffffffffffffffffff\n      and\n        /* \"@openzeppelin/contracts-upgradeable/token/ERC20/ERC20Upgradeable.sol\":9051:9052  0 */\n      0x00\n        /* \"@openzeppelin/contracts-upgradeable/token/ERC20/ERC20Upgradeable.sol\":9034:9071  Transfer(address(0), account, amount) */\n      0xffffffffffffffffffffffffffffffffffffffff\n      and\n      0xddf252ad1be2c89b69c2b068fc378daa952ba7f163c4a11628f55a4df523b3ef\n        /* \"@openzeppelin/contracts-upgradeable/token/ERC20/ERC20Upgradeable.sol\":9064:9070  amount */\n      dup4\n        /* \"@openzeppelin/contracts-upgradeable/token/ERC20/ERC20Upgradeable.sol\":9034:9071  Transfer(address(0), account, amount) */\n      mload(0x40)\n      tag_254\n      swap2\n      swap1\n      tag_43\n      jump\t// in\n    tag_254:\n      mload(0x40)\n      dup1\n      swap2\n      sub\n      swap1\n      log3\n        /* \"@openzeppelin/contracts-upgradeable/token/ERC20/ERC20Upgradeable.sol\":9082:9130  _afterTokenTransfer(address(0), account, amount) */\n      tag_255\n        /* \"@openzeppelin/contracts-upgradeable/token/ERC20/ERC20Upgradeable.sol\":9110:9111  0 */\n      0x00\n        /* \"@openzeppelin/contracts-upgradeable/token/ERC20/ERC20Upgradeable.sol\":9114:9121  account */\n      dup4\n        /* \"@openzeppelin/contracts-upgradeable/token/ERC20/ERC20Upgradeable.sol\":9123:9129  amount */\n      dup4\n        /* \"@openzeppelin/contracts-upgradeable/token/ERC20/ERC20Upgradeable.sol\":9082:9101  _afterTokenTransfer */\n      tag_256\n        /* \"@openzeppelin/contracts-upgradeable/token/ERC20/ERC20Upgradeable.sol\":9082:9130  _afterTokenTransfer(address(0), account, amount) */\n      jump\t// in\n    tag_255:\n        /* \"@openzeppelin/contracts-upgradeable/token/ERC20/ERC20Upgradeable.sol\":8748:9137  function _mint(address account, uint256 amount) internal virtual {... */\n      pop\n      pop\n      jump\t// out\n        /* \"@openzeppelin/contracts-upgradeable/utils/ContextUpgradeable.sol\":850:946  function _msgSender() internal view virtual returns (address) {... */\n    tag_129:\n        /* \"@openzeppelin/contracts-upgradeable/utils/ContextUpgradeable.sol\":903:910  address */\n      0x00\n        /* \"@openzeppelin/contracts-upgradeable/utils/ContextUpgradeable.sol\":929:939  msg.sender */\n      caller\n        /* \"@openzeppelin/contracts-upgradeable/utils/ContextUpgradeable.sol\":922:939  return msg.sender */\n      swap1\n      pop\n        /* \"@openzeppelin/contracts-upgradeable/utils/ContextUpgradeable.sol\":850:946  function _msgSender() internal view virtual returns (address) {... */\n      swap1\n      jump\t// out\n        /* \"@openzeppelin/contracts-upgradeable/token/ERC20/ERC20Upgradeable.sol\":10456:10826  function _approve(... */\n    tag_131:\n        /* \"@openzeppelin/contracts-upgradeable/token/ERC20/ERC20Upgradeable.sol\":10604:10605  0 */\n      0x00\n        /* \"@openzeppelin/contracts-upgradeable/token/ERC20/ERC20Upgradeable.sol\":10587:10606  owner != address(0) */\n      0xffffffffffffffffffffffffffffffffffffffff\n      and\n        /* \"@openzeppelin/contracts-upgradeable/token/ERC20/ERC20Upgradeable.sol\":10587:10592  owner */\n      dup4\n        /* \"@openzeppelin/contracts-upgradeable/token/ERC20/ERC20Upgradeable.sol\":10587:10606  owner != address(0) */\n      0xffffffffffffffffffffffffffffffffffffffff\n      and\n      eq\n      iszero\n        /* \"@openzeppelin/contracts-upgradeable/token/ERC20/ERC20Upgradeable.sol\":10579:10647  require(owner != address(0), \"ERC20: approve from the zero address\") */\n      tag_259\n      jumpi\n      mload(0x40)\n      0x08c379a000000000000000000000000000000000000000000000000000000000\n      dup2\n      mstore\n      0x04\n      add\n      tag_260\n      swap1\n      tag_261\n      jump\t// in\n    tag_260:\n      mload(0x40)\n      dup1\n      swap2\n      sub\n      swap1\n      revert\n    tag_259:\n        /* \"@openzeppelin/contracts-upgradeable/token/ERC20/ERC20Upgradeable.sol\":10684:10685  0 */\n      0x00\n        /* \"@openzeppelin/contracts-upgradeable/token/ERC20/ERC20Upgradeable.sol\":10665:10686  spender != address(0) */\n      0xffffffffffffffffffffffffffffffffffffffff\n      and\n        /* \"@openzeppelin/contracts-upgradeable/token/ERC20/ERC20Upgradeable.sol\":10665:10672  spender */\n      dup3\n        /* \"@openzeppelin/contracts-upgradeable/token/ERC20/ERC20Upgradeable.sol\":10665:10686  spender != address(0) */\n      0xffffffffffffffffffffffffffffffffffffffff\n      and\n      eq\n      iszero\n        /* \"@openzeppelin/contracts-upgradeable/token/ERC20/ERC20Upgradeable.sol\":10657:10725  require(spender != address(0), \"ERC20: approve to the zero address\") */\n      tag_262\n      jumpi\n      mload(0x40)\n      0x08c379a000000000000000000000000000000000000000000000000000000000\n      dup2\n      mstore\n      0x04\n      add\n      tag_263\n      swap1\n      tag_264\n      jump\t// in\n    tag_263:\n      mload(0x40)\n      dup1\n      swap2\n      sub\n      swap1\n      revert\n    tag_262:\n        /* \"@openzeppelin/contracts-upgradeable/token/ERC20/ERC20Upgradeable.sol\":10766:10772  amount */\n      dup1\n        /* \"@openzeppelin/contracts-upgradeable/token/ERC20/ERC20Upgradeable.sol\":10736:10747  _allowances */\n      0x34\n        /* \"@openzeppelin/contracts-upgradeable/token/ERC20/ERC20Upgradeable.sol\":10736:10754  _allowances[owner] */\n      0x00\n        /* \"@openzeppelin/contracts-upgradeable/token/ERC20/ERC20Upgradeable.sol\":10748:10753  owner */\n      dup6\n        /* \"@openzeppelin/contracts-upgradeable/token/ERC20/ERC20Upgradeable.sol\":10736:10754  _allowances[owner] */\n      0xffffffffffffffffffffffffffffffffffffffff\n      and\n      0xffffffffffffffffffffffffffffffffffffffff\n      and\n      dup2\n      mstore\n      0x20\n      add\n      swap1\n      dup2\n      mstore\n      0x20\n      add\n      0x00\n      keccak256\n        /* \"@openzeppelin/contracts-upgradeable/token/ERC20/ERC20Upgradeable.sol\":10736:10763  _allowances[owner][spender] */\n      0x00\n        /* \"@openzeppelin/contracts-upgradeable/token/ERC20/ERC20Upgradeable.sol\":10755:10762  spender */\n      dup5\n        /* \"@openzeppelin/contracts-upgradeable/token/ERC20/ERC20Upgradeable.sol\":10736:10763  _allowances[owner][spender] */\n      0xffffffffffffffffffffffffffffffffffffffff\n      and\n      0xffffffffffffffffffffffffffffffffffffffff\n      and\n      dup2\n      mstore\n      0x20\n      add\n      swap1\n      dup2\n      mstore\n      0x20\n      add\n      0x00\n      keccak256\n        /* \"@openzeppelin/contracts-upgradeable/token/ERC20/ERC20Upgradeable.sol\":10736:10772  _allowances[owner][spender] = amount */\n      dup2\n      swap1\n      sstore\n      pop\n        /* \"@openzeppelin/contracts-upgradeable/token/ERC20/ERC20Upgradeable.sol\":10803:10810  spender */\n      dup2\n        /* \"@openzeppelin/contracts-upgradeable/token/ERC20/ERC20Upgradeable.sol\":10787:10819  Approval(owner, spender, amount) */\n      0xffffffffffffffffffffffffffffffffffffffff\n      and\n        /* \"@openzeppelin/contracts-upgradeable/token/ERC20/ERC20Upgradeable.sol\":10796:10801  owner */\n      dup4\n        /* \"@openzeppelin/contracts-upgradeable/token/ERC20/ERC20Upgradeable.sol\":10787:10819  Approval(owner, spender, amount) */\n      0xffffffffffffffffffffffffffffffffffffffff\n      and\n      0x8c5be1e5ebec7d5bd14f71427d1e84f3dd0314c0f7b2291e5b200ac8c7c3b925\n        /* \"@openzeppelin/contracts-upgradeable/token/ERC20/ERC20Upgradeable.sol\":10812:10818  amount */\n      dup4\n        /* \"@openzeppelin/contracts-upgradeable/token/ERC20/ERC20Upgradeable.sol\":10787:10819  Approval(owner, spender, amount) */\n      mload(0x40)\n      tag_265\n      swap2\n      swap1\n      tag_43\n      jump\t// in\n    tag_265:\n      mload(0x40)\n      dup1\n      swap2\n      sub\n      swap1\n      log3\n        /* \"@openzeppelin/contracts-upgradeable/token/ERC20/ERC20Upgradeable.sol\":10456:10826  function _approve(... */\n      pop\n      pop\n      pop\n      jump\t// out\n        /* \"@openzeppelin/contracts-upgradeable/token/ERC20/ERC20Upgradeable.sol\":11107:11548  function _spendAllowance(... */\n    tag_136:\n        /* \"@openzeppelin/contracts-upgradeable/token/ERC20/ERC20Upgradeable.sol\":11237:11261  uint256 currentAllowance */\n      0x00\n        /* \"@openzeppelin/contracts-upgradeable/token/ERC20/ERC20Upgradeable.sol\":11264:11289  allowance(owner, spender) */\n      tag_267\n        /* \"@openzeppelin/contracts-upgradeable/token/ERC20/ERC20Upgradeable.sol\":11274:11279  owner */\n      dup5\n        /* \"@openzeppelin/contracts-upgradeable/token/ERC20/ERC20Upgradeable.sol\":11281:11288  spender */\n      dup5\n        /* \"@openzeppelin/contracts-upgradeable/token/ERC20/ERC20Upgradeable.sol\":11264:11273  allowance */\n      tag_99\n        /* \"@openzeppelin/contracts-upgradeable/token/ERC20/ERC20Upgradeable.sol\":11264:11289  allowance(owner, spender) */\n      jump\t// in\n    tag_267:\n        /* \"@openzeppelin/contracts-upgradeable/token/ERC20/ERC20Upgradeable.sol\":11237:11289  uint256 currentAllowance = allowance(owner, spender) */\n      swap1\n      pop\n        /* \"@openzeppelin/contracts-upgradeable/token/ERC20/ERC20Upgradeable.sol\":11323:11340  type(uint256).max */\n      0xffffffffffffffffffffffffffffffffffffffffffffffffffffffffffffffff\n        /* \"@openzeppelin/contracts-upgradeable/token/ERC20/ERC20Upgradeable.sol\":11303:11319  currentAllowance */\n      dup2\n        /* \"@openzeppelin/contracts-upgradeable/token/ERC20/ERC20Upgradeable.sol\":11303:11340  currentAllowance != type(uint256).max */\n      eq\n        /* \"@openzeppelin/contracts-upgradeable/token/ERC20/ERC20Upgradeable.sol\":11299:11542  if (currentAllowance != type(uint256).max) {... */\n      tag_268\n      jumpi\n        /* \"@openzeppelin/contracts-upgradeable/token/ERC20/ERC20Upgradeable.sol\":11384:11390  amount */\n      dup2\n        /* \"@openzeppelin/contracts-upgradeable/token/ERC20/ERC20Upgradeable.sol\":11364:11380  currentAllowance */\n      dup2\n        /* \"@openzeppelin/contracts-upgradeable/token/ERC20/ERC20Upgradeable.sol\":11364:11390  currentAllowance >= amount */\n      lt\n      iszero\n        /* \"@openzeppelin/contracts-upgradeable/token/ERC20/ERC20Upgradeable.sol\":11356:11424  require(currentAllowance >= amount, \"ERC20: insufficient allowance\") */\n      tag_269\n      jumpi\n      mload(0x40)\n      0x08c379a000000000000000000000000000000000000000000000000000000000\n      dup2\n      mstore\n      0x04\n      add\n      tag_270\n      swap1\n      tag_271\n      jump\t// in\n    tag_270:\n      mload(0x40)\n      dup1\n      swap2\n      sub\n      swap1\n      revert\n    tag_269:\n        /* \"@openzeppelin/contracts-upgradeable/token/ERC20/ERC20Upgradeable.sol\":11466:11517  _approve(owner, spender, currentAllowance - amount) */\n      tag_272\n        /* \"@openzeppelin/contracts-upgradeable/token/ERC20/ERC20Upgradeable.sol\":11475:11480  owner */\n      dup5\n        /* \"@openzeppelin/contracts-upgradeable/token/ERC20/ERC20Upgradeable.sol\":11482:11489  spender */\n      dup5\n        /* \"@openzeppelin/contracts-upgradeable/token/ERC20/ERC20Upgradeable.sol\":11510:11516  amount */\n      dup5\n        /* \"@openzeppelin/contracts-upgradeable/token/ERC20/ERC20Upgradeable.sol\":11491:11507  currentAllowance */\n      dup5\n        /* \"@openzeppelin/contracts-upgradeable/token/ERC20/ERC20Upgradeable.sol\":11491:11516  currentAllowance - amount */\n      sub\n        /* \"@openzeppelin/contracts-upgradeable/token/ERC20/ERC20Upgradeable.sol\":11466:11474  _approve */\n      tag_131\n        /* \"@openzeppelin/contracts-upgradeable/token/ERC20/ERC20Upgradeable.sol\":11466:11517  _approve(owner, spender, currentAllowance - amount) */\n      jump\t// in\n    tag_272:\n        /* \"@openzeppelin/contracts-upgradeable/token/ERC20/ERC20Upgradeable.sol\":11299:11542  if (currentAllowance != type(uint256).max) {... */\n    tag_268:\n        /* \"@openzeppelin/contracts-upgradeable/token/ERC20/ERC20Upgradeable.sol\":11107:11548  function _spendAllowance(... */\n      pop\n      pop\n      pop\n      pop\n      jump\t// out\n        /* \"@openzeppelin/contracts-upgradeable/token/ERC20/ERC20Upgradeable.sol\":7821:8472  function _transfer(... */\n    tag_138:\n        /* \"@openzeppelin/contracts-upgradeable/token/ERC20/ERC20Upgradeable.sol\":7963:7964  0 */\n      0x00\n        /* \"@openzeppelin/contracts-upgradeable/token/ERC20/ERC20Upgradeable.sol\":7947:7965  from != address(0) */\n      0xffffffffffffffffffffffffffffffffffffffff\n      and\n        /* \"@openzeppelin/contracts-upgradeable/token/ERC20/ERC20Upgradeable.sol\":7947:7951  from */\n      dup4\n        /* \"@openzeppelin/contracts-upgradeable/token/ERC20/ERC20Upgradeable.sol\":7947:7965  from != address(0) */\n      0xffffffffffffffffffffffffffffffffffffffff\n      and\n      eq\n      iszero\n        /* \"@openzeppelin/contracts-upgradeable/token/ERC20/ERC20Upgradeable.sol\":7939:8007  require(from != address(0), \"ERC20: transfer from the zero address\") */\n      tag_274\n      jumpi\n      mload(0x40)\n      0x08c379a000000000000000000000000000000000000000000000000000000000\n      dup2\n      mstore\n      0x04\n      add\n      tag_275\n      swap1\n      tag_276\n      jump\t// in\n    tag_275:\n      mload(0x40)\n      dup1\n      swap2\n      sub\n      swap1\n      revert\n    tag_274:\n        /* \"@openzeppelin/contracts-upgradeable/token/ERC20/ERC20Upgradeable.sol\":8039:8040  0 */\n      0x00\n        /* \"@openzeppelin/contracts-upgradeable/token/ERC20/ERC20Upgradeable.sol\":8025:8041  to != address(0) */\n      0xffffffffffffffffffffffffffffffffffffffff\n      and\n        /* \"@openzeppelin/contracts-upgradeable/token/ERC20/ERC20Upgradeable.sol\":8025:8027  to */\n      dup3\n        /* \"@openzeppelin/contracts-upgradeable/token/ERC20/ERC20Upgradeable.sol\":8025:8041  to != address(0) */\n      0xffffffffffffffffffffffffffffffffffffffff\n      and\n      eq\n      iszero\n        /* \"@openzeppelin/contracts-upgradeable/token/ERC20/ERC20Upgradeable.sol\":8017:8081  require(to != address(0), \"ERC20: transfer to the zero address\") */\n      tag_277\n      jumpi\n      mload(0x40)\n      0x08c379a000000000000000000000000000000000000000000000000000000000\n      dup2\n      mstore\n      0x04\n      add\n      tag_278\n      swap1\n      tag_279\n      jump\t// in\n    tag_278:\n      mload(0x40)\n      dup1\n      swap2\n      sub\n      swap1\n      revert\n    tag_277:\n        /* \"@openzeppelin/contracts-upgradeable/token/ERC20/ERC20Upgradeable.sol\":8092:8130  _beforeTokenTransfer(from, to, amount) */\n      tag_280\n        /* \"@openzeppelin/contracts-upgradeable/token/ERC20/ERC20Upgradeable.sol\":8113:8117  from */\n      dup4\n        /* \"@openzeppelin/contracts-upgradeable/token/ERC20/ERC20Upgradeable.sol\":8119:8121  to */\n      dup4\n        /* \"@openzeppelin/contracts-upgradeable/token/ERC20/ERC20Upgradeable.sol\":8123:8129  amount */\n      dup4\n        /* \"@openzeppelin/contracts-upgradeable/token/ERC20/ERC20Upgradeable.sol\":8092:8112  _beforeTokenTransfer */\n      tag_251\n        /* \"@openzeppelin/contracts-upgradeable/token/ERC20/ERC20Upgradeable.sol\":8092:8130  _beforeTokenTransfer(from, to, amount) */\n      jump\t// in\n    tag_280:\n        /* \"@openzeppelin/contracts-upgradeable/token/ERC20/ERC20Upgradeable.sol\":8141:8160  uint256 fromBalance */\n      0x00\n        /* \"@openzeppelin/contracts-upgradeable/token/ERC20/ERC20Upgradeable.sol\":8163:8172  _balances */\n      0x33\n        /* \"@openzeppelin/contracts-upgradeable/token/ERC20/ERC20Upgradeable.sol\":8163:8178  _balances[from] */\n      0x00\n        /* \"@openzeppelin/contracts-upgradeable/token/ERC20/ERC20Upgradeable.sol\":8173:8177  from */\n      dup6\n        /* \"@openzeppelin/contracts-upgradeable/token/ERC20/ERC20Upgradeable.sol\":8163:8178  _balances[from] */\n      0xffffffffffffffffffffffffffffffffffffffff\n      and\n      0xffffffffffffffffffffffffffffffffffffffff\n      and\n      dup2\n      mstore\n      0x20\n      add\n      swap1\n      dup2\n      mstore\n      0x20\n      add\n      0x00\n      keccak256\n      sload\n        /* \"@openzeppelin/contracts-upgradeable/token/ERC20/ERC20Upgradeable.sol\":8141:8178  uint256 fromBalance = _balances[from] */\n      swap1\n      pop\n        /* \"@openzeppelin/contracts-upgradeable/token/ERC20/ERC20Upgradeable.sol\":8211:8217  amount */\n      dup2\n        /* \"@openzeppelin/contracts-upgradeable/token/ERC20/ERC20Upgradeable.sol\":8196:8207  fromBalance */\n      dup2\n        /* \"@openzeppelin/contracts-upgradeable/token/ERC20/ERC20Upgradeable.sol\":8196:8217  fromBalance >= amount */\n      lt\n      iszero\n        /* \"@openzeppelin/contracts-upgradeable/token/ERC20/ERC20Upgradeable.sol\":8188:8260  require(fromBalance >= amount, \"ERC20: transfer amount exceeds balance\") */\n      tag_281\n      jumpi\n      mload(0x40)\n      0x08c379a000000000000000000000000000000000000000000000000000000000\n      dup2\n      mstore\n      0x04\n      add\n      tag_282\n      swap1\n      tag_283\n      jump\t// in\n    tag_282:\n      mload(0x40)\n      dup1\n      swap2\n      sub\n      swap1\n      revert\n    tag_281:\n        /* \"@openzeppelin/contracts-upgradeable/token/ERC20/ERC20Upgradeable.sol\":8326:8332  amount */\n      dup2\n        /* \"@openzeppelin/contracts-upgradeable/token/ERC20/ERC20Upgradeable.sol\":8312:8323  fromBalance */\n      dup2\n        /* \"@openzeppelin/contracts-upgradeable/token/ERC20/ERC20Upgradeable.sol\":8312:8332  fromBalance - amount */\n      sub\n        /* \"@openzeppelin/contracts-upgradeable/token/ERC20/ERC20Upgradeable.sol\":8294:8303  _balances */\n      0x33\n        /* \"@openzeppelin/contracts-upgradeable/token/ERC20/ERC20Upgradeable.sol\":8294:8309  _balances[from] */\n      0x00\n        /* \"@openzeppelin/contracts-upgradeable/token/ERC20/ERC20Upgradeable.sol\":8304:8308  from */\n      dup7\n        /* \"@openzeppelin/contracts-upgradeable/token/ERC20/ERC20Upgradeable.sol\":8294:8309  _balances[from] */\n      0xffffffffffffffffffffffffffffffffffffffff\n      and\n      0xffffffffffffffffffffffffffffffffffffffff\n      and\n      dup2\n      mstore\n      0x20\n      add\n      swap1\n      dup2\n      mstore\n      0x20\n      add\n      0x00\n      keccak256\n        /* \"@openzeppelin/contracts-upgradeable/token/ERC20/ERC20Upgradeable.sol\":8294:8332  _balances[from] = fromBalance - amount */\n      dup2\n      swap1\n      sstore\n      pop\n        /* \"@openzeppelin/contracts-upgradeable/token/ERC20/ERC20Upgradeable.sol\":8369:8375  amount */\n      dup2\n        /* \"@openzeppelin/contracts-upgradeable/token/ERC20/ERC20Upgradeable.sol\":8352:8361  _balances */\n      0x33\n        /* \"@openzeppelin/contracts-upgradeable/token/ERC20/ERC20Upgradeable.sol\":8352:8365  _balances[to] */\n      0x00\n        /* \"@openzeppelin/contracts-upgradeable/token/ERC20/ERC20Upgradeable.sol\":8362:8364  to */\n      dup6\n        /* \"@openzeppelin/contracts-upgradeable/token/ERC20/ERC20Upgradeable.sol\":8352:8365  _balances[to] */\n      0xffffffffffffffffffffffffffffffffffffffff\n      and\n      0xffffffffffffffffffffffffffffffffffffffff\n      and\n      dup2\n      mstore\n      0x20\n      add\n      swap1\n      dup2\n      mstore\n      0x20\n      add\n      0x00\n      keccak256\n      0x00\n        /* \"@openzeppelin/contracts-upgradeable/token/ERC20/ERC20Upgradeable.sol\":8352:8375  _balances[to] += amount */\n      dup3\n      dup3\n      sload\n      tag_284\n      swap2\n      swap1\n      tag_145\n      jump\t// in\n    tag_284:\n      swap3\n      pop\n      pop\n      dup2\n      swap1\n      sstore\n      pop\n        /* \"@openzeppelin/contracts-upgradeable/token/ERC20/ERC20Upgradeable.sol\":8406:8408  to */\n      dup3\n        /* \"@openzeppelin/contracts-upgradeable/token/ERC20/ERC20Upgradeable.sol\":8391:8417  Transfer(from, to, amount) */\n      0xffffffffffffffffffffffffffffffffffffffff\n      and\n        /* \"@openzeppelin/contracts-upgradeable/token/ERC20/ERC20Upgradeable.sol\":8400:8404  from */\n      dup5\n        /* \"@openzeppelin/contracts-upgradeable/token/ERC20/ERC20Upgradeable.sol\":8391:8417  Transfer(from, to, amount) */\n      0xffffffffffffffffffffffffffffffffffffffff\n      and\n      0xddf252ad1be2c89b69c2b068fc378daa952ba7f163c4a11628f55a4df523b3ef\n        /* \"@openzeppelin/contracts-upgradeable/token/ERC20/ERC20Upgradeable.sol\":8410:8416  amount */\n      dup5\n        /* \"@openzeppelin/contracts-upgradeable/token/ERC20/ERC20Upgradeable.sol\":8391:8417  Transfer(from, to, amount) */\n      mload(0x40)\n      tag_285\n      swap2\n      swap1\n      tag_43\n      jump\t// in\n    tag_285:\n      mload(0x40)\n      dup1\n      swap2\n      sub\n      swap1\n      log3\n        /* \"@openzeppelin/contracts-upgradeable/token/ERC20/ERC20Upgradeable.sol\":8428:8465  _afterTokenTransfer(from, to, amount) */\n      tag_286\n        /* \"@openzeppelin/contracts-upgradeable/token/ERC20/ERC20Upgradeable.sol\":8448:8452  from */\n      dup5\n        /* \"@openzeppelin/contracts-upgradeable/token/ERC20/ERC20Upgradeable.sol\":8454:8456  to */\n      dup5\n        /* \"@openzeppelin/contracts-upgradeable/token/ERC20/ERC20Upgradeable.sol\":8458:8464  amount */\n      dup5\n        /* \"@openzeppelin/contracts-upgradeable/token/ERC20/ERC20Upgradeable.sol\":8428:8447  _afterTokenTransfer */\n      tag_256\n        /* \"@openzeppelin/contracts-upgradeable/token/ERC20/ERC20Upgradeable.sol\":8428:8465  _afterTokenTransfer(from, to, amount) */\n      jump\t// in\n    tag_286:\n        /* \"@openzeppelin/contracts-upgradeable/token/ERC20/ERC20Upgradeable.sol\":7821:8472  function _transfer(... */\n      pop\n      pop\n      pop\n      pop\n      jump\t// out\n        /* \"@openzeppelin/contracts-upgradeable/access/OwnableUpgradeable.sol\":2510:2697  function _transferOwnership(address newOwner) internal virtual {... */\n    tag_180:\n        /* \"@openzeppelin/contracts-upgradeable/access/OwnableUpgradeable.sol\":2583:2599  address oldOwner */\n      0x00\n        /* \"@openzeppelin/contracts-upgradeable/access/OwnableUpgradeable.sol\":2602:2608  _owner */\n      0x65\n      0x00\n      swap1\n      sload\n      swap1\n      0x0100\n      exp\n      swap1\n      div\n      0xffffffffffffffffffffffffffffffffffffffff\n      and\n        /* \"@openzeppelin/contracts-upgradeable/access/OwnableUpgradeable.sol\":2583:2608  address oldOwner = _owner */\n      swap1\n      pop\n        /* \"@openzeppelin/contracts-upgradeable/access/OwnableUpgradeable.sol\":2627:2635  newOwner */\n      dup2\n        /* \"@openzeppelin/contracts-upgradeable/access/OwnableUpgradeable.sol\":2618:2624  _owner */\n      0x65\n      0x00\n        /* \"@openzeppelin/contracts-upgradeable/access/OwnableUpgradeable.sol\":2618:2635  _owner = newOwner */\n      0x0100\n      exp\n      dup2\n      sload\n      dup2\n      0xffffffffffffffffffffffffffffffffffffffff\n      mul\n      not\n      and\n      swap1\n      dup4\n      0xffffffffffffffffffffffffffffffffffffffff\n      and\n      mul\n      or\n      swap1\n      sstore\n      pop\n        /* \"@openzeppelin/contracts-upgradeable/access/OwnableUpgradeable.sol\":2681:2689  newOwner */\n      dup2\n        /* \"@openzeppelin/contracts-upgradeable/access/OwnableUpgradeable.sol\":2650:2690  OwnershipTransferred(oldOwner, newOwner) */\n      0xffffffffffffffffffffffffffffffffffffffff\n      and\n        /* \"@openzeppelin/contracts-upgradeable/access/OwnableUpgradeable.sol\":2671:2679  oldOwner */\n      dup2\n        /* \"@openzeppelin/contracts-upgradeable/access/OwnableUpgradeable.sol\":2650:2690  OwnershipTransferred(oldOwner, newOwner) */\n      0xffffffffffffffffffffffffffffffffffffffff\n      and\n      0x8be0079c531659141344cd1fd0a4f28419497f9722a3daafe3b4186f6b6457e0\n      mload(0x40)\n      mload(0x40)\n      dup1\n      swap2\n      sub\n      swap1\n      log3\n        /* \"@openzeppelin/contracts-upgradeable/access/OwnableUpgradeable.sol\":2510:2697  function _transferOwnership(address newOwner) internal virtual {... */\n      pop\n      pop\n      jump\t// out\n        /* \"@openzeppelin/contracts-upgradeable/utils/AddressUpgradeable.sol\":1186:1506  function isContract(address account) internal view returns (bool) {... */\n    tag_220:\n        /* \"@openzeppelin/contracts-upgradeable/utils/AddressUpgradeable.sol\":1246:1250  bool */\n      0x00\n        /* \"@openzeppelin/contracts-upgradeable/utils/AddressUpgradeable.sol\":1498:1499  0 */\n      dup1\n        /* \"@openzeppelin/contracts-upgradeable/utils/AddressUpgradeable.sol\":1476:1483  account */\n      dup3\n        /* \"@openzeppelin/contracts-upgradeable/utils/AddressUpgradeable.sol\":1476:1495  account.code.length */\n      0xffffffffffffffffffffffffffffffffffffffff\n      and\n      extcodesize\n        /* \"@openzeppelin/contracts-upgradeable/utils/AddressUpgradeable.sol\":1476:1499  account.code.length > 0 */\n      gt\n        /* \"@openzeppelin/contracts-upgradeable/utils/AddressUpgradeable.sol\":1469:1499  return account.code.length > 0 */\n      swap1\n      pop\n        /* \"@openzeppelin/contracts-upgradeable/utils/AddressUpgradeable.sol\":1186:1506  function isContract(address account) internal view returns (bool) {... */\n      swap2\n      swap1\n      pop\n      jump\t// out\n        /* \"@openzeppelin/contracts-upgradeable/token/ERC20/ERC20Upgradeable.sol\":2269:2428  function __ERC20_init_unchained(string memory name_, string memory symbol_) internal onlyInitializing {... */\n    tag_233:\n        /* \"@openzeppelin/contracts-upgradeable/proxy/utils/Initializable.sol\":4698:4711  _initializing */\n      0x00\n      0x01\n      swap1\n      sload\n      swap1\n      0x0100\n      exp\n      swap1\n      div\n      0xff\n      and\n        /* \"@openzeppelin/contracts-upgradeable/proxy/utils/Initializable.sol\":4690:4759  require(_initializing, \"Initializable: contract is not initializing\") */\n      tag_290\n      jumpi\n      mload(0x40)\n      0x08c379a000000000000000000000000000000000000000000000000000000000\n      dup2\n      mstore\n      0x04\n      add\n      tag_291\n      swap1\n      tag_230\n      jump\t// in\n    tag_291:\n      mload(0x40)\n      dup1\n      swap2\n      sub\n      swap1\n      revert\n    tag_290:\n        /* \"@openzeppelin/contracts-upgradeable/token/ERC20/ERC20Upgradeable.sol\":2389:2394  name_ */\n      dup2\n        /* \"@openzeppelin/contracts-upgradeable/token/ERC20/ERC20Upgradeable.sol\":2381:2386  _name */\n      0x36\n        /* \"@openzeppelin/contracts-upgradeable/token/ERC20/ERC20Upgradeable.sol\":2381:2394  _name = name_ */\n      swap1\n      dup1\n      mload\n      swap1\n      0x20\n      add\n      swap1\n      tag_293\n      swap3\n      swap2\n      swap1\n      tag_294\n      jump\t// in\n    tag_293:\n      pop\n        /* \"@openzeppelin/contracts-upgradeable/token/ERC20/ERC20Upgradeable.sol\":2414:2421  symbol_ */\n      dup1\n        /* \"@openzeppelin/contracts-upgradeable/token/ERC20/ERC20Upgradeable.sol\":2404:2411  _symbol */\n      0x37\n        /* \"@openzeppelin/contracts-upgradeable/token/ERC20/ERC20Upgradeable.sol\":2404:2421  _symbol = symbol_ */\n      swap1\n      dup1\n      mload\n      swap1\n      0x20\n      add\n      swap1\n      tag_295\n      swap3\n      swap2\n      swap1\n      tag_294\n      jump\t// in\n    tag_295:\n      pop\n        /* \"@openzeppelin/contracts-upgradeable/token/ERC20/ERC20Upgradeable.sol\":2269:2428  function __ERC20_init_unchained(string memory name_, string memory symbol_) internal onlyInitializing {... */\n      pop\n      pop\n      jump\t// out\n        /* \"@openzeppelin/contracts-upgradeable/access/OwnableUpgradeable.sol\":1089:1200  function __Ownable_init_unchained() internal onlyInitializing {... */\n    tag_239:\n        /* \"@openzeppelin/contracts-upgradeable/proxy/utils/Initializable.sol\":4698:4711  _initializing */\n      0x00\n      0x01\n      swap1\n      sload\n      swap1\n      0x0100\n      exp\n      swap1\n      div\n      0xff\n      and\n        /* \"@openzeppelin/contracts-upgradeable/proxy/utils/Initializable.sol\":4690:4759  require(_initializing, \"Initializable: contract is not initializing\") */\n      tag_297\n      jumpi\n      mload(0x40)\n      0x08c379a000000000000000000000000000000000000000000000000000000000\n      dup2\n      mstore\n      0x04\n      add\n      tag_298\n      swap1\n      tag_230\n      jump\t// in\n    tag_298:\n      mload(0x40)\n      dup1\n      swap2\n      sub\n      swap1\n      revert\n    tag_297:\n        /* \"@openzeppelin/contracts-upgradeable/access/OwnableUpgradeable.sol\":1161:1193  _transferOwnership(_msgSender()) */\n      tag_300\n        /* \"@openzeppelin/contracts-upgradeable/access/OwnableUpgradeable.sol\":1180:1192  _msgSender() */\n      tag_301\n        /* \"@openzeppelin/contracts-upgradeable/access/OwnableUpgradeable.sol\":1180:1190  _msgSender */\n      tag_129\n        /* \"@openzeppelin/contracts-upgradeable/access/OwnableUpgradeable.sol\":1180:1192  _msgSender() */\n      jump\t// in\n    tag_301:\n        /* \"@openzeppelin/contracts-upgradeable/access/OwnableUpgradeable.sol\":1161:1179  _transferOwnership */\n      tag_180\n        /* \"@openzeppelin/contracts-upgradeable/access/OwnableUpgradeable.sol\":1161:1193  _transferOwnership(_msgSender()) */\n      jump\t// in\n    tag_300:\n        /* \"@openzeppelin/contracts-upgradeable/access/OwnableUpgradeable.sol\":1089:1200  function __Ownable_init_unchained() internal onlyInitializing {... */\n      jump\t// out\n        /* \"@openzeppelin/contracts-upgradeable/security/PausableUpgradeable.sol\":1151:1246  function __Pausable_init_unchained() internal onlyInitializing {... */\n    tag_245:\n        /* \"@openzeppelin/contracts-upgradeable/proxy/utils/Initializable.sol\":4698:4711  _initializing */\n      0x00\n      0x01\n      swap1\n      sload\n      swap1\n      0x0100\n      exp\n      swap1\n      div\n      0xff\n      and\n        /* \"@openzeppelin/contracts-upgradeable/proxy/utils/Initializable.sol\":4690:4759  require(_initializing, \"Initializable: contract is not initializing\") */\n      tag_303\n      jumpi\n      mload(0x40)\n      0x08c379a000000000000000000000000000000000000000000000000000000000\n      dup2\n      mstore\n      0x04\n      add\n      tag_304\n      swap1\n      tag_230\n      jump\t// in\n    tag_304:\n      mload(0x40)\n      dup1\n      swap2\n      sub\n      swap1\n      revert\n    tag_303:\n        /* \"@openzeppelin/contracts-upgradeable/security/PausableUpgradeable.sol\":1234:1239  false */\n      0x00\n        /* \"@openzeppelin/contracts-upgradeable/security/PausableUpgradeable.sol\":1224:1231  _paused */\n      0x97\n      0x00\n        /* \"@openzeppelin/contracts-upgradeable/security/PausableUpgradeable.sol\":1224:1239  _paused = false */\n      0x0100\n      exp\n      dup2\n      sload\n      dup2\n      0xff\n      mul\n      not\n      and\n      swap1\n      dup4\n      iszero\n      iszero\n      mul\n      or\n      swap1\n      sstore\n      pop\n        /* \"@openzeppelin/contracts-upgradeable/security/PausableUpgradeable.sol\":1151:1246  function __Pausable_init_unchained() internal onlyInitializing {... */\n      jump\t// out\n        /* \"@openzeppelin/contracts-upgradeable/token/ERC20/ERC20Upgradeable.sol\":12132:12253  function _beforeTokenTransfer(... */\n    tag_251:\n      pop\n      pop\n      pop\n      jump\t// out\n        /* \"@openzeppelin/contracts-upgradeable/token/ERC20/ERC20Upgradeable.sol\":12841:12961  function _afterTokenTransfer(... */\n    tag_256:\n      pop\n      pop\n      pop\n      jump\t// out\n    tag_294:\n      dup3\n      dup1\n      sload\n      tag_308\n      swap1\n      tag_106\n      jump\t// in\n    tag_308:\n      swap1\n      0x00\n      mstore\n      keccak256(0x00, 0x20)\n      swap1\n      0x1f\n      add\n      0x20\n      swap1\n      div\n      dup2\n      add\n      swap3\n      dup3\n      tag_310\n      jumpi\n      0x00\n      dup6\n      sstore\n      jump(tag_309)\n    tag_310:\n      dup3\n      0x1f\n      lt\n      tag_311\n      jumpi\n      dup1\n      mload\n      not(0xff)\n      and\n      dup4\n      dup1\n      add\n      or\n      dup6\n      sstore\n      jump(tag_309)\n    tag_311:\n      dup3\n      dup1\n      add\n      0x01\n      add\n      dup6\n      sstore\n      dup3\n      iszero\n      tag_309\n      jumpi\n      swap2\n      dup3\n      add\n    tag_312:\n      dup3\n      dup2\n      gt\n      iszero\n      tag_313\n      jumpi\n      dup3\n      mload\n      dup3\n      sstore\n      swap2\n      0x20\n      add\n      swap2\n      swap1\n      0x01\n      add\n      swap1\n      jump(tag_312)\n    tag_313:\n    tag_309:\n      pop\n      swap1\n      pop\n      tag_314\n      swap2\n      swap1\n      tag_315\n      jump\t// in\n    tag_314:\n      pop\n      swap1\n      jump\t// out\n    tag_315:\n    tag_316:\n      dup1\n      dup3\n      gt\n      iszero\n      tag_317\n      jumpi\n      0x00\n      dup2\n      0x00\n      swap1\n      sstore\n      pop\n      0x01\n      add\n      jump(tag_316)\n    tag_317:\n      pop\n      swap1\n      jump\t// out\n        /* \"#utility.yul\":7:352   */\n    tag_319:\n        /* \"#utility.yul\":85:90   */\n      0x00\n        /* \"#utility.yul\":110:176   */\n      tag_321\n        /* \"#utility.yul\":126:175   */\n      tag_322\n        /* \"#utility.yul\":168:174   */\n      dup5\n        /* \"#utility.yul\":126:175   */\n      tag_323\n      jump\t// in\n    tag_322:\n        /* \"#utility.yul\":110:176   */\n      tag_324\n      jump\t// in\n    tag_321:\n        /* \"#utility.yul\":101:176   */\n      swap1\n      pop\n        /* \"#utility.yul\":199:205   */\n      dup3\n        /* \"#utility.yul\":192:197   */\n      dup2\n        /* \"#utility.yul\":185:206   */\n      mstore\n        /* \"#utility.yul\":237:241   */\n      0x20\n        /* \"#utility.yul\":230:235   */\n      dup2\n        /* \"#utility.yul\":226:242   */\n      add\n        /* \"#utility.yul\":275:278   */\n      dup5\n        /* \"#utility.yul\":266:272   */\n      dup5\n        /* \"#utility.yul\":261:264   */\n      dup5\n        /* \"#utility.yul\":257:273   */\n      add\n        /* \"#utility.yul\":254:279   */\n      gt\n        /* \"#utility.yul\":251:253   */\n      iszero\n      tag_325\n      jumpi\n        /* \"#utility.yul\":292:293   */\n      0x00\n        /* \"#utility.yul\":289:290   */\n      dup1\n        /* \"#utility.yul\":282:294   */\n      revert\n        /* \"#utility.yul\":251:253   */\n    tag_325:\n        /* \"#utility.yul\":305:346   */\n      tag_326\n        /* \"#utility.yul\":339:345   */\n      dup5\n        /* \"#utility.yul\":334:337   */\n      dup3\n        /* \"#utility.yul\":329:332   */\n      dup6\n        /* \"#utility.yul\":305:346   */\n      tag_327\n      jump\t// in\n    tag_326:\n        /* \"#utility.yul\":91:352   */\n      pop\n      swap4\n      swap3\n      pop\n      pop\n      pop\n      jump\t// out\n        /* \"#utility.yul\":358:497   */\n    tag_328:\n        /* \"#utility.yul\":404:409   */\n      0x00\n        /* \"#utility.yul\":442:448   */\n      dup2\n        /* \"#utility.yul\":429:449   */\n      calldataload\n        /* \"#utility.yul\":420:449   */\n      swap1\n      pop\n        /* \"#utility.yul\":458:491   */\n      tag_330\n        /* \"#utility.yul\":485:490   */\n      dup2\n        /* \"#utility.yul\":458:491   */\n      tag_331\n      jump\t// in\n    tag_330:\n        /* \"#utility.yul\":410:497   */\n      swap3\n      swap2\n      pop\n      pop\n      jump\t// out\n        /* \"#utility.yul\":503:646   */\n    tag_332:\n        /* \"#utility.yul\":560:565   */\n      0x00\n        /* \"#utility.yul\":591:597   */\n      dup2\n        /* \"#utility.yul\":585:598   */\n      mload\n        /* \"#utility.yul\":576:598   */\n      swap1\n      pop\n        /* \"#utility.yul\":607:640   */\n      tag_334\n        /* \"#utility.yul\":634:639   */\n      dup2\n        /* \"#utility.yul\":607:640   */\n      tag_331\n      jump\t// in\n    tag_334:\n        /* \"#utility.yul\":566:646   */\n      swap3\n      swap2\n      pop\n      pop\n      jump\t// out\n        /* \"#utility.yul\":666:939   */\n    tag_335:\n        /* \"#utility.yul\":722:727   */\n      0x00\n        /* \"#utility.yul\":771:774   */\n      dup3\n        /* \"#utility.yul\":764:768   */\n      0x1f\n        /* \"#utility.yul\":756:762   */\n      dup4\n        /* \"#utility.yul\":752:769   */\n      add\n        /* \"#utility.yul\":748:775   */\n      slt\n        /* \"#utility.yul\":738:740   */\n      tag_337\n      jumpi\n        /* \"#utility.yul\":789:790   */\n      0x00\n        /* \"#utility.yul\":786:787   */\n      dup1\n        /* \"#utility.yul\":779:791   */\n      revert\n        /* \"#utility.yul\":738:740   */\n    tag_337:\n        /* \"#utility.yul\":829:835   */\n      dup2\n        /* \"#utility.yul\":816:836   */\n      calldataload\n        /* \"#utility.yul\":854:933   */\n      tag_338\n        /* \"#utility.yul\":929:932   */\n      dup5\n        /* \"#utility.yul\":921:927   */\n      dup3\n        /* \"#utility.yul\":914:918   */\n      0x20\n        /* \"#utility.yul\":906:912   */\n      dup7\n        /* \"#utility.yul\":902:919   */\n      add\n        /* \"#utility.yul\":854:933   */\n      tag_319\n      jump\t// in\n    tag_338:\n        /* \"#utility.yul\":845:933   */\n      swap2\n      pop\n        /* \"#utility.yul\":728:939   */\n      pop\n      swap3\n      swap2\n      pop\n      pop\n      jump\t// out\n        /* \"#utility.yul\":945:1084   */\n    tag_339:\n        /* \"#utility.yul\":991:996   */\n      0x00\n        /* \"#utility.yul\":1029:1035   */\n      dup2\n        /* \"#utility.yul\":1016:1036   */\n      calldataload\n        /* \"#utility.yul\":1007:1036   */\n      swap1\n      pop\n        /* \"#utility.yul\":1045:1078   */\n      tag_341\n        /* \"#utility.yul\":1072:1077   */\n      dup2\n        /* \"#utility.yul\":1045:1078   */\n      tag_342\n      jump\t// in\n    tag_341:\n        /* \"#utility.yul\":997:1084   */\n      swap3\n      swap2\n      pop\n      pop\n      jump\t// out\n        /* \"#utility.yul\":1090:1352   */\n    tag_69:\n        /* \"#utility.yul\":1149:1155   */\n      0x00\n        /* \"#utility.yul\":1198:1200   */\n      0x20\n        /* \"#utility.yul\":1186:1195   */\n      dup3\n        /* \"#utility.yul\":1177:1184   */\n      dup5\n        /* \"#utility.yul\":1173:1196   */\n      sub\n        /* \"#utility.yul\":1169:1201   */\n      slt\n        /* \"#utility.yul\":1166:1168   */\n      iszero\n      tag_344\n      jumpi\n        /* \"#utility.yul\":1214:1215   */\n      0x00\n        /* \"#utility.yul\":1211:1212   */\n      dup1\n        /* \"#utility.yul\":1204:1216   */\n      revert\n        /* \"#utility.yul\":1166:1168   */\n    tag_344:\n        /* \"#utility.yul\":1257:1258   */\n      0x00\n        /* \"#utility.yul\":1282:1335   */\n      tag_345\n        /* \"#utility.yul\":1327:1334   */\n      dup5\n        /* \"#utility.yul\":1318:1324   */\n      dup3\n        /* \"#utility.yul\":1307:1316   */\n      dup6\n        /* \"#utility.yul\":1303:1325   */\n      add\n        /* \"#utility.yul\":1282:1335   */\n      tag_328\n      jump\t// in\n    tag_345:\n        /* \"#utility.yul\":1272:1335   */\n      swap2\n      pop\n        /* \"#utility.yul\":1228:1345   */\n      pop\n        /* \"#utility.yul\":1156:1352   */\n      swap3\n      swap2\n      pop\n      pop\n      jump\t// out\n        /* \"#utility.yul\":1358:1642   */\n    tag_158:\n        /* \"#utility.yul\":1428:1434   */\n      0x00\n        /* \"#utility.yul\":1477:1479   */\n      0x20\n        /* \"#utility.yul\":1465:1474   */\n      dup3\n        /* \"#utility.yul\":1456:1463   */\n      dup5\n        /* \"#utility.yul\":1452:1475   */\n      sub\n        /* \"#utility.yul\":1448:1480   */\n      slt\n        /* \"#utility.yul\":1445:1447   */\n      iszero\n      tag_347\n      jumpi\n        /* \"#utility.yul\":1493:1494   */\n      0x00\n        /* \"#utility.yul\":1490:1491   */\n      dup1\n        /* \"#utility.yul\":1483:1495   */\n      revert\n        /* \"#utility.yul\":1445:1447   */\n    tag_347:\n        /* \"#utility.yul\":1536:1537   */\n      0x00\n        /* \"#utility.yul\":1561:1625   */\n      tag_348\n        /* \"#utility.yul\":1617:1624   */\n      dup5\n        /* \"#utility.yul\":1608:1614   */\n      dup3\n        /* \"#utility.yul\":1597:1606   */\n      dup6\n        /* \"#utility.yul\":1593:1615   */\n      add\n        /* \"#utility.yul\":1561:1625   */\n      tag_332\n      jump\t// in\n    tag_348:\n        /* \"#utility.yul\":1551:1625   */\n      swap2\n      pop\n        /* \"#utility.yul\":1507:1635   */\n      pop\n        /* \"#utility.yul\":1435:1642   */\n      swap3\n      swap2\n      pop\n      pop\n      jump\t// out\n        /* \"#utility.yul\":1648:2055   */\n    tag_98:\n        /* \"#utility.yul\":1716:1722   */\n      0x00\n        /* \"#utility.yul\":1724:1730   */\n      dup1\n        /* \"#utility.yul\":1773:1775   */\n      0x40\n        /* \"#utility.yul\":1761:1770   */\n      dup4\n        /* \"#utility.yul\":1752:1759   */\n      dup6\n        /* \"#utility.yul\":1748:1771   */\n      sub\n        /* \"#utility.yul\":1744:1776   */\n      slt\n        /* \"#utility.yul\":1741:1743   */\n      iszero\n      tag_350\n      jumpi\n        /* \"#utility.yul\":1789:1790   */\n      0x00\n        /* \"#utility.yul\":1786:1787   */\n      dup1\n        /* \"#utility.yul\":1779:1791   */\n      revert\n        /* \"#utility.yul\":1741:1743   */\n    tag_350:\n        /* \"#utility.yul\":1832:1833   */\n      0x00\n        /* \"#utility.yul\":1857:1910   */\n      tag_351\n        /* \"#utility.yul\":1902:1909   */\n      dup6\n        /* \"#utility.yul\":1893:1899   */\n      dup3\n        /* \"#utility.yul\":1882:1891   */\n      dup7\n        /* \"#utility.yul\":1878:1900   */\n      add\n        /* \"#utility.yul\":1857:1910   */\n      tag_328\n      jump\t// in\n    tag_351:\n        /* \"#utility.yul\":1847:1910   */\n      swap3\n      pop\n        /* \"#utility.yul\":1803:1920   */\n      pop\n        /* \"#utility.yul\":1959:1961   */\n      0x20\n        /* \"#utility.yul\":1985:2038   */\n      tag_352\n        /* \"#utility.yul\":2030:2037   */\n      dup6\n        /* \"#utility.yul\":2021:2027   */\n      dup3\n        /* \"#utility.yul\":2010:2019   */\n      dup7\n        /* \"#utility.yul\":2006:2028   */\n      add\n        /* \"#utility.yul\":1985:2038   */\n      tag_328\n      jump\t// in\n    tag_352:\n        /* \"#utility.yul\":1975:2038   */\n      swap2\n      pop\n        /* \"#utility.yul\":1930:2048   */\n      pop\n        /* \"#utility.yul\":1731:2055   */\n      swap3\n      pop\n      swap3\n      swap1\n      pop\n      jump\t// out\n        /* \"#utility.yul\":2061:2613   */\n    tag_46:\n        /* \"#utility.yul\":2138:2144   */\n      0x00\n        /* \"#utility.yul\":2146:2152   */\n      dup1\n        /* \"#utility.yul\":2154:2160   */\n      0x00\n        /* \"#utility.yul\":2203:2205   */\n      0x60\n        /* \"#utility.yul\":2191:2200   */\n      dup5\n        /* \"#utility.yul\":2182:2189   */\n      dup7\n        /* \"#utility.yul\":2178:2201   */\n      sub\n        /* \"#utility.yul\":2174:2206   */\n      slt\n        /* \"#utility.yul\":2171:2173   */\n      iszero\n      tag_354\n      jumpi\n        /* \"#utility.yul\":2219:2220   */\n      0x00\n        /* \"#utility.yul\":2216:2217   */\n      dup1\n        /* \"#utility.yul\":2209:2221   */\n      revert\n        /* \"#utility.yul\":2171:2173   */\n    tag_354:\n        /* \"#utility.yul\":2262:2263   */\n      0x00\n        /* \"#utility.yul\":2287:2340   */\n      tag_355\n        /* \"#utility.yul\":2332:2339   */\n      dup7\n        /* \"#utility.yul\":2323:2329   */\n      dup3\n        /* \"#utility.yul\":2312:2321   */\n      dup8\n        /* \"#utility.yul\":2308:2330   */\n      add\n        /* \"#utility.yul\":2287:2340   */\n      tag_328\n      jump\t// in\n    tag_355:\n        /* \"#utility.yul\":2277:2340   */\n      swap4\n      pop\n        /* \"#utility.yul\":2233:2350   */\n      pop\n        /* \"#utility.yul\":2389:2391   */\n      0x20\n        /* \"#utility.yul\":2415:2468   */\n      tag_356\n        /* \"#utility.yul\":2460:2467   */\n      dup7\n        /* \"#utility.yul\":2451:2457   */\n      dup3\n        /* \"#utility.yul\":2440:2449   */\n      dup8\n        /* \"#utility.yul\":2436:2458   */\n      add\n        /* \"#utility.yul\":2415:2468   */\n      tag_328\n      jump\t// in\n    tag_356:\n        /* \"#utility.yul\":2405:2468   */\n      swap3\n      pop\n        /* \"#utility.yul\":2360:2478   */\n      pop\n        /* \"#utility.yul\":2517:2519   */\n      0x40\n        /* \"#utility.yul\":2543:2596   */\n      tag_357\n        /* \"#utility.yul\":2588:2595   */\n      dup7\n        /* \"#utility.yul\":2579:2585   */\n      dup3\n        /* \"#utility.yul\":2568:2577   */\n      dup8\n        /* \"#utility.yul\":2564:2586   */\n      add\n        /* \"#utility.yul\":2543:2596   */\n      tag_339\n      jump\t// in\n    tag_357:\n        /* \"#utility.yul\":2533:2596   */\n      swap2\n      pop\n        /* \"#utility.yul\":2488:2606   */\n      pop\n        /* \"#utility.yul\":2161:2613   */\n      swap3\n      pop\n      swap3\n      pop\n      swap3\n      jump\t// out\n        /* \"#utility.yul\":2619:3026   */\n    tag_36:\n        /* \"#utility.yul\":2687:2693   */\n      0x00\n        /* \"#utility.yul\":2695:2701   */\n      dup1\n        /* \"#utility.yul\":2744:2746   */\n      0x40\n        /* \"#utility.yul\":2732:2741   */\n      dup4\n        /* \"#utility.yul\":2723:2730   */\n      dup6\n        /* \"#utility.yul\":2719:2742   */\n      sub\n        /* \"#utility.yul\":2715:2747   */\n      slt\n        /* \"#utility.yul\":2712:2714   */\n      iszero\n      tag_359\n      jumpi\n        /* \"#utility.yul\":2760:2761   */\n      0x00\n        /* \"#utility.yul\":2757:2758   */\n      dup1\n        /* \"#utility.yul\":2750:2762   */\n      revert\n        /* \"#utility.yul\":2712:2714   */\n    tag_359:\n        /* \"#utility.yul\":2803:2804   */\n      0x00\n        /* \"#utility.yul\":2828:2881   */\n      tag_360\n        /* \"#utility.yul\":2873:2880   */\n      dup6\n        /* \"#utility.yul\":2864:2870   */\n      dup3\n        /* \"#utility.yul\":2853:2862   */\n      dup7\n        /* \"#utility.yul\":2849:2871   */\n      add\n        /* \"#utility.yul\":2828:2881   */\n      tag_328\n      jump\t// in\n    tag_360:\n        /* \"#utility.yul\":2818:2881   */\n      swap3\n      pop\n        /* \"#utility.yul\":2774:2891   */\n      pop\n        /* \"#utility.yul\":2930:2932   */\n      0x20\n        /* \"#utility.yul\":2956:3009   */\n      tag_361\n        /* \"#utility.yul\":3001:3008   */\n      dup6\n        /* \"#utility.yul\":2992:2998   */\n      dup3\n        /* \"#utility.yul\":2981:2990   */\n      dup7\n        /* \"#utility.yul\":2977:2999   */\n      add\n        /* \"#utility.yul\":2956:3009   */\n      tag_339\n      jump\t// in\n    tag_361:\n        /* \"#utility.yul\":2946:3009   */\n      swap2\n      pop\n        /* \"#utility.yul\":2901:3019   */\n      pop\n        /* \"#utility.yul\":2702:3026   */\n      swap3\n      pop\n      swap3\n      swap1\n      pop\n      jump\t// out\n        /* \"#utility.yul\":3032:3810   */\n    tag_32:\n        /* \"#utility.yul\":3129:3135   */\n      0x00\n        /* \"#utility.yul\":3137:3143   */\n      dup1\n        /* \"#utility.yul\":3145:3151   */\n      0x00\n        /* \"#utility.yul\":3194:3196   */\n      0x60\n        /* \"#utility.yul\":3182:3191   */\n      dup5\n        /* \"#utility.yul\":3173:3180   */\n      dup7\n        /* \"#utility.yul\":3169:3192   */\n      sub\n        /* \"#utility.yul\":3165:3197   */\n      slt\n        /* \"#utility.yul\":3162:3164   */\n      iszero\n      tag_363\n      jumpi\n        /* \"#utility.yul\":3210:3211   */\n      0x00\n        /* \"#utility.yul\":3207:3208   */\n      dup1\n        /* \"#utility.yul\":3200:3212   */\n      revert\n        /* \"#utility.yul\":3162:3164   */\n    tag_363:\n        /* \"#utility.yul\":3281:3282   */\n      0x00\n        /* \"#utility.yul\":3270:3279   */\n      dup5\n        /* \"#utility.yul\":3266:3283   */\n      add\n        /* \"#utility.yul\":3253:3284   */\n      calldataload\n        /* \"#utility.yul\":3311:3329   */\n      0xffffffffffffffff\n        /* \"#utility.yul\":3303:3309   */\n      dup2\n        /* \"#utility.yul\":3300:3330   */\n      gt\n        /* \"#utility.yul\":3297:3299   */\n      iszero\n      tag_364\n      jumpi\n        /* \"#utility.yul\":3343:3344   */\n      0x00\n        /* \"#utility.yul\":3340:3341   */\n      dup1\n        /* \"#utility.yul\":3333:3345   */\n      revert\n        /* \"#utility.yul\":3297:3299   */\n    tag_364:\n        /* \"#utility.yul\":3371:3434   */\n      tag_365\n        /* \"#utility.yul\":3426:3433   */\n      dup7\n        /* \"#utility.yul\":3417:3423   */\n      dup3\n        /* \"#utility.yul\":3406:3415   */\n      dup8\n        /* \"#utility.yul\":3402:3424   */\n      add\n        /* \"#utility.yul\":3371:3434   */\n      tag_335\n      jump\t// in\n    tag_365:\n        /* \"#utility.yul\":3361:3434   */\n      swap4\n      pop\n        /* \"#utility.yul\":3224:3444   */\n      pop\n        /* \"#utility.yul\":3511:3513   */\n      0x20\n        /* \"#utility.yul\":3500:3509   */\n      dup5\n        /* \"#utility.yul\":3496:3514   */\n      add\n        /* \"#utility.yul\":3483:3515   */\n      calldataload\n        /* \"#utility.yul\":3542:3560   */\n      0xffffffffffffffff\n        /* \"#utility.yul\":3534:3540   */\n      dup2\n        /* \"#utility.yul\":3531:3561   */\n      gt\n        /* \"#utility.yul\":3528:3530   */\n      iszero\n      tag_366\n      jumpi\n        /* \"#utility.yul\":3574:3575   */\n      0x00\n        /* \"#utility.yul\":3571:3572   */\n      dup1\n        /* \"#utility.yul\":3564:3576   */\n      revert\n        /* \"#utility.yul\":3528:3530   */\n    tag_366:\n        /* \"#utility.yul\":3602:3665   */\n      tag_367\n        /* \"#utility.yul\":3657:3664   */\n      dup7\n        /* \"#utility.yul\":3648:3654   */\n      dup3\n        /* \"#utility.yul\":3637:3646   */\n      dup8\n        /* \"#utility.yul\":3633:3655   */\n      add\n        /* \"#utility.yul\":3602:3665   */\n      tag_335\n      jump\t// in\n    tag_367:\n        /* \"#utility.yul\":3592:3665   */\n      swap3\n      pop\n        /* \"#utility.yul\":3454:3675   */\n      pop\n        /* \"#utility.yul\":3714:3716   */\n      0x40\n        /* \"#utility.yul\":3740:3793   */\n      tag_368\n        /* \"#utility.yul\":3785:3792   */\n      dup7\n        /* \"#utility.yul\":3776:3782   */\n      dup3\n        /* \"#utility.yul\":3765:3774   */\n      dup8\n        /* \"#utility.yul\":3761:3783   */\n      add\n        /* \"#utility.yul\":3740:3793   */\n      tag_328\n      jump\t// in\n    tag_368:\n        /* \"#utility.yul\":3730:3793   */\n      swap2\n      pop\n        /* \"#utility.yul\":3685:3803   */\n      pop\n        /* \"#utility.yul\":3152:3810   */\n      swap3\n      pop\n      swap3\n      pop\n      swap3\n      jump\t// out\n        /* \"#utility.yul\":3816:4078   */\n    tag_62:\n        /* \"#utility.yul\":3875:3881   */\n      0x00\n        /* \"#utility.yul\":3924:3926   */\n      0x20\n        /* \"#utility.yul\":3912:3921   */\n      dup3\n        /* \"#utility.yul\":3903:3910   */\n      dup5\n        /* \"#utility.yul\":3899:3922   */\n      sub\n        /* \"#utility.yul\":3895:3927   */\n      slt\n        /* \"#utility.yul\":3892:3894   */\n      iszero\n      tag_370\n      jumpi\n        /* \"#utility.yul\":3940:3941   */\n      0x00\n        /* \"#utility.yul\":3937:3938   */\n      dup1\n        /* \"#utility.yul\":3930:3942   */\n      revert\n        /* \"#utility.yul\":3892:3894   */\n    tag_370:\n        /* \"#utility.yul\":3983:3984   */\n      0x00\n        /* \"#utility.yul\":4008:4061   */\n      tag_371\n        /* \"#utility.yul\":4053:4060   */\n      dup5\n        /* \"#utility.yul\":4044:4050   */\n      dup3\n        /* \"#utility.yul\":4033:4042   */\n      dup6\n        /* \"#utility.yul\":4029:4051   */\n      add\n        /* \"#utility.yul\":4008:4061   */\n      tag_339\n      jump\t// in\n    tag_371:\n        /* \"#utility.yul\":3998:4061   */\n      swap2\n      pop\n        /* \"#utility.yul\":3954:4071   */\n      pop\n        /* \"#utility.yul\":3882:4078   */\n      swap3\n      swap2\n      pop\n      pop\n      jump\t// out\n        /* \"#utility.yul\":4084:4202   */\n    tag_372:\n        /* \"#utility.yul\":4171:4195   */\n      tag_374\n        /* \"#utility.yul\":4189:4194   */\n      dup2\n        /* \"#utility.yul\":4171:4195   */\n      tag_375\n      jump\t// in\n    tag_374:\n        /* \"#utility.yul\":4166:4169   */\n      dup3\n        /* \"#utility.yul\":4159:4196   */\n      mstore\n        /* \"#utility.yul\":4149:4202   */\n      pop\n      pop\n      jump\t// out\n        /* \"#utility.yul\":4208:4317   */\n    tag_376:\n        /* \"#utility.yul\":4289:4310   */\n      tag_378\n        /* \"#utility.yul\":4304:4309   */\n      dup2\n        /* \"#utility.yul\":4289:4310   */\n      tag_379\n      jump\t// in\n    tag_378:\n        /* \"#utility.yul\":4284:4287   */\n      dup3\n        /* \"#utility.yul\":4277:4311   */\n      mstore\n        /* \"#utility.yul\":4267:4317   */\n      pop\n      pop\n      jump\t// out\n        /* \"#utility.yul\":4323:4466   */\n    tag_380:\n        /* \"#utility.yul\":4416:4459   */\n      tag_382\n        /* \"#utility.yul\":4453:4458   */\n      dup2\n        /* \"#utility.yul\":4416:4459   */\n      tag_383\n      jump\t// in\n    tag_382:\n        /* \"#utility.yul\":4411:4414   */\n      dup3\n        /* \"#utility.yul\":4404:4460   */\n      mstore\n        /* \"#utility.yul\":4394:4466   */\n      pop\n      pop\n      jump\t// out\n        /* \"#utility.yul\":4472:4836   */\n    tag_384:\n        /* \"#utility.yul\":4560:4563   */\n      0x00\n        /* \"#utility.yul\":4588:4627   */\n      tag_386\n        /* \"#utility.yul\":4621:4626   */\n      dup3\n        /* \"#utility.yul\":4588:4627   */\n      tag_387\n      jump\t// in\n    tag_386:\n        /* \"#utility.yul\":4643:4714   */\n      tag_388\n        /* \"#utility.yul\":4707:4713   */\n      dup2\n        /* \"#utility.yul\":4702:4705   */\n      dup6\n        /* \"#utility.yul\":4643:4714   */\n      tag_389\n      jump\t// in\n    tag_388:\n        /* \"#utility.yul\":4636:4714   */\n      swap4\n      pop\n        /* \"#utility.yul\":4723:4775   */\n      tag_390\n        /* \"#utility.yul\":4768:4774   */\n      dup2\n        /* \"#utility.yul\":4763:4766   */\n      dup6\n        /* \"#utility.yul\":4756:4760   */\n      0x20\n        /* \"#utility.yul\":4749:4754   */\n      dup7\n        /* \"#utility.yul\":4745:4761   */\n      add\n        /* \"#utility.yul\":4723:4775   */\n      tag_391\n      jump\t// in\n    tag_390:\n        /* \"#utility.yul\":4800:4829   */\n      tag_392\n        /* \"#utility.yul\":4822:4828   */\n      dup2\n        /* \"#utility.yul\":4800:4829   */\n      tag_393\n      jump\t// in\n    tag_392:\n        /* \"#utility.yul\":4795:4798   */\n      dup5\n        /* \"#utility.yul\":4791:4830   */\n      add\n        /* \"#utility.yul\":4784:4830   */\n      swap2\n      pop\n        /* \"#utility.yul\":4564:4836   */\n      pop\n      swap3\n      swap2\n      pop\n      pop\n      jump\t// out\n        /* \"#utility.yul\":4842:5208   */\n    tag_394:\n        /* \"#utility.yul\":4984:4987   */\n      0x00\n        /* \"#utility.yul\":5005:5072   */\n      tag_396\n        /* \"#utility.yul\":5069:5071   */\n      0x23\n        /* \"#utility.yul\":5064:5067   */\n      dup4\n        /* \"#utility.yul\":5005:5072   */\n      tag_389\n      jump\t// in\n    tag_396:\n        /* \"#utility.yul\":4998:5072   */\n      swap2\n      pop\n        /* \"#utility.yul\":5081:5174   */\n      tag_397\n        /* \"#utility.yul\":5170:5173   */\n      dup3\n        /* \"#utility.yul\":5081:5174   */\n      tag_398\n      jump\t// in\n    tag_397:\n        /* \"#utility.yul\":5199:5201   */\n      0x40\n        /* \"#utility.yul\":5194:5197   */\n      dup3\n        /* \"#utility.yul\":5190:5202   */\n      add\n        /* \"#utility.yul\":5183:5202   */\n      swap1\n      pop\n        /* \"#utility.yul\":4988:5208   */\n      swap2\n      swap1\n      pop\n      jump\t// out\n        /* \"#utility.yul\":5214:5580   */\n    tag_399:\n        /* \"#utility.yul\":5356:5359   */\n      0x00\n        /* \"#utility.yul\":5377:5444   */\n      tag_401\n        /* \"#utility.yul\":5441:5443   */\n      0x26\n        /* \"#utility.yul\":5436:5439   */\n      dup4\n        /* \"#utility.yul\":5377:5444   */\n      tag_389\n      jump\t// in\n    tag_401:\n        /* \"#utility.yul\":5370:5444   */\n      swap2\n      pop\n        /* \"#utility.yul\":5453:5546   */\n      tag_402\n        /* \"#utility.yul\":5542:5545   */\n      dup3\n        /* \"#utility.yul\":5453:5546   */\n      tag_403\n      jump\t// in\n    tag_402:\n        /* \"#utility.yul\":5571:5573   */\n      0x40\n        /* \"#utility.yul\":5566:5569   */\n      dup3\n        /* \"#utility.yul\":5562:5574   */\n      add\n        /* \"#utility.yul\":5555:5574   */\n      swap1\n      pop\n        /* \"#utility.yul\":5360:5580   */\n      swap2\n      swap1\n      pop\n      jump\t// out\n        /* \"#utility.yul\":5586:5952   */\n    tag_404:\n        /* \"#utility.yul\":5728:5731   */\n      0x00\n        /* \"#utility.yul\":5749:5816   */\n      tag_406\n        /* \"#utility.yul\":5813:5815   */\n      0x22\n        /* \"#utility.yul\":5808:5811   */\n      dup4\n        /* \"#utility.yul\":5749:5816   */\n      tag_389\n      jump\t// in\n    tag_406:\n        /* \"#utility.yul\":5742:5816   */\n      swap2\n      pop\n        /* \"#utility.yul\":5825:5918   */\n      tag_407\n        /* \"#utility.yul\":5914:5917   */\n      dup3\n        /* \"#utility.yul\":5825:5918   */\n      tag_408\n      jump\t// in\n    tag_407:\n        /* \"#utility.yul\":5943:5945   */\n      0x40\n        /* \"#utility.yul\":5938:5941   */\n      dup3\n        /* \"#utility.yul\":5934:5946   */\n      add\n        /* \"#utility.yul\":5927:5946   */\n      swap1\n      pop\n        /* \"#utility.yul\":5732:5952   */\n      swap2\n      swap1\n      pop\n      jump\t// out\n        /* \"#utility.yul\":5958:6324   */\n    tag_409:\n        /* \"#utility.yul\":6100:6103   */\n      0x00\n        /* \"#utility.yul\":6121:6188   */\n      tag_411\n        /* \"#utility.yul\":6185:6187   */\n      0x0c\n        /* \"#utility.yul\":6180:6183   */\n      dup4\n        /* \"#utility.yul\":6121:6188   */\n      tag_389\n      jump\t// in\n    tag_411:\n        /* \"#utility.yul\":6114:6188   */\n      swap2\n      pop\n        /* \"#utility.yul\":6197:6290   */\n      tag_412\n        /* \"#utility.yul\":6286:6289   */\n      dup3\n        /* \"#utility.yul\":6197:6290   */\n      tag_413\n      jump\t// in\n    tag_412:\n        /* \"#utility.yul\":6315:6317   */\n      0x20\n        /* \"#utility.yul\":6310:6313   */\n      dup3\n        /* \"#utility.yul\":6306:6318   */\n      add\n        /* \"#utility.yul\":6299:6318   */\n      swap1\n      pop\n        /* \"#utility.yul\":6104:6324   */\n      swap2\n      swap1\n      pop\n      jump\t// out\n        /* \"#utility.yul\":6330:6696   */\n    tag_414:\n        /* \"#utility.yul\":6472:6475   */\n      0x00\n        /* \"#utility.yul\":6493:6560   */\n      tag_416\n        /* \"#utility.yul\":6557:6559   */\n      0x0b\n        /* \"#utility.yul\":6552:6555   */\n      dup4\n        /* \"#utility.yul\":6493:6560   */\n      tag_389\n      jump\t// in\n    tag_416:\n        /* \"#utility.yul\":6486:6560   */\n      swap2\n      pop\n        /* \"#utility.yul\":6569:6662   */\n      tag_417\n        /* \"#utility.yul\":6658:6661   */\n      dup3\n        /* \"#utility.yul\":6569:6662   */\n      tag_418\n      jump\t// in\n    tag_417:\n        /* \"#utility.yul\":6687:6689   */\n      0x20\n        /* \"#utility.yul\":6682:6685   */\n      dup3\n        /* \"#utility.yul\":6678:6690   */\n      add\n        /* \"#utility.yul\":6671:6690   */\n      swap1\n      pop\n        /* \"#utility.yul\":6476:6696   */\n      swap2\n      swap1\n      pop\n      jump\t// out\n        /* \"#utility.yul\":6702:7068   */\n    tag_419:\n        /* \"#utility.yul\":6844:6847   */\n      0x00\n        /* \"#utility.yul\":6865:6932   */\n      tag_421\n        /* \"#utility.yul\":6929:6931   */\n      0x1d\n        /* \"#utility.yul\":6924:6927   */\n      dup4\n        /* \"#utility.yul\":6865:6932   */\n      tag_389\n      jump\t// in\n    tag_421:\n        /* \"#utility.yul\":6858:6932   */\n      swap2\n      pop\n        /* \"#utility.yul\":6941:7034   */\n      tag_422\n        /* \"#utility.yul\":7030:7033   */\n      dup3\n        /* \"#utility.yul\":6941:7034   */\n      tag_423\n      jump\t// in\n    tag_422:\n        /* \"#utility.yul\":7059:7061   */\n      0x20\n        /* \"#utility.yul\":7054:7057   */\n      dup3\n        /* \"#utility.yul\":7050:7062   */\n      add\n        /* \"#utility.yul\":7043:7062   */\n      swap1\n      pop\n        /* \"#utility.yul\":6848:7068   */\n      swap2\n      swap1\n      pop\n      jump\t// out\n        /* \"#utility.yul\":7074:7440   */\n    tag_424:\n        /* \"#utility.yul\":7216:7219   */\n      0x00\n        /* \"#utility.yul\":7237:7304   */\n      tag_426\n        /* \"#utility.yul\":7301:7303   */\n      0x26\n        /* \"#utility.yul\":7296:7299   */\n      dup4\n        /* \"#utility.yul\":7237:7304   */\n      tag_389\n      jump\t// in\n    tag_426:\n        /* \"#utility.yul\":7230:7304   */\n      swap2\n      pop\n        /* \"#utility.yul\":7313:7406   */\n      tag_427\n        /* \"#utility.yul\":7402:7405   */\n      dup3\n        /* \"#utility.yul\":7313:7406   */\n      tag_428\n      jump\t// in\n    tag_427:\n        /* \"#utility.yul\":7431:7433   */\n      0x40\n        /* \"#utility.yul\":7426:7429   */\n      dup3\n        /* \"#utility.yul\":7422:7434   */\n      add\n        /* \"#utility.yul\":7415:7434   */\n      swap1\n      pop\n        /* \"#utility.yul\":7220:7440   */\n      swap2\n      swap1\n      pop\n      jump\t// out\n        /* \"#utility.yul\":7446:7812   */\n    tag_429:\n        /* \"#utility.yul\":7588:7591   */\n      0x00\n        /* \"#utility.yul\":7609:7676   */\n      tag_431\n        /* \"#utility.yul\":7673:7675   */\n      0x2e\n        /* \"#utility.yul\":7668:7671   */\n      dup4\n        /* \"#utility.yul\":7609:7676   */\n      tag_389\n      jump\t// in\n    tag_431:\n        /* \"#utility.yul\":7602:7676   */\n      swap2\n      pop\n        /* \"#utility.yul\":7685:7778   */\n      tag_432\n        /* \"#utility.yul\":7774:7777   */\n      dup3\n        /* \"#utility.yul\":7685:7778   */\n      tag_433\n      jump\t// in\n    tag_432:\n        /* \"#utility.yul\":7803:7805   */\n      0x40\n        /* \"#utility.yul\":7798:7801   */\n      dup3\n        /* \"#utility.yul\":7794:7806   */\n      add\n        /* \"#utility.yul\":7787:7806   */\n      swap1\n      pop\n        /* \"#utility.yul\":7592:7812   */\n      swap2\n      swap1\n      pop\n      jump\t// out\n        /* \"#utility.yul\":7818:8184   */\n    tag_434:\n        /* \"#utility.yul\":7960:7963   */\n      0x00\n        /* \"#utility.yul\":7981:8048   */\n      tag_436\n        /* \"#utility.yul\":8045:8047   */\n      0x20\n        /* \"#utility.yul\":8040:8043   */\n      dup4\n        /* \"#utility.yul\":7981:8048   */\n      tag_389\n      jump\t// in\n    tag_436:\n        /* \"#utility.yul\":7974:8048   */\n      swap2\n      pop\n        /* \"#utility.yul\":8057:8150   */\n      tag_437\n        /* \"#utility.yul\":8146:8149   */\n      dup3\n        /* \"#utility.yul\":8057:8150   */\n      tag_438\n      jump\t// in\n    tag_437:\n        /* \"#utility.yul\":8175:8177   */\n      0x20\n        /* \"#utility.yul\":8170:8173   */\n      dup3\n        /* \"#utility.yul\":8166:8178   */\n      add\n        /* \"#utility.yul\":8159:8178   */\n      swap1\n      pop\n        /* \"#utility.yul\":7964:8184   */\n      swap2\n      swap1\n      pop\n      jump\t// out\n        /* \"#utility.yul\":8190:8556   */\n    tag_439:\n        /* \"#utility.yul\":8332:8335   */\n      0x00\n        /* \"#utility.yul\":8353:8420   */\n      tag_441\n        /* \"#utility.yul\":8417:8419   */\n      0x25\n        /* \"#utility.yul\":8412:8415   */\n      dup4\n        /* \"#utility.yul\":8353:8420   */\n      tag_389\n      jump\t// in\n    tag_441:\n        /* \"#utility.yul\":8346:8420   */\n      swap2\n      pop\n        /* \"#utility.yul\":8429:8522   */\n      tag_442\n        /* \"#utility.yul\":8518:8521   */\n      dup3\n        /* \"#utility.yul\":8429:8522   */\n      tag_443\n      jump\t// in\n    tag_442:\n        /* \"#utility.yul\":8547:8549   */\n      0x40\n        /* \"#utility.yul\":8542:8545   */\n      dup3\n        /* \"#utility.yul\":8538:8550   */\n      add\n        /* \"#utility.yul\":8531:8550   */\n      swap1\n      pop\n        /* \"#utility.yul\":8336:8556   */\n      swap2\n      swap1\n      pop\n      jump\t// out\n        /* \"#utility.yul\":8562:8928   */\n    tag_444:\n        /* \"#utility.yul\":8704:8707   */\n      0x00\n        /* \"#utility.yul\":8725:8792   */\n      tag_446\n        /* \"#utility.yul\":8789:8791   */\n      0x24\n        /* \"#utility.yul\":8784:8787   */\n      dup4\n        /* \"#utility.yul\":8725:8792   */\n      tag_389\n      jump\t// in\n    tag_446:\n        /* \"#utility.yul\":8718:8792   */\n      swap2\n      pop\n        /* \"#utility.yul\":8801:8894   */\n      tag_447\n        /* \"#utility.yul\":8890:8893   */\n      dup3\n        /* \"#utility.yul\":8801:8894   */\n      tag_448\n      jump\t// in\n    tag_447:\n        /* \"#utility.yul\":8919:8921   */\n      0x40\n        /* \"#utility.yul\":8914:8917   */\n      dup3\n        /* \"#utility.yul\":8910:8922   */\n      add\n        /* \"#utility.yul\":8903:8922   */\n      swap1\n      pop\n        /* \"#utility.yul\":8708:8928   */\n      swap2\n      swap1\n      pop\n      jump\t// out\n        /* \"#utility.yul\":8934:9300   */\n    tag_449:\n        /* \"#utility.yul\":9076:9079   */\n      0x00\n        /* \"#utility.yul\":9097:9164   */\n      tag_451\n        /* \"#utility.yul\":9161:9163   */\n      0x2b\n        /* \"#utility.yul\":9156:9159   */\n      dup4\n        /* \"#utility.yul\":9097:9164   */\n      tag_389\n      jump\t// in\n    tag_451:\n        /* \"#utility.yul\":9090:9164   */\n      swap2\n      pop\n        /* \"#utility.yul\":9173:9266   */\n      tag_452\n        /* \"#utility.yul\":9262:9265   */\n      dup3\n        /* \"#utility.yul\":9173:9266   */\n      tag_453\n      jump\t// in\n    tag_452:\n        /* \"#utility.yul\":9291:9293   */\n      0x40\n        /* \"#utility.yul\":9286:9289   */\n      dup3\n        /* \"#utility.yul\":9282:9294   */\n      add\n        /* \"#utility.yul\":9275:9294   */\n      swap1\n      pop\n        /* \"#utility.yul\":9080:9300   */\n      swap2\n      swap1\n      pop\n      jump\t// out\n        /* \"#utility.yul\":9306:9672   */\n    tag_454:\n        /* \"#utility.yul\":9448:9451   */\n      0x00\n        /* \"#utility.yul\":9469:9536   */\n      tag_456\n        /* \"#utility.yul\":9533:9535   */\n      0x0e\n        /* \"#utility.yul\":9528:9531   */\n      dup4\n        /* \"#utility.yul\":9469:9536   */\n      tag_389\n      jump\t// in\n    tag_456:\n        /* \"#utility.yul\":9462:9536   */\n      swap2\n      pop\n        /* \"#utility.yul\":9545:9638   */\n      tag_457\n        /* \"#utility.yul\":9634:9637   */\n      dup3\n        /* \"#utility.yul\":9545:9638   */\n      tag_458\n      jump\t// in\n    tag_457:\n        /* \"#utility.yul\":9663:9665   */\n      0x20\n        /* \"#utility.yul\":9658:9661   */\n      dup3\n        /* \"#utility.yul\":9654:9666   */\n      add\n        /* \"#utility.yul\":9647:9666   */\n      swap1\n      pop\n        /* \"#utility.yul\":9452:9672   */\n      swap2\n      swap1\n      pop\n      jump\t// out\n        /* \"#utility.yul\":9678:10044   */\n    tag_459:\n        /* \"#utility.yul\":9820:9823   */\n      0x00\n        /* \"#utility.yul\":9841:9908   */\n      tag_461\n        /* \"#utility.yul\":9905:9907   */\n      0x25\n        /* \"#utility.yul\":9900:9903   */\n      dup4\n        /* \"#utility.yul\":9841:9908   */\n      tag_389\n      jump\t// in\n    tag_461:\n        /* \"#utility.yul\":9834:9908   */\n      swap2\n      pop\n        /* \"#utility.yul\":9917:10010   */\n      tag_462\n        /* \"#utility.yul\":10006:10009   */\n      dup3\n        /* \"#utility.yul\":9917:10010   */\n      tag_463\n      jump\t// in\n    tag_462:\n        /* \"#utility.yul\":10035:10037   */\n      0x40\n        /* \"#utility.yul\":10030:10033   */\n      dup3\n        /* \"#utility.yul\":10026:10038   */\n      add\n        /* \"#utility.yul\":10019:10038   */\n      swap1\n      pop\n        /* \"#utility.yul\":9824:10044   */\n      swap2\n      swap1\n      pop\n      jump\t// out\n        /* \"#utility.yul\":10050:10416   */\n    tag_464:\n        /* \"#utility.yul\":10192:10195   */\n      0x00\n        /* \"#utility.yul\":10213:10280   */\n      tag_466\n        /* \"#utility.yul\":10277:10279   */\n      0x1f\n        /* \"#utility.yul\":10272:10275   */\n      dup4\n        /* \"#utility.yul\":10213:10280   */\n      tag_389\n      jump\t// in\n    tag_466:\n        /* \"#utility.yul\":10206:10280   */\n      swap2\n      pop\n        /* \"#utility.yul\":10289:10382   */\n      tag_467\n        /* \"#utility.yul\":10378:10381   */\n      dup3\n        /* \"#utility.yul\":10289:10382   */\n      tag_468\n      jump\t// in\n    tag_467:\n        /* \"#utility.yul\":10407:10409   */\n      0x20\n        /* \"#utility.yul\":10402:10405   */\n      dup3\n        /* \"#utility.yul\":10398:10410   */\n      add\n        /* \"#utility.yul\":10391:10410   */\n      swap1\n      pop\n        /* \"#utility.yul\":10196:10416   */\n      swap2\n      swap1\n      pop\n      jump\t// out\n        /* \"#utility.yul\":10422:10540   */\n    tag_469:\n        /* \"#utility.yul\":10509:10533   */\n      tag_471\n        /* \"#utility.yul\":10527:10532   */\n      dup2\n        /* \"#utility.yul\":10509:10533   */\n      tag_472\n      jump\t// in\n    tag_471:\n        /* \"#utility.yul\":10504:10507   */\n      dup3\n        /* \"#utility.yul\":10497:10534   */\n      mstore\n        /* \"#utility.yul\":10487:10540   */\n      pop\n      pop\n      jump\t// out\n        /* \"#utility.yul\":10546:10658   */\n    tag_473:\n        /* \"#utility.yul\":10629:10651   */\n      tag_475\n        /* \"#utility.yul\":10645:10650   */\n      dup2\n        /* \"#utility.yul\":10629:10651   */\n      tag_476\n      jump\t// in\n    tag_475:\n        /* \"#utility.yul\":10624:10627   */\n      dup3\n        /* \"#utility.yul\":10617:10652   */\n      mstore\n        /* \"#utility.yul\":10607:10658   */\n      pop\n      pop\n      jump\t// out\n        /* \"#utility.yul\":10664:10886   */\n    tag_80:\n        /* \"#utility.yul\":10757:10761   */\n      0x00\n        /* \"#utility.yul\":10795:10797   */\n      0x20\n        /* \"#utility.yul\":10784:10793   */\n      dup3\n        /* \"#utility.yul\":10780:10798   */\n      add\n        /* \"#utility.yul\":10772:10798   */\n      swap1\n      pop\n        /* \"#utility.yul\":10808:10879   */\n      tag_478\n        /* \"#utility.yul\":10876:10877   */\n      0x00\n        /* \"#utility.yul\":10865:10874   */\n      dup4\n        /* \"#utility.yul\":10861:10878   */\n      add\n        /* \"#utility.yul\":10852:10858   */\n      dup5\n        /* \"#utility.yul\":10808:10879   */\n      tag_372\n      jump\t// in\n    tag_478:\n        /* \"#utility.yul\":10762:10886   */\n      swap3\n      swap2\n      pop\n      pop\n      jump\t// out\n        /* \"#utility.yul\":10892:11334   */\n    tag_169:\n        /* \"#utility.yul\":11041:11045   */\n      0x00\n        /* \"#utility.yul\":11079:11081   */\n      0x60\n        /* \"#utility.yul\":11068:11077   */\n      dup3\n        /* \"#utility.yul\":11064:11082   */\n      add\n        /* \"#utility.yul\":11056:11082   */\n      swap1\n      pop\n        /* \"#utility.yul\":11092:11163   */\n      tag_480\n        /* \"#utility.yul\":11160:11161   */\n      0x00\n        /* \"#utility.yul\":11149:11158   */\n      dup4\n        /* \"#utility.yul\":11145:11162   */\n      add\n        /* \"#utility.yul\":11136:11142   */\n      dup7\n        /* \"#utility.yul\":11092:11163   */\n      tag_372\n      jump\t// in\n    tag_480:\n        /* \"#utility.yul\":11173:11245   */\n      tag_481\n        /* \"#utility.yul\":11241:11243   */\n      0x20\n        /* \"#utility.yul\":11230:11239   */\n      dup4\n        /* \"#utility.yul\":11226:11244   */\n      add\n        /* \"#utility.yul\":11217:11223   */\n      dup6\n        /* \"#utility.yul\":11173:11245   */\n      tag_469\n      jump\t// in\n    tag_481:\n        /* \"#utility.yul\":11255:11327   */\n      tag_482\n        /* \"#utility.yul\":11323:11325   */\n      0x40\n        /* \"#utility.yul\":11312:11321   */\n      dup4\n        /* \"#utility.yul\":11308:11326   */\n      add\n        /* \"#utility.yul\":11299:11305   */\n      dup5\n        /* \"#utility.yul\":11255:11327   */\n      tag_469\n      jump\t// in\n    tag_482:\n        /* \"#utility.yul\":11046:11334   */\n      swap5\n      swap4\n      pop\n      pop\n      pop\n      pop\n      jump\t// out\n        /* \"#utility.yul\":11340:11550   */\n    tag_39:\n        /* \"#utility.yul\":11427:11431   */\n      0x00\n        /* \"#utility.yul\":11465:11467   */\n      0x20\n        /* \"#utility.yul\":11454:11463   */\n      dup3\n        /* \"#utility.yul\":11450:11468   */\n      add\n        /* \"#utility.yul\":11442:11468   */\n      swap1\n      pop\n        /* \"#utility.yul\":11478:11543   */\n      tag_484\n        /* \"#utility.yul\":11540:11541   */\n      0x00\n        /* \"#utility.yul\":11529:11538   */\n      dup4\n        /* \"#utility.yul\":11525:11542   */\n      add\n        /* \"#utility.yul\":11516:11522   */\n      dup5\n        /* \"#utility.yul\":11478:11543   */\n      tag_376\n      jump\t// in\n    tag_484:\n        /* \"#utility.yul\":11432:11550   */\n      swap3\n      swap2\n      pop\n      pop\n      jump\t// out\n        /* \"#utility.yul\":11556:11790   */\n    tag_126:\n        /* \"#utility.yul\":11655:11659   */\n      0x00\n        /* \"#utility.yul\":11693:11695   */\n      0x20\n        /* \"#utility.yul\":11682:11691   */\n      dup3\n        /* \"#utility.yul\":11678:11696   */\n      add\n        /* \"#utility.yul\":11670:11696   */\n      swap1\n      pop\n        /* \"#utility.yul\":11706:11783   */\n      tag_486\n        /* \"#utility.yul\":11780:11781   */\n      0x00\n        /* \"#utility.yul\":11769:11778   */\n      dup4\n        /* \"#utility.yul\":11765:11782   */\n      add\n        /* \"#utility.yul\":11756:11762   */\n      dup5\n        /* \"#utility.yul\":11706:11783   */\n      tag_380\n      jump\t// in\n    tag_486:\n        /* \"#utility.yul\":11660:11790   */\n      swap3\n      swap2\n      pop\n      pop\n      jump\t// out\n        /* \"#utility.yul\":11796:12109   */\n    tag_29:\n        /* \"#utility.yul\":11909:11913   */\n      0x00\n        /* \"#utility.yul\":11947:11949   */\n      0x20\n        /* \"#utility.yul\":11936:11945   */\n      dup3\n        /* \"#utility.yul\":11932:11950   */\n      add\n        /* \"#utility.yul\":11924:11950   */\n      swap1\n      pop\n        /* \"#utility.yul\":11996:12005   */\n      dup2\n        /* \"#utility.yul\":11990:11994   */\n      dup2\n        /* \"#utility.yul\":11986:12006   */\n      sub\n        /* \"#utility.yul\":11982:11983   */\n      0x00\n        /* \"#utility.yul\":11971:11980   */\n      dup4\n        /* \"#utility.yul\":11967:11984   */\n      add\n        /* \"#utility.yul\":11960:12007   */\n      mstore\n        /* \"#utility.yul\":12024:12102   */\n      tag_488\n        /* \"#utility.yul\":12097:12101   */\n      dup2\n        /* \"#utility.yul\":12088:12094   */\n      dup5\n        /* \"#utility.yul\":12024:12102   */\n      tag_384\n      jump\t// in\n    tag_488:\n        /* \"#utility.yul\":12016:12102   */\n      swap1\n      pop\n        /* \"#utility.yul\":11914:12109   */\n      swap3\n      swap2\n      pop\n      pop\n      jump\t// out\n        /* \"#utility.yul\":12115:12534   */\n    tag_279:\n        /* \"#utility.yul\":12281:12285   */\n      0x00\n        /* \"#utility.yul\":12319:12321   */\n      0x20\n        /* \"#utility.yul\":12308:12317   */\n      dup3\n        /* \"#utility.yul\":12304:12322   */\n      add\n        /* \"#utility.yul\":12296:12322   */\n      swap1\n      pop\n        /* \"#utility.yul\":12368:12377   */\n      dup2\n        /* \"#utility.yul\":12362:12366   */\n      dup2\n        /* \"#utility.yul\":12358:12378   */\n      sub\n        /* \"#utility.yul\":12354:12355   */\n      0x00\n        /* \"#utility.yul\":12343:12352   */\n      dup4\n        /* \"#utility.yul\":12339:12356   */\n      add\n        /* \"#utility.yul\":12332:12379   */\n      mstore\n        /* \"#utility.yul\":12396:12527   */\n      tag_490\n        /* \"#utility.yul\":12522:12526   */\n      dup2\n        /* \"#utility.yul\":12396:12527   */\n      tag_394\n      jump\t// in\n    tag_490:\n        /* \"#utility.yul\":12388:12527   */\n      swap1\n      pop\n        /* \"#utility.yul\":12286:12534   */\n      swap2\n      swap1\n      pop\n      jump\t// out\n        /* \"#utility.yul\":12540:12959   */\n    tag_214:\n        /* \"#utility.yul\":12706:12710   */\n      0x00\n        /* \"#utility.yul\":12744:12746   */\n      0x20\n        /* \"#utility.yul\":12733:12742   */\n      dup3\n        /* \"#utility.yul\":12729:12747   */\n      add\n        /* \"#utility.yul\":12721:12747   */\n      swap1\n      pop\n        /* \"#utility.yul\":12793:12802   */\n      dup2\n        /* \"#utility.yul\":12787:12791   */\n      dup2\n        /* \"#utility.yul\":12783:12803   */\n      sub\n        /* \"#utility.yul\":12779:12780   */\n      0x00\n        /* \"#utility.yul\":12768:12777   */\n      dup4\n        /* \"#utility.yul\":12764:12781   */\n      add\n        /* \"#utility.yul\":12757:12804   */\n      mstore\n        /* \"#utility.yul\":12821:12952   */\n      tag_492\n        /* \"#utility.yul\":12947:12951   */\n      dup2\n        /* \"#utility.yul\":12821:12952   */\n      tag_399\n      jump\t// in\n    tag_492:\n        /* \"#utility.yul\":12813:12952   */\n      swap1\n      pop\n        /* \"#utility.yul\":12711:12959   */\n      swap2\n      swap1\n      pop\n      jump\t// out\n        /* \"#utility.yul\":12965:13384   */\n    tag_264:\n        /* \"#utility.yul\":13131:13135   */\n      0x00\n        /* \"#utility.yul\":13169:13171   */\n      0x20\n        /* \"#utility.yul\":13158:13167   */\n      dup3\n        /* \"#utility.yul\":13154:13172   */\n      add\n        /* \"#utility.yul\":13146:13172   */\n      swap1\n      pop\n        /* \"#utility.yul\":13218:13227   */\n      dup2\n        /* \"#utility.yul\":13212:13216   */\n      dup2\n        /* \"#utility.yul\":13208:13228   */\n      sub\n        /* \"#utility.yul\":13204:13205   */\n      0x00\n        /* \"#utility.yul\":13193:13202   */\n      dup4\n        /* \"#utility.yul\":13189:13206   */\n      add\n        /* \"#utility.yul\":13182:13229   */\n      mstore\n        /* \"#utility.yul\":13246:13377   */\n      tag_494\n        /* \"#utility.yul\":13372:13376   */\n      dup2\n        /* \"#utility.yul\":13246:13377   */\n      tag_404\n      jump\t// in\n    tag_494:\n        /* \"#utility.yul\":13238:13377   */\n      swap1\n      pop\n        /* \"#utility.yul\":13136:13384   */\n      swap2\n      swap1\n      pop\n      jump\t// out\n        /* \"#utility.yul\":13390:13809   */\n    tag_161:\n        /* \"#utility.yul\":13556:13560   */\n      0x00\n        /* \"#utility.yul\":13594:13596   */\n      0x20\n        /* \"#utility.yul\":13583:13592   */\n      dup3\n        /* \"#utility.yul\":13579:13597   */\n      add\n        /* \"#utility.yul\":13571:13597   */\n      swap1\n      pop\n        /* \"#utility.yul\":13643:13652   */\n      dup2\n        /* \"#utility.yul\":13637:13641   */\n      dup2\n        /* \"#utility.yul\":13633:13653   */\n      sub\n        /* \"#utility.yul\":13629:13630   */\n      0x00\n        /* \"#utility.yul\":13618:13627   */\n      dup4\n        /* \"#utility.yul\":13614:13631   */\n      add\n        /* \"#utility.yul\":13607:13654   */\n      mstore\n        /* \"#utility.yul\":13671:13802   */\n      tag_496\n        /* \"#utility.yul\":13797:13801   */\n      dup2\n        /* \"#utility.yul\":13671:13802   */\n      tag_409\n      jump\t// in\n    tag_496:\n        /* \"#utility.yul\":13663:13802   */\n      swap1\n      pop\n        /* \"#utility.yul\":13561:13809   */\n      swap2\n      swap1\n      pop\n      jump\t// out\n        /* \"#utility.yul\":13815:14234   */\n    tag_166:\n        /* \"#utility.yul\":13981:13985   */\n      0x00\n        /* \"#utility.yul\":14019:14021   */\n      0x20\n        /* \"#utility.yul\":14008:14017   */\n      dup3\n        /* \"#utility.yul\":14004:14022   */\n      add\n        /* \"#utility.yul\":13996:14022   */\n      swap1\n      pop\n        /* \"#utility.yul\":14068:14077   */\n      dup2\n        /* \"#utility.yul\":14062:14066   */\n      dup2\n        /* \"#utility.yul\":14058:14078   */\n      sub\n        /* \"#utility.yul\":14054:14055   */\n      0x00\n        /* \"#utility.yul\":14043:14052   */\n      dup4\n        /* \"#utility.yul\":14039:14056   */\n      add\n        /* \"#utility.yul\":14032:14079   */\n      mstore\n        /* \"#utility.yul\":14096:14227   */\n      tag_498\n        /* \"#utility.yul\":14222:14226   */\n      dup2\n        /* \"#utility.yul\":14096:14227   */\n      tag_414\n      jump\t// in\n    tag_498:\n        /* \"#utility.yul\":14088:14227   */\n      swap1\n      pop\n        /* \"#utility.yul\":13986:14234   */\n      swap2\n      swap1\n      pop\n      jump\t// out\n        /* \"#utility.yul\":14240:14659   */\n    tag_271:\n        /* \"#utility.yul\":14406:14410   */\n      0x00\n        /* \"#utility.yul\":14444:14446   */\n      0x20\n        /* \"#utility.yul\":14433:14442   */\n      dup3\n        /* \"#utility.yul\":14429:14447   */\n      add\n        /* \"#utility.yul\":14421:14447   */\n      swap1\n      pop\n        /* \"#utility.yul\":14493:14502   */\n      dup2\n        /* \"#utility.yul\":14487:14491   */\n      dup2\n        /* \"#utility.yul\":14483:14503   */\n      sub\n        /* \"#utility.yul\":14479:14480   */\n      0x00\n        /* \"#utility.yul\":14468:14477   */\n      dup4\n        /* \"#utility.yul\":14464:14481   */\n      add\n        /* \"#utility.yul\":14457:14504   */\n      mstore\n        /* \"#utility.yul\":14521:14652   */\n      tag_500\n        /* \"#utility.yul\":14647:14651   */\n      dup2\n        /* \"#utility.yul\":14521:14652   */\n      tag_419\n      jump\t// in\n    tag_500:\n        /* \"#utility.yul\":14513:14652   */\n      swap1\n      pop\n        /* \"#utility.yul\":14411:14659   */\n      swap2\n      swap1\n      pop\n      jump\t// out\n        /* \"#utility.yul\":14665:15084   */\n    tag_283:\n        /* \"#utility.yul\":14831:14835   */\n      0x00\n        /* \"#utility.yul\":14869:14871   */\n      0x20\n        /* \"#utility.yul\":14858:14867   */\n      dup3\n        /* \"#utility.yul\":14854:14872   */\n      add\n        /* \"#utility.yul\":14846:14872   */\n      swap1\n      pop\n        /* \"#utility.yul\":14918:14927   */\n      dup2\n        /* \"#utility.yul\":14912:14916   */\n      dup2\n        /* \"#utility.yul\":14908:14928   */\n      sub\n        /* \"#utility.yul\":14904:14905   */\n      0x00\n        /* \"#utility.yul\":14893:14902   */\n      dup4\n        /* \"#utility.yul\":14889:14906   */\n      add\n        /* \"#utility.yul\":14882:14929   */\n      mstore\n        /* \"#utility.yul\":14946:15077   */\n      tag_502\n        /* \"#utility.yul\":15072:15076   */\n      dup2\n        /* \"#utility.yul\":14946:15077   */\n      tag_424\n      jump\t// in\n    tag_502:\n        /* \"#utility.yul\":14938:15077   */\n      swap1\n      pop\n        /* \"#utility.yul\":14836:15084   */\n      swap2\n      swap1\n      pop\n      jump\t// out\n        /* \"#utility.yul\":15090:15509   */\n    tag_223:\n        /* \"#utility.yul\":15256:15260   */\n      0x00\n        /* \"#utility.yul\":15294:15296   */\n      0x20\n        /* \"#utility.yul\":15283:15292   */\n      dup3\n        /* \"#utility.yul\":15279:15297   */\n      add\n        /* \"#utility.yul\":15271:15297   */\n      swap1\n      pop\n        /* \"#utility.yul\":15343:15352   */\n      dup2\n        /* \"#utility.yul\":15337:15341   */\n      dup2\n        /* \"#utility.yul\":15333:15353   */\n      sub\n        /* \"#utility.yul\":15329:15330   */\n      0x00\n        /* \"#utility.yul\":15318:15327   */\n      dup4\n        /* \"#utility.yul\":15314:15331   */\n      add\n        /* \"#utility.yul\":15307:15354   */\n      mstore\n        /* \"#utility.yul\":15371:15502   */\n      tag_504\n        /* \"#utility.yul\":15497:15501   */\n      dup2\n        /* \"#utility.yul\":15371:15502   */\n      tag_429\n      jump\t// in\n    tag_504:\n        /* \"#utility.yul\":15363:15502   */\n      swap1\n      pop\n        /* \"#utility.yul\":15261:15509   */\n      swap2\n      swap1\n      pop\n      jump\t// out\n        /* \"#utility.yul\":15515:15934   */\n    tag_177:\n        /* \"#utility.yul\":15681:15685   */\n      0x00\n        /* \"#utility.yul\":15719:15721   */\n      0x20\n        /* \"#utility.yul\":15708:15717   */\n      dup3\n        /* \"#utility.yul\":15704:15722   */\n      add\n        /* \"#utility.yul\":15696:15722   */\n      swap1\n      pop\n        /* \"#utility.yul\":15768:15777   */\n      dup2\n        /* \"#utility.yul\":15762:15766   */\n      dup2\n        /* \"#utility.yul\":15758:15778   */\n      sub\n        /* \"#utility.yul\":15754:15755   */\n      0x00\n        /* \"#utility.yul\":15743:15752   */\n      dup4\n        /* \"#utility.yul\":15739:15756   */\n      add\n        /* \"#utility.yul\":15732:15779   */\n      mstore\n        /* \"#utility.yul\":15796:15927   */\n      tag_506\n        /* \"#utility.yul\":15922:15926   */\n      dup2\n        /* \"#utility.yul\":15796:15927   */\n      tag_434\n      jump\t// in\n    tag_506:\n        /* \"#utility.yul\":15788:15927   */\n      swap1\n      pop\n        /* \"#utility.yul\":15686:15934   */\n      swap2\n      swap1\n      pop\n      jump\t// out\n        /* \"#utility.yul\":15940:16359   */\n    tag_276:\n        /* \"#utility.yul\":16106:16110   */\n      0x00\n        /* \"#utility.yul\":16144:16146   */\n      0x20\n        /* \"#utility.yul\":16133:16142   */\n      dup3\n        /* \"#utility.yul\":16129:16147   */\n      add\n        /* \"#utility.yul\":16121:16147   */\n      swap1\n      pop\n        /* \"#utility.yul\":16193:16202   */\n      dup2\n        /* \"#utility.yul\":16187:16191   */\n      dup2\n        /* \"#utility.yul\":16183:16203   */\n      sub\n        /* \"#utility.yul\":16179:16180   */\n      0x00\n        /* \"#utility.yul\":16168:16177   */\n      dup4\n        /* \"#utility.yul\":16164:16181   */\n      add\n        /* \"#utility.yul\":16157:16204   */\n      mstore\n        /* \"#utility.yul\":16221:16352   */\n      tag_508\n        /* \"#utility.yul\":16347:16351   */\n      dup2\n        /* \"#utility.yul\":16221:16352   */\n      tag_439\n      jump\t// in\n    tag_508:\n        /* \"#utility.yul\":16213:16352   */\n      swap1\n      pop\n        /* \"#utility.yul\":16111:16359   */\n      swap2\n      swap1\n      pop\n      jump\t// out\n        /* \"#utility.yul\":16365:16784   */\n    tag_261:\n        /* \"#utility.yul\":16531:16535   */\n      0x00\n        /* \"#utility.yul\":16569:16571   */\n      0x20\n        /* \"#utility.yul\":16558:16567   */\n      dup3\n        /* \"#utility.yul\":16554:16572   */\n      add\n        /* \"#utility.yul\":16546:16572   */\n      swap1\n      pop\n        /* \"#utility.yul\":16618:16627   */\n      dup2\n        /* \"#utility.yul\":16612:16616   */\n      dup2\n        /* \"#utility.yul\":16608:16628   */\n      sub\n        /* \"#utility.yul\":16604:16605   */\n      0x00\n        /* \"#utility.yul\":16593:16602   */\n      dup4\n        /* \"#utility.yul\":16589:16606   */\n      add\n        /* \"#utility.yul\":16582:16629   */\n      mstore\n        /* \"#utility.yul\":16646:16777   */\n      tag_510\n        /* \"#utility.yul\":16772:16776   */\n      dup2\n        /* \"#utility.yul\":16646:16777   */\n      tag_444\n      jump\t// in\n    tag_510:\n        /* \"#utility.yul\":16638:16777   */\n      swap1\n      pop\n        /* \"#utility.yul\":16536:16784   */\n      swap2\n      swap1\n      pop\n      jump\t// out\n        /* \"#utility.yul\":16790:17209   */\n    tag_230:\n        /* \"#utility.yul\":16956:16960   */\n      0x00\n        /* \"#utility.yul\":16994:16996   */\n      0x20\n        /* \"#utility.yul\":16983:16992   */\n      dup3\n        /* \"#utility.yul\":16979:16997   */\n      add\n        /* \"#utility.yul\":16971:16997   */\n      swap1\n      pop\n        /* \"#utility.yul\":17043:17052   */\n      dup2\n        /* \"#utility.yul\":17037:17041   */\n      dup2\n        /* \"#utility.yul\":17033:17053   */\n      sub\n        /* \"#utility.yul\":17029:17030   */\n      0x00\n        /* \"#utility.yul\":17018:17027   */\n      dup4\n        /* \"#utility.yul\":17014:17031   */\n      add\n        /* \"#utility.yul\":17007:17054   */\n      mstore\n        /* \"#utility.yul\":17071:17202   */\n      tag_512\n        /* \"#utility.yul\":17197:17201   */\n      dup2\n        /* \"#utility.yul\":17071:17202   */\n      tag_449\n      jump\t// in\n    tag_512:\n        /* \"#utility.yul\":17063:17202   */\n      swap1\n      pop\n        /* \"#utility.yul\":16961:17209   */\n      swap2\n      swap1\n      pop\n      jump\t// out\n        /* \"#utility.yul\":17215:17634   */\n    tag_149:\n        /* \"#utility.yul\":17381:17385   */\n      0x00\n        /* \"#utility.yul\":17419:17421   */\n      0x20\n        /* \"#utility.yul\":17408:17417   */\n      dup3\n        /* \"#utility.yul\":17404:17422   */\n      add\n        /* \"#utility.yul\":17396:17422   */\n      swap1\n      pop\n        /* \"#utility.yul\":17468:17477   */\n      dup2\n        /* \"#utility.yul\":17462:17466   */\n      dup2\n        /* \"#utility.yul\":17458:17478   */\n      sub\n        /* \"#utility.yul\":17454:17455   */\n      0x00\n        /* \"#utility.yul\":17443:17452   */\n      dup4\n        /* \"#utility.yul\":17439:17456   */\n      add\n        /* \"#utility.yul\":17432:17479   */\n      mstore\n        /* \"#utility.yul\":17496:17627   */\n      tag_514\n        /* \"#utility.yul\":17622:17626   */\n      dup2\n        /* \"#utility.yul\":17496:17627   */\n      tag_454\n      jump\t// in\n    tag_514:\n        /* \"#utility.yul\":17488:17627   */\n      swap1\n      pop\n        /* \"#utility.yul\":17386:17634   */\n      swap2\n      swap1\n      pop\n      jump\t// out\n        /* \"#utility.yul\":17640:18059   */\n    tag_199:\n        /* \"#utility.yul\":17806:17810   */\n      0x00\n        /* \"#utility.yul\":17844:17846   */\n      0x20\n        /* \"#utility.yul\":17833:17842   */\n      dup3\n        /* \"#utility.yul\":17829:17847   */\n      add\n        /* \"#utility.yul\":17821:17847   */\n      swap1\n      pop\n        /* \"#utility.yul\":17893:17902   */\n      dup2\n        /* \"#utility.yul\":17887:17891   */\n      dup2\n        /* \"#utility.yul\":17883:17903   */\n      sub\n        /* \"#utility.yul\":17879:17880   */\n      0x00\n        /* \"#utility.yul\":17868:17877   */\n      dup4\n        /* \"#utility.yul\":17864:17881   */\n      add\n        /* \"#utility.yul\":17857:17904   */\n      mstore\n        /* \"#utility.yul\":17921:18052   */\n      tag_516\n        /* \"#utility.yul\":18047:18051   */\n      dup2\n        /* \"#utility.yul\":17921:18052   */\n      tag_459\n      jump\t// in\n    tag_516:\n        /* \"#utility.yul\":17913:18052   */\n      swap1\n      pop\n        /* \"#utility.yul\":17811:18059   */\n      swap2\n      swap1\n      pop\n      jump\t// out\n        /* \"#utility.yul\":18065:18484   */\n    tag_249:\n        /* \"#utility.yul\":18231:18235   */\n      0x00\n        /* \"#utility.yul\":18269:18271   */\n      0x20\n        /* \"#utility.yul\":18258:18267   */\n      dup3\n        /* \"#utility.yul\":18254:18272   */\n      add\n        /* \"#utility.yul\":18246:18272   */\n      swap1\n      pop\n        /* \"#utility.yul\":18318:18327   */\n      dup2\n        /* \"#utility.yul\":18312:18316   */\n      dup2\n        /* \"#utility.yul\":18308:18328   */\n      sub\n        /* \"#utility.yul\":18304:18305   */\n      0x00\n        /* \"#utility.yul\":18293:18302   */\n      dup4\n        /* \"#utility.yul\":18289:18306   */\n      add\n        /* \"#utility.yul\":18282:18329   */\n      mstore\n        /* \"#utility.yul\":18346:18477   */\n      tag_518\n        /* \"#utility.yul\":18472:18476   */\n      dup2\n        /* \"#utility.yul\":18346:18477   */\n      tag_464\n      jump\t// in\n    tag_518:\n        /* \"#utility.yul\":18338:18477   */\n      swap1\n      pop\n        /* \"#utility.yul\":18236:18484   */\n      swap2\n      swap1\n      pop\n      jump\t// out\n        /* \"#utility.yul\":18490:18712   */\n    tag_43:\n        /* \"#utility.yul\":18583:18587   */\n      0x00\n        /* \"#utility.yul\":18621:18623   */\n      0x20\n        /* \"#utility.yul\":18610:18619   */\n      dup3\n        /* \"#utility.yul\":18606:18624   */\n      add\n        /* \"#utility.yul\":18598:18624   */\n      swap1\n      pop\n        /* \"#utility.yul\":18634:18705   */\n      tag_520\n        /* \"#utility.yul\":18702:18703   */\n      0x00\n        /* \"#utility.yul\":18691:18700   */\n      dup4\n        /* \"#utility.yul\":18687:18704   */\n      add\n        /* \"#utility.yul\":18678:18684   */\n      dup5\n        /* \"#utility.yul\":18634:18705   */\n      tag_469\n      jump\t// in\n    tag_520:\n        /* \"#utility.yul\":18588:18712   */\n      swap3\n      swap2\n      pop\n      pop\n      jump\t// out\n        /* \"#utility.yul\":18718:18932   */\n    tag_52:\n        /* \"#utility.yul\":18807:18811   */\n      0x00\n        /* \"#utility.yul\":18845:18847   */\n      0x20\n        /* \"#utility.yul\":18834:18843   */\n      dup3\n        /* \"#utility.yul\":18830:18848   */\n      add\n        /* \"#utility.yul\":18822:18848   */\n      swap1\n      pop\n        /* \"#utility.yul\":18858:18925   */\n      tag_522\n        /* \"#utility.yul\":18922:18923   */\n      0x00\n        /* \"#utility.yul\":18911:18920   */\n      dup4\n        /* \"#utility.yul\":18907:18924   */\n      add\n        /* \"#utility.yul\":18898:18904   */\n      dup5\n        /* \"#utility.yul\":18858:18925   */\n      tag_473\n      jump\t// in\n    tag_522:\n        /* \"#utility.yul\":18812:18932   */\n      swap3\n      swap2\n      pop\n      pop\n      jump\t// out\n        /* \"#utility.yul\":18938:19067   */\n    tag_324:\n        /* \"#utility.yul\":18972:18978   */\n      0x00\n        /* \"#utility.yul\":18999:19019   */\n      tag_524\n      tag_525\n      jump\t// in\n    tag_524:\n        /* \"#utility.yul\":18989:19019   */\n      swap1\n      pop\n        /* \"#utility.yul\":19028:19061   */\n      tag_526\n        /* \"#utility.yul\":19056:19060   */\n      dup3\n        /* \"#utility.yul\":19048:19054   */\n      dup3\n        /* \"#utility.yul\":19028:19061   */\n      tag_527\n      jump\t// in\n    tag_526:\n        /* \"#utility.yul\":18979:19067   */\n      swap2\n      swap1\n      pop\n      jump\t// out\n        /* \"#utility.yul\":19073:19148   */\n    tag_525:\n        /* \"#utility.yul\":19106:19112   */\n      0x00\n        /* \"#utility.yul\":19139:19141   */\n      0x40\n        /* \"#utility.yul\":19133:19142   */\n      mload\n        /* \"#utility.yul\":19123:19142   */\n      swap1\n      pop\n        /* \"#utility.yul\":19113:19148   */\n      swap1\n      jump\t// out\n        /* \"#utility.yul\":19154:19462   */\n    tag_323:\n        /* \"#utility.yul\":19216:19220   */\n      0x00\n        /* \"#utility.yul\":19306:19324   */\n      0xffffffffffffffff\n        /* \"#utility.yul\":19298:19304   */\n      dup3\n        /* \"#utility.yul\":19295:19325   */\n      gt\n        /* \"#utility.yul\":19292:19294   */\n      iszero\n      tag_530\n      jumpi\n        /* \"#utility.yul\":19328:19346   */\n      tag_531\n      tag_532\n      jump\t// in\n    tag_531:\n        /* \"#utility.yul\":19292:19294   */\n    tag_530:\n        /* \"#utility.yul\":19366:19395   */\n      tag_533\n        /* \"#utility.yul\":19388:19394   */\n      dup3\n        /* \"#utility.yul\":19366:19395   */\n      tag_393\n      jump\t// in\n    tag_533:\n        /* \"#utility.yul\":19358:19395   */\n      swap1\n      pop\n        /* \"#utility.yul\":19450:19454   */\n      0x20\n        /* \"#utility.yul\":19444:19448   */\n      dup2\n        /* \"#utility.yul\":19440:19455   */\n      add\n        /* \"#utility.yul\":19432:19455   */\n      swap1\n      pop\n        /* \"#utility.yul\":19221:19462   */\n      swap2\n      swap1\n      pop\n      jump\t// out\n        /* \"#utility.yul\":19468:19567   */\n    tag_387:\n        /* \"#utility.yul\":19520:19526   */\n      0x00\n        /* \"#utility.yul\":19554:19559   */\n      dup2\n        /* \"#utility.yul\":19548:19560   */\n      mload\n        /* \"#utility.yul\":19538:19560   */\n      swap1\n      pop\n        /* \"#utility.yul\":19527:19567   */\n      swap2\n      swap1\n      pop\n      jump\t// out\n        /* \"#utility.yul\":19573:19742   */\n    tag_389:\n        /* \"#utility.yul\":19657:19668   */\n      0x00\n        /* \"#utility.yul\":19691:19697   */\n      dup3\n        /* \"#utility.yul\":19686:19689   */\n      dup3\n        /* \"#utility.yul\":19679:19698   */\n      mstore\n        /* \"#utility.yul\":19731:19735   */\n      0x20\n        /* \"#utility.yul\":19726:19729   */\n      dup3\n        /* \"#utility.yul\":19722:19736   */\n      add\n        /* \"#utility.yul\":19707:19736   */\n      swap1\n      pop\n        /* \"#utility.yul\":19669:19742   */\n      swap3\n      swap2\n      pop\n      pop\n      jump\t// out\n        /* \"#utility.yul\":19748:20053   */\n    tag_145:\n        /* \"#utility.yul\":19788:19791   */\n      0x00\n        /* \"#utility.yul\":19807:19827   */\n      tag_537\n        /* \"#utility.yul\":19825:19826   */\n      dup3\n        /* \"#utility.yul\":19807:19827   */\n      tag_472\n      jump\t// in\n    tag_537:\n        /* \"#utility.yul\":19802:19827   */\n      swap2\n      pop\n        /* \"#utility.yul\":19841:19861   */\n      tag_538\n        /* \"#utility.yul\":19859:19860   */\n      dup4\n        /* \"#utility.yul\":19841:19861   */\n      tag_472\n      jump\t// in\n    tag_538:\n        /* \"#utility.yul\":19836:19861   */\n      swap3\n      pop\n        /* \"#utility.yul\":19995:19996   */\n      dup3\n        /* \"#utility.yul\":19927:19993   */\n      0xffffffffffffffffffffffffffffffffffffffffffffffffffffffffffffffff\n        /* \"#utility.yul\":19923:19997   */\n      sub\n        /* \"#utility.yul\":19920:19921   */\n      dup3\n        /* \"#utility.yul\":19917:19998   */\n      gt\n        /* \"#utility.yul\":19914:19916   */\n      iszero\n      tag_539\n      jumpi\n        /* \"#utility.yul\":20001:20019   */\n      tag_540\n      tag_541\n      jump\t// in\n    tag_540:\n        /* \"#utility.yul\":19914:19916   */\n    tag_539:\n        /* \"#utility.yul\":20045:20046   */\n      dup3\n        /* \"#utility.yul\":20042:20043   */\n      dup3\n        /* \"#utility.yul\":20038:20047   */\n      add\n        /* \"#utility.yul\":20031:20047   */\n      swap1\n      pop\n        /* \"#utility.yul\":19792:20053   */\n      swap3\n      swap2\n      pop\n      pop\n      jump\t// out\n        /* \"#utility.yul\":20059:20250   */\n    tag_163:\n        /* \"#utility.yul\":20099:20103   */\n      0x00\n        /* \"#utility.yul\":20119:20139   */\n      tag_543\n        /* \"#utility.yul\":20137:20138   */\n      dup3\n        /* \"#utility.yul\":20119:20139   */\n      tag_472\n      jump\t// in\n    tag_543:\n        /* \"#utility.yul\":20114:20139   */\n      swap2\n      pop\n        /* \"#utility.yul\":20153:20173   */\n      tag_544\n        /* \"#utility.yul\":20171:20172   */\n      dup4\n        /* \"#utility.yul\":20153:20173   */\n      tag_472\n      jump\t// in\n    tag_544:\n        /* \"#utility.yul\":20148:20173   */\n      swap3\n      pop\n        /* \"#utility.yul\":20192:20193   */\n      dup3\n        /* \"#utility.yul\":20189:20190   */\n      dup3\n        /* \"#utility.yul\":20186:20194   */\n      lt\n        /* \"#utility.yul\":20183:20185   */\n      iszero\n      tag_545\n      jumpi\n        /* \"#utility.yul\":20197:20215   */\n      tag_546\n      tag_541\n      jump\t// in\n    tag_546:\n        /* \"#utility.yul\":20183:20185   */\n    tag_545:\n        /* \"#utility.yul\":20242:20243   */\n      dup3\n        /* \"#utility.yul\":20239:20240   */\n      dup3\n        /* \"#utility.yul\":20235:20244   */\n      sub\n        /* \"#utility.yul\":20227:20244   */\n      swap1\n      pop\n        /* \"#utility.yul\":20104:20250   */\n      swap3\n      swap2\n      pop\n      pop\n      jump\t// out\n        /* \"#utility.yul\":20256:20352   */\n    tag_375:\n        /* \"#utility.yul\":20293:20300   */\n      0x00\n        /* \"#utility.yul\":20322:20346   */\n      tag_548\n        /* \"#utility.yul\":20340:20345   */\n      dup3\n        /* \"#utility.yul\":20322:20346   */\n      tag_549\n      jump\t// in\n    tag_548:\n        /* \"#utility.yul\":20311:20346   */\n      swap1\n      pop\n        /* \"#utility.yul\":20301:20352   */\n      swap2\n      swap1\n      pop\n      jump\t// out\n        /* \"#utility.yul\":20358:20448   */\n    tag_379:\n        /* \"#utility.yul\":20392:20399   */\n      0x00\n        /* \"#utility.yul\":20435:20440   */\n      dup2\n        /* \"#utility.yul\":20428:20441   */\n      iszero\n        /* \"#utility.yul\":20421:20442   */\n      iszero\n        /* \"#utility.yul\":20410:20442   */\n      swap1\n      pop\n        /* \"#utility.yul\":20400:20448   */\n      swap2\n      swap1\n      pop\n      jump\t// out\n        /* \"#utility.yul\":20454:20580   */\n    tag_549:\n        /* \"#utility.yul\":20491:20498   */\n      0x00\n        /* \"#utility.yul\":20531:20573   */\n      0xffffffffffffffffffffffffffffffffffffffff\n        /* \"#utility.yul\":20524:20529   */\n      dup3\n        /* \"#utility.yul\":20520:20574   */\n      and\n        /* \"#utility.yul\":20509:20574   */\n      swap1\n      pop\n        /* \"#utility.yul\":20499:20580   */\n      swap2\n      swap1\n      pop\n      jump\t// out\n        /* \"#utility.yul\":20586:20663   */\n    tag_472:\n        /* \"#utility.yul\":20623:20630   */\n      0x00\n        /* \"#utility.yul\":20652:20657   */\n      dup2\n        /* \"#utility.yul\":20641:20657   */\n      swap1\n      pop\n        /* \"#utility.yul\":20631:20663   */\n      swap2\n      swap1\n      pop\n      jump\t// out\n        /* \"#utility.yul\":20669:20755   */\n    tag_476:\n        /* \"#utility.yul\":20704:20711   */\n      0x00\n        /* \"#utility.yul\":20744:20748   */\n      0xff\n        /* \"#utility.yul\":20737:20742   */\n      dup3\n        /* \"#utility.yul\":20733:20749   */\n      and\n        /* \"#utility.yul\":20722:20749   */\n      swap1\n      pop\n        /* \"#utility.yul\":20712:20755   */\n      swap2\n      swap1\n      pop\n      jump\t// out\n        /* \"#utility.yul\":20761:20878   */\n    tag_383:\n        /* \"#utility.yul\":20817:20826   */\n      0x00\n        /* \"#utility.yul\":20850:20872   */\n      tag_555\n        /* \"#utility.yul\":20866:20871   */\n      dup3\n        /* \"#utility.yul\":20850:20872   */\n      tag_476\n      jump\t// in\n    tag_555:\n        /* \"#utility.yul\":20837:20872   */\n      swap1\n      pop\n        /* \"#utility.yul\":20827:20878   */\n      swap2\n      swap1\n      pop\n      jump\t// out\n        /* \"#utility.yul\":20884:21038   */\n    tag_327:\n        /* \"#utility.yul\":20968:20974   */\n      dup3\n        /* \"#utility.yul\":20963:20966   */\n      dup2\n        /* \"#utility.yul\":20958:20961   */\n      dup4\n        /* \"#utility.yul\":20945:20975   */\n      calldatacopy\n        /* \"#utility.yul\":21030:21031   */\n      0x00\n        /* \"#utility.yul\":21021:21027   */\n      dup4\n        /* \"#utility.yul\":21016:21019   */\n      dup4\n        /* \"#utility.yul\":21012:21028   */\n      add\n        /* \"#utility.yul\":21005:21032   */\n      mstore\n        /* \"#utility.yul\":20935:21038   */\n      pop\n      pop\n      pop\n      jump\t// out\n        /* \"#utility.yul\":21044:21351   */\n    tag_391:\n        /* \"#utility.yul\":21112:21113   */\n      0x00\n        /* \"#utility.yul\":21122:21235   */\n    tag_558:\n        /* \"#utility.yul\":21136:21142   */\n      dup4\n        /* \"#utility.yul\":21133:21134   */\n      dup2\n        /* \"#utility.yul\":21130:21143   */\n      lt\n        /* \"#utility.yul\":21122:21235   */\n      iszero\n      tag_560\n      jumpi\n        /* \"#utility.yul\":21221:21222   */\n      dup1\n        /* \"#utility.yul\":21216:21219   */\n      dup3\n        /* \"#utility.yul\":21212:21223   */\n      add\n        /* \"#utility.yul\":21206:21224   */\n      mload\n        /* \"#utility.yul\":21202:21203   */\n      dup2\n        /* \"#utility.yul\":21197:21200   */\n      dup5\n        /* \"#utility.yul\":21193:21204   */\n      add\n        /* \"#utility.yul\":21186:21225   */\n      mstore\n        /* \"#utility.yul\":21158:21160   */\n      0x20\n        /* \"#utility.yul\":21155:21156   */\n      dup2\n        /* \"#utility.yul\":21151:21161   */\n      add\n        /* \"#utility.yul\":21146:21161   */\n      swap1\n      pop\n        /* \"#utility.yul\":21122:21235   */\n      jump(tag_558)\n    tag_560:\n        /* \"#utility.yul\":21253:21259   */\n      dup4\n        /* \"#utility.yul\":21250:21251   */\n      dup2\n        /* \"#utility.yul\":21247:21260   */\n      gt\n        /* \"#utility.yul\":21244:21246   */\n      iszero\n      tag_561\n      jumpi\n        /* \"#utility.yul\":21333:21334   */\n      0x00\n        /* \"#utility.yul\":21324:21330   */\n      dup5\n        /* \"#utility.yul\":21319:21322   */\n      dup5\n        /* \"#utility.yul\":21315:21331   */\n      add\n        /* \"#utility.yul\":21308:21335   */\n      mstore\n        /* \"#utility.yul\":21244:21246   */\n    tag_561:\n        /* \"#utility.yul\":21093:21351   */\n      pop\n      pop\n      pop\n      pop\n      jump\t// out\n        /* \"#utility.yul\":21357:21677   */\n    tag_106:\n        /* \"#utility.yul\":21401:21407   */\n      0x00\n        /* \"#utility.yul\":21438:21439   */\n      0x02\n        /* \"#utility.yul\":21432:21436   */\n      dup3\n        /* \"#utility.yul\":21428:21440   */\n      div\n        /* \"#utility.yul\":21418:21440   */\n      swap1\n      pop\n        /* \"#utility.yul\":21485:21486   */\n      0x01\n        /* \"#utility.yul\":21479:21483   */\n      dup3\n        /* \"#utility.yul\":21475:21487   */\n      and\n        /* \"#utility.yul\":21506:21524   */\n      dup1\n        /* \"#utility.yul\":21496:21498   */\n      tag_563\n      jumpi\n        /* \"#utility.yul\":21562:21566   */\n      0x7f\n        /* \"#utility.yul\":21554:21560   */\n      dup3\n        /* \"#utility.yul\":21550:21567   */\n      and\n        /* \"#utility.yul\":21540:21567   */\n      swap2\n      pop\n        /* \"#utility.yul\":21496:21498   */\n    tag_563:\n        /* \"#utility.yul\":21624:21626   */\n      0x20\n        /* \"#utility.yul\":21616:21622   */\n      dup3\n        /* \"#utility.yul\":21613:21627   */\n      lt\n        /* \"#utility.yul\":21593:21611   */\n      dup2\n        /* \"#utility.yul\":21590:21628   */\n      eq\n        /* \"#utility.yul\":21587:21589   */\n      iszero\n      tag_564\n      jumpi\n        /* \"#utility.yul\":21643:21661   */\n      tag_565\n      tag_566\n      jump\t// in\n    tag_565:\n        /* \"#utility.yul\":21587:21589   */\n    tag_564:\n        /* \"#utility.yul\":21408:21677   */\n      pop\n      swap2\n      swap1\n      pop\n      jump\t// out\n        /* \"#utility.yul\":21683:21964   */\n    tag_527:\n        /* \"#utility.yul\":21766:21793   */\n      tag_568\n        /* \"#utility.yul\":21788:21792   */\n      dup3\n        /* \"#utility.yul\":21766:21793   */\n      tag_393\n      jump\t// in\n    tag_568:\n        /* \"#utility.yul\":21758:21764   */\n      dup2\n        /* \"#utility.yul\":21754:21794   */\n      add\n        /* \"#utility.yul\":21896:21902   */\n      dup2\n        /* \"#utility.yul\":21884:21894   */\n      dup2\n        /* \"#utility.yul\":21881:21903   */\n      lt\n        /* \"#utility.yul\":21860:21878   */\n      0xffffffffffffffff\n        /* \"#utility.yul\":21848:21858   */\n      dup3\n        /* \"#utility.yul\":21845:21879   */\n      gt\n        /* \"#utility.yul\":21842:21904   */\n      or\n        /* \"#utility.yul\":21839:21841   */\n      iszero\n      tag_569\n      jumpi\n        /* \"#utility.yul\":21907:21925   */\n      tag_570\n      tag_532\n      jump\t// in\n    tag_570:\n        /* \"#utility.yul\":21839:21841   */\n    tag_569:\n        /* \"#utility.yul\":21947:21957   */\n      dup1\n        /* \"#utility.yul\":21943:21945   */\n      0x40\n        /* \"#utility.yul\":21936:21958   */\n      mstore\n        /* \"#utility.yul\":21726:21964   */\n      pop\n      pop\n      pop\n      jump\t// out\n        /* \"#utility.yul\":21970:22150   */\n    tag_541:\n        /* \"#utility.yul\":22018:22095   */\n      0x4e487b7100000000000000000000000000000000000000000000000000000000\n        /* \"#utility.yul\":22015:22016   */\n      0x00\n        /* \"#utility.yul\":22008:22096   */\n      mstore\n        /* \"#utility.yul\":22115:22119   */\n      0x11\n        /* \"#utility.yul\":22112:22113   */\n      0x04\n        /* \"#utility.yul\":22105:22120   */\n      mstore\n        /* \"#utility.yul\":22139:22143   */\n      0x24\n        /* \"#utility.yul\":22136:22137   */\n      0x00\n        /* \"#utility.yul\":22129:22144   */\n      revert\n        /* \"#utility.yul\":22156:22336   */\n    tag_566:\n        /* \"#utility.yul\":22204:22281   */\n      0x4e487b7100000000000000000000000000000000000000000000000000000000\n        /* \"#utility.yul\":22201:22202   */\n      0x00\n        /* \"#utility.yul\":22194:22282   */\n      mstore\n        /* \"#utility.yul\":22301:22305   */\n      0x22\n        /* \"#utility.yul\":22298:22299   */\n      0x04\n        /* \"#utility.yul\":22291:22306   */\n      mstore\n        /* \"#utility.yul\":22325:22329   */\n      0x24\n        /* \"#utility.yul\":22322:22323   */\n      0x00\n        /* \"#utility.yul\":22315:22330   */\n      revert\n        /* \"#utility.yul\":22342:22522   */\n    tag_532:\n        /* \"#utility.yul\":22390:22467   */\n      0x4e487b7100000000000000000000000000000000000000000000000000000000\n        /* \"#utility.yul\":22387:22388   */\n      0x00\n        /* \"#utility.yul\":22380:22468   */\n      mstore\n        /* \"#utility.yul\":22487:22491   */\n      0x41\n        /* \"#utility.yul\":22484:22485   */\n      0x04\n        /* \"#utility.yul\":22477:22492   */\n      mstore\n        /* \"#utility.yul\":22511:22515   */\n      0x24\n        /* \"#utility.yul\":22508:22509   */\n      0x00\n        /* \"#utility.yul\":22501:22516   */\n      revert\n        /* \"#utility.yul\":22528:22630   */\n    tag_393:\n        /* \"#utility.yul\":22569:22575   */\n      0x00\n        /* \"#utility.yul\":22620:22622   */\n      0x1f\n        /* \"#utility.yul\":22616:22623   */\n      not\n        /* \"#utility.yul\":22611:22613   */\n      0x1f\n        /* \"#utility.yul\":22604:22609   */\n      dup4\n        /* \"#utility.yul\":22600:22614   */\n      add\n        /* \"#utility.yul\":22596:22624   */\n      and\n        /* \"#utility.yul\":22586:22624   */\n      swap1\n      pop\n        /* \"#utility.yul\":22576:22630   */\n      swap2\n      swap1\n      pop\n      jump\t// out\n        /* \"#utility.yul\":22636:22858   */\n    tag_398:\n        /* \"#utility.yul\":22776:22810   */\n      0x45524332303a207472616e7366657220746f20746865207a65726f2061646472\n        /* \"#utility.yul\":22772:22773   */\n      0x00\n        /* \"#utility.yul\":22764:22770   */\n      dup3\n        /* \"#utility.yul\":22760:22774   */\n      add\n        /* \"#utility.yul\":22753:22811   */\n      mstore\n        /* \"#utility.yul\":22845:22850   */\n      0x6573730000000000000000000000000000000000000000000000000000000000\n        /* \"#utility.yul\":22840:22842   */\n      0x20\n        /* \"#utility.yul\":22832:22838   */\n      dup3\n        /* \"#utility.yul\":22828:22843   */\n      add\n        /* \"#utility.yul\":22821:22851   */\n      mstore\n        /* \"#utility.yul\":22742:22858   */\n      pop\n      jump\t// out\n        /* \"#utility.yul\":22864:23089   */\n    tag_403:\n        /* \"#utility.yul\":23004:23038   */\n      0x4f776e61626c653a206e6577206f776e657220697320746865207a65726f2061\n        /* \"#utility.yul\":23000:23001   */\n      0x00\n        /* \"#utility.yul\":22992:22998   */\n      dup3\n        /* \"#utility.yul\":22988:23002   */\n      add\n        /* \"#utility.yul\":22981:23039   */\n      mstore\n        /* \"#utility.yul\":23073:23081   */\n      0x6464726573730000000000000000000000000000000000000000000000000000\n        /* \"#utility.yul\":23068:23070   */\n      0x20\n        /* \"#utility.yul\":23060:23066   */\n      dup3\n        /* \"#utility.yul\":23056:23071   */\n      add\n        /* \"#utility.yul\":23049:23082   */\n      mstore\n        /* \"#utility.yul\":22970:23089   */\n      pop\n      jump\t// out\n        /* \"#utility.yul\":23095:23316   */\n    tag_408:\n        /* \"#utility.yul\":23235:23269   */\n      0x45524332303a20617070726f766520746f20746865207a65726f206164647265\n        /* \"#utility.yul\":23231:23232   */\n      0x00\n        /* \"#utility.yul\":23223:23229   */\n      dup3\n        /* \"#utility.yul\":23219:23233   */\n      add\n        /* \"#utility.yul\":23212:23270   */\n      mstore\n        /* \"#utility.yul\":23304:23308   */\n      0x7373000000000000000000000000000000000000000000000000000000000000\n        /* \"#utility.yul\":23299:23301   */\n      0x20\n        /* \"#utility.yul\":23291:23297   */\n      dup3\n        /* \"#utility.yul\":23287:23302   */\n      add\n        /* \"#utility.yul\":23280:23309   */\n      mstore\n        /* \"#utility.yul\":23201:23316   */\n      pop\n      jump\t// out\n        /* \"#utility.yul\":23322:23484   */\n    tag_413:\n        /* \"#utility.yul\":23462:23476   */\n      0x554e415554484f52495a45440000000000000000000000000000000000000000\n        /* \"#utility.yul\":23458:23459   */\n      0x00\n        /* \"#utility.yul\":23450:23456   */\n      dup3\n        /* \"#utility.yul\":23446:23460   */\n      add\n        /* \"#utility.yul\":23439:23477   */\n      mstore\n        /* \"#utility.yul\":23428:23484   */\n      pop\n      jump\t// out\n        /* \"#utility.yul\":23490:23651   */\n    tag_418:\n        /* \"#utility.yul\":23630:23643   */\n      0x4f4e20434f4f4c444f574e000000000000000000000000000000000000000000\n        /* \"#utility.yul\":23626:23627   */\n      0x00\n        /* \"#utility.yul\":23618:23624   */\n      dup3\n        /* \"#utility.yul\":23614:23628   */\n      add\n        /* \"#utility.yul\":23607:23644   */\n      mstore\n        /* \"#utility.yul\":23596:23651   */\n      pop\n      jump\t// out\n        /* \"#utility.yul\":23657:23836   */\n    tag_423:\n        /* \"#utility.yul\":23797:23828   */\n      0x45524332303a20696e73756666696369656e7420616c6c6f77616e6365000000\n        /* \"#utility.yul\":23793:23794   */\n      0x00\n        /* \"#utility.yul\":23785:23791   */\n      dup3\n        /* \"#utility.yul\":23781:23795   */\n      add\n        /* \"#utility.yul\":23774:23829   */\n      mstore\n        /* \"#utility.yul\":23763:23836   */\n      pop\n      jump\t// out\n        /* \"#utility.yul\":23842:24067   */\n    tag_428:\n        /* \"#utility.yul\":23982:24016   */\n      0x45524332303a207472616e7366657220616d6f756e7420657863656564732062\n        /* \"#utility.yul\":23978:23979   */\n      0x00\n        /* \"#utility.yul\":23970:23976   */\n      dup3\n        /* \"#utility.yul\":23966:23980   */\n      add\n        /* \"#utility.yul\":23959:24017   */\n      mstore\n        /* \"#utility.yul\":24051:24059   */\n      0x616c616e63650000000000000000000000000000000000000000000000000000\n        /* \"#utility.yul\":24046:24048   */\n      0x20\n        /* \"#utility.yul\":24038:24044   */\n      dup3\n        /* \"#utility.yul\":24034:24049   */\n      add\n        /* \"#utility.yul\":24027:24060   */\n      mstore\n        /* \"#utility.yul\":23948:24067   */\n      pop\n      jump\t// out\n        /* \"#utility.yul\":24073:24306   */\n    tag_433:\n        /* \"#utility.yul\":24213:24247   */\n      0x496e697469616c697a61626c653a20636f6e747261637420697320616c726561\n        /* \"#utility.yul\":24209:24210   */\n      0x00\n        /* \"#utility.yul\":24201:24207   */\n      dup3\n        /* \"#utility.yul\":24197:24211   */\n      add\n        /* \"#utility.yul\":24190:24248   */\n      mstore\n        /* \"#utility.yul\":24282:24298   */\n      0x647920696e697469616c697a6564000000000000000000000000000000000000\n        /* \"#utility.yul\":24277:24279   */\n      0x20\n        /* \"#utility.yul\":24269:24275   */\n      dup3\n        /* \"#utility.yul\":24265:24280   */\n      add\n        /* \"#utility.yul\":24258:24299   */\n      mstore\n        /* \"#utility.yul\":24179:24306   */\n      pop\n      jump\t// out\n        /* \"#utility.yul\":24312:24494   */\n    tag_438:\n        /* \"#utility.yul\":24452:24486   */\n      0x4f776e61626c653a2063616c6c6572206973206e6f7420746865206f776e6572\n        /* \"#utility.yul\":24448:24449   */\n      0x00\n        /* \"#utility.yul\":24440:24446   */\n      dup3\n        /* \"#utility.yul\":24436:24450   */\n      add\n        /* \"#utility.yul\":24429:24487   */\n      mstore\n        /* \"#utility.yul\":24418:24494   */\n      pop\n      jump\t// out\n        /* \"#utility.yul\":24500:24724   */\n    tag_443:\n        /* \"#utility.yul\":24640:24674   */\n      0x45524332303a207472616e736665722066726f6d20746865207a65726f206164\n        /* \"#utility.yul\":24636:24637   */\n      0x00\n        /* \"#utility.yul\":24628:24634   */\n      dup3\n        /* \"#utility.yul\":24624:24638   */\n      add\n        /* \"#utility.yul\":24617:24675   */\n      mstore\n        /* \"#utility.yul\":24709:24716   */\n      0x6472657373000000000000000000000000000000000000000000000000000000\n        /* \"#utility.yul\":24704:24706   */\n      0x20\n        /* \"#utility.yul\":24696:24702   */\n      dup3\n        /* \"#utility.yul\":24692:24707   */\n      add\n        /* \"#utility.yul\":24685:24717   */\n      mstore\n        /* \"#utility.yul\":24606:24724   */\n      pop\n      jump\t// out\n        /* \"#utility.yul\":24730:24953   */\n    tag_448:\n        /* \"#utility.yul\":24870:24904   */\n      0x45524332303a20617070726f76652066726f6d20746865207a65726f20616464\n        /* \"#utility.yul\":24866:24867   */\n      0x00\n        /* \"#utility.yul\":24858:24864   */\n      dup3\n        /* \"#utility.yul\":24854:24868   */\n      add\n        /* \"#utility.yul\":24847:24905   */\n      mstore\n        /* \"#utility.yul\":24939:24945   */\n      0x7265737300000000000000000000000000000000000000000000000000000000\n        /* \"#utility.yul\":24934:24936   */\n      0x20\n        /* \"#utility.yul\":24926:24932   */\n      dup3\n        /* \"#utility.yul\":24922:24937   */\n      add\n        /* \"#utility.yul\":24915:24946   */\n      mstore\n        /* \"#utility.yul\":24836:24953   */\n      pop\n      jump\t// out\n        /* \"#utility.yul\":24959:25189   */\n    tag_453:\n        /* \"#utility.yul\":25099:25133   */\n      0x496e697469616c697a61626c653a20636f6e7472616374206973206e6f742069\n        /* \"#utility.yul\":25095:25096   */\n      0x00\n        /* \"#utility.yul\":25087:25093   */\n      dup3\n        /* \"#utility.yul\":25083:25097   */\n      add\n        /* \"#utility.yul\":25076:25134   */\n      mstore\n        /* \"#utility.yul\":25168:25181   */\n      0x6e697469616c697a696e67000000000000000000000000000000000000000000\n        /* \"#utility.yul\":25163:25165   */\n      0x20\n        /* \"#utility.yul\":25155:25161   */\n      dup3\n        /* \"#utility.yul\":25151:25166   */\n      add\n        /* \"#utility.yul\":25144:25182   */\n      mstore\n        /* \"#utility.yul\":25065:25189   */\n      pop\n      jump\t// out\n        /* \"#utility.yul\":25195:25359   */\n    tag_458:\n        /* \"#utility.yul\":25335:25351   */\n      0x4f6e6c792077686974656c697374000000000000000000000000000000000000\n        /* \"#utility.yul\":25331:25332   */\n      0x00\n        /* \"#utility.yul\":25323:25329   */\n      dup3\n        /* \"#utility.yul\":25319:25333   */\n      add\n        /* \"#utility.yul\":25312:25352   */\n      mstore\n        /* \"#utility.yul\":25301:25359   */\n      pop\n      jump\t// out\n        /* \"#utility.yul\":25365:25589   */\n    tag_463:\n        /* \"#utility.yul\":25505:25539   */\n      0x45524332303a2064656372656173656420616c6c6f77616e63652062656c6f77\n        /* \"#utility.yul\":25501:25502   */\n      0x00\n        /* \"#utility.yul\":25493:25499   */\n      dup3\n        /* \"#utility.yul\":25489:25503   */\n      add\n        /* \"#utility.yul\":25482:25540   */\n      mstore\n        /* \"#utility.yul\":25574:25581   */\n      0x207a65726f000000000000000000000000000000000000000000000000000000\n        /* \"#utility.yul\":25569:25571   */\n      0x20\n        /* \"#utility.yul\":25561:25567   */\n      dup3\n        /* \"#utility.yul\":25557:25572   */\n      add\n        /* \"#utility.yul\":25550:25582   */\n      mstore\n        /* \"#utility.yul\":25471:25589   */\n      pop\n      jump\t// out\n        /* \"#utility.yul\":25595:25776   */\n    tag_468:\n        /* \"#utility.yul\":25735:25768   */\n      0x45524332303a206d696e7420746f20746865207a65726f206164647265737300\n        /* \"#utility.yul\":25731:25732   */\n      0x00\n        /* \"#utility.yul\":25723:25729   */\n      dup3\n        /* \"#utility.yul\":25719:25733   */\n      add\n        /* \"#utility.yul\":25712:25769   */\n      mstore\n        /* \"#utility.yul\":25701:25776   */\n      pop\n      jump\t// out\n        /* \"#utility.yul\":25782:25904   */\n    tag_331:\n        /* \"#utility.yul\":25855:25879   */\n      tag_591\n        /* \"#utility.yul\":25873:25878   */\n      dup2\n        /* \"#utility.yul\":25855:25879   */\n      tag_375\n      jump\t// in\n    tag_591:\n        /* \"#utility.yul\":25848:25853   */\n      dup2\n        /* \"#utility.yul\":25845:25880   */\n      eq\n        /* \"#utility.yul\":25835:25837   */\n      tag_592\n      jumpi\n        /* \"#utility.yul\":25894:25895   */\n      0x00\n        /* \"#utility.yul\":25891:25892   */\n      dup1\n        /* \"#utility.yul\":25884:25896   */\n      revert\n        /* \"#utility.yul\":25835:25837   */\n    tag_592:\n        /* \"#utility.yul\":25825:25904   */\n      pop\n      jump\t// out\n        /* \"#utility.yul\":25910:26032   */\n    tag_342:\n        /* \"#utility.yul\":25983:26007   */\n      tag_594\n        /* \"#utility.yul\":26001:26006   */\n      dup2\n        /* \"#utility.yul\":25983:26007   */\n      tag_472\n      jump\t// in\n    tag_594:\n        /* \"#utility.yul\":25976:25981   */\n      dup2\n        /* \"#utility.yul\":25973:26008   */\n      eq\n        /* \"#utility.yul\":25963:25965   */\n      tag_595\n      jumpi\n        /* \"#utility.yul\":26022:26023   */\n      0x00\n        /* \"#utility.yul\":26019:26020   */\n      dup1\n        /* \"#utility.yul\":26012:26024   */\n      revert\n        /* \"#utility.yul\":25963:25965   */\n    tag_595:\n        /* \"#utility.yul\":25953:26032   */\n      pop\n      jump\t// out\n\n    auxdata: 0xa2646970667358221220b195fc8f3a25e835987c26572b93dd7956e10e9bdb8b8e3d6784d4721423ed5764736f6c63430008040033\n}\n",
				"bytecode": {
					"linkReferences": {},
					"object": "608060405234801561001057600080fd5b506126fb806100206000396000f3fe608060405234801561001057600080fd5b506004361061012c5760003560e01c806370a08231116100ad578063a457c2d711610071578063a457c2d71461031f578063a9059cbb1461034f578063d1a205091461037f578063dd62ed3e146103af578063f2fde38b146103df5761012c565b806370a082311461028d578063715018a6146102bd578063854cff2f146102c75780638da5cb5b146102e357806395d89b41146103015761012c565b8063313ce567116100f4578063313ce567146101e9578063395093511461020757806340c10f191461023757806359176c8d146102535780635c975abb1461026f5761012c565b806306fdde0314610131578063077f224a1461014f578063095ea7b31461016b57806318160ddd1461019b57806323b872dd146101b9575b600080fd5b6101396103fb565b6040516101469190611dfc565b60405180910390f35b61016960048036038101906101649190611a3b565b61048d565b005b610185600480360381019061018091906119ff565b61058d565b6040516101929190611dc6565b60405180910390f35b6101a36105b0565b6040516101b09190611ffe565b60405180910390f35b6101d360048036038101906101ce91906119b0565b6105ba565b6040516101e09190611dc6565b60405180910390f35b6101f16105e9565b6040516101fe9190612019565b60405180910390f35b610221600480360381019061021c91906119ff565b6105f2565b60405161022e9190611dc6565b60405180910390f35b610251600480360381019061024c91906119ff565b610629565b005b61026d60048036038101906102689190611aba565b6106c3565b005b6102776108a3565b6040516102849190611dc6565b60405180910390f35b6102a760048036038101906102a29190611922565b6108ba565b6040516102b49190611ffe565b60405180910390f35b6102c5610903565b005b6102e160048036038101906102dc9190611922565b61098b565b005b6102eb610a62565b6040516102f89190611d74565b60405180910390f35b610309610a8c565b6040516103169190611dfc565b60405180910390f35b610339600480360381019061033491906119ff565b610b1e565b6040516103469190611dc6565b60405180910390f35b610369600480360381019061036491906119ff565b610b95565b6040516103769190611dc6565b60405180910390f35b61039960048036038101906103949190611aba565b610bb8565b6040516103a69190611ffe565b60405180910390f35b6103c960048036038101906103c49190611974565b610bd5565b6040516103d69190611ffe565b60405180910390f35b6103f960048036038101906103f49190611922565b610c5c565b005b60606036805461040a906121d9565b80601f0160208091040260200160405190810160405280929190818152602001828054610436906121d9565b80156104835780601f1061045857610100808354040283529160200191610483565b820191906000526020600020905b81548152906001019060200180831161046657829003601f168201915b5050505050905090565b60006104996001610d54565b905080156104bd576001600060016101000a81548160ff0219169083151502179055505b6104c78484610e44565b6104cf610ea1565b6104d7610efa565b8160ca60006101000a81548173ffffffffffffffffffffffffffffffffffffffff021916908373ffffffffffffffffffffffffffffffffffffffff16021790555061052e336b204fce5e3e25026110000000610f53565b80156105875760008060016101000a81548160ff0219169083151502179055507f7f26b83ff96e1f2b6a682f133852f6798a09c465da95921460cefb3847402498600160405161057e9190611de1565b60405180910390a15b50505050565b6000806105986110b4565b90506105a58185856110bc565b600191505092915050565b6000603554905090565b6000806105c56110b4565b90506105d2858285611287565b6105dd858585611313565b60019150509392505050565b60006012905090565b6000806105fd6110b4565b905061061e81858561060f8589610bd5565b61061991906120a6565b6110bc565b600191505092915050565b60cb60003373ffffffffffffffffffffffffffffffffffffffff1673ffffffffffffffffffffffffffffffffffffffff16815260200190815260200160002060009054906101000a900460ff166106b5576040517f08c379a00000000000000000000000000000000000000000000000000000000081526004016106ac90611f9e565b60405180910390fd5b6106bf8282610f53565b5050565b3373ffffffffffffffffffffffffffffffffffffffff1660ca60009054906101000a900473ffffffffffffffffffffffffffffffffffffffff1673ffffffffffffffffffffffffffffffffffffffff16636352211e836040518263ffffffff1660e01b81526004016107359190611ffe565b60206040518083038186803b15801561074d57600080fd5b505afa158015610761573d6000803e3d6000fd5b505050506040513d601f19601f82011682018060405250810190610785919061194b565b73ffffffffffffffffffffffffffffffffffffffff16146107db576040517f08c379a00000000000000000000000000000000000000000000000000000000081526004016107d290611e7e565b60405180910390fd5b6201518060cc600083815260200190815260200160002054426107fe91906120fc565b101561083f576040517f08c379a000000000000000000000000000000000000000000000000000000000815260040161083690611e9e565b60405180910390fd5b61084b3360c954610f53565b4260cc6000838152602001908152602001600020819055507f8dce8756778b482ef8cfef8c65faadc506ce94e081bb6cc3a2d3448d99de9a503360c9544260405161089893929190611d8f565b60405180910390a150565b6000609760009054906101000a900460ff16905090565b6000603360008373ffffffffffffffffffffffffffffffffffffffff1673ffffffffffffffffffffffffffffffffffffffff168152602001908152602001600020549050919050565b61090b6110b4565b73ffffffffffffffffffffffffffffffffffffffff16610929610a62565b73ffffffffffffffffffffffffffffffffffffffff161461097f576040517f08c379a000000000000000000000000000000000000000000000000000000000815260040161097690611f1e565b60405180910390fd5b6109896000611597565b565b6109936110b4565b73ffffffffffffffffffffffffffffffffffffffff166109b1610a62565b73ffffffffffffffffffffffffffffffffffffffff1614610a07576040517f08c379a00000000000000000000000000000000000000000000000000000000081526004016109fe90611f1e565b60405180910390fd5b600160cb60008373ffffffffffffffffffffffffffffffffffffffff1673ffffffffffffffffffffffffffffffffffffffff16815260200190815260200160002060006101000a81548160ff02191690831515021790555050565b6000606560009054906101000a900473ffffffffffffffffffffffffffffffffffffffff16905090565b606060378054610a9b906121d9565b80601f0160208091040260200160405190810160405280929190818152602001828054610ac7906121d9565b8015610b145780601f10610ae957610100808354040283529160200191610b14565b820191906000526020600020905b815481529060010190602001808311610af757829003601f168201915b5050505050905090565b600080610b296110b4565b90506000610b378286610bd5565b905083811015610b7c576040517f08c379a0000000000000000000000000000000000000000000000000000000008152600401610b7390611fbe565b60405180910390fd5b610b8982868684036110bc565b60019250505092915050565b600080610ba06110b4565b9050610bad818585611313565b600191505092915050565b600060cc6000838152602001908152602001600020549050919050565b6000603460008473ffffffffffffffffffffffffffffffffffffffff1673ffffffffffffffffffffffffffffffffffffffff16815260200190815260200160002060008373ffffffffffffffffffffffffffffffffffffffff1673ffffffffffffffffffffffffffffffffffffffff16815260200190815260200160002054905092915050565b610c646110b4565b73ffffffffffffffffffffffffffffffffffffffff16610c82610a62565b73ffffffffffffffffffffffffffffffffffffffff1614610cd8576040517f08c379a0000000000000000000000000000000000000000000000000000000008152600401610ccf90611f1e565b60405180910390fd5b600073ffffffffffffffffffffffffffffffffffffffff168173ffffffffffffffffffffffffffffffffffffffff161415610d48576040517f08c379a0000000000000000000000000000000000000000000000000000000008152600401610d3f90611e3e565b60405180910390fd5b610d5181611597565b50565b60008060019054906101000a900460ff1615610dcb5760018260ff16148015610d835750610d813061165d565b155b610dc2576040517f08c379a0000000000000000000000000000000000000000000000000000000008152600401610db990611efe565b60405180910390fd5b60009050610e3f565b8160ff1660008054906101000a900460ff1660ff1610610e20576040517f08c379a0000000000000000000000000000000000000000000000000000000008152600401610e1790611efe565b60405180910390fd5b816000806101000a81548160ff021916908360ff160217905550600190505b919050565b600060019054906101000a900460ff16610e93576040517f08c379a0000000000000000000000000000000000000000000000000000000008152600401610e8a90611f7e565b60405180910390fd5b610e9d8282611680565b5050565b600060019054906101000a900460ff16610ef0576040517f08c379a0000000000000000000000000000000000000000000000000000000008152600401610ee790611f7e565b60405180910390fd5b610ef8611701565b565b600060019054906101000a900460ff16610f49576040517f08c379a0000000000000000000000000000000000000000000000000000000008152600401610f4090611f7e565b60405180910390fd5b610f51611762565b565b600073ffffffffffffffffffffffffffffffffffffffff168273ffffffffffffffffffffffffffffffffffffffff161415610fc3576040517f08c379a0000000000000000000000000000000000000000000000000000000008152600401610fba90611fde565b60405180910390fd5b610fcf600083836117ce565b8060356000828254610fe191906120a6565b9250508190555080603360008473ffffffffffffffffffffffffffffffffffffffff1673ffffffffffffffffffffffffffffffffffffffff168152602001908152602001600020600082825461103791906120a6565b925050819055508173ffffffffffffffffffffffffffffffffffffffff16600073ffffffffffffffffffffffffffffffffffffffff167fddf252ad1be2c89b69c2b068fc378daa952ba7f163c4a11628f55a4df523b3ef8360405161109c9190611ffe565b60405180910390a36110b0600083836117d3565b5050565b600033905090565b600073ffffffffffffffffffffffffffffffffffffffff168373ffffffffffffffffffffffffffffffffffffffff16141561112c576040517f08c379a000000000000000000000000000000000000000000000000000000000815260040161112390611f5e565b60405180910390fd5b600073ffffffffffffffffffffffffffffffffffffffff168273ffffffffffffffffffffffffffffffffffffffff16141561119c576040517f08c379a000000000000000000000000000000000000000000000000000000000815260040161119390611e5e565b60405180910390fd5b80603460008573ffffffffffffffffffffffffffffffffffffffff1673ffffffffffffffffffffffffffffffffffffffff16815260200190815260200160002060008473ffffffffffffffffffffffffffffffffffffffff1673ffffffffffffffffffffffffffffffffffffffff168152602001908152602001600020819055508173ffffffffffffffffffffffffffffffffffffffff168373ffffffffffffffffffffffffffffffffffffffff167f8c5be1e5ebec7d5bd14f71427d1e84f3dd0314c0f7b2291e5b200ac8c7c3b9258360405161127a9190611ffe565b60405180910390a3505050565b60006112938484610bd5565b90507fffffffffffffffffffffffffffffffffffffffffffffffffffffffffffffffff811461130d57818110156112ff576040517f08c379a00000000000000000000000000000000000000000000000000000000081526004016112f690611ebe565b60405180910390fd5b61130c84848484036110bc565b5b50505050565b600073ffffffffffffffffffffffffffffffffffffffff168373ffffffffffffffffffffffffffffffffffffffff161415611383576040517f08c379a000000000000000000000000000000000000000000000000000000000815260040161137a90611f3e565b60405180910390fd5b600073ffffffffffffffffffffffffffffffffffffffff168273ffffffffffffffffffffffffffffffffffffffff1614156113f3576040517f08c379a00000000000000000000000000000000000000000000000000000000081526004016113ea90611e1e565b60405180910390fd5b6113fe8383836117ce565b6000603360008573ffffffffffffffffffffffffffffffffffffffff1673ffffffffffffffffffffffffffffffffffffffff16815260200190815260200160002054905081811015611485576040517f08c379a000000000000000000000000000000000000000000000000000000000815260040161147c90611ede565b60405180910390fd5b818103603360008673ffffffffffffffffffffffffffffffffffffffff1673ffffffffffffffffffffffffffffffffffffffff1681526020019081526020016000208190555081603360008573ffffffffffffffffffffffffffffffffffffffff1673ffffffffffffffffffffffffffffffffffffffff168152602001908152602001600020600082825461151a91906120a6565b925050819055508273ffffffffffffffffffffffffffffffffffffffff168473ffffffffffffffffffffffffffffffffffffffff167fddf252ad1be2c89b69c2b068fc378daa952ba7f163c4a11628f55a4df523b3ef8460405161157e9190611ffe565b60405180910390a36115918484846117d3565b50505050565b6000606560009054906101000a900473ffffffffffffffffffffffffffffffffffffffff16905081606560006101000a81548173ffffffffffffffffffffffffffffffffffffffff021916908373ffffffffffffffffffffffffffffffffffffffff1602179055508173ffffffffffffffffffffffffffffffffffffffff168173ffffffffffffffffffffffffffffffffffffffff167f8be0079c531659141344cd1fd0a4f28419497f9722a3daafe3b4186f6b6457e060405160405180910390a35050565b6000808273ffffffffffffffffffffffffffffffffffffffff163b119050919050565b600060019054906101000a900460ff166116cf576040517f08c379a00000000000000000000000000000000000000000000000000000000081526004016116c690611f7e565b60405180910390fd5b81603690805190602001906116e59291906117d8565b5080603790805190602001906116fc9291906117d8565b505050565b600060019054906101000a900460ff16611750576040517f08c379a000000000000000000000000000000000000000000000000000000000815260040161174790611f7e565b60405180910390fd5b61176061175b6110b4565b611597565b565b600060019054906101000a900460ff166117b1576040517f08c379a00000000000000000000000000000000000000000000000000000000081526004016117a890611f7e565b60405180910390fd5b6000609760006101000a81548160ff021916908315150217905550565b505050565b505050565b8280546117e4906121d9565b90600052602060002090601f016020900481019282611806576000855561184d565b82601f1061181f57805160ff191683800117855561184d565b8280016001018555821561184d579182015b8281111561184c578251825591602001919060010190611831565b5b50905061185a919061185e565b5090565b5b8082111561187757600081600090555060010161185f565b5090565b600061188e61188984612059565b612034565b9050828152602081018484840111156118a657600080fd5b6118b1848285612197565b509392505050565b6000813590506118c881612697565b92915050565b6000815190506118dd81612697565b92915050565b600082601f8301126118f457600080fd5b813561190484826020860161187b565b91505092915050565b60008135905061191c816126ae565b92915050565b60006020828403121561193457600080fd5b6000611942848285016118b9565b91505092915050565b60006020828403121561195d57600080fd5b600061196b848285016118ce565b91505092915050565b6000806040838503121561198757600080fd5b6000611995858286016118b9565b92505060206119a6858286016118b9565b9150509250929050565b6000806000606084860312156119c557600080fd5b60006119d3868287016118b9565b93505060206119e4868287016118b9565b92505060406119f58682870161190d565b9150509250925092565b60008060408385031215611a1257600080fd5b6000611a20858286016118b9565b9250506020611a318582860161190d565b9150509250929050565b600080600060608486031215611a5057600080fd5b600084013567ffffffffffffffff811115611a6a57600080fd5b611a76868287016118e3565b935050602084013567ffffffffffffffff811115611a9357600080fd5b611a9f868287016118e3565b9250506040611ab0868287016118b9565b9150509250925092565b600060208284031215611acc57600080fd5b6000611ada8482850161190d565b91505092915050565b611aec81612130565b82525050565b611afb81612142565b82525050565b611b0a81612185565b82525050565b6000611b1b8261208a565b611b258185612095565b9350611b358185602086016121a6565b611b3e816122c9565b840191505092915050565b6000611b56602383612095565b9150611b61826122da565b604082019050919050565b6000611b79602683612095565b9150611b8482612329565b604082019050919050565b6000611b9c602283612095565b9150611ba782612378565b604082019050919050565b6000611bbf600c83612095565b9150611bca826123c7565b602082019050919050565b6000611be2600b83612095565b9150611bed826123f0565b602082019050919050565b6000611c05601d83612095565b9150611c1082612419565b602082019050919050565b6000611c28602683612095565b9150611c3382612442565b604082019050919050565b6000611c4b602e83612095565b9150611c5682612491565b604082019050919050565b6000611c6e602083612095565b9150611c79826124e0565b602082019050919050565b6000611c91602583612095565b9150611c9c82612509565b604082019050919050565b6000611cb4602483612095565b9150611cbf82612558565b604082019050919050565b6000611cd7602b83612095565b9150611ce2826125a7565b604082019050919050565b6000611cfa600e83612095565b9150611d05826125f6565b602082019050919050565b6000611d1d602583612095565b9150611d288261261f565b604082019050919050565b6000611d40601f83612095565b9150611d4b8261266e565b602082019050919050565b611d5f8161216e565b82525050565b611d6e81612178565b82525050565b6000602082019050611d896000830184611ae3565b92915050565b6000606082019050611da46000830186611ae3565b611db16020830185611d56565b611dbe6040830184611d56565b949350505050565b6000602082019050611ddb6000830184611af2565b92915050565b6000602082019050611df66000830184611b01565b92915050565b60006020820190508181036000830152611e168184611b10565b905092915050565b60006020820190508181036000830152611e3781611b49565b9050919050565b60006020820190508181036000830152611e5781611b6c565b9050919050565b60006020820190508181036000830152611e7781611b8f565b9050919050565b60006020820190508181036000830152611e9781611bb2565b9050919050565b60006020820190508181036000830152611eb781611bd5565b9050919050565b60006020820190508181036000830152611ed781611bf8565b9050919050565b60006020820190508181036000830152611ef781611c1b565b9050919050565b60006020820190508181036000830152611f1781611c3e565b9050919050565b60006020820190508181036000830152611f3781611c61565b9050919050565b60006020820190508181036000830152611f5781611c84565b9050919050565b60006020820190508181036000830152611f7781611ca7565b9050919050565b60006020820190508181036000830152611f9781611cca565b9050919050565b60006020820190508181036000830152611fb781611ced565b9050919050565b60006020820190508181036000830152611fd781611d10565b9050919050565b60006020820190508181036000830152611ff781611d33565b9050919050565b60006020820190506120136000830184611d56565b92915050565b600060208201905061202e6000830184611d65565b92915050565b600061203e61204f565b905061204a828261220b565b919050565b6000604051905090565b600067ffffffffffffffff8211156120745761207361229a565b5b61207d826122c9565b9050602081019050919050565b600081519050919050565b600082825260208201905092915050565b60006120b18261216e565b91506120bc8361216e565b9250827fffffffffffffffffffffffffffffffffffffffffffffffffffffffffffffffff038211156120f1576120f061223c565b5b828201905092915050565b60006121078261216e565b91506121128361216e565b9250828210156121255761212461223c565b5b828203905092915050565b600061213b8261214e565b9050919050565b60008115159050919050565b600073ffffffffffffffffffffffffffffffffffffffff82169050919050565b6000819050919050565b600060ff82169050919050565b600061219082612178565b9050919050565b82818337600083830152505050565b60005b838110156121c45780820151818401526020810190506121a9565b838111156121d3576000848401525b50505050565b600060028204905060018216806121f157607f821691505b602082108114156122055761220461226b565b5b50919050565b612214826122c9565b810181811067ffffffffffffffff821117156122335761223261229a565b5b80604052505050565b7f4e487b7100000000000000000000000000000000000000000000000000000000600052601160045260246000fd5b7f4e487b7100000000000000000000000000000000000000000000000000000000600052602260045260246000fd5b7f4e487b7100000000000000000000000000000000000000000000000000000000600052604160045260246000fd5b6000601f19601f8301169050919050565b7f45524332303a207472616e7366657220746f20746865207a65726f206164647260008201527f6573730000000000000000000000000000000000000000000000000000000000602082015250565b7f4f776e61626c653a206e6577206f776e657220697320746865207a65726f206160008201527f6464726573730000000000000000000000000000000000000000000000000000602082015250565b7f45524332303a20617070726f766520746f20746865207a65726f20616464726560008201527f7373000000000000000000000000000000000000000000000000000000000000602082015250565b7f554e415554484f52495a45440000000000000000000000000000000000000000600082015250565b7f4f4e20434f4f4c444f574e000000000000000000000000000000000000000000600082015250565b7f45524332303a20696e73756666696369656e7420616c6c6f77616e6365000000600082015250565b7f45524332303a207472616e7366657220616d6f756e742065786365656473206260008201527f616c616e63650000000000000000000000000000000000000000000000000000602082015250565b7f496e697469616c697a61626c653a20636f6e747261637420697320616c72656160008201527f647920696e697469616c697a6564000000000000000000000000000000000000602082015250565b7f4f776e61626c653a2063616c6c6572206973206e6f7420746865206f776e6572600082015250565b7f45524332303a207472616e736665722066726f6d20746865207a65726f20616460008201527f6472657373000000000000000000000000000000000000000000000000000000602082015250565b7f45524332303a20617070726f76652066726f6d20746865207a65726f2061646460008201527f7265737300000000000000000000000000000000000000000000000000000000602082015250565b7f496e697469616c697a61626c653a20636f6e7472616374206973206e6f74206960008201527f6e697469616c697a696e67000000000000000000000000000000000000000000602082015250565b7f4f6e6c792077686974656c697374000000000000000000000000000000000000600082015250565b7f45524332303a2064656372656173656420616c6c6f77616e63652062656c6f7760008201527f207a65726f000000000000000000000000000000000000000000000000000000602082015250565b7f45524332303a206d696e7420746f20746865207a65726f206164647265737300600082015250565b6126a081612130565b81146126ab57600080fd5b50565b6126b78161216e565b81146126c257600080fd5b5056fea2646970667358221220b195fc8f3a25e835987c26572b93dd7956e10e9bdb8b8e3d6784d4721423ed5764736f6c63430008040033",
					"opcodes": "PUSH1 0x80 PUSH1 0x40 MSTORE CALLVALUE DUP1 ISZERO PUSH2 0x10 JUMPI PUSH1 0x0 DUP1 REVERT JUMPDEST POP PUSH2 0x26FB DUP1 PUSH2 0x20 PUSH1 0x0 CODECOPY PUSH1 0x0 RETURN INVALID PUSH1 0x80 PUSH1 0x40 MSTORE CALLVALUE DUP1 ISZERO PUSH2 0x10 JUMPI PUSH1 0x0 DUP1 REVERT JUMPDEST POP PUSH1 0x4 CALLDATASIZE LT PUSH2 0x12C JUMPI PUSH1 0x0 CALLDATALOAD PUSH1 0xE0 SHR DUP1 PUSH4 0x70A08231 GT PUSH2 0xAD JUMPI DUP1 PUSH4 0xA457C2D7 GT PUSH2 0x71 JUMPI DUP1 PUSH4 0xA457C2D7 EQ PUSH2 0x31F JUMPI DUP1 PUSH4 0xA9059CBB EQ PUSH2 0x34F JUMPI DUP1 PUSH4 0xD1A20509 EQ PUSH2 0x37F JUMPI DUP1 PUSH4 0xDD62ED3E EQ PUSH2 0x3AF JUMPI DUP1 PUSH4 0xF2FDE38B EQ PUSH2 0x3DF JUMPI PUSH2 0x12C JUMP JUMPDEST DUP1 PUSH4 0x70A08231 EQ PUSH2 0x28D JUMPI DUP1 PUSH4 0x715018A6 EQ PUSH2 0x2BD JUMPI DUP1 PUSH4 0x854CFF2F EQ PUSH2 0x2C7 JUMPI DUP1 PUSH4 0x8DA5CB5B EQ PUSH2 0x2E3 JUMPI DUP1 PUSH4 0x95D89B41 EQ PUSH2 0x301 JUMPI PUSH2 0x12C JUMP JUMPDEST DUP1 PUSH4 0x313CE567 GT PUSH2 0xF4 JUMPI DUP1 PUSH4 0x313CE567 EQ PUSH2 0x1E9 JUMPI DUP1 PUSH4 0x39509351 EQ PUSH2 0x207 JUMPI DUP1 PUSH4 0x40C10F19 EQ PUSH2 0x237 JUMPI DUP1 PUSH4 0x59176C8D EQ PUSH2 0x253 JUMPI DUP1 PUSH4 0x5C975ABB EQ PUSH2 0x26F JUMPI PUSH2 0x12C JUMP JUMPDEST DUP1 PUSH4 0x6FDDE03 EQ PUSH2 0x131 JUMPI DUP1 PUSH4 0x77F224A EQ PUSH2 0x14F JUMPI DUP1 PUSH4 0x95EA7B3 EQ PUSH2 0x16B JUMPI DUP1 PUSH4 0x18160DDD EQ PUSH2 0x19B JUMPI DUP1 PUSH4 0x23B872DD EQ PUSH2 0x1B9 JUMPI JUMPDEST PUSH1 0x0 DUP1 REVERT JUMPDEST PUSH2 0x139 PUSH2 0x3FB JUMP JUMPDEST PUSH1 0x40 MLOAD PUSH2 0x146 SWAP2 SWAP1 PUSH2 0x1DFC JUMP JUMPDEST PUSH1 0x40 MLOAD DUP1 SWAP2 SUB SWAP1 RETURN JUMPDEST PUSH2 0x169 PUSH1 0x4 DUP1 CALLDATASIZE SUB DUP2 ADD SWAP1 PUSH2 0x164 SWAP2 SWAP1 PUSH2 0x1A3B JUMP JUMPDEST PUSH2 0x48D JUMP JUMPDEST STOP JUMPDEST PUSH2 0x185 PUSH1 0x4 DUP1 CALLDATASIZE SUB DUP2 ADD SWAP1 PUSH2 0x180 SWAP2 SWAP1 PUSH2 0x19FF JUMP JUMPDEST PUSH2 0x58D JUMP JUMPDEST PUSH1 0x40 MLOAD PUSH2 0x192 SWAP2 SWAP1 PUSH2 0x1DC6 JUMP JUMPDEST PUSH1 0x40 MLOAD DUP1 SWAP2 SUB SWAP1 RETURN JUMPDEST PUSH2 0x1A3 PUSH2 0x5B0 JUMP JUMPDEST PUSH1 0x40 MLOAD PUSH2 0x1B0 SWAP2 SWAP1 PUSH2 0x1FFE JUMP JUMPDEST PUSH1 0x40 MLOAD DUP1 SWAP2 SUB SWAP1 RETURN JUMPDEST PUSH2 0x1D3 PUSH1 0x4 DUP1 CALLDATASIZE SUB DUP2 ADD SWAP1 PUSH2 0x1CE SWAP2 SWAP1 PUSH2 0x19B0 JUMP JUMPDEST PUSH2 0x5BA JUMP JUMPDEST PUSH1 0x40 MLOAD PUSH2 0x1E0 SWAP2 SWAP1 PUSH2 0x1DC6 JUMP JUMPDEST PUSH1 0x40 MLOAD DUP1 SWAP2 SUB SWAP1 RETURN JUMPDEST PUSH2 0x1F1 PUSH2 0x5E9 JUMP JUMPDEST PUSH1 0x40 MLOAD PUSH2 0x1FE SWAP2 SWAP1 PUSH2 0x2019 JUMP JUMPDEST PUSH1 0x40 MLOAD DUP1 SWAP2 SUB SWAP1 RETURN JUMPDEST PUSH2 0x221 PUSH1 0x4 DUP1 CALLDATASIZE SUB DUP2 ADD SWAP1 PUSH2 0x21C SWAP2 SWAP1 PUSH2 0x19FF JUMP JUMPDEST PUSH2 0x5F2 JUMP JUMPDEST PUSH1 0x40 MLOAD PUSH2 0x22E SWAP2 SWAP1 PUSH2 0x1DC6 JUMP JUMPDEST PUSH1 0x40 MLOAD DUP1 SWAP2 SUB SWAP1 RETURN JUMPDEST PUSH2 0x251 PUSH1 0x4 DUP1 CALLDATASIZE SUB DUP2 ADD SWAP1 PUSH2 0x24C SWAP2 SWAP1 PUSH2 0x19FF JUMP JUMPDEST PUSH2 0x629 JUMP JUMPDEST STOP JUMPDEST PUSH2 0x26D PUSH1 0x4 DUP1 CALLDATASIZE SUB DUP2 ADD SWAP1 PUSH2 0x268 SWAP2 SWAP1 PUSH2 0x1ABA JUMP JUMPDEST PUSH2 0x6C3 JUMP JUMPDEST STOP JUMPDEST PUSH2 0x277 PUSH2 0x8A3 JUMP JUMPDEST PUSH1 0x40 MLOAD PUSH2 0x284 SWAP2 SWAP1 PUSH2 0x1DC6 JUMP JUMPDEST PUSH1 0x40 MLOAD DUP1 SWAP2 SUB SWAP1 RETURN JUMPDEST PUSH2 0x2A7 PUSH1 0x4 DUP1 CALLDATASIZE SUB DUP2 ADD SWAP1 PUSH2 0x2A2 SWAP2 SWAP1 PUSH2 0x1922 JUMP JUMPDEST PUSH2 0x8BA JUMP JUMPDEST PUSH1 0x40 MLOAD PUSH2 0x2B4 SWAP2 SWAP1 PUSH2 0x1FFE JUMP JUMPDEST PUSH1 0x40 MLOAD DUP1 SWAP2 SUB SWAP1 RETURN JUMPDEST PUSH2 0x2C5 PUSH2 0x903 JUMP JUMPDEST STOP JUMPDEST PUSH2 0x2E1 PUSH1 0x4 DUP1 CALLDATASIZE SUB DUP2 ADD SWAP1 PUSH2 0x2DC SWAP2 SWAP1 PUSH2 0x1922 JUMP JUMPDEST PUSH2 0x98B JUMP JUMPDEST STOP JUMPDEST PUSH2 0x2EB PUSH2 0xA62 JUMP JUMPDEST PUSH1 0x40 MLOAD PUSH2 0x2F8 SWAP2 SWAP1 PUSH2 0x1D74 JUMP JUMPDEST PUSH1 0x40 MLOAD DUP1 SWAP2 SUB SWAP1 RETURN JUMPDEST PUSH2 0x309 PUSH2 0xA8C JUMP JUMPDEST PUSH1 0x40 MLOAD PUSH2 0x316 SWAP2 SWAP1 PUSH2 0x1DFC JUMP JUMPDEST PUSH1 0x40 MLOAD DUP1 SWAP2 SUB SWAP1 RETURN JUMPDEST PUSH2 0x339 PUSH1 0x4 DUP1 CALLDATASIZE SUB DUP2 ADD SWAP1 PUSH2 0x334 SWAP2 SWAP1 PUSH2 0x19FF JUMP JUMPDEST PUSH2 0xB1E JUMP JUMPDEST PUSH1 0x40 MLOAD PUSH2 0x346 SWAP2 SWAP1 PUSH2 0x1DC6 JUMP JUMPDEST PUSH1 0x40 MLOAD DUP1 SWAP2 SUB SWAP1 RETURN JUMPDEST PUSH2 0x369 PUSH1 0x4 DUP1 CALLDATASIZE SUB DUP2 ADD SWAP1 PUSH2 0x364 SWAP2 SWAP1 PUSH2 0x19FF JUMP JUMPDEST PUSH2 0xB95 JUMP JUMPDEST PUSH1 0x40 MLOAD PUSH2 0x376 SWAP2 SWAP1 PUSH2 0x1DC6 JUMP JUMPDEST PUSH1 0x40 MLOAD DUP1 SWAP2 SUB SWAP1 RETURN JUMPDEST PUSH2 0x399 PUSH1 0x4 DUP1 CALLDATASIZE SUB DUP2 ADD SWAP1 PUSH2 0x394 SWAP2 SWAP1 PUSH2 0x1ABA JUMP JUMPDEST PUSH2 0xBB8 JUMP JUMPDEST PUSH1 0x40 MLOAD PUSH2 0x3A6 SWAP2 SWAP1 PUSH2 0x1FFE JUMP JUMPDEST PUSH1 0x40 MLOAD DUP1 SWAP2 SUB SWAP1 RETURN JUMPDEST PUSH2 0x3C9 PUSH1 0x4 DUP1 CALLDATASIZE SUB DUP2 ADD SWAP1 PUSH2 0x3C4 SWAP2 SWAP1 PUSH2 0x1974 JUMP JUMPDEST PUSH2 0xBD5 JUMP JUMPDEST PUSH1 0x40 MLOAD PUSH2 0x3D6 SWAP2 SWAP1 PUSH2 0x1FFE JUMP JUMPDEST PUSH1 0x40 MLOAD DUP1 SWAP2 SUB SWAP1 RETURN JUMPDEST PUSH2 0x3F9 PUSH1 0x4 DUP1 CALLDATASIZE SUB DUP2 ADD SWAP1 PUSH2 0x3F4 SWAP2 SWAP1 PUSH2 0x1922 JUMP JUMPDEST PUSH2 0xC5C JUMP JUMPDEST STOP JUMPDEST PUSH1 0x60 PUSH1 0x36 DUP1 SLOAD PUSH2 0x40A SWAP1 PUSH2 0x21D9 JUMP JUMPDEST DUP1 PUSH1 0x1F ADD PUSH1 0x20 DUP1 SWAP2 DIV MUL PUSH1 0x20 ADD PUSH1 0x40 MLOAD SWAP1 DUP2 ADD PUSH1 0x40 MSTORE DUP1 SWAP3 SWAP2 SWAP1 DUP2 DUP2 MSTORE PUSH1 0x20 ADD DUP3 DUP1 SLOAD PUSH2 0x436 SWAP1 PUSH2 0x21D9 JUMP JUMPDEST DUP1 ISZERO PUSH2 0x483 JUMPI DUP1 PUSH1 0x1F LT PUSH2 0x458 JUMPI PUSH2 0x100 DUP1 DUP4 SLOAD DIV MUL DUP4 MSTORE SWAP2 PUSH1 0x20 ADD SWAP2 PUSH2 0x483 JUMP JUMPDEST DUP3 ADD SWAP2 SWAP1 PUSH1 0x0 MSTORE PUSH1 0x20 PUSH1 0x0 KECCAK256 SWAP1 JUMPDEST DUP2 SLOAD DUP2 MSTORE SWAP1 PUSH1 0x1 ADD SWAP1 PUSH1 0x20 ADD DUP1 DUP4 GT PUSH2 0x466 JUMPI DUP3 SWAP1 SUB PUSH1 0x1F AND DUP3 ADD SWAP2 JUMPDEST POP POP POP POP POP SWAP1 POP SWAP1 JUMP JUMPDEST PUSH1 0x0 PUSH2 0x499 PUSH1 0x1 PUSH2 0xD54 JUMP JUMPDEST SWAP1 POP DUP1 ISZERO PUSH2 0x4BD JUMPI PUSH1 0x1 PUSH1 0x0 PUSH1 0x1 PUSH2 0x100 EXP DUP2 SLOAD DUP2 PUSH1 0xFF MUL NOT AND SWAP1 DUP4 ISZERO ISZERO MUL OR SWAP1 SSTORE POP JUMPDEST PUSH2 0x4C7 DUP5 DUP5 PUSH2 0xE44 JUMP JUMPDEST PUSH2 0x4CF PUSH2 0xEA1 JUMP JUMPDEST PUSH2 0x4D7 PUSH2 0xEFA JUMP JUMPDEST DUP2 PUSH1 0xCA PUSH1 0x0 PUSH2 0x100 EXP DUP2 SLOAD DUP2 PUSH20 0xFFFFFFFFFFFFFFFFFFFFFFFFFFFFFFFFFFFFFFFF MUL NOT AND SWAP1 DUP4 PUSH20 0xFFFFFFFFFFFFFFFFFFFFFFFFFFFFFFFFFFFFFFFF AND MUL OR SWAP1 SSTORE POP PUSH2 0x52E CALLER PUSH12 0x204FCE5E3E25026110000000 PUSH2 0xF53 JUMP JUMPDEST DUP1 ISZERO PUSH2 0x587 JUMPI PUSH1 0x0 DUP1 PUSH1 0x1 PUSH2 0x100 EXP DUP2 SLOAD DUP2 PUSH1 0xFF MUL NOT AND SWAP1 DUP4 ISZERO ISZERO MUL OR SWAP1 SSTORE POP PUSH32 0x7F26B83FF96E1F2B6A682F133852F6798A09C465DA95921460CEFB3847402498 PUSH1 0x1 PUSH1 0x40 MLOAD PUSH2 0x57E SWAP2 SWAP1 PUSH2 0x1DE1 JUMP JUMPDEST PUSH1 0x40 MLOAD DUP1 SWAP2 SUB SWAP1 LOG1 JUMPDEST POP POP POP POP JUMP JUMPDEST PUSH1 0x0 DUP1 PUSH2 0x598 PUSH2 0x10B4 JUMP JUMPDEST SWAP1 POP PUSH2 0x5A5 DUP2 DUP6 DUP6 PUSH2 0x10BC JUMP JUMPDEST PUSH1 0x1 SWAP2 POP POP SWAP3 SWAP2 POP POP JUMP JUMPDEST PUSH1 0x0 PUSH1 0x35 SLOAD SWAP1 POP SWAP1 JUMP JUMPDEST PUSH1 0x0 DUP1 PUSH2 0x5C5 PUSH2 0x10B4 JUMP JUMPDEST SWAP1 POP PUSH2 0x5D2 DUP6 DUP3 DUP6 PUSH2 0x1287 JUMP JUMPDEST PUSH2 0x5DD DUP6 DUP6 DUP6 PUSH2 0x1313 JUMP JUMPDEST PUSH1 0x1 SWAP2 POP POP SWAP4 SWAP3 POP POP POP JUMP JUMPDEST PUSH1 0x0 PUSH1 0x12 SWAP1 POP SWAP1 JUMP JUMPDEST PUSH1 0x0 DUP1 PUSH2 0x5FD PUSH2 0x10B4 JUMP JUMPDEST SWAP1 POP PUSH2 0x61E DUP2 DUP6 DUP6 PUSH2 0x60F DUP6 DUP10 PUSH2 0xBD5 JUMP JUMPDEST PUSH2 0x619 SWAP2 SWAP1 PUSH2 0x20A6 JUMP JUMPDEST PUSH2 0x10BC JUMP JUMPDEST PUSH1 0x1 SWAP2 POP POP SWAP3 SWAP2 POP POP JUMP JUMPDEST PUSH1 0xCB PUSH1 0x0 CALLER PUSH20 0xFFFFFFFFFFFFFFFFFFFFFFFFFFFFFFFFFFFFFFFF AND PUSH20 0xFFFFFFFFFFFFFFFFFFFFFFFFFFFFFFFFFFFFFFFF AND DUP2 MSTORE PUSH1 0x20 ADD SWAP1 DUP2 MSTORE PUSH1 0x20 ADD PUSH1 0x0 KECCAK256 PUSH1 0x0 SWAP1 SLOAD SWAP1 PUSH2 0x100 EXP SWAP1 DIV PUSH1 0xFF AND PUSH2 0x6B5 JUMPI PUSH1 0x40 MLOAD PUSH32 0x8C379A000000000000000000000000000000000000000000000000000000000 DUP2 MSTORE PUSH1 0x4 ADD PUSH2 0x6AC SWAP1 PUSH2 0x1F9E JUMP JUMPDEST PUSH1 0x40 MLOAD DUP1 SWAP2 SUB SWAP1 REVERT JUMPDEST PUSH2 0x6BF DUP3 DUP3 PUSH2 0xF53 JUMP JUMPDEST POP POP JUMP JUMPDEST CALLER PUSH20 0xFFFFFFFFFFFFFFFFFFFFFFFFFFFFFFFFFFFFFFFF AND PUSH1 0xCA PUSH1 0x0 SWAP1 SLOAD SWAP1 PUSH2 0x100 EXP SWAP1 DIV PUSH20 0xFFFFFFFFFFFFFFFFFFFFFFFFFFFFFFFFFFFFFFFF AND PUSH20 0xFFFFFFFFFFFFFFFFFFFFFFFFFFFFFFFFFFFFFFFF AND PUSH4 0x6352211E DUP4 PUSH1 0x40 MLOAD DUP3 PUSH4 0xFFFFFFFF AND PUSH1 0xE0 SHL DUP2 MSTORE PUSH1 0x4 ADD PUSH2 0x735 SWAP2 SWAP1 PUSH2 0x1FFE JUMP JUMPDEST PUSH1 0x20 PUSH1 0x40 MLOAD DUP1 DUP4 SUB DUP2 DUP7 DUP1 EXTCODESIZE ISZERO DUP1 ISZERO PUSH2 0x74D JUMPI PUSH1 0x0 DUP1 REVERT JUMPDEST POP GAS STATICCALL ISZERO DUP1 ISZERO PUSH2 0x761 JUMPI RETURNDATASIZE PUSH1 0x0 DUP1 RETURNDATACOPY RETURNDATASIZE PUSH1 0x0 REVERT JUMPDEST POP POP POP POP PUSH1 0x40 MLOAD RETURNDATASIZE PUSH1 0x1F NOT PUSH1 0x1F DUP3 ADD AND DUP3 ADD DUP1 PUSH1 0x40 MSTORE POP DUP2 ADD SWAP1 PUSH2 0x785 SWAP2 SWAP1 PUSH2 0x194B JUMP JUMPDEST PUSH20 0xFFFFFFFFFFFFFFFFFFFFFFFFFFFFFFFFFFFFFFFF AND EQ PUSH2 0x7DB JUMPI PUSH1 0x40 MLOAD PUSH32 0x8C379A000000000000000000000000000000000000000000000000000000000 DUP2 MSTORE PUSH1 0x4 ADD PUSH2 0x7D2 SWAP1 PUSH2 0x1E7E JUMP JUMPDEST PUSH1 0x40 MLOAD DUP1 SWAP2 SUB SWAP1 REVERT JUMPDEST PUSH3 0x15180 PUSH1 0xCC PUSH1 0x0 DUP4 DUP2 MSTORE PUSH1 0x20 ADD SWAP1 DUP2 MSTORE PUSH1 0x20 ADD PUSH1 0x0 KECCAK256 SLOAD TIMESTAMP PUSH2 0x7FE SWAP2 SWAP1 PUSH2 0x20FC JUMP JUMPDEST LT ISZERO PUSH2 0x83F JUMPI PUSH1 0x40 MLOAD PUSH32 0x8C379A000000000000000000000000000000000000000000000000000000000 DUP2 MSTORE PUSH1 0x4 ADD PUSH2 0x836 SWAP1 PUSH2 0x1E9E JUMP JUMPDEST PUSH1 0x40 MLOAD DUP1 SWAP2 SUB SWAP1 REVERT JUMPDEST PUSH2 0x84B CALLER PUSH1 0xC9 SLOAD PUSH2 0xF53 JUMP JUMPDEST TIMESTAMP PUSH1 0xCC PUSH1 0x0 DUP4 DUP2 MSTORE PUSH1 0x20 ADD SWAP1 DUP2 MSTORE PUSH1 0x20 ADD PUSH1 0x0 KECCAK256 DUP2 SWAP1 SSTORE POP PUSH32 0x8DCE8756778B482EF8CFEF8C65FAADC506CE94E081BB6CC3A2D3448D99DE9A50 CALLER PUSH1 0xC9 SLOAD TIMESTAMP PUSH1 0x40 MLOAD PUSH2 0x898 SWAP4 SWAP3 SWAP2 SWAP1 PUSH2 0x1D8F JUMP JUMPDEST PUSH1 0x40 MLOAD DUP1 SWAP2 SUB SWAP1 LOG1 POP JUMP JUMPDEST PUSH1 0x0 PUSH1 0x97 PUSH1 0x0 SWAP1 SLOAD SWAP1 PUSH2 0x100 EXP SWAP1 DIV PUSH1 0xFF AND SWAP1 POP SWAP1 JUMP JUMPDEST PUSH1 0x0 PUSH1 0x33 PUSH1 0x0 DUP4 PUSH20 0xFFFFFFFFFFFFFFFFFFFFFFFFFFFFFFFFFFFFFFFF AND PUSH20 0xFFFFFFFFFFFFFFFFFFFFFFFFFFFFFFFFFFFFFFFF AND DUP2 MSTORE PUSH1 0x20 ADD SWAP1 DUP2 MSTORE PUSH1 0x20 ADD PUSH1 0x0 KECCAK256 SLOAD SWAP1 POP SWAP2 SWAP1 POP JUMP JUMPDEST PUSH2 0x90B PUSH2 0x10B4 JUMP JUMPDEST PUSH20 0xFFFFFFFFFFFFFFFFFFFFFFFFFFFFFFFFFFFFFFFF AND PUSH2 0x929 PUSH2 0xA62 JUMP JUMPDEST PUSH20 0xFFFFFFFFFFFFFFFFFFFFFFFFFFFFFFFFFFFFFFFF AND EQ PUSH2 0x97F JUMPI PUSH1 0x40 MLOAD PUSH32 0x8C379A000000000000000000000000000000000000000000000000000000000 DUP2 MSTORE PUSH1 0x4 ADD PUSH2 0x976 SWAP1 PUSH2 0x1F1E JUMP JUMPDEST PUSH1 0x40 MLOAD DUP1 SWAP2 SUB SWAP1 REVERT JUMPDEST PUSH2 0x989 PUSH1 0x0 PUSH2 0x1597 JUMP JUMPDEST JUMP JUMPDEST PUSH2 0x993 PUSH2 0x10B4 JUMP JUMPDEST PUSH20 0xFFFFFFFFFFFFFFFFFFFFFFFFFFFFFFFFFFFFFFFF AND PUSH2 0x9B1 PUSH2 0xA62 JUMP JUMPDEST PUSH20 0xFFFFFFFFFFFFFFFFFFFFFFFFFFFFFFFFFFFFFFFF AND EQ PUSH2 0xA07 JUMPI PUSH1 0x40 MLOAD PUSH32 0x8C379A000000000000000000000000000000000000000000000000000000000 DUP2 MSTORE PUSH1 0x4 ADD PUSH2 0x9FE SWAP1 PUSH2 0x1F1E JUMP JUMPDEST PUSH1 0x40 MLOAD DUP1 SWAP2 SUB SWAP1 REVERT JUMPDEST PUSH1 0x1 PUSH1 0xCB PUSH1 0x0 DUP4 PUSH20 0xFFFFFFFFFFFFFFFFFFFFFFFFFFFFFFFFFFFFFFFF AND PUSH20 0xFFFFFFFFFFFFFFFFFFFFFFFFFFFFFFFFFFFFFFFF AND DUP2 MSTORE PUSH1 0x20 ADD SWAP1 DUP2 MSTORE PUSH1 0x20 ADD PUSH1 0x0 KECCAK256 PUSH1 0x0 PUSH2 0x100 EXP DUP2 SLOAD DUP2 PUSH1 0xFF MUL NOT AND SWAP1 DUP4 ISZERO ISZERO MUL OR SWAP1 SSTORE POP POP JUMP JUMPDEST PUSH1 0x0 PUSH1 0x65 PUSH1 0x0 SWAP1 SLOAD SWAP1 PUSH2 0x100 EXP SWAP1 DIV PUSH20 0xFFFFFFFFFFFFFFFFFFFFFFFFFFFFFFFFFFFFFFFF AND SWAP1 POP SWAP1 JUMP JUMPDEST PUSH1 0x60 PUSH1 0x37 DUP1 SLOAD PUSH2 0xA9B SWAP1 PUSH2 0x21D9 JUMP JUMPDEST DUP1 PUSH1 0x1F ADD PUSH1 0x20 DUP1 SWAP2 DIV MUL PUSH1 0x20 ADD PUSH1 0x40 MLOAD SWAP1 DUP2 ADD PUSH1 0x40 MSTORE DUP1 SWAP3 SWAP2 SWAP1 DUP2 DUP2 MSTORE PUSH1 0x20 ADD DUP3 DUP1 SLOAD PUSH2 0xAC7 SWAP1 PUSH2 0x21D9 JUMP JUMPDEST DUP1 ISZERO PUSH2 0xB14 JUMPI DUP1 PUSH1 0x1F LT PUSH2 0xAE9 JUMPI PUSH2 0x100 DUP1 DUP4 SLOAD DIV MUL DUP4 MSTORE SWAP2 PUSH1 0x20 ADD SWAP2 PUSH2 0xB14 JUMP JUMPDEST DUP3 ADD SWAP2 SWAP1 PUSH1 0x0 MSTORE PUSH1 0x20 PUSH1 0x0 KECCAK256 SWAP1 JUMPDEST DUP2 SLOAD DUP2 MSTORE SWAP1 PUSH1 0x1 ADD SWAP1 PUSH1 0x20 ADD DUP1 DUP4 GT PUSH2 0xAF7 JUMPI DUP3 SWAP1 SUB PUSH1 0x1F AND DUP3 ADD SWAP2 JUMPDEST POP POP POP POP POP SWAP1 POP SWAP1 JUMP JUMPDEST PUSH1 0x0 DUP1 PUSH2 0xB29 PUSH2 0x10B4 JUMP JUMPDEST SWAP1 POP PUSH1 0x0 PUSH2 0xB37 DUP3 DUP7 PUSH2 0xBD5 JUMP JUMPDEST SWAP1 POP DUP4 DUP2 LT ISZERO PUSH2 0xB7C JUMPI PUSH1 0x40 MLOAD PUSH32 0x8C379A000000000000000000000000000000000000000000000000000000000 DUP2 MSTORE PUSH1 0x4 ADD PUSH2 0xB73 SWAP1 PUSH2 0x1FBE JUMP JUMPDEST PUSH1 0x40 MLOAD DUP1 SWAP2 SUB SWAP1 REVERT JUMPDEST PUSH2 0xB89 DUP3 DUP7 DUP7 DUP5 SUB PUSH2 0x10BC JUMP JUMPDEST PUSH1 0x1 SWAP3 POP POP POP SWAP3 SWAP2 POP POP JUMP JUMPDEST PUSH1 0x0 DUP1 PUSH2 0xBA0 PUSH2 0x10B4 JUMP JUMPDEST SWAP1 POP PUSH2 0xBAD DUP2 DUP6 DUP6 PUSH2 0x1313 JUMP JUMPDEST PUSH1 0x1 SWAP2 POP POP SWAP3 SWAP2 POP POP JUMP JUMPDEST PUSH1 0x0 PUSH1 0xCC PUSH1 0x0 DUP4 DUP2 MSTORE PUSH1 0x20 ADD SWAP1 DUP2 MSTORE PUSH1 0x20 ADD PUSH1 0x0 KECCAK256 SLOAD SWAP1 POP SWAP2 SWAP1 POP JUMP JUMPDEST PUSH1 0x0 PUSH1 0x34 PUSH1 0x0 DUP5 PUSH20 0xFFFFFFFFFFFFFFFFFFFFFFFFFFFFFFFFFFFFFFFF AND PUSH20 0xFFFFFFFFFFFFFFFFFFFFFFFFFFFFFFFFFFFFFFFF AND DUP2 MSTORE PUSH1 0x20 ADD SWAP1 DUP2 MSTORE PUSH1 0x20 ADD PUSH1 0x0 KECCAK256 PUSH1 0x0 DUP4 PUSH20 0xFFFFFFFFFFFFFFFFFFFFFFFFFFFFFFFFFFFFFFFF AND PUSH20 0xFFFFFFFFFFFFFFFFFFFFFFFFFFFFFFFFFFFFFFFF AND DUP2 MSTORE PUSH1 0x20 ADD SWAP1 DUP2 MSTORE PUSH1 0x20 ADD PUSH1 0x0 KECCAK256 SLOAD SWAP1 POP SWAP3 SWAP2 POP POP JUMP JUMPDEST PUSH2 0xC64 PUSH2 0x10B4 JUMP JUMPDEST PUSH20 0xFFFFFFFFFFFFFFFFFFFFFFFFFFFFFFFFFFFFFFFF AND PUSH2 0xC82 PUSH2 0xA62 JUMP JUMPDEST PUSH20 0xFFFFFFFFFFFFFFFFFFFFFFFFFFFFFFFFFFFFFFFF AND EQ PUSH2 0xCD8 JUMPI PUSH1 0x40 MLOAD PUSH32 0x8C379A000000000000000000000000000000000000000000000000000000000 DUP2 MSTORE PUSH1 0x4 ADD PUSH2 0xCCF SWAP1 PUSH2 0x1F1E JUMP JUMPDEST PUSH1 0x40 MLOAD DUP1 SWAP2 SUB SWAP1 REVERT JUMPDEST PUSH1 0x0 PUSH20 0xFFFFFFFFFFFFFFFFFFFFFFFFFFFFFFFFFFFFFFFF AND DUP2 PUSH20 0xFFFFFFFFFFFFFFFFFFFFFFFFFFFFFFFFFFFFFFFF AND EQ ISZERO PUSH2 0xD48 JUMPI PUSH1 0x40 MLOAD PUSH32 0x8C379A000000000000000000000000000000000000000000000000000000000 DUP2 MSTORE PUSH1 0x4 ADD PUSH2 0xD3F SWAP1 PUSH2 0x1E3E JUMP JUMPDEST PUSH1 0x40 MLOAD DUP1 SWAP2 SUB SWAP1 REVERT JUMPDEST PUSH2 0xD51 DUP2 PUSH2 0x1597 JUMP JUMPDEST POP JUMP JUMPDEST PUSH1 0x0 DUP1 PUSH1 0x1 SWAP1 SLOAD SWAP1 PUSH2 0x100 EXP SWAP1 DIV PUSH1 0xFF AND ISZERO PUSH2 0xDCB JUMPI PUSH1 0x1 DUP3 PUSH1 0xFF AND EQ DUP1 ISZERO PUSH2 0xD83 JUMPI POP PUSH2 0xD81 ADDRESS PUSH2 0x165D JUMP JUMPDEST ISZERO JUMPDEST PUSH2 0xDC2 JUMPI PUSH1 0x40 MLOAD PUSH32 0x8C379A000000000000000000000000000000000000000000000000000000000 DUP2 MSTORE PUSH1 0x4 ADD PUSH2 0xDB9 SWAP1 PUSH2 0x1EFE JUMP JUMPDEST PUSH1 0x40 MLOAD DUP1 SWAP2 SUB SWAP1 REVERT JUMPDEST PUSH1 0x0 SWAP1 POP PUSH2 0xE3F JUMP JUMPDEST DUP2 PUSH1 0xFF AND PUSH1 0x0 DUP1 SLOAD SWAP1 PUSH2 0x100 EXP SWAP1 DIV PUSH1 0xFF AND PUSH1 0xFF AND LT PUSH2 0xE20 JUMPI PUSH1 0x40 MLOAD PUSH32 0x8C379A000000000000000000000000000000000000000000000000000000000 DUP2 MSTORE PUSH1 0x4 ADD PUSH2 0xE17 SWAP1 PUSH2 0x1EFE JUMP JUMPDEST PUSH1 0x40 MLOAD DUP1 SWAP2 SUB SWAP1 REVERT JUMPDEST DUP2 PUSH1 0x0 DUP1 PUSH2 0x100 EXP DUP2 SLOAD DUP2 PUSH1 0xFF MUL NOT AND SWAP1 DUP4 PUSH1 0xFF AND MUL OR SWAP1 SSTORE POP PUSH1 0x1 SWAP1 POP JUMPDEST SWAP2 SWAP1 POP JUMP JUMPDEST PUSH1 0x0 PUSH1 0x1 SWAP1 SLOAD SWAP1 PUSH2 0x100 EXP SWAP1 DIV PUSH1 0xFF AND PUSH2 0xE93 JUMPI PUSH1 0x40 MLOAD PUSH32 0x8C379A000000000000000000000000000000000000000000000000000000000 DUP2 MSTORE PUSH1 0x4 ADD PUSH2 0xE8A SWAP1 PUSH2 0x1F7E JUMP JUMPDEST PUSH1 0x40 MLOAD DUP1 SWAP2 SUB SWAP1 REVERT JUMPDEST PUSH2 0xE9D DUP3 DUP3 PUSH2 0x1680 JUMP JUMPDEST POP POP JUMP JUMPDEST PUSH1 0x0 PUSH1 0x1 SWAP1 SLOAD SWAP1 PUSH2 0x100 EXP SWAP1 DIV PUSH1 0xFF AND PUSH2 0xEF0 JUMPI PUSH1 0x40 MLOAD PUSH32 0x8C379A000000000000000000000000000000000000000000000000000000000 DUP2 MSTORE PUSH1 0x4 ADD PUSH2 0xEE7 SWAP1 PUSH2 0x1F7E JUMP JUMPDEST PUSH1 0x40 MLOAD DUP1 SWAP2 SUB SWAP1 REVERT JUMPDEST PUSH2 0xEF8 PUSH2 0x1701 JUMP JUMPDEST JUMP JUMPDEST PUSH1 0x0 PUSH1 0x1 SWAP1 SLOAD SWAP1 PUSH2 0x100 EXP SWAP1 DIV PUSH1 0xFF AND PUSH2 0xF49 JUMPI PUSH1 0x40 MLOAD PUSH32 0x8C379A000000000000000000000000000000000000000000000000000000000 DUP2 MSTORE PUSH1 0x4 ADD PUSH2 0xF40 SWAP1 PUSH2 0x1F7E JUMP JUMPDEST PUSH1 0x40 MLOAD DUP1 SWAP2 SUB SWAP1 REVERT JUMPDEST PUSH2 0xF51 PUSH2 0x1762 JUMP JUMPDEST JUMP JUMPDEST PUSH1 0x0 PUSH20 0xFFFFFFFFFFFFFFFFFFFFFFFFFFFFFFFFFFFFFFFF AND DUP3 PUSH20 0xFFFFFFFFFFFFFFFFFFFFFFFFFFFFFFFFFFFFFFFF AND EQ ISZERO PUSH2 0xFC3 JUMPI PUSH1 0x40 MLOAD PUSH32 0x8C379A000000000000000000000000000000000000000000000000000000000 DUP2 MSTORE PUSH1 0x4 ADD PUSH2 0xFBA SWAP1 PUSH2 0x1FDE JUMP JUMPDEST PUSH1 0x40 MLOAD DUP1 SWAP2 SUB SWAP1 REVERT JUMPDEST PUSH2 0xFCF PUSH1 0x0 DUP4 DUP4 PUSH2 0x17CE JUMP JUMPDEST DUP1 PUSH1 0x35 PUSH1 0x0 DUP3 DUP3 SLOAD PUSH2 0xFE1 SWAP2 SWAP1 PUSH2 0x20A6 JUMP JUMPDEST SWAP3 POP POP DUP2 SWAP1 SSTORE POP DUP1 PUSH1 0x33 PUSH1 0x0 DUP5 PUSH20 0xFFFFFFFFFFFFFFFFFFFFFFFFFFFFFFFFFFFFFFFF AND PUSH20 0xFFFFFFFFFFFFFFFFFFFFFFFFFFFFFFFFFFFFFFFF AND DUP2 MSTORE PUSH1 0x20 ADD SWAP1 DUP2 MSTORE PUSH1 0x20 ADD PUSH1 0x0 KECCAK256 PUSH1 0x0 DUP3 DUP3 SLOAD PUSH2 0x1037 SWAP2 SWAP1 PUSH2 0x20A6 JUMP JUMPDEST SWAP3 POP POP DUP2 SWAP1 SSTORE POP DUP2 PUSH20 0xFFFFFFFFFFFFFFFFFFFFFFFFFFFFFFFFFFFFFFFF AND PUSH1 0x0 PUSH20 0xFFFFFFFFFFFFFFFFFFFFFFFFFFFFFFFFFFFFFFFF AND PUSH32 0xDDF252AD1BE2C89B69C2B068FC378DAA952BA7F163C4A11628F55A4DF523B3EF DUP4 PUSH1 0x40 MLOAD PUSH2 0x109C SWAP2 SWAP1 PUSH2 0x1FFE JUMP JUMPDEST PUSH1 0x40 MLOAD DUP1 SWAP2 SUB SWAP1 LOG3 PUSH2 0x10B0 PUSH1 0x0 DUP4 DUP4 PUSH2 0x17D3 JUMP JUMPDEST POP POP JUMP JUMPDEST PUSH1 0x0 CALLER SWAP1 POP SWAP1 JUMP JUMPDEST PUSH1 0x0 PUSH20 0xFFFFFFFFFFFFFFFFFFFFFFFFFFFFFFFFFFFFFFFF AND DUP4 PUSH20 0xFFFFFFFFFFFFFFFFFFFFFFFFFFFFFFFFFFFFFFFF AND EQ ISZERO PUSH2 0x112C JUMPI PUSH1 0x40 MLOAD PUSH32 0x8C379A000000000000000000000000000000000000000000000000000000000 DUP2 MSTORE PUSH1 0x4 ADD PUSH2 0x1123 SWAP1 PUSH2 0x1F5E JUMP JUMPDEST PUSH1 0x40 MLOAD DUP1 SWAP2 SUB SWAP1 REVERT JUMPDEST PUSH1 0x0 PUSH20 0xFFFFFFFFFFFFFFFFFFFFFFFFFFFFFFFFFFFFFFFF AND DUP3 PUSH20 0xFFFFFFFFFFFFFFFFFFFFFFFFFFFFFFFFFFFFFFFF AND EQ ISZERO PUSH2 0x119C JUMPI PUSH1 0x40 MLOAD PUSH32 0x8C379A000000000000000000000000000000000000000000000000000000000 DUP2 MSTORE PUSH1 0x4 ADD PUSH2 0x1193 SWAP1 PUSH2 0x1E5E JUMP JUMPDEST PUSH1 0x40 MLOAD DUP1 SWAP2 SUB SWAP1 REVERT JUMPDEST DUP1 PUSH1 0x34 PUSH1 0x0 DUP6 PUSH20 0xFFFFFFFFFFFFFFFFFFFFFFFFFFFFFFFFFFFFFFFF AND PUSH20 0xFFFFFFFFFFFFFFFFFFFFFFFFFFFFFFFFFFFFFFFF AND DUP2 MSTORE PUSH1 0x20 ADD SWAP1 DUP2 MSTORE PUSH1 0x20 ADD PUSH1 0x0 KECCAK256 PUSH1 0x0 DUP5 PUSH20 0xFFFFFFFFFFFFFFFFFFFFFFFFFFFFFFFFFFFFFFFF AND PUSH20 0xFFFFFFFFFFFFFFFFFFFFFFFFFFFFFFFFFFFFFFFF AND DUP2 MSTORE PUSH1 0x20 ADD SWAP1 DUP2 MSTORE PUSH1 0x20 ADD PUSH1 0x0 KECCAK256 DUP2 SWAP1 SSTORE POP DUP2 PUSH20 0xFFFFFFFFFFFFFFFFFFFFFFFFFFFFFFFFFFFFFFFF AND DUP4 PUSH20 0xFFFFFFFFFFFFFFFFFFFFFFFFFFFFFFFFFFFFFFFF AND PUSH32 0x8C5BE1E5EBEC7D5BD14F71427D1E84F3DD0314C0F7B2291E5B200AC8C7C3B925 DUP4 PUSH1 0x40 MLOAD PUSH2 0x127A SWAP2 SWAP1 PUSH2 0x1FFE JUMP JUMPDEST PUSH1 0x40 MLOAD DUP1 SWAP2 SUB SWAP1 LOG3 POP POP POP JUMP JUMPDEST PUSH1 0x0 PUSH2 0x1293 DUP5 DUP5 PUSH2 0xBD5 JUMP JUMPDEST SWAP1 POP PUSH32 0xFFFFFFFFFFFFFFFFFFFFFFFFFFFFFFFFFFFFFFFFFFFFFFFFFFFFFFFFFFFFFFFF DUP2 EQ PUSH2 0x130D JUMPI DUP2 DUP2 LT ISZERO PUSH2 0x12FF JUMPI PUSH1 0x40 MLOAD PUSH32 0x8C379A000000000000000000000000000000000000000000000000000000000 DUP2 MSTORE PUSH1 0x4 ADD PUSH2 0x12F6 SWAP1 PUSH2 0x1EBE JUMP JUMPDEST PUSH1 0x40 MLOAD DUP1 SWAP2 SUB SWAP1 REVERT JUMPDEST PUSH2 0x130C DUP5 DUP5 DUP5 DUP5 SUB PUSH2 0x10BC JUMP JUMPDEST JUMPDEST POP POP POP POP JUMP JUMPDEST PUSH1 0x0 PUSH20 0xFFFFFFFFFFFFFFFFFFFFFFFFFFFFFFFFFFFFFFFF AND DUP4 PUSH20 0xFFFFFFFFFFFFFFFFFFFFFFFFFFFFFFFFFFFFFFFF AND EQ ISZERO PUSH2 0x1383 JUMPI PUSH1 0x40 MLOAD PUSH32 0x8C379A000000000000000000000000000000000000000000000000000000000 DUP2 MSTORE PUSH1 0x4 ADD PUSH2 0x137A SWAP1 PUSH2 0x1F3E JUMP JUMPDEST PUSH1 0x40 MLOAD DUP1 SWAP2 SUB SWAP1 REVERT JUMPDEST PUSH1 0x0 PUSH20 0xFFFFFFFFFFFFFFFFFFFFFFFFFFFFFFFFFFFFFFFF AND DUP3 PUSH20 0xFFFFFFFFFFFFFFFFFFFFFFFFFFFFFFFFFFFFFFFF AND EQ ISZERO PUSH2 0x13F3 JUMPI PUSH1 0x40 MLOAD PUSH32 0x8C379A000000000000000000000000000000000000000000000000000000000 DUP2 MSTORE PUSH1 0x4 ADD PUSH2 0x13EA SWAP1 PUSH2 0x1E1E JUMP JUMPDEST PUSH1 0x40 MLOAD DUP1 SWAP2 SUB SWAP1 REVERT JUMPDEST PUSH2 0x13FE DUP4 DUP4 DUP4 PUSH2 0x17CE JUMP JUMPDEST PUSH1 0x0 PUSH1 0x33 PUSH1 0x0 DUP6 PUSH20 0xFFFFFFFFFFFFFFFFFFFFFFFFFFFFFFFFFFFFFFFF AND PUSH20 0xFFFFFFFFFFFFFFFFFFFFFFFFFFFFFFFFFFFFFFFF AND DUP2 MSTORE PUSH1 0x20 ADD SWAP1 DUP2 MSTORE PUSH1 0x20 ADD PUSH1 0x0 KECCAK256 SLOAD SWAP1 POP DUP2 DUP2 LT ISZERO PUSH2 0x1485 JUMPI PUSH1 0x40 MLOAD PUSH32 0x8C379A000000000000000000000000000000000000000000000000000000000 DUP2 MSTORE PUSH1 0x4 ADD PUSH2 0x147C SWAP1 PUSH2 0x1EDE JUMP JUMPDEST PUSH1 0x40 MLOAD DUP1 SWAP2 SUB SWAP1 REVERT JUMPDEST DUP2 DUP2 SUB PUSH1 0x33 PUSH1 0x0 DUP7 PUSH20 0xFFFFFFFFFFFFFFFFFFFFFFFFFFFFFFFFFFFFFFFF AND PUSH20 0xFFFFFFFFFFFFFFFFFFFFFFFFFFFFFFFFFFFFFFFF AND DUP2 MSTORE PUSH1 0x20 ADD SWAP1 DUP2 MSTORE PUSH1 0x20 ADD PUSH1 0x0 KECCAK256 DUP2 SWAP1 SSTORE POP DUP2 PUSH1 0x33 PUSH1 0x0 DUP6 PUSH20 0xFFFFFFFFFFFFFFFFFFFFFFFFFFFFFFFFFFFFFFFF AND PUSH20 0xFFFFFFFFFFFFFFFFFFFFFFFFFFFFFFFFFFFFFFFF AND DUP2 MSTORE PUSH1 0x20 ADD SWAP1 DUP2 MSTORE PUSH1 0x20 ADD PUSH1 0x0 KECCAK256 PUSH1 0x0 DUP3 DUP3 SLOAD PUSH2 0x151A SWAP2 SWAP1 PUSH2 0x20A6 JUMP JUMPDEST SWAP3 POP POP DUP2 SWAP1 SSTORE POP DUP3 PUSH20 0xFFFFFFFFFFFFFFFFFFFFFFFFFFFFFFFFFFFFFFFF AND DUP5 PUSH20 0xFFFFFFFFFFFFFFFFFFFFFFFFFFFFFFFFFFFFFFFF AND PUSH32 0xDDF252AD1BE2C89B69C2B068FC378DAA952BA7F163C4A11628F55A4DF523B3EF DUP5 PUSH1 0x40 MLOAD PUSH2 0x157E SWAP2 SWAP1 PUSH2 0x1FFE JUMP JUMPDEST PUSH1 0x40 MLOAD DUP1 SWAP2 SUB SWAP1 LOG3 PUSH2 0x1591 DUP5 DUP5 DUP5 PUSH2 0x17D3 JUMP JUMPDEST POP POP POP POP JUMP JUMPDEST PUSH1 0x0 PUSH1 0x65 PUSH1 0x0 SWAP1 SLOAD SWAP1 PUSH2 0x100 EXP SWAP1 DIV PUSH20 0xFFFFFFFFFFFFFFFFFFFFFFFFFFFFFFFFFFFFFFFF AND SWAP1 POP DUP2 PUSH1 0x65 PUSH1 0x0 PUSH2 0x100 EXP DUP2 SLOAD DUP2 PUSH20 0xFFFFFFFFFFFFFFFFFFFFFFFFFFFFFFFFFFFFFFFF MUL NOT AND SWAP1 DUP4 PUSH20 0xFFFFFFFFFFFFFFFFFFFFFFFFFFFFFFFFFFFFFFFF AND MUL OR SWAP1 SSTORE POP DUP2 PUSH20 0xFFFFFFFFFFFFFFFFFFFFFFFFFFFFFFFFFFFFFFFF AND DUP2 PUSH20 0xFFFFFFFFFFFFFFFFFFFFFFFFFFFFFFFFFFFFFFFF AND PUSH32 0x8BE0079C531659141344CD1FD0A4F28419497F9722A3DAAFE3B4186F6B6457E0 PUSH1 0x40 MLOAD PUSH1 0x40 MLOAD DUP1 SWAP2 SUB SWAP1 LOG3 POP POP JUMP JUMPDEST PUSH1 0x0 DUP1 DUP3 PUSH20 0xFFFFFFFFFFFFFFFFFFFFFFFFFFFFFFFFFFFFFFFF AND EXTCODESIZE GT SWAP1 POP SWAP2 SWAP1 POP JUMP JUMPDEST PUSH1 0x0 PUSH1 0x1 SWAP1 SLOAD SWAP1 PUSH2 0x100 EXP SWAP1 DIV PUSH1 0xFF AND PUSH2 0x16CF JUMPI PUSH1 0x40 MLOAD PUSH32 0x8C379A000000000000000000000000000000000000000000000000000000000 DUP2 MSTORE PUSH1 0x4 ADD PUSH2 0x16C6 SWAP1 PUSH2 0x1F7E JUMP JUMPDEST PUSH1 0x40 MLOAD DUP1 SWAP2 SUB SWAP1 REVERT JUMPDEST DUP2 PUSH1 0x36 SWAP1 DUP1 MLOAD SWAP1 PUSH1 0x20 ADD SWAP1 PUSH2 0x16E5 SWAP3 SWAP2 SWAP1 PUSH2 0x17D8 JUMP JUMPDEST POP DUP1 PUSH1 0x37 SWAP1 DUP1 MLOAD SWAP1 PUSH1 0x20 ADD SWAP1 PUSH2 0x16FC SWAP3 SWAP2 SWAP1 PUSH2 0x17D8 JUMP JUMPDEST POP POP POP JUMP JUMPDEST PUSH1 0x0 PUSH1 0x1 SWAP1 SLOAD SWAP1 PUSH2 0x100 EXP SWAP1 DIV PUSH1 0xFF AND PUSH2 0x1750 JUMPI PUSH1 0x40 MLOAD PUSH32 0x8C379A000000000000000000000000000000000000000000000000000000000 DUP2 MSTORE PUSH1 0x4 ADD PUSH2 0x1747 SWAP1 PUSH2 0x1F7E JUMP JUMPDEST PUSH1 0x40 MLOAD DUP1 SWAP2 SUB SWAP1 REVERT JUMPDEST PUSH2 0x1760 PUSH2 0x175B PUSH2 0x10B4 JUMP JUMPDEST PUSH2 0x1597 JUMP JUMPDEST JUMP JUMPDEST PUSH1 0x0 PUSH1 0x1 SWAP1 SLOAD SWAP1 PUSH2 0x100 EXP SWAP1 DIV PUSH1 0xFF AND PUSH2 0x17B1 JUMPI PUSH1 0x40 MLOAD PUSH32 0x8C379A000000000000000000000000000000000000000000000000000000000 DUP2 MSTORE PUSH1 0x4 ADD PUSH2 0x17A8 SWAP1 PUSH2 0x1F7E JUMP JUMPDEST PUSH1 0x40 MLOAD DUP1 SWAP2 SUB SWAP1 REVERT JUMPDEST PUSH1 0x0 PUSH1 0x97 PUSH1 0x0 PUSH2 0x100 EXP DUP2 SLOAD DUP2 PUSH1 0xFF MUL NOT AND SWAP1 DUP4 ISZERO ISZERO MUL OR SWAP1 SSTORE POP JUMP JUMPDEST POP POP POP JUMP JUMPDEST POP POP POP JUMP JUMPDEST DUP3 DUP1 SLOAD PUSH2 0x17E4 SWAP1 PUSH2 0x21D9 JUMP JUMPDEST SWAP1 PUSH1 0x0 MSTORE PUSH1 0x20 PUSH1 0x0 KECCAK256 SWAP1 PUSH1 0x1F ADD PUSH1 0x20 SWAP1 DIV DUP2 ADD SWAP3 DUP3 PUSH2 0x1806 JUMPI PUSH1 0x0 DUP6 SSTORE PUSH2 0x184D JUMP JUMPDEST DUP3 PUSH1 0x1F LT PUSH2 0x181F JUMPI DUP1 MLOAD PUSH1 0xFF NOT AND DUP4 DUP1 ADD OR DUP6 SSTORE PUSH2 0x184D JUMP JUMPDEST DUP3 DUP1 ADD PUSH1 0x1 ADD DUP6 SSTORE DUP3 ISZERO PUSH2 0x184D JUMPI SWAP2 DUP3 ADD JUMPDEST DUP3 DUP2 GT ISZERO PUSH2 0x184C JUMPI DUP3 MLOAD DUP3 SSTORE SWAP2 PUSH1 0x20 ADD SWAP2 SWAP1 PUSH1 0x1 ADD SWAP1 PUSH2 0x1831 JUMP JUMPDEST JUMPDEST POP SWAP1 POP PUSH2 0x185A SWAP2 SWAP1 PUSH2 0x185E JUMP JUMPDEST POP SWAP1 JUMP JUMPDEST JUMPDEST DUP1 DUP3 GT ISZERO PUSH2 0x1877 JUMPI PUSH1 0x0 DUP2 PUSH1 0x0 SWAP1 SSTORE POP PUSH1 0x1 ADD PUSH2 0x185F JUMP JUMPDEST POP SWAP1 JUMP JUMPDEST PUSH1 0x0 PUSH2 0x188E PUSH2 0x1889 DUP5 PUSH2 0x2059 JUMP JUMPDEST PUSH2 0x2034 JUMP JUMPDEST SWAP1 POP DUP3 DUP2 MSTORE PUSH1 0x20 DUP2 ADD DUP5 DUP5 DUP5 ADD GT ISZERO PUSH2 0x18A6 JUMPI PUSH1 0x0 DUP1 REVERT JUMPDEST PUSH2 0x18B1 DUP5 DUP3 DUP6 PUSH2 0x2197 JUMP JUMPDEST POP SWAP4 SWAP3 POP POP POP JUMP JUMPDEST PUSH1 0x0 DUP2 CALLDATALOAD SWAP1 POP PUSH2 0x18C8 DUP2 PUSH2 0x2697 JUMP JUMPDEST SWAP3 SWAP2 POP POP JUMP JUMPDEST PUSH1 0x0 DUP2 MLOAD SWAP1 POP PUSH2 0x18DD DUP2 PUSH2 0x2697 JUMP JUMPDEST SWAP3 SWAP2 POP POP JUMP JUMPDEST PUSH1 0x0 DUP3 PUSH1 0x1F DUP4 ADD SLT PUSH2 0x18F4 JUMPI PUSH1 0x0 DUP1 REVERT JUMPDEST DUP2 CALLDATALOAD PUSH2 0x1904 DUP5 DUP3 PUSH1 0x20 DUP7 ADD PUSH2 0x187B JUMP JUMPDEST SWAP2 POP POP SWAP3 SWAP2 POP POP JUMP JUMPDEST PUSH1 0x0 DUP2 CALLDATALOAD SWAP1 POP PUSH2 0x191C DUP2 PUSH2 0x26AE JUMP JUMPDEST SWAP3 SWAP2 POP POP JUMP JUMPDEST PUSH1 0x0 PUSH1 0x20 DUP3 DUP5 SUB SLT ISZERO PUSH2 0x1934 JUMPI PUSH1 0x0 DUP1 REVERT JUMPDEST PUSH1 0x0 PUSH2 0x1942 DUP5 DUP3 DUP6 ADD PUSH2 0x18B9 JUMP JUMPDEST SWAP2 POP POP SWAP3 SWAP2 POP POP JUMP JUMPDEST PUSH1 0x0 PUSH1 0x20 DUP3 DUP5 SUB SLT ISZERO PUSH2 0x195D JUMPI PUSH1 0x0 DUP1 REVERT JUMPDEST PUSH1 0x0 PUSH2 0x196B DUP5 DUP3 DUP6 ADD PUSH2 0x18CE JUMP JUMPDEST SWAP2 POP POP SWAP3 SWAP2 POP POP JUMP JUMPDEST PUSH1 0x0 DUP1 PUSH1 0x40 DUP4 DUP6 SUB SLT ISZERO PUSH2 0x1987 JUMPI PUSH1 0x0 DUP1 REVERT JUMPDEST PUSH1 0x0 PUSH2 0x1995 DUP6 DUP3 DUP7 ADD PUSH2 0x18B9 JUMP JUMPDEST SWAP3 POP POP PUSH1 0x20 PUSH2 0x19A6 DUP6 DUP3 DUP7 ADD PUSH2 0x18B9 JUMP JUMPDEST SWAP2 POP POP SWAP3 POP SWAP3 SWAP1 POP JUMP JUMPDEST PUSH1 0x0 DUP1 PUSH1 0x0 PUSH1 0x60 DUP5 DUP7 SUB SLT ISZERO PUSH2 0x19C5 JUMPI PUSH1 0x0 DUP1 REVERT JUMPDEST PUSH1 0x0 PUSH2 0x19D3 DUP7 DUP3 DUP8 ADD PUSH2 0x18B9 JUMP JUMPDEST SWAP4 POP POP PUSH1 0x20 PUSH2 0x19E4 DUP7 DUP3 DUP8 ADD PUSH2 0x18B9 JUMP JUMPDEST SWAP3 POP POP PUSH1 0x40 PUSH2 0x19F5 DUP7 DUP3 DUP8 ADD PUSH2 0x190D JUMP JUMPDEST SWAP2 POP POP SWAP3 POP SWAP3 POP SWAP3 JUMP JUMPDEST PUSH1 0x0 DUP1 PUSH1 0x40 DUP4 DUP6 SUB SLT ISZERO PUSH2 0x1A12 JUMPI PUSH1 0x0 DUP1 REVERT JUMPDEST PUSH1 0x0 PUSH2 0x1A20 DUP6 DUP3 DUP7 ADD PUSH2 0x18B9 JUMP JUMPDEST SWAP3 POP POP PUSH1 0x20 PUSH2 0x1A31 DUP6 DUP3 DUP7 ADD PUSH2 0x190D JUMP JUMPDEST SWAP2 POP POP SWAP3 POP SWAP3 SWAP1 POP JUMP JUMPDEST PUSH1 0x0 DUP1 PUSH1 0x0 PUSH1 0x60 DUP5 DUP7 SUB SLT ISZERO PUSH2 0x1A50 JUMPI PUSH1 0x0 DUP1 REVERT JUMPDEST PUSH1 0x0 DUP5 ADD CALLDATALOAD PUSH8 0xFFFFFFFFFFFFFFFF DUP2 GT ISZERO PUSH2 0x1A6A JUMPI PUSH1 0x0 DUP1 REVERT JUMPDEST PUSH2 0x1A76 DUP7 DUP3 DUP8 ADD PUSH2 0x18E3 JUMP JUMPDEST SWAP4 POP POP PUSH1 0x20 DUP5 ADD CALLDATALOAD PUSH8 0xFFFFFFFFFFFFFFFF DUP2 GT ISZERO PUSH2 0x1A93 JUMPI PUSH1 0x0 DUP1 REVERT JUMPDEST PUSH2 0x1A9F DUP7 DUP3 DUP8 ADD PUSH2 0x18E3 JUMP JUMPDEST SWAP3 POP POP PUSH1 0x40 PUSH2 0x1AB0 DUP7 DUP3 DUP8 ADD PUSH2 0x18B9 JUMP JUMPDEST SWAP2 POP POP SWAP3 POP SWAP3 POP SWAP3 JUMP JUMPDEST PUSH1 0x0 PUSH1 0x20 DUP3 DUP5 SUB SLT ISZERO PUSH2 0x1ACC JUMPI PUSH1 0x0 DUP1 REVERT JUMPDEST PUSH1 0x0 PUSH2 0x1ADA DUP5 DUP3 DUP6 ADD PUSH2 0x190D JUMP JUMPDEST SWAP2 POP POP SWAP3 SWAP2 POP POP JUMP JUMPDEST PUSH2 0x1AEC DUP2 PUSH2 0x2130 JUMP JUMPDEST DUP3 MSTORE POP POP JUMP JUMPDEST PUSH2 0x1AFB DUP2 PUSH2 0x2142 JUMP JUMPDEST DUP3 MSTORE POP POP JUMP JUMPDEST PUSH2 0x1B0A DUP2 PUSH2 0x2185 JUMP JUMPDEST DUP3 MSTORE POP POP JUMP JUMPDEST PUSH1 0x0 PUSH2 0x1B1B DUP3 PUSH2 0x208A JUMP JUMPDEST PUSH2 0x1B25 DUP2 DUP6 PUSH2 0x2095 JUMP JUMPDEST SWAP4 POP PUSH2 0x1B35 DUP2 DUP6 PUSH1 0x20 DUP7 ADD PUSH2 0x21A6 JUMP JUMPDEST PUSH2 0x1B3E DUP2 PUSH2 0x22C9 JUMP JUMPDEST DUP5 ADD SWAP2 POP POP SWAP3 SWAP2 POP POP JUMP JUMPDEST PUSH1 0x0 PUSH2 0x1B56 PUSH1 0x23 DUP4 PUSH2 0x2095 JUMP JUMPDEST SWAP2 POP PUSH2 0x1B61 DUP3 PUSH2 0x22DA JUMP JUMPDEST PUSH1 0x40 DUP3 ADD SWAP1 POP SWAP2 SWAP1 POP JUMP JUMPDEST PUSH1 0x0 PUSH2 0x1B79 PUSH1 0x26 DUP4 PUSH2 0x2095 JUMP JUMPDEST SWAP2 POP PUSH2 0x1B84 DUP3 PUSH2 0x2329 JUMP JUMPDEST PUSH1 0x40 DUP3 ADD SWAP1 POP SWAP2 SWAP1 POP JUMP JUMPDEST PUSH1 0x0 PUSH2 0x1B9C PUSH1 0x22 DUP4 PUSH2 0x2095 JUMP JUMPDEST SWAP2 POP PUSH2 0x1BA7 DUP3 PUSH2 0x2378 JUMP JUMPDEST PUSH1 0x40 DUP3 ADD SWAP1 POP SWAP2 SWAP1 POP JUMP JUMPDEST PUSH1 0x0 PUSH2 0x1BBF PUSH1 0xC DUP4 PUSH2 0x2095 JUMP JUMPDEST SWAP2 POP PUSH2 0x1BCA DUP3 PUSH2 0x23C7 JUMP JUMPDEST PUSH1 0x20 DUP3 ADD SWAP1 POP SWAP2 SWAP1 POP JUMP JUMPDEST PUSH1 0x0 PUSH2 0x1BE2 PUSH1 0xB DUP4 PUSH2 0x2095 JUMP JUMPDEST SWAP2 POP PUSH2 0x1BED DUP3 PUSH2 0x23F0 JUMP JUMPDEST PUSH1 0x20 DUP3 ADD SWAP1 POP SWAP2 SWAP1 POP JUMP JUMPDEST PUSH1 0x0 PUSH2 0x1C05 PUSH1 0x1D DUP4 PUSH2 0x2095 JUMP JUMPDEST SWAP2 POP PUSH2 0x1C10 DUP3 PUSH2 0x2419 JUMP JUMPDEST PUSH1 0x20 DUP3 ADD SWAP1 POP SWAP2 SWAP1 POP JUMP JUMPDEST PUSH1 0x0 PUSH2 0x1C28 PUSH1 0x26 DUP4 PUSH2 0x2095 JUMP JUMPDEST SWAP2 POP PUSH2 0x1C33 DUP3 PUSH2 0x2442 JUMP JUMPDEST PUSH1 0x40 DUP3 ADD SWAP1 POP SWAP2 SWAP1 POP JUMP JUMPDEST PUSH1 0x0 PUSH2 0x1C4B PUSH1 0x2E DUP4 PUSH2 0x2095 JUMP JUMPDEST SWAP2 POP PUSH2 0x1C56 DUP3 PUSH2 0x2491 JUMP JUMPDEST PUSH1 0x40 DUP3 ADD SWAP1 POP SWAP2 SWAP1 POP JUMP JUMPDEST PUSH1 0x0 PUSH2 0x1C6E PUSH1 0x20 DUP4 PUSH2 0x2095 JUMP JUMPDEST SWAP2 POP PUSH2 0x1C79 DUP3 PUSH2 0x24E0 JUMP JUMPDEST PUSH1 0x20 DUP3 ADD SWAP1 POP SWAP2 SWAP1 POP JUMP JUMPDEST PUSH1 0x0 PUSH2 0x1C91 PUSH1 0x25 DUP4 PUSH2 0x2095 JUMP JUMPDEST SWAP2 POP PUSH2 0x1C9C DUP3 PUSH2 0x2509 JUMP JUMPDEST PUSH1 0x40 DUP3 ADD SWAP1 POP SWAP2 SWAP1 POP JUMP JUMPDEST PUSH1 0x0 PUSH2 0x1CB4 PUSH1 0x24 DUP4 PUSH2 0x2095 JUMP JUMPDEST SWAP2 POP PUSH2 0x1CBF DUP3 PUSH2 0x2558 JUMP JUMPDEST PUSH1 0x40 DUP3 ADD SWAP1 POP SWAP2 SWAP1 POP JUMP JUMPDEST PUSH1 0x0 PUSH2 0x1CD7 PUSH1 0x2B DUP4 PUSH2 0x2095 JUMP JUMPDEST SWAP2 POP PUSH2 0x1CE2 DUP3 PUSH2 0x25A7 JUMP JUMPDEST PUSH1 0x40 DUP3 ADD SWAP1 POP SWAP2 SWAP1 POP JUMP JUMPDEST PUSH1 0x0 PUSH2 0x1CFA PUSH1 0xE DUP4 PUSH2 0x2095 JUMP JUMPDEST SWAP2 POP PUSH2 0x1D05 DUP3 PUSH2 0x25F6 JUMP JUMPDEST PUSH1 0x20 DUP3 ADD SWAP1 POP SWAP2 SWAP1 POP JUMP JUMPDEST PUSH1 0x0 PUSH2 0x1D1D PUSH1 0x25 DUP4 PUSH2 0x2095 JUMP JUMPDEST SWAP2 POP PUSH2 0x1D28 DUP3 PUSH2 0x261F JUMP JUMPDEST PUSH1 0x40 DUP3 ADD SWAP1 POP SWAP2 SWAP1 POP JUMP JUMPDEST PUSH1 0x0 PUSH2 0x1D40 PUSH1 0x1F DUP4 PUSH2 0x2095 JUMP JUMPDEST SWAP2 POP PUSH2 0x1D4B DUP3 PUSH2 0x266E JUMP JUMPDEST PUSH1 0x20 DUP3 ADD SWAP1 POP SWAP2 SWAP1 POP JUMP JUMPDEST PUSH2 0x1D5F DUP2 PUSH2 0x216E JUMP JUMPDEST DUP3 MSTORE POP POP JUMP JUMPDEST PUSH2 0x1D6E DUP2 PUSH2 0x2178 JUMP JUMPDEST DUP3 MSTORE POP POP JUMP JUMPDEST PUSH1 0x0 PUSH1 0x20 DUP3 ADD SWAP1 POP PUSH2 0x1D89 PUSH1 0x0 DUP4 ADD DUP5 PUSH2 0x1AE3 JUMP JUMPDEST SWAP3 SWAP2 POP POP JUMP JUMPDEST PUSH1 0x0 PUSH1 0x60 DUP3 ADD SWAP1 POP PUSH2 0x1DA4 PUSH1 0x0 DUP4 ADD DUP7 PUSH2 0x1AE3 JUMP JUMPDEST PUSH2 0x1DB1 PUSH1 0x20 DUP4 ADD DUP6 PUSH2 0x1D56 JUMP JUMPDEST PUSH2 0x1DBE PUSH1 0x40 DUP4 ADD DUP5 PUSH2 0x1D56 JUMP JUMPDEST SWAP5 SWAP4 POP POP POP POP JUMP JUMPDEST PUSH1 0x0 PUSH1 0x20 DUP3 ADD SWAP1 POP PUSH2 0x1DDB PUSH1 0x0 DUP4 ADD DUP5 PUSH2 0x1AF2 JUMP JUMPDEST SWAP3 SWAP2 POP POP JUMP JUMPDEST PUSH1 0x0 PUSH1 0x20 DUP3 ADD SWAP1 POP PUSH2 0x1DF6 PUSH1 0x0 DUP4 ADD DUP5 PUSH2 0x1B01 JUMP JUMPDEST SWAP3 SWAP2 POP POP JUMP JUMPDEST PUSH1 0x0 PUSH1 0x20 DUP3 ADD SWAP1 POP DUP2 DUP2 SUB PUSH1 0x0 DUP4 ADD MSTORE PUSH2 0x1E16 DUP2 DUP5 PUSH2 0x1B10 JUMP JUMPDEST SWAP1 POP SWAP3 SWAP2 POP POP JUMP JUMPDEST PUSH1 0x0 PUSH1 0x20 DUP3 ADD SWAP1 POP DUP2 DUP2 SUB PUSH1 0x0 DUP4 ADD MSTORE PUSH2 0x1E37 DUP2 PUSH2 0x1B49 JUMP JUMPDEST SWAP1 POP SWAP2 SWAP1 POP JUMP JUMPDEST PUSH1 0x0 PUSH1 0x20 DUP3 ADD SWAP1 POP DUP2 DUP2 SUB PUSH1 0x0 DUP4 ADD MSTORE PUSH2 0x1E57 DUP2 PUSH2 0x1B6C JUMP JUMPDEST SWAP1 POP SWAP2 SWAP1 POP JUMP JUMPDEST PUSH1 0x0 PUSH1 0x20 DUP3 ADD SWAP1 POP DUP2 DUP2 SUB PUSH1 0x0 DUP4 ADD MSTORE PUSH2 0x1E77 DUP2 PUSH2 0x1B8F JUMP JUMPDEST SWAP1 POP SWAP2 SWAP1 POP JUMP JUMPDEST PUSH1 0x0 PUSH1 0x20 DUP3 ADD SWAP1 POP DUP2 DUP2 SUB PUSH1 0x0 DUP4 ADD MSTORE PUSH2 0x1E97 DUP2 PUSH2 0x1BB2 JUMP JUMPDEST SWAP1 POP SWAP2 SWAP1 POP JUMP JUMPDEST PUSH1 0x0 PUSH1 0x20 DUP3 ADD SWAP1 POP DUP2 DUP2 SUB PUSH1 0x0 DUP4 ADD MSTORE PUSH2 0x1EB7 DUP2 PUSH2 0x1BD5 JUMP JUMPDEST SWAP1 POP SWAP2 SWAP1 POP JUMP JUMPDEST PUSH1 0x0 PUSH1 0x20 DUP3 ADD SWAP1 POP DUP2 DUP2 SUB PUSH1 0x0 DUP4 ADD MSTORE PUSH2 0x1ED7 DUP2 PUSH2 0x1BF8 JUMP JUMPDEST SWAP1 POP SWAP2 SWAP1 POP JUMP JUMPDEST PUSH1 0x0 PUSH1 0x20 DUP3 ADD SWAP1 POP DUP2 DUP2 SUB PUSH1 0x0 DUP4 ADD MSTORE PUSH2 0x1EF7 DUP2 PUSH2 0x1C1B JUMP JUMPDEST SWAP1 POP SWAP2 SWAP1 POP JUMP JUMPDEST PUSH1 0x0 PUSH1 0x20 DUP3 ADD SWAP1 POP DUP2 DUP2 SUB PUSH1 0x0 DUP4 ADD MSTORE PUSH2 0x1F17 DUP2 PUSH2 0x1C3E JUMP JUMPDEST SWAP1 POP SWAP2 SWAP1 POP JUMP JUMPDEST PUSH1 0x0 PUSH1 0x20 DUP3 ADD SWAP1 POP DUP2 DUP2 SUB PUSH1 0x0 DUP4 ADD MSTORE PUSH2 0x1F37 DUP2 PUSH2 0x1C61 JUMP JUMPDEST SWAP1 POP SWAP2 SWAP1 POP JUMP JUMPDEST PUSH1 0x0 PUSH1 0x20 DUP3 ADD SWAP1 POP DUP2 DUP2 SUB PUSH1 0x0 DUP4 ADD MSTORE PUSH2 0x1F57 DUP2 PUSH2 0x1C84 JUMP JUMPDEST SWAP1 POP SWAP2 SWAP1 POP JUMP JUMPDEST PUSH1 0x0 PUSH1 0x20 DUP3 ADD SWAP1 POP DUP2 DUP2 SUB PUSH1 0x0 DUP4 ADD MSTORE PUSH2 0x1F77 DUP2 PUSH2 0x1CA7 JUMP JUMPDEST SWAP1 POP SWAP2 SWAP1 POP JUMP JUMPDEST PUSH1 0x0 PUSH1 0x20 DUP3 ADD SWAP1 POP DUP2 DUP2 SUB PUSH1 0x0 DUP4 ADD MSTORE PUSH2 0x1F97 DUP2 PUSH2 0x1CCA JUMP JUMPDEST SWAP1 POP SWAP2 SWAP1 POP JUMP JUMPDEST PUSH1 0x0 PUSH1 0x20 DUP3 ADD SWAP1 POP DUP2 DUP2 SUB PUSH1 0x0 DUP4 ADD MSTORE PUSH2 0x1FB7 DUP2 PUSH2 0x1CED JUMP JUMPDEST SWAP1 POP SWAP2 SWAP1 POP JUMP JUMPDEST PUSH1 0x0 PUSH1 0x20 DUP3 ADD SWAP1 POP DUP2 DUP2 SUB PUSH1 0x0 DUP4 ADD MSTORE PUSH2 0x1FD7 DUP2 PUSH2 0x1D10 JUMP JUMPDEST SWAP1 POP SWAP2 SWAP1 POP JUMP JUMPDEST PUSH1 0x0 PUSH1 0x20 DUP3 ADD SWAP1 POP DUP2 DUP2 SUB PUSH1 0x0 DUP4 ADD MSTORE PUSH2 0x1FF7 DUP2 PUSH2 0x1D33 JUMP JUMPDEST SWAP1 POP SWAP2 SWAP1 POP JUMP JUMPDEST PUSH1 0x0 PUSH1 0x20 DUP3 ADD SWAP1 POP PUSH2 0x2013 PUSH1 0x0 DUP4 ADD DUP5 PUSH2 0x1D56 JUMP JUMPDEST SWAP3 SWAP2 POP POP JUMP JUMPDEST PUSH1 0x0 PUSH1 0x20 DUP3 ADD SWAP1 POP PUSH2 0x202E PUSH1 0x0 DUP4 ADD DUP5 PUSH2 0x1D65 JUMP JUMPDEST SWAP3 SWAP2 POP POP JUMP JUMPDEST PUSH1 0x0 PUSH2 0x203E PUSH2 0x204F JUMP JUMPDEST SWAP1 POP PUSH2 0x204A DUP3 DUP3 PUSH2 0x220B JUMP JUMPDEST SWAP2 SWAP1 POP JUMP JUMPDEST PUSH1 0x0 PUSH1 0x40 MLOAD SWAP1 POP SWAP1 JUMP JUMPDEST PUSH1 0x0 PUSH8 0xFFFFFFFFFFFFFFFF DUP3 GT ISZERO PUSH2 0x2074 JUMPI PUSH2 0x2073 PUSH2 0x229A JUMP JUMPDEST JUMPDEST PUSH2 0x207D DUP3 PUSH2 0x22C9 JUMP JUMPDEST SWAP1 POP PUSH1 0x20 DUP2 ADD SWAP1 POP SWAP2 SWAP1 POP JUMP JUMPDEST PUSH1 0x0 DUP2 MLOAD SWAP1 POP SWAP2 SWAP1 POP JUMP JUMPDEST PUSH1 0x0 DUP3 DUP3 MSTORE PUSH1 0x20 DUP3 ADD SWAP1 POP SWAP3 SWAP2 POP POP JUMP JUMPDEST PUSH1 0x0 PUSH2 0x20B1 DUP3 PUSH2 0x216E JUMP JUMPDEST SWAP2 POP PUSH2 0x20BC DUP4 PUSH2 0x216E JUMP JUMPDEST SWAP3 POP DUP3 PUSH32 0xFFFFFFFFFFFFFFFFFFFFFFFFFFFFFFFFFFFFFFFFFFFFFFFFFFFFFFFFFFFFFFFF SUB DUP3 GT ISZERO PUSH2 0x20F1 JUMPI PUSH2 0x20F0 PUSH2 0x223C JUMP JUMPDEST JUMPDEST DUP3 DUP3 ADD SWAP1 POP SWAP3 SWAP2 POP POP JUMP JUMPDEST PUSH1 0x0 PUSH2 0x2107 DUP3 PUSH2 0x216E JUMP JUMPDEST SWAP2 POP PUSH2 0x2112 DUP4 PUSH2 0x216E JUMP JUMPDEST SWAP3 POP DUP3 DUP3 LT ISZERO PUSH2 0x2125 JUMPI PUSH2 0x2124 PUSH2 0x223C JUMP JUMPDEST JUMPDEST DUP3 DUP3 SUB SWAP1 POP SWAP3 SWAP2 POP POP JUMP JUMPDEST PUSH1 0x0 PUSH2 0x213B DUP3 PUSH2 0x214E JUMP JUMPDEST SWAP1 POP SWAP2 SWAP1 POP JUMP JUMPDEST PUSH1 0x0 DUP2 ISZERO ISZERO SWAP1 POP SWAP2 SWAP1 POP JUMP JUMPDEST PUSH1 0x0 PUSH20 0xFFFFFFFFFFFFFFFFFFFFFFFFFFFFFFFFFFFFFFFF DUP3 AND SWAP1 POP SWAP2 SWAP1 POP JUMP JUMPDEST PUSH1 0x0 DUP2 SWAP1 POP SWAP2 SWAP1 POP JUMP JUMPDEST PUSH1 0x0 PUSH1 0xFF DUP3 AND SWAP1 POP SWAP2 SWAP1 POP JUMP JUMPDEST PUSH1 0x0 PUSH2 0x2190 DUP3 PUSH2 0x2178 JUMP JUMPDEST SWAP1 POP SWAP2 SWAP1 POP JUMP JUMPDEST DUP3 DUP2 DUP4 CALLDATACOPY PUSH1 0x0 DUP4 DUP4 ADD MSTORE POP POP POP JUMP JUMPDEST PUSH1 0x0 JUMPDEST DUP4 DUP2 LT ISZERO PUSH2 0x21C4 JUMPI DUP1 DUP3 ADD MLOAD DUP2 DUP5 ADD MSTORE PUSH1 0x20 DUP2 ADD SWAP1 POP PUSH2 0x21A9 JUMP JUMPDEST DUP4 DUP2 GT ISZERO PUSH2 0x21D3 JUMPI PUSH1 0x0 DUP5 DUP5 ADD MSTORE JUMPDEST POP POP POP POP JUMP JUMPDEST PUSH1 0x0 PUSH1 0x2 DUP3 DIV SWAP1 POP PUSH1 0x1 DUP3 AND DUP1 PUSH2 0x21F1 JUMPI PUSH1 0x7F DUP3 AND SWAP2 POP JUMPDEST PUSH1 0x20 DUP3 LT DUP2 EQ ISZERO PUSH2 0x2205 JUMPI PUSH2 0x2204 PUSH2 0x226B JUMP JUMPDEST JUMPDEST POP SWAP2 SWAP1 POP JUMP JUMPDEST PUSH2 0x2214 DUP3 PUSH2 0x22C9 JUMP JUMPDEST DUP2 ADD DUP2 DUP2 LT PUSH8 0xFFFFFFFFFFFFFFFF DUP3 GT OR ISZERO PUSH2 0x2233 JUMPI PUSH2 0x2232 PUSH2 0x229A JUMP JUMPDEST JUMPDEST DUP1 PUSH1 0x40 MSTORE POP POP POP JUMP JUMPDEST PUSH32 0x4E487B7100000000000000000000000000000000000000000000000000000000 PUSH1 0x0 MSTORE PUSH1 0x11 PUSH1 0x4 MSTORE PUSH1 0x24 PUSH1 0x0 REVERT JUMPDEST PUSH32 0x4E487B7100000000000000000000000000000000000000000000000000000000 PUSH1 0x0 MSTORE PUSH1 0x22 PUSH1 0x4 MSTORE PUSH1 0x24 PUSH1 0x0 REVERT JUMPDEST PUSH32 0x4E487B7100000000000000000000000000000000000000000000000000000000 PUSH1 0x0 MSTORE PUSH1 0x41 PUSH1 0x4 MSTORE PUSH1 0x24 PUSH1 0x0 REVERT JUMPDEST PUSH1 0x0 PUSH1 0x1F NOT PUSH1 0x1F DUP4 ADD AND SWAP1 POP SWAP2 SWAP1 POP JUMP JUMPDEST PUSH32 0x45524332303A207472616E7366657220746F20746865207A65726F2061646472 PUSH1 0x0 DUP3 ADD MSTORE PUSH32 0x6573730000000000000000000000000000000000000000000000000000000000 PUSH1 0x20 DUP3 ADD MSTORE POP JUMP JUMPDEST PUSH32 0x4F776E61626C653A206E6577206F776E657220697320746865207A65726F2061 PUSH1 0x0 DUP3 ADD MSTORE PUSH32 0x6464726573730000000000000000000000000000000000000000000000000000 PUSH1 0x20 DUP3 ADD MSTORE POP JUMP JUMPDEST PUSH32 0x45524332303A20617070726F766520746F20746865207A65726F206164647265 PUSH1 0x0 DUP3 ADD MSTORE PUSH32 0x7373000000000000000000000000000000000000000000000000000000000000 PUSH1 0x20 DUP3 ADD MSTORE POP JUMP JUMPDEST PUSH32 0x554E415554484F52495A45440000000000000000000000000000000000000000 PUSH1 0x0 DUP3 ADD MSTORE POP JUMP JUMPDEST PUSH32 0x4F4E20434F4F4C444F574E000000000000000000000000000000000000000000 PUSH1 0x0 DUP3 ADD MSTORE POP JUMP JUMPDEST PUSH32 0x45524332303A20696E73756666696369656E7420616C6C6F77616E6365000000 PUSH1 0x0 DUP3 ADD MSTORE POP JUMP JUMPDEST PUSH32 0x45524332303A207472616E7366657220616D6F756E7420657863656564732062 PUSH1 0x0 DUP3 ADD MSTORE PUSH32 0x616C616E63650000000000000000000000000000000000000000000000000000 PUSH1 0x20 DUP3 ADD MSTORE POP JUMP JUMPDEST PUSH32 0x496E697469616C697A61626C653A20636F6E747261637420697320616C726561 PUSH1 0x0 DUP3 ADD MSTORE PUSH32 0x647920696E697469616C697A6564000000000000000000000000000000000000 PUSH1 0x20 DUP3 ADD MSTORE POP JUMP JUMPDEST PUSH32 0x4F776E61626C653A2063616C6C6572206973206E6F7420746865206F776E6572 PUSH1 0x0 DUP3 ADD MSTORE POP JUMP JUMPDEST PUSH32 0x45524332303A207472616E736665722066726F6D20746865207A65726F206164 PUSH1 0x0 DUP3 ADD MSTORE PUSH32 0x6472657373000000000000000000000000000000000000000000000000000000 PUSH1 0x20 DUP3 ADD MSTORE POP JUMP JUMPDEST PUSH32 0x45524332303A20617070726F76652066726F6D20746865207A65726F20616464 PUSH1 0x0 DUP3 ADD MSTORE PUSH32 0x7265737300000000000000000000000000000000000000000000000000000000 PUSH1 0x20 DUP3 ADD MSTORE POP JUMP JUMPDEST PUSH32 0x496E697469616C697A61626C653A20636F6E7472616374206973206E6F742069 PUSH1 0x0 DUP3 ADD MSTORE PUSH32 0x6E697469616C697A696E67000000000000000000000000000000000000000000 PUSH1 0x20 DUP3 ADD MSTORE POP JUMP JUMPDEST PUSH32 0x4F6E6C792077686974656C697374000000000000000000000000000000000000 PUSH1 0x0 DUP3 ADD MSTORE POP JUMP JUMPDEST PUSH32 0x45524332303A2064656372656173656420616C6C6F77616E63652062656C6F77 PUSH1 0x0 DUP3 ADD MSTORE PUSH32 0x207A65726F000000000000000000000000000000000000000000000000000000 PUSH1 0x20 DUP3 ADD MSTORE POP JUMP JUMPDEST PUSH32 0x45524332303A206D696E7420746F20746865207A65726F206164647265737300 PUSH1 0x0 DUP3 ADD MSTORE POP JUMP JUMPDEST PUSH2 0x26A0 DUP2 PUSH2 0x2130 JUMP JUMPDEST DUP2 EQ PUSH2 0x26AB JUMPI PUSH1 0x0 DUP1 REVERT JUMPDEST POP JUMP JUMPDEST PUSH2 0x26B7 DUP2 PUSH2 0x216E JUMP JUMPDEST DUP2 EQ PUSH2 0x26C2 JUMPI PUSH1 0x0 DUP1 REVERT JUMPDEST POP JUMP INVALID LOG2 PUSH5 0x6970667358 0x22 SLT KECCAK256 0xB1 SWAP6 0xFC DUP16 GASPRICE 0x25 0xE8 CALLDATALOAD SWAP9 PUSH29 0x26572B93DD7956E10E9BDB8B8E3D6784D4721423ED5764736F6C634300 ADDMOD DIV STOP CALLER "
				},
				"gasEstimates": {
					"creation": {
						"codeDepositCost": "1995800",
						"executionCost": "2113",
						"totalCost": "1997913"
					},
					"external": {
						"allowance(address,address)": "infinite",
						"approve(address,uint256)": "infinite",
						"balanceOf(address)": "1564",
						"claimDairy(uint256)": "infinite",
						"decimals()": "366",
						"decreaseAllowance(address,uint256)": "infinite",
						"getLastClaimed(uint256)": "infinite",
						"increaseAllowance(address,uint256)": "infinite",
						"initialize(string,string,address)": "infinite",
						"mint(address,uint256)": "infinite",
						"name()": "infinite",
						"owner()": "1311",
						"paused()": "1290",
						"renounceOwnership()": "24419",
						"setWhitelist(address)": "22419",
						"symbol()": "infinite",
						"totalSupply()": "1227",
						"transfer(address,uint256)": "infinite",
						"transferFrom(address,address,uint256)": "infinite",
						"transferOwnership(address)": "24833"
					}
				},
				"methodIdentifiers": {
					"allowance(address,address)": "dd62ed3e",
					"approve(address,uint256)": "095ea7b3",
					"balanceOf(address)": "70a08231",
					"claimDairy(uint256)": "59176c8d",
					"decimals()": "313ce567",
					"decreaseAllowance(address,uint256)": "a457c2d7",
					"getLastClaimed(uint256)": "d1a20509",
					"increaseAllowance(address,uint256)": "39509351",
					"initialize(string,string,address)": "077f224a",
					"mint(address,uint256)": "40c10f19",
					"name()": "06fdde03",
					"owner()": "8da5cb5b",
					"paused()": "5c975abb",
					"renounceOwnership()": "715018a6",
					"setWhitelist(address)": "854cff2f",
					"symbol()": "95d89b41",
					"totalSupply()": "18160ddd",
					"transfer(address,uint256)": "a9059cbb",
					"transferFrom(address,address,uint256)": "23b872dd",
					"transferOwnership(address)": "f2fde38b"
				}
			},
			"storageLayout": {
				"storage": [
					{
						"astId": 130,
						"contract": "contracts/tokens/Moola.sol:Moola",
						"label": "_initialized",
						"offset": 0,
						"slot": "0",
						"type": "t_uint8"
					},
					{
						"astId": 133,
						"contract": "contracts/tokens/Moola.sol:Moola",
						"label": "_initializing",
						"offset": 1,
						"slot": "0",
						"type": "t_bool"
					},
					{
						"astId": 1580,
						"contract": "contracts/tokens/Moola.sol:Moola",
						"label": "__gap",
						"offset": 0,
						"slot": "1",
						"type": "t_array(t_uint256)50_storage"
					},
					{
						"astId": 454,
						"contract": "contracts/tokens/Moola.sol:Moola",
						"label": "_balances",
						"offset": 0,
						"slot": "51",
						"type": "t_mapping(t_address,t_uint256)"
					},
					{
						"astId": 460,
						"contract": "contracts/tokens/Moola.sol:Moola",
						"label": "_allowances",
						"offset": 0,
						"slot": "52",
						"type": "t_mapping(t_address,t_mapping(t_address,t_uint256))"
					},
					{
						"astId": 462,
						"contract": "contracts/tokens/Moola.sol:Moola",
						"label": "_totalSupply",
						"offset": 0,
						"slot": "53",
						"type": "t_uint256"
					},
					{
						"astId": 464,
						"contract": "contracts/tokens/Moola.sol:Moola",
						"label": "_name",
						"offset": 0,
						"slot": "54",
						"type": "t_string_storage"
					},
					{
						"astId": 466,
						"contract": "contracts/tokens/Moola.sol:Moola",
						"label": "_symbol",
						"offset": 0,
						"slot": "55",
						"type": "t_string_storage"
					},
					{
						"astId": 1045,
						"contract": "contracts/tokens/Moola.sol:Moola",
						"label": "__gap",
						"offset": 0,
						"slot": "56",
						"type": "t_array(t_uint256)45_storage"
					},
					{
						"astId": 10,
						"contract": "contracts/tokens/Moola.sol:Moola",
						"label": "_owner",
						"offset": 0,
						"slot": "101",
						"type": "t_address"
					},
					{
						"astId": 122,
						"contract": "contracts/tokens/Moola.sol:Moola",
						"label": "__gap",
						"offset": 0,
						"slot": "102",
						"type": "t_array(t_uint256)49_storage"
					},
					{
						"astId": 286,
						"contract": "contracts/tokens/Moola.sol:Moola",
						"label": "_paused",
						"offset": 0,
						"slot": "151",
						"type": "t_bool"
					},
					{
						"astId": 375,
						"contract": "contracts/tokens/Moola.sol:Moola",
						"label": "__gap",
						"offset": 0,
						"slot": "152",
						"type": "t_array(t_uint256)49_storage"
					},
					{
						"astId": 1651,
						"contract": "contracts/tokens/Moola.sol:Moola",
						"label": "dailyAllowance",
						"offset": 0,
						"slot": "201",
						"type": "t_uint256"
					},
					{
						"astId": 1654,
						"contract": "contracts/tokens/Moola.sol:Moola",
						"label": "moolaNFT",
						"offset": 0,
						"slot": "202",
						"type": "t_contract(IERC721EnumerableUpgradeable)1296"
					},
					{
						"astId": 1658,
						"contract": "contracts/tokens/Moola.sol:Moola",
						"label": "whitelist",
						"offset": 0,
						"slot": "203",
						"type": "t_mapping(t_address,t_bool)"
					},
					{
						"astId": 1662,
						"contract": "contracts/tokens/Moola.sol:Moola",
						"label": "nftLastClaimed",
						"offset": 0,
						"slot": "204",
						"type": "t_mapping(t_uint256,t_uint256)"
					}
				],
				"types": {
					"t_address": {
						"encoding": "inplace",
						"label": "address",
						"numberOfBytes": "20"
					},
					"t_array(t_uint256)45_storage": {
						"base": "t_uint256",
						"encoding": "inplace",
						"label": "uint256[45]",
						"numberOfBytes": "1440"
					},
					"t_array(t_uint256)49_storage": {
						"base": "t_uint256",
						"encoding": "inplace",
						"label": "uint256[49]",
						"numberOfBytes": "1568"
					},
					"t_array(t_uint256)50_storage": {
						"base": "t_uint256",
						"encoding": "inplace",
						"label": "uint256[50]",
						"numberOfBytes": "1600"
					},
					"t_bool": {
						"encoding": "inplace",
						"label": "bool",
						"numberOfBytes": "1"
					},
					"t_contract(IERC721EnumerableUpgradeable)1296": {
						"encoding": "inplace",
						"label": "contract IERC721EnumerableUpgradeable",
						"numberOfBytes": "20"
					},
					"t_mapping(t_address,t_bool)": {
						"encoding": "mapping",
						"key": "t_address",
						"label": "mapping(address => bool)",
						"numberOfBytes": "32",
						"value": "t_bool"
					},
					"t_mapping(t_address,t_mapping(t_address,t_uint256))": {
						"encoding": "mapping",
						"key": "t_address",
						"label": "mapping(address => mapping(address => uint256))",
						"numberOfBytes": "32",
						"value": "t_mapping(t_address,t_uint256)"
					},
					"t_mapping(t_address,t_uint256)": {
						"encoding": "mapping",
						"key": "t_address",
						"label": "mapping(address => uint256)",
						"numberOfBytes": "32",
						"value": "t_uint256"
					},
					"t_mapping(t_uint256,t_uint256)": {
						"encoding": "mapping",
						"key": "t_uint256",
						"label": "mapping(uint256 => uint256)",
						"numberOfBytes": "32",
						"value": "t_uint256"
					},
					"t_string_storage": {
						"encoding": "bytes",
						"label": "string",
						"numberOfBytes": "32"
					},
					"t_uint256": {
						"encoding": "inplace",
						"label": "uint256",
						"numberOfBytes": "32"
					},
					"t_uint8": {
						"encoding": "inplace",
						"label": "uint8",
						"numberOfBytes": "1"
					}
				}
			},
			"userdoc": {
				"kind": "user",
				"methods": {
					"decimals()": {
						"notice": ":"
					},
					"mint(address,uint256)": {
						"notice": ":"
					}
				},
				"version": 1
			}
		}
	}
}