{
	"contracts/tokens/Moola.sol": {
		"Moola": {
			"abi": [
				{
					"anonymous": false,
					"inputs": [
						{
							"indexed": true,
							"internalType": "address",
							"name": "owner",
							"type": "address"
						},
						{
							"indexed": true,
							"internalType": "address",
							"name": "spender",
							"type": "address"
						},
						{
							"indexed": false,
							"internalType": "uint256",
							"name": "value",
							"type": "uint256"
						}
					],
					"name": "Approval",
					"type": "event"
				},
				{
					"anonymous": false,
					"inputs": [
						{
							"indexed": false,
							"internalType": "uint8",
							"name": "version",
							"type": "uint8"
						}
					],
					"name": "Initialized",
					"type": "event"
				},
				{
					"anonymous": false,
					"inputs": [
						{
							"indexed": true,
							"internalType": "address",
							"name": "previousOwner",
							"type": "address"
						},
						{
							"indexed": true,
							"internalType": "address",
							"name": "newOwner",
							"type": "address"
						}
					],
					"name": "OwnershipTransferred",
					"type": "event"
				},
				{
					"anonymous": false,
					"inputs": [
						{
							"indexed": false,
							"internalType": "address",
							"name": "account",
							"type": "address"
						}
					],
					"name": "Paused",
					"type": "event"
				},
				{
					"anonymous": false,
					"inputs": [
						{
							"indexed": true,
							"internalType": "address",
							"name": "from",
							"type": "address"
						},
						{
							"indexed": true,
							"internalType": "address",
							"name": "to",
							"type": "address"
						},
						{
							"indexed": false,
							"internalType": "uint256",
							"name": "value",
							"type": "uint256"
						}
					],
					"name": "Transfer",
					"type": "event"
				},
				{
					"anonymous": false,
					"inputs": [
						{
							"indexed": false,
							"internalType": "address",
							"name": "account",
							"type": "address"
						}
					],
					"name": "Unpaused",
					"type": "event"
				},
				{
					"anonymous": false,
					"inputs": [
						{
							"indexed": false,
							"internalType": "address",
							"name": "receiver",
							"type": "address"
						},
						{
							"indexed": false,
							"internalType": "uint256",
							"name": "amount",
							"type": "uint256"
						},
						{
							"indexed": false,
							"internalType": "uint256",
							"name": "time",
							"type": "uint256"
						}
					],
					"name": "dailyDairyClaimed",
					"type": "event"
				},
				{
					"inputs": [
						{
							"internalType": "address",
							"name": "owner",
							"type": "address"
						},
						{
							"internalType": "address",
							"name": "spender",
							"type": "address"
						}
					],
					"name": "allowance",
					"outputs": [
						{
							"internalType": "uint256",
							"name": "",
							"type": "uint256"
						}
					],
					"stateMutability": "view",
					"type": "function"
				},
				{
					"inputs": [
						{
							"internalType": "address",
							"name": "spender",
							"type": "address"
						},
						{
							"internalType": "uint256",
							"name": "amount",
							"type": "uint256"
						}
					],
					"name": "approve",
					"outputs": [
						{
							"internalType": "bool",
							"name": "",
							"type": "bool"
						}
					],
					"stateMutability": "nonpayable",
					"type": "function"
				},
				{
					"inputs": [
						{
							"internalType": "address",
							"name": "account",
							"type": "address"
						}
					],
					"name": "balanceOf",
					"outputs": [
						{
							"internalType": "uint256",
							"name": "",
							"type": "uint256"
						}
					],
					"stateMutability": "view",
					"type": "function"
				},
				{
					"inputs": [
						{
							"internalType": "uint256",
							"name": "_tokenId",
							"type": "uint256"
						}
					],
					"name": "claimDairy",
					"outputs": [],
					"stateMutability": "nonpayable",
					"type": "function"
				},
				{
					"inputs": [],
					"name": "decimals",
					"outputs": [
						{
							"internalType": "uint8",
							"name": "",
							"type": "uint8"
						}
					],
					"stateMutability": "view",
					"type": "function"
				},
				{
					"inputs": [
						{
							"internalType": "address",
							"name": "spender",
							"type": "address"
						},
						{
							"internalType": "uint256",
							"name": "subtractedValue",
							"type": "uint256"
						}
					],
					"name": "decreaseAllowance",
					"outputs": [
						{
							"internalType": "bool",
							"name": "",
							"type": "bool"
						}
					],
					"stateMutability": "nonpayable",
					"type": "function"
				},
				{
					"inputs": [
						{
							"internalType": "uint256",
							"name": "_tokenId",
							"type": "uint256"
						}
					],
					"name": "getLastClaimed",
					"outputs": [
						{
							"internalType": "uint256",
							"name": "",
							"type": "uint256"
						}
					],
					"stateMutability": "view",
					"type": "function"
				},
				{
					"inputs": [
						{
							"internalType": "address",
							"name": "spender",
							"type": "address"
						},
						{
							"internalType": "uint256",
							"name": "addedValue",
							"type": "uint256"
						}
					],
					"name": "increaseAllowance",
					"outputs": [
						{
							"internalType": "bool",
							"name": "",
							"type": "bool"
						}
					],
					"stateMutability": "nonpayable",
					"type": "function"
				},
				{
					"inputs": [
						{
							"internalType": "string",
							"name": "name_",
							"type": "string"
						},
						{
							"internalType": "string",
							"name": "symbol_",
							"type": "string"
						}
					],
					"name": "initialize",
					"outputs": [],
					"stateMutability": "nonpayable",
					"type": "function"
				},
				{
					"inputs": [
						{
							"internalType": "address",
							"name": "to",
							"type": "address"
						},
						{
							"internalType": "uint256",
							"name": "amount",
							"type": "uint256"
						}
					],
					"name": "mint",
					"outputs": [],
					"stateMutability": "nonpayable",
					"type": "function"
				},
				{
					"inputs": [],
					"name": "name",
					"outputs": [
						{
							"internalType": "string",
							"name": "",
							"type": "string"
						}
					],
					"stateMutability": "view",
					"type": "function"
				},
				{
					"inputs": [],
					"name": "owner",
					"outputs": [
						{
							"internalType": "address",
							"name": "",
							"type": "address"
						}
					],
					"stateMutability": "view",
					"type": "function"
				},
				{
					"inputs": [],
					"name": "paused",
					"outputs": [
						{
							"internalType": "bool",
							"name": "",
							"type": "bool"
						}
					],
					"stateMutability": "view",
					"type": "function"
				},
				{
					"inputs": [],
					"name": "renounceOwnership",
					"outputs": [],
					"stateMutability": "nonpayable",
					"type": "function"
				},
				{
					"inputs": [
						{
							"internalType": "uint256",
							"name": "_cooldown",
							"type": "uint256"
						}
					],
					"name": "setCooldown",
					"outputs": [],
					"stateMutability": "nonpayable",
					"type": "function"
				},
				{
					"inputs": [
						{
							"internalType": "address",
							"name": "_moola",
							"type": "address"
						}
					],
					"name": "setMoolaNFTAddress",
					"outputs": [],
					"stateMutability": "nonpayable",
					"type": "function"
				},
				{
					"inputs": [
						{
							"internalType": "address",
							"name": "_whitelist",
							"type": "address"
						}
					],
					"name": "setWhitelist",
					"outputs": [],
					"stateMutability": "nonpayable",
					"type": "function"
				},
				{
					"inputs": [],
					"name": "symbol",
					"outputs": [
						{
							"internalType": "string",
							"name": "",
							"type": "string"
						}
					],
					"stateMutability": "view",
					"type": "function"
				},
				{
					"inputs": [],
					"name": "totalSupply",
					"outputs": [
						{
							"internalType": "uint256",
							"name": "",
							"type": "uint256"
						}
					],
					"stateMutability": "view",
					"type": "function"
				},
				{
					"inputs": [
						{
							"internalType": "address",
							"name": "to",
							"type": "address"
						},
						{
							"internalType": "uint256",
							"name": "amount",
							"type": "uint256"
						}
					],
					"name": "transfer",
					"outputs": [
						{
							"internalType": "bool",
							"name": "",
							"type": "bool"
						}
					],
					"stateMutability": "nonpayable",
					"type": "function"
				},
				{
					"inputs": [
						{
							"internalType": "address",
							"name": "from",
							"type": "address"
						},
						{
							"internalType": "address",
							"name": "to",
							"type": "address"
						},
						{
							"internalType": "uint256",
							"name": "amount",
							"type": "uint256"
						}
					],
					"name": "transferFrom",
					"outputs": [
						{
							"internalType": "bool",
							"name": "",
							"type": "bool"
						}
					],
					"stateMutability": "nonpayable",
					"type": "function"
				},
				{
					"inputs": [
						{
							"internalType": "address",
							"name": "newOwner",
							"type": "address"
						}
					],
					"name": "transferOwnership",
					"outputs": [],
					"stateMutability": "nonpayable",
					"type": "function"
				}
			],
			"devdoc": {
				"kind": "dev",
				"methods": {
					"allowance(address,address)": {
						"details": "See {IERC20-allowance}."
					},
					"approve(address,uint256)": {
						"details": "See {IERC20-approve}. NOTE: If `amount` is the maximum `uint256`, the allowance is not updated on `transferFrom`. This is semantically equivalent to an infinite approval. Requirements: - `spender` cannot be the zero address."
					},
					"balanceOf(address)": {
						"details": "See {IERC20-balanceOf}."
					},
					"decreaseAllowance(address,uint256)": {
						"details": "Atomically decreases the allowance granted to `spender` by the caller. This is an alternative to {approve} that can be used as a mitigation for problems described in {IERC20-approve}. Emits an {Approval} event indicating the updated allowance. Requirements: - `spender` cannot be the zero address. - `spender` must have allowance for the caller of at least `subtractedValue`."
					},
					"increaseAllowance(address,uint256)": {
						"details": "Atomically increases the allowance granted to `spender` by the caller. This is an alternative to {approve} that can be used as a mitigation for problems described in {IERC20-approve}. Emits an {Approval} event indicating the updated allowance. Requirements: - `spender` cannot be the zero address."
					},
					"mint(address,uint256)": {
						"params": {
							"amount": "??",
							"to": "??"
						}
					},
					"name()": {
						"details": "Returns the name of the token."
					},
					"owner()": {
						"details": "Returns the address of the current owner."
					},
					"paused()": {
						"details": "Returns true if the contract is paused, and false otherwise."
					},
					"renounceOwnership()": {
						"details": "Leaves the contract without owner. It will not be possible to call `onlyOwner` functions anymore. Can only be called by the current owner. NOTE: Renouncing ownership will leave the contract without an owner, thereby removing any functionality that is only available to the owner."
					},
					"symbol()": {
						"details": "Returns the symbol of the token, usually a shorter version of the name."
					},
					"totalSupply()": {
						"details": "See {IERC20-totalSupply}."
					},
					"transfer(address,uint256)": {
						"details": "See {IERC20-transfer}. Requirements: - `to` cannot be the zero address. - the caller must have a balance of at least `amount`."
					},
					"transferFrom(address,address,uint256)": {
						"details": "See {IERC20-transferFrom}. Emits an {Approval} event indicating the updated allowance. This is not required by the EIP. See the note at the beginning of {ERC20}. NOTE: Does not update the allowance if the current allowance is the maximum `uint256`. Requirements: - `from` and `to` cannot be the zero address. - `from` must have a balance of at least `amount`. - the caller must have allowance for ``from``'s tokens of at least `amount`."
					},
					"transferOwnership(address)": {
						"details": "Transfers ownership of the contract to a new account (`newOwner`). Can only be called by the current owner."
					}
				},
				"version": 1
			},
			"evm": {
				"assembly": "    /* \"contracts/tokens/Moola.sol\":562:2550  contract Moola is ERC20Upgradeable, OwnableUpgradeable, PausableUpgradeable {\r... */\n  mstore(0x40, 0x80)\n  callvalue\n  dup1\n  iszero\n  tag_1\n  jumpi\n  0x00\n  dup1\n  revert\ntag_1:\n  pop\n  dataSize(sub_0)\n  dup1\n  dataOffset(sub_0)\n  0x00\n  codecopy\n  0x00\n  return\nstop\n\nsub_0: assembly {\n        /* \"contracts/tokens/Moola.sol\":562:2550  contract Moola is ERC20Upgradeable, OwnableUpgradeable, PausableUpgradeable {\r... */\n      mstore(0x40, 0x80)\n      callvalue\n      dup1\n      iszero\n      tag_1\n      jumpi\n      0x00\n      dup1\n      revert\n    tag_1:\n      pop\n      jumpi(tag_2, lt(calldatasize, 0x04))\n      shr(0xe0, calldataload(0x00))\n      dup1\n      0x70a08231\n      gt\n      tag_25\n      jumpi\n      dup1\n      0xa457c2d7\n      gt\n      tag_26\n      jumpi\n      dup1\n      0xa457c2d7\n      eq\n      tag_19\n      jumpi\n      dup1\n      0xa9059cbb\n      eq\n      tag_20\n      jumpi\n      dup1\n      0xbe023d84\n      eq\n      tag_21\n      jumpi\n      dup1\n      0xd1a20509\n      eq\n      tag_22\n      jumpi\n      dup1\n      0xdd62ed3e\n      eq\n      tag_23\n      jumpi\n      dup1\n      0xf2fde38b\n      eq\n      tag_24\n      jumpi\n      jump(tag_2)\n    tag_26:\n      dup1\n      0x70a08231\n      eq\n      tag_14\n      jumpi\n      dup1\n      0x715018a6\n      eq\n      tag_15\n      jumpi\n      dup1\n      0x854cff2f\n      eq\n      tag_16\n      jumpi\n      dup1\n      0x8da5cb5b\n      eq\n      tag_17\n      jumpi\n      dup1\n      0x95d89b41\n      eq\n      tag_18\n      jumpi\n      jump(tag_2)\n    tag_25:\n      dup1\n      0x39509351\n      gt\n      tag_27\n      jumpi\n      dup1\n      0x39509351\n      eq\n      tag_8\n      jumpi\n      dup1\n      0x40c10f19\n      eq\n      tag_9\n      jumpi\n      dup1\n      0x4cd88b76\n      eq\n      tag_10\n      jumpi\n      dup1\n      0x4fc3f41a\n      eq\n      tag_11\n      jumpi\n      dup1\n      0x59176c8d\n      eq\n      tag_12\n      jumpi\n      dup1\n      0x5c975abb\n      eq\n      tag_13\n      jumpi\n      jump(tag_2)\n    tag_27:\n      dup1\n      0x06fdde03\n      eq\n      tag_3\n      jumpi\n      dup1\n      0x095ea7b3\n      eq\n      tag_4\n      jumpi\n      dup1\n      0x18160ddd\n      eq\n      tag_5\n      jumpi\n      dup1\n      0x23b872dd\n      eq\n      tag_6\n      jumpi\n      dup1\n      0x313ce567\n      eq\n      tag_7\n      jumpi\n    tag_2:\n      0x00\n      dup1\n      revert\n        /* \"@openzeppelin/contracts-upgradeable/token/ERC20/ERC20Upgradeable.sol\":2493:2591  function name() public view virtual override returns (string memory) {... */\n    tag_3:\n      tag_28\n      tag_29\n      jump\t// in\n    tag_28:\n      mload(0x40)\n      tag_30\n      swap2\n      swap1\n      tag_31\n      jump\t// in\n    tag_30:\n      mload(0x40)\n      dup1\n      swap2\n      sub\n      swap1\n      return\n        /* \"@openzeppelin/contracts-upgradeable/token/ERC20/ERC20Upgradeable.sol\":4770:4967  function approve(address spender, uint256 amount) public virtual override returns (bool) {... */\n    tag_4:\n      tag_32\n      0x04\n      dup1\n      calldatasize\n      sub\n      dup2\n      add\n      swap1\n      tag_33\n      swap2\n      swap1\n      tag_34\n      jump\t// in\n    tag_33:\n      tag_35\n      jump\t// in\n    tag_32:\n      mload(0x40)\n      tag_36\n      swap2\n      swap1\n      tag_37\n      jump\t// in\n    tag_36:\n      mload(0x40)\n      dup1\n      swap2\n      sub\n      swap1\n      return\n        /* \"@openzeppelin/contracts-upgradeable/token/ERC20/ERC20Upgradeable.sol\":3581:3687  function totalSupply() public view virtual override returns (uint256) {... */\n    tag_5:\n      tag_38\n      tag_39\n      jump\t// in\n    tag_38:\n      mload(0x40)\n      tag_40\n      swap2\n      swap1\n      tag_41\n      jump\t// in\n    tag_40:\n      mload(0x40)\n      dup1\n      swap2\n      sub\n      swap1\n      return\n        /* \"@openzeppelin/contracts-upgradeable/token/ERC20/ERC20Upgradeable.sol\":5529:5815  function transferFrom(... */\n    tag_6:\n      tag_42\n      0x04\n      dup1\n      calldatasize\n      sub\n      dup2\n      add\n      swap1\n      tag_43\n      swap2\n      swap1\n      tag_44\n      jump\t// in\n    tag_43:\n      tag_45\n      jump\t// in\n    tag_42:\n      mload(0x40)\n      tag_46\n      swap2\n      swap1\n      tag_37\n      jump\t// in\n    tag_46:\n      mload(0x40)\n      dup1\n      swap2\n      sub\n      swap1\n      return\n        /* \"contracts/tokens/Moola.sol\":1709:1796  function decimals() public view virtual override returns (uint8) {\r... */\n    tag_7:\n      tag_47\n      tag_48\n      jump\t// in\n    tag_47:\n      mload(0x40)\n      tag_49\n      swap2\n      swap1\n      tag_50\n      jump\t// in\n    tag_49:\n      mload(0x40)\n      dup1\n      swap2\n      sub\n      swap1\n      return\n        /* \"@openzeppelin/contracts-upgradeable/token/ERC20/ERC20Upgradeable.sol\":6210:6444  function increaseAllowance(address spender, uint256 addedValue) public virtual returns (bool) {... */\n    tag_8:\n      tag_51\n      0x04\n      dup1\n      calldatasize\n      sub\n      dup2\n      add\n      swap1\n      tag_52\n      swap2\n      swap1\n      tag_34\n      jump\t// in\n    tag_52:\n      tag_53\n      jump\t// in\n    tag_51:\n      mload(0x40)\n      tag_54\n      swap2\n      swap1\n      tag_37\n      jump\t// in\n    tag_54:\n      mload(0x40)\n      dup1\n      swap2\n      sub\n      swap1\n      return\n        /* \"contracts/tokens/Moola.sol\":1926:2021  function mint(address to, uint256 amount) external onlyWhitelist {\r... */\n    tag_9:\n      tag_55\n      0x04\n      dup1\n      calldatasize\n      sub\n      dup2\n      add\n      swap1\n      tag_56\n      swap2\n      swap1\n      tag_34\n      jump\t// in\n    tag_56:\n      tag_57\n      jump\t// in\n    tag_55:\n      stop\n        /* \"contracts/tokens/Moola.sol\":1050:1309  function initialize(string memory name_, string memory symbol_)\r... */\n    tag_10:\n      tag_58\n      0x04\n      dup1\n      calldatasize\n      sub\n      dup2\n      add\n      swap1\n      tag_59\n      swap2\n      swap1\n      tag_60\n      jump\t// in\n    tag_59:\n      tag_61\n      jump\t// in\n    tag_58:\n      stop\n        /* \"contracts/tokens/Moola.sol\":1423:1515  function setCooldown(uint256 _cooldown) external onlyOwner {\r... */\n    tag_11:\n      tag_62\n      0x04\n      dup1\n      calldatasize\n      sub\n      dup2\n      add\n      swap1\n      tag_63\n      swap2\n      swap1\n      tag_64\n      jump\t// in\n    tag_63:\n      tag_65\n      jump\t// in\n    tag_62:\n      stop\n        /* \"contracts/tokens/Moola.sol\":2027:2423  function claimDairy(uint256 _tokenId) external {\r... */\n    tag_12:\n      tag_66\n      0x04\n      dup1\n      calldatasize\n      sub\n      dup2\n      add\n      swap1\n      tag_67\n      swap2\n      swap1\n      tag_64\n      jump\t// in\n    tag_67:\n      tag_68\n      jump\t// in\n    tag_66:\n      stop\n        /* \"@openzeppelin/contracts-upgradeable/security/PausableUpgradeable.sol\":1341:1425  function paused() public view virtual returns (bool) {... */\n    tag_13:\n      tag_69\n      tag_70\n      jump\t// in\n    tag_69:\n      mload(0x40)\n      tag_71\n      swap2\n      swap1\n      tag_37\n      jump\t// in\n    tag_71:\n      mload(0x40)\n      dup1\n      swap2\n      sub\n      swap1\n      return\n        /* \"@openzeppelin/contracts-upgradeable/token/ERC20/ERC20Upgradeable.sol\":3745:3870  function balanceOf(address account) public view virtual override returns (uint256) {... */\n    tag_14:\n      tag_72\n      0x04\n      dup1\n      calldatasize\n      sub\n      dup2\n      add\n      swap1\n      tag_73\n      swap2\n      swap1\n      tag_74\n      jump\t// in\n    tag_73:\n      tag_75\n      jump\t// in\n    tag_72:\n      mload(0x40)\n      tag_76\n      swap2\n      swap1\n      tag_41\n      jump\t// in\n    tag_76:\n      mload(0x40)\n      dup1\n      swap2\n      sub\n      swap1\n      return\n        /* \"@openzeppelin/contracts-upgradeable/access/OwnableUpgradeable.sol\":1908:2009  function renounceOwnership() public virtual onlyOwner {... */\n    tag_15:\n      tag_77\n      tag_78\n      jump\t// in\n    tag_77:\n      stop\n        /* \"contracts/tokens/Moola.sol\":1315:1417  function setWhitelist(address _whitelist) external onlyOwner {\r... */\n    tag_16:\n      tag_79\n      0x04\n      dup1\n      calldatasize\n      sub\n      dup2\n      add\n      swap1\n      tag_80\n      swap2\n      swap1\n      tag_74\n      jump\t// in\n    tag_80:\n      tag_81\n      jump\t// in\n    tag_79:\n      stop\n        /* \"@openzeppelin/contracts-upgradeable/access/OwnableUpgradeable.sol\":1276:1361  function owner() public view virtual returns (address) {... */\n    tag_17:\n      tag_82\n      tag_83\n      jump\t// in\n    tag_82:\n      mload(0x40)\n      tag_84\n      swap2\n      swap1\n      tag_85\n      jump\t// in\n    tag_84:\n      mload(0x40)\n      dup1\n      swap2\n      sub\n      swap1\n      return\n        /* \"@openzeppelin/contracts-upgradeable/token/ERC20/ERC20Upgradeable.sol\":2704:2806  function symbol() public view virtual override returns (string memory) {... */\n    tag_18:\n      tag_86\n      tag_87\n      jump\t// in\n    tag_86:\n      mload(0x40)\n      tag_88\n      swap2\n      swap1\n      tag_31\n      jump\t// in\n    tag_88:\n      mload(0x40)\n      dup1\n      swap2\n      sub\n      swap1\n      return\n        /* \"@openzeppelin/contracts-upgradeable/token/ERC20/ERC20Upgradeable.sol\":6931:7358  function decreaseAllowance(address spender, uint256 subtractedValue) public virtual returns (bool) {... */\n    tag_19:\n      tag_89\n      0x04\n      dup1\n      calldatasize\n      sub\n      dup2\n      add\n      swap1\n      tag_90\n      swap2\n      swap1\n      tag_34\n      jump\t// in\n    tag_90:\n      tag_91\n      jump\t// in\n    tag_89:\n      mload(0x40)\n      tag_92\n      swap2\n      swap1\n      tag_37\n      jump\t// in\n    tag_92:\n      mload(0x40)\n      dup1\n      swap2\n      sub\n      swap1\n      return\n        /* \"@openzeppelin/contracts-upgradeable/token/ERC20/ERC20Upgradeable.sol\":4066:4255  function transfer(address to, uint256 amount) public virtual override returns (bool) {... */\n    tag_20:\n      tag_93\n      0x04\n      dup1\n      calldatasize\n      sub\n      dup2\n      add\n      swap1\n      tag_94\n      swap2\n      swap1\n      tag_34\n      jump\t// in\n    tag_94:\n      tag_95\n      jump\t// in\n    tag_93:\n      mload(0x40)\n      tag_96\n      swap2\n      swap1\n      tag_37\n      jump\t// in\n    tag_96:\n      mload(0x40)\n      dup1\n      swap2\n      sub\n      swap1\n      return\n        /* \"contracts/tokens/Moola.sol\":1521:1644  function setMoolaNFTAddress(address _moola) external onlyOwner {\r... */\n    tag_21:\n      tag_97\n      0x04\n      dup1\n      calldatasize\n      sub\n      dup2\n      add\n      swap1\n      tag_98\n      swap2\n      swap1\n      tag_74\n      jump\t// in\n    tag_98:\n      tag_99\n      jump\t// in\n    tag_97:\n      stop\n        /* \"contracts/tokens/Moola.sol\":2429:2547  function getLastClaimed(uint256 _tokenId) external view returns (uint256) {\r... */\n    tag_22:\n      tag_100\n      0x04\n      dup1\n      calldatasize\n      sub\n      dup2\n      add\n      swap1\n      tag_101\n      swap2\n      swap1\n      tag_64\n      jump\t// in\n    tag_101:\n      tag_102\n      jump\t// in\n    tag_100:\n      mload(0x40)\n      tag_103\n      swap2\n      swap1\n      tag_41\n      jump\t// in\n    tag_103:\n      mload(0x40)\n      dup1\n      swap2\n      sub\n      swap1\n      return\n        /* \"@openzeppelin/contracts-upgradeable/token/ERC20/ERC20Upgradeable.sol\":4313:4462  function allowance(address owner, address spender) public view virtual override returns (uint256) {... */\n    tag_23:\n      tag_104\n      0x04\n      dup1\n      calldatasize\n      sub\n      dup2\n      add\n      swap1\n      tag_105\n      swap2\n      swap1\n      tag_106\n      jump\t// in\n    tag_105:\n      tag_107\n      jump\t// in\n    tag_104:\n      mload(0x40)\n      tag_108\n      swap2\n      swap1\n      tag_41\n      jump\t// in\n    tag_108:\n      mload(0x40)\n      dup1\n      swap2\n      sub\n      swap1\n      return\n        /* \"@openzeppelin/contracts-upgradeable/access/OwnableUpgradeable.sol\":2158:2356  function transferOwnership(address newOwner) public virtual onlyOwner {... */\n    tag_24:\n      tag_109\n      0x04\n      dup1\n      calldatasize\n      sub\n      dup2\n      add\n      swap1\n      tag_110\n      swap2\n      swap1\n      tag_74\n      jump\t// in\n    tag_110:\n      tag_111\n      jump\t// in\n    tag_109:\n      stop\n        /* \"@openzeppelin/contracts-upgradeable/token/ERC20/ERC20Upgradeable.sol\":2493:2591  function name() public view virtual override returns (string memory) {... */\n    tag_29:\n        /* \"@openzeppelin/contracts-upgradeable/token/ERC20/ERC20Upgradeable.sol\":2547:2560  string memory */\n      0x60\n        /* \"@openzeppelin/contracts-upgradeable/token/ERC20/ERC20Upgradeable.sol\":2579:2584  _name */\n      0x36\n        /* \"@openzeppelin/contracts-upgradeable/token/ERC20/ERC20Upgradeable.sol\":2572:2584  return _name */\n      dup1\n      sload\n      tag_113\n      swap1\n      tag_114\n      jump\t// in\n    tag_113:\n      dup1\n      0x1f\n      add\n      0x20\n      dup1\n      swap2\n      div\n      mul\n      0x20\n      add\n      mload(0x40)\n      swap1\n      dup2\n      add\n      0x40\n      mstore\n      dup1\n      swap3\n      swap2\n      swap1\n      dup2\n      dup2\n      mstore\n      0x20\n      add\n      dup3\n      dup1\n      sload\n      tag_115\n      swap1\n      tag_114\n      jump\t// in\n    tag_115:\n      dup1\n      iszero\n      tag_116\n      jumpi\n      dup1\n      0x1f\n      lt\n      tag_117\n      jumpi\n      0x0100\n      dup1\n      dup4\n      sload\n      div\n      mul\n      dup4\n      mstore\n      swap2\n      0x20\n      add\n      swap2\n      jump(tag_116)\n    tag_117:\n      dup3\n      add\n      swap2\n      swap1\n      0x00\n      mstore\n      keccak256(0x00, 0x20)\n      swap1\n    tag_118:\n      dup2\n      sload\n      dup2\n      mstore\n      swap1\n      0x01\n      add\n      swap1\n      0x20\n      add\n      dup1\n      dup4\n      gt\n      tag_118\n      jumpi\n      dup3\n      swap1\n      sub\n      0x1f\n      and\n      dup3\n      add\n      swap2\n    tag_116:\n      pop\n      pop\n      pop\n      pop\n      pop\n      swap1\n      pop\n        /* \"@openzeppelin/contracts-upgradeable/token/ERC20/ERC20Upgradeable.sol\":2493:2591  function name() public view virtual override returns (string memory) {... */\n      swap1\n      jump\t// out\n        /* \"@openzeppelin/contracts-upgradeable/token/ERC20/ERC20Upgradeable.sol\":4770:4967  function approve(address spender, uint256 amount) public virtual override returns (bool) {... */\n    tag_35:\n        /* \"@openzeppelin/contracts-upgradeable/token/ERC20/ERC20Upgradeable.sol\":4853:4857  bool */\n      0x00\n        /* \"@openzeppelin/contracts-upgradeable/token/ERC20/ERC20Upgradeable.sol\":4869:4882  address owner */\n      dup1\n        /* \"@openzeppelin/contracts-upgradeable/token/ERC20/ERC20Upgradeable.sol\":4885:4897  _msgSender() */\n      tag_120\n        /* \"@openzeppelin/contracts-upgradeable/token/ERC20/ERC20Upgradeable.sol\":4885:4895  _msgSender */\n      tag_121\n        /* \"@openzeppelin/contracts-upgradeable/token/ERC20/ERC20Upgradeable.sol\":4885:4897  _msgSender() */\n      jump\t// in\n    tag_120:\n        /* \"@openzeppelin/contracts-upgradeable/token/ERC20/ERC20Upgradeable.sol\":4869:4897  address owner = _msgSender() */\n      swap1\n      pop\n        /* \"@openzeppelin/contracts-upgradeable/token/ERC20/ERC20Upgradeable.sol\":4907:4939  _approve(owner, spender, amount) */\n      tag_122\n        /* \"@openzeppelin/contracts-upgradeable/token/ERC20/ERC20Upgradeable.sol\":4916:4921  owner */\n      dup2\n        /* \"@openzeppelin/contracts-upgradeable/token/ERC20/ERC20Upgradeable.sol\":4923:4930  spender */\n      dup6\n        /* \"@openzeppelin/contracts-upgradeable/token/ERC20/ERC20Upgradeable.sol\":4932:4938  amount */\n      dup6\n        /* \"@openzeppelin/contracts-upgradeable/token/ERC20/ERC20Upgradeable.sol\":4907:4915  _approve */\n      tag_123\n        /* \"@openzeppelin/contracts-upgradeable/token/ERC20/ERC20Upgradeable.sol\":4907:4939  _approve(owner, spender, amount) */\n      jump\t// in\n    tag_122:\n        /* \"@openzeppelin/contracts-upgradeable/token/ERC20/ERC20Upgradeable.sol\":4956:4960  true */\n      0x01\n        /* \"@openzeppelin/contracts-upgradeable/token/ERC20/ERC20Upgradeable.sol\":4949:4960  return true */\n      swap2\n      pop\n      pop\n        /* \"@openzeppelin/contracts-upgradeable/token/ERC20/ERC20Upgradeable.sol\":4770:4967  function approve(address spender, uint256 amount) public virtual override returns (bool) {... */\n      swap3\n      swap2\n      pop\n      pop\n      jump\t// out\n        /* \"@openzeppelin/contracts-upgradeable/token/ERC20/ERC20Upgradeable.sol\":3581:3687  function totalSupply() public view virtual override returns (uint256) {... */\n    tag_39:\n        /* \"@openzeppelin/contracts-upgradeable/token/ERC20/ERC20Upgradeable.sol\":3642:3649  uint256 */\n      0x00\n        /* \"@openzeppelin/contracts-upgradeable/token/ERC20/ERC20Upgradeable.sol\":3668:3680  _totalSupply */\n      sload(0x35)\n        /* \"@openzeppelin/contracts-upgradeable/token/ERC20/ERC20Upgradeable.sol\":3661:3680  return _totalSupply */\n      swap1\n      pop\n        /* \"@openzeppelin/contracts-upgradeable/token/ERC20/ERC20Upgradeable.sol\":3581:3687  function totalSupply() public view virtual override returns (uint256) {... */\n      swap1\n      jump\t// out\n        /* \"@openzeppelin/contracts-upgradeable/token/ERC20/ERC20Upgradeable.sol\":5529:5815  function transferFrom(... */\n    tag_45:\n        /* \"@openzeppelin/contracts-upgradeable/token/ERC20/ERC20Upgradeable.sol\":5656:5660  bool */\n      0x00\n        /* \"@openzeppelin/contracts-upgradeable/token/ERC20/ERC20Upgradeable.sol\":5672:5687  address spender */\n      dup1\n        /* \"@openzeppelin/contracts-upgradeable/token/ERC20/ERC20Upgradeable.sol\":5690:5702  _msgSender() */\n      tag_126\n        /* \"@openzeppelin/contracts-upgradeable/token/ERC20/ERC20Upgradeable.sol\":5690:5700  _msgSender */\n      tag_121\n        /* \"@openzeppelin/contracts-upgradeable/token/ERC20/ERC20Upgradeable.sol\":5690:5702  _msgSender() */\n      jump\t// in\n    tag_126:\n        /* \"@openzeppelin/contracts-upgradeable/token/ERC20/ERC20Upgradeable.sol\":5672:5702  address spender = _msgSender() */\n      swap1\n      pop\n        /* \"@openzeppelin/contracts-upgradeable/token/ERC20/ERC20Upgradeable.sol\":5712:5750  _spendAllowance(from, spender, amount) */\n      tag_127\n        /* \"@openzeppelin/contracts-upgradeable/token/ERC20/ERC20Upgradeable.sol\":5728:5732  from */\n      dup6\n        /* \"@openzeppelin/contracts-upgradeable/token/ERC20/ERC20Upgradeable.sol\":5734:5741  spender */\n      dup3\n        /* \"@openzeppelin/contracts-upgradeable/token/ERC20/ERC20Upgradeable.sol\":5743:5749  amount */\n      dup6\n        /* \"@openzeppelin/contracts-upgradeable/token/ERC20/ERC20Upgradeable.sol\":5712:5727  _spendAllowance */\n      tag_128\n        /* \"@openzeppelin/contracts-upgradeable/token/ERC20/ERC20Upgradeable.sol\":5712:5750  _spendAllowance(from, spender, amount) */\n      jump\t// in\n    tag_127:\n        /* \"@openzeppelin/contracts-upgradeable/token/ERC20/ERC20Upgradeable.sol\":5760:5787  _transfer(from, to, amount) */\n      tag_129\n        /* \"@openzeppelin/contracts-upgradeable/token/ERC20/ERC20Upgradeable.sol\":5770:5774  from */\n      dup6\n        /* \"@openzeppelin/contracts-upgradeable/token/ERC20/ERC20Upgradeable.sol\":5776:5778  to */\n      dup6\n        /* \"@openzeppelin/contracts-upgradeable/token/ERC20/ERC20Upgradeable.sol\":5780:5786  amount */\n      dup6\n        /* \"@openzeppelin/contracts-upgradeable/token/ERC20/ERC20Upgradeable.sol\":5760:5769  _transfer */\n      tag_130\n        /* \"@openzeppelin/contracts-upgradeable/token/ERC20/ERC20Upgradeable.sol\":5760:5787  _transfer(from, to, amount) */\n      jump\t// in\n    tag_129:\n        /* \"@openzeppelin/contracts-upgradeable/token/ERC20/ERC20Upgradeable.sol\":5804:5808  true */\n      0x01\n        /* \"@openzeppelin/contracts-upgradeable/token/ERC20/ERC20Upgradeable.sol\":5797:5808  return true */\n      swap2\n      pop\n      pop\n        /* \"@openzeppelin/contracts-upgradeable/token/ERC20/ERC20Upgradeable.sol\":5529:5815  function transferFrom(... */\n      swap4\n      swap3\n      pop\n      pop\n      pop\n      jump\t// out\n        /* \"contracts/tokens/Moola.sol\":1709:1796  function decimals() public view virtual override returns (uint8) {\r... */\n    tag_48:\n        /* \"contracts/tokens/Moola.sol\":1767:1772  uint8 */\n      0x00\n        /* \"contracts/tokens/Moola.sol\":1788:1790  18 */\n      0x12\n        /* \"contracts/tokens/Moola.sol\":1781:1790  return 18 */\n      swap1\n      pop\n        /* \"contracts/tokens/Moola.sol\":1709:1796  function decimals() public view virtual override returns (uint8) {\r... */\n      swap1\n      jump\t// out\n        /* \"@openzeppelin/contracts-upgradeable/token/ERC20/ERC20Upgradeable.sol\":6210:6444  function increaseAllowance(address spender, uint256 addedValue) public virtual returns (bool) {... */\n    tag_53:\n        /* \"@openzeppelin/contracts-upgradeable/token/ERC20/ERC20Upgradeable.sol\":6298:6302  bool */\n      0x00\n        /* \"@openzeppelin/contracts-upgradeable/token/ERC20/ERC20Upgradeable.sol\":6314:6327  address owner */\n      dup1\n        /* \"@openzeppelin/contracts-upgradeable/token/ERC20/ERC20Upgradeable.sol\":6330:6342  _msgSender() */\n      tag_133\n        /* \"@openzeppelin/contracts-upgradeable/token/ERC20/ERC20Upgradeable.sol\":6330:6340  _msgSender */\n      tag_121\n        /* \"@openzeppelin/contracts-upgradeable/token/ERC20/ERC20Upgradeable.sol\":6330:6342  _msgSender() */\n      jump\t// in\n    tag_133:\n        /* \"@openzeppelin/contracts-upgradeable/token/ERC20/ERC20Upgradeable.sol\":6314:6342  address owner = _msgSender() */\n      swap1\n      pop\n        /* \"@openzeppelin/contracts-upgradeable/token/ERC20/ERC20Upgradeable.sol\":6352:6416  _approve(owner, spender, allowance(owner, spender) + addedValue) */\n      tag_134\n        /* \"@openzeppelin/contracts-upgradeable/token/ERC20/ERC20Upgradeable.sol\":6361:6366  owner */\n      dup2\n        /* \"@openzeppelin/contracts-upgradeable/token/ERC20/ERC20Upgradeable.sol\":6368:6375  spender */\n      dup6\n        /* \"@openzeppelin/contracts-upgradeable/token/ERC20/ERC20Upgradeable.sol\":6405:6415  addedValue */\n      dup6\n        /* \"@openzeppelin/contracts-upgradeable/token/ERC20/ERC20Upgradeable.sol\":6377:6402  allowance(owner, spender) */\n      tag_135\n        /* \"@openzeppelin/contracts-upgradeable/token/ERC20/ERC20Upgradeable.sol\":6387:6392  owner */\n      dup6\n        /* \"@openzeppelin/contracts-upgradeable/token/ERC20/ERC20Upgradeable.sol\":6394:6401  spender */\n      dup10\n        /* \"@openzeppelin/contracts-upgradeable/token/ERC20/ERC20Upgradeable.sol\":6377:6386  allowance */\n      tag_107\n        /* \"@openzeppelin/contracts-upgradeable/token/ERC20/ERC20Upgradeable.sol\":6377:6402  allowance(owner, spender) */\n      jump\t// in\n    tag_135:\n        /* \"@openzeppelin/contracts-upgradeable/token/ERC20/ERC20Upgradeable.sol\":6377:6415  allowance(owner, spender) + addedValue */\n      tag_136\n      swap2\n      swap1\n      tag_137\n      jump\t// in\n    tag_136:\n        /* \"@openzeppelin/contracts-upgradeable/token/ERC20/ERC20Upgradeable.sol\":6352:6360  _approve */\n      tag_123\n        /* \"@openzeppelin/contracts-upgradeable/token/ERC20/ERC20Upgradeable.sol\":6352:6416  _approve(owner, spender, allowance(owner, spender) + addedValue) */\n      jump\t// in\n    tag_134:\n        /* \"@openzeppelin/contracts-upgradeable/token/ERC20/ERC20Upgradeable.sol\":6433:6437  true */\n      0x01\n        /* \"@openzeppelin/contracts-upgradeable/token/ERC20/ERC20Upgradeable.sol\":6426:6437  return true */\n      swap2\n      pop\n      pop\n        /* \"@openzeppelin/contracts-upgradeable/token/ERC20/ERC20Upgradeable.sol\":6210:6444  function increaseAllowance(address spender, uint256 addedValue) public virtual returns (bool) {... */\n      swap3\n      swap2\n      pop\n      pop\n      jump\t// out\n        /* \"contracts/tokens/Moola.sol\":1926:2021  function mint(address to, uint256 amount) external onlyWhitelist {\r... */\n    tag_57:\n        /* \"contracts/tokens/Moola.sol\":912:921  whitelist */\n      0xcc\n        /* \"contracts/tokens/Moola.sol\":912:933  whitelist[msg.sender] */\n      0x00\n        /* \"contracts/tokens/Moola.sol\":922:932  msg.sender */\n      caller\n        /* \"contracts/tokens/Moola.sol\":912:933  whitelist[msg.sender] */\n      0xffffffffffffffffffffffffffffffffffffffff\n      and\n      0xffffffffffffffffffffffffffffffffffffffff\n      and\n      dup2\n      mstore\n      0x20\n      add\n      swap1\n      dup2\n      mstore\n      0x20\n      add\n      0x00\n      keccak256\n      0x00\n      swap1\n      sload\n      swap1\n      0x0100\n      exp\n      swap1\n      div\n      0xff\n      and\n        /* \"contracts/tokens/Moola.sol\":904:952  require(whitelist[msg.sender], \"Only whitelist\") */\n      tag_139\n      jumpi\n      mload(0x40)\n      0x08c379a000000000000000000000000000000000000000000000000000000000\n      dup2\n      mstore\n      0x04\n      add\n      tag_140\n      swap1\n      tag_141\n      jump\t// in\n    tag_140:\n      mload(0x40)\n      dup1\n      swap2\n      sub\n      swap1\n      revert\n    tag_139:\n        /* \"contracts/tokens/Moola.sol\":1998:2015  _mint(to, amount) */\n      tag_143\n        /* \"contracts/tokens/Moola.sol\":2004:2006  to */\n      dup3\n        /* \"contracts/tokens/Moola.sol\":2008:2014  amount */\n      dup3\n        /* \"contracts/tokens/Moola.sol\":1998:2003  _mint */\n      tag_144\n        /* \"contracts/tokens/Moola.sol\":1998:2015  _mint(to, amount) */\n      jump\t// in\n    tag_143:\n        /* \"contracts/tokens/Moola.sol\":1926:2021  function mint(address to, uint256 amount) external onlyWhitelist {\r... */\n      pop\n      pop\n      jump\t// out\n        /* \"contracts/tokens/Moola.sol\":1050:1309  function initialize(string memory name_, string memory symbol_)\r... */\n    tag_61:\n        /* \"@openzeppelin/contracts-upgradeable/proxy/utils/Initializable.sol\":3111:3130  bool isTopLevelCall */\n      0x00\n        /* \"@openzeppelin/contracts-upgradeable/proxy/utils/Initializable.sol\":3133:3158  _setInitializedVersion(1) */\n      tag_146\n        /* \"@openzeppelin/contracts-upgradeable/proxy/utils/Initializable.sol\":3156:3157  1 */\n      0x01\n        /* \"@openzeppelin/contracts-upgradeable/proxy/utils/Initializable.sol\":3133:3155  _setInitializedVersion */\n      tag_147\n        /* \"@openzeppelin/contracts-upgradeable/proxy/utils/Initializable.sol\":3133:3158  _setInitializedVersion(1) */\n      jump\t// in\n    tag_146:\n        /* \"@openzeppelin/contracts-upgradeable/proxy/utils/Initializable.sol\":3111:3158  bool isTopLevelCall = _setInitializedVersion(1) */\n      swap1\n      pop\n        /* \"@openzeppelin/contracts-upgradeable/proxy/utils/Initializable.sol\":3172:3186  isTopLevelCall */\n      dup1\n        /* \"@openzeppelin/contracts-upgradeable/proxy/utils/Initializable.sol\":3168:3233  if (isTopLevelCall) {... */\n      iszero\n      tag_148\n      jumpi\n        /* \"@openzeppelin/contracts-upgradeable/proxy/utils/Initializable.sol\":3218:3222  true */\n      0x01\n        /* \"@openzeppelin/contracts-upgradeable/proxy/utils/Initializable.sol\":3202:3215  _initializing */\n      0x00\n      0x01\n        /* \"@openzeppelin/contracts-upgradeable/proxy/utils/Initializable.sol\":3202:3222  _initializing = true */\n      0x0100\n      exp\n      dup2\n      sload\n      dup2\n      0xff\n      mul\n      not\n      and\n      swap1\n      dup4\n      iszero\n      iszero\n      mul\n      or\n      swap1\n      sstore\n      pop\n        /* \"@openzeppelin/contracts-upgradeable/proxy/utils/Initializable.sol\":3168:3233  if (isTopLevelCall) {... */\n    tag_148:\n        /* \"contracts/tokens/Moola.sol\":1155:1183  __ERC20_init(name_, symbol_) */\n      tag_150\n        /* \"contracts/tokens/Moola.sol\":1168:1173  name_ */\n      dup4\n        /* \"contracts/tokens/Moola.sol\":1175:1182  symbol_ */\n      dup4\n        /* \"contracts/tokens/Moola.sol\":1155:1167  __ERC20_init */\n      tag_151\n        /* \"contracts/tokens/Moola.sol\":1155:1183  __ERC20_init(name_, symbol_) */\n      jump\t// in\n    tag_150:\n        /* \"contracts/tokens/Moola.sol\":1190:1206  __Ownable_init() */\n      tag_152\n        /* \"contracts/tokens/Moola.sol\":1190:1204  __Ownable_init */\n      tag_153\n        /* \"contracts/tokens/Moola.sol\":1190:1206  __Ownable_init() */\n      jump\t// in\n    tag_152:\n        /* \"contracts/tokens/Moola.sol\":1213:1230  __Pausable_init() */\n      tag_154\n        /* \"contracts/tokens/Moola.sol\":1213:1228  __Pausable_init */\n      tag_155\n        /* \"contracts/tokens/Moola.sol\":1213:1230  __Pausable_init() */\n      jump\t// in\n    tag_154:\n        /* \"contracts/tokens/Moola.sol\":1239:1276  _mint(msg.sender, 10000000000 * 1e18) */\n      tag_156\n        /* \"contracts/tokens/Moola.sol\":1245:1255  msg.sender */\n      caller\n        /* \"contracts/tokens/Moola.sol\":1257:1275  10000000000 * 1e18 */\n      0x204fce5e3e25026110000000\n        /* \"contracts/tokens/Moola.sol\":1239:1244  _mint */\n      tag_144\n        /* \"contracts/tokens/Moola.sol\":1239:1276  _mint(msg.sender, 10000000000 * 1e18) */\n      jump\t// in\n    tag_156:\n        /* \"contracts/tokens/Moola.sol\":1294:1303  1 minutes */\n      0x3c\n        /* \"contracts/tokens/Moola.sol\":1283:1291  cooldown */\n      0xca\n        /* \"contracts/tokens/Moola.sol\":1283:1303  cooldown = 1 minutes */\n      dup2\n      swap1\n      sstore\n      pop\n        /* \"@openzeppelin/contracts-upgradeable/proxy/utils/Initializable.sol\":3257:3271  isTopLevelCall */\n      dup1\n        /* \"@openzeppelin/contracts-upgradeable/proxy/utils/Initializable.sol\":3253:3352  if (isTopLevelCall) {... */\n      iszero\n      tag_157\n      jumpi\n        /* \"@openzeppelin/contracts-upgradeable/proxy/utils/Initializable.sol\":3303:3308  false */\n      0x00\n        /* \"@openzeppelin/contracts-upgradeable/proxy/utils/Initializable.sol\":3287:3300  _initializing */\n      dup1\n      0x01\n        /* \"@openzeppelin/contracts-upgradeable/proxy/utils/Initializable.sol\":3287:3308  _initializing = false */\n      0x0100\n      exp\n      dup2\n      sload\n      dup2\n      0xff\n      mul\n      not\n      and\n      swap1\n      dup4\n      iszero\n      iszero\n      mul\n      or\n      swap1\n      sstore\n      pop\n        /* \"@openzeppelin/contracts-upgradeable/proxy/utils/Initializable.sol\":3327:3341  Initialized(1) */\n      0x7f26b83ff96e1f2b6a682f133852f6798a09c465da95921460cefb3847402498\n        /* \"@openzeppelin/contracts-upgradeable/proxy/utils/Initializable.sol\":3339:3340  1 */\n      0x01\n        /* \"@openzeppelin/contracts-upgradeable/proxy/utils/Initializable.sol\":3327:3341  Initialized(1) */\n      mload(0x40)\n      tag_158\n      swap2\n      swap1\n      tag_159\n      jump\t// in\n    tag_158:\n      mload(0x40)\n      dup1\n      swap2\n      sub\n      swap1\n      log1\n        /* \"@openzeppelin/contracts-upgradeable/proxy/utils/Initializable.sol\":3253:3352  if (isTopLevelCall) {... */\n    tag_157:\n        /* \"contracts/tokens/Moola.sol\":1050:1309  function initialize(string memory name_, string memory symbol_)\r... */\n      pop\n      pop\n      pop\n      jump\t// out\n        /* \"contracts/tokens/Moola.sol\":1423:1515  function setCooldown(uint256 _cooldown) external onlyOwner {\r... */\n    tag_65:\n        /* \"@openzeppelin/contracts-upgradeable/access/OwnableUpgradeable.sol\":1499:1511  _msgSender() */\n      tag_161\n        /* \"@openzeppelin/contracts-upgradeable/access/OwnableUpgradeable.sol\":1499:1509  _msgSender */\n      tag_121\n        /* \"@openzeppelin/contracts-upgradeable/access/OwnableUpgradeable.sol\":1499:1511  _msgSender() */\n      jump\t// in\n    tag_161:\n        /* \"@openzeppelin/contracts-upgradeable/access/OwnableUpgradeable.sol\":1488:1511  owner() == _msgSender() */\n      0xffffffffffffffffffffffffffffffffffffffff\n      and\n        /* \"@openzeppelin/contracts-upgradeable/access/OwnableUpgradeable.sol\":1488:1495  owner() */\n      tag_162\n        /* \"@openzeppelin/contracts-upgradeable/access/OwnableUpgradeable.sol\":1488:1493  owner */\n      tag_83\n        /* \"@openzeppelin/contracts-upgradeable/access/OwnableUpgradeable.sol\":1488:1495  owner() */\n      jump\t// in\n    tag_162:\n        /* \"@openzeppelin/contracts-upgradeable/access/OwnableUpgradeable.sol\":1488:1511  owner() == _msgSender() */\n      0xffffffffffffffffffffffffffffffffffffffff\n      and\n      eq\n        /* \"@openzeppelin/contracts-upgradeable/access/OwnableUpgradeable.sol\":1480:1548  require(owner() == _msgSender(), \"Ownable: caller is not the owner\") */\n      tag_163\n      jumpi\n      mload(0x40)\n      0x08c379a000000000000000000000000000000000000000000000000000000000\n      dup2\n      mstore\n      0x04\n      add\n      tag_164\n      swap1\n      tag_165\n      jump\t// in\n    tag_164:\n      mload(0x40)\n      dup1\n      swap2\n      sub\n      swap1\n      revert\n    tag_163:\n        /* \"contracts/tokens/Moola.sol\":1500:1509  _cooldown */\n      dup1\n        /* \"contracts/tokens/Moola.sol\":1489:1497  cooldown */\n      0xca\n        /* \"contracts/tokens/Moola.sol\":1489:1509  cooldown = _cooldown */\n      dup2\n      swap1\n      sstore\n      pop\n        /* \"contracts/tokens/Moola.sol\":1423:1515  function setCooldown(uint256 _cooldown) external onlyOwner {\r... */\n      pop\n      jump\t// out\n        /* \"contracts/tokens/Moola.sol\":2027:2423  function claimDairy(uint256 _tokenId) external {\r... */\n    tag_68:\n        /* \"contracts/tokens/Moola.sol\":2119:2129  msg.sender */\n      caller\n        /* \"contracts/tokens/Moola.sol\":2089:2129  moolaNFT.ownerOf(_tokenId) == msg.sender */\n      0xffffffffffffffffffffffffffffffffffffffff\n      and\n        /* \"contracts/tokens/Moola.sol\":2089:2097  moolaNFT */\n      0xcb\n      0x00\n      swap1\n      sload\n      swap1\n      0x0100\n      exp\n      swap1\n      div\n      0xffffffffffffffffffffffffffffffffffffffff\n      and\n        /* \"contracts/tokens/Moola.sol\":2089:2105  moolaNFT.ownerOf */\n      0xffffffffffffffffffffffffffffffffffffffff\n      and\n      0x6352211e\n        /* \"contracts/tokens/Moola.sol\":2106:2114  _tokenId */\n      dup4\n        /* \"contracts/tokens/Moola.sol\":2089:2115  moolaNFT.ownerOf(_tokenId) */\n      mload(0x40)\n      dup3\n      0xffffffff\n      and\n      0xe0\n      shl\n      dup2\n      mstore\n      0x04\n      add\n      tag_168\n      swap2\n      swap1\n      tag_41\n      jump\t// in\n    tag_168:\n      0x20\n      mload(0x40)\n      dup1\n      dup4\n      sub\n      dup2\n      dup7\n      dup1\n      extcodesize\n      iszero\n      dup1\n      iszero\n      tag_169\n      jumpi\n      0x00\n      dup1\n      revert\n    tag_169:\n      pop\n      gas\n      staticcall\n      iszero\n      dup1\n      iszero\n      tag_171\n      jumpi\n      returndatasize\n      0x00\n      dup1\n      returndatacopy\n      revert(0x00, returndatasize)\n    tag_171:\n      pop\n      pop\n      pop\n      pop\n      mload(0x40)\n      returndatasize\n      not(0x1f)\n      0x1f\n      dup3\n      add\n      and\n      dup3\n      add\n      dup1\n      0x40\n      mstore\n      pop\n      dup2\n      add\n      swap1\n      tag_172\n      swap2\n      swap1\n      tag_173\n      jump\t// in\n    tag_172:\n        /* \"contracts/tokens/Moola.sol\":2089:2129  moolaNFT.ownerOf(_tokenId) == msg.sender */\n      0xffffffffffffffffffffffffffffffffffffffff\n      and\n      eq\n        /* \"contracts/tokens/Moola.sol\":2081:2146  require(moolaNFT.ownerOf(_tokenId) == msg.sender, \"UNAUTHORIZED\") */\n      tag_174\n      jumpi\n      mload(0x40)\n      0x08c379a000000000000000000000000000000000000000000000000000000000\n      dup2\n      mstore\n      0x04\n      add\n      tag_175\n      swap1\n      tag_176\n      jump\t// in\n    tag_175:\n      mload(0x40)\n      dup1\n      swap2\n      sub\n      swap1\n      revert\n    tag_174:\n        /* \"contracts/tokens/Moola.sol\":2215:2221  1 days */\n      0x015180\n        /* \"contracts/tokens/Moola.sol\":2187:2201  nftLastClaimed */\n      0xcd\n        /* \"contracts/tokens/Moola.sol\":2187:2211  nftLastClaimed[_tokenId] */\n      0x00\n        /* \"contracts/tokens/Moola.sol\":2202:2210  _tokenId */\n      dup4\n        /* \"contracts/tokens/Moola.sol\":2187:2211  nftLastClaimed[_tokenId] */\n      dup2\n      mstore\n      0x20\n      add\n      swap1\n      dup2\n      mstore\n      0x20\n      add\n      0x00\n      keccak256\n      sload\n        /* \"contracts/tokens/Moola.sol\":2169:2184  block.timestamp */\n      timestamp\n        /* \"contracts/tokens/Moola.sol\":2169:2211  block.timestamp - nftLastClaimed[_tokenId] */\n      tag_177\n      swap2\n      swap1\n      tag_178\n      jump\t// in\n    tag_177:\n        /* \"contracts/tokens/Moola.sol\":2169:2221  block.timestamp - nftLastClaimed[_tokenId] >= 1 days */\n      lt\n      iszero\n        /* \"contracts/tokens/Moola.sol\":2153:2250  require(\r... */\n      tag_179\n      jumpi\n      mload(0x40)\n      0x08c379a000000000000000000000000000000000000000000000000000000000\n      dup2\n      mstore\n      0x04\n      add\n      tag_180\n      swap1\n      tag_181\n      jump\t// in\n    tag_180:\n      mload(0x40)\n      dup1\n      swap2\n      sub\n      swap1\n      revert\n    tag_179:\n        /* \"contracts/tokens/Moola.sol\":2259:2292  _mint(msg.sender, dailyAllowance) */\n      tag_182\n        /* \"contracts/tokens/Moola.sol\":2265:2275  msg.sender */\n      caller\n        /* \"contracts/tokens/Moola.sol\":2277:2291  dailyAllowance */\n      sload(0xc9)\n        /* \"contracts/tokens/Moola.sol\":2259:2264  _mint */\n      tag_144\n        /* \"contracts/tokens/Moola.sol\":2259:2292  _mint(msg.sender, dailyAllowance) */\n      jump\t// in\n    tag_182:\n        /* \"contracts/tokens/Moola.sol\":2326:2341  block.timestamp */\n      timestamp\n        /* \"contracts/tokens/Moola.sol\":2299:2313  nftLastClaimed */\n      0xcd\n        /* \"contracts/tokens/Moola.sol\":2299:2323  nftLastClaimed[_tokenId] */\n      0x00\n        /* \"contracts/tokens/Moola.sol\":2314:2322  _tokenId */\n      dup4\n        /* \"contracts/tokens/Moola.sol\":2299:2323  nftLastClaimed[_tokenId] */\n      dup2\n      mstore\n      0x20\n      add\n      swap1\n      dup2\n      mstore\n      0x20\n      add\n      0x00\n      keccak256\n        /* \"contracts/tokens/Moola.sol\":2299:2341  nftLastClaimed[_tokenId] = block.timestamp */\n      dup2\n      swap1\n      sstore\n      pop\n        /* \"contracts/tokens/Moola.sol\":2355:2417  dailyDairyClaimed(msg.sender, dailyAllowance, block.timestamp) */\n      0x8dce8756778b482ef8cfef8c65faadc506ce94e081bb6cc3a2d3448d99de9a50\n        /* \"contracts/tokens/Moola.sol\":2373:2383  msg.sender */\n      caller\n        /* \"contracts/tokens/Moola.sol\":2385:2399  dailyAllowance */\n      sload(0xc9)\n        /* \"contracts/tokens/Moola.sol\":2401:2416  block.timestamp */\n      timestamp\n        /* \"contracts/tokens/Moola.sol\":2355:2417  dailyDairyClaimed(msg.sender, dailyAllowance, block.timestamp) */\n      mload(0x40)\n      tag_183\n      swap4\n      swap3\n      swap2\n      swap1\n      tag_184\n      jump\t// in\n    tag_183:\n      mload(0x40)\n      dup1\n      swap2\n      sub\n      swap1\n      log1\n        /* \"contracts/tokens/Moola.sol\":2027:2423  function claimDairy(uint256 _tokenId) external {\r... */\n      pop\n      jump\t// out\n        /* \"@openzeppelin/contracts-upgradeable/security/PausableUpgradeable.sol\":1341:1425  function paused() public view virtual returns (bool) {... */\n    tag_70:\n        /* \"@openzeppelin/contracts-upgradeable/security/PausableUpgradeable.sol\":1388:1392  bool */\n      0x00\n        /* \"@openzeppelin/contracts-upgradeable/security/PausableUpgradeable.sol\":1411:1418  _paused */\n      0x97\n      0x00\n      swap1\n      sload\n      swap1\n      0x0100\n      exp\n      swap1\n      div\n      0xff\n      and\n        /* \"@openzeppelin/contracts-upgradeable/security/PausableUpgradeable.sol\":1404:1418  return _paused */\n      swap1\n      pop\n        /* \"@openzeppelin/contracts-upgradeable/security/PausableUpgradeable.sol\":1341:1425  function paused() public view virtual returns (bool) {... */\n      swap1\n      jump\t// out\n        /* \"@openzeppelin/contracts-upgradeable/token/ERC20/ERC20Upgradeable.sol\":3745:3870  function balanceOf(address account) public view virtual override returns (uint256) {... */\n    tag_75:\n        /* \"@openzeppelin/contracts-upgradeable/token/ERC20/ERC20Upgradeable.sol\":3819:3826  uint256 */\n      0x00\n        /* \"@openzeppelin/contracts-upgradeable/token/ERC20/ERC20Upgradeable.sol\":3845:3854  _balances */\n      0x33\n        /* \"@openzeppelin/contracts-upgradeable/token/ERC20/ERC20Upgradeable.sol\":3845:3863  _balances[account] */\n      0x00\n        /* \"@openzeppelin/contracts-upgradeable/token/ERC20/ERC20Upgradeable.sol\":3855:3862  account */\n      dup4\n        /* \"@openzeppelin/contracts-upgradeable/token/ERC20/ERC20Upgradeable.sol\":3845:3863  _balances[account] */\n      0xffffffffffffffffffffffffffffffffffffffff\n      and\n      0xffffffffffffffffffffffffffffffffffffffff\n      and\n      dup2\n      mstore\n      0x20\n      add\n      swap1\n      dup2\n      mstore\n      0x20\n      add\n      0x00\n      keccak256\n      sload\n        /* \"@openzeppelin/contracts-upgradeable/token/ERC20/ERC20Upgradeable.sol\":3838:3863  return _balances[account] */\n      swap1\n      pop\n        /* \"@openzeppelin/contracts-upgradeable/token/ERC20/ERC20Upgradeable.sol\":3745:3870  function balanceOf(address account) public view virtual override returns (uint256) {... */\n      swap2\n      swap1\n      pop\n      jump\t// out\n        /* \"@openzeppelin/contracts-upgradeable/access/OwnableUpgradeable.sol\":1908:2009  function renounceOwnership() public virtual onlyOwner {... */\n    tag_78:\n        /* \"@openzeppelin/contracts-upgradeable/access/OwnableUpgradeable.sol\":1499:1511  _msgSender() */\n      tag_188\n        /* \"@openzeppelin/contracts-upgradeable/access/OwnableUpgradeable.sol\":1499:1509  _msgSender */\n      tag_121\n        /* \"@openzeppelin/contracts-upgradeable/access/OwnableUpgradeable.sol\":1499:1511  _msgSender() */\n      jump\t// in\n    tag_188:\n        /* \"@openzeppelin/contracts-upgradeable/access/OwnableUpgradeable.sol\":1488:1511  owner() == _msgSender() */\n      0xffffffffffffffffffffffffffffffffffffffff\n      and\n        /* \"@openzeppelin/contracts-upgradeable/access/OwnableUpgradeable.sol\":1488:1495  owner() */\n      tag_189\n        /* \"@openzeppelin/contracts-upgradeable/access/OwnableUpgradeable.sol\":1488:1493  owner */\n      tag_83\n        /* \"@openzeppelin/contracts-upgradeable/access/OwnableUpgradeable.sol\":1488:1495  owner() */\n      jump\t// in\n    tag_189:\n        /* \"@openzeppelin/contracts-upgradeable/access/OwnableUpgradeable.sol\":1488:1511  owner() == _msgSender() */\n      0xffffffffffffffffffffffffffffffffffffffff\n      and\n      eq\n        /* \"@openzeppelin/contracts-upgradeable/access/OwnableUpgradeable.sol\":1480:1548  require(owner() == _msgSender(), \"Ownable: caller is not the owner\") */\n      tag_190\n      jumpi\n      mload(0x40)\n      0x08c379a000000000000000000000000000000000000000000000000000000000\n      dup2\n      mstore\n      0x04\n      add\n      tag_191\n      swap1\n      tag_165\n      jump\t// in\n    tag_191:\n      mload(0x40)\n      dup1\n      swap2\n      sub\n      swap1\n      revert\n    tag_190:\n        /* \"@openzeppelin/contracts-upgradeable/access/OwnableUpgradeable.sol\":1972:2002  _transferOwnership(address(0)) */\n      tag_193\n        /* \"@openzeppelin/contracts-upgradeable/access/OwnableUpgradeable.sol\":1999:2000  0 */\n      0x00\n        /* \"@openzeppelin/contracts-upgradeable/access/OwnableUpgradeable.sol\":1972:1990  _transferOwnership */\n      tag_194\n        /* \"@openzeppelin/contracts-upgradeable/access/OwnableUpgradeable.sol\":1972:2002  _transferOwnership(address(0)) */\n      jump\t// in\n    tag_193:\n        /* \"@openzeppelin/contracts-upgradeable/access/OwnableUpgradeable.sol\":1908:2009  function renounceOwnership() public virtual onlyOwner {... */\n      jump\t// out\n        /* \"contracts/tokens/Moola.sol\":1315:1417  function setWhitelist(address _whitelist) external onlyOwner {\r... */\n    tag_81:\n        /* \"@openzeppelin/contracts-upgradeable/access/OwnableUpgradeable.sol\":1499:1511  _msgSender() */\n      tag_196\n        /* \"@openzeppelin/contracts-upgradeable/access/OwnableUpgradeable.sol\":1499:1509  _msgSender */\n      tag_121\n        /* \"@openzeppelin/contracts-upgradeable/access/OwnableUpgradeable.sol\":1499:1511  _msgSender() */\n      jump\t// in\n    tag_196:\n        /* \"@openzeppelin/contracts-upgradeable/access/OwnableUpgradeable.sol\":1488:1511  owner() == _msgSender() */\n      0xffffffffffffffffffffffffffffffffffffffff\n      and\n        /* \"@openzeppelin/contracts-upgradeable/access/OwnableUpgradeable.sol\":1488:1495  owner() */\n      tag_197\n        /* \"@openzeppelin/contracts-upgradeable/access/OwnableUpgradeable.sol\":1488:1493  owner */\n      tag_83\n        /* \"@openzeppelin/contracts-upgradeable/access/OwnableUpgradeable.sol\":1488:1495  owner() */\n      jump\t// in\n    tag_197:\n        /* \"@openzeppelin/contracts-upgradeable/access/OwnableUpgradeable.sol\":1488:1511  owner() == _msgSender() */\n      0xffffffffffffffffffffffffffffffffffffffff\n      and\n      eq\n        /* \"@openzeppelin/contracts-upgradeable/access/OwnableUpgradeable.sol\":1480:1548  require(owner() == _msgSender(), \"Ownable: caller is not the owner\") */\n      tag_198\n      jumpi\n      mload(0x40)\n      0x08c379a000000000000000000000000000000000000000000000000000000000\n      dup2\n      mstore\n      0x04\n      add\n      tag_199\n      swap1\n      tag_165\n      jump\t// in\n    tag_199:\n      mload(0x40)\n      dup1\n      swap2\n      sub\n      swap1\n      revert\n    tag_198:\n        /* \"contracts/tokens/Moola.sol\":1407:1411  true */\n      0x01\n        /* \"contracts/tokens/Moola.sol\":1383:1392  whitelist */\n      0xcc\n        /* \"contracts/tokens/Moola.sol\":1383:1404  whitelist[_whitelist] */\n      0x00\n        /* \"contracts/tokens/Moola.sol\":1393:1403  _whitelist */\n      dup4\n        /* \"contracts/tokens/Moola.sol\":1383:1404  whitelist[_whitelist] */\n      0xffffffffffffffffffffffffffffffffffffffff\n      and\n      0xffffffffffffffffffffffffffffffffffffffff\n      and\n      dup2\n      mstore\n      0x20\n      add\n      swap1\n      dup2\n      mstore\n      0x20\n      add\n      0x00\n      keccak256\n      0x00\n        /* \"contracts/tokens/Moola.sol\":1383:1411  whitelist[_whitelist] = true */\n      0x0100\n      exp\n      dup2\n      sload\n      dup2\n      0xff\n      mul\n      not\n      and\n      swap1\n      dup4\n      iszero\n      iszero\n      mul\n      or\n      swap1\n      sstore\n      pop\n        /* \"contracts/tokens/Moola.sol\":1315:1417  function setWhitelist(address _whitelist) external onlyOwner {\r... */\n      pop\n      jump\t// out\n        /* \"@openzeppelin/contracts-upgradeable/access/OwnableUpgradeable.sol\":1276:1361  function owner() public view virtual returns (address) {... */\n    tag_83:\n        /* \"@openzeppelin/contracts-upgradeable/access/OwnableUpgradeable.sol\":1322:1329  address */\n      0x00\n        /* \"@openzeppelin/contracts-upgradeable/access/OwnableUpgradeable.sol\":1348:1354  _owner */\n      0x65\n      0x00\n      swap1\n      sload\n      swap1\n      0x0100\n      exp\n      swap1\n      div\n      0xffffffffffffffffffffffffffffffffffffffff\n      and\n        /* \"@openzeppelin/contracts-upgradeable/access/OwnableUpgradeable.sol\":1341:1354  return _owner */\n      swap1\n      pop\n        /* \"@openzeppelin/contracts-upgradeable/access/OwnableUpgradeable.sol\":1276:1361  function owner() public view virtual returns (address) {... */\n      swap1\n      jump\t// out\n        /* \"@openzeppelin/contracts-upgradeable/token/ERC20/ERC20Upgradeable.sol\":2704:2806  function symbol() public view virtual override returns (string memory) {... */\n    tag_87:\n        /* \"@openzeppelin/contracts-upgradeable/token/ERC20/ERC20Upgradeable.sol\":2760:2773  string memory */\n      0x60\n        /* \"@openzeppelin/contracts-upgradeable/token/ERC20/ERC20Upgradeable.sol\":2792:2799  _symbol */\n      0x37\n        /* \"@openzeppelin/contracts-upgradeable/token/ERC20/ERC20Upgradeable.sol\":2785:2799  return _symbol */\n      dup1\n      sload\n      tag_203\n      swap1\n      tag_114\n      jump\t// in\n    tag_203:\n      dup1\n      0x1f\n      add\n      0x20\n      dup1\n      swap2\n      div\n      mul\n      0x20\n      add\n      mload(0x40)\n      swap1\n      dup2\n      add\n      0x40\n      mstore\n      dup1\n      swap3\n      swap2\n      swap1\n      dup2\n      dup2\n      mstore\n      0x20\n      add\n      dup3\n      dup1\n      sload\n      tag_204\n      swap1\n      tag_114\n      jump\t// in\n    tag_204:\n      dup1\n      iszero\n      tag_205\n      jumpi\n      dup1\n      0x1f\n      lt\n      tag_206\n      jumpi\n      0x0100\n      dup1\n      dup4\n      sload\n      div\n      mul\n      dup4\n      mstore\n      swap2\n      0x20\n      add\n      swap2\n      jump(tag_205)\n    tag_206:\n      dup3\n      add\n      swap2\n      swap1\n      0x00\n      mstore\n      keccak256(0x00, 0x20)\n      swap1\n    tag_207:\n      dup2\n      sload\n      dup2\n      mstore\n      swap1\n      0x01\n      add\n      swap1\n      0x20\n      add\n      dup1\n      dup4\n      gt\n      tag_207\n      jumpi\n      dup3\n      swap1\n      sub\n      0x1f\n      and\n      dup3\n      add\n      swap2\n    tag_205:\n      pop\n      pop\n      pop\n      pop\n      pop\n      swap1\n      pop\n        /* \"@openzeppelin/contracts-upgradeable/token/ERC20/ERC20Upgradeable.sol\":2704:2806  function symbol() public view virtual override returns (string memory) {... */\n      swap1\n      jump\t// out\n        /* \"@openzeppelin/contracts-upgradeable/token/ERC20/ERC20Upgradeable.sol\":6931:7358  function decreaseAllowance(address spender, uint256 subtractedValue) public virtual returns (bool) {... */\n    tag_91:\n        /* \"@openzeppelin/contracts-upgradeable/token/ERC20/ERC20Upgradeable.sol\":7024:7028  bool */\n      0x00\n        /* \"@openzeppelin/contracts-upgradeable/token/ERC20/ERC20Upgradeable.sol\":7040:7053  address owner */\n      dup1\n        /* \"@openzeppelin/contracts-upgradeable/token/ERC20/ERC20Upgradeable.sol\":7056:7068  _msgSender() */\n      tag_209\n        /* \"@openzeppelin/contracts-upgradeable/token/ERC20/ERC20Upgradeable.sol\":7056:7066  _msgSender */\n      tag_121\n        /* \"@openzeppelin/contracts-upgradeable/token/ERC20/ERC20Upgradeable.sol\":7056:7068  _msgSender() */\n      jump\t// in\n    tag_209:\n        /* \"@openzeppelin/contracts-upgradeable/token/ERC20/ERC20Upgradeable.sol\":7040:7068  address owner = _msgSender() */\n      swap1\n      pop\n        /* \"@openzeppelin/contracts-upgradeable/token/ERC20/ERC20Upgradeable.sol\":7078:7102  uint256 currentAllowance */\n      0x00\n        /* \"@openzeppelin/contracts-upgradeable/token/ERC20/ERC20Upgradeable.sol\":7105:7130  allowance(owner, spender) */\n      tag_210\n        /* \"@openzeppelin/contracts-upgradeable/token/ERC20/ERC20Upgradeable.sol\":7115:7120  owner */\n      dup3\n        /* \"@openzeppelin/contracts-upgradeable/token/ERC20/ERC20Upgradeable.sol\":7122:7129  spender */\n      dup7\n        /* \"@openzeppelin/contracts-upgradeable/token/ERC20/ERC20Upgradeable.sol\":7105:7114  allowance */\n      tag_107\n        /* \"@openzeppelin/contracts-upgradeable/token/ERC20/ERC20Upgradeable.sol\":7105:7130  allowance(owner, spender) */\n      jump\t// in\n    tag_210:\n        /* \"@openzeppelin/contracts-upgradeable/token/ERC20/ERC20Upgradeable.sol\":7078:7130  uint256 currentAllowance = allowance(owner, spender) */\n      swap1\n      pop\n        /* \"@openzeppelin/contracts-upgradeable/token/ERC20/ERC20Upgradeable.sol\":7168:7183  subtractedValue */\n      dup4\n        /* \"@openzeppelin/contracts-upgradeable/token/ERC20/ERC20Upgradeable.sol\":7148:7164  currentAllowance */\n      dup2\n        /* \"@openzeppelin/contracts-upgradeable/token/ERC20/ERC20Upgradeable.sol\":7148:7183  currentAllowance >= subtractedValue */\n      lt\n      iszero\n        /* \"@openzeppelin/contracts-upgradeable/token/ERC20/ERC20Upgradeable.sol\":7140:7225  require(currentAllowance >= subtractedValue, \"ERC20: decreased allowance below zero\") */\n      tag_211\n      jumpi\n      mload(0x40)\n      0x08c379a000000000000000000000000000000000000000000000000000000000\n      dup2\n      mstore\n      0x04\n      add\n      tag_212\n      swap1\n      tag_213\n      jump\t// in\n    tag_212:\n      mload(0x40)\n      dup1\n      swap2\n      sub\n      swap1\n      revert\n    tag_211:\n        /* \"@openzeppelin/contracts-upgradeable/token/ERC20/ERC20Upgradeable.sol\":7259:7319  _approve(owner, spender, currentAllowance - subtractedValue) */\n      tag_214\n        /* \"@openzeppelin/contracts-upgradeable/token/ERC20/ERC20Upgradeable.sol\":7268:7273  owner */\n      dup3\n        /* \"@openzeppelin/contracts-upgradeable/token/ERC20/ERC20Upgradeable.sol\":7275:7282  spender */\n      dup7\n        /* \"@openzeppelin/contracts-upgradeable/token/ERC20/ERC20Upgradeable.sol\":7303:7318  subtractedValue */\n      dup7\n        /* \"@openzeppelin/contracts-upgradeable/token/ERC20/ERC20Upgradeable.sol\":7284:7300  currentAllowance */\n      dup5\n        /* \"@openzeppelin/contracts-upgradeable/token/ERC20/ERC20Upgradeable.sol\":7284:7318  currentAllowance - subtractedValue */\n      sub\n        /* \"@openzeppelin/contracts-upgradeable/token/ERC20/ERC20Upgradeable.sol\":7259:7267  _approve */\n      tag_123\n        /* \"@openzeppelin/contracts-upgradeable/token/ERC20/ERC20Upgradeable.sol\":7259:7319  _approve(owner, spender, currentAllowance - subtractedValue) */\n      jump\t// in\n    tag_214:\n        /* \"@openzeppelin/contracts-upgradeable/token/ERC20/ERC20Upgradeable.sol\":7347:7351  true */\n      0x01\n        /* \"@openzeppelin/contracts-upgradeable/token/ERC20/ERC20Upgradeable.sol\":7340:7351  return true */\n      swap3\n      pop\n      pop\n      pop\n        /* \"@openzeppelin/contracts-upgradeable/token/ERC20/ERC20Upgradeable.sol\":6931:7358  function decreaseAllowance(address spender, uint256 subtractedValue) public virtual returns (bool) {... */\n      swap3\n      swap2\n      pop\n      pop\n      jump\t// out\n        /* \"@openzeppelin/contracts-upgradeable/token/ERC20/ERC20Upgradeable.sol\":4066:4255  function transfer(address to, uint256 amount) public virtual override returns (bool) {... */\n    tag_95:\n        /* \"@openzeppelin/contracts-upgradeable/token/ERC20/ERC20Upgradeable.sol\":4145:4149  bool */\n      0x00\n        /* \"@openzeppelin/contracts-upgradeable/token/ERC20/ERC20Upgradeable.sol\":4161:4174  address owner */\n      dup1\n        /* \"@openzeppelin/contracts-upgradeable/token/ERC20/ERC20Upgradeable.sol\":4177:4189  _msgSender() */\n      tag_216\n        /* \"@openzeppelin/contracts-upgradeable/token/ERC20/ERC20Upgradeable.sol\":4177:4187  _msgSender */\n      tag_121\n        /* \"@openzeppelin/contracts-upgradeable/token/ERC20/ERC20Upgradeable.sol\":4177:4189  _msgSender() */\n      jump\t// in\n    tag_216:\n        /* \"@openzeppelin/contracts-upgradeable/token/ERC20/ERC20Upgradeable.sol\":4161:4189  address owner = _msgSender() */\n      swap1\n      pop\n        /* \"@openzeppelin/contracts-upgradeable/token/ERC20/ERC20Upgradeable.sol\":4199:4227  _transfer(owner, to, amount) */\n      tag_217\n        /* \"@openzeppelin/contracts-upgradeable/token/ERC20/ERC20Upgradeable.sol\":4209:4214  owner */\n      dup2\n        /* \"@openzeppelin/contracts-upgradeable/token/ERC20/ERC20Upgradeable.sol\":4216:4218  to */\n      dup6\n        /* \"@openzeppelin/contracts-upgradeable/token/ERC20/ERC20Upgradeable.sol\":4220:4226  amount */\n      dup6\n        /* \"@openzeppelin/contracts-upgradeable/token/ERC20/ERC20Upgradeable.sol\":4199:4208  _transfer */\n      tag_130\n        /* \"@openzeppelin/contracts-upgradeable/token/ERC20/ERC20Upgradeable.sol\":4199:4227  _transfer(owner, to, amount) */\n      jump\t// in\n    tag_217:\n        /* \"@openzeppelin/contracts-upgradeable/token/ERC20/ERC20Upgradeable.sol\":4244:4248  true */\n      0x01\n        /* \"@openzeppelin/contracts-upgradeable/token/ERC20/ERC20Upgradeable.sol\":4237:4248  return true */\n      swap2\n      pop\n      pop\n        /* \"@openzeppelin/contracts-upgradeable/token/ERC20/ERC20Upgradeable.sol\":4066:4255  function transfer(address to, uint256 amount) public virtual override returns (bool) {... */\n      swap3\n      swap2\n      pop\n      pop\n      jump\t// out\n        /* \"contracts/tokens/Moola.sol\":1521:1644  function setMoolaNFTAddress(address _moola) external onlyOwner {\r... */\n    tag_99:\n        /* \"@openzeppelin/contracts-upgradeable/access/OwnableUpgradeable.sol\":1499:1511  _msgSender() */\n      tag_219\n        /* \"@openzeppelin/contracts-upgradeable/access/OwnableUpgradeable.sol\":1499:1509  _msgSender */\n      tag_121\n        /* \"@openzeppelin/contracts-upgradeable/access/OwnableUpgradeable.sol\":1499:1511  _msgSender() */\n      jump\t// in\n    tag_219:\n        /* \"@openzeppelin/contracts-upgradeable/access/OwnableUpgradeable.sol\":1488:1511  owner() == _msgSender() */\n      0xffffffffffffffffffffffffffffffffffffffff\n      and\n        /* \"@openzeppelin/contracts-upgradeable/access/OwnableUpgradeable.sol\":1488:1495  owner() */\n      tag_220\n        /* \"@openzeppelin/contracts-upgradeable/access/OwnableUpgradeable.sol\":1488:1493  owner */\n      tag_83\n        /* \"@openzeppelin/contracts-upgradeable/access/OwnableUpgradeable.sol\":1488:1495  owner() */\n      jump\t// in\n    tag_220:\n        /* \"@openzeppelin/contracts-upgradeable/access/OwnableUpgradeable.sol\":1488:1511  owner() == _msgSender() */\n      0xffffffffffffffffffffffffffffffffffffffff\n      and\n      eq\n        /* \"@openzeppelin/contracts-upgradeable/access/OwnableUpgradeable.sol\":1480:1548  require(owner() == _msgSender(), \"Ownable: caller is not the owner\") */\n      tag_221\n      jumpi\n      mload(0x40)\n      0x08c379a000000000000000000000000000000000000000000000000000000000\n      dup2\n      mstore\n      0x04\n      add\n      tag_222\n      swap1\n      tag_165\n      jump\t// in\n    tag_222:\n      mload(0x40)\n      dup1\n      swap2\n      sub\n      swap1\n      revert\n    tag_221:\n        /* \"contracts/tokens/Moola.sol\":1631:1637  _moola */\n      dup1\n        /* \"contracts/tokens/Moola.sol\":1591:1599  moolaNFT */\n      0xcb\n      0x00\n        /* \"contracts/tokens/Moola.sol\":1591:1638  moolaNFT = IERC721EnumerableUpgradeable(_moola) */\n      0x0100\n      exp\n      dup2\n      sload\n      dup2\n      0xffffffffffffffffffffffffffffffffffffffff\n      mul\n      not\n      and\n      swap1\n      dup4\n      0xffffffffffffffffffffffffffffffffffffffff\n      and\n      mul\n      or\n      swap1\n      sstore\n      pop\n        /* \"contracts/tokens/Moola.sol\":1521:1644  function setMoolaNFTAddress(address _moola) external onlyOwner {\r... */\n      pop\n      jump\t// out\n        /* \"contracts/tokens/Moola.sol\":2429:2547  function getLastClaimed(uint256 _tokenId) external view returns (uint256) {\r... */\n    tag_102:\n        /* \"contracts/tokens/Moola.sol\":2494:2501  uint256 */\n      0x00\n        /* \"contracts/tokens/Moola.sol\":2517:2531  nftLastClaimed */\n      0xcd\n        /* \"contracts/tokens/Moola.sol\":2517:2541  nftLastClaimed[_tokenId] */\n      0x00\n        /* \"contracts/tokens/Moola.sol\":2532:2540  _tokenId */\n      dup4\n        /* \"contracts/tokens/Moola.sol\":2517:2541  nftLastClaimed[_tokenId] */\n      dup2\n      mstore\n      0x20\n      add\n      swap1\n      dup2\n      mstore\n      0x20\n      add\n      0x00\n      keccak256\n      sload\n        /* \"contracts/tokens/Moola.sol\":2510:2541  return nftLastClaimed[_tokenId] */\n      swap1\n      pop\n        /* \"contracts/tokens/Moola.sol\":2429:2547  function getLastClaimed(uint256 _tokenId) external view returns (uint256) {\r... */\n      swap2\n      swap1\n      pop\n      jump\t// out\n        /* \"@openzeppelin/contracts-upgradeable/token/ERC20/ERC20Upgradeable.sol\":4313:4462  function allowance(address owner, address spender) public view virtual override returns (uint256) {... */\n    tag_107:\n        /* \"@openzeppelin/contracts-upgradeable/token/ERC20/ERC20Upgradeable.sol\":4402:4409  uint256 */\n      0x00\n        /* \"@openzeppelin/contracts-upgradeable/token/ERC20/ERC20Upgradeable.sol\":4428:4439  _allowances */\n      0x34\n        /* \"@openzeppelin/contracts-upgradeable/token/ERC20/ERC20Upgradeable.sol\":4428:4446  _allowances[owner] */\n      0x00\n        /* \"@openzeppelin/contracts-upgradeable/token/ERC20/ERC20Upgradeable.sol\":4440:4445  owner */\n      dup5\n        /* \"@openzeppelin/contracts-upgradeable/token/ERC20/ERC20Upgradeable.sol\":4428:4446  _allowances[owner] */\n      0xffffffffffffffffffffffffffffffffffffffff\n      and\n      0xffffffffffffffffffffffffffffffffffffffff\n      and\n      dup2\n      mstore\n      0x20\n      add\n      swap1\n      dup2\n      mstore\n      0x20\n      add\n      0x00\n      keccak256\n        /* \"@openzeppelin/contracts-upgradeable/token/ERC20/ERC20Upgradeable.sol\":4428:4455  _allowances[owner][spender] */\n      0x00\n        /* \"@openzeppelin/contracts-upgradeable/token/ERC20/ERC20Upgradeable.sol\":4447:4454  spender */\n      dup4\n        /* \"@openzeppelin/contracts-upgradeable/token/ERC20/ERC20Upgradeable.sol\":4428:4455  _allowances[owner][spender] */\n      0xffffffffffffffffffffffffffffffffffffffff\n      and\n      0xffffffffffffffffffffffffffffffffffffffff\n      and\n      dup2\n      mstore\n      0x20\n      add\n      swap1\n      dup2\n      mstore\n      0x20\n      add\n      0x00\n      keccak256\n      sload\n        /* \"@openzeppelin/contracts-upgradeable/token/ERC20/ERC20Upgradeable.sol\":4421:4455  return _allowances[owner][spender] */\n      swap1\n      pop\n        /* \"@openzeppelin/contracts-upgradeable/token/ERC20/ERC20Upgradeable.sol\":4313:4462  function allowance(address owner, address spender) public view virtual override returns (uint256) {... */\n      swap3\n      swap2\n      pop\n      pop\n      jump\t// out\n        /* \"@openzeppelin/contracts-upgradeable/access/OwnableUpgradeable.sol\":2158:2356  function transferOwnership(address newOwner) public virtual onlyOwner {... */\n    tag_111:\n        /* \"@openzeppelin/contracts-upgradeable/access/OwnableUpgradeable.sol\":1499:1511  _msgSender() */\n      tag_227\n        /* \"@openzeppelin/contracts-upgradeable/access/OwnableUpgradeable.sol\":1499:1509  _msgSender */\n      tag_121\n        /* \"@openzeppelin/contracts-upgradeable/access/OwnableUpgradeable.sol\":1499:1511  _msgSender() */\n      jump\t// in\n    tag_227:\n        /* \"@openzeppelin/contracts-upgradeable/access/OwnableUpgradeable.sol\":1488:1511  owner() == _msgSender() */\n      0xffffffffffffffffffffffffffffffffffffffff\n      and\n        /* \"@openzeppelin/contracts-upgradeable/access/OwnableUpgradeable.sol\":1488:1495  owner() */\n      tag_228\n        /* \"@openzeppelin/contracts-upgradeable/access/OwnableUpgradeable.sol\":1488:1493  owner */\n      tag_83\n        /* \"@openzeppelin/contracts-upgradeable/access/OwnableUpgradeable.sol\":1488:1495  owner() */\n      jump\t// in\n    tag_228:\n        /* \"@openzeppelin/contracts-upgradeable/access/OwnableUpgradeable.sol\":1488:1511  owner() == _msgSender() */\n      0xffffffffffffffffffffffffffffffffffffffff\n      and\n      eq\n        /* \"@openzeppelin/contracts-upgradeable/access/OwnableUpgradeable.sol\":1480:1548  require(owner() == _msgSender(), \"Ownable: caller is not the owner\") */\n      tag_229\n      jumpi\n      mload(0x40)\n      0x08c379a000000000000000000000000000000000000000000000000000000000\n      dup2\n      mstore\n      0x04\n      add\n      tag_230\n      swap1\n      tag_165\n      jump\t// in\n    tag_230:\n      mload(0x40)\n      dup1\n      swap2\n      sub\n      swap1\n      revert\n    tag_229:\n        /* \"@openzeppelin/contracts-upgradeable/access/OwnableUpgradeable.sol\":2266:2267  0 */\n      0x00\n        /* \"@openzeppelin/contracts-upgradeable/access/OwnableUpgradeable.sol\":2246:2268  newOwner != address(0) */\n      0xffffffffffffffffffffffffffffffffffffffff\n      and\n        /* \"@openzeppelin/contracts-upgradeable/access/OwnableUpgradeable.sol\":2246:2254  newOwner */\n      dup2\n        /* \"@openzeppelin/contracts-upgradeable/access/OwnableUpgradeable.sol\":2246:2268  newOwner != address(0) */\n      0xffffffffffffffffffffffffffffffffffffffff\n      and\n      eq\n      iszero\n        /* \"@openzeppelin/contracts-upgradeable/access/OwnableUpgradeable.sol\":2238:2311  require(newOwner != address(0), \"Ownable: new owner is the zero address\") */\n      tag_232\n      jumpi\n      mload(0x40)\n      0x08c379a000000000000000000000000000000000000000000000000000000000\n      dup2\n      mstore\n      0x04\n      add\n      tag_233\n      swap1\n      tag_234\n      jump\t// in\n    tag_233:\n      mload(0x40)\n      dup1\n      swap2\n      sub\n      swap1\n      revert\n    tag_232:\n        /* \"@openzeppelin/contracts-upgradeable/access/OwnableUpgradeable.sol\":2321:2349  _transferOwnership(newOwner) */\n      tag_235\n        /* \"@openzeppelin/contracts-upgradeable/access/OwnableUpgradeable.sol\":2340:2348  newOwner */\n      dup2\n        /* \"@openzeppelin/contracts-upgradeable/access/OwnableUpgradeable.sol\":2321:2339  _transferOwnership */\n      tag_194\n        /* \"@openzeppelin/contracts-upgradeable/access/OwnableUpgradeable.sol\":2321:2349  _transferOwnership(newOwner) */\n      jump\t// in\n    tag_235:\n        /* \"@openzeppelin/contracts-upgradeable/access/OwnableUpgradeable.sol\":2158:2356  function transferOwnership(address newOwner) public virtual onlyOwner {... */\n      pop\n      jump\t// out\n        /* \"@openzeppelin/contracts-upgradeable/utils/ContextUpgradeable.sol\":850:946  function _msgSender() internal view virtual returns (address) {... */\n    tag_121:\n        /* \"@openzeppelin/contracts-upgradeable/utils/ContextUpgradeable.sol\":903:910  address */\n      0x00\n        /* \"@openzeppelin/contracts-upgradeable/utils/ContextUpgradeable.sol\":929:939  msg.sender */\n      caller\n        /* \"@openzeppelin/contracts-upgradeable/utils/ContextUpgradeable.sol\":922:939  return msg.sender */\n      swap1\n      pop\n        /* \"@openzeppelin/contracts-upgradeable/utils/ContextUpgradeable.sol\":850:946  function _msgSender() internal view virtual returns (address) {... */\n      swap1\n      jump\t// out\n        /* \"@openzeppelin/contracts-upgradeable/token/ERC20/ERC20Upgradeable.sol\":10456:10826  function _approve(... */\n    tag_123:\n        /* \"@openzeppelin/contracts-upgradeable/token/ERC20/ERC20Upgradeable.sol\":10604:10605  0 */\n      0x00\n        /* \"@openzeppelin/contracts-upgradeable/token/ERC20/ERC20Upgradeable.sol\":10587:10606  owner != address(0) */\n      0xffffffffffffffffffffffffffffffffffffffff\n      and\n        /* \"@openzeppelin/contracts-upgradeable/token/ERC20/ERC20Upgradeable.sol\":10587:10592  owner */\n      dup4\n        /* \"@openzeppelin/contracts-upgradeable/token/ERC20/ERC20Upgradeable.sol\":10587:10606  owner != address(0) */\n      0xffffffffffffffffffffffffffffffffffffffff\n      and\n      eq\n      iszero\n        /* \"@openzeppelin/contracts-upgradeable/token/ERC20/ERC20Upgradeable.sol\":10579:10647  require(owner != address(0), \"ERC20: approve from the zero address\") */\n      tag_238\n      jumpi\n      mload(0x40)\n      0x08c379a000000000000000000000000000000000000000000000000000000000\n      dup2\n      mstore\n      0x04\n      add\n      tag_239\n      swap1\n      tag_240\n      jump\t// in\n    tag_239:\n      mload(0x40)\n      dup1\n      swap2\n      sub\n      swap1\n      revert\n    tag_238:\n        /* \"@openzeppelin/contracts-upgradeable/token/ERC20/ERC20Upgradeable.sol\":10684:10685  0 */\n      0x00\n        /* \"@openzeppelin/contracts-upgradeable/token/ERC20/ERC20Upgradeable.sol\":10665:10686  spender != address(0) */\n      0xffffffffffffffffffffffffffffffffffffffff\n      and\n        /* \"@openzeppelin/contracts-upgradeable/token/ERC20/ERC20Upgradeable.sol\":10665:10672  spender */\n      dup3\n        /* \"@openzeppelin/contracts-upgradeable/token/ERC20/ERC20Upgradeable.sol\":10665:10686  spender != address(0) */\n      0xffffffffffffffffffffffffffffffffffffffff\n      and\n      eq\n      iszero\n        /* \"@openzeppelin/contracts-upgradeable/token/ERC20/ERC20Upgradeable.sol\":10657:10725  require(spender != address(0), \"ERC20: approve to the zero address\") */\n      tag_241\n      jumpi\n      mload(0x40)\n      0x08c379a000000000000000000000000000000000000000000000000000000000\n      dup2\n      mstore\n      0x04\n      add\n      tag_242\n      swap1\n      tag_243\n      jump\t// in\n    tag_242:\n      mload(0x40)\n      dup1\n      swap2\n      sub\n      swap1\n      revert\n    tag_241:\n        /* \"@openzeppelin/contracts-upgradeable/token/ERC20/ERC20Upgradeable.sol\":10766:10772  amount */\n      dup1\n        /* \"@openzeppelin/contracts-upgradeable/token/ERC20/ERC20Upgradeable.sol\":10736:10747  _allowances */\n      0x34\n        /* \"@openzeppelin/contracts-upgradeable/token/ERC20/ERC20Upgradeable.sol\":10736:10754  _allowances[owner] */\n      0x00\n        /* \"@openzeppelin/contracts-upgradeable/token/ERC20/ERC20Upgradeable.sol\":10748:10753  owner */\n      dup6\n        /* \"@openzeppelin/contracts-upgradeable/token/ERC20/ERC20Upgradeable.sol\":10736:10754  _allowances[owner] */\n      0xffffffffffffffffffffffffffffffffffffffff\n      and\n      0xffffffffffffffffffffffffffffffffffffffff\n      and\n      dup2\n      mstore\n      0x20\n      add\n      swap1\n      dup2\n      mstore\n      0x20\n      add\n      0x00\n      keccak256\n        /* \"@openzeppelin/contracts-upgradeable/token/ERC20/ERC20Upgradeable.sol\":10736:10763  _allowances[owner][spender] */\n      0x00\n        /* \"@openzeppelin/contracts-upgradeable/token/ERC20/ERC20Upgradeable.sol\":10755:10762  spender */\n      dup5\n        /* \"@openzeppelin/contracts-upgradeable/token/ERC20/ERC20Upgradeable.sol\":10736:10763  _allowances[owner][spender] */\n      0xffffffffffffffffffffffffffffffffffffffff\n      and\n      0xffffffffffffffffffffffffffffffffffffffff\n      and\n      dup2\n      mstore\n      0x20\n      add\n      swap1\n      dup2\n      mstore\n      0x20\n      add\n      0x00\n      keccak256\n        /* \"@openzeppelin/contracts-upgradeable/token/ERC20/ERC20Upgradeable.sol\":10736:10772  _allowances[owner][spender] = amount */\n      dup2\n      swap1\n      sstore\n      pop\n        /* \"@openzeppelin/contracts-upgradeable/token/ERC20/ERC20Upgradeable.sol\":10803:10810  spender */\n      dup2\n        /* \"@openzeppelin/contracts-upgradeable/token/ERC20/ERC20Upgradeable.sol\":10787:10819  Approval(owner, spender, amount) */\n      0xffffffffffffffffffffffffffffffffffffffff\n      and\n        /* \"@openzeppelin/contracts-upgradeable/token/ERC20/ERC20Upgradeable.sol\":10796:10801  owner */\n      dup4\n        /* \"@openzeppelin/contracts-upgradeable/token/ERC20/ERC20Upgradeable.sol\":10787:10819  Approval(owner, spender, amount) */\n      0xffffffffffffffffffffffffffffffffffffffff\n      and\n      0x8c5be1e5ebec7d5bd14f71427d1e84f3dd0314c0f7b2291e5b200ac8c7c3b925\n        /* \"@openzeppelin/contracts-upgradeable/token/ERC20/ERC20Upgradeable.sol\":10812:10818  amount */\n      dup4\n        /* \"@openzeppelin/contracts-upgradeable/token/ERC20/ERC20Upgradeable.sol\":10787:10819  Approval(owner, spender, amount) */\n      mload(0x40)\n      tag_244\n      swap2\n      swap1\n      tag_41\n      jump\t// in\n    tag_244:\n      mload(0x40)\n      dup1\n      swap2\n      sub\n      swap1\n      log3\n        /* \"@openzeppelin/contracts-upgradeable/token/ERC20/ERC20Upgradeable.sol\":10456:10826  function _approve(... */\n      pop\n      pop\n      pop\n      jump\t// out\n        /* \"@openzeppelin/contracts-upgradeable/token/ERC20/ERC20Upgradeable.sol\":11107:11548  function _spendAllowance(... */\n    tag_128:\n        /* \"@openzeppelin/contracts-upgradeable/token/ERC20/ERC20Upgradeable.sol\":11237:11261  uint256 currentAllowance */\n      0x00\n        /* \"@openzeppelin/contracts-upgradeable/token/ERC20/ERC20Upgradeable.sol\":11264:11289  allowance(owner, spender) */\n      tag_246\n        /* \"@openzeppelin/contracts-upgradeable/token/ERC20/ERC20Upgradeable.sol\":11274:11279  owner */\n      dup5\n        /* \"@openzeppelin/contracts-upgradeable/token/ERC20/ERC20Upgradeable.sol\":11281:11288  spender */\n      dup5\n        /* \"@openzeppelin/contracts-upgradeable/token/ERC20/ERC20Upgradeable.sol\":11264:11273  allowance */\n      tag_107\n        /* \"@openzeppelin/contracts-upgradeable/token/ERC20/ERC20Upgradeable.sol\":11264:11289  allowance(owner, spender) */\n      jump\t// in\n    tag_246:\n        /* \"@openzeppelin/contracts-upgradeable/token/ERC20/ERC20Upgradeable.sol\":11237:11289  uint256 currentAllowance = allowance(owner, spender) */\n      swap1\n      pop\n        /* \"@openzeppelin/contracts-upgradeable/token/ERC20/ERC20Upgradeable.sol\":11323:11340  type(uint256).max */\n      0xffffffffffffffffffffffffffffffffffffffffffffffffffffffffffffffff\n        /* \"@openzeppelin/contracts-upgradeable/token/ERC20/ERC20Upgradeable.sol\":11303:11319  currentAllowance */\n      dup2\n        /* \"@openzeppelin/contracts-upgradeable/token/ERC20/ERC20Upgradeable.sol\":11303:11340  currentAllowance != type(uint256).max */\n      eq\n        /* \"@openzeppelin/contracts-upgradeable/token/ERC20/ERC20Upgradeable.sol\":11299:11542  if (currentAllowance != type(uint256).max) {... */\n      tag_247\n      jumpi\n        /* \"@openzeppelin/contracts-upgradeable/token/ERC20/ERC20Upgradeable.sol\":11384:11390  amount */\n      dup2\n        /* \"@openzeppelin/contracts-upgradeable/token/ERC20/ERC20Upgradeable.sol\":11364:11380  currentAllowance */\n      dup2\n        /* \"@openzeppelin/contracts-upgradeable/token/ERC20/ERC20Upgradeable.sol\":11364:11390  currentAllowance >= amount */\n      lt\n      iszero\n        /* \"@openzeppelin/contracts-upgradeable/token/ERC20/ERC20Upgradeable.sol\":11356:11424  require(currentAllowance >= amount, \"ERC20: insufficient allowance\") */\n      tag_248\n      jumpi\n      mload(0x40)\n      0x08c379a000000000000000000000000000000000000000000000000000000000\n      dup2\n      mstore\n      0x04\n      add\n      tag_249\n      swap1\n      tag_250\n      jump\t// in\n    tag_249:\n      mload(0x40)\n      dup1\n      swap2\n      sub\n      swap1\n      revert\n    tag_248:\n        /* \"@openzeppelin/contracts-upgradeable/token/ERC20/ERC20Upgradeable.sol\":11466:11517  _approve(owner, spender, currentAllowance - amount) */\n      tag_251\n        /* \"@openzeppelin/contracts-upgradeable/token/ERC20/ERC20Upgradeable.sol\":11475:11480  owner */\n      dup5\n        /* \"@openzeppelin/contracts-upgradeable/token/ERC20/ERC20Upgradeable.sol\":11482:11489  spender */\n      dup5\n        /* \"@openzeppelin/contracts-upgradeable/token/ERC20/ERC20Upgradeable.sol\":11510:11516  amount */\n      dup5\n        /* \"@openzeppelin/contracts-upgradeable/token/ERC20/ERC20Upgradeable.sol\":11491:11507  currentAllowance */\n      dup5\n        /* \"@openzeppelin/contracts-upgradeable/token/ERC20/ERC20Upgradeable.sol\":11491:11516  currentAllowance - amount */\n      sub\n        /* \"@openzeppelin/contracts-upgradeable/token/ERC20/ERC20Upgradeable.sol\":11466:11474  _approve */\n      tag_123\n        /* \"@openzeppelin/contracts-upgradeable/token/ERC20/ERC20Upgradeable.sol\":11466:11517  _approve(owner, spender, currentAllowance - amount) */\n      jump\t// in\n    tag_251:\n        /* \"@openzeppelin/contracts-upgradeable/token/ERC20/ERC20Upgradeable.sol\":11299:11542  if (currentAllowance != type(uint256).max) {... */\n    tag_247:\n        /* \"@openzeppelin/contracts-upgradeable/token/ERC20/ERC20Upgradeable.sol\":11107:11548  function _spendAllowance(... */\n      pop\n      pop\n      pop\n      pop\n      jump\t// out\n        /* \"@openzeppelin/contracts-upgradeable/token/ERC20/ERC20Upgradeable.sol\":7821:8472  function _transfer(... */\n    tag_130:\n        /* \"@openzeppelin/contracts-upgradeable/token/ERC20/ERC20Upgradeable.sol\":7963:7964  0 */\n      0x00\n        /* \"@openzeppelin/contracts-upgradeable/token/ERC20/ERC20Upgradeable.sol\":7947:7965  from != address(0) */\n      0xffffffffffffffffffffffffffffffffffffffff\n      and\n        /* \"@openzeppelin/contracts-upgradeable/token/ERC20/ERC20Upgradeable.sol\":7947:7951  from */\n      dup4\n        /* \"@openzeppelin/contracts-upgradeable/token/ERC20/ERC20Upgradeable.sol\":7947:7965  from != address(0) */\n      0xffffffffffffffffffffffffffffffffffffffff\n      and\n      eq\n      iszero\n        /* \"@openzeppelin/contracts-upgradeable/token/ERC20/ERC20Upgradeable.sol\":7939:8007  require(from != address(0), \"ERC20: transfer from the zero address\") */\n      tag_253\n      jumpi\n      mload(0x40)\n      0x08c379a000000000000000000000000000000000000000000000000000000000\n      dup2\n      mstore\n      0x04\n      add\n      tag_254\n      swap1\n      tag_255\n      jump\t// in\n    tag_254:\n      mload(0x40)\n      dup1\n      swap2\n      sub\n      swap1\n      revert\n    tag_253:\n        /* \"@openzeppelin/contracts-upgradeable/token/ERC20/ERC20Upgradeable.sol\":8039:8040  0 */\n      0x00\n        /* \"@openzeppelin/contracts-upgradeable/token/ERC20/ERC20Upgradeable.sol\":8025:8041  to != address(0) */\n      0xffffffffffffffffffffffffffffffffffffffff\n      and\n        /* \"@openzeppelin/contracts-upgradeable/token/ERC20/ERC20Upgradeable.sol\":8025:8027  to */\n      dup3\n        /* \"@openzeppelin/contracts-upgradeable/token/ERC20/ERC20Upgradeable.sol\":8025:8041  to != address(0) */\n      0xffffffffffffffffffffffffffffffffffffffff\n      and\n      eq\n      iszero\n        /* \"@openzeppelin/contracts-upgradeable/token/ERC20/ERC20Upgradeable.sol\":8017:8081  require(to != address(0), \"ERC20: transfer to the zero address\") */\n      tag_256\n      jumpi\n      mload(0x40)\n      0x08c379a000000000000000000000000000000000000000000000000000000000\n      dup2\n      mstore\n      0x04\n      add\n      tag_257\n      swap1\n      tag_258\n      jump\t// in\n    tag_257:\n      mload(0x40)\n      dup1\n      swap2\n      sub\n      swap1\n      revert\n    tag_256:\n        /* \"@openzeppelin/contracts-upgradeable/token/ERC20/ERC20Upgradeable.sol\":8092:8130  _beforeTokenTransfer(from, to, amount) */\n      tag_259\n        /* \"@openzeppelin/contracts-upgradeable/token/ERC20/ERC20Upgradeable.sol\":8113:8117  from */\n      dup4\n        /* \"@openzeppelin/contracts-upgradeable/token/ERC20/ERC20Upgradeable.sol\":8119:8121  to */\n      dup4\n        /* \"@openzeppelin/contracts-upgradeable/token/ERC20/ERC20Upgradeable.sol\":8123:8129  amount */\n      dup4\n        /* \"@openzeppelin/contracts-upgradeable/token/ERC20/ERC20Upgradeable.sol\":8092:8112  _beforeTokenTransfer */\n      tag_260\n        /* \"@openzeppelin/contracts-upgradeable/token/ERC20/ERC20Upgradeable.sol\":8092:8130  _beforeTokenTransfer(from, to, amount) */\n      jump\t// in\n    tag_259:\n        /* \"@openzeppelin/contracts-upgradeable/token/ERC20/ERC20Upgradeable.sol\":8141:8160  uint256 fromBalance */\n      0x00\n        /* \"@openzeppelin/contracts-upgradeable/token/ERC20/ERC20Upgradeable.sol\":8163:8172  _balances */\n      0x33\n        /* \"@openzeppelin/contracts-upgradeable/token/ERC20/ERC20Upgradeable.sol\":8163:8178  _balances[from] */\n      0x00\n        /* \"@openzeppelin/contracts-upgradeable/token/ERC20/ERC20Upgradeable.sol\":8173:8177  from */\n      dup6\n        /* \"@openzeppelin/contracts-upgradeable/token/ERC20/ERC20Upgradeable.sol\":8163:8178  _balances[from] */\n      0xffffffffffffffffffffffffffffffffffffffff\n      and\n      0xffffffffffffffffffffffffffffffffffffffff\n      and\n      dup2\n      mstore\n      0x20\n      add\n      swap1\n      dup2\n      mstore\n      0x20\n      add\n      0x00\n      keccak256\n      sload\n        /* \"@openzeppelin/contracts-upgradeable/token/ERC20/ERC20Upgradeable.sol\":8141:8178  uint256 fromBalance = _balances[from] */\n      swap1\n      pop\n        /* \"@openzeppelin/contracts-upgradeable/token/ERC20/ERC20Upgradeable.sol\":8211:8217  amount */\n      dup2\n        /* \"@openzeppelin/contracts-upgradeable/token/ERC20/ERC20Upgradeable.sol\":8196:8207  fromBalance */\n      dup2\n        /* \"@openzeppelin/contracts-upgradeable/token/ERC20/ERC20Upgradeable.sol\":8196:8217  fromBalance >= amount */\n      lt\n      iszero\n        /* \"@openzeppelin/contracts-upgradeable/token/ERC20/ERC20Upgradeable.sol\":8188:8260  require(fromBalance >= amount, \"ERC20: transfer amount exceeds balance\") */\n      tag_261\n      jumpi\n      mload(0x40)\n      0x08c379a000000000000000000000000000000000000000000000000000000000\n      dup2\n      mstore\n      0x04\n      add\n      tag_262\n      swap1\n      tag_263\n      jump\t// in\n    tag_262:\n      mload(0x40)\n      dup1\n      swap2\n      sub\n      swap1\n      revert\n    tag_261:\n        /* \"@openzeppelin/contracts-upgradeable/token/ERC20/ERC20Upgradeable.sol\":8326:8332  amount */\n      dup2\n        /* \"@openzeppelin/contracts-upgradeable/token/ERC20/ERC20Upgradeable.sol\":8312:8323  fromBalance */\n      dup2\n        /* \"@openzeppelin/contracts-upgradeable/token/ERC20/ERC20Upgradeable.sol\":8312:8332  fromBalance - amount */\n      sub\n        /* \"@openzeppelin/contracts-upgradeable/token/ERC20/ERC20Upgradeable.sol\":8294:8303  _balances */\n      0x33\n        /* \"@openzeppelin/contracts-upgradeable/token/ERC20/ERC20Upgradeable.sol\":8294:8309  _balances[from] */\n      0x00\n        /* \"@openzeppelin/contracts-upgradeable/token/ERC20/ERC20Upgradeable.sol\":8304:8308  from */\n      dup7\n        /* \"@openzeppelin/contracts-upgradeable/token/ERC20/ERC20Upgradeable.sol\":8294:8309  _balances[from] */\n      0xffffffffffffffffffffffffffffffffffffffff\n      and\n      0xffffffffffffffffffffffffffffffffffffffff\n      and\n      dup2\n      mstore\n      0x20\n      add\n      swap1\n      dup2\n      mstore\n      0x20\n      add\n      0x00\n      keccak256\n        /* \"@openzeppelin/contracts-upgradeable/token/ERC20/ERC20Upgradeable.sol\":8294:8332  _balances[from] = fromBalance - amount */\n      dup2\n      swap1\n      sstore\n      pop\n        /* \"@openzeppelin/contracts-upgradeable/token/ERC20/ERC20Upgradeable.sol\":8369:8375  amount */\n      dup2\n        /* \"@openzeppelin/contracts-upgradeable/token/ERC20/ERC20Upgradeable.sol\":8352:8361  _balances */\n      0x33\n        /* \"@openzeppelin/contracts-upgradeable/token/ERC20/ERC20Upgradeable.sol\":8352:8365  _balances[to] */\n      0x00\n        /* \"@openzeppelin/contracts-upgradeable/token/ERC20/ERC20Upgradeable.sol\":8362:8364  to */\n      dup6\n        /* \"@openzeppelin/contracts-upgradeable/token/ERC20/ERC20Upgradeable.sol\":8352:8365  _balances[to] */\n      0xffffffffffffffffffffffffffffffffffffffff\n      and\n      0xffffffffffffffffffffffffffffffffffffffff\n      and\n      dup2\n      mstore\n      0x20\n      add\n      swap1\n      dup2\n      mstore\n      0x20\n      add\n      0x00\n      keccak256\n      0x00\n        /* \"@openzeppelin/contracts-upgradeable/token/ERC20/ERC20Upgradeable.sol\":8352:8375  _balances[to] += amount */\n      dup3\n      dup3\n      sload\n      tag_264\n      swap2\n      swap1\n      tag_137\n      jump\t// in\n    tag_264:\n      swap3\n      pop\n      pop\n      dup2\n      swap1\n      sstore\n      pop\n        /* \"@openzeppelin/contracts-upgradeable/token/ERC20/ERC20Upgradeable.sol\":8406:8408  to */\n      dup3\n        /* \"@openzeppelin/contracts-upgradeable/token/ERC20/ERC20Upgradeable.sol\":8391:8417  Transfer(from, to, amount) */\n      0xffffffffffffffffffffffffffffffffffffffff\n      and\n        /* \"@openzeppelin/contracts-upgradeable/token/ERC20/ERC20Upgradeable.sol\":8400:8404  from */\n      dup5\n        /* \"@openzeppelin/contracts-upgradeable/token/ERC20/ERC20Upgradeable.sol\":8391:8417  Transfer(from, to, amount) */\n      0xffffffffffffffffffffffffffffffffffffffff\n      and\n      0xddf252ad1be2c89b69c2b068fc378daa952ba7f163c4a11628f55a4df523b3ef\n        /* \"@openzeppelin/contracts-upgradeable/token/ERC20/ERC20Upgradeable.sol\":8410:8416  amount */\n      dup5\n        /* \"@openzeppelin/contracts-upgradeable/token/ERC20/ERC20Upgradeable.sol\":8391:8417  Transfer(from, to, amount) */\n      mload(0x40)\n      tag_265\n      swap2\n      swap1\n      tag_41\n      jump\t// in\n    tag_265:\n      mload(0x40)\n      dup1\n      swap2\n      sub\n      swap1\n      log3\n        /* \"@openzeppelin/contracts-upgradeable/token/ERC20/ERC20Upgradeable.sol\":8428:8465  _afterTokenTransfer(from, to, amount) */\n      tag_266\n        /* \"@openzeppelin/contracts-upgradeable/token/ERC20/ERC20Upgradeable.sol\":8448:8452  from */\n      dup5\n        /* \"@openzeppelin/contracts-upgradeable/token/ERC20/ERC20Upgradeable.sol\":8454:8456  to */\n      dup5\n        /* \"@openzeppelin/contracts-upgradeable/token/ERC20/ERC20Upgradeable.sol\":8458:8464  amount */\n      dup5\n        /* \"@openzeppelin/contracts-upgradeable/token/ERC20/ERC20Upgradeable.sol\":8428:8447  _afterTokenTransfer */\n      tag_267\n        /* \"@openzeppelin/contracts-upgradeable/token/ERC20/ERC20Upgradeable.sol\":8428:8465  _afterTokenTransfer(from, to, amount) */\n      jump\t// in\n    tag_266:\n        /* \"@openzeppelin/contracts-upgradeable/token/ERC20/ERC20Upgradeable.sol\":7821:8472  function _transfer(... */\n      pop\n      pop\n      pop\n      pop\n      jump\t// out\n        /* \"@openzeppelin/contracts-upgradeable/token/ERC20/ERC20Upgradeable.sol\":8748:9137  function _mint(address account, uint256 amount) internal virtual {... */\n    tag_144:\n        /* \"@openzeppelin/contracts-upgradeable/token/ERC20/ERC20Upgradeable.sol\":8850:8851  0 */\n      0x00\n        /* \"@openzeppelin/contracts-upgradeable/token/ERC20/ERC20Upgradeable.sol\":8831:8852  account != address(0) */\n      0xffffffffffffffffffffffffffffffffffffffff\n      and\n        /* \"@openzeppelin/contracts-upgradeable/token/ERC20/ERC20Upgradeable.sol\":8831:8838  account */\n      dup3\n        /* \"@openzeppelin/contracts-upgradeable/token/ERC20/ERC20Upgradeable.sol\":8831:8852  account != address(0) */\n      0xffffffffffffffffffffffffffffffffffffffff\n      and\n      eq\n      iszero\n        /* \"@openzeppelin/contracts-upgradeable/token/ERC20/ERC20Upgradeable.sol\":8823:8888  require(account != address(0), \"ERC20: mint to the zero address\") */\n      tag_269\n      jumpi\n      mload(0x40)\n      0x08c379a000000000000000000000000000000000000000000000000000000000\n      dup2\n      mstore\n      0x04\n      add\n      tag_270\n      swap1\n      tag_271\n      jump\t// in\n    tag_270:\n      mload(0x40)\n      dup1\n      swap2\n      sub\n      swap1\n      revert\n    tag_269:\n        /* \"@openzeppelin/contracts-upgradeable/token/ERC20/ERC20Upgradeable.sol\":8899:8948  _beforeTokenTransfer(address(0), account, amount) */\n      tag_272\n        /* \"@openzeppelin/contracts-upgradeable/token/ERC20/ERC20Upgradeable.sol\":8928:8929  0 */\n      0x00\n        /* \"@openzeppelin/contracts-upgradeable/token/ERC20/ERC20Upgradeable.sol\":8932:8939  account */\n      dup4\n        /* \"@openzeppelin/contracts-upgradeable/token/ERC20/ERC20Upgradeable.sol\":8941:8947  amount */\n      dup4\n        /* \"@openzeppelin/contracts-upgradeable/token/ERC20/ERC20Upgradeable.sol\":8899:8919  _beforeTokenTransfer */\n      tag_260\n        /* \"@openzeppelin/contracts-upgradeable/token/ERC20/ERC20Upgradeable.sol\":8899:8948  _beforeTokenTransfer(address(0), account, amount) */\n      jump\t// in\n    tag_272:\n        /* \"@openzeppelin/contracts-upgradeable/token/ERC20/ERC20Upgradeable.sol\":8975:8981  amount */\n      dup1\n        /* \"@openzeppelin/contracts-upgradeable/token/ERC20/ERC20Upgradeable.sol\":8959:8971  _totalSupply */\n      0x35\n      0x00\n        /* \"@openzeppelin/contracts-upgradeable/token/ERC20/ERC20Upgradeable.sol\":8959:8981  _totalSupply += amount */\n      dup3\n      dup3\n      sload\n      tag_273\n      swap2\n      swap1\n      tag_137\n      jump\t// in\n    tag_273:\n      swap3\n      pop\n      pop\n      dup2\n      swap1\n      sstore\n      pop\n        /* \"@openzeppelin/contracts-upgradeable/token/ERC20/ERC20Upgradeable.sol\":9013:9019  amount */\n      dup1\n        /* \"@openzeppelin/contracts-upgradeable/token/ERC20/ERC20Upgradeable.sol\":8991:9000  _balances */\n      0x33\n        /* \"@openzeppelin/contracts-upgradeable/token/ERC20/ERC20Upgradeable.sol\":8991:9009  _balances[account] */\n      0x00\n        /* \"@openzeppelin/contracts-upgradeable/token/ERC20/ERC20Upgradeable.sol\":9001:9008  account */\n      dup5\n        /* \"@openzeppelin/contracts-upgradeable/token/ERC20/ERC20Upgradeable.sol\":8991:9009  _balances[account] */\n      0xffffffffffffffffffffffffffffffffffffffff\n      and\n      0xffffffffffffffffffffffffffffffffffffffff\n      and\n      dup2\n      mstore\n      0x20\n      add\n      swap1\n      dup2\n      mstore\n      0x20\n      add\n      0x00\n      keccak256\n      0x00\n        /* \"@openzeppelin/contracts-upgradeable/token/ERC20/ERC20Upgradeable.sol\":8991:9019  _balances[account] += amount */\n      dup3\n      dup3\n      sload\n      tag_274\n      swap2\n      swap1\n      tag_137\n      jump\t// in\n    tag_274:\n      swap3\n      pop\n      pop\n      dup2\n      swap1\n      sstore\n      pop\n        /* \"@openzeppelin/contracts-upgradeable/token/ERC20/ERC20Upgradeable.sol\":9055:9062  account */\n      dup2\n        /* \"@openzeppelin/contracts-upgradeable/token/ERC20/ERC20Upgradeable.sol\":9034:9071  Transfer(address(0), account, amount) */\n      0xffffffffffffffffffffffffffffffffffffffff\n      and\n        /* \"@openzeppelin/contracts-upgradeable/token/ERC20/ERC20Upgradeable.sol\":9051:9052  0 */\n      0x00\n        /* \"@openzeppelin/contracts-upgradeable/token/ERC20/ERC20Upgradeable.sol\":9034:9071  Transfer(address(0), account, amount) */\n      0xffffffffffffffffffffffffffffffffffffffff\n      and\n      0xddf252ad1be2c89b69c2b068fc378daa952ba7f163c4a11628f55a4df523b3ef\n        /* \"@openzeppelin/contracts-upgradeable/token/ERC20/ERC20Upgradeable.sol\":9064:9070  amount */\n      dup4\n        /* \"@openzeppelin/contracts-upgradeable/token/ERC20/ERC20Upgradeable.sol\":9034:9071  Transfer(address(0), account, amount) */\n      mload(0x40)\n      tag_275\n      swap2\n      swap1\n      tag_41\n      jump\t// in\n    tag_275:\n      mload(0x40)\n      dup1\n      swap2\n      sub\n      swap1\n      log3\n        /* \"@openzeppelin/contracts-upgradeable/token/ERC20/ERC20Upgradeable.sol\":9082:9130  _afterTokenTransfer(address(0), account, amount) */\n      tag_276\n        /* \"@openzeppelin/contracts-upgradeable/token/ERC20/ERC20Upgradeable.sol\":9110:9111  0 */\n      0x00\n        /* \"@openzeppelin/contracts-upgradeable/token/ERC20/ERC20Upgradeable.sol\":9114:9121  account */\n      dup4\n        /* \"@openzeppelin/contracts-upgradeable/token/ERC20/ERC20Upgradeable.sol\":9123:9129  amount */\n      dup4\n        /* \"@openzeppelin/contracts-upgradeable/token/ERC20/ERC20Upgradeable.sol\":9082:9101  _afterTokenTransfer */\n      tag_267\n        /* \"@openzeppelin/contracts-upgradeable/token/ERC20/ERC20Upgradeable.sol\":9082:9130  _afterTokenTransfer(address(0), account, amount) */\n      jump\t// in\n    tag_276:\n        /* \"@openzeppelin/contracts-upgradeable/token/ERC20/ERC20Upgradeable.sol\":8748:9137  function _mint(address account, uint256 amount) internal virtual {... */\n      pop\n      pop\n      jump\t// out\n        /* \"@openzeppelin/contracts-upgradeable/proxy/utils/Initializable.sol\":5287:6095  function _setInitializedVersion(uint8 version) private returns (bool) {... */\n    tag_147:\n        /* \"@openzeppelin/contracts-upgradeable/proxy/utils/Initializable.sol\":5351:5355  bool */\n      0x00\n        /* \"@openzeppelin/contracts-upgradeable/proxy/utils/Initializable.sol\":5684:5697  _initializing */\n      dup1\n      0x01\n      swap1\n      sload\n      swap1\n      0x0100\n      exp\n      swap1\n      div\n      0xff\n      and\n        /* \"@openzeppelin/contracts-upgradeable/proxy/utils/Initializable.sol\":5680:6089  if (_initializing) {... */\n      iszero\n      tag_278\n      jumpi\n        /* \"@openzeppelin/contracts-upgradeable/proxy/utils/Initializable.sol\":5749:5750  1 */\n      0x01\n        /* \"@openzeppelin/contracts-upgradeable/proxy/utils/Initializable.sol\":5738:5745  version */\n      dup3\n        /* \"@openzeppelin/contracts-upgradeable/proxy/utils/Initializable.sol\":5738:5750  version == 1 */\n      0xff\n      and\n      eq\n        /* \"@openzeppelin/contracts-upgradeable/proxy/utils/Initializable.sol\":5738:5799  version == 1 && !AddressUpgradeable.isContract(address(this)) */\n      dup1\n      iszero\n      tag_279\n      jumpi\n      pop\n        /* \"@openzeppelin/contracts-upgradeable/proxy/utils/Initializable.sol\":5755:5799  AddressUpgradeable.isContract(address(this)) */\n      tag_280\n        /* \"@openzeppelin/contracts-upgradeable/proxy/utils/Initializable.sol\":5793:5797  this */\n      address\n        /* \"@openzeppelin/contracts-upgradeable/proxy/utils/Initializable.sol\":5755:5784  AddressUpgradeable.isContract */\n      tag_281\n        /* \"@openzeppelin/contracts-upgradeable/proxy/utils/Initializable.sol\":5755:5799  AddressUpgradeable.isContract(address(this)) */\n      jump\t// in\n    tag_280:\n        /* \"@openzeppelin/contracts-upgradeable/proxy/utils/Initializable.sol\":5754:5799  !AddressUpgradeable.isContract(address(this)) */\n      iszero\n        /* \"@openzeppelin/contracts-upgradeable/proxy/utils/Initializable.sol\":5738:5799  version == 1 && !AddressUpgradeable.isContract(address(this)) */\n    tag_279:\n        /* \"@openzeppelin/contracts-upgradeable/proxy/utils/Initializable.sol\":5713:5879  require(... */\n      tag_282\n      jumpi\n      mload(0x40)\n      0x08c379a000000000000000000000000000000000000000000000000000000000\n      dup2\n      mstore\n      0x04\n      add\n      tag_283\n      swap1\n      tag_284\n      jump\t// in\n    tag_283:\n      mload(0x40)\n      dup1\n      swap2\n      sub\n      swap1\n      revert\n    tag_282:\n        /* \"@openzeppelin/contracts-upgradeable/proxy/utils/Initializable.sol\":5900:5905  false */\n      0x00\n        /* \"@openzeppelin/contracts-upgradeable/proxy/utils/Initializable.sol\":5893:5905  return false */\n      swap1\n      pop\n      jump(tag_277)\n        /* \"@openzeppelin/contracts-upgradeable/proxy/utils/Initializable.sol\":5680:6089  if (_initializing) {... */\n    tag_278:\n        /* \"@openzeppelin/contracts-upgradeable/proxy/utils/Initializable.sol\":5959:5966  version */\n      dup2\n        /* \"@openzeppelin/contracts-upgradeable/proxy/utils/Initializable.sol\":5944:5966  _initialized < version */\n      0xff\n      and\n        /* \"@openzeppelin/contracts-upgradeable/proxy/utils/Initializable.sol\":5944:5956  _initialized */\n      0x00\n      dup1\n      sload\n      swap1\n      0x0100\n      exp\n      swap1\n      div\n      0xff\n      and\n        /* \"@openzeppelin/contracts-upgradeable/proxy/utils/Initializable.sol\":5944:5966  _initialized < version */\n      0xff\n      and\n      lt\n        /* \"@openzeppelin/contracts-upgradeable/proxy/utils/Initializable.sol\":5936:6017  require(_initialized < version, \"Initializable: contract is already initialized\") */\n      tag_286\n      jumpi\n      mload(0x40)\n      0x08c379a000000000000000000000000000000000000000000000000000000000\n      dup2\n      mstore\n      0x04\n      add\n      tag_287\n      swap1\n      tag_284\n      jump\t// in\n    tag_287:\n      mload(0x40)\n      dup1\n      swap2\n      sub\n      swap1\n      revert\n    tag_286:\n        /* \"@openzeppelin/contracts-upgradeable/proxy/utils/Initializable.sol\":6046:6053  version */\n      dup2\n        /* \"@openzeppelin/contracts-upgradeable/proxy/utils/Initializable.sol\":6031:6043  _initialized */\n      0x00\n      dup1\n        /* \"@openzeppelin/contracts-upgradeable/proxy/utils/Initializable.sol\":6031:6053  _initialized = version */\n      0x0100\n      exp\n      dup2\n      sload\n      dup2\n      0xff\n      mul\n      not\n      and\n      swap1\n      dup4\n      0xff\n      and\n      mul\n      or\n      swap1\n      sstore\n      pop\n        /* \"@openzeppelin/contracts-upgradeable/proxy/utils/Initializable.sol\":6074:6078  true */\n      0x01\n        /* \"@openzeppelin/contracts-upgradeable/proxy/utils/Initializable.sol\":6067:6078  return true */\n      swap1\n      pop\n        /* \"@openzeppelin/contracts-upgradeable/proxy/utils/Initializable.sol\":5287:6095  function _setInitializedVersion(uint8 version) private returns (bool) {... */\n    tag_277:\n      swap2\n      swap1\n      pop\n      jump\t// out\n        /* \"@openzeppelin/contracts-upgradeable/token/ERC20/ERC20Upgradeable.sol\":2116:2263  function __ERC20_init(string memory name_, string memory symbol_) internal onlyInitializing {... */\n    tag_151:\n        /* \"@openzeppelin/contracts-upgradeable/proxy/utils/Initializable.sol\":4698:4711  _initializing */\n      0x00\n      0x01\n      swap1\n      sload\n      swap1\n      0x0100\n      exp\n      swap1\n      div\n      0xff\n      and\n        /* \"@openzeppelin/contracts-upgradeable/proxy/utils/Initializable.sol\":4690:4759  require(_initializing, \"Initializable: contract is not initializing\") */\n      tag_289\n      jumpi\n      mload(0x40)\n      0x08c379a000000000000000000000000000000000000000000000000000000000\n      dup2\n      mstore\n      0x04\n      add\n      tag_290\n      swap1\n      tag_291\n      jump\t// in\n    tag_290:\n      mload(0x40)\n      dup1\n      swap2\n      sub\n      swap1\n      revert\n    tag_289:\n        /* \"@openzeppelin/contracts-upgradeable/token/ERC20/ERC20Upgradeable.sol\":2218:2256  __ERC20_init_unchained(name_, symbol_) */\n      tag_293\n        /* \"@openzeppelin/contracts-upgradeable/token/ERC20/ERC20Upgradeable.sol\":2241:2246  name_ */\n      dup3\n        /* \"@openzeppelin/contracts-upgradeable/token/ERC20/ERC20Upgradeable.sol\":2248:2255  symbol_ */\n      dup3\n        /* \"@openzeppelin/contracts-upgradeable/token/ERC20/ERC20Upgradeable.sol\":2218:2240  __ERC20_init_unchained */\n      tag_294\n        /* \"@openzeppelin/contracts-upgradeable/token/ERC20/ERC20Upgradeable.sol\":2218:2256  __ERC20_init_unchained(name_, symbol_) */\n      jump\t// in\n    tag_293:\n        /* \"@openzeppelin/contracts-upgradeable/token/ERC20/ERC20Upgradeable.sol\":2116:2263  function __ERC20_init(string memory name_, string memory symbol_) internal onlyInitializing {... */\n      pop\n      pop\n      jump\t// out\n        /* \"@openzeppelin/contracts-upgradeable/access/OwnableUpgradeable.sol\":988:1083  function __Ownable_init() internal onlyInitializing {... */\n    tag_153:\n        /* \"@openzeppelin/contracts-upgradeable/proxy/utils/Initializable.sol\":4698:4711  _initializing */\n      0x00\n      0x01\n      swap1\n      sload\n      swap1\n      0x0100\n      exp\n      swap1\n      div\n      0xff\n      and\n        /* \"@openzeppelin/contracts-upgradeable/proxy/utils/Initializable.sol\":4690:4759  require(_initializing, \"Initializable: contract is not initializing\") */\n      tag_296\n      jumpi\n      mload(0x40)\n      0x08c379a000000000000000000000000000000000000000000000000000000000\n      dup2\n      mstore\n      0x04\n      add\n      tag_297\n      swap1\n      tag_291\n      jump\t// in\n    tag_297:\n      mload(0x40)\n      dup1\n      swap2\n      sub\n      swap1\n      revert\n    tag_296:\n        /* \"@openzeppelin/contracts-upgradeable/access/OwnableUpgradeable.sol\":1050:1076  __Ownable_init_unchained() */\n      tag_299\n        /* \"@openzeppelin/contracts-upgradeable/access/OwnableUpgradeable.sol\":1050:1074  __Ownable_init_unchained */\n      tag_300\n        /* \"@openzeppelin/contracts-upgradeable/access/OwnableUpgradeable.sol\":1050:1076  __Ownable_init_unchained() */\n      jump\t// in\n    tag_299:\n        /* \"@openzeppelin/contracts-upgradeable/access/OwnableUpgradeable.sol\":988:1083  function __Ownable_init() internal onlyInitializing {... */\n      jump\t// out\n        /* \"@openzeppelin/contracts-upgradeable/security/PausableUpgradeable.sol\":1048:1145  function __Pausable_init() internal onlyInitializing {... */\n    tag_155:\n        /* \"@openzeppelin/contracts-upgradeable/proxy/utils/Initializable.sol\":4698:4711  _initializing */\n      0x00\n      0x01\n      swap1\n      sload\n      swap1\n      0x0100\n      exp\n      swap1\n      div\n      0xff\n      and\n        /* \"@openzeppelin/contracts-upgradeable/proxy/utils/Initializable.sol\":4690:4759  require(_initializing, \"Initializable: contract is not initializing\") */\n      tag_302\n      jumpi\n      mload(0x40)\n      0x08c379a000000000000000000000000000000000000000000000000000000000\n      dup2\n      mstore\n      0x04\n      add\n      tag_303\n      swap1\n      tag_291\n      jump\t// in\n    tag_303:\n      mload(0x40)\n      dup1\n      swap2\n      sub\n      swap1\n      revert\n    tag_302:\n        /* \"@openzeppelin/contracts-upgradeable/security/PausableUpgradeable.sol\":1111:1138  __Pausable_init_unchained() */\n      tag_305\n        /* \"@openzeppelin/contracts-upgradeable/security/PausableUpgradeable.sol\":1111:1136  __Pausable_init_unchained */\n      tag_306\n        /* \"@openzeppelin/contracts-upgradeable/security/PausableUpgradeable.sol\":1111:1138  __Pausable_init_unchained() */\n      jump\t// in\n    tag_305:\n        /* \"@openzeppelin/contracts-upgradeable/security/PausableUpgradeable.sol\":1048:1145  function __Pausable_init() internal onlyInitializing {... */\n      jump\t// out\n        /* \"@openzeppelin/contracts-upgradeable/access/OwnableUpgradeable.sol\":2510:2697  function _transferOwnership(address newOwner) internal virtual {... */\n    tag_194:\n        /* \"@openzeppelin/contracts-upgradeable/access/OwnableUpgradeable.sol\":2583:2599  address oldOwner */\n      0x00\n        /* \"@openzeppelin/contracts-upgradeable/access/OwnableUpgradeable.sol\":2602:2608  _owner */\n      0x65\n      0x00\n      swap1\n      sload\n      swap1\n      0x0100\n      exp\n      swap1\n      div\n      0xffffffffffffffffffffffffffffffffffffffff\n      and\n        /* \"@openzeppelin/contracts-upgradeable/access/OwnableUpgradeable.sol\":2583:2608  address oldOwner = _owner */\n      swap1\n      pop\n        /* \"@openzeppelin/contracts-upgradeable/access/OwnableUpgradeable.sol\":2627:2635  newOwner */\n      dup2\n        /* \"@openzeppelin/contracts-upgradeable/access/OwnableUpgradeable.sol\":2618:2624  _owner */\n      0x65\n      0x00\n        /* \"@openzeppelin/contracts-upgradeable/access/OwnableUpgradeable.sol\":2618:2635  _owner = newOwner */\n      0x0100\n      exp\n      dup2\n      sload\n      dup2\n      0xffffffffffffffffffffffffffffffffffffffff\n      mul\n      not\n      and\n      swap1\n      dup4\n      0xffffffffffffffffffffffffffffffffffffffff\n      and\n      mul\n      or\n      swap1\n      sstore\n      pop\n        /* \"@openzeppelin/contracts-upgradeable/access/OwnableUpgradeable.sol\":2681:2689  newOwner */\n      dup2\n        /* \"@openzeppelin/contracts-upgradeable/access/OwnableUpgradeable.sol\":2650:2690  OwnershipTransferred(oldOwner, newOwner) */\n      0xffffffffffffffffffffffffffffffffffffffff\n      and\n        /* \"@openzeppelin/contracts-upgradeable/access/OwnableUpgradeable.sol\":2671:2679  oldOwner */\n      dup2\n        /* \"@openzeppelin/contracts-upgradeable/access/OwnableUpgradeable.sol\":2650:2690  OwnershipTransferred(oldOwner, newOwner) */\n      0xffffffffffffffffffffffffffffffffffffffff\n      and\n      0x8be0079c531659141344cd1fd0a4f28419497f9722a3daafe3b4186f6b6457e0\n      mload(0x40)\n      mload(0x40)\n      dup1\n      swap2\n      sub\n      swap1\n      log3\n        /* \"@openzeppelin/contracts-upgradeable/access/OwnableUpgradeable.sol\":2510:2697  function _transferOwnership(address newOwner) internal virtual {... */\n      pop\n      pop\n      jump\t// out\n        /* \"@openzeppelin/contracts-upgradeable/token/ERC20/ERC20Upgradeable.sol\":12132:12253  function _beforeTokenTransfer(... */\n    tag_260:\n      pop\n      pop\n      pop\n      jump\t// out\n        /* \"@openzeppelin/contracts-upgradeable/token/ERC20/ERC20Upgradeable.sol\":12841:12961  function _afterTokenTransfer(... */\n    tag_267:\n      pop\n      pop\n      pop\n      jump\t// out\n        /* \"@openzeppelin/contracts-upgradeable/utils/AddressUpgradeable.sol\":1186:1506  function isContract(address account) internal view returns (bool) {... */\n    tag_281:\n        /* \"@openzeppelin/contracts-upgradeable/utils/AddressUpgradeable.sol\":1246:1250  bool */\n      0x00\n        /* \"@openzeppelin/contracts-upgradeable/utils/AddressUpgradeable.sol\":1498:1499  0 */\n      dup1\n        /* \"@openzeppelin/contracts-upgradeable/utils/AddressUpgradeable.sol\":1476:1483  account */\n      dup3\n        /* \"@openzeppelin/contracts-upgradeable/utils/AddressUpgradeable.sol\":1476:1495  account.code.length */\n      0xffffffffffffffffffffffffffffffffffffffff\n      and\n      extcodesize\n        /* \"@openzeppelin/contracts-upgradeable/utils/AddressUpgradeable.sol\":1476:1499  account.code.length > 0 */\n      gt\n        /* \"@openzeppelin/contracts-upgradeable/utils/AddressUpgradeable.sol\":1469:1499  return account.code.length > 0 */\n      swap1\n      pop\n        /* \"@openzeppelin/contracts-upgradeable/utils/AddressUpgradeable.sol\":1186:1506  function isContract(address account) internal view returns (bool) {... */\n      swap2\n      swap1\n      pop\n      jump\t// out\n        /* \"@openzeppelin/contracts-upgradeable/token/ERC20/ERC20Upgradeable.sol\":2269:2428  function __ERC20_init_unchained(string memory name_, string memory symbol_) internal onlyInitializing {... */\n    tag_294:\n        /* \"@openzeppelin/contracts-upgradeable/proxy/utils/Initializable.sol\":4698:4711  _initializing */\n      0x00\n      0x01\n      swap1\n      sload\n      swap1\n      0x0100\n      exp\n      swap1\n      div\n      0xff\n      and\n        /* \"@openzeppelin/contracts-upgradeable/proxy/utils/Initializable.sol\":4690:4759  require(_initializing, \"Initializable: contract is not initializing\") */\n      tag_312\n      jumpi\n      mload(0x40)\n      0x08c379a000000000000000000000000000000000000000000000000000000000\n      dup2\n      mstore\n      0x04\n      add\n      tag_313\n      swap1\n      tag_291\n      jump\t// in\n    tag_313:\n      mload(0x40)\n      dup1\n      swap2\n      sub\n      swap1\n      revert\n    tag_312:\n        /* \"@openzeppelin/contracts-upgradeable/token/ERC20/ERC20Upgradeable.sol\":2389:2394  name_ */\n      dup2\n        /* \"@openzeppelin/contracts-upgradeable/token/ERC20/ERC20Upgradeable.sol\":2381:2386  _name */\n      0x36\n        /* \"@openzeppelin/contracts-upgradeable/token/ERC20/ERC20Upgradeable.sol\":2381:2394  _name = name_ */\n      swap1\n      dup1\n      mload\n      swap1\n      0x20\n      add\n      swap1\n      tag_315\n      swap3\n      swap2\n      swap1\n      tag_316\n      jump\t// in\n    tag_315:\n      pop\n        /* \"@openzeppelin/contracts-upgradeable/token/ERC20/ERC20Upgradeable.sol\":2414:2421  symbol_ */\n      dup1\n        /* \"@openzeppelin/contracts-upgradeable/token/ERC20/ERC20Upgradeable.sol\":2404:2411  _symbol */\n      0x37\n        /* \"@openzeppelin/contracts-upgradeable/token/ERC20/ERC20Upgradeable.sol\":2404:2421  _symbol = symbol_ */\n      swap1\n      dup1\n      mload\n      swap1\n      0x20\n      add\n      swap1\n      tag_317\n      swap3\n      swap2\n      swap1\n      tag_316\n      jump\t// in\n    tag_317:\n      pop\n        /* \"@openzeppelin/contracts-upgradeable/token/ERC20/ERC20Upgradeable.sol\":2269:2428  function __ERC20_init_unchained(string memory name_, string memory symbol_) internal onlyInitializing {... */\n      pop\n      pop\n      jump\t// out\n        /* \"@openzeppelin/contracts-upgradeable/access/OwnableUpgradeable.sol\":1089:1200  function __Ownable_init_unchained() internal onlyInitializing {... */\n    tag_300:\n        /* \"@openzeppelin/contracts-upgradeable/proxy/utils/Initializable.sol\":4698:4711  _initializing */\n      0x00\n      0x01\n      swap1\n      sload\n      swap1\n      0x0100\n      exp\n      swap1\n      div\n      0xff\n      and\n        /* \"@openzeppelin/contracts-upgradeable/proxy/utils/Initializable.sol\":4690:4759  require(_initializing, \"Initializable: contract is not initializing\") */\n      tag_319\n      jumpi\n      mload(0x40)\n      0x08c379a000000000000000000000000000000000000000000000000000000000\n      dup2\n      mstore\n      0x04\n      add\n      tag_320\n      swap1\n      tag_291\n      jump\t// in\n    tag_320:\n      mload(0x40)\n      dup1\n      swap2\n      sub\n      swap1\n      revert\n    tag_319:\n        /* \"@openzeppelin/contracts-upgradeable/access/OwnableUpgradeable.sol\":1161:1193  _transferOwnership(_msgSender()) */\n      tag_322\n        /* \"@openzeppelin/contracts-upgradeable/access/OwnableUpgradeable.sol\":1180:1192  _msgSender() */\n      tag_323\n        /* \"@openzeppelin/contracts-upgradeable/access/OwnableUpgradeable.sol\":1180:1190  _msgSender */\n      tag_121\n        /* \"@openzeppelin/contracts-upgradeable/access/OwnableUpgradeable.sol\":1180:1192  _msgSender() */\n      jump\t// in\n    tag_323:\n        /* \"@openzeppelin/contracts-upgradeable/access/OwnableUpgradeable.sol\":1161:1179  _transferOwnership */\n      tag_194\n        /* \"@openzeppelin/contracts-upgradeable/access/OwnableUpgradeable.sol\":1161:1193  _transferOwnership(_msgSender()) */\n      jump\t// in\n    tag_322:\n        /* \"@openzeppelin/contracts-upgradeable/access/OwnableUpgradeable.sol\":1089:1200  function __Ownable_init_unchained() internal onlyInitializing {... */\n      jump\t// out\n        /* \"@openzeppelin/contracts-upgradeable/security/PausableUpgradeable.sol\":1151:1246  function __Pausable_init_unchained() internal onlyInitializing {... */\n    tag_306:\n        /* \"@openzeppelin/contracts-upgradeable/proxy/utils/Initializable.sol\":4698:4711  _initializing */\n      0x00\n      0x01\n      swap1\n      sload\n      swap1\n      0x0100\n      exp\n      swap1\n      div\n      0xff\n      and\n        /* \"@openzeppelin/contracts-upgradeable/proxy/utils/Initializable.sol\":4690:4759  require(_initializing, \"Initializable: contract is not initializing\") */\n      tag_325\n      jumpi\n      mload(0x40)\n      0x08c379a000000000000000000000000000000000000000000000000000000000\n      dup2\n      mstore\n      0x04\n      add\n      tag_326\n      swap1\n      tag_291\n      jump\t// in\n    tag_326:\n      mload(0x40)\n      dup1\n      swap2\n      sub\n      swap1\n      revert\n    tag_325:\n        /* \"@openzeppelin/contracts-upgradeable/security/PausableUpgradeable.sol\":1234:1239  false */\n      0x00\n        /* \"@openzeppelin/contracts-upgradeable/security/PausableUpgradeable.sol\":1224:1231  _paused */\n      0x97\n      0x00\n        /* \"@openzeppelin/contracts-upgradeable/security/PausableUpgradeable.sol\":1224:1239  _paused = false */\n      0x0100\n      exp\n      dup2\n      sload\n      dup2\n      0xff\n      mul\n      not\n      and\n      swap1\n      dup4\n      iszero\n      iszero\n      mul\n      or\n      swap1\n      sstore\n      pop\n        /* \"@openzeppelin/contracts-upgradeable/security/PausableUpgradeable.sol\":1151:1246  function __Pausable_init_unchained() internal onlyInitializing {... */\n      jump\t// out\n    tag_316:\n      dup3\n      dup1\n      sload\n      tag_328\n      swap1\n      tag_114\n      jump\t// in\n    tag_328:\n      swap1\n      0x00\n      mstore\n      keccak256(0x00, 0x20)\n      swap1\n      0x1f\n      add\n      0x20\n      swap1\n      div\n      dup2\n      add\n      swap3\n      dup3\n      tag_330\n      jumpi\n      0x00\n      dup6\n      sstore\n      jump(tag_329)\n    tag_330:\n      dup3\n      0x1f\n      lt\n      tag_331\n      jumpi\n      dup1\n      mload\n      not(0xff)\n      and\n      dup4\n      dup1\n      add\n      or\n      dup6\n      sstore\n      jump(tag_329)\n    tag_331:\n      dup3\n      dup1\n      add\n      0x01\n      add\n      dup6\n      sstore\n      dup3\n      iszero\n      tag_329\n      jumpi\n      swap2\n      dup3\n      add\n    tag_332:\n      dup3\n      dup2\n      gt\n      iszero\n      tag_333\n      jumpi\n      dup3\n      mload\n      dup3\n      sstore\n      swap2\n      0x20\n      add\n      swap2\n      swap1\n      0x01\n      add\n      swap1\n      jump(tag_332)\n    tag_333:\n    tag_329:\n      pop\n      swap1\n      pop\n      tag_334\n      swap2\n      swap1\n      tag_335\n      jump\t// in\n    tag_334:\n      pop\n      swap1\n      jump\t// out\n    tag_335:\n    tag_336:\n      dup1\n      dup3\n      gt\n      iszero\n      tag_337\n      jumpi\n      0x00\n      dup2\n      0x00\n      swap1\n      sstore\n      pop\n      0x01\n      add\n      jump(tag_336)\n    tag_337:\n      pop\n      swap1\n      jump\t// out\n        /* \"#utility.yul\":7:352   */\n    tag_339:\n        /* \"#utility.yul\":85:90   */\n      0x00\n        /* \"#utility.yul\":110:176   */\n      tag_341\n        /* \"#utility.yul\":126:175   */\n      tag_342\n        /* \"#utility.yul\":168:174   */\n      dup5\n        /* \"#utility.yul\":126:175   */\n      tag_343\n      jump\t// in\n    tag_342:\n        /* \"#utility.yul\":110:176   */\n      tag_344\n      jump\t// in\n    tag_341:\n        /* \"#utility.yul\":101:176   */\n      swap1\n      pop\n        /* \"#utility.yul\":199:205   */\n      dup3\n        /* \"#utility.yul\":192:197   */\n      dup2\n        /* \"#utility.yul\":185:206   */\n      mstore\n        /* \"#utility.yul\":237:241   */\n      0x20\n        /* \"#utility.yul\":230:235   */\n      dup2\n        /* \"#utility.yul\":226:242   */\n      add\n        /* \"#utility.yul\":275:278   */\n      dup5\n        /* \"#utility.yul\":266:272   */\n      dup5\n        /* \"#utility.yul\":261:264   */\n      dup5\n        /* \"#utility.yul\":257:273   */\n      add\n        /* \"#utility.yul\":254:279   */\n      gt\n        /* \"#utility.yul\":251:253   */\n      iszero\n      tag_345\n      jumpi\n        /* \"#utility.yul\":292:293   */\n      0x00\n        /* \"#utility.yul\":289:290   */\n      dup1\n        /* \"#utility.yul\":282:294   */\n      revert\n        /* \"#utility.yul\":251:253   */\n    tag_345:\n        /* \"#utility.yul\":305:346   */\n      tag_346\n        /* \"#utility.yul\":339:345   */\n      dup5\n        /* \"#utility.yul\":334:337   */\n      dup3\n        /* \"#utility.yul\":329:332   */\n      dup6\n        /* \"#utility.yul\":305:346   */\n      tag_347\n      jump\t// in\n    tag_346:\n        /* \"#utility.yul\":91:352   */\n      pop\n      swap4\n      swap3\n      pop\n      pop\n      pop\n      jump\t// out\n        /* \"#utility.yul\":358:497   */\n    tag_348:\n        /* \"#utility.yul\":404:409   */\n      0x00\n        /* \"#utility.yul\":442:448   */\n      dup2\n        /* \"#utility.yul\":429:449   */\n      calldataload\n        /* \"#utility.yul\":420:449   */\n      swap1\n      pop\n        /* \"#utility.yul\":458:491   */\n      tag_350\n        /* \"#utility.yul\":485:490   */\n      dup2\n        /* \"#utility.yul\":458:491   */\n      tag_351\n      jump\t// in\n    tag_350:\n        /* \"#utility.yul\":410:497   */\n      swap3\n      swap2\n      pop\n      pop\n      jump\t// out\n        /* \"#utility.yul\":503:646   */\n    tag_352:\n        /* \"#utility.yul\":560:565   */\n      0x00\n        /* \"#utility.yul\":591:597   */\n      dup2\n        /* \"#utility.yul\":585:598   */\n      mload\n        /* \"#utility.yul\":576:598   */\n      swap1\n      pop\n        /* \"#utility.yul\":607:640   */\n      tag_354\n        /* \"#utility.yul\":634:639   */\n      dup2\n        /* \"#utility.yul\":607:640   */\n      tag_351\n      jump\t// in\n    tag_354:\n        /* \"#utility.yul\":566:646   */\n      swap3\n      swap2\n      pop\n      pop\n      jump\t// out\n        /* \"#utility.yul\":666:939   */\n    tag_355:\n        /* \"#utility.yul\":722:727   */\n      0x00\n        /* \"#utility.yul\":771:774   */\n      dup3\n        /* \"#utility.yul\":764:768   */\n      0x1f\n        /* \"#utility.yul\":756:762   */\n      dup4\n        /* \"#utility.yul\":752:769   */\n      add\n        /* \"#utility.yul\":748:775   */\n      slt\n        /* \"#utility.yul\":738:740   */\n      tag_357\n      jumpi\n        /* \"#utility.yul\":789:790   */\n      0x00\n        /* \"#utility.yul\":786:787   */\n      dup1\n        /* \"#utility.yul\":779:791   */\n      revert\n        /* \"#utility.yul\":738:740   */\n    tag_357:\n        /* \"#utility.yul\":829:835   */\n      dup2\n        /* \"#utility.yul\":816:836   */\n      calldataload\n        /* \"#utility.yul\":854:933   */\n      tag_358\n        /* \"#utility.yul\":929:932   */\n      dup5\n        /* \"#utility.yul\":921:927   */\n      dup3\n        /* \"#utility.yul\":914:918   */\n      0x20\n        /* \"#utility.yul\":906:912   */\n      dup7\n        /* \"#utility.yul\":902:919   */\n      add\n        /* \"#utility.yul\":854:933   */\n      tag_339\n      jump\t// in\n    tag_358:\n        /* \"#utility.yul\":845:933   */\n      swap2\n      pop\n        /* \"#utility.yul\":728:939   */\n      pop\n      swap3\n      swap2\n      pop\n      pop\n      jump\t// out\n        /* \"#utility.yul\":945:1084   */\n    tag_359:\n        /* \"#utility.yul\":991:996   */\n      0x00\n        /* \"#utility.yul\":1029:1035   */\n      dup2\n        /* \"#utility.yul\":1016:1036   */\n      calldataload\n        /* \"#utility.yul\":1007:1036   */\n      swap1\n      pop\n        /* \"#utility.yul\":1045:1078   */\n      tag_361\n        /* \"#utility.yul\":1072:1077   */\n      dup2\n        /* \"#utility.yul\":1045:1078   */\n      tag_362\n      jump\t// in\n    tag_361:\n        /* \"#utility.yul\":997:1084   */\n      swap3\n      swap2\n      pop\n      pop\n      jump\t// out\n        /* \"#utility.yul\":1090:1352   */\n    tag_74:\n        /* \"#utility.yul\":1149:1155   */\n      0x00\n        /* \"#utility.yul\":1198:1200   */\n      0x20\n        /* \"#utility.yul\":1186:1195   */\n      dup3\n        /* \"#utility.yul\":1177:1184   */\n      dup5\n        /* \"#utility.yul\":1173:1196   */\n      sub\n        /* \"#utility.yul\":1169:1201   */\n      slt\n        /* \"#utility.yul\":1166:1168   */\n      iszero\n      tag_364\n      jumpi\n        /* \"#utility.yul\":1214:1215   */\n      0x00\n        /* \"#utility.yul\":1211:1212   */\n      dup1\n        /* \"#utility.yul\":1204:1216   */\n      revert\n        /* \"#utility.yul\":1166:1168   */\n    tag_364:\n        /* \"#utility.yul\":1257:1258   */\n      0x00\n        /* \"#utility.yul\":1282:1335   */\n      tag_365\n        /* \"#utility.yul\":1327:1334   */\n      dup5\n        /* \"#utility.yul\":1318:1324   */\n      dup3\n        /* \"#utility.yul\":1307:1316   */\n      dup6\n        /* \"#utility.yul\":1303:1325   */\n      add\n        /* \"#utility.yul\":1282:1335   */\n      tag_348\n      jump\t// in\n    tag_365:\n        /* \"#utility.yul\":1272:1335   */\n      swap2\n      pop\n        /* \"#utility.yul\":1228:1345   */\n      pop\n        /* \"#utility.yul\":1156:1352   */\n      swap3\n      swap2\n      pop\n      pop\n      jump\t// out\n        /* \"#utility.yul\":1358:1642   */\n    tag_173:\n        /* \"#utility.yul\":1428:1434   */\n      0x00\n        /* \"#utility.yul\":1477:1479   */\n      0x20\n        /* \"#utility.yul\":1465:1474   */\n      dup3\n        /* \"#utility.yul\":1456:1463   */\n      dup5\n        /* \"#utility.yul\":1452:1475   */\n      sub\n        /* \"#utility.yul\":1448:1480   */\n      slt\n        /* \"#utility.yul\":1445:1447   */\n      iszero\n      tag_367\n      jumpi\n        /* \"#utility.yul\":1493:1494   */\n      0x00\n        /* \"#utility.yul\":1490:1491   */\n      dup1\n        /* \"#utility.yul\":1483:1495   */\n      revert\n        /* \"#utility.yul\":1445:1447   */\n    tag_367:\n        /* \"#utility.yul\":1536:1537   */\n      0x00\n        /* \"#utility.yul\":1561:1625   */\n      tag_368\n        /* \"#utility.yul\":1617:1624   */\n      dup5\n        /* \"#utility.yul\":1608:1614   */\n      dup3\n        /* \"#utility.yul\":1597:1606   */\n      dup6\n        /* \"#utility.yul\":1593:1615   */\n      add\n        /* \"#utility.yul\":1561:1625   */\n      tag_352\n      jump\t// in\n    tag_368:\n        /* \"#utility.yul\":1551:1625   */\n      swap2\n      pop\n        /* \"#utility.yul\":1507:1635   */\n      pop\n        /* \"#utility.yul\":1435:1642   */\n      swap3\n      swap2\n      pop\n      pop\n      jump\t// out\n        /* \"#utility.yul\":1648:2055   */\n    tag_106:\n        /* \"#utility.yul\":1716:1722   */\n      0x00\n        /* \"#utility.yul\":1724:1730   */\n      dup1\n        /* \"#utility.yul\":1773:1775   */\n      0x40\n        /* \"#utility.yul\":1761:1770   */\n      dup4\n        /* \"#utility.yul\":1752:1759   */\n      dup6\n        /* \"#utility.yul\":1748:1771   */\n      sub\n        /* \"#utility.yul\":1744:1776   */\n      slt\n        /* \"#utility.yul\":1741:1743   */\n      iszero\n      tag_370\n      jumpi\n        /* \"#utility.yul\":1789:1790   */\n      0x00\n        /* \"#utility.yul\":1786:1787   */\n      dup1\n        /* \"#utility.yul\":1779:1791   */\n      revert\n        /* \"#utility.yul\":1741:1743   */\n    tag_370:\n        /* \"#utility.yul\":1832:1833   */\n      0x00\n        /* \"#utility.yul\":1857:1910   */\n      tag_371\n        /* \"#utility.yul\":1902:1909   */\n      dup6\n        /* \"#utility.yul\":1893:1899   */\n      dup3\n        /* \"#utility.yul\":1882:1891   */\n      dup7\n        /* \"#utility.yul\":1878:1900   */\n      add\n        /* \"#utility.yul\":1857:1910   */\n      tag_348\n      jump\t// in\n    tag_371:\n        /* \"#utility.yul\":1847:1910   */\n      swap3\n      pop\n        /* \"#utility.yul\":1803:1920   */\n      pop\n        /* \"#utility.yul\":1959:1961   */\n      0x20\n        /* \"#utility.yul\":1985:2038   */\n      tag_372\n        /* \"#utility.yul\":2030:2037   */\n      dup6\n        /* \"#utility.yul\":2021:2027   */\n      dup3\n        /* \"#utility.yul\":2010:2019   */\n      dup7\n        /* \"#utility.yul\":2006:2028   */\n      add\n        /* \"#utility.yul\":1985:2038   */\n      tag_348\n      jump\t// in\n    tag_372:\n        /* \"#utility.yul\":1975:2038   */\n      swap2\n      pop\n        /* \"#utility.yul\":1930:2048   */\n      pop\n        /* \"#utility.yul\":1731:2055   */\n      swap3\n      pop\n      swap3\n      swap1\n      pop\n      jump\t// out\n        /* \"#utility.yul\":2061:2613   */\n    tag_44:\n        /* \"#utility.yul\":2138:2144   */\n      0x00\n        /* \"#utility.yul\":2146:2152   */\n      dup1\n        /* \"#utility.yul\":2154:2160   */\n      0x00\n        /* \"#utility.yul\":2203:2205   */\n      0x60\n        /* \"#utility.yul\":2191:2200   */\n      dup5\n        /* \"#utility.yul\":2182:2189   */\n      dup7\n        /* \"#utility.yul\":2178:2201   */\n      sub\n        /* \"#utility.yul\":2174:2206   */\n      slt\n        /* \"#utility.yul\":2171:2173   */\n      iszero\n      tag_374\n      jumpi\n        /* \"#utility.yul\":2219:2220   */\n      0x00\n        /* \"#utility.yul\":2216:2217   */\n      dup1\n        /* \"#utility.yul\":2209:2221   */\n      revert\n        /* \"#utility.yul\":2171:2173   */\n    tag_374:\n        /* \"#utility.yul\":2262:2263   */\n      0x00\n        /* \"#utility.yul\":2287:2340   */\n      tag_375\n        /* \"#utility.yul\":2332:2339   */\n      dup7\n        /* \"#utility.yul\":2323:2329   */\n      dup3\n        /* \"#utility.yul\":2312:2321   */\n      dup8\n        /* \"#utility.yul\":2308:2330   */\n      add\n        /* \"#utility.yul\":2287:2340   */\n      tag_348\n      jump\t// in\n    tag_375:\n        /* \"#utility.yul\":2277:2340   */\n      swap4\n      pop\n        /* \"#utility.yul\":2233:2350   */\n      pop\n        /* \"#utility.yul\":2389:2391   */\n      0x20\n        /* \"#utility.yul\":2415:2468   */\n      tag_376\n        /* \"#utility.yul\":2460:2467   */\n      dup7\n        /* \"#utility.yul\":2451:2457   */\n      dup3\n        /* \"#utility.yul\":2440:2449   */\n      dup8\n        /* \"#utility.yul\":2436:2458   */\n      add\n        /* \"#utility.yul\":2415:2468   */\n      tag_348\n      jump\t// in\n    tag_376:\n        /* \"#utility.yul\":2405:2468   */\n      swap3\n      pop\n        /* \"#utility.yul\":2360:2478   */\n      pop\n        /* \"#utility.yul\":2517:2519   */\n      0x40\n        /* \"#utility.yul\":2543:2596   */\n      tag_377\n        /* \"#utility.yul\":2588:2595   */\n      dup7\n        /* \"#utility.yul\":2579:2585   */\n      dup3\n        /* \"#utility.yul\":2568:2577   */\n      dup8\n        /* \"#utility.yul\":2564:2586   */\n      add\n        /* \"#utility.yul\":2543:2596   */\n      tag_359\n      jump\t// in\n    tag_377:\n        /* \"#utility.yul\":2533:2596   */\n      swap2\n      pop\n        /* \"#utility.yul\":2488:2606   */\n      pop\n        /* \"#utility.yul\":2161:2613   */\n      swap3\n      pop\n      swap3\n      pop\n      swap3\n      jump\t// out\n        /* \"#utility.yul\":2619:3026   */\n    tag_34:\n        /* \"#utility.yul\":2687:2693   */\n      0x00\n        /* \"#utility.yul\":2695:2701   */\n      dup1\n        /* \"#utility.yul\":2744:2746   */\n      0x40\n        /* \"#utility.yul\":2732:2741   */\n      dup4\n        /* \"#utility.yul\":2723:2730   */\n      dup6\n        /* \"#utility.yul\":2719:2742   */\n      sub\n        /* \"#utility.yul\":2715:2747   */\n      slt\n        /* \"#utility.yul\":2712:2714   */\n      iszero\n      tag_379\n      jumpi\n        /* \"#utility.yul\":2760:2761   */\n      0x00\n        /* \"#utility.yul\":2757:2758   */\n      dup1\n        /* \"#utility.yul\":2750:2762   */\n      revert\n        /* \"#utility.yul\":2712:2714   */\n    tag_379:\n        /* \"#utility.yul\":2803:2804   */\n      0x00\n        /* \"#utility.yul\":2828:2881   */\n      tag_380\n        /* \"#utility.yul\":2873:2880   */\n      dup6\n        /* \"#utility.yul\":2864:2870   */\n      dup3\n        /* \"#utility.yul\":2853:2862   */\n      dup7\n        /* \"#utility.yul\":2849:2871   */\n      add\n        /* \"#utility.yul\":2828:2881   */\n      tag_348\n      jump\t// in\n    tag_380:\n        /* \"#utility.yul\":2818:2881   */\n      swap3\n      pop\n        /* \"#utility.yul\":2774:2891   */\n      pop\n        /* \"#utility.yul\":2930:2932   */\n      0x20\n        /* \"#utility.yul\":2956:3009   */\n      tag_381\n        /* \"#utility.yul\":3001:3008   */\n      dup6\n        /* \"#utility.yul\":2992:2998   */\n      dup3\n        /* \"#utility.yul\":2981:2990   */\n      dup7\n        /* \"#utility.yul\":2977:2999   */\n      add\n        /* \"#utility.yul\":2956:3009   */\n      tag_359\n      jump\t// in\n    tag_381:\n        /* \"#utility.yul\":2946:3009   */\n      swap2\n      pop\n        /* \"#utility.yul\":2901:3019   */\n      pop\n        /* \"#utility.yul\":2702:3026   */\n      swap3\n      pop\n      swap3\n      swap1\n      pop\n      jump\t// out\n        /* \"#utility.yul\":3032:3665   */\n    tag_60:\n        /* \"#utility.yul\":3120:3126   */\n      0x00\n        /* \"#utility.yul\":3128:3134   */\n      dup1\n        /* \"#utility.yul\":3177:3179   */\n      0x40\n        /* \"#utility.yul\":3165:3174   */\n      dup4\n        /* \"#utility.yul\":3156:3163   */\n      dup6\n        /* \"#utility.yul\":3152:3175   */\n      sub\n        /* \"#utility.yul\":3148:3180   */\n      slt\n        /* \"#utility.yul\":3145:3147   */\n      iszero\n      tag_383\n      jumpi\n        /* \"#utility.yul\":3193:3194   */\n      0x00\n        /* \"#utility.yul\":3190:3191   */\n      dup1\n        /* \"#utility.yul\":3183:3195   */\n      revert\n        /* \"#utility.yul\":3145:3147   */\n    tag_383:\n        /* \"#utility.yul\":3264:3265   */\n      0x00\n        /* \"#utility.yul\":3253:3262   */\n      dup4\n        /* \"#utility.yul\":3249:3266   */\n      add\n        /* \"#utility.yul\":3236:3267   */\n      calldataload\n        /* \"#utility.yul\":3294:3312   */\n      0xffffffffffffffff\n        /* \"#utility.yul\":3286:3292   */\n      dup2\n        /* \"#utility.yul\":3283:3313   */\n      gt\n        /* \"#utility.yul\":3280:3282   */\n      iszero\n      tag_384\n      jumpi\n        /* \"#utility.yul\":3326:3327   */\n      0x00\n        /* \"#utility.yul\":3323:3324   */\n      dup1\n        /* \"#utility.yul\":3316:3328   */\n      revert\n        /* \"#utility.yul\":3280:3282   */\n    tag_384:\n        /* \"#utility.yul\":3354:3417   */\n      tag_385\n        /* \"#utility.yul\":3409:3416   */\n      dup6\n        /* \"#utility.yul\":3400:3406   */\n      dup3\n        /* \"#utility.yul\":3389:3398   */\n      dup7\n        /* \"#utility.yul\":3385:3407   */\n      add\n        /* \"#utility.yul\":3354:3417   */\n      tag_355\n      jump\t// in\n    tag_385:\n        /* \"#utility.yul\":3344:3417   */\n      swap3\n      pop\n        /* \"#utility.yul\":3207:3427   */\n      pop\n        /* \"#utility.yul\":3494:3496   */\n      0x20\n        /* \"#utility.yul\":3483:3492   */\n      dup4\n        /* \"#utility.yul\":3479:3497   */\n      add\n        /* \"#utility.yul\":3466:3498   */\n      calldataload\n        /* \"#utility.yul\":3525:3543   */\n      0xffffffffffffffff\n        /* \"#utility.yul\":3517:3523   */\n      dup2\n        /* \"#utility.yul\":3514:3544   */\n      gt\n        /* \"#utility.yul\":3511:3513   */\n      iszero\n      tag_386\n      jumpi\n        /* \"#utility.yul\":3557:3558   */\n      0x00\n        /* \"#utility.yul\":3554:3555   */\n      dup1\n        /* \"#utility.yul\":3547:3559   */\n      revert\n        /* \"#utility.yul\":3511:3513   */\n    tag_386:\n        /* \"#utility.yul\":3585:3648   */\n      tag_387\n        /* \"#utility.yul\":3640:3647   */\n      dup6\n        /* \"#utility.yul\":3631:3637   */\n      dup3\n        /* \"#utility.yul\":3620:3629   */\n      dup7\n        /* \"#utility.yul\":3616:3638   */\n      add\n        /* \"#utility.yul\":3585:3648   */\n      tag_355\n      jump\t// in\n    tag_387:\n        /* \"#utility.yul\":3575:3648   */\n      swap2\n      pop\n        /* \"#utility.yul\":3437:3658   */\n      pop\n        /* \"#utility.yul\":3135:3665   */\n      swap3\n      pop\n      swap3\n      swap1\n      pop\n      jump\t// out\n        /* \"#utility.yul\":3671:3933   */\n    tag_64:\n        /* \"#utility.yul\":3730:3736   */\n      0x00\n        /* \"#utility.yul\":3779:3781   */\n      0x20\n        /* \"#utility.yul\":3767:3776   */\n      dup3\n        /* \"#utility.yul\":3758:3765   */\n      dup5\n        /* \"#utility.yul\":3754:3777   */\n      sub\n        /* \"#utility.yul\":3750:3782   */\n      slt\n        /* \"#utility.yul\":3747:3749   */\n      iszero\n      tag_389\n      jumpi\n        /* \"#utility.yul\":3795:3796   */\n      0x00\n        /* \"#utility.yul\":3792:3793   */\n      dup1\n        /* \"#utility.yul\":3785:3797   */\n      revert\n        /* \"#utility.yul\":3747:3749   */\n    tag_389:\n        /* \"#utility.yul\":3838:3839   */\n      0x00\n        /* \"#utility.yul\":3863:3916   */\n      tag_390\n        /* \"#utility.yul\":3908:3915   */\n      dup5\n        /* \"#utility.yul\":3899:3905   */\n      dup3\n        /* \"#utility.yul\":3888:3897   */\n      dup6\n        /* \"#utility.yul\":3884:3906   */\n      add\n        /* \"#utility.yul\":3863:3916   */\n      tag_359\n      jump\t// in\n    tag_390:\n        /* \"#utility.yul\":3853:3916   */\n      swap2\n      pop\n        /* \"#utility.yul\":3809:3926   */\n      pop\n        /* \"#utility.yul\":3737:3933   */\n      swap3\n      swap2\n      pop\n      pop\n      jump\t// out\n        /* \"#utility.yul\":3939:4057   */\n    tag_391:\n        /* \"#utility.yul\":4026:4050   */\n      tag_393\n        /* \"#utility.yul\":4044:4049   */\n      dup2\n        /* \"#utility.yul\":4026:4050   */\n      tag_394\n      jump\t// in\n    tag_393:\n        /* \"#utility.yul\":4021:4024   */\n      dup3\n        /* \"#utility.yul\":4014:4051   */\n      mstore\n        /* \"#utility.yul\":4004:4057   */\n      pop\n      pop\n      jump\t// out\n        /* \"#utility.yul\":4063:4172   */\n    tag_395:\n        /* \"#utility.yul\":4144:4165   */\n      tag_397\n        /* \"#utility.yul\":4159:4164   */\n      dup2\n        /* \"#utility.yul\":4144:4165   */\n      tag_398\n      jump\t// in\n    tag_397:\n        /* \"#utility.yul\":4139:4142   */\n      dup3\n        /* \"#utility.yul\":4132:4166   */\n      mstore\n        /* \"#utility.yul\":4122:4172   */\n      pop\n      pop\n      jump\t// out\n        /* \"#utility.yul\":4178:4321   */\n    tag_399:\n        /* \"#utility.yul\":4271:4314   */\n      tag_401\n        /* \"#utility.yul\":4308:4313   */\n      dup2\n        /* \"#utility.yul\":4271:4314   */\n      tag_402\n      jump\t// in\n    tag_401:\n        /* \"#utility.yul\":4266:4269   */\n      dup3\n        /* \"#utility.yul\":4259:4315   */\n      mstore\n        /* \"#utility.yul\":4249:4321   */\n      pop\n      pop\n      jump\t// out\n        /* \"#utility.yul\":4327:4691   */\n    tag_403:\n        /* \"#utility.yul\":4415:4418   */\n      0x00\n        /* \"#utility.yul\":4443:4482   */\n      tag_405\n        /* \"#utility.yul\":4476:4481   */\n      dup3\n        /* \"#utility.yul\":4443:4482   */\n      tag_406\n      jump\t// in\n    tag_405:\n        /* \"#utility.yul\":4498:4569   */\n      tag_407\n        /* \"#utility.yul\":4562:4568   */\n      dup2\n        /* \"#utility.yul\":4557:4560   */\n      dup6\n        /* \"#utility.yul\":4498:4569   */\n      tag_408\n      jump\t// in\n    tag_407:\n        /* \"#utility.yul\":4491:4569   */\n      swap4\n      pop\n        /* \"#utility.yul\":4578:4630   */\n      tag_409\n        /* \"#utility.yul\":4623:4629   */\n      dup2\n        /* \"#utility.yul\":4618:4621   */\n      dup6\n        /* \"#utility.yul\":4611:4615   */\n      0x20\n        /* \"#utility.yul\":4604:4609   */\n      dup7\n        /* \"#utility.yul\":4600:4616   */\n      add\n        /* \"#utility.yul\":4578:4630   */\n      tag_410\n      jump\t// in\n    tag_409:\n        /* \"#utility.yul\":4655:4684   */\n      tag_411\n        /* \"#utility.yul\":4677:4683   */\n      dup2\n        /* \"#utility.yul\":4655:4684   */\n      tag_412\n      jump\t// in\n    tag_411:\n        /* \"#utility.yul\":4650:4653   */\n      dup5\n        /* \"#utility.yul\":4646:4685   */\n      add\n        /* \"#utility.yul\":4639:4685   */\n      swap2\n      pop\n        /* \"#utility.yul\":4419:4691   */\n      pop\n      swap3\n      swap2\n      pop\n      pop\n      jump\t// out\n        /* \"#utility.yul\":4697:5063   */\n    tag_413:\n        /* \"#utility.yul\":4839:4842   */\n      0x00\n        /* \"#utility.yul\":4860:4927   */\n      tag_415\n        /* \"#utility.yul\":4924:4926   */\n      0x23\n        /* \"#utility.yul\":4919:4922   */\n      dup4\n        /* \"#utility.yul\":4860:4927   */\n      tag_408\n      jump\t// in\n    tag_415:\n        /* \"#utility.yul\":4853:4927   */\n      swap2\n      pop\n        /* \"#utility.yul\":4936:5029   */\n      tag_416\n        /* \"#utility.yul\":5025:5028   */\n      dup3\n        /* \"#utility.yul\":4936:5029   */\n      tag_417\n      jump\t// in\n    tag_416:\n        /* \"#utility.yul\":5054:5056   */\n      0x40\n        /* \"#utility.yul\":5049:5052   */\n      dup3\n        /* \"#utility.yul\":5045:5057   */\n      add\n        /* \"#utility.yul\":5038:5057   */\n      swap1\n      pop\n        /* \"#utility.yul\":4843:5063   */\n      swap2\n      swap1\n      pop\n      jump\t// out\n        /* \"#utility.yul\":5069:5435   */\n    tag_418:\n        /* \"#utility.yul\":5211:5214   */\n      0x00\n        /* \"#utility.yul\":5232:5299   */\n      tag_420\n        /* \"#utility.yul\":5296:5298   */\n      0x26\n        /* \"#utility.yul\":5291:5294   */\n      dup4\n        /* \"#utility.yul\":5232:5299   */\n      tag_408\n      jump\t// in\n    tag_420:\n        /* \"#utility.yul\":5225:5299   */\n      swap2\n      pop\n        /* \"#utility.yul\":5308:5401   */\n      tag_421\n        /* \"#utility.yul\":5397:5400   */\n      dup3\n        /* \"#utility.yul\":5308:5401   */\n      tag_422\n      jump\t// in\n    tag_421:\n        /* \"#utility.yul\":5426:5428   */\n      0x40\n        /* \"#utility.yul\":5421:5424   */\n      dup3\n        /* \"#utility.yul\":5417:5429   */\n      add\n        /* \"#utility.yul\":5410:5429   */\n      swap1\n      pop\n        /* \"#utility.yul\":5215:5435   */\n      swap2\n      swap1\n      pop\n      jump\t// out\n        /* \"#utility.yul\":5441:5807   */\n    tag_423:\n        /* \"#utility.yul\":5583:5586   */\n      0x00\n        /* \"#utility.yul\":5604:5671   */\n      tag_425\n        /* \"#utility.yul\":5668:5670   */\n      0x22\n        /* \"#utility.yul\":5663:5666   */\n      dup4\n        /* \"#utility.yul\":5604:5671   */\n      tag_408\n      jump\t// in\n    tag_425:\n        /* \"#utility.yul\":5597:5671   */\n      swap2\n      pop\n        /* \"#utility.yul\":5680:5773   */\n      tag_426\n        /* \"#utility.yul\":5769:5772   */\n      dup3\n        /* \"#utility.yul\":5680:5773   */\n      tag_427\n      jump\t// in\n    tag_426:\n        /* \"#utility.yul\":5798:5800   */\n      0x40\n        /* \"#utility.yul\":5793:5796   */\n      dup3\n        /* \"#utility.yul\":5789:5801   */\n      add\n        /* \"#utility.yul\":5782:5801   */\n      swap1\n      pop\n        /* \"#utility.yul\":5587:5807   */\n      swap2\n      swap1\n      pop\n      jump\t// out\n        /* \"#utility.yul\":5813:6179   */\n    tag_428:\n        /* \"#utility.yul\":5955:5958   */\n      0x00\n        /* \"#utility.yul\":5976:6043   */\n      tag_430\n        /* \"#utility.yul\":6040:6042   */\n      0x0c\n        /* \"#utility.yul\":6035:6038   */\n      dup4\n        /* \"#utility.yul\":5976:6043   */\n      tag_408\n      jump\t// in\n    tag_430:\n        /* \"#utility.yul\":5969:6043   */\n      swap2\n      pop\n        /* \"#utility.yul\":6052:6145   */\n      tag_431\n        /* \"#utility.yul\":6141:6144   */\n      dup3\n        /* \"#utility.yul\":6052:6145   */\n      tag_432\n      jump\t// in\n    tag_431:\n        /* \"#utility.yul\":6170:6172   */\n      0x20\n        /* \"#utility.yul\":6165:6168   */\n      dup3\n        /* \"#utility.yul\":6161:6173   */\n      add\n        /* \"#utility.yul\":6154:6173   */\n      swap1\n      pop\n        /* \"#utility.yul\":5959:6179   */\n      swap2\n      swap1\n      pop\n      jump\t// out\n        /* \"#utility.yul\":6185:6551   */\n    tag_433:\n        /* \"#utility.yul\":6327:6330   */\n      0x00\n        /* \"#utility.yul\":6348:6415   */\n      tag_435\n        /* \"#utility.yul\":6412:6414   */\n      0x0b\n        /* \"#utility.yul\":6407:6410   */\n      dup4\n        /* \"#utility.yul\":6348:6415   */\n      tag_408\n      jump\t// in\n    tag_435:\n        /* \"#utility.yul\":6341:6415   */\n      swap2\n      pop\n        /* \"#utility.yul\":6424:6517   */\n      tag_436\n        /* \"#utility.yul\":6513:6516   */\n      dup3\n        /* \"#utility.yul\":6424:6517   */\n      tag_437\n      jump\t// in\n    tag_436:\n        /* \"#utility.yul\":6542:6544   */\n      0x20\n        /* \"#utility.yul\":6537:6540   */\n      dup3\n        /* \"#utility.yul\":6533:6545   */\n      add\n        /* \"#utility.yul\":6526:6545   */\n      swap1\n      pop\n        /* \"#utility.yul\":6331:6551   */\n      swap2\n      swap1\n      pop\n      jump\t// out\n        /* \"#utility.yul\":6557:6923   */\n    tag_438:\n        /* \"#utility.yul\":6699:6702   */\n      0x00\n        /* \"#utility.yul\":6720:6787   */\n      tag_440\n        /* \"#utility.yul\":6784:6786   */\n      0x1d\n        /* \"#utility.yul\":6779:6782   */\n      dup4\n        /* \"#utility.yul\":6720:6787   */\n      tag_408\n      jump\t// in\n    tag_440:\n        /* \"#utility.yul\":6713:6787   */\n      swap2\n      pop\n        /* \"#utility.yul\":6796:6889   */\n      tag_441\n        /* \"#utility.yul\":6885:6888   */\n      dup3\n        /* \"#utility.yul\":6796:6889   */\n      tag_442\n      jump\t// in\n    tag_441:\n        /* \"#utility.yul\":6914:6916   */\n      0x20\n        /* \"#utility.yul\":6909:6912   */\n      dup3\n        /* \"#utility.yul\":6905:6917   */\n      add\n        /* \"#utility.yul\":6898:6917   */\n      swap1\n      pop\n        /* \"#utility.yul\":6703:6923   */\n      swap2\n      swap1\n      pop\n      jump\t// out\n        /* \"#utility.yul\":6929:7295   */\n    tag_443:\n        /* \"#utility.yul\":7071:7074   */\n      0x00\n        /* \"#utility.yul\":7092:7159   */\n      tag_445\n        /* \"#utility.yul\":7156:7158   */\n      0x26\n        /* \"#utility.yul\":7151:7154   */\n      dup4\n        /* \"#utility.yul\":7092:7159   */\n      tag_408\n      jump\t// in\n    tag_445:\n        /* \"#utility.yul\":7085:7159   */\n      swap2\n      pop\n        /* \"#utility.yul\":7168:7261   */\n      tag_446\n        /* \"#utility.yul\":7257:7260   */\n      dup3\n        /* \"#utility.yul\":7168:7261   */\n      tag_447\n      jump\t// in\n    tag_446:\n        /* \"#utility.yul\":7286:7288   */\n      0x40\n        /* \"#utility.yul\":7281:7284   */\n      dup3\n        /* \"#utility.yul\":7277:7289   */\n      add\n        /* \"#utility.yul\":7270:7289   */\n      swap1\n      pop\n        /* \"#utility.yul\":7075:7295   */\n      swap2\n      swap1\n      pop\n      jump\t// out\n        /* \"#utility.yul\":7301:7667   */\n    tag_448:\n        /* \"#utility.yul\":7443:7446   */\n      0x00\n        /* \"#utility.yul\":7464:7531   */\n      tag_450\n        /* \"#utility.yul\":7528:7530   */\n      0x2e\n        /* \"#utility.yul\":7523:7526   */\n      dup4\n        /* \"#utility.yul\":7464:7531   */\n      tag_408\n      jump\t// in\n    tag_450:\n        /* \"#utility.yul\":7457:7531   */\n      swap2\n      pop\n        /* \"#utility.yul\":7540:7633   */\n      tag_451\n        /* \"#utility.yul\":7629:7632   */\n      dup3\n        /* \"#utility.yul\":7540:7633   */\n      tag_452\n      jump\t// in\n    tag_451:\n        /* \"#utility.yul\":7658:7660   */\n      0x40\n        /* \"#utility.yul\":7653:7656   */\n      dup3\n        /* \"#utility.yul\":7649:7661   */\n      add\n        /* \"#utility.yul\":7642:7661   */\n      swap1\n      pop\n        /* \"#utility.yul\":7447:7667   */\n      swap2\n      swap1\n      pop\n      jump\t// out\n        /* \"#utility.yul\":7673:8039   */\n    tag_453:\n        /* \"#utility.yul\":7815:7818   */\n      0x00\n        /* \"#utility.yul\":7836:7903   */\n      tag_455\n        /* \"#utility.yul\":7900:7902   */\n      0x20\n        /* \"#utility.yul\":7895:7898   */\n      dup4\n        /* \"#utility.yul\":7836:7903   */\n      tag_408\n      jump\t// in\n    tag_455:\n        /* \"#utility.yul\":7829:7903   */\n      swap2\n      pop\n        /* \"#utility.yul\":7912:8005   */\n      tag_456\n        /* \"#utility.yul\":8001:8004   */\n      dup3\n        /* \"#utility.yul\":7912:8005   */\n      tag_457\n      jump\t// in\n    tag_456:\n        /* \"#utility.yul\":8030:8032   */\n      0x20\n        /* \"#utility.yul\":8025:8028   */\n      dup3\n        /* \"#utility.yul\":8021:8033   */\n      add\n        /* \"#utility.yul\":8014:8033   */\n      swap1\n      pop\n        /* \"#utility.yul\":7819:8039   */\n      swap2\n      swap1\n      pop\n      jump\t// out\n        /* \"#utility.yul\":8045:8411   */\n    tag_458:\n        /* \"#utility.yul\":8187:8190   */\n      0x00\n        /* \"#utility.yul\":8208:8275   */\n      tag_460\n        /* \"#utility.yul\":8272:8274   */\n      0x25\n        /* \"#utility.yul\":8267:8270   */\n      dup4\n        /* \"#utility.yul\":8208:8275   */\n      tag_408\n      jump\t// in\n    tag_460:\n        /* \"#utility.yul\":8201:8275   */\n      swap2\n      pop\n        /* \"#utility.yul\":8284:8377   */\n      tag_461\n        /* \"#utility.yul\":8373:8376   */\n      dup3\n        /* \"#utility.yul\":8284:8377   */\n      tag_462\n      jump\t// in\n    tag_461:\n        /* \"#utility.yul\":8402:8404   */\n      0x40\n        /* \"#utility.yul\":8397:8400   */\n      dup3\n        /* \"#utility.yul\":8393:8405   */\n      add\n        /* \"#utility.yul\":8386:8405   */\n      swap1\n      pop\n        /* \"#utility.yul\":8191:8411   */\n      swap2\n      swap1\n      pop\n      jump\t// out\n        /* \"#utility.yul\":8417:8783   */\n    tag_463:\n        /* \"#utility.yul\":8559:8562   */\n      0x00\n        /* \"#utility.yul\":8580:8647   */\n      tag_465\n        /* \"#utility.yul\":8644:8646   */\n      0x24\n        /* \"#utility.yul\":8639:8642   */\n      dup4\n        /* \"#utility.yul\":8580:8647   */\n      tag_408\n      jump\t// in\n    tag_465:\n        /* \"#utility.yul\":8573:8647   */\n      swap2\n      pop\n        /* \"#utility.yul\":8656:8749   */\n      tag_466\n        /* \"#utility.yul\":8745:8748   */\n      dup3\n        /* \"#utility.yul\":8656:8749   */\n      tag_467\n      jump\t// in\n    tag_466:\n        /* \"#utility.yul\":8774:8776   */\n      0x40\n        /* \"#utility.yul\":8769:8772   */\n      dup3\n        /* \"#utility.yul\":8765:8777   */\n      add\n        /* \"#utility.yul\":8758:8777   */\n      swap1\n      pop\n        /* \"#utility.yul\":8563:8783   */\n      swap2\n      swap1\n      pop\n      jump\t// out\n        /* \"#utility.yul\":8789:9155   */\n    tag_468:\n        /* \"#utility.yul\":8931:8934   */\n      0x00\n        /* \"#utility.yul\":8952:9019   */\n      tag_470\n        /* \"#utility.yul\":9016:9018   */\n      0x2b\n        /* \"#utility.yul\":9011:9014   */\n      dup4\n        /* \"#utility.yul\":8952:9019   */\n      tag_408\n      jump\t// in\n    tag_470:\n        /* \"#utility.yul\":8945:9019   */\n      swap2\n      pop\n        /* \"#utility.yul\":9028:9121   */\n      tag_471\n        /* \"#utility.yul\":9117:9120   */\n      dup3\n        /* \"#utility.yul\":9028:9121   */\n      tag_472\n      jump\t// in\n    tag_471:\n        /* \"#utility.yul\":9146:9148   */\n      0x40\n        /* \"#utility.yul\":9141:9144   */\n      dup3\n        /* \"#utility.yul\":9137:9149   */\n      add\n        /* \"#utility.yul\":9130:9149   */\n      swap1\n      pop\n        /* \"#utility.yul\":8935:9155   */\n      swap2\n      swap1\n      pop\n      jump\t// out\n        /* \"#utility.yul\":9161:9527   */\n    tag_473:\n        /* \"#utility.yul\":9303:9306   */\n      0x00\n        /* \"#utility.yul\":9324:9391   */\n      tag_475\n        /* \"#utility.yul\":9388:9390   */\n      0x0e\n        /* \"#utility.yul\":9383:9386   */\n      dup4\n        /* \"#utility.yul\":9324:9391   */\n      tag_408\n      jump\t// in\n    tag_475:\n        /* \"#utility.yul\":9317:9391   */\n      swap2\n      pop\n        /* \"#utility.yul\":9400:9493   */\n      tag_476\n        /* \"#utility.yul\":9489:9492   */\n      dup3\n        /* \"#utility.yul\":9400:9493   */\n      tag_477\n      jump\t// in\n    tag_476:\n        /* \"#utility.yul\":9518:9520   */\n      0x20\n        /* \"#utility.yul\":9513:9516   */\n      dup3\n        /* \"#utility.yul\":9509:9521   */\n      add\n        /* \"#utility.yul\":9502:9521   */\n      swap1\n      pop\n        /* \"#utility.yul\":9307:9527   */\n      swap2\n      swap1\n      pop\n      jump\t// out\n        /* \"#utility.yul\":9533:9899   */\n    tag_478:\n        /* \"#utility.yul\":9675:9678   */\n      0x00\n        /* \"#utility.yul\":9696:9763   */\n      tag_480\n        /* \"#utility.yul\":9760:9762   */\n      0x25\n        /* \"#utility.yul\":9755:9758   */\n      dup4\n        /* \"#utility.yul\":9696:9763   */\n      tag_408\n      jump\t// in\n    tag_480:\n        /* \"#utility.yul\":9689:9763   */\n      swap2\n      pop\n        /* \"#utility.yul\":9772:9865   */\n      tag_481\n        /* \"#utility.yul\":9861:9864   */\n      dup3\n        /* \"#utility.yul\":9772:9865   */\n      tag_482\n      jump\t// in\n    tag_481:\n        /* \"#utility.yul\":9890:9892   */\n      0x40\n        /* \"#utility.yul\":9885:9888   */\n      dup3\n        /* \"#utility.yul\":9881:9893   */\n      add\n        /* \"#utility.yul\":9874:9893   */\n      swap1\n      pop\n        /* \"#utility.yul\":9679:9899   */\n      swap2\n      swap1\n      pop\n      jump\t// out\n        /* \"#utility.yul\":9905:10271   */\n    tag_483:\n        /* \"#utility.yul\":10047:10050   */\n      0x00\n        /* \"#utility.yul\":10068:10135   */\n      tag_485\n        /* \"#utility.yul\":10132:10134   */\n      0x1f\n        /* \"#utility.yul\":10127:10130   */\n      dup4\n        /* \"#utility.yul\":10068:10135   */\n      tag_408\n      jump\t// in\n    tag_485:\n        /* \"#utility.yul\":10061:10135   */\n      swap2\n      pop\n        /* \"#utility.yul\":10144:10237   */\n      tag_486\n        /* \"#utility.yul\":10233:10236   */\n      dup3\n        /* \"#utility.yul\":10144:10237   */\n      tag_487\n      jump\t// in\n    tag_486:\n        /* \"#utility.yul\":10262:10264   */\n      0x20\n        /* \"#utility.yul\":10257:10260   */\n      dup3\n        /* \"#utility.yul\":10253:10265   */\n      add\n        /* \"#utility.yul\":10246:10265   */\n      swap1\n      pop\n        /* \"#utility.yul\":10051:10271   */\n      swap2\n      swap1\n      pop\n      jump\t// out\n        /* \"#utility.yul\":10277:10395   */\n    tag_488:\n        /* \"#utility.yul\":10364:10388   */\n      tag_490\n        /* \"#utility.yul\":10382:10387   */\n      dup2\n        /* \"#utility.yul\":10364:10388   */\n      tag_491\n      jump\t// in\n    tag_490:\n        /* \"#utility.yul\":10359:10362   */\n      dup3\n        /* \"#utility.yul\":10352:10389   */\n      mstore\n        /* \"#utility.yul\":10342:10395   */\n      pop\n      pop\n      jump\t// out\n        /* \"#utility.yul\":10401:10513   */\n    tag_492:\n        /* \"#utility.yul\":10484:10506   */\n      tag_494\n        /* \"#utility.yul\":10500:10505   */\n      dup2\n        /* \"#utility.yul\":10484:10506   */\n      tag_495\n      jump\t// in\n    tag_494:\n        /* \"#utility.yul\":10479:10482   */\n      dup3\n        /* \"#utility.yul\":10472:10507   */\n      mstore\n        /* \"#utility.yul\":10462:10513   */\n      pop\n      pop\n      jump\t// out\n        /* \"#utility.yul\":10519:10741   */\n    tag_85:\n        /* \"#utility.yul\":10612:10616   */\n      0x00\n        /* \"#utility.yul\":10650:10652   */\n      0x20\n        /* \"#utility.yul\":10639:10648   */\n      dup3\n        /* \"#utility.yul\":10635:10653   */\n      add\n        /* \"#utility.yul\":10627:10653   */\n      swap1\n      pop\n        /* \"#utility.yul\":10663:10734   */\n      tag_497\n        /* \"#utility.yul\":10731:10732   */\n      0x00\n        /* \"#utility.yul\":10720:10729   */\n      dup4\n        /* \"#utility.yul\":10716:10733   */\n      add\n        /* \"#utility.yul\":10707:10713   */\n      dup5\n        /* \"#utility.yul\":10663:10734   */\n      tag_391\n      jump\t// in\n    tag_497:\n        /* \"#utility.yul\":10617:10741   */\n      swap3\n      swap2\n      pop\n      pop\n      jump\t// out\n        /* \"#utility.yul\":10747:11189   */\n    tag_184:\n        /* \"#utility.yul\":10896:10900   */\n      0x00\n        /* \"#utility.yul\":10934:10936   */\n      0x60\n        /* \"#utility.yul\":10923:10932   */\n      dup3\n        /* \"#utility.yul\":10919:10937   */\n      add\n        /* \"#utility.yul\":10911:10937   */\n      swap1\n      pop\n        /* \"#utility.yul\":10947:11018   */\n      tag_499\n        /* \"#utility.yul\":11015:11016   */\n      0x00\n        /* \"#utility.yul\":11004:11013   */\n      dup4\n        /* \"#utility.yul\":11000:11017   */\n      add\n        /* \"#utility.yul\":10991:10997   */\n      dup7\n        /* \"#utility.yul\":10947:11018   */\n      tag_391\n      jump\t// in\n    tag_499:\n        /* \"#utility.yul\":11028:11100   */\n      tag_500\n        /* \"#utility.yul\":11096:11098   */\n      0x20\n        /* \"#utility.yul\":11085:11094   */\n      dup4\n        /* \"#utility.yul\":11081:11099   */\n      add\n        /* \"#utility.yul\":11072:11078   */\n      dup6\n        /* \"#utility.yul\":11028:11100   */\n      tag_488\n      jump\t// in\n    tag_500:\n        /* \"#utility.yul\":11110:11182   */\n      tag_501\n        /* \"#utility.yul\":11178:11180   */\n      0x40\n        /* \"#utility.yul\":11167:11176   */\n      dup4\n        /* \"#utility.yul\":11163:11181   */\n      add\n        /* \"#utility.yul\":11154:11160   */\n      dup5\n        /* \"#utility.yul\":11110:11182   */\n      tag_488\n      jump\t// in\n    tag_501:\n        /* \"#utility.yul\":10901:11189   */\n      swap5\n      swap4\n      pop\n      pop\n      pop\n      pop\n      jump\t// out\n        /* \"#utility.yul\":11195:11405   */\n    tag_37:\n        /* \"#utility.yul\":11282:11286   */\n      0x00\n        /* \"#utility.yul\":11320:11322   */\n      0x20\n        /* \"#utility.yul\":11309:11318   */\n      dup3\n        /* \"#utility.yul\":11305:11323   */\n      add\n        /* \"#utility.yul\":11297:11323   */\n      swap1\n      pop\n        /* \"#utility.yul\":11333:11398   */\n      tag_503\n        /* \"#utility.yul\":11395:11396   */\n      0x00\n        /* \"#utility.yul\":11384:11393   */\n      dup4\n        /* \"#utility.yul\":11380:11397   */\n      add\n        /* \"#utility.yul\":11371:11377   */\n      dup5\n        /* \"#utility.yul\":11333:11398   */\n      tag_395\n      jump\t// in\n    tag_503:\n        /* \"#utility.yul\":11287:11405   */\n      swap3\n      swap2\n      pop\n      pop\n      jump\t// out\n        /* \"#utility.yul\":11411:11645   */\n    tag_159:\n        /* \"#utility.yul\":11510:11514   */\n      0x00\n        /* \"#utility.yul\":11548:11550   */\n      0x20\n        /* \"#utility.yul\":11537:11546   */\n      dup3\n        /* \"#utility.yul\":11533:11551   */\n      add\n        /* \"#utility.yul\":11525:11551   */\n      swap1\n      pop\n        /* \"#utility.yul\":11561:11638   */\n      tag_505\n        /* \"#utility.yul\":11635:11636   */\n      0x00\n        /* \"#utility.yul\":11624:11633   */\n      dup4\n        /* \"#utility.yul\":11620:11637   */\n      add\n        /* \"#utility.yul\":11611:11617   */\n      dup5\n        /* \"#utility.yul\":11561:11638   */\n      tag_399\n      jump\t// in\n    tag_505:\n        /* \"#utility.yul\":11515:11645   */\n      swap3\n      swap2\n      pop\n      pop\n      jump\t// out\n        /* \"#utility.yul\":11651:11964   */\n    tag_31:\n        /* \"#utility.yul\":11764:11768   */\n      0x00\n        /* \"#utility.yul\":11802:11804   */\n      0x20\n        /* \"#utility.yul\":11791:11800   */\n      dup3\n        /* \"#utility.yul\":11787:11805   */\n      add\n        /* \"#utility.yul\":11779:11805   */\n      swap1\n      pop\n        /* \"#utility.yul\":11851:11860   */\n      dup2\n        /* \"#utility.yul\":11845:11849   */\n      dup2\n        /* \"#utility.yul\":11841:11861   */\n      sub\n        /* \"#utility.yul\":11837:11838   */\n      0x00\n        /* \"#utility.yul\":11826:11835   */\n      dup4\n        /* \"#utility.yul\":11822:11839   */\n      add\n        /* \"#utility.yul\":11815:11862   */\n      mstore\n        /* \"#utility.yul\":11879:11957   */\n      tag_507\n        /* \"#utility.yul\":11952:11956   */\n      dup2\n        /* \"#utility.yul\":11943:11949   */\n      dup5\n        /* \"#utility.yul\":11879:11957   */\n      tag_403\n      jump\t// in\n    tag_507:\n        /* \"#utility.yul\":11871:11957   */\n      swap1\n      pop\n        /* \"#utility.yul\":11769:11964   */\n      swap3\n      swap2\n      pop\n      pop\n      jump\t// out\n        /* \"#utility.yul\":11970:12389   */\n    tag_258:\n        /* \"#utility.yul\":12136:12140   */\n      0x00\n        /* \"#utility.yul\":12174:12176   */\n      0x20\n        /* \"#utility.yul\":12163:12172   */\n      dup3\n        /* \"#utility.yul\":12159:12177   */\n      add\n        /* \"#utility.yul\":12151:12177   */\n      swap1\n      pop\n        /* \"#utility.yul\":12223:12232   */\n      dup2\n        /* \"#utility.yul\":12217:12221   */\n      dup2\n        /* \"#utility.yul\":12213:12233   */\n      sub\n        /* \"#utility.yul\":12209:12210   */\n      0x00\n        /* \"#utility.yul\":12198:12207   */\n      dup4\n        /* \"#utility.yul\":12194:12211   */\n      add\n        /* \"#utility.yul\":12187:12234   */\n      mstore\n        /* \"#utility.yul\":12251:12382   */\n      tag_509\n        /* \"#utility.yul\":12377:12381   */\n      dup2\n        /* \"#utility.yul\":12251:12382   */\n      tag_413\n      jump\t// in\n    tag_509:\n        /* \"#utility.yul\":12243:12382   */\n      swap1\n      pop\n        /* \"#utility.yul\":12141:12389   */\n      swap2\n      swap1\n      pop\n      jump\t// out\n        /* \"#utility.yul\":12395:12814   */\n    tag_234:\n        /* \"#utility.yul\":12561:12565   */\n      0x00\n        /* \"#utility.yul\":12599:12601   */\n      0x20\n        /* \"#utility.yul\":12588:12597   */\n      dup3\n        /* \"#utility.yul\":12584:12602   */\n      add\n        /* \"#utility.yul\":12576:12602   */\n      swap1\n      pop\n        /* \"#utility.yul\":12648:12657   */\n      dup2\n        /* \"#utility.yul\":12642:12646   */\n      dup2\n        /* \"#utility.yul\":12638:12658   */\n      sub\n        /* \"#utility.yul\":12634:12635   */\n      0x00\n        /* \"#utility.yul\":12623:12632   */\n      dup4\n        /* \"#utility.yul\":12619:12636   */\n      add\n        /* \"#utility.yul\":12612:12659   */\n      mstore\n        /* \"#utility.yul\":12676:12807   */\n      tag_511\n        /* \"#utility.yul\":12802:12806   */\n      dup2\n        /* \"#utility.yul\":12676:12807   */\n      tag_418\n      jump\t// in\n    tag_511:\n        /* \"#utility.yul\":12668:12807   */\n      swap1\n      pop\n        /* \"#utility.yul\":12566:12814   */\n      swap2\n      swap1\n      pop\n      jump\t// out\n        /* \"#utility.yul\":12820:13239   */\n    tag_243:\n        /* \"#utility.yul\":12986:12990   */\n      0x00\n        /* \"#utility.yul\":13024:13026   */\n      0x20\n        /* \"#utility.yul\":13013:13022   */\n      dup3\n        /* \"#utility.yul\":13009:13027   */\n      add\n        /* \"#utility.yul\":13001:13027   */\n      swap1\n      pop\n        /* \"#utility.yul\":13073:13082   */\n      dup2\n        /* \"#utility.yul\":13067:13071   */\n      dup2\n        /* \"#utility.yul\":13063:13083   */\n      sub\n        /* \"#utility.yul\":13059:13060   */\n      0x00\n        /* \"#utility.yul\":13048:13057   */\n      dup4\n        /* \"#utility.yul\":13044:13061   */\n      add\n        /* \"#utility.yul\":13037:13084   */\n      mstore\n        /* \"#utility.yul\":13101:13232   */\n      tag_513\n        /* \"#utility.yul\":13227:13231   */\n      dup2\n        /* \"#utility.yul\":13101:13232   */\n      tag_423\n      jump\t// in\n    tag_513:\n        /* \"#utility.yul\":13093:13232   */\n      swap1\n      pop\n        /* \"#utility.yul\":12991:13239   */\n      swap2\n      swap1\n      pop\n      jump\t// out\n        /* \"#utility.yul\":13245:13664   */\n    tag_176:\n        /* \"#utility.yul\":13411:13415   */\n      0x00\n        /* \"#utility.yul\":13449:13451   */\n      0x20\n        /* \"#utility.yul\":13438:13447   */\n      dup3\n        /* \"#utility.yul\":13434:13452   */\n      add\n        /* \"#utility.yul\":13426:13452   */\n      swap1\n      pop\n        /* \"#utility.yul\":13498:13507   */\n      dup2\n        /* \"#utility.yul\":13492:13496   */\n      dup2\n        /* \"#utility.yul\":13488:13508   */\n      sub\n        /* \"#utility.yul\":13484:13485   */\n      0x00\n        /* \"#utility.yul\":13473:13482   */\n      dup4\n        /* \"#utility.yul\":13469:13486   */\n      add\n        /* \"#utility.yul\":13462:13509   */\n      mstore\n        /* \"#utility.yul\":13526:13657   */\n      tag_515\n        /* \"#utility.yul\":13652:13656   */\n      dup2\n        /* \"#utility.yul\":13526:13657   */\n      tag_428\n      jump\t// in\n    tag_515:\n        /* \"#utility.yul\":13518:13657   */\n      swap1\n      pop\n        /* \"#utility.yul\":13416:13664   */\n      swap2\n      swap1\n      pop\n      jump\t// out\n        /* \"#utility.yul\":13670:14089   */\n    tag_181:\n        /* \"#utility.yul\":13836:13840   */\n      0x00\n        /* \"#utility.yul\":13874:13876   */\n      0x20\n        /* \"#utility.yul\":13863:13872   */\n      dup3\n        /* \"#utility.yul\":13859:13877   */\n      add\n        /* \"#utility.yul\":13851:13877   */\n      swap1\n      pop\n        /* \"#utility.yul\":13923:13932   */\n      dup2\n        /* \"#utility.yul\":13917:13921   */\n      dup2\n        /* \"#utility.yul\":13913:13933   */\n      sub\n        /* \"#utility.yul\":13909:13910   */\n      0x00\n        /* \"#utility.yul\":13898:13907   */\n      dup4\n        /* \"#utility.yul\":13894:13911   */\n      add\n        /* \"#utility.yul\":13887:13934   */\n      mstore\n        /* \"#utility.yul\":13951:14082   */\n      tag_517\n        /* \"#utility.yul\":14077:14081   */\n      dup2\n        /* \"#utility.yul\":13951:14082   */\n      tag_433\n      jump\t// in\n    tag_517:\n        /* \"#utility.yul\":13943:14082   */\n      swap1\n      pop\n        /* \"#utility.yul\":13841:14089   */\n      swap2\n      swap1\n      pop\n      jump\t// out\n        /* \"#utility.yul\":14095:14514   */\n    tag_250:\n        /* \"#utility.yul\":14261:14265   */\n      0x00\n        /* \"#utility.yul\":14299:14301   */\n      0x20\n        /* \"#utility.yul\":14288:14297   */\n      dup3\n        /* \"#utility.yul\":14284:14302   */\n      add\n        /* \"#utility.yul\":14276:14302   */\n      swap1\n      pop\n        /* \"#utility.yul\":14348:14357   */\n      dup2\n        /* \"#utility.yul\":14342:14346   */\n      dup2\n        /* \"#utility.yul\":14338:14358   */\n      sub\n        /* \"#utility.yul\":14334:14335   */\n      0x00\n        /* \"#utility.yul\":14323:14332   */\n      dup4\n        /* \"#utility.yul\":14319:14336   */\n      add\n        /* \"#utility.yul\":14312:14359   */\n      mstore\n        /* \"#utility.yul\":14376:14507   */\n      tag_519\n        /* \"#utility.yul\":14502:14506   */\n      dup2\n        /* \"#utility.yul\":14376:14507   */\n      tag_438\n      jump\t// in\n    tag_519:\n        /* \"#utility.yul\":14368:14507   */\n      swap1\n      pop\n        /* \"#utility.yul\":14266:14514   */\n      swap2\n      swap1\n      pop\n      jump\t// out\n        /* \"#utility.yul\":14520:14939   */\n    tag_263:\n        /* \"#utility.yul\":14686:14690   */\n      0x00\n        /* \"#utility.yul\":14724:14726   */\n      0x20\n        /* \"#utility.yul\":14713:14722   */\n      dup3\n        /* \"#utility.yul\":14709:14727   */\n      add\n        /* \"#utility.yul\":14701:14727   */\n      swap1\n      pop\n        /* \"#utility.yul\":14773:14782   */\n      dup2\n        /* \"#utility.yul\":14767:14771   */\n      dup2\n        /* \"#utility.yul\":14763:14783   */\n      sub\n        /* \"#utility.yul\":14759:14760   */\n      0x00\n        /* \"#utility.yul\":14748:14757   */\n      dup4\n        /* \"#utility.yul\":14744:14761   */\n      add\n        /* \"#utility.yul\":14737:14784   */\n      mstore\n        /* \"#utility.yul\":14801:14932   */\n      tag_521\n        /* \"#utility.yul\":14927:14931   */\n      dup2\n        /* \"#utility.yul\":14801:14932   */\n      tag_443\n      jump\t// in\n    tag_521:\n        /* \"#utility.yul\":14793:14932   */\n      swap1\n      pop\n        /* \"#utility.yul\":14691:14939   */\n      swap2\n      swap1\n      pop\n      jump\t// out\n        /* \"#utility.yul\":14945:15364   */\n    tag_284:\n        /* \"#utility.yul\":15111:15115   */\n      0x00\n        /* \"#utility.yul\":15149:15151   */\n      0x20\n        /* \"#utility.yul\":15138:15147   */\n      dup3\n        /* \"#utility.yul\":15134:15152   */\n      add\n        /* \"#utility.yul\":15126:15152   */\n      swap1\n      pop\n        /* \"#utility.yul\":15198:15207   */\n      dup2\n        /* \"#utility.yul\":15192:15196   */\n      dup2\n        /* \"#utility.yul\":15188:15208   */\n      sub\n        /* \"#utility.yul\":15184:15185   */\n      0x00\n        /* \"#utility.yul\":15173:15182   */\n      dup4\n        /* \"#utility.yul\":15169:15186   */\n      add\n        /* \"#utility.yul\":15162:15209   */\n      mstore\n        /* \"#utility.yul\":15226:15357   */\n      tag_523\n        /* \"#utility.yul\":15352:15356   */\n      dup2\n        /* \"#utility.yul\":15226:15357   */\n      tag_448\n      jump\t// in\n    tag_523:\n        /* \"#utility.yul\":15218:15357   */\n      swap1\n      pop\n        /* \"#utility.yul\":15116:15364   */\n      swap2\n      swap1\n      pop\n      jump\t// out\n        /* \"#utility.yul\":15370:15789   */\n    tag_165:\n        /* \"#utility.yul\":15536:15540   */\n      0x00\n        /* \"#utility.yul\":15574:15576   */\n      0x20\n        /* \"#utility.yul\":15563:15572   */\n      dup3\n        /* \"#utility.yul\":15559:15577   */\n      add\n        /* \"#utility.yul\":15551:15577   */\n      swap1\n      pop\n        /* \"#utility.yul\":15623:15632   */\n      dup2\n        /* \"#utility.yul\":15617:15621   */\n      dup2\n        /* \"#utility.yul\":15613:15633   */\n      sub\n        /* \"#utility.yul\":15609:15610   */\n      0x00\n        /* \"#utility.yul\":15598:15607   */\n      dup4\n        /* \"#utility.yul\":15594:15611   */\n      add\n        /* \"#utility.yul\":15587:15634   */\n      mstore\n        /* \"#utility.yul\":15651:15782   */\n      tag_525\n        /* \"#utility.yul\":15777:15781   */\n      dup2\n        /* \"#utility.yul\":15651:15782   */\n      tag_453\n      jump\t// in\n    tag_525:\n        /* \"#utility.yul\":15643:15782   */\n      swap1\n      pop\n        /* \"#utility.yul\":15541:15789   */\n      swap2\n      swap1\n      pop\n      jump\t// out\n        /* \"#utility.yul\":15795:16214   */\n    tag_255:\n        /* \"#utility.yul\":15961:15965   */\n      0x00\n        /* \"#utility.yul\":15999:16001   */\n      0x20\n        /* \"#utility.yul\":15988:15997   */\n      dup3\n        /* \"#utility.yul\":15984:16002   */\n      add\n        /* \"#utility.yul\":15976:16002   */\n      swap1\n      pop\n        /* \"#utility.yul\":16048:16057   */\n      dup2\n        /* \"#utility.yul\":16042:16046   */\n      dup2\n        /* \"#utility.yul\":16038:16058   */\n      sub\n        /* \"#utility.yul\":16034:16035   */\n      0x00\n        /* \"#utility.yul\":16023:16032   */\n      dup4\n        /* \"#utility.yul\":16019:16036   */\n      add\n        /* \"#utility.yul\":16012:16059   */\n      mstore\n        /* \"#utility.yul\":16076:16207   */\n      tag_527\n        /* \"#utility.yul\":16202:16206   */\n      dup2\n        /* \"#utility.yul\":16076:16207   */\n      tag_458\n      jump\t// in\n    tag_527:\n        /* \"#utility.yul\":16068:16207   */\n      swap1\n      pop\n        /* \"#utility.yul\":15966:16214   */\n      swap2\n      swap1\n      pop\n      jump\t// out\n        /* \"#utility.yul\":16220:16639   */\n    tag_240:\n        /* \"#utility.yul\":16386:16390   */\n      0x00\n        /* \"#utility.yul\":16424:16426   */\n      0x20\n        /* \"#utility.yul\":16413:16422   */\n      dup3\n        /* \"#utility.yul\":16409:16427   */\n      add\n        /* \"#utility.yul\":16401:16427   */\n      swap1\n      pop\n        /* \"#utility.yul\":16473:16482   */\n      dup2\n        /* \"#utility.yul\":16467:16471   */\n      dup2\n        /* \"#utility.yul\":16463:16483   */\n      sub\n        /* \"#utility.yul\":16459:16460   */\n      0x00\n        /* \"#utility.yul\":16448:16457   */\n      dup4\n        /* \"#utility.yul\":16444:16461   */\n      add\n        /* \"#utility.yul\":16437:16484   */\n      mstore\n        /* \"#utility.yul\":16501:16632   */\n      tag_529\n        /* \"#utility.yul\":16627:16631   */\n      dup2\n        /* \"#utility.yul\":16501:16632   */\n      tag_463\n      jump\t// in\n    tag_529:\n        /* \"#utility.yul\":16493:16632   */\n      swap1\n      pop\n        /* \"#utility.yul\":16391:16639   */\n      swap2\n      swap1\n      pop\n      jump\t// out\n        /* \"#utility.yul\":16645:17064   */\n    tag_291:\n        /* \"#utility.yul\":16811:16815   */\n      0x00\n        /* \"#utility.yul\":16849:16851   */\n      0x20\n        /* \"#utility.yul\":16838:16847   */\n      dup3\n        /* \"#utility.yul\":16834:16852   */\n      add\n        /* \"#utility.yul\":16826:16852   */\n      swap1\n      pop\n        /* \"#utility.yul\":16898:16907   */\n      dup2\n        /* \"#utility.yul\":16892:16896   */\n      dup2\n        /* \"#utility.yul\":16888:16908   */\n      sub\n        /* \"#utility.yul\":16884:16885   */\n      0x00\n        /* \"#utility.yul\":16873:16882   */\n      dup4\n        /* \"#utility.yul\":16869:16886   */\n      add\n        /* \"#utility.yul\":16862:16909   */\n      mstore\n        /* \"#utility.yul\":16926:17057   */\n      tag_531\n        /* \"#utility.yul\":17052:17056   */\n      dup2\n        /* \"#utility.yul\":16926:17057   */\n      tag_468\n      jump\t// in\n    tag_531:\n        /* \"#utility.yul\":16918:17057   */\n      swap1\n      pop\n        /* \"#utility.yul\":16816:17064   */\n      swap2\n      swap1\n      pop\n      jump\t// out\n        /* \"#utility.yul\":17070:17489   */\n    tag_141:\n        /* \"#utility.yul\":17236:17240   */\n      0x00\n        /* \"#utility.yul\":17274:17276   */\n      0x20\n        /* \"#utility.yul\":17263:17272   */\n      dup3\n        /* \"#utility.yul\":17259:17277   */\n      add\n        /* \"#utility.yul\":17251:17277   */\n      swap1\n      pop\n        /* \"#utility.yul\":17323:17332   */\n      dup2\n        /* \"#utility.yul\":17317:17321   */\n      dup2\n        /* \"#utility.yul\":17313:17333   */\n      sub\n        /* \"#utility.yul\":17309:17310   */\n      0x00\n        /* \"#utility.yul\":17298:17307   */\n      dup4\n        /* \"#utility.yul\":17294:17311   */\n      add\n        /* \"#utility.yul\":17287:17334   */\n      mstore\n        /* \"#utility.yul\":17351:17482   */\n      tag_533\n        /* \"#utility.yul\":17477:17481   */\n      dup2\n        /* \"#utility.yul\":17351:17482   */\n      tag_473\n      jump\t// in\n    tag_533:\n        /* \"#utility.yul\":17343:17482   */\n      swap1\n      pop\n        /* \"#utility.yul\":17241:17489   */\n      swap2\n      swap1\n      pop\n      jump\t// out\n        /* \"#utility.yul\":17495:17914   */\n    tag_213:\n        /* \"#utility.yul\":17661:17665   */\n      0x00\n        /* \"#utility.yul\":17699:17701   */\n      0x20\n        /* \"#utility.yul\":17688:17697   */\n      dup3\n        /* \"#utility.yul\":17684:17702   */\n      add\n        /* \"#utility.yul\":17676:17702   */\n      swap1\n      pop\n        /* \"#utility.yul\":17748:17757   */\n      dup2\n        /* \"#utility.yul\":17742:17746   */\n      dup2\n        /* \"#utility.yul\":17738:17758   */\n      sub\n        /* \"#utility.yul\":17734:17735   */\n      0x00\n        /* \"#utility.yul\":17723:17732   */\n      dup4\n        /* \"#utility.yul\":17719:17736   */\n      add\n        /* \"#utility.yul\":17712:17759   */\n      mstore\n        /* \"#utility.yul\":17776:17907   */\n      tag_535\n        /* \"#utility.yul\":17902:17906   */\n      dup2\n        /* \"#utility.yul\":17776:17907   */\n      tag_478\n      jump\t// in\n    tag_535:\n        /* \"#utility.yul\":17768:17907   */\n      swap1\n      pop\n        /* \"#utility.yul\":17666:17914   */\n      swap2\n      swap1\n      pop\n      jump\t// out\n        /* \"#utility.yul\":17920:18339   */\n    tag_271:\n        /* \"#utility.yul\":18086:18090   */\n      0x00\n        /* \"#utility.yul\":18124:18126   */\n      0x20\n        /* \"#utility.yul\":18113:18122   */\n      dup3\n        /* \"#utility.yul\":18109:18127   */\n      add\n        /* \"#utility.yul\":18101:18127   */\n      swap1\n      pop\n        /* \"#utility.yul\":18173:18182   */\n      dup2\n        /* \"#utility.yul\":18167:18171   */\n      dup2\n        /* \"#utility.yul\":18163:18183   */\n      sub\n        /* \"#utility.yul\":18159:18160   */\n      0x00\n        /* \"#utility.yul\":18148:18157   */\n      dup4\n        /* \"#utility.yul\":18144:18161   */\n      add\n        /* \"#utility.yul\":18137:18184   */\n      mstore\n        /* \"#utility.yul\":18201:18332   */\n      tag_537\n        /* \"#utility.yul\":18327:18331   */\n      dup2\n        /* \"#utility.yul\":18201:18332   */\n      tag_483\n      jump\t// in\n    tag_537:\n        /* \"#utility.yul\":18193:18332   */\n      swap1\n      pop\n        /* \"#utility.yul\":18091:18339   */\n      swap2\n      swap1\n      pop\n      jump\t// out\n        /* \"#utility.yul\":18345:18567   */\n    tag_41:\n        /* \"#utility.yul\":18438:18442   */\n      0x00\n        /* \"#utility.yul\":18476:18478   */\n      0x20\n        /* \"#utility.yul\":18465:18474   */\n      dup3\n        /* \"#utility.yul\":18461:18479   */\n      add\n        /* \"#utility.yul\":18453:18479   */\n      swap1\n      pop\n        /* \"#utility.yul\":18489:18560   */\n      tag_539\n        /* \"#utility.yul\":18557:18558   */\n      0x00\n        /* \"#utility.yul\":18546:18555   */\n      dup4\n        /* \"#utility.yul\":18542:18559   */\n      add\n        /* \"#utility.yul\":18533:18539   */\n      dup5\n        /* \"#utility.yul\":18489:18560   */\n      tag_488\n      jump\t// in\n    tag_539:\n        /* \"#utility.yul\":18443:18567   */\n      swap3\n      swap2\n      pop\n      pop\n      jump\t// out\n        /* \"#utility.yul\":18573:18787   */\n    tag_50:\n        /* \"#utility.yul\":18662:18666   */\n      0x00\n        /* \"#utility.yul\":18700:18702   */\n      0x20\n        /* \"#utility.yul\":18689:18698   */\n      dup3\n        /* \"#utility.yul\":18685:18703   */\n      add\n        /* \"#utility.yul\":18677:18703   */\n      swap1\n      pop\n        /* \"#utility.yul\":18713:18780   */\n      tag_541\n        /* \"#utility.yul\":18777:18778   */\n      0x00\n        /* \"#utility.yul\":18766:18775   */\n      dup4\n        /* \"#utility.yul\":18762:18779   */\n      add\n        /* \"#utility.yul\":18753:18759   */\n      dup5\n        /* \"#utility.yul\":18713:18780   */\n      tag_492\n      jump\t// in\n    tag_541:\n        /* \"#utility.yul\":18667:18787   */\n      swap3\n      swap2\n      pop\n      pop\n      jump\t// out\n        /* \"#utility.yul\":18793:18922   */\n    tag_344:\n        /* \"#utility.yul\":18827:18833   */\n      0x00\n        /* \"#utility.yul\":18854:18874   */\n      tag_543\n      tag_544\n      jump\t// in\n    tag_543:\n        /* \"#utility.yul\":18844:18874   */\n      swap1\n      pop\n        /* \"#utility.yul\":18883:18916   */\n      tag_545\n        /* \"#utility.yul\":18911:18915   */\n      dup3\n        /* \"#utility.yul\":18903:18909   */\n      dup3\n        /* \"#utility.yul\":18883:18916   */\n      tag_546\n      jump\t// in\n    tag_545:\n        /* \"#utility.yul\":18834:18922   */\n      swap2\n      swap1\n      pop\n      jump\t// out\n        /* \"#utility.yul\":18928:19003   */\n    tag_544:\n        /* \"#utility.yul\":18961:18967   */\n      0x00\n        /* \"#utility.yul\":18994:18996   */\n      0x40\n        /* \"#utility.yul\":18988:18997   */\n      mload\n        /* \"#utility.yul\":18978:18997   */\n      swap1\n      pop\n        /* \"#utility.yul\":18968:19003   */\n      swap1\n      jump\t// out\n        /* \"#utility.yul\":19009:19317   */\n    tag_343:\n        /* \"#utility.yul\":19071:19075   */\n      0x00\n        /* \"#utility.yul\":19161:19179   */\n      0xffffffffffffffff\n        /* \"#utility.yul\":19153:19159   */\n      dup3\n        /* \"#utility.yul\":19150:19180   */\n      gt\n        /* \"#utility.yul\":19147:19149   */\n      iszero\n      tag_549\n      jumpi\n        /* \"#utility.yul\":19183:19201   */\n      tag_550\n      tag_551\n      jump\t// in\n    tag_550:\n        /* \"#utility.yul\":19147:19149   */\n    tag_549:\n        /* \"#utility.yul\":19221:19250   */\n      tag_552\n        /* \"#utility.yul\":19243:19249   */\n      dup3\n        /* \"#utility.yul\":19221:19250   */\n      tag_412\n      jump\t// in\n    tag_552:\n        /* \"#utility.yul\":19213:19250   */\n      swap1\n      pop\n        /* \"#utility.yul\":19305:19309   */\n      0x20\n        /* \"#utility.yul\":19299:19303   */\n      dup2\n        /* \"#utility.yul\":19295:19310   */\n      add\n        /* \"#utility.yul\":19287:19310   */\n      swap1\n      pop\n        /* \"#utility.yul\":19076:19317   */\n      swap2\n      swap1\n      pop\n      jump\t// out\n        /* \"#utility.yul\":19323:19422   */\n    tag_406:\n        /* \"#utility.yul\":19375:19381   */\n      0x00\n        /* \"#utility.yul\":19409:19414   */\n      dup2\n        /* \"#utility.yul\":19403:19415   */\n      mload\n        /* \"#utility.yul\":19393:19415   */\n      swap1\n      pop\n        /* \"#utility.yul\":19382:19422   */\n      swap2\n      swap1\n      pop\n      jump\t// out\n        /* \"#utility.yul\":19428:19597   */\n    tag_408:\n        /* \"#utility.yul\":19512:19523   */\n      0x00\n        /* \"#utility.yul\":19546:19552   */\n      dup3\n        /* \"#utility.yul\":19541:19544   */\n      dup3\n        /* \"#utility.yul\":19534:19553   */\n      mstore\n        /* \"#utility.yul\":19586:19590   */\n      0x20\n        /* \"#utility.yul\":19581:19584   */\n      dup3\n        /* \"#utility.yul\":19577:19591   */\n      add\n        /* \"#utility.yul\":19562:19591   */\n      swap1\n      pop\n        /* \"#utility.yul\":19524:19597   */\n      swap3\n      swap2\n      pop\n      pop\n      jump\t// out\n        /* \"#utility.yul\":19603:19908   */\n    tag_137:\n        /* \"#utility.yul\":19643:19646   */\n      0x00\n        /* \"#utility.yul\":19662:19682   */\n      tag_556\n        /* \"#utility.yul\":19680:19681   */\n      dup3\n        /* \"#utility.yul\":19662:19682   */\n      tag_491\n      jump\t// in\n    tag_556:\n        /* \"#utility.yul\":19657:19682   */\n      swap2\n      pop\n        /* \"#utility.yul\":19696:19716   */\n      tag_557\n        /* \"#utility.yul\":19714:19715   */\n      dup4\n        /* \"#utility.yul\":19696:19716   */\n      tag_491\n      jump\t// in\n    tag_557:\n        /* \"#utility.yul\":19691:19716   */\n      swap3\n      pop\n        /* \"#utility.yul\":19850:19851   */\n      dup3\n        /* \"#utility.yul\":19782:19848   */\n      0xffffffffffffffffffffffffffffffffffffffffffffffffffffffffffffffff\n        /* \"#utility.yul\":19778:19852   */\n      sub\n        /* \"#utility.yul\":19775:19776   */\n      dup3\n        /* \"#utility.yul\":19772:19853   */\n      gt\n        /* \"#utility.yul\":19769:19771   */\n      iszero\n      tag_558\n      jumpi\n        /* \"#utility.yul\":19856:19874   */\n      tag_559\n      tag_560\n      jump\t// in\n    tag_559:\n        /* \"#utility.yul\":19769:19771   */\n    tag_558:\n        /* \"#utility.yul\":19900:19901   */\n      dup3\n        /* \"#utility.yul\":19897:19898   */\n      dup3\n        /* \"#utility.yul\":19893:19902   */\n      add\n        /* \"#utility.yul\":19886:19902   */\n      swap1\n      pop\n        /* \"#utility.yul\":19647:19908   */\n      swap3\n      swap2\n      pop\n      pop\n      jump\t// out\n        /* \"#utility.yul\":19914:20105   */\n    tag_178:\n        /* \"#utility.yul\":19954:19958   */\n      0x00\n        /* \"#utility.yul\":19974:19994   */\n      tag_562\n        /* \"#utility.yul\":19992:19993   */\n      dup3\n        /* \"#utility.yul\":19974:19994   */\n      tag_491\n      jump\t// in\n    tag_562:\n        /* \"#utility.yul\":19969:19994   */\n      swap2\n      pop\n        /* \"#utility.yul\":20008:20028   */\n      tag_563\n        /* \"#utility.yul\":20026:20027   */\n      dup4\n        /* \"#utility.yul\":20008:20028   */\n      tag_491\n      jump\t// in\n    tag_563:\n        /* \"#utility.yul\":20003:20028   */\n      swap3\n      pop\n        /* \"#utility.yul\":20047:20048   */\n      dup3\n        /* \"#utility.yul\":20044:20045   */\n      dup3\n        /* \"#utility.yul\":20041:20049   */\n      lt\n        /* \"#utility.yul\":20038:20040   */\n      iszero\n      tag_564\n      jumpi\n        /* \"#utility.yul\":20052:20070   */\n      tag_565\n      tag_560\n      jump\t// in\n    tag_565:\n        /* \"#utility.yul\":20038:20040   */\n    tag_564:\n        /* \"#utility.yul\":20097:20098   */\n      dup3\n        /* \"#utility.yul\":20094:20095   */\n      dup3\n        /* \"#utility.yul\":20090:20099   */\n      sub\n        /* \"#utility.yul\":20082:20099   */\n      swap1\n      pop\n        /* \"#utility.yul\":19959:20105   */\n      swap3\n      swap2\n      pop\n      pop\n      jump\t// out\n        /* \"#utility.yul\":20111:20207   */\n    tag_394:\n        /* \"#utility.yul\":20148:20155   */\n      0x00\n        /* \"#utility.yul\":20177:20201   */\n      tag_567\n        /* \"#utility.yul\":20195:20200   */\n      dup3\n        /* \"#utility.yul\":20177:20201   */\n      tag_568\n      jump\t// in\n    tag_567:\n        /* \"#utility.yul\":20166:20201   */\n      swap1\n      pop\n        /* \"#utility.yul\":20156:20207   */\n      swap2\n      swap1\n      pop\n      jump\t// out\n        /* \"#utility.yul\":20213:20303   */\n    tag_398:\n        /* \"#utility.yul\":20247:20254   */\n      0x00\n        /* \"#utility.yul\":20290:20295   */\n      dup2\n        /* \"#utility.yul\":20283:20296   */\n      iszero\n        /* \"#utility.yul\":20276:20297   */\n      iszero\n        /* \"#utility.yul\":20265:20297   */\n      swap1\n      pop\n        /* \"#utility.yul\":20255:20303   */\n      swap2\n      swap1\n      pop\n      jump\t// out\n        /* \"#utility.yul\":20309:20435   */\n    tag_568:\n        /* \"#utility.yul\":20346:20353   */\n      0x00\n        /* \"#utility.yul\":20386:20428   */\n      0xffffffffffffffffffffffffffffffffffffffff\n        /* \"#utility.yul\":20379:20384   */\n      dup3\n        /* \"#utility.yul\":20375:20429   */\n      and\n        /* \"#utility.yul\":20364:20429   */\n      swap1\n      pop\n        /* \"#utility.yul\":20354:20435   */\n      swap2\n      swap1\n      pop\n      jump\t// out\n        /* \"#utility.yul\":20441:20518   */\n    tag_491:\n        /* \"#utility.yul\":20478:20485   */\n      0x00\n        /* \"#utility.yul\":20507:20512   */\n      dup2\n        /* \"#utility.yul\":20496:20512   */\n      swap1\n      pop\n        /* \"#utility.yul\":20486:20518   */\n      swap2\n      swap1\n      pop\n      jump\t// out\n        /* \"#utility.yul\":20524:20610   */\n    tag_495:\n        /* \"#utility.yul\":20559:20566   */\n      0x00\n        /* \"#utility.yul\":20599:20603   */\n      0xff\n        /* \"#utility.yul\":20592:20597   */\n      dup3\n        /* \"#utility.yul\":20588:20604   */\n      and\n        /* \"#utility.yul\":20577:20604   */\n      swap1\n      pop\n        /* \"#utility.yul\":20567:20610   */\n      swap2\n      swap1\n      pop\n      jump\t// out\n        /* \"#utility.yul\":20616:20733   */\n    tag_402:\n        /* \"#utility.yul\":20672:20681   */\n      0x00\n        /* \"#utility.yul\":20705:20727   */\n      tag_574\n        /* \"#utility.yul\":20721:20726   */\n      dup3\n        /* \"#utility.yul\":20705:20727   */\n      tag_495\n      jump\t// in\n    tag_574:\n        /* \"#utility.yul\":20692:20727   */\n      swap1\n      pop\n        /* \"#utility.yul\":20682:20733   */\n      swap2\n      swap1\n      pop\n      jump\t// out\n        /* \"#utility.yul\":20739:20893   */\n    tag_347:\n        /* \"#utility.yul\":20823:20829   */\n      dup3\n        /* \"#utility.yul\":20818:20821   */\n      dup2\n        /* \"#utility.yul\":20813:20816   */\n      dup4\n        /* \"#utility.yul\":20800:20830   */\n      calldatacopy\n        /* \"#utility.yul\":20885:20886   */\n      0x00\n        /* \"#utility.yul\":20876:20882   */\n      dup4\n        /* \"#utility.yul\":20871:20874   */\n      dup4\n        /* \"#utility.yul\":20867:20883   */\n      add\n        /* \"#utility.yul\":20860:20887   */\n      mstore\n        /* \"#utility.yul\":20790:20893   */\n      pop\n      pop\n      pop\n      jump\t// out\n        /* \"#utility.yul\":20899:21206   */\n    tag_410:\n        /* \"#utility.yul\":20967:20968   */\n      0x00\n        /* \"#utility.yul\":20977:21090   */\n    tag_577:\n        /* \"#utility.yul\":20991:20997   */\n      dup4\n        /* \"#utility.yul\":20988:20989   */\n      dup2\n        /* \"#utility.yul\":20985:20998   */\n      lt\n        /* \"#utility.yul\":20977:21090   */\n      iszero\n      tag_579\n      jumpi\n        /* \"#utility.yul\":21076:21077   */\n      dup1\n        /* \"#utility.yul\":21071:21074   */\n      dup3\n        /* \"#utility.yul\":21067:21078   */\n      add\n        /* \"#utility.yul\":21061:21079   */\n      mload\n        /* \"#utility.yul\":21057:21058   */\n      dup2\n        /* \"#utility.yul\":21052:21055   */\n      dup5\n        /* \"#utility.yul\":21048:21059   */\n      add\n        /* \"#utility.yul\":21041:21080   */\n      mstore\n        /* \"#utility.yul\":21013:21015   */\n      0x20\n        /* \"#utility.yul\":21010:21011   */\n      dup2\n        /* \"#utility.yul\":21006:21016   */\n      add\n        /* \"#utility.yul\":21001:21016   */\n      swap1\n      pop\n        /* \"#utility.yul\":20977:21090   */\n      jump(tag_577)\n    tag_579:\n        /* \"#utility.yul\":21108:21114   */\n      dup4\n        /* \"#utility.yul\":21105:21106   */\n      dup2\n        /* \"#utility.yul\":21102:21115   */\n      gt\n        /* \"#utility.yul\":21099:21101   */\n      iszero\n      tag_580\n      jumpi\n        /* \"#utility.yul\":21188:21189   */\n      0x00\n        /* \"#utility.yul\":21179:21185   */\n      dup5\n        /* \"#utility.yul\":21174:21177   */\n      dup5\n        /* \"#utility.yul\":21170:21186   */\n      add\n        /* \"#utility.yul\":21163:21190   */\n      mstore\n        /* \"#utility.yul\":21099:21101   */\n    tag_580:\n        /* \"#utility.yul\":20948:21206   */\n      pop\n      pop\n      pop\n      pop\n      jump\t// out\n        /* \"#utility.yul\":21212:21532   */\n    tag_114:\n        /* \"#utility.yul\":21256:21262   */\n      0x00\n        /* \"#utility.yul\":21293:21294   */\n      0x02\n        /* \"#utility.yul\":21287:21291   */\n      dup3\n        /* \"#utility.yul\":21283:21295   */\n      div\n        /* \"#utility.yul\":21273:21295   */\n      swap1\n      pop\n        /* \"#utility.yul\":21340:21341   */\n      0x01\n        /* \"#utility.yul\":21334:21338   */\n      dup3\n        /* \"#utility.yul\":21330:21342   */\n      and\n        /* \"#utility.yul\":21361:21379   */\n      dup1\n        /* \"#utility.yul\":21351:21353   */\n      tag_582\n      jumpi\n        /* \"#utility.yul\":21417:21421   */\n      0x7f\n        /* \"#utility.yul\":21409:21415   */\n      dup3\n        /* \"#utility.yul\":21405:21422   */\n      and\n        /* \"#utility.yul\":21395:21422   */\n      swap2\n      pop\n        /* \"#utility.yul\":21351:21353   */\n    tag_582:\n        /* \"#utility.yul\":21479:21481   */\n      0x20\n        /* \"#utility.yul\":21471:21477   */\n      dup3\n        /* \"#utility.yul\":21468:21482   */\n      lt\n        /* \"#utility.yul\":21448:21466   */\n      dup2\n        /* \"#utility.yul\":21445:21483   */\n      eq\n        /* \"#utility.yul\":21442:21444   */\n      iszero\n      tag_583\n      jumpi\n        /* \"#utility.yul\":21498:21516   */\n      tag_584\n      tag_585\n      jump\t// in\n    tag_584:\n        /* \"#utility.yul\":21442:21444   */\n    tag_583:\n        /* \"#utility.yul\":21263:21532   */\n      pop\n      swap2\n      swap1\n      pop\n      jump\t// out\n        /* \"#utility.yul\":21538:21819   */\n    tag_546:\n        /* \"#utility.yul\":21621:21648   */\n      tag_587\n        /* \"#utility.yul\":21643:21647   */\n      dup3\n        /* \"#utility.yul\":21621:21648   */\n      tag_412\n      jump\t// in\n    tag_587:\n        /* \"#utility.yul\":21613:21619   */\n      dup2\n        /* \"#utility.yul\":21609:21649   */\n      add\n        /* \"#utility.yul\":21751:21757   */\n      dup2\n        /* \"#utility.yul\":21739:21749   */\n      dup2\n        /* \"#utility.yul\":21736:21758   */\n      lt\n        /* \"#utility.yul\":21715:21733   */\n      0xffffffffffffffff\n        /* \"#utility.yul\":21703:21713   */\n      dup3\n        /* \"#utility.yul\":21700:21734   */\n      gt\n        /* \"#utility.yul\":21697:21759   */\n      or\n        /* \"#utility.yul\":21694:21696   */\n      iszero\n      tag_588\n      jumpi\n        /* \"#utility.yul\":21762:21780   */\n      tag_589\n      tag_551\n      jump\t// in\n    tag_589:\n        /* \"#utility.yul\":21694:21696   */\n    tag_588:\n        /* \"#utility.yul\":21802:21812   */\n      dup1\n        /* \"#utility.yul\":21798:21800   */\n      0x40\n        /* \"#utility.yul\":21791:21813   */\n      mstore\n        /* \"#utility.yul\":21581:21819   */\n      pop\n      pop\n      pop\n      jump\t// out\n        /* \"#utility.yul\":21825:22005   */\n    tag_560:\n        /* \"#utility.yul\":21873:21950   */\n      0x4e487b7100000000000000000000000000000000000000000000000000000000\n        /* \"#utility.yul\":21870:21871   */\n      0x00\n        /* \"#utility.yul\":21863:21951   */\n      mstore\n        /* \"#utility.yul\":21970:21974   */\n      0x11\n        /* \"#utility.yul\":21967:21968   */\n      0x04\n        /* \"#utility.yul\":21960:21975   */\n      mstore\n        /* \"#utility.yul\":21994:21998   */\n      0x24\n        /* \"#utility.yul\":21991:21992   */\n      0x00\n        /* \"#utility.yul\":21984:21999   */\n      revert\n        /* \"#utility.yul\":22011:22191   */\n    tag_585:\n        /* \"#utility.yul\":22059:22136   */\n      0x4e487b7100000000000000000000000000000000000000000000000000000000\n        /* \"#utility.yul\":22056:22057   */\n      0x00\n        /* \"#utility.yul\":22049:22137   */\n      mstore\n        /* \"#utility.yul\":22156:22160   */\n      0x22\n        /* \"#utility.yul\":22153:22154   */\n      0x04\n        /* \"#utility.yul\":22146:22161   */\n      mstore\n        /* \"#utility.yul\":22180:22184   */\n      0x24\n        /* \"#utility.yul\":22177:22178   */\n      0x00\n        /* \"#utility.yul\":22170:22185   */\n      revert\n        /* \"#utility.yul\":22197:22377   */\n    tag_551:\n        /* \"#utility.yul\":22245:22322   */\n      0x4e487b7100000000000000000000000000000000000000000000000000000000\n        /* \"#utility.yul\":22242:22243   */\n      0x00\n        /* \"#utility.yul\":22235:22323   */\n      mstore\n        /* \"#utility.yul\":22342:22346   */\n      0x41\n        /* \"#utility.yul\":22339:22340   */\n      0x04\n        /* \"#utility.yul\":22332:22347   */\n      mstore\n        /* \"#utility.yul\":22366:22370   */\n      0x24\n        /* \"#utility.yul\":22363:22364   */\n      0x00\n        /* \"#utility.yul\":22356:22371   */\n      revert\n        /* \"#utility.yul\":22383:22485   */\n    tag_412:\n        /* \"#utility.yul\":22424:22430   */\n      0x00\n        /* \"#utility.yul\":22475:22477   */\n      0x1f\n        /* \"#utility.yul\":22471:22478   */\n      not\n        /* \"#utility.yul\":22466:22468   */\n      0x1f\n        /* \"#utility.yul\":22459:22464   */\n      dup4\n        /* \"#utility.yul\":22455:22469   */\n      add\n        /* \"#utility.yul\":22451:22479   */\n      and\n        /* \"#utility.yul\":22441:22479   */\n      swap1\n      pop\n        /* \"#utility.yul\":22431:22485   */\n      swap2\n      swap1\n      pop\n      jump\t// out\n        /* \"#utility.yul\":22491:22713   */\n    tag_417:\n        /* \"#utility.yul\":22631:22665   */\n      0x45524332303a207472616e7366657220746f20746865207a65726f2061646472\n        /* \"#utility.yul\":22627:22628   */\n      0x00\n        /* \"#utility.yul\":22619:22625   */\n      dup3\n        /* \"#utility.yul\":22615:22629   */\n      add\n        /* \"#utility.yul\":22608:22666   */\n      mstore\n        /* \"#utility.yul\":22700:22705   */\n      0x6573730000000000000000000000000000000000000000000000000000000000\n        /* \"#utility.yul\":22695:22697   */\n      0x20\n        /* \"#utility.yul\":22687:22693   */\n      dup3\n        /* \"#utility.yul\":22683:22698   */\n      add\n        /* \"#utility.yul\":22676:22706   */\n      mstore\n        /* \"#utility.yul\":22597:22713   */\n      pop\n      jump\t// out\n        /* \"#utility.yul\":22719:22944   */\n    tag_422:\n        /* \"#utility.yul\":22859:22893   */\n      0x4f776e61626c653a206e6577206f776e657220697320746865207a65726f2061\n        /* \"#utility.yul\":22855:22856   */\n      0x00\n        /* \"#utility.yul\":22847:22853   */\n      dup3\n        /* \"#utility.yul\":22843:22857   */\n      add\n        /* \"#utility.yul\":22836:22894   */\n      mstore\n        /* \"#utility.yul\":22928:22936   */\n      0x6464726573730000000000000000000000000000000000000000000000000000\n        /* \"#utility.yul\":22923:22925   */\n      0x20\n        /* \"#utility.yul\":22915:22921   */\n      dup3\n        /* \"#utility.yul\":22911:22926   */\n      add\n        /* \"#utility.yul\":22904:22937   */\n      mstore\n        /* \"#utility.yul\":22825:22944   */\n      pop\n      jump\t// out\n        /* \"#utility.yul\":22950:23171   */\n    tag_427:\n        /* \"#utility.yul\":23090:23124   */\n      0x45524332303a20617070726f766520746f20746865207a65726f206164647265\n        /* \"#utility.yul\":23086:23087   */\n      0x00\n        /* \"#utility.yul\":23078:23084   */\n      dup3\n        /* \"#utility.yul\":23074:23088   */\n      add\n        /* \"#utility.yul\":23067:23125   */\n      mstore\n        /* \"#utility.yul\":23159:23163   */\n      0x7373000000000000000000000000000000000000000000000000000000000000\n        /* \"#utility.yul\":23154:23156   */\n      0x20\n        /* \"#utility.yul\":23146:23152   */\n      dup3\n        /* \"#utility.yul\":23142:23157   */\n      add\n        /* \"#utility.yul\":23135:23164   */\n      mstore\n        /* \"#utility.yul\":23056:23171   */\n      pop\n      jump\t// out\n        /* \"#utility.yul\":23177:23339   */\n    tag_432:\n        /* \"#utility.yul\":23317:23331   */\n      0x554e415554484f52495a45440000000000000000000000000000000000000000\n        /* \"#utility.yul\":23313:23314   */\n      0x00\n        /* \"#utility.yul\":23305:23311   */\n      dup3\n        /* \"#utility.yul\":23301:23315   */\n      add\n        /* \"#utility.yul\":23294:23332   */\n      mstore\n        /* \"#utility.yul\":23283:23339   */\n      pop\n      jump\t// out\n        /* \"#utility.yul\":23345:23506   */\n    tag_437:\n        /* \"#utility.yul\":23485:23498   */\n      0x4f4e20434f4f4c444f574e000000000000000000000000000000000000000000\n        /* \"#utility.yul\":23481:23482   */\n      0x00\n        /* \"#utility.yul\":23473:23479   */\n      dup3\n        /* \"#utility.yul\":23469:23483   */\n      add\n        /* \"#utility.yul\":23462:23499   */\n      mstore\n        /* \"#utility.yul\":23451:23506   */\n      pop\n      jump\t// out\n        /* \"#utility.yul\":23512:23691   */\n    tag_442:\n        /* \"#utility.yul\":23652:23683   */\n      0x45524332303a20696e73756666696369656e7420616c6c6f77616e6365000000\n        /* \"#utility.yul\":23648:23649   */\n      0x00\n        /* \"#utility.yul\":23640:23646   */\n      dup3\n        /* \"#utility.yul\":23636:23650   */\n      add\n        /* \"#utility.yul\":23629:23684   */\n      mstore\n        /* \"#utility.yul\":23618:23691   */\n      pop\n      jump\t// out\n        /* \"#utility.yul\":23697:23922   */\n    tag_447:\n        /* \"#utility.yul\":23837:23871   */\n      0x45524332303a207472616e7366657220616d6f756e7420657863656564732062\n        /* \"#utility.yul\":23833:23834   */\n      0x00\n        /* \"#utility.yul\":23825:23831   */\n      dup3\n        /* \"#utility.yul\":23821:23835   */\n      add\n        /* \"#utility.yul\":23814:23872   */\n      mstore\n        /* \"#utility.yul\":23906:23914   */\n      0x616c616e63650000000000000000000000000000000000000000000000000000\n        /* \"#utility.yul\":23901:23903   */\n      0x20\n        /* \"#utility.yul\":23893:23899   */\n      dup3\n        /* \"#utility.yul\":23889:23904   */\n      add\n        /* \"#utility.yul\":23882:23915   */\n      mstore\n        /* \"#utility.yul\":23803:23922   */\n      pop\n      jump\t// out\n        /* \"#utility.yul\":23928:24161   */\n    tag_452:\n        /* \"#utility.yul\":24068:24102   */\n      0x496e697469616c697a61626c653a20636f6e747261637420697320616c726561\n        /* \"#utility.yul\":24064:24065   */\n      0x00\n        /* \"#utility.yul\":24056:24062   */\n      dup3\n        /* \"#utility.yul\":24052:24066   */\n      add\n        /* \"#utility.yul\":24045:24103   */\n      mstore\n        /* \"#utility.yul\":24137:24153   */\n      0x647920696e697469616c697a6564000000000000000000000000000000000000\n        /* \"#utility.yul\":24132:24134   */\n      0x20\n        /* \"#utility.yul\":24124:24130   */\n      dup3\n        /* \"#utility.yul\":24120:24135   */\n      add\n        /* \"#utility.yul\":24113:24154   */\n      mstore\n        /* \"#utility.yul\":24034:24161   */\n      pop\n      jump\t// out\n        /* \"#utility.yul\":24167:24349   */\n    tag_457:\n        /* \"#utility.yul\":24307:24341   */\n      0x4f776e61626c653a2063616c6c6572206973206e6f7420746865206f776e6572\n        /* \"#utility.yul\":24303:24304   */\n      0x00\n        /* \"#utility.yul\":24295:24301   */\n      dup3\n        /* \"#utility.yul\":24291:24305   */\n      add\n        /* \"#utility.yul\":24284:24342   */\n      mstore\n        /* \"#utility.yul\":24273:24349   */\n      pop\n      jump\t// out\n        /* \"#utility.yul\":24355:24579   */\n    tag_462:\n        /* \"#utility.yul\":24495:24529   */\n      0x45524332303a207472616e736665722066726f6d20746865207a65726f206164\n        /* \"#utility.yul\":24491:24492   */\n      0x00\n        /* \"#utility.yul\":24483:24489   */\n      dup3\n        /* \"#utility.yul\":24479:24493   */\n      add\n        /* \"#utility.yul\":24472:24530   */\n      mstore\n        /* \"#utility.yul\":24564:24571   */\n      0x6472657373000000000000000000000000000000000000000000000000000000\n        /* \"#utility.yul\":24559:24561   */\n      0x20\n        /* \"#utility.yul\":24551:24557   */\n      dup3\n        /* \"#utility.yul\":24547:24562   */\n      add\n        /* \"#utility.yul\":24540:24572   */\n      mstore\n        /* \"#utility.yul\":24461:24579   */\n      pop\n      jump\t// out\n        /* \"#utility.yul\":24585:24808   */\n    tag_467:\n        /* \"#utility.yul\":24725:24759   */\n      0x45524332303a20617070726f76652066726f6d20746865207a65726f20616464\n        /* \"#utility.yul\":24721:24722   */\n      0x00\n        /* \"#utility.yul\":24713:24719   */\n      dup3\n        /* \"#utility.yul\":24709:24723   */\n      add\n        /* \"#utility.yul\":24702:24760   */\n      mstore\n        /* \"#utility.yul\":24794:24800   */\n      0x7265737300000000000000000000000000000000000000000000000000000000\n        /* \"#utility.yul\":24789:24791   */\n      0x20\n        /* \"#utility.yul\":24781:24787   */\n      dup3\n        /* \"#utility.yul\":24777:24792   */\n      add\n        /* \"#utility.yul\":24770:24801   */\n      mstore\n        /* \"#utility.yul\":24691:24808   */\n      pop\n      jump\t// out\n        /* \"#utility.yul\":24814:25044   */\n    tag_472:\n        /* \"#utility.yul\":24954:24988   */\n      0x496e697469616c697a61626c653a20636f6e7472616374206973206e6f742069\n        /* \"#utility.yul\":24950:24951   */\n      0x00\n        /* \"#utility.yul\":24942:24948   */\n      dup3\n        /* \"#utility.yul\":24938:24952   */\n      add\n        /* \"#utility.yul\":24931:24989   */\n      mstore\n        /* \"#utility.yul\":25023:25036   */\n      0x6e697469616c697a696e67000000000000000000000000000000000000000000\n        /* \"#utility.yul\":25018:25020   */\n      0x20\n        /* \"#utility.yul\":25010:25016   */\n      dup3\n        /* \"#utility.yul\":25006:25021   */\n      add\n        /* \"#utility.yul\":24999:25037   */\n      mstore\n        /* \"#utility.yul\":24920:25044   */\n      pop\n      jump\t// out\n        /* \"#utility.yul\":25050:25214   */\n    tag_477:\n        /* \"#utility.yul\":25190:25206   */\n      0x4f6e6c792077686974656c697374000000000000000000000000000000000000\n        /* \"#utility.yul\":25186:25187   */\n      0x00\n        /* \"#utility.yul\":25178:25184   */\n      dup3\n        /* \"#utility.yul\":25174:25188   */\n      add\n        /* \"#utility.yul\":25167:25207   */\n      mstore\n        /* \"#utility.yul\":25156:25214   */\n      pop\n      jump\t// out\n        /* \"#utility.yul\":25220:25444   */\n    tag_482:\n        /* \"#utility.yul\":25360:25394   */\n      0x45524332303a2064656372656173656420616c6c6f77616e63652062656c6f77\n        /* \"#utility.yul\":25356:25357   */\n      0x00\n        /* \"#utility.yul\":25348:25354   */\n      dup3\n        /* \"#utility.yul\":25344:25358   */\n      add\n        /* \"#utility.yul\":25337:25395   */\n      mstore\n        /* \"#utility.yul\":25429:25436   */\n      0x207a65726f000000000000000000000000000000000000000000000000000000\n        /* \"#utility.yul\":25424:25426   */\n      0x20\n        /* \"#utility.yul\":25416:25422   */\n      dup3\n        /* \"#utility.yul\":25412:25427   */\n      add\n        /* \"#utility.yul\":25405:25437   */\n      mstore\n        /* \"#utility.yul\":25326:25444   */\n      pop\n      jump\t// out\n        /* \"#utility.yul\":25450:25631   */\n    tag_487:\n        /* \"#utility.yul\":25590:25623   */\n      0x45524332303a206d696e7420746f20746865207a65726f206164647265737300\n        /* \"#utility.yul\":25586:25587   */\n      0x00\n        /* \"#utility.yul\":25578:25584   */\n      dup3\n        /* \"#utility.yul\":25574:25588   */\n      add\n        /* \"#utility.yul\":25567:25624   */\n      mstore\n        /* \"#utility.yul\":25556:25631   */\n      pop\n      jump\t// out\n        /* \"#utility.yul\":25637:25759   */\n    tag_351:\n        /* \"#utility.yul\":25710:25734   */\n      tag_610\n        /* \"#utility.yul\":25728:25733   */\n      dup2\n        /* \"#utility.yul\":25710:25734   */\n      tag_394\n      jump\t// in\n    tag_610:\n        /* \"#utility.yul\":25703:25708   */\n      dup2\n        /* \"#utility.yul\":25700:25735   */\n      eq\n        /* \"#utility.yul\":25690:25692   */\n      tag_611\n      jumpi\n        /* \"#utility.yul\":25749:25750   */\n      0x00\n        /* \"#utility.yul\":25746:25747   */\n      dup1\n        /* \"#utility.yul\":25739:25751   */\n      revert\n        /* \"#utility.yul\":25690:25692   */\n    tag_611:\n        /* \"#utility.yul\":25680:25759   */\n      pop\n      jump\t// out\n        /* \"#utility.yul\":25765:25887   */\n    tag_362:\n        /* \"#utility.yul\":25838:25862   */\n      tag_613\n        /* \"#utility.yul\":25856:25861   */\n      dup2\n        /* \"#utility.yul\":25838:25862   */\n      tag_491\n      jump\t// in\n    tag_613:\n        /* \"#utility.yul\":25831:25836   */\n      dup2\n        /* \"#utility.yul\":25828:25863   */\n      eq\n        /* \"#utility.yul\":25818:25820   */\n      tag_614\n      jumpi\n        /* \"#utility.yul\":25877:25878   */\n      0x00\n        /* \"#utility.yul\":25874:25875   */\n      dup1\n        /* \"#utility.yul\":25867:25879   */\n      revert\n        /* \"#utility.yul\":25818:25820   */\n    tag_614:\n        /* \"#utility.yul\":25808:25887   */\n      pop\n      jump\t// out\n\n    auxdata: 0xa2646970667358221220a715de998ac0a86409d0a619a9ba97fe8ca57abff1e54ad5d2c64ca1952c255f64736f6c63430008040033\n}\n",
				"bytecode": {
					"linkReferences": {},
					"object": "608060405234801561001057600080fd5b50612842806100206000396000f3fe608060405234801561001057600080fd5b50600436106101425760003560e01c806370a08231116100b8578063a457c2d71161007c578063a457c2d714610351578063a9059cbb14610381578063be023d84146103b1578063d1a20509146103cd578063dd62ed3e146103fd578063f2fde38b1461042d57610142565b806370a08231146102bf578063715018a6146102ef578063854cff2f146102f95780638da5cb5b1461031557806395d89b411461033357610142565b8063395093511161010a578063395093511461020157806340c10f19146102315780634cd88b761461024d5780634fc3f41a1461026957806359176c8d146102855780635c975abb146102a157610142565b806306fdde0314610147578063095ea7b31461016557806318160ddd1461019557806323b872dd146101b3578063313ce567146101e3575b600080fd5b61014f610449565b60405161015c9190611f43565b60405180910390f35b61017f600480360381019061017a9190611b59565b6104db565b60405161018c9190611f0d565b60405180910390f35b61019d6104fe565b6040516101aa9190612145565b60405180910390f35b6101cd60048036038101906101c89190611b0a565b610508565b6040516101da9190611f0d565b60405180910390f35b6101eb610537565b6040516101f89190612160565b60405180910390f35b61021b60048036038101906102169190611b59565b610540565b6040516102289190611f0d565b60405180910390f35b61024b60048036038101906102469190611b59565b610577565b005b61026760048036038101906102629190611b95565b610611565b005b610283600480360381019061027e9190611c01565b6106d7565b005b61029f600480360381019061029a9190611c01565b61075d565b005b6102a961093d565b6040516102b69190611f0d565b60405180910390f35b6102d960048036038101906102d49190611a7c565b610954565b6040516102e69190612145565b60405180910390f35b6102f761099d565b005b610313600480360381019061030e9190611a7c565b610a25565b005b61031d610afc565b60405161032a9190611ebb565b60405180910390f35b61033b610b26565b6040516103489190611f43565b60405180910390f35b61036b60048036038101906103669190611b59565b610bb8565b6040516103789190611f0d565b60405180910390f35b61039b60048036038101906103969190611b59565b610c2f565b6040516103a89190611f0d565b60405180910390f35b6103cb60048036038101906103c69190611a7c565b610c52565b005b6103e760048036038101906103e29190611c01565b610d12565b6040516103f49190612145565b60405180910390f35b61041760048036038101906104129190611ace565b610d2f565b6040516104249190612145565b60405180910390f35b61044760048036038101906104429190611a7c565b610db6565b005b60606036805461045890612320565b80601f016020809104026020016040519081016040528092919081815260200182805461048490612320565b80156104d15780601f106104a6576101008083540402835291602001916104d1565b820191906000526020600020905b8154815290600101906020018083116104b457829003601f168201915b5050505050905090565b6000806104e6610eae565b90506104f3818585610eb6565b600191505092915050565b6000603554905090565b600080610513610eae565b9050610520858285611081565b61052b85858561110d565b60019150509392505050565b60006012905090565b60008061054b610eae565b905061056c81858561055d8589610d2f565b61056791906121ed565b610eb6565b600191505092915050565b60cc60003373ffffffffffffffffffffffffffffffffffffffff1673ffffffffffffffffffffffffffffffffffffffff16815260200190815260200160002060009054906101000a900460ff16610603576040517f08c379a00000000000000000000000000000000000000000000000000000000081526004016105fa906120e5565b60405180910390fd5b61060d8282611391565b5050565b600061061d60016114f2565b90508015610641576001600060016101000a81548160ff0219169083151502179055505b61064b83836115e2565b61065361163f565b61065b611698565b610671336b204fce5e3e25026110000000611391565b603c60ca8190555080156106d25760008060016101000a81548160ff0219169083151502179055507f7f26b83ff96e1f2b6a682f133852f6798a09c465da95921460cefb384740249860016040516106c99190611f28565b60405180910390a15b505050565b6106df610eae565b73ffffffffffffffffffffffffffffffffffffffff166106fd610afc565b73ffffffffffffffffffffffffffffffffffffffff1614610753576040517f08c379a000000000000000000000000000000000000000000000000000000000815260040161074a90612065565b60405180910390fd5b8060ca8190555050565b3373ffffffffffffffffffffffffffffffffffffffff1660cb60009054906101000a900473ffffffffffffffffffffffffffffffffffffffff1673ffffffffffffffffffffffffffffffffffffffff16636352211e836040518263ffffffff1660e01b81526004016107cf9190612145565b60206040518083038186803b1580156107e757600080fd5b505afa1580156107fb573d6000803e3d6000fd5b505050506040513d601f19601f8201168201806040525081019061081f9190611aa5565b73ffffffffffffffffffffffffffffffffffffffff1614610875576040517f08c379a000000000000000000000000000000000000000000000000000000000815260040161086c90611fc5565b60405180910390fd5b6201518060cd600083815260200190815260200160002054426108989190612243565b10156108d9576040517f08c379a00000000000000000000000000000000000000000000000000000000081526004016108d090611fe5565b60405180910390fd5b6108e53360c954611391565b4260cd6000838152602001908152602001600020819055507f8dce8756778b482ef8cfef8c65faadc506ce94e081bb6cc3a2d3448d99de9a503360c9544260405161093293929190611ed6565b60405180910390a150565b6000609760009054906101000a900460ff16905090565b6000603360008373ffffffffffffffffffffffffffffffffffffffff1673ffffffffffffffffffffffffffffffffffffffff168152602001908152602001600020549050919050565b6109a5610eae565b73ffffffffffffffffffffffffffffffffffffffff166109c3610afc565b73ffffffffffffffffffffffffffffffffffffffff1614610a19576040517f08c379a0000000000000000000000000000000000000000000000000000000008152600401610a1090612065565b60405180910390fd5b610a2360006116f1565b565b610a2d610eae565b73ffffffffffffffffffffffffffffffffffffffff16610a4b610afc565b73ffffffffffffffffffffffffffffffffffffffff1614610aa1576040517f08c379a0000000000000000000000000000000000000000000000000000000008152600401610a9890612065565b60405180910390fd5b600160cc60008373ffffffffffffffffffffffffffffffffffffffff1673ffffffffffffffffffffffffffffffffffffffff16815260200190815260200160002060006101000a81548160ff02191690831515021790555050565b6000606560009054906101000a900473ffffffffffffffffffffffffffffffffffffffff16905090565b606060378054610b3590612320565b80601f0160208091040260200160405190810160405280929190818152602001828054610b6190612320565b8015610bae5780601f10610b8357610100808354040283529160200191610bae565b820191906000526020600020905b815481529060010190602001808311610b9157829003601f168201915b5050505050905090565b600080610bc3610eae565b90506000610bd18286610d2f565b905083811015610c16576040517f08c379a0000000000000000000000000000000000000000000000000000000008152600401610c0d90612105565b60405180910390fd5b610c238286868403610eb6565b60019250505092915050565b600080610c3a610eae565b9050610c4781858561110d565b600191505092915050565b610c5a610eae565b73ffffffffffffffffffffffffffffffffffffffff16610c78610afc565b73ffffffffffffffffffffffffffffffffffffffff1614610cce576040517f08c379a0000000000000000000000000000000000000000000000000000000008152600401610cc590612065565b60405180910390fd5b8060cb60006101000a81548173ffffffffffffffffffffffffffffffffffffffff021916908373ffffffffffffffffffffffffffffffffffffffff16021790555050565b600060cd6000838152602001908152602001600020549050919050565b6000603460008473ffffffffffffffffffffffffffffffffffffffff1673ffffffffffffffffffffffffffffffffffffffff16815260200190815260200160002060008373ffffffffffffffffffffffffffffffffffffffff1673ffffffffffffffffffffffffffffffffffffffff16815260200190815260200160002054905092915050565b610dbe610eae565b73ffffffffffffffffffffffffffffffffffffffff16610ddc610afc565b73ffffffffffffffffffffffffffffffffffffffff1614610e32576040517f08c379a0000000000000000000000000000000000000000000000000000000008152600401610e2990612065565b60405180910390fd5b600073ffffffffffffffffffffffffffffffffffffffff168173ffffffffffffffffffffffffffffffffffffffff161415610ea2576040517f08c379a0000000000000000000000000000000000000000000000000000000008152600401610e9990611f85565b60405180910390fd5b610eab816116f1565b50565b600033905090565b600073ffffffffffffffffffffffffffffffffffffffff168373ffffffffffffffffffffffffffffffffffffffff161415610f26576040517f08c379a0000000000000000000000000000000000000000000000000000000008152600401610f1d906120a5565b60405180910390fd5b600073ffffffffffffffffffffffffffffffffffffffff168273ffffffffffffffffffffffffffffffffffffffff161415610f96576040517f08c379a0000000000000000000000000000000000000000000000000000000008152600401610f8d90611fa5565b60405180910390fd5b80603460008573ffffffffffffffffffffffffffffffffffffffff1673ffffffffffffffffffffffffffffffffffffffff16815260200190815260200160002060008473ffffffffffffffffffffffffffffffffffffffff1673ffffffffffffffffffffffffffffffffffffffff168152602001908152602001600020819055508173ffffffffffffffffffffffffffffffffffffffff168373ffffffffffffffffffffffffffffffffffffffff167f8c5be1e5ebec7d5bd14f71427d1e84f3dd0314c0f7b2291e5b200ac8c7c3b925836040516110749190612145565b60405180910390a3505050565b600061108d8484610d2f565b90507fffffffffffffffffffffffffffffffffffffffffffffffffffffffffffffffff811461110757818110156110f9576040517f08c379a00000000000000000000000000000000000000000000000000000000081526004016110f090612005565b60405180910390fd5b6111068484848403610eb6565b5b50505050565b600073ffffffffffffffffffffffffffffffffffffffff168373ffffffffffffffffffffffffffffffffffffffff16141561117d576040517f08c379a000000000000000000000000000000000000000000000000000000000815260040161117490612085565b60405180910390fd5b600073ffffffffffffffffffffffffffffffffffffffff168273ffffffffffffffffffffffffffffffffffffffff1614156111ed576040517f08c379a00000000000000000000000000000000000000000000000000000000081526004016111e490611f65565b60405180910390fd5b6111f88383836117b7565b6000603360008573ffffffffffffffffffffffffffffffffffffffff1673ffffffffffffffffffffffffffffffffffffffff1681526020019081526020016000205490508181101561127f576040517f08c379a000000000000000000000000000000000000000000000000000000000815260040161127690612025565b60405180910390fd5b818103603360008673ffffffffffffffffffffffffffffffffffffffff1673ffffffffffffffffffffffffffffffffffffffff1681526020019081526020016000208190555081603360008573ffffffffffffffffffffffffffffffffffffffff1673ffffffffffffffffffffffffffffffffffffffff168152602001908152602001600020600082825461131491906121ed565b925050819055508273ffffffffffffffffffffffffffffffffffffffff168473ffffffffffffffffffffffffffffffffffffffff167fddf252ad1be2c89b69c2b068fc378daa952ba7f163c4a11628f55a4df523b3ef846040516113789190612145565b60405180910390a361138b8484846117bc565b50505050565b600073ffffffffffffffffffffffffffffffffffffffff168273ffffffffffffffffffffffffffffffffffffffff161415611401576040517f08c379a00000000000000000000000000000000000000000000000000000000081526004016113f890612125565b60405180910390fd5b61140d600083836117b7565b806035600082825461141f91906121ed565b9250508190555080603360008473ffffffffffffffffffffffffffffffffffffffff1673ffffffffffffffffffffffffffffffffffffffff168152602001908152602001600020600082825461147591906121ed565b925050819055508173ffffffffffffffffffffffffffffffffffffffff16600073ffffffffffffffffffffffffffffffffffffffff167fddf252ad1be2c89b69c2b068fc378daa952ba7f163c4a11628f55a4df523b3ef836040516114da9190612145565b60405180910390a36114ee600083836117bc565b5050565b60008060019054906101000a900460ff16156115695760018260ff16148015611521575061151f306117c1565b155b611560576040517f08c379a000000000000000000000000000000000000000000000000000000000815260040161155790612045565b60405180910390fd5b600090506115dd565b8160ff1660008054906101000a900460ff1660ff16106115be576040517f08c379a00000000000000000000000000000000000000000000000000000000081526004016115b590612045565b60405180910390fd5b816000806101000a81548160ff021916908360ff160217905550600190505b919050565b600060019054906101000a900460ff16611631576040517f08c379a0000000000000000000000000000000000000000000000000000000008152600401611628906120c5565b60405180910390fd5b61163b82826117e4565b5050565b600060019054906101000a900460ff1661168e576040517f08c379a0000000000000000000000000000000000000000000000000000000008152600401611685906120c5565b60405180910390fd5b611696611865565b565b600060019054906101000a900460ff166116e7576040517f08c379a00000000000000000000000000000000000000000000000000000000081526004016116de906120c5565b60405180910390fd5b6116ef6118c6565b565b6000606560009054906101000a900473ffffffffffffffffffffffffffffffffffffffff16905081606560006101000a81548173ffffffffffffffffffffffffffffffffffffffff021916908373ffffffffffffffffffffffffffffffffffffffff1602179055508173ffffffffffffffffffffffffffffffffffffffff168173ffffffffffffffffffffffffffffffffffffffff167f8be0079c531659141344cd1fd0a4f28419497f9722a3daafe3b4186f6b6457e060405160405180910390a35050565b505050565b505050565b6000808273ffffffffffffffffffffffffffffffffffffffff163b119050919050565b600060019054906101000a900460ff16611833576040517f08c379a000000000000000000000000000000000000000000000000000000000815260040161182a906120c5565b60405180910390fd5b8160369080519060200190611849929190611932565b508060379080519060200190611860929190611932565b505050565b600060019054906101000a900460ff166118b4576040517f08c379a00000000000000000000000000000000000000000000000000000000081526004016118ab906120c5565b60405180910390fd5b6118c46118bf610eae565b6116f1565b565b600060019054906101000a900460ff16611915576040517f08c379a000000000000000000000000000000000000000000000000000000000815260040161190c906120c5565b60405180910390fd5b6000609760006101000a81548160ff021916908315150217905550565b82805461193e90612320565b90600052602060002090601f01602090048101928261196057600085556119a7565b82601f1061197957805160ff19168380011785556119a7565b828001600101855582156119a7579182015b828111156119a657825182559160200191906001019061198b565b5b5090506119b491906119b8565b5090565b5b808211156119d15760008160009055506001016119b9565b5090565b60006119e86119e3846121a0565b61217b565b905082815260208101848484011115611a0057600080fd5b611a0b8482856122de565b509392505050565b600081359050611a22816127de565b92915050565b600081519050611a37816127de565b92915050565b600082601f830112611a4e57600080fd5b8135611a5e8482602086016119d5565b91505092915050565b600081359050611a76816127f5565b92915050565b600060208284031215611a8e57600080fd5b6000611a9c84828501611a13565b91505092915050565b600060208284031215611ab757600080fd5b6000611ac584828501611a28565b91505092915050565b60008060408385031215611ae157600080fd5b6000611aef85828601611a13565b9250506020611b0085828601611a13565b9150509250929050565b600080600060608486031215611b1f57600080fd5b6000611b2d86828701611a13565b9350506020611b3e86828701611a13565b9250506040611b4f86828701611a67565b9150509250925092565b60008060408385031215611b6c57600080fd5b6000611b7a85828601611a13565b9250506020611b8b85828601611a67565b9150509250929050565b60008060408385031215611ba857600080fd5b600083013567ffffffffffffffff811115611bc257600080fd5b611bce85828601611a3d565b925050602083013567ffffffffffffffff811115611beb57600080fd5b611bf785828601611a3d565b9150509250929050565b600060208284031215611c1357600080fd5b6000611c2184828501611a67565b91505092915050565b611c3381612277565b82525050565b611c4281612289565b82525050565b611c51816122cc565b82525050565b6000611c62826121d1565b611c6c81856121dc565b9350611c7c8185602086016122ed565b611c8581612410565b840191505092915050565b6000611c9d6023836121dc565b9150611ca882612421565b604082019050919050565b6000611cc06026836121dc565b9150611ccb82612470565b604082019050919050565b6000611ce36022836121dc565b9150611cee826124bf565b604082019050919050565b6000611d06600c836121dc565b9150611d118261250e565b602082019050919050565b6000611d29600b836121dc565b9150611d3482612537565b602082019050919050565b6000611d4c601d836121dc565b9150611d5782612560565b602082019050919050565b6000611d6f6026836121dc565b9150611d7a82612589565b604082019050919050565b6000611d92602e836121dc565b9150611d9d826125d8565b604082019050919050565b6000611db56020836121dc565b9150611dc082612627565b602082019050919050565b6000611dd86025836121dc565b9150611de382612650565b604082019050919050565b6000611dfb6024836121dc565b9150611e068261269f565b604082019050919050565b6000611e1e602b836121dc565b9150611e29826126ee565b604082019050919050565b6000611e41600e836121dc565b9150611e4c8261273d565b602082019050919050565b6000611e646025836121dc565b9150611e6f82612766565b604082019050919050565b6000611e87601f836121dc565b9150611e92826127b5565b602082019050919050565b611ea6816122b5565b82525050565b611eb5816122bf565b82525050565b6000602082019050611ed06000830184611c2a565b92915050565b6000606082019050611eeb6000830186611c2a565b611ef86020830185611e9d565b611f056040830184611e9d565b949350505050565b6000602082019050611f226000830184611c39565b92915050565b6000602082019050611f3d6000830184611c48565b92915050565b60006020820190508181036000830152611f5d8184611c57565b905092915050565b60006020820190508181036000830152611f7e81611c90565b9050919050565b60006020820190508181036000830152611f9e81611cb3565b9050919050565b60006020820190508181036000830152611fbe81611cd6565b9050919050565b60006020820190508181036000830152611fde81611cf9565b9050919050565b60006020820190508181036000830152611ffe81611d1c565b9050919050565b6000602082019050818103600083015261201e81611d3f565b9050919050565b6000602082019050818103600083015261203e81611d62565b9050919050565b6000602082019050818103600083015261205e81611d85565b9050919050565b6000602082019050818103600083015261207e81611da8565b9050919050565b6000602082019050818103600083015261209e81611dcb565b9050919050565b600060208201905081810360008301526120be81611dee565b9050919050565b600060208201905081810360008301526120de81611e11565b9050919050565b600060208201905081810360008301526120fe81611e34565b9050919050565b6000602082019050818103600083015261211e81611e57565b9050919050565b6000602082019050818103600083015261213e81611e7a565b9050919050565b600060208201905061215a6000830184611e9d565b92915050565b60006020820190506121756000830184611eac565b92915050565b6000612185612196565b90506121918282612352565b919050565b6000604051905090565b600067ffffffffffffffff8211156121bb576121ba6123e1565b5b6121c482612410565b9050602081019050919050565b600081519050919050565b600082825260208201905092915050565b60006121f8826122b5565b9150612203836122b5565b9250827fffffffffffffffffffffffffffffffffffffffffffffffffffffffffffffffff0382111561223857612237612383565b5b828201905092915050565b600061224e826122b5565b9150612259836122b5565b92508282101561226c5761226b612383565b5b828203905092915050565b600061228282612295565b9050919050565b60008115159050919050565b600073ffffffffffffffffffffffffffffffffffffffff82169050919050565b6000819050919050565b600060ff82169050919050565b60006122d7826122bf565b9050919050565b82818337600083830152505050565b60005b8381101561230b5780820151818401526020810190506122f0565b8381111561231a576000848401525b50505050565b6000600282049050600182168061233857607f821691505b6020821081141561234c5761234b6123b2565b5b50919050565b61235b82612410565b810181811067ffffffffffffffff8211171561237a576123796123e1565b5b80604052505050565b7f4e487b7100000000000000000000000000000000000000000000000000000000600052601160045260246000fd5b7f4e487b7100000000000000000000000000000000000000000000000000000000600052602260045260246000fd5b7f4e487b7100000000000000000000000000000000000000000000000000000000600052604160045260246000fd5b6000601f19601f8301169050919050565b7f45524332303a207472616e7366657220746f20746865207a65726f206164647260008201527f6573730000000000000000000000000000000000000000000000000000000000602082015250565b7f4f776e61626c653a206e6577206f776e657220697320746865207a65726f206160008201527f6464726573730000000000000000000000000000000000000000000000000000602082015250565b7f45524332303a20617070726f766520746f20746865207a65726f20616464726560008201527f7373000000000000000000000000000000000000000000000000000000000000602082015250565b7f554e415554484f52495a45440000000000000000000000000000000000000000600082015250565b7f4f4e20434f4f4c444f574e000000000000000000000000000000000000000000600082015250565b7f45524332303a20696e73756666696369656e7420616c6c6f77616e6365000000600082015250565b7f45524332303a207472616e7366657220616d6f756e742065786365656473206260008201527f616c616e63650000000000000000000000000000000000000000000000000000602082015250565b7f496e697469616c697a61626c653a20636f6e747261637420697320616c72656160008201527f647920696e697469616c697a6564000000000000000000000000000000000000602082015250565b7f4f776e61626c653a2063616c6c6572206973206e6f7420746865206f776e6572600082015250565b7f45524332303a207472616e736665722066726f6d20746865207a65726f20616460008201527f6472657373000000000000000000000000000000000000000000000000000000602082015250565b7f45524332303a20617070726f76652066726f6d20746865207a65726f2061646460008201527f7265737300000000000000000000000000000000000000000000000000000000602082015250565b7f496e697469616c697a61626c653a20636f6e7472616374206973206e6f74206960008201527f6e697469616c697a696e67000000000000000000000000000000000000000000602082015250565b7f4f6e6c792077686974656c697374000000000000000000000000000000000000600082015250565b7f45524332303a2064656372656173656420616c6c6f77616e63652062656c6f7760008201527f207a65726f000000000000000000000000000000000000000000000000000000602082015250565b7f45524332303a206d696e7420746f20746865207a65726f206164647265737300600082015250565b6127e781612277565b81146127f257600080fd5b50565b6127fe816122b5565b811461280957600080fd5b5056fea2646970667358221220a715de998ac0a86409d0a619a9ba97fe8ca57abff1e54ad5d2c64ca1952c255f64736f6c63430008040033",
					"opcodes": "PUSH1 0x80 PUSH1 0x40 MSTORE CALLVALUE DUP1 ISZERO PUSH2 0x10 JUMPI PUSH1 0x0 DUP1 REVERT JUMPDEST POP PUSH2 0x2842 DUP1 PUSH2 0x20 PUSH1 0x0 CODECOPY PUSH1 0x0 RETURN INVALID PUSH1 0x80 PUSH1 0x40 MSTORE CALLVALUE DUP1 ISZERO PUSH2 0x10 JUMPI PUSH1 0x0 DUP1 REVERT JUMPDEST POP PUSH1 0x4 CALLDATASIZE LT PUSH2 0x142 JUMPI PUSH1 0x0 CALLDATALOAD PUSH1 0xE0 SHR DUP1 PUSH4 0x70A08231 GT PUSH2 0xB8 JUMPI DUP1 PUSH4 0xA457C2D7 GT PUSH2 0x7C JUMPI DUP1 PUSH4 0xA457C2D7 EQ PUSH2 0x351 JUMPI DUP1 PUSH4 0xA9059CBB EQ PUSH2 0x381 JUMPI DUP1 PUSH4 0xBE023D84 EQ PUSH2 0x3B1 JUMPI DUP1 PUSH4 0xD1A20509 EQ PUSH2 0x3CD JUMPI DUP1 PUSH4 0xDD62ED3E EQ PUSH2 0x3FD JUMPI DUP1 PUSH4 0xF2FDE38B EQ PUSH2 0x42D JUMPI PUSH2 0x142 JUMP JUMPDEST DUP1 PUSH4 0x70A08231 EQ PUSH2 0x2BF JUMPI DUP1 PUSH4 0x715018A6 EQ PUSH2 0x2EF JUMPI DUP1 PUSH4 0x854CFF2F EQ PUSH2 0x2F9 JUMPI DUP1 PUSH4 0x8DA5CB5B EQ PUSH2 0x315 JUMPI DUP1 PUSH4 0x95D89B41 EQ PUSH2 0x333 JUMPI PUSH2 0x142 JUMP JUMPDEST DUP1 PUSH4 0x39509351 GT PUSH2 0x10A JUMPI DUP1 PUSH4 0x39509351 EQ PUSH2 0x201 JUMPI DUP1 PUSH4 0x40C10F19 EQ PUSH2 0x231 JUMPI DUP1 PUSH4 0x4CD88B76 EQ PUSH2 0x24D JUMPI DUP1 PUSH4 0x4FC3F41A EQ PUSH2 0x269 JUMPI DUP1 PUSH4 0x59176C8D EQ PUSH2 0x285 JUMPI DUP1 PUSH4 0x5C975ABB EQ PUSH2 0x2A1 JUMPI PUSH2 0x142 JUMP JUMPDEST DUP1 PUSH4 0x6FDDE03 EQ PUSH2 0x147 JUMPI DUP1 PUSH4 0x95EA7B3 EQ PUSH2 0x165 JUMPI DUP1 PUSH4 0x18160DDD EQ PUSH2 0x195 JUMPI DUP1 PUSH4 0x23B872DD EQ PUSH2 0x1B3 JUMPI DUP1 PUSH4 0x313CE567 EQ PUSH2 0x1E3 JUMPI JUMPDEST PUSH1 0x0 DUP1 REVERT JUMPDEST PUSH2 0x14F PUSH2 0x449 JUMP JUMPDEST PUSH1 0x40 MLOAD PUSH2 0x15C SWAP2 SWAP1 PUSH2 0x1F43 JUMP JUMPDEST PUSH1 0x40 MLOAD DUP1 SWAP2 SUB SWAP1 RETURN JUMPDEST PUSH2 0x17F PUSH1 0x4 DUP1 CALLDATASIZE SUB DUP2 ADD SWAP1 PUSH2 0x17A SWAP2 SWAP1 PUSH2 0x1B59 JUMP JUMPDEST PUSH2 0x4DB JUMP JUMPDEST PUSH1 0x40 MLOAD PUSH2 0x18C SWAP2 SWAP1 PUSH2 0x1F0D JUMP JUMPDEST PUSH1 0x40 MLOAD DUP1 SWAP2 SUB SWAP1 RETURN JUMPDEST PUSH2 0x19D PUSH2 0x4FE JUMP JUMPDEST PUSH1 0x40 MLOAD PUSH2 0x1AA SWAP2 SWAP1 PUSH2 0x2145 JUMP JUMPDEST PUSH1 0x40 MLOAD DUP1 SWAP2 SUB SWAP1 RETURN JUMPDEST PUSH2 0x1CD PUSH1 0x4 DUP1 CALLDATASIZE SUB DUP2 ADD SWAP1 PUSH2 0x1C8 SWAP2 SWAP1 PUSH2 0x1B0A JUMP JUMPDEST PUSH2 0x508 JUMP JUMPDEST PUSH1 0x40 MLOAD PUSH2 0x1DA SWAP2 SWAP1 PUSH2 0x1F0D JUMP JUMPDEST PUSH1 0x40 MLOAD DUP1 SWAP2 SUB SWAP1 RETURN JUMPDEST PUSH2 0x1EB PUSH2 0x537 JUMP JUMPDEST PUSH1 0x40 MLOAD PUSH2 0x1F8 SWAP2 SWAP1 PUSH2 0x2160 JUMP JUMPDEST PUSH1 0x40 MLOAD DUP1 SWAP2 SUB SWAP1 RETURN JUMPDEST PUSH2 0x21B PUSH1 0x4 DUP1 CALLDATASIZE SUB DUP2 ADD SWAP1 PUSH2 0x216 SWAP2 SWAP1 PUSH2 0x1B59 JUMP JUMPDEST PUSH2 0x540 JUMP JUMPDEST PUSH1 0x40 MLOAD PUSH2 0x228 SWAP2 SWAP1 PUSH2 0x1F0D JUMP JUMPDEST PUSH1 0x40 MLOAD DUP1 SWAP2 SUB SWAP1 RETURN JUMPDEST PUSH2 0x24B PUSH1 0x4 DUP1 CALLDATASIZE SUB DUP2 ADD SWAP1 PUSH2 0x246 SWAP2 SWAP1 PUSH2 0x1B59 JUMP JUMPDEST PUSH2 0x577 JUMP JUMPDEST STOP JUMPDEST PUSH2 0x267 PUSH1 0x4 DUP1 CALLDATASIZE SUB DUP2 ADD SWAP1 PUSH2 0x262 SWAP2 SWAP1 PUSH2 0x1B95 JUMP JUMPDEST PUSH2 0x611 JUMP JUMPDEST STOP JUMPDEST PUSH2 0x283 PUSH1 0x4 DUP1 CALLDATASIZE SUB DUP2 ADD SWAP1 PUSH2 0x27E SWAP2 SWAP1 PUSH2 0x1C01 JUMP JUMPDEST PUSH2 0x6D7 JUMP JUMPDEST STOP JUMPDEST PUSH2 0x29F PUSH1 0x4 DUP1 CALLDATASIZE SUB DUP2 ADD SWAP1 PUSH2 0x29A SWAP2 SWAP1 PUSH2 0x1C01 JUMP JUMPDEST PUSH2 0x75D JUMP JUMPDEST STOP JUMPDEST PUSH2 0x2A9 PUSH2 0x93D JUMP JUMPDEST PUSH1 0x40 MLOAD PUSH2 0x2B6 SWAP2 SWAP1 PUSH2 0x1F0D JUMP JUMPDEST PUSH1 0x40 MLOAD DUP1 SWAP2 SUB SWAP1 RETURN JUMPDEST PUSH2 0x2D9 PUSH1 0x4 DUP1 CALLDATASIZE SUB DUP2 ADD SWAP1 PUSH2 0x2D4 SWAP2 SWAP1 PUSH2 0x1A7C JUMP JUMPDEST PUSH2 0x954 JUMP JUMPDEST PUSH1 0x40 MLOAD PUSH2 0x2E6 SWAP2 SWAP1 PUSH2 0x2145 JUMP JUMPDEST PUSH1 0x40 MLOAD DUP1 SWAP2 SUB SWAP1 RETURN JUMPDEST PUSH2 0x2F7 PUSH2 0x99D JUMP JUMPDEST STOP JUMPDEST PUSH2 0x313 PUSH1 0x4 DUP1 CALLDATASIZE SUB DUP2 ADD SWAP1 PUSH2 0x30E SWAP2 SWAP1 PUSH2 0x1A7C JUMP JUMPDEST PUSH2 0xA25 JUMP JUMPDEST STOP JUMPDEST PUSH2 0x31D PUSH2 0xAFC JUMP JUMPDEST PUSH1 0x40 MLOAD PUSH2 0x32A SWAP2 SWAP1 PUSH2 0x1EBB JUMP JUMPDEST PUSH1 0x40 MLOAD DUP1 SWAP2 SUB SWAP1 RETURN JUMPDEST PUSH2 0x33B PUSH2 0xB26 JUMP JUMPDEST PUSH1 0x40 MLOAD PUSH2 0x348 SWAP2 SWAP1 PUSH2 0x1F43 JUMP JUMPDEST PUSH1 0x40 MLOAD DUP1 SWAP2 SUB SWAP1 RETURN JUMPDEST PUSH2 0x36B PUSH1 0x4 DUP1 CALLDATASIZE SUB DUP2 ADD SWAP1 PUSH2 0x366 SWAP2 SWAP1 PUSH2 0x1B59 JUMP JUMPDEST PUSH2 0xBB8 JUMP JUMPDEST PUSH1 0x40 MLOAD PUSH2 0x378 SWAP2 SWAP1 PUSH2 0x1F0D JUMP JUMPDEST PUSH1 0x40 MLOAD DUP1 SWAP2 SUB SWAP1 RETURN JUMPDEST PUSH2 0x39B PUSH1 0x4 DUP1 CALLDATASIZE SUB DUP2 ADD SWAP1 PUSH2 0x396 SWAP2 SWAP1 PUSH2 0x1B59 JUMP JUMPDEST PUSH2 0xC2F JUMP JUMPDEST PUSH1 0x40 MLOAD PUSH2 0x3A8 SWAP2 SWAP1 PUSH2 0x1F0D JUMP JUMPDEST PUSH1 0x40 MLOAD DUP1 SWAP2 SUB SWAP1 RETURN JUMPDEST PUSH2 0x3CB PUSH1 0x4 DUP1 CALLDATASIZE SUB DUP2 ADD SWAP1 PUSH2 0x3C6 SWAP2 SWAP1 PUSH2 0x1A7C JUMP JUMPDEST PUSH2 0xC52 JUMP JUMPDEST STOP JUMPDEST PUSH2 0x3E7 PUSH1 0x4 DUP1 CALLDATASIZE SUB DUP2 ADD SWAP1 PUSH2 0x3E2 SWAP2 SWAP1 PUSH2 0x1C01 JUMP JUMPDEST PUSH2 0xD12 JUMP JUMPDEST PUSH1 0x40 MLOAD PUSH2 0x3F4 SWAP2 SWAP1 PUSH2 0x2145 JUMP JUMPDEST PUSH1 0x40 MLOAD DUP1 SWAP2 SUB SWAP1 RETURN JUMPDEST PUSH2 0x417 PUSH1 0x4 DUP1 CALLDATASIZE SUB DUP2 ADD SWAP1 PUSH2 0x412 SWAP2 SWAP1 PUSH2 0x1ACE JUMP JUMPDEST PUSH2 0xD2F JUMP JUMPDEST PUSH1 0x40 MLOAD PUSH2 0x424 SWAP2 SWAP1 PUSH2 0x2145 JUMP JUMPDEST PUSH1 0x40 MLOAD DUP1 SWAP2 SUB SWAP1 RETURN JUMPDEST PUSH2 0x447 PUSH1 0x4 DUP1 CALLDATASIZE SUB DUP2 ADD SWAP1 PUSH2 0x442 SWAP2 SWAP1 PUSH2 0x1A7C JUMP JUMPDEST PUSH2 0xDB6 JUMP JUMPDEST STOP JUMPDEST PUSH1 0x60 PUSH1 0x36 DUP1 SLOAD PUSH2 0x458 SWAP1 PUSH2 0x2320 JUMP JUMPDEST DUP1 PUSH1 0x1F ADD PUSH1 0x20 DUP1 SWAP2 DIV MUL PUSH1 0x20 ADD PUSH1 0x40 MLOAD SWAP1 DUP2 ADD PUSH1 0x40 MSTORE DUP1 SWAP3 SWAP2 SWAP1 DUP2 DUP2 MSTORE PUSH1 0x20 ADD DUP3 DUP1 SLOAD PUSH2 0x484 SWAP1 PUSH2 0x2320 JUMP JUMPDEST DUP1 ISZERO PUSH2 0x4D1 JUMPI DUP1 PUSH1 0x1F LT PUSH2 0x4A6 JUMPI PUSH2 0x100 DUP1 DUP4 SLOAD DIV MUL DUP4 MSTORE SWAP2 PUSH1 0x20 ADD SWAP2 PUSH2 0x4D1 JUMP JUMPDEST DUP3 ADD SWAP2 SWAP1 PUSH1 0x0 MSTORE PUSH1 0x20 PUSH1 0x0 KECCAK256 SWAP1 JUMPDEST DUP2 SLOAD DUP2 MSTORE SWAP1 PUSH1 0x1 ADD SWAP1 PUSH1 0x20 ADD DUP1 DUP4 GT PUSH2 0x4B4 JUMPI DUP3 SWAP1 SUB PUSH1 0x1F AND DUP3 ADD SWAP2 JUMPDEST POP POP POP POP POP SWAP1 POP SWAP1 JUMP JUMPDEST PUSH1 0x0 DUP1 PUSH2 0x4E6 PUSH2 0xEAE JUMP JUMPDEST SWAP1 POP PUSH2 0x4F3 DUP2 DUP6 DUP6 PUSH2 0xEB6 JUMP JUMPDEST PUSH1 0x1 SWAP2 POP POP SWAP3 SWAP2 POP POP JUMP JUMPDEST PUSH1 0x0 PUSH1 0x35 SLOAD SWAP1 POP SWAP1 JUMP JUMPDEST PUSH1 0x0 DUP1 PUSH2 0x513 PUSH2 0xEAE JUMP JUMPDEST SWAP1 POP PUSH2 0x520 DUP6 DUP3 DUP6 PUSH2 0x1081 JUMP JUMPDEST PUSH2 0x52B DUP6 DUP6 DUP6 PUSH2 0x110D JUMP JUMPDEST PUSH1 0x1 SWAP2 POP POP SWAP4 SWAP3 POP POP POP JUMP JUMPDEST PUSH1 0x0 PUSH1 0x12 SWAP1 POP SWAP1 JUMP JUMPDEST PUSH1 0x0 DUP1 PUSH2 0x54B PUSH2 0xEAE JUMP JUMPDEST SWAP1 POP PUSH2 0x56C DUP2 DUP6 DUP6 PUSH2 0x55D DUP6 DUP10 PUSH2 0xD2F JUMP JUMPDEST PUSH2 0x567 SWAP2 SWAP1 PUSH2 0x21ED JUMP JUMPDEST PUSH2 0xEB6 JUMP JUMPDEST PUSH1 0x1 SWAP2 POP POP SWAP3 SWAP2 POP POP JUMP JUMPDEST PUSH1 0xCC PUSH1 0x0 CALLER PUSH20 0xFFFFFFFFFFFFFFFFFFFFFFFFFFFFFFFFFFFFFFFF AND PUSH20 0xFFFFFFFFFFFFFFFFFFFFFFFFFFFFFFFFFFFFFFFF AND DUP2 MSTORE PUSH1 0x20 ADD SWAP1 DUP2 MSTORE PUSH1 0x20 ADD PUSH1 0x0 KECCAK256 PUSH1 0x0 SWAP1 SLOAD SWAP1 PUSH2 0x100 EXP SWAP1 DIV PUSH1 0xFF AND PUSH2 0x603 JUMPI PUSH1 0x40 MLOAD PUSH32 0x8C379A000000000000000000000000000000000000000000000000000000000 DUP2 MSTORE PUSH1 0x4 ADD PUSH2 0x5FA SWAP1 PUSH2 0x20E5 JUMP JUMPDEST PUSH1 0x40 MLOAD DUP1 SWAP2 SUB SWAP1 REVERT JUMPDEST PUSH2 0x60D DUP3 DUP3 PUSH2 0x1391 JUMP JUMPDEST POP POP JUMP JUMPDEST PUSH1 0x0 PUSH2 0x61D PUSH1 0x1 PUSH2 0x14F2 JUMP JUMPDEST SWAP1 POP DUP1 ISZERO PUSH2 0x641 JUMPI PUSH1 0x1 PUSH1 0x0 PUSH1 0x1 PUSH2 0x100 EXP DUP2 SLOAD DUP2 PUSH1 0xFF MUL NOT AND SWAP1 DUP4 ISZERO ISZERO MUL OR SWAP1 SSTORE POP JUMPDEST PUSH2 0x64B DUP4 DUP4 PUSH2 0x15E2 JUMP JUMPDEST PUSH2 0x653 PUSH2 0x163F JUMP JUMPDEST PUSH2 0x65B PUSH2 0x1698 JUMP JUMPDEST PUSH2 0x671 CALLER PUSH12 0x204FCE5E3E25026110000000 PUSH2 0x1391 JUMP JUMPDEST PUSH1 0x3C PUSH1 0xCA DUP2 SWAP1 SSTORE POP DUP1 ISZERO PUSH2 0x6D2 JUMPI PUSH1 0x0 DUP1 PUSH1 0x1 PUSH2 0x100 EXP DUP2 SLOAD DUP2 PUSH1 0xFF MUL NOT AND SWAP1 DUP4 ISZERO ISZERO MUL OR SWAP1 SSTORE POP PUSH32 0x7F26B83FF96E1F2B6A682F133852F6798A09C465DA95921460CEFB3847402498 PUSH1 0x1 PUSH1 0x40 MLOAD PUSH2 0x6C9 SWAP2 SWAP1 PUSH2 0x1F28 JUMP JUMPDEST PUSH1 0x40 MLOAD DUP1 SWAP2 SUB SWAP1 LOG1 JUMPDEST POP POP POP JUMP JUMPDEST PUSH2 0x6DF PUSH2 0xEAE JUMP JUMPDEST PUSH20 0xFFFFFFFFFFFFFFFFFFFFFFFFFFFFFFFFFFFFFFFF AND PUSH2 0x6FD PUSH2 0xAFC JUMP JUMPDEST PUSH20 0xFFFFFFFFFFFFFFFFFFFFFFFFFFFFFFFFFFFFFFFF AND EQ PUSH2 0x753 JUMPI PUSH1 0x40 MLOAD PUSH32 0x8C379A000000000000000000000000000000000000000000000000000000000 DUP2 MSTORE PUSH1 0x4 ADD PUSH2 0x74A SWAP1 PUSH2 0x2065 JUMP JUMPDEST PUSH1 0x40 MLOAD DUP1 SWAP2 SUB SWAP1 REVERT JUMPDEST DUP1 PUSH1 0xCA DUP2 SWAP1 SSTORE POP POP JUMP JUMPDEST CALLER PUSH20 0xFFFFFFFFFFFFFFFFFFFFFFFFFFFFFFFFFFFFFFFF AND PUSH1 0xCB PUSH1 0x0 SWAP1 SLOAD SWAP1 PUSH2 0x100 EXP SWAP1 DIV PUSH20 0xFFFFFFFFFFFFFFFFFFFFFFFFFFFFFFFFFFFFFFFF AND PUSH20 0xFFFFFFFFFFFFFFFFFFFFFFFFFFFFFFFFFFFFFFFF AND PUSH4 0x6352211E DUP4 PUSH1 0x40 MLOAD DUP3 PUSH4 0xFFFFFFFF AND PUSH1 0xE0 SHL DUP2 MSTORE PUSH1 0x4 ADD PUSH2 0x7CF SWAP2 SWAP1 PUSH2 0x2145 JUMP JUMPDEST PUSH1 0x20 PUSH1 0x40 MLOAD DUP1 DUP4 SUB DUP2 DUP7 DUP1 EXTCODESIZE ISZERO DUP1 ISZERO PUSH2 0x7E7 JUMPI PUSH1 0x0 DUP1 REVERT JUMPDEST POP GAS STATICCALL ISZERO DUP1 ISZERO PUSH2 0x7FB JUMPI RETURNDATASIZE PUSH1 0x0 DUP1 RETURNDATACOPY RETURNDATASIZE PUSH1 0x0 REVERT JUMPDEST POP POP POP POP PUSH1 0x40 MLOAD RETURNDATASIZE PUSH1 0x1F NOT PUSH1 0x1F DUP3 ADD AND DUP3 ADD DUP1 PUSH1 0x40 MSTORE POP DUP2 ADD SWAP1 PUSH2 0x81F SWAP2 SWAP1 PUSH2 0x1AA5 JUMP JUMPDEST PUSH20 0xFFFFFFFFFFFFFFFFFFFFFFFFFFFFFFFFFFFFFFFF AND EQ PUSH2 0x875 JUMPI PUSH1 0x40 MLOAD PUSH32 0x8C379A000000000000000000000000000000000000000000000000000000000 DUP2 MSTORE PUSH1 0x4 ADD PUSH2 0x86C SWAP1 PUSH2 0x1FC5 JUMP JUMPDEST PUSH1 0x40 MLOAD DUP1 SWAP2 SUB SWAP1 REVERT JUMPDEST PUSH3 0x15180 PUSH1 0xCD PUSH1 0x0 DUP4 DUP2 MSTORE PUSH1 0x20 ADD SWAP1 DUP2 MSTORE PUSH1 0x20 ADD PUSH1 0x0 KECCAK256 SLOAD TIMESTAMP PUSH2 0x898 SWAP2 SWAP1 PUSH2 0x2243 JUMP JUMPDEST LT ISZERO PUSH2 0x8D9 JUMPI PUSH1 0x40 MLOAD PUSH32 0x8C379A000000000000000000000000000000000000000000000000000000000 DUP2 MSTORE PUSH1 0x4 ADD PUSH2 0x8D0 SWAP1 PUSH2 0x1FE5 JUMP JUMPDEST PUSH1 0x40 MLOAD DUP1 SWAP2 SUB SWAP1 REVERT JUMPDEST PUSH2 0x8E5 CALLER PUSH1 0xC9 SLOAD PUSH2 0x1391 JUMP JUMPDEST TIMESTAMP PUSH1 0xCD PUSH1 0x0 DUP4 DUP2 MSTORE PUSH1 0x20 ADD SWAP1 DUP2 MSTORE PUSH1 0x20 ADD PUSH1 0x0 KECCAK256 DUP2 SWAP1 SSTORE POP PUSH32 0x8DCE8756778B482EF8CFEF8C65FAADC506CE94E081BB6CC3A2D3448D99DE9A50 CALLER PUSH1 0xC9 SLOAD TIMESTAMP PUSH1 0x40 MLOAD PUSH2 0x932 SWAP4 SWAP3 SWAP2 SWAP1 PUSH2 0x1ED6 JUMP JUMPDEST PUSH1 0x40 MLOAD DUP1 SWAP2 SUB SWAP1 LOG1 POP JUMP JUMPDEST PUSH1 0x0 PUSH1 0x97 PUSH1 0x0 SWAP1 SLOAD SWAP1 PUSH2 0x100 EXP SWAP1 DIV PUSH1 0xFF AND SWAP1 POP SWAP1 JUMP JUMPDEST PUSH1 0x0 PUSH1 0x33 PUSH1 0x0 DUP4 PUSH20 0xFFFFFFFFFFFFFFFFFFFFFFFFFFFFFFFFFFFFFFFF AND PUSH20 0xFFFFFFFFFFFFFFFFFFFFFFFFFFFFFFFFFFFFFFFF AND DUP2 MSTORE PUSH1 0x20 ADD SWAP1 DUP2 MSTORE PUSH1 0x20 ADD PUSH1 0x0 KECCAK256 SLOAD SWAP1 POP SWAP2 SWAP1 POP JUMP JUMPDEST PUSH2 0x9A5 PUSH2 0xEAE JUMP JUMPDEST PUSH20 0xFFFFFFFFFFFFFFFFFFFFFFFFFFFFFFFFFFFFFFFF AND PUSH2 0x9C3 PUSH2 0xAFC JUMP JUMPDEST PUSH20 0xFFFFFFFFFFFFFFFFFFFFFFFFFFFFFFFFFFFFFFFF AND EQ PUSH2 0xA19 JUMPI PUSH1 0x40 MLOAD PUSH32 0x8C379A000000000000000000000000000000000000000000000000000000000 DUP2 MSTORE PUSH1 0x4 ADD PUSH2 0xA10 SWAP1 PUSH2 0x2065 JUMP JUMPDEST PUSH1 0x40 MLOAD DUP1 SWAP2 SUB SWAP1 REVERT JUMPDEST PUSH2 0xA23 PUSH1 0x0 PUSH2 0x16F1 JUMP JUMPDEST JUMP JUMPDEST PUSH2 0xA2D PUSH2 0xEAE JUMP JUMPDEST PUSH20 0xFFFFFFFFFFFFFFFFFFFFFFFFFFFFFFFFFFFFFFFF AND PUSH2 0xA4B PUSH2 0xAFC JUMP JUMPDEST PUSH20 0xFFFFFFFFFFFFFFFFFFFFFFFFFFFFFFFFFFFFFFFF AND EQ PUSH2 0xAA1 JUMPI PUSH1 0x40 MLOAD PUSH32 0x8C379A000000000000000000000000000000000000000000000000000000000 DUP2 MSTORE PUSH1 0x4 ADD PUSH2 0xA98 SWAP1 PUSH2 0x2065 JUMP JUMPDEST PUSH1 0x40 MLOAD DUP1 SWAP2 SUB SWAP1 REVERT JUMPDEST PUSH1 0x1 PUSH1 0xCC PUSH1 0x0 DUP4 PUSH20 0xFFFFFFFFFFFFFFFFFFFFFFFFFFFFFFFFFFFFFFFF AND PUSH20 0xFFFFFFFFFFFFFFFFFFFFFFFFFFFFFFFFFFFFFFFF AND DUP2 MSTORE PUSH1 0x20 ADD SWAP1 DUP2 MSTORE PUSH1 0x20 ADD PUSH1 0x0 KECCAK256 PUSH1 0x0 PUSH2 0x100 EXP DUP2 SLOAD DUP2 PUSH1 0xFF MUL NOT AND SWAP1 DUP4 ISZERO ISZERO MUL OR SWAP1 SSTORE POP POP JUMP JUMPDEST PUSH1 0x0 PUSH1 0x65 PUSH1 0x0 SWAP1 SLOAD SWAP1 PUSH2 0x100 EXP SWAP1 DIV PUSH20 0xFFFFFFFFFFFFFFFFFFFFFFFFFFFFFFFFFFFFFFFF AND SWAP1 POP SWAP1 JUMP JUMPDEST PUSH1 0x60 PUSH1 0x37 DUP1 SLOAD PUSH2 0xB35 SWAP1 PUSH2 0x2320 JUMP JUMPDEST DUP1 PUSH1 0x1F ADD PUSH1 0x20 DUP1 SWAP2 DIV MUL PUSH1 0x20 ADD PUSH1 0x40 MLOAD SWAP1 DUP2 ADD PUSH1 0x40 MSTORE DUP1 SWAP3 SWAP2 SWAP1 DUP2 DUP2 MSTORE PUSH1 0x20 ADD DUP3 DUP1 SLOAD PUSH2 0xB61 SWAP1 PUSH2 0x2320 JUMP JUMPDEST DUP1 ISZERO PUSH2 0xBAE JUMPI DUP1 PUSH1 0x1F LT PUSH2 0xB83 JUMPI PUSH2 0x100 DUP1 DUP4 SLOAD DIV MUL DUP4 MSTORE SWAP2 PUSH1 0x20 ADD SWAP2 PUSH2 0xBAE JUMP JUMPDEST DUP3 ADD SWAP2 SWAP1 PUSH1 0x0 MSTORE PUSH1 0x20 PUSH1 0x0 KECCAK256 SWAP1 JUMPDEST DUP2 SLOAD DUP2 MSTORE SWAP1 PUSH1 0x1 ADD SWAP1 PUSH1 0x20 ADD DUP1 DUP4 GT PUSH2 0xB91 JUMPI DUP3 SWAP1 SUB PUSH1 0x1F AND DUP3 ADD SWAP2 JUMPDEST POP POP POP POP POP SWAP1 POP SWAP1 JUMP JUMPDEST PUSH1 0x0 DUP1 PUSH2 0xBC3 PUSH2 0xEAE JUMP JUMPDEST SWAP1 POP PUSH1 0x0 PUSH2 0xBD1 DUP3 DUP7 PUSH2 0xD2F JUMP JUMPDEST SWAP1 POP DUP4 DUP2 LT ISZERO PUSH2 0xC16 JUMPI PUSH1 0x40 MLOAD PUSH32 0x8C379A000000000000000000000000000000000000000000000000000000000 DUP2 MSTORE PUSH1 0x4 ADD PUSH2 0xC0D SWAP1 PUSH2 0x2105 JUMP JUMPDEST PUSH1 0x40 MLOAD DUP1 SWAP2 SUB SWAP1 REVERT JUMPDEST PUSH2 0xC23 DUP3 DUP7 DUP7 DUP5 SUB PUSH2 0xEB6 JUMP JUMPDEST PUSH1 0x1 SWAP3 POP POP POP SWAP3 SWAP2 POP POP JUMP JUMPDEST PUSH1 0x0 DUP1 PUSH2 0xC3A PUSH2 0xEAE JUMP JUMPDEST SWAP1 POP PUSH2 0xC47 DUP2 DUP6 DUP6 PUSH2 0x110D JUMP JUMPDEST PUSH1 0x1 SWAP2 POP POP SWAP3 SWAP2 POP POP JUMP JUMPDEST PUSH2 0xC5A PUSH2 0xEAE JUMP JUMPDEST PUSH20 0xFFFFFFFFFFFFFFFFFFFFFFFFFFFFFFFFFFFFFFFF AND PUSH2 0xC78 PUSH2 0xAFC JUMP JUMPDEST PUSH20 0xFFFFFFFFFFFFFFFFFFFFFFFFFFFFFFFFFFFFFFFF AND EQ PUSH2 0xCCE JUMPI PUSH1 0x40 MLOAD PUSH32 0x8C379A000000000000000000000000000000000000000000000000000000000 DUP2 MSTORE PUSH1 0x4 ADD PUSH2 0xCC5 SWAP1 PUSH2 0x2065 JUMP JUMPDEST PUSH1 0x40 MLOAD DUP1 SWAP2 SUB SWAP1 REVERT JUMPDEST DUP1 PUSH1 0xCB PUSH1 0x0 PUSH2 0x100 EXP DUP2 SLOAD DUP2 PUSH20 0xFFFFFFFFFFFFFFFFFFFFFFFFFFFFFFFFFFFFFFFF MUL NOT AND SWAP1 DUP4 PUSH20 0xFFFFFFFFFFFFFFFFFFFFFFFFFFFFFFFFFFFFFFFF AND MUL OR SWAP1 SSTORE POP POP JUMP JUMPDEST PUSH1 0x0 PUSH1 0xCD PUSH1 0x0 DUP4 DUP2 MSTORE PUSH1 0x20 ADD SWAP1 DUP2 MSTORE PUSH1 0x20 ADD PUSH1 0x0 KECCAK256 SLOAD SWAP1 POP SWAP2 SWAP1 POP JUMP JUMPDEST PUSH1 0x0 PUSH1 0x34 PUSH1 0x0 DUP5 PUSH20 0xFFFFFFFFFFFFFFFFFFFFFFFFFFFFFFFFFFFFFFFF AND PUSH20 0xFFFFFFFFFFFFFFFFFFFFFFFFFFFFFFFFFFFFFFFF AND DUP2 MSTORE PUSH1 0x20 ADD SWAP1 DUP2 MSTORE PUSH1 0x20 ADD PUSH1 0x0 KECCAK256 PUSH1 0x0 DUP4 PUSH20 0xFFFFFFFFFFFFFFFFFFFFFFFFFFFFFFFFFFFFFFFF AND PUSH20 0xFFFFFFFFFFFFFFFFFFFFFFFFFFFFFFFFFFFFFFFF AND DUP2 MSTORE PUSH1 0x20 ADD SWAP1 DUP2 MSTORE PUSH1 0x20 ADD PUSH1 0x0 KECCAK256 SLOAD SWAP1 POP SWAP3 SWAP2 POP POP JUMP JUMPDEST PUSH2 0xDBE PUSH2 0xEAE JUMP JUMPDEST PUSH20 0xFFFFFFFFFFFFFFFFFFFFFFFFFFFFFFFFFFFFFFFF AND PUSH2 0xDDC PUSH2 0xAFC JUMP JUMPDEST PUSH20 0xFFFFFFFFFFFFFFFFFFFFFFFFFFFFFFFFFFFFFFFF AND EQ PUSH2 0xE32 JUMPI PUSH1 0x40 MLOAD PUSH32 0x8C379A000000000000000000000000000000000000000000000000000000000 DUP2 MSTORE PUSH1 0x4 ADD PUSH2 0xE29 SWAP1 PUSH2 0x2065 JUMP JUMPDEST PUSH1 0x40 MLOAD DUP1 SWAP2 SUB SWAP1 REVERT JUMPDEST PUSH1 0x0 PUSH20 0xFFFFFFFFFFFFFFFFFFFFFFFFFFFFFFFFFFFFFFFF AND DUP2 PUSH20 0xFFFFFFFFFFFFFFFFFFFFFFFFFFFFFFFFFFFFFFFF AND EQ ISZERO PUSH2 0xEA2 JUMPI PUSH1 0x40 MLOAD PUSH32 0x8C379A000000000000000000000000000000000000000000000000000000000 DUP2 MSTORE PUSH1 0x4 ADD PUSH2 0xE99 SWAP1 PUSH2 0x1F85 JUMP JUMPDEST PUSH1 0x40 MLOAD DUP1 SWAP2 SUB SWAP1 REVERT JUMPDEST PUSH2 0xEAB DUP2 PUSH2 0x16F1 JUMP JUMPDEST POP JUMP JUMPDEST PUSH1 0x0 CALLER SWAP1 POP SWAP1 JUMP JUMPDEST PUSH1 0x0 PUSH20 0xFFFFFFFFFFFFFFFFFFFFFFFFFFFFFFFFFFFFFFFF AND DUP4 PUSH20 0xFFFFFFFFFFFFFFFFFFFFFFFFFFFFFFFFFFFFFFFF AND EQ ISZERO PUSH2 0xF26 JUMPI PUSH1 0x40 MLOAD PUSH32 0x8C379A000000000000000000000000000000000000000000000000000000000 DUP2 MSTORE PUSH1 0x4 ADD PUSH2 0xF1D SWAP1 PUSH2 0x20A5 JUMP JUMPDEST PUSH1 0x40 MLOAD DUP1 SWAP2 SUB SWAP1 REVERT JUMPDEST PUSH1 0x0 PUSH20 0xFFFFFFFFFFFFFFFFFFFFFFFFFFFFFFFFFFFFFFFF AND DUP3 PUSH20 0xFFFFFFFFFFFFFFFFFFFFFFFFFFFFFFFFFFFFFFFF AND EQ ISZERO PUSH2 0xF96 JUMPI PUSH1 0x40 MLOAD PUSH32 0x8C379A000000000000000000000000000000000000000000000000000000000 DUP2 MSTORE PUSH1 0x4 ADD PUSH2 0xF8D SWAP1 PUSH2 0x1FA5 JUMP JUMPDEST PUSH1 0x40 MLOAD DUP1 SWAP2 SUB SWAP1 REVERT JUMPDEST DUP1 PUSH1 0x34 PUSH1 0x0 DUP6 PUSH20 0xFFFFFFFFFFFFFFFFFFFFFFFFFFFFFFFFFFFFFFFF AND PUSH20 0xFFFFFFFFFFFFFFFFFFFFFFFFFFFFFFFFFFFFFFFF AND DUP2 MSTORE PUSH1 0x20 ADD SWAP1 DUP2 MSTORE PUSH1 0x20 ADD PUSH1 0x0 KECCAK256 PUSH1 0x0 DUP5 PUSH20 0xFFFFFFFFFFFFFFFFFFFFFFFFFFFFFFFFFFFFFFFF AND PUSH20 0xFFFFFFFFFFFFFFFFFFFFFFFFFFFFFFFFFFFFFFFF AND DUP2 MSTORE PUSH1 0x20 ADD SWAP1 DUP2 MSTORE PUSH1 0x20 ADD PUSH1 0x0 KECCAK256 DUP2 SWAP1 SSTORE POP DUP2 PUSH20 0xFFFFFFFFFFFFFFFFFFFFFFFFFFFFFFFFFFFFFFFF AND DUP4 PUSH20 0xFFFFFFFFFFFFFFFFFFFFFFFFFFFFFFFFFFFFFFFF AND PUSH32 0x8C5BE1E5EBEC7D5BD14F71427D1E84F3DD0314C0F7B2291E5B200AC8C7C3B925 DUP4 PUSH1 0x40 MLOAD PUSH2 0x1074 SWAP2 SWAP1 PUSH2 0x2145 JUMP JUMPDEST PUSH1 0x40 MLOAD DUP1 SWAP2 SUB SWAP1 LOG3 POP POP POP JUMP JUMPDEST PUSH1 0x0 PUSH2 0x108D DUP5 DUP5 PUSH2 0xD2F JUMP JUMPDEST SWAP1 POP PUSH32 0xFFFFFFFFFFFFFFFFFFFFFFFFFFFFFFFFFFFFFFFFFFFFFFFFFFFFFFFFFFFFFFFF DUP2 EQ PUSH2 0x1107 JUMPI DUP2 DUP2 LT ISZERO PUSH2 0x10F9 JUMPI PUSH1 0x40 MLOAD PUSH32 0x8C379A000000000000000000000000000000000000000000000000000000000 DUP2 MSTORE PUSH1 0x4 ADD PUSH2 0x10F0 SWAP1 PUSH2 0x2005 JUMP JUMPDEST PUSH1 0x40 MLOAD DUP1 SWAP2 SUB SWAP1 REVERT JUMPDEST PUSH2 0x1106 DUP5 DUP5 DUP5 DUP5 SUB PUSH2 0xEB6 JUMP JUMPDEST JUMPDEST POP POP POP POP JUMP JUMPDEST PUSH1 0x0 PUSH20 0xFFFFFFFFFFFFFFFFFFFFFFFFFFFFFFFFFFFFFFFF AND DUP4 PUSH20 0xFFFFFFFFFFFFFFFFFFFFFFFFFFFFFFFFFFFFFFFF AND EQ ISZERO PUSH2 0x117D JUMPI PUSH1 0x40 MLOAD PUSH32 0x8C379A000000000000000000000000000000000000000000000000000000000 DUP2 MSTORE PUSH1 0x4 ADD PUSH2 0x1174 SWAP1 PUSH2 0x2085 JUMP JUMPDEST PUSH1 0x40 MLOAD DUP1 SWAP2 SUB SWAP1 REVERT JUMPDEST PUSH1 0x0 PUSH20 0xFFFFFFFFFFFFFFFFFFFFFFFFFFFFFFFFFFFFFFFF AND DUP3 PUSH20 0xFFFFFFFFFFFFFFFFFFFFFFFFFFFFFFFFFFFFFFFF AND EQ ISZERO PUSH2 0x11ED JUMPI PUSH1 0x40 MLOAD PUSH32 0x8C379A000000000000000000000000000000000000000000000000000000000 DUP2 MSTORE PUSH1 0x4 ADD PUSH2 0x11E4 SWAP1 PUSH2 0x1F65 JUMP JUMPDEST PUSH1 0x40 MLOAD DUP1 SWAP2 SUB SWAP1 REVERT JUMPDEST PUSH2 0x11F8 DUP4 DUP4 DUP4 PUSH2 0x17B7 JUMP JUMPDEST PUSH1 0x0 PUSH1 0x33 PUSH1 0x0 DUP6 PUSH20 0xFFFFFFFFFFFFFFFFFFFFFFFFFFFFFFFFFFFFFFFF AND PUSH20 0xFFFFFFFFFFFFFFFFFFFFFFFFFFFFFFFFFFFFFFFF AND DUP2 MSTORE PUSH1 0x20 ADD SWAP1 DUP2 MSTORE PUSH1 0x20 ADD PUSH1 0x0 KECCAK256 SLOAD SWAP1 POP DUP2 DUP2 LT ISZERO PUSH2 0x127F JUMPI PUSH1 0x40 MLOAD PUSH32 0x8C379A000000000000000000000000000000000000000000000000000000000 DUP2 MSTORE PUSH1 0x4 ADD PUSH2 0x1276 SWAP1 PUSH2 0x2025 JUMP JUMPDEST PUSH1 0x40 MLOAD DUP1 SWAP2 SUB SWAP1 REVERT JUMPDEST DUP2 DUP2 SUB PUSH1 0x33 PUSH1 0x0 DUP7 PUSH20 0xFFFFFFFFFFFFFFFFFFFFFFFFFFFFFFFFFFFFFFFF AND PUSH20 0xFFFFFFFFFFFFFFFFFFFFFFFFFFFFFFFFFFFFFFFF AND DUP2 MSTORE PUSH1 0x20 ADD SWAP1 DUP2 MSTORE PUSH1 0x20 ADD PUSH1 0x0 KECCAK256 DUP2 SWAP1 SSTORE POP DUP2 PUSH1 0x33 PUSH1 0x0 DUP6 PUSH20 0xFFFFFFFFFFFFFFFFFFFFFFFFFFFFFFFFFFFFFFFF AND PUSH20 0xFFFFFFFFFFFFFFFFFFFFFFFFFFFFFFFFFFFFFFFF AND DUP2 MSTORE PUSH1 0x20 ADD SWAP1 DUP2 MSTORE PUSH1 0x20 ADD PUSH1 0x0 KECCAK256 PUSH1 0x0 DUP3 DUP3 SLOAD PUSH2 0x1314 SWAP2 SWAP1 PUSH2 0x21ED JUMP JUMPDEST SWAP3 POP POP DUP2 SWAP1 SSTORE POP DUP3 PUSH20 0xFFFFFFFFFFFFFFFFFFFFFFFFFFFFFFFFFFFFFFFF AND DUP5 PUSH20 0xFFFFFFFFFFFFFFFFFFFFFFFFFFFFFFFFFFFFFFFF AND PUSH32 0xDDF252AD1BE2C89B69C2B068FC378DAA952BA7F163C4A11628F55A4DF523B3EF DUP5 PUSH1 0x40 MLOAD PUSH2 0x1378 SWAP2 SWAP1 PUSH2 0x2145 JUMP JUMPDEST PUSH1 0x40 MLOAD DUP1 SWAP2 SUB SWAP1 LOG3 PUSH2 0x138B DUP5 DUP5 DUP5 PUSH2 0x17BC JUMP JUMPDEST POP POP POP POP JUMP JUMPDEST PUSH1 0x0 PUSH20 0xFFFFFFFFFFFFFFFFFFFFFFFFFFFFFFFFFFFFFFFF AND DUP3 PUSH20 0xFFFFFFFFFFFFFFFFFFFFFFFFFFFFFFFFFFFFFFFF AND EQ ISZERO PUSH2 0x1401 JUMPI PUSH1 0x40 MLOAD PUSH32 0x8C379A000000000000000000000000000000000000000000000000000000000 DUP2 MSTORE PUSH1 0x4 ADD PUSH2 0x13F8 SWAP1 PUSH2 0x2125 JUMP JUMPDEST PUSH1 0x40 MLOAD DUP1 SWAP2 SUB SWAP1 REVERT JUMPDEST PUSH2 0x140D PUSH1 0x0 DUP4 DUP4 PUSH2 0x17B7 JUMP JUMPDEST DUP1 PUSH1 0x35 PUSH1 0x0 DUP3 DUP3 SLOAD PUSH2 0x141F SWAP2 SWAP1 PUSH2 0x21ED JUMP JUMPDEST SWAP3 POP POP DUP2 SWAP1 SSTORE POP DUP1 PUSH1 0x33 PUSH1 0x0 DUP5 PUSH20 0xFFFFFFFFFFFFFFFFFFFFFFFFFFFFFFFFFFFFFFFF AND PUSH20 0xFFFFFFFFFFFFFFFFFFFFFFFFFFFFFFFFFFFFFFFF AND DUP2 MSTORE PUSH1 0x20 ADD SWAP1 DUP2 MSTORE PUSH1 0x20 ADD PUSH1 0x0 KECCAK256 PUSH1 0x0 DUP3 DUP3 SLOAD PUSH2 0x1475 SWAP2 SWAP1 PUSH2 0x21ED JUMP JUMPDEST SWAP3 POP POP DUP2 SWAP1 SSTORE POP DUP2 PUSH20 0xFFFFFFFFFFFFFFFFFFFFFFFFFFFFFFFFFFFFFFFF AND PUSH1 0x0 PUSH20 0xFFFFFFFFFFFFFFFFFFFFFFFFFFFFFFFFFFFFFFFF AND PUSH32 0xDDF252AD1BE2C89B69C2B068FC378DAA952BA7F163C4A11628F55A4DF523B3EF DUP4 PUSH1 0x40 MLOAD PUSH2 0x14DA SWAP2 SWAP1 PUSH2 0x2145 JUMP JUMPDEST PUSH1 0x40 MLOAD DUP1 SWAP2 SUB SWAP1 LOG3 PUSH2 0x14EE PUSH1 0x0 DUP4 DUP4 PUSH2 0x17BC JUMP JUMPDEST POP POP JUMP JUMPDEST PUSH1 0x0 DUP1 PUSH1 0x1 SWAP1 SLOAD SWAP1 PUSH2 0x100 EXP SWAP1 DIV PUSH1 0xFF AND ISZERO PUSH2 0x1569 JUMPI PUSH1 0x1 DUP3 PUSH1 0xFF AND EQ DUP1 ISZERO PUSH2 0x1521 JUMPI POP PUSH2 0x151F ADDRESS PUSH2 0x17C1 JUMP JUMPDEST ISZERO JUMPDEST PUSH2 0x1560 JUMPI PUSH1 0x40 MLOAD PUSH32 0x8C379A000000000000000000000000000000000000000000000000000000000 DUP2 MSTORE PUSH1 0x4 ADD PUSH2 0x1557 SWAP1 PUSH2 0x2045 JUMP JUMPDEST PUSH1 0x40 MLOAD DUP1 SWAP2 SUB SWAP1 REVERT JUMPDEST PUSH1 0x0 SWAP1 POP PUSH2 0x15DD JUMP JUMPDEST DUP2 PUSH1 0xFF AND PUSH1 0x0 DUP1 SLOAD SWAP1 PUSH2 0x100 EXP SWAP1 DIV PUSH1 0xFF AND PUSH1 0xFF AND LT PUSH2 0x15BE JUMPI PUSH1 0x40 MLOAD PUSH32 0x8C379A000000000000000000000000000000000000000000000000000000000 DUP2 MSTORE PUSH1 0x4 ADD PUSH2 0x15B5 SWAP1 PUSH2 0x2045 JUMP JUMPDEST PUSH1 0x40 MLOAD DUP1 SWAP2 SUB SWAP1 REVERT JUMPDEST DUP2 PUSH1 0x0 DUP1 PUSH2 0x100 EXP DUP2 SLOAD DUP2 PUSH1 0xFF MUL NOT AND SWAP1 DUP4 PUSH1 0xFF AND MUL OR SWAP1 SSTORE POP PUSH1 0x1 SWAP1 POP JUMPDEST SWAP2 SWAP1 POP JUMP JUMPDEST PUSH1 0x0 PUSH1 0x1 SWAP1 SLOAD SWAP1 PUSH2 0x100 EXP SWAP1 DIV PUSH1 0xFF AND PUSH2 0x1631 JUMPI PUSH1 0x40 MLOAD PUSH32 0x8C379A000000000000000000000000000000000000000000000000000000000 DUP2 MSTORE PUSH1 0x4 ADD PUSH2 0x1628 SWAP1 PUSH2 0x20C5 JUMP JUMPDEST PUSH1 0x40 MLOAD DUP1 SWAP2 SUB SWAP1 REVERT JUMPDEST PUSH2 0x163B DUP3 DUP3 PUSH2 0x17E4 JUMP JUMPDEST POP POP JUMP JUMPDEST PUSH1 0x0 PUSH1 0x1 SWAP1 SLOAD SWAP1 PUSH2 0x100 EXP SWAP1 DIV PUSH1 0xFF AND PUSH2 0x168E JUMPI PUSH1 0x40 MLOAD PUSH32 0x8C379A000000000000000000000000000000000000000000000000000000000 DUP2 MSTORE PUSH1 0x4 ADD PUSH2 0x1685 SWAP1 PUSH2 0x20C5 JUMP JUMPDEST PUSH1 0x40 MLOAD DUP1 SWAP2 SUB SWAP1 REVERT JUMPDEST PUSH2 0x1696 PUSH2 0x1865 JUMP JUMPDEST JUMP JUMPDEST PUSH1 0x0 PUSH1 0x1 SWAP1 SLOAD SWAP1 PUSH2 0x100 EXP SWAP1 DIV PUSH1 0xFF AND PUSH2 0x16E7 JUMPI PUSH1 0x40 MLOAD PUSH32 0x8C379A000000000000000000000000000000000000000000000000000000000 DUP2 MSTORE PUSH1 0x4 ADD PUSH2 0x16DE SWAP1 PUSH2 0x20C5 JUMP JUMPDEST PUSH1 0x40 MLOAD DUP1 SWAP2 SUB SWAP1 REVERT JUMPDEST PUSH2 0x16EF PUSH2 0x18C6 JUMP JUMPDEST JUMP JUMPDEST PUSH1 0x0 PUSH1 0x65 PUSH1 0x0 SWAP1 SLOAD SWAP1 PUSH2 0x100 EXP SWAP1 DIV PUSH20 0xFFFFFFFFFFFFFFFFFFFFFFFFFFFFFFFFFFFFFFFF AND SWAP1 POP DUP2 PUSH1 0x65 PUSH1 0x0 PUSH2 0x100 EXP DUP2 SLOAD DUP2 PUSH20 0xFFFFFFFFFFFFFFFFFFFFFFFFFFFFFFFFFFFFFFFF MUL NOT AND SWAP1 DUP4 PUSH20 0xFFFFFFFFFFFFFFFFFFFFFFFFFFFFFFFFFFFFFFFF AND MUL OR SWAP1 SSTORE POP DUP2 PUSH20 0xFFFFFFFFFFFFFFFFFFFFFFFFFFFFFFFFFFFFFFFF AND DUP2 PUSH20 0xFFFFFFFFFFFFFFFFFFFFFFFFFFFFFFFFFFFFFFFF AND PUSH32 0x8BE0079C531659141344CD1FD0A4F28419497F9722A3DAAFE3B4186F6B6457E0 PUSH1 0x40 MLOAD PUSH1 0x40 MLOAD DUP1 SWAP2 SUB SWAP1 LOG3 POP POP JUMP JUMPDEST POP POP POP JUMP JUMPDEST POP POP POP JUMP JUMPDEST PUSH1 0x0 DUP1 DUP3 PUSH20 0xFFFFFFFFFFFFFFFFFFFFFFFFFFFFFFFFFFFFFFFF AND EXTCODESIZE GT SWAP1 POP SWAP2 SWAP1 POP JUMP JUMPDEST PUSH1 0x0 PUSH1 0x1 SWAP1 SLOAD SWAP1 PUSH2 0x100 EXP SWAP1 DIV PUSH1 0xFF AND PUSH2 0x1833 JUMPI PUSH1 0x40 MLOAD PUSH32 0x8C379A000000000000000000000000000000000000000000000000000000000 DUP2 MSTORE PUSH1 0x4 ADD PUSH2 0x182A SWAP1 PUSH2 0x20C5 JUMP JUMPDEST PUSH1 0x40 MLOAD DUP1 SWAP2 SUB SWAP1 REVERT JUMPDEST DUP2 PUSH1 0x36 SWAP1 DUP1 MLOAD SWAP1 PUSH1 0x20 ADD SWAP1 PUSH2 0x1849 SWAP3 SWAP2 SWAP1 PUSH2 0x1932 JUMP JUMPDEST POP DUP1 PUSH1 0x37 SWAP1 DUP1 MLOAD SWAP1 PUSH1 0x20 ADD SWAP1 PUSH2 0x1860 SWAP3 SWAP2 SWAP1 PUSH2 0x1932 JUMP JUMPDEST POP POP POP JUMP JUMPDEST PUSH1 0x0 PUSH1 0x1 SWAP1 SLOAD SWAP1 PUSH2 0x100 EXP SWAP1 DIV PUSH1 0xFF AND PUSH2 0x18B4 JUMPI PUSH1 0x40 MLOAD PUSH32 0x8C379A000000000000000000000000000000000000000000000000000000000 DUP2 MSTORE PUSH1 0x4 ADD PUSH2 0x18AB SWAP1 PUSH2 0x20C5 JUMP JUMPDEST PUSH1 0x40 MLOAD DUP1 SWAP2 SUB SWAP1 REVERT JUMPDEST PUSH2 0x18C4 PUSH2 0x18BF PUSH2 0xEAE JUMP JUMPDEST PUSH2 0x16F1 JUMP JUMPDEST JUMP JUMPDEST PUSH1 0x0 PUSH1 0x1 SWAP1 SLOAD SWAP1 PUSH2 0x100 EXP SWAP1 DIV PUSH1 0xFF AND PUSH2 0x1915 JUMPI PUSH1 0x40 MLOAD PUSH32 0x8C379A000000000000000000000000000000000000000000000000000000000 DUP2 MSTORE PUSH1 0x4 ADD PUSH2 0x190C SWAP1 PUSH2 0x20C5 JUMP JUMPDEST PUSH1 0x40 MLOAD DUP1 SWAP2 SUB SWAP1 REVERT JUMPDEST PUSH1 0x0 PUSH1 0x97 PUSH1 0x0 PUSH2 0x100 EXP DUP2 SLOAD DUP2 PUSH1 0xFF MUL NOT AND SWAP1 DUP4 ISZERO ISZERO MUL OR SWAP1 SSTORE POP JUMP JUMPDEST DUP3 DUP1 SLOAD PUSH2 0x193E SWAP1 PUSH2 0x2320 JUMP JUMPDEST SWAP1 PUSH1 0x0 MSTORE PUSH1 0x20 PUSH1 0x0 KECCAK256 SWAP1 PUSH1 0x1F ADD PUSH1 0x20 SWAP1 DIV DUP2 ADD SWAP3 DUP3 PUSH2 0x1960 JUMPI PUSH1 0x0 DUP6 SSTORE PUSH2 0x19A7 JUMP JUMPDEST DUP3 PUSH1 0x1F LT PUSH2 0x1979 JUMPI DUP1 MLOAD PUSH1 0xFF NOT AND DUP4 DUP1 ADD OR DUP6 SSTORE PUSH2 0x19A7 JUMP JUMPDEST DUP3 DUP1 ADD PUSH1 0x1 ADD DUP6 SSTORE DUP3 ISZERO PUSH2 0x19A7 JUMPI SWAP2 DUP3 ADD JUMPDEST DUP3 DUP2 GT ISZERO PUSH2 0x19A6 JUMPI DUP3 MLOAD DUP3 SSTORE SWAP2 PUSH1 0x20 ADD SWAP2 SWAP1 PUSH1 0x1 ADD SWAP1 PUSH2 0x198B JUMP JUMPDEST JUMPDEST POP SWAP1 POP PUSH2 0x19B4 SWAP2 SWAP1 PUSH2 0x19B8 JUMP JUMPDEST POP SWAP1 JUMP JUMPDEST JUMPDEST DUP1 DUP3 GT ISZERO PUSH2 0x19D1 JUMPI PUSH1 0x0 DUP2 PUSH1 0x0 SWAP1 SSTORE POP PUSH1 0x1 ADD PUSH2 0x19B9 JUMP JUMPDEST POP SWAP1 JUMP JUMPDEST PUSH1 0x0 PUSH2 0x19E8 PUSH2 0x19E3 DUP5 PUSH2 0x21A0 JUMP JUMPDEST PUSH2 0x217B JUMP JUMPDEST SWAP1 POP DUP3 DUP2 MSTORE PUSH1 0x20 DUP2 ADD DUP5 DUP5 DUP5 ADD GT ISZERO PUSH2 0x1A00 JUMPI PUSH1 0x0 DUP1 REVERT JUMPDEST PUSH2 0x1A0B DUP5 DUP3 DUP6 PUSH2 0x22DE JUMP JUMPDEST POP SWAP4 SWAP3 POP POP POP JUMP JUMPDEST PUSH1 0x0 DUP2 CALLDATALOAD SWAP1 POP PUSH2 0x1A22 DUP2 PUSH2 0x27DE JUMP JUMPDEST SWAP3 SWAP2 POP POP JUMP JUMPDEST PUSH1 0x0 DUP2 MLOAD SWAP1 POP PUSH2 0x1A37 DUP2 PUSH2 0x27DE JUMP JUMPDEST SWAP3 SWAP2 POP POP JUMP JUMPDEST PUSH1 0x0 DUP3 PUSH1 0x1F DUP4 ADD SLT PUSH2 0x1A4E JUMPI PUSH1 0x0 DUP1 REVERT JUMPDEST DUP2 CALLDATALOAD PUSH2 0x1A5E DUP5 DUP3 PUSH1 0x20 DUP7 ADD PUSH2 0x19D5 JUMP JUMPDEST SWAP2 POP POP SWAP3 SWAP2 POP POP JUMP JUMPDEST PUSH1 0x0 DUP2 CALLDATALOAD SWAP1 POP PUSH2 0x1A76 DUP2 PUSH2 0x27F5 JUMP JUMPDEST SWAP3 SWAP2 POP POP JUMP JUMPDEST PUSH1 0x0 PUSH1 0x20 DUP3 DUP5 SUB SLT ISZERO PUSH2 0x1A8E JUMPI PUSH1 0x0 DUP1 REVERT JUMPDEST PUSH1 0x0 PUSH2 0x1A9C DUP5 DUP3 DUP6 ADD PUSH2 0x1A13 JUMP JUMPDEST SWAP2 POP POP SWAP3 SWAP2 POP POP JUMP JUMPDEST PUSH1 0x0 PUSH1 0x20 DUP3 DUP5 SUB SLT ISZERO PUSH2 0x1AB7 JUMPI PUSH1 0x0 DUP1 REVERT JUMPDEST PUSH1 0x0 PUSH2 0x1AC5 DUP5 DUP3 DUP6 ADD PUSH2 0x1A28 JUMP JUMPDEST SWAP2 POP POP SWAP3 SWAP2 POP POP JUMP JUMPDEST PUSH1 0x0 DUP1 PUSH1 0x40 DUP4 DUP6 SUB SLT ISZERO PUSH2 0x1AE1 JUMPI PUSH1 0x0 DUP1 REVERT JUMPDEST PUSH1 0x0 PUSH2 0x1AEF DUP6 DUP3 DUP7 ADD PUSH2 0x1A13 JUMP JUMPDEST SWAP3 POP POP PUSH1 0x20 PUSH2 0x1B00 DUP6 DUP3 DUP7 ADD PUSH2 0x1A13 JUMP JUMPDEST SWAP2 POP POP SWAP3 POP SWAP3 SWAP1 POP JUMP JUMPDEST PUSH1 0x0 DUP1 PUSH1 0x0 PUSH1 0x60 DUP5 DUP7 SUB SLT ISZERO PUSH2 0x1B1F JUMPI PUSH1 0x0 DUP1 REVERT JUMPDEST PUSH1 0x0 PUSH2 0x1B2D DUP7 DUP3 DUP8 ADD PUSH2 0x1A13 JUMP JUMPDEST SWAP4 POP POP PUSH1 0x20 PUSH2 0x1B3E DUP7 DUP3 DUP8 ADD PUSH2 0x1A13 JUMP JUMPDEST SWAP3 POP POP PUSH1 0x40 PUSH2 0x1B4F DUP7 DUP3 DUP8 ADD PUSH2 0x1A67 JUMP JUMPDEST SWAP2 POP POP SWAP3 POP SWAP3 POP SWAP3 JUMP JUMPDEST PUSH1 0x0 DUP1 PUSH1 0x40 DUP4 DUP6 SUB SLT ISZERO PUSH2 0x1B6C JUMPI PUSH1 0x0 DUP1 REVERT JUMPDEST PUSH1 0x0 PUSH2 0x1B7A DUP6 DUP3 DUP7 ADD PUSH2 0x1A13 JUMP JUMPDEST SWAP3 POP POP PUSH1 0x20 PUSH2 0x1B8B DUP6 DUP3 DUP7 ADD PUSH2 0x1A67 JUMP JUMPDEST SWAP2 POP POP SWAP3 POP SWAP3 SWAP1 POP JUMP JUMPDEST PUSH1 0x0 DUP1 PUSH1 0x40 DUP4 DUP6 SUB SLT ISZERO PUSH2 0x1BA8 JUMPI PUSH1 0x0 DUP1 REVERT JUMPDEST PUSH1 0x0 DUP4 ADD CALLDATALOAD PUSH8 0xFFFFFFFFFFFFFFFF DUP2 GT ISZERO PUSH2 0x1BC2 JUMPI PUSH1 0x0 DUP1 REVERT JUMPDEST PUSH2 0x1BCE DUP6 DUP3 DUP7 ADD PUSH2 0x1A3D JUMP JUMPDEST SWAP3 POP POP PUSH1 0x20 DUP4 ADD CALLDATALOAD PUSH8 0xFFFFFFFFFFFFFFFF DUP2 GT ISZERO PUSH2 0x1BEB JUMPI PUSH1 0x0 DUP1 REVERT JUMPDEST PUSH2 0x1BF7 DUP6 DUP3 DUP7 ADD PUSH2 0x1A3D JUMP JUMPDEST SWAP2 POP POP SWAP3 POP SWAP3 SWAP1 POP JUMP JUMPDEST PUSH1 0x0 PUSH1 0x20 DUP3 DUP5 SUB SLT ISZERO PUSH2 0x1C13 JUMPI PUSH1 0x0 DUP1 REVERT JUMPDEST PUSH1 0x0 PUSH2 0x1C21 DUP5 DUP3 DUP6 ADD PUSH2 0x1A67 JUMP JUMPDEST SWAP2 POP POP SWAP3 SWAP2 POP POP JUMP JUMPDEST PUSH2 0x1C33 DUP2 PUSH2 0x2277 JUMP JUMPDEST DUP3 MSTORE POP POP JUMP JUMPDEST PUSH2 0x1C42 DUP2 PUSH2 0x2289 JUMP JUMPDEST DUP3 MSTORE POP POP JUMP JUMPDEST PUSH2 0x1C51 DUP2 PUSH2 0x22CC JUMP JUMPDEST DUP3 MSTORE POP POP JUMP JUMPDEST PUSH1 0x0 PUSH2 0x1C62 DUP3 PUSH2 0x21D1 JUMP JUMPDEST PUSH2 0x1C6C DUP2 DUP6 PUSH2 0x21DC JUMP JUMPDEST SWAP4 POP PUSH2 0x1C7C DUP2 DUP6 PUSH1 0x20 DUP7 ADD PUSH2 0x22ED JUMP JUMPDEST PUSH2 0x1C85 DUP2 PUSH2 0x2410 JUMP JUMPDEST DUP5 ADD SWAP2 POP POP SWAP3 SWAP2 POP POP JUMP JUMPDEST PUSH1 0x0 PUSH2 0x1C9D PUSH1 0x23 DUP4 PUSH2 0x21DC JUMP JUMPDEST SWAP2 POP PUSH2 0x1CA8 DUP3 PUSH2 0x2421 JUMP JUMPDEST PUSH1 0x40 DUP3 ADD SWAP1 POP SWAP2 SWAP1 POP JUMP JUMPDEST PUSH1 0x0 PUSH2 0x1CC0 PUSH1 0x26 DUP4 PUSH2 0x21DC JUMP JUMPDEST SWAP2 POP PUSH2 0x1CCB DUP3 PUSH2 0x2470 JUMP JUMPDEST PUSH1 0x40 DUP3 ADD SWAP1 POP SWAP2 SWAP1 POP JUMP JUMPDEST PUSH1 0x0 PUSH2 0x1CE3 PUSH1 0x22 DUP4 PUSH2 0x21DC JUMP JUMPDEST SWAP2 POP PUSH2 0x1CEE DUP3 PUSH2 0x24BF JUMP JUMPDEST PUSH1 0x40 DUP3 ADD SWAP1 POP SWAP2 SWAP1 POP JUMP JUMPDEST PUSH1 0x0 PUSH2 0x1D06 PUSH1 0xC DUP4 PUSH2 0x21DC JUMP JUMPDEST SWAP2 POP PUSH2 0x1D11 DUP3 PUSH2 0x250E JUMP JUMPDEST PUSH1 0x20 DUP3 ADD SWAP1 POP SWAP2 SWAP1 POP JUMP JUMPDEST PUSH1 0x0 PUSH2 0x1D29 PUSH1 0xB DUP4 PUSH2 0x21DC JUMP JUMPDEST SWAP2 POP PUSH2 0x1D34 DUP3 PUSH2 0x2537 JUMP JUMPDEST PUSH1 0x20 DUP3 ADD SWAP1 POP SWAP2 SWAP1 POP JUMP JUMPDEST PUSH1 0x0 PUSH2 0x1D4C PUSH1 0x1D DUP4 PUSH2 0x21DC JUMP JUMPDEST SWAP2 POP PUSH2 0x1D57 DUP3 PUSH2 0x2560 JUMP JUMPDEST PUSH1 0x20 DUP3 ADD SWAP1 POP SWAP2 SWAP1 POP JUMP JUMPDEST PUSH1 0x0 PUSH2 0x1D6F PUSH1 0x26 DUP4 PUSH2 0x21DC JUMP JUMPDEST SWAP2 POP PUSH2 0x1D7A DUP3 PUSH2 0x2589 JUMP JUMPDEST PUSH1 0x40 DUP3 ADD SWAP1 POP SWAP2 SWAP1 POP JUMP JUMPDEST PUSH1 0x0 PUSH2 0x1D92 PUSH1 0x2E DUP4 PUSH2 0x21DC JUMP JUMPDEST SWAP2 POP PUSH2 0x1D9D DUP3 PUSH2 0x25D8 JUMP JUMPDEST PUSH1 0x40 DUP3 ADD SWAP1 POP SWAP2 SWAP1 POP JUMP JUMPDEST PUSH1 0x0 PUSH2 0x1DB5 PUSH1 0x20 DUP4 PUSH2 0x21DC JUMP JUMPDEST SWAP2 POP PUSH2 0x1DC0 DUP3 PUSH2 0x2627 JUMP JUMPDEST PUSH1 0x20 DUP3 ADD SWAP1 POP SWAP2 SWAP1 POP JUMP JUMPDEST PUSH1 0x0 PUSH2 0x1DD8 PUSH1 0x25 DUP4 PUSH2 0x21DC JUMP JUMPDEST SWAP2 POP PUSH2 0x1DE3 DUP3 PUSH2 0x2650 JUMP JUMPDEST PUSH1 0x40 DUP3 ADD SWAP1 POP SWAP2 SWAP1 POP JUMP JUMPDEST PUSH1 0x0 PUSH2 0x1DFB PUSH1 0x24 DUP4 PUSH2 0x21DC JUMP JUMPDEST SWAP2 POP PUSH2 0x1E06 DUP3 PUSH2 0x269F JUMP JUMPDEST PUSH1 0x40 DUP3 ADD SWAP1 POP SWAP2 SWAP1 POP JUMP JUMPDEST PUSH1 0x0 PUSH2 0x1E1E PUSH1 0x2B DUP4 PUSH2 0x21DC JUMP JUMPDEST SWAP2 POP PUSH2 0x1E29 DUP3 PUSH2 0x26EE JUMP JUMPDEST PUSH1 0x40 DUP3 ADD SWAP1 POP SWAP2 SWAP1 POP JUMP JUMPDEST PUSH1 0x0 PUSH2 0x1E41 PUSH1 0xE DUP4 PUSH2 0x21DC JUMP JUMPDEST SWAP2 POP PUSH2 0x1E4C DUP3 PUSH2 0x273D JUMP JUMPDEST PUSH1 0x20 DUP3 ADD SWAP1 POP SWAP2 SWAP1 POP JUMP JUMPDEST PUSH1 0x0 PUSH2 0x1E64 PUSH1 0x25 DUP4 PUSH2 0x21DC JUMP JUMPDEST SWAP2 POP PUSH2 0x1E6F DUP3 PUSH2 0x2766 JUMP JUMPDEST PUSH1 0x40 DUP3 ADD SWAP1 POP SWAP2 SWAP1 POP JUMP JUMPDEST PUSH1 0x0 PUSH2 0x1E87 PUSH1 0x1F DUP4 PUSH2 0x21DC JUMP JUMPDEST SWAP2 POP PUSH2 0x1E92 DUP3 PUSH2 0x27B5 JUMP JUMPDEST PUSH1 0x20 DUP3 ADD SWAP1 POP SWAP2 SWAP1 POP JUMP JUMPDEST PUSH2 0x1EA6 DUP2 PUSH2 0x22B5 JUMP JUMPDEST DUP3 MSTORE POP POP JUMP JUMPDEST PUSH2 0x1EB5 DUP2 PUSH2 0x22BF JUMP JUMPDEST DUP3 MSTORE POP POP JUMP JUMPDEST PUSH1 0x0 PUSH1 0x20 DUP3 ADD SWAP1 POP PUSH2 0x1ED0 PUSH1 0x0 DUP4 ADD DUP5 PUSH2 0x1C2A JUMP JUMPDEST SWAP3 SWAP2 POP POP JUMP JUMPDEST PUSH1 0x0 PUSH1 0x60 DUP3 ADD SWAP1 POP PUSH2 0x1EEB PUSH1 0x0 DUP4 ADD DUP7 PUSH2 0x1C2A JUMP JUMPDEST PUSH2 0x1EF8 PUSH1 0x20 DUP4 ADD DUP6 PUSH2 0x1E9D JUMP JUMPDEST PUSH2 0x1F05 PUSH1 0x40 DUP4 ADD DUP5 PUSH2 0x1E9D JUMP JUMPDEST SWAP5 SWAP4 POP POP POP POP JUMP JUMPDEST PUSH1 0x0 PUSH1 0x20 DUP3 ADD SWAP1 POP PUSH2 0x1F22 PUSH1 0x0 DUP4 ADD DUP5 PUSH2 0x1C39 JUMP JUMPDEST SWAP3 SWAP2 POP POP JUMP JUMPDEST PUSH1 0x0 PUSH1 0x20 DUP3 ADD SWAP1 POP PUSH2 0x1F3D PUSH1 0x0 DUP4 ADD DUP5 PUSH2 0x1C48 JUMP JUMPDEST SWAP3 SWAP2 POP POP JUMP JUMPDEST PUSH1 0x0 PUSH1 0x20 DUP3 ADD SWAP1 POP DUP2 DUP2 SUB PUSH1 0x0 DUP4 ADD MSTORE PUSH2 0x1F5D DUP2 DUP5 PUSH2 0x1C57 JUMP JUMPDEST SWAP1 POP SWAP3 SWAP2 POP POP JUMP JUMPDEST PUSH1 0x0 PUSH1 0x20 DUP3 ADD SWAP1 POP DUP2 DUP2 SUB PUSH1 0x0 DUP4 ADD MSTORE PUSH2 0x1F7E DUP2 PUSH2 0x1C90 JUMP JUMPDEST SWAP1 POP SWAP2 SWAP1 POP JUMP JUMPDEST PUSH1 0x0 PUSH1 0x20 DUP3 ADD SWAP1 POP DUP2 DUP2 SUB PUSH1 0x0 DUP4 ADD MSTORE PUSH2 0x1F9E DUP2 PUSH2 0x1CB3 JUMP JUMPDEST SWAP1 POP SWAP2 SWAP1 POP JUMP JUMPDEST PUSH1 0x0 PUSH1 0x20 DUP3 ADD SWAP1 POP DUP2 DUP2 SUB PUSH1 0x0 DUP4 ADD MSTORE PUSH2 0x1FBE DUP2 PUSH2 0x1CD6 JUMP JUMPDEST SWAP1 POP SWAP2 SWAP1 POP JUMP JUMPDEST PUSH1 0x0 PUSH1 0x20 DUP3 ADD SWAP1 POP DUP2 DUP2 SUB PUSH1 0x0 DUP4 ADD MSTORE PUSH2 0x1FDE DUP2 PUSH2 0x1CF9 JUMP JUMPDEST SWAP1 POP SWAP2 SWAP1 POP JUMP JUMPDEST PUSH1 0x0 PUSH1 0x20 DUP3 ADD SWAP1 POP DUP2 DUP2 SUB PUSH1 0x0 DUP4 ADD MSTORE PUSH2 0x1FFE DUP2 PUSH2 0x1D1C JUMP JUMPDEST SWAP1 POP SWAP2 SWAP1 POP JUMP JUMPDEST PUSH1 0x0 PUSH1 0x20 DUP3 ADD SWAP1 POP DUP2 DUP2 SUB PUSH1 0x0 DUP4 ADD MSTORE PUSH2 0x201E DUP2 PUSH2 0x1D3F JUMP JUMPDEST SWAP1 POP SWAP2 SWAP1 POP JUMP JUMPDEST PUSH1 0x0 PUSH1 0x20 DUP3 ADD SWAP1 POP DUP2 DUP2 SUB PUSH1 0x0 DUP4 ADD MSTORE PUSH2 0x203E DUP2 PUSH2 0x1D62 JUMP JUMPDEST SWAP1 POP SWAP2 SWAP1 POP JUMP JUMPDEST PUSH1 0x0 PUSH1 0x20 DUP3 ADD SWAP1 POP DUP2 DUP2 SUB PUSH1 0x0 DUP4 ADD MSTORE PUSH2 0x205E DUP2 PUSH2 0x1D85 JUMP JUMPDEST SWAP1 POP SWAP2 SWAP1 POP JUMP JUMPDEST PUSH1 0x0 PUSH1 0x20 DUP3 ADD SWAP1 POP DUP2 DUP2 SUB PUSH1 0x0 DUP4 ADD MSTORE PUSH2 0x207E DUP2 PUSH2 0x1DA8 JUMP JUMPDEST SWAP1 POP SWAP2 SWAP1 POP JUMP JUMPDEST PUSH1 0x0 PUSH1 0x20 DUP3 ADD SWAP1 POP DUP2 DUP2 SUB PUSH1 0x0 DUP4 ADD MSTORE PUSH2 0x209E DUP2 PUSH2 0x1DCB JUMP JUMPDEST SWAP1 POP SWAP2 SWAP1 POP JUMP JUMPDEST PUSH1 0x0 PUSH1 0x20 DUP3 ADD SWAP1 POP DUP2 DUP2 SUB PUSH1 0x0 DUP4 ADD MSTORE PUSH2 0x20BE DUP2 PUSH2 0x1DEE JUMP JUMPDEST SWAP1 POP SWAP2 SWAP1 POP JUMP JUMPDEST PUSH1 0x0 PUSH1 0x20 DUP3 ADD SWAP1 POP DUP2 DUP2 SUB PUSH1 0x0 DUP4 ADD MSTORE PUSH2 0x20DE DUP2 PUSH2 0x1E11 JUMP JUMPDEST SWAP1 POP SWAP2 SWAP1 POP JUMP JUMPDEST PUSH1 0x0 PUSH1 0x20 DUP3 ADD SWAP1 POP DUP2 DUP2 SUB PUSH1 0x0 DUP4 ADD MSTORE PUSH2 0x20FE DUP2 PUSH2 0x1E34 JUMP JUMPDEST SWAP1 POP SWAP2 SWAP1 POP JUMP JUMPDEST PUSH1 0x0 PUSH1 0x20 DUP3 ADD SWAP1 POP DUP2 DUP2 SUB PUSH1 0x0 DUP4 ADD MSTORE PUSH2 0x211E DUP2 PUSH2 0x1E57 JUMP JUMPDEST SWAP1 POP SWAP2 SWAP1 POP JUMP JUMPDEST PUSH1 0x0 PUSH1 0x20 DUP3 ADD SWAP1 POP DUP2 DUP2 SUB PUSH1 0x0 DUP4 ADD MSTORE PUSH2 0x213E DUP2 PUSH2 0x1E7A JUMP JUMPDEST SWAP1 POP SWAP2 SWAP1 POP JUMP JUMPDEST PUSH1 0x0 PUSH1 0x20 DUP3 ADD SWAP1 POP PUSH2 0x215A PUSH1 0x0 DUP4 ADD DUP5 PUSH2 0x1E9D JUMP JUMPDEST SWAP3 SWAP2 POP POP JUMP JUMPDEST PUSH1 0x0 PUSH1 0x20 DUP3 ADD SWAP1 POP PUSH2 0x2175 PUSH1 0x0 DUP4 ADD DUP5 PUSH2 0x1EAC JUMP JUMPDEST SWAP3 SWAP2 POP POP JUMP JUMPDEST PUSH1 0x0 PUSH2 0x2185 PUSH2 0x2196 JUMP JUMPDEST SWAP1 POP PUSH2 0x2191 DUP3 DUP3 PUSH2 0x2352 JUMP JUMPDEST SWAP2 SWAP1 POP JUMP JUMPDEST PUSH1 0x0 PUSH1 0x40 MLOAD SWAP1 POP SWAP1 JUMP JUMPDEST PUSH1 0x0 PUSH8 0xFFFFFFFFFFFFFFFF DUP3 GT ISZERO PUSH2 0x21BB JUMPI PUSH2 0x21BA PUSH2 0x23E1 JUMP JUMPDEST JUMPDEST PUSH2 0x21C4 DUP3 PUSH2 0x2410 JUMP JUMPDEST SWAP1 POP PUSH1 0x20 DUP2 ADD SWAP1 POP SWAP2 SWAP1 POP JUMP JUMPDEST PUSH1 0x0 DUP2 MLOAD SWAP1 POP SWAP2 SWAP1 POP JUMP JUMPDEST PUSH1 0x0 DUP3 DUP3 MSTORE PUSH1 0x20 DUP3 ADD SWAP1 POP SWAP3 SWAP2 POP POP JUMP JUMPDEST PUSH1 0x0 PUSH2 0x21F8 DUP3 PUSH2 0x22B5 JUMP JUMPDEST SWAP2 POP PUSH2 0x2203 DUP4 PUSH2 0x22B5 JUMP JUMPDEST SWAP3 POP DUP3 PUSH32 0xFFFFFFFFFFFFFFFFFFFFFFFFFFFFFFFFFFFFFFFFFFFFFFFFFFFFFFFFFFFFFFFF SUB DUP3 GT ISZERO PUSH2 0x2238 JUMPI PUSH2 0x2237 PUSH2 0x2383 JUMP JUMPDEST JUMPDEST DUP3 DUP3 ADD SWAP1 POP SWAP3 SWAP2 POP POP JUMP JUMPDEST PUSH1 0x0 PUSH2 0x224E DUP3 PUSH2 0x22B5 JUMP JUMPDEST SWAP2 POP PUSH2 0x2259 DUP4 PUSH2 0x22B5 JUMP JUMPDEST SWAP3 POP DUP3 DUP3 LT ISZERO PUSH2 0x226C JUMPI PUSH2 0x226B PUSH2 0x2383 JUMP JUMPDEST JUMPDEST DUP3 DUP3 SUB SWAP1 POP SWAP3 SWAP2 POP POP JUMP JUMPDEST PUSH1 0x0 PUSH2 0x2282 DUP3 PUSH2 0x2295 JUMP JUMPDEST SWAP1 POP SWAP2 SWAP1 POP JUMP JUMPDEST PUSH1 0x0 DUP2 ISZERO ISZERO SWAP1 POP SWAP2 SWAP1 POP JUMP JUMPDEST PUSH1 0x0 PUSH20 0xFFFFFFFFFFFFFFFFFFFFFFFFFFFFFFFFFFFFFFFF DUP3 AND SWAP1 POP SWAP2 SWAP1 POP JUMP JUMPDEST PUSH1 0x0 DUP2 SWAP1 POP SWAP2 SWAP1 POP JUMP JUMPDEST PUSH1 0x0 PUSH1 0xFF DUP3 AND SWAP1 POP SWAP2 SWAP1 POP JUMP JUMPDEST PUSH1 0x0 PUSH2 0x22D7 DUP3 PUSH2 0x22BF JUMP JUMPDEST SWAP1 POP SWAP2 SWAP1 POP JUMP JUMPDEST DUP3 DUP2 DUP4 CALLDATACOPY PUSH1 0x0 DUP4 DUP4 ADD MSTORE POP POP POP JUMP JUMPDEST PUSH1 0x0 JUMPDEST DUP4 DUP2 LT ISZERO PUSH2 0x230B JUMPI DUP1 DUP3 ADD MLOAD DUP2 DUP5 ADD MSTORE PUSH1 0x20 DUP2 ADD SWAP1 POP PUSH2 0x22F0 JUMP JUMPDEST DUP4 DUP2 GT ISZERO PUSH2 0x231A JUMPI PUSH1 0x0 DUP5 DUP5 ADD MSTORE JUMPDEST POP POP POP POP JUMP JUMPDEST PUSH1 0x0 PUSH1 0x2 DUP3 DIV SWAP1 POP PUSH1 0x1 DUP3 AND DUP1 PUSH2 0x2338 JUMPI PUSH1 0x7F DUP3 AND SWAP2 POP JUMPDEST PUSH1 0x20 DUP3 LT DUP2 EQ ISZERO PUSH2 0x234C JUMPI PUSH2 0x234B PUSH2 0x23B2 JUMP JUMPDEST JUMPDEST POP SWAP2 SWAP1 POP JUMP JUMPDEST PUSH2 0x235B DUP3 PUSH2 0x2410 JUMP JUMPDEST DUP2 ADD DUP2 DUP2 LT PUSH8 0xFFFFFFFFFFFFFFFF DUP3 GT OR ISZERO PUSH2 0x237A JUMPI PUSH2 0x2379 PUSH2 0x23E1 JUMP JUMPDEST JUMPDEST DUP1 PUSH1 0x40 MSTORE POP POP POP JUMP JUMPDEST PUSH32 0x4E487B7100000000000000000000000000000000000000000000000000000000 PUSH1 0x0 MSTORE PUSH1 0x11 PUSH1 0x4 MSTORE PUSH1 0x24 PUSH1 0x0 REVERT JUMPDEST PUSH32 0x4E487B7100000000000000000000000000000000000000000000000000000000 PUSH1 0x0 MSTORE PUSH1 0x22 PUSH1 0x4 MSTORE PUSH1 0x24 PUSH1 0x0 REVERT JUMPDEST PUSH32 0x4E487B7100000000000000000000000000000000000000000000000000000000 PUSH1 0x0 MSTORE PUSH1 0x41 PUSH1 0x4 MSTORE PUSH1 0x24 PUSH1 0x0 REVERT JUMPDEST PUSH1 0x0 PUSH1 0x1F NOT PUSH1 0x1F DUP4 ADD AND SWAP1 POP SWAP2 SWAP1 POP JUMP JUMPDEST PUSH32 0x45524332303A207472616E7366657220746F20746865207A65726F2061646472 PUSH1 0x0 DUP3 ADD MSTORE PUSH32 0x6573730000000000000000000000000000000000000000000000000000000000 PUSH1 0x20 DUP3 ADD MSTORE POP JUMP JUMPDEST PUSH32 0x4F776E61626C653A206E6577206F776E657220697320746865207A65726F2061 PUSH1 0x0 DUP3 ADD MSTORE PUSH32 0x6464726573730000000000000000000000000000000000000000000000000000 PUSH1 0x20 DUP3 ADD MSTORE POP JUMP JUMPDEST PUSH32 0x45524332303A20617070726F766520746F20746865207A65726F206164647265 PUSH1 0x0 DUP3 ADD MSTORE PUSH32 0x7373000000000000000000000000000000000000000000000000000000000000 PUSH1 0x20 DUP3 ADD MSTORE POP JUMP JUMPDEST PUSH32 0x554E415554484F52495A45440000000000000000000000000000000000000000 PUSH1 0x0 DUP3 ADD MSTORE POP JUMP JUMPDEST PUSH32 0x4F4E20434F4F4C444F574E000000000000000000000000000000000000000000 PUSH1 0x0 DUP3 ADD MSTORE POP JUMP JUMPDEST PUSH32 0x45524332303A20696E73756666696369656E7420616C6C6F77616E6365000000 PUSH1 0x0 DUP3 ADD MSTORE POP JUMP JUMPDEST PUSH32 0x45524332303A207472616E7366657220616D6F756E7420657863656564732062 PUSH1 0x0 DUP3 ADD MSTORE PUSH32 0x616C616E63650000000000000000000000000000000000000000000000000000 PUSH1 0x20 DUP3 ADD MSTORE POP JUMP JUMPDEST PUSH32 0x496E697469616C697A61626C653A20636F6E747261637420697320616C726561 PUSH1 0x0 DUP3 ADD MSTORE PUSH32 0x647920696E697469616C697A6564000000000000000000000000000000000000 PUSH1 0x20 DUP3 ADD MSTORE POP JUMP JUMPDEST PUSH32 0x4F776E61626C653A2063616C6C6572206973206E6F7420746865206F776E6572 PUSH1 0x0 DUP3 ADD MSTORE POP JUMP JUMPDEST PUSH32 0x45524332303A207472616E736665722066726F6D20746865207A65726F206164 PUSH1 0x0 DUP3 ADD MSTORE PUSH32 0x6472657373000000000000000000000000000000000000000000000000000000 PUSH1 0x20 DUP3 ADD MSTORE POP JUMP JUMPDEST PUSH32 0x45524332303A20617070726F76652066726F6D20746865207A65726F20616464 PUSH1 0x0 DUP3 ADD MSTORE PUSH32 0x7265737300000000000000000000000000000000000000000000000000000000 PUSH1 0x20 DUP3 ADD MSTORE POP JUMP JUMPDEST PUSH32 0x496E697469616C697A61626C653A20636F6E7472616374206973206E6F742069 PUSH1 0x0 DUP3 ADD MSTORE PUSH32 0x6E697469616C697A696E67000000000000000000000000000000000000000000 PUSH1 0x20 DUP3 ADD MSTORE POP JUMP JUMPDEST PUSH32 0x4F6E6C792077686974656C697374000000000000000000000000000000000000 PUSH1 0x0 DUP3 ADD MSTORE POP JUMP JUMPDEST PUSH32 0x45524332303A2064656372656173656420616C6C6F77616E63652062656C6F77 PUSH1 0x0 DUP3 ADD MSTORE PUSH32 0x207A65726F000000000000000000000000000000000000000000000000000000 PUSH1 0x20 DUP3 ADD MSTORE POP JUMP JUMPDEST PUSH32 0x45524332303A206D696E7420746F20746865207A65726F206164647265737300 PUSH1 0x0 DUP3 ADD MSTORE POP JUMP JUMPDEST PUSH2 0x27E7 DUP2 PUSH2 0x2277 JUMP JUMPDEST DUP2 EQ PUSH2 0x27F2 JUMPI PUSH1 0x0 DUP1 REVERT JUMPDEST POP JUMP JUMPDEST PUSH2 0x27FE DUP2 PUSH2 0x22B5 JUMP JUMPDEST DUP2 EQ PUSH2 0x2809 JUMPI PUSH1 0x0 DUP1 REVERT JUMPDEST POP JUMP INVALID LOG2 PUSH5 0x6970667358 0x22 SLT KECCAK256 0xA7 ISZERO 0xDE SWAP10 DUP11 0xC0 0xA8 PUSH5 0x9D0A619A9 0xBA SWAP8 INVALID DUP13 0xA5 PUSH27 0xBFF1E54AD5D2C64CA1952C255F64736F6C63430008040033000000 "
				},
				"gasEstimates": {
					"creation": {
						"codeDepositCost": "2061200",
						"executionCost": "2192",
						"totalCost": "2063392"
					},
					"external": {
						"allowance(address,address)": "infinite",
						"approve(address,uint256)": "infinite",
						"balanceOf(address)": "1564",
						"claimDairy(uint256)": "infinite",
						"decimals()": "455",
						"decreaseAllowance(address,uint256)": "infinite",
						"getLastClaimed(uint256)": "infinite",
						"increaseAllowance(address,uint256)": "infinite",
						"initialize(string,string)": "infinite",
						"mint(address,uint256)": "infinite",
						"name()": "infinite",
						"owner()": "1311",
						"paused()": "1312",
						"renounceOwnership()": "24419",
						"setCooldown(uint256)": "21449",
						"setMoolaNFTAddress(address)": "22328",
						"setWhitelist(address)": "22419",
						"symbol()": "infinite",
						"totalSupply()": "1205",
						"transfer(address,uint256)": "infinite",
						"transferFrom(address,address,uint256)": "infinite",
						"transferOwnership(address)": "24855"
					}
				},
				"methodIdentifiers": {
					"allowance(address,address)": "dd62ed3e",
					"approve(address,uint256)": "095ea7b3",
					"balanceOf(address)": "70a08231",
					"claimDairy(uint256)": "59176c8d",
					"decimals()": "313ce567",
					"decreaseAllowance(address,uint256)": "a457c2d7",
					"getLastClaimed(uint256)": "d1a20509",
					"increaseAllowance(address,uint256)": "39509351",
					"initialize(string,string)": "4cd88b76",
					"mint(address,uint256)": "40c10f19",
					"name()": "06fdde03",
					"owner()": "8da5cb5b",
					"paused()": "5c975abb",
					"renounceOwnership()": "715018a6",
					"setCooldown(uint256)": "4fc3f41a",
					"setMoolaNFTAddress(address)": "be023d84",
					"setWhitelist(address)": "854cff2f",
					"symbol()": "95d89b41",
					"totalSupply()": "18160ddd",
					"transfer(address,uint256)": "a9059cbb",
					"transferFrom(address,address,uint256)": "23b872dd",
					"transferOwnership(address)": "f2fde38b"
				}
			},
			"storageLayout": {
				"storage": [
					{
						"astId": 130,
						"contract": "contracts/tokens/Moola.sol:Moola",
						"label": "_initialized",
						"offset": 0,
						"slot": "0",
						"type": "t_uint8"
					},
					{
						"astId": 133,
						"contract": "contracts/tokens/Moola.sol:Moola",
						"label": "_initializing",
						"offset": 1,
						"slot": "0",
						"type": "t_bool"
					},
					{
						"astId": 1580,
						"contract": "contracts/tokens/Moola.sol:Moola",
						"label": "__gap",
						"offset": 0,
						"slot": "1",
						"type": "t_array(t_uint256)50_storage"
					},
					{
						"astId": 454,
						"contract": "contracts/tokens/Moola.sol:Moola",
						"label": "_balances",
						"offset": 0,
						"slot": "51",
						"type": "t_mapping(t_address,t_uint256)"
					},
					{
						"astId": 460,
						"contract": "contracts/tokens/Moola.sol:Moola",
						"label": "_allowances",
						"offset": 0,
						"slot": "52",
						"type": "t_mapping(t_address,t_mapping(t_address,t_uint256))"
					},
					{
						"astId": 462,
						"contract": "contracts/tokens/Moola.sol:Moola",
						"label": "_totalSupply",
						"offset": 0,
						"slot": "53",
						"type": "t_uint256"
					},
					{
						"astId": 464,
						"contract": "contracts/tokens/Moola.sol:Moola",
						"label": "_name",
						"offset": 0,
						"slot": "54",
						"type": "t_string_storage"
					},
					{
						"astId": 466,
						"contract": "contracts/tokens/Moola.sol:Moola",
						"label": "_symbol",
						"offset": 0,
						"slot": "55",
						"type": "t_string_storage"
					},
					{
						"astId": 1045,
						"contract": "contracts/tokens/Moola.sol:Moola",
						"label": "__gap",
						"offset": 0,
						"slot": "56",
						"type": "t_array(t_uint256)45_storage"
					},
					{
						"astId": 10,
						"contract": "contracts/tokens/Moola.sol:Moola",
						"label": "_owner",
						"offset": 0,
						"slot": "101",
						"type": "t_address"
					},
					{
						"astId": 122,
						"contract": "contracts/tokens/Moola.sol:Moola",
						"label": "__gap",
						"offset": 0,
						"slot": "102",
						"type": "t_array(t_uint256)49_storage"
					},
					{
						"astId": 286,
						"contract": "contracts/tokens/Moola.sol:Moola",
						"label": "_paused",
						"offset": 0,
						"slot": "151",
						"type": "t_bool"
					},
					{
						"astId": 375,
						"contract": "contracts/tokens/Moola.sol:Moola",
						"label": "__gap",
						"offset": 0,
						"slot": "152",
						"type": "t_array(t_uint256)49_storage"
					},
					{
						"astId": 1651,
						"contract": "contracts/tokens/Moola.sol:Moola",
						"label": "dailyAllowance",
						"offset": 0,
						"slot": "201",
						"type": "t_uint256"
					},
					{
						"astId": 1653,
						"contract": "contracts/tokens/Moola.sol:Moola",
						"label": "cooldown",
						"offset": 0,
						"slot": "202",
						"type": "t_uint256"
					},
					{
						"astId": 1656,
						"contract": "contracts/tokens/Moola.sol:Moola",
						"label": "moolaNFT",
						"offset": 0,
						"slot": "203",
						"type": "t_contract(IERC721EnumerableUpgradeable)1296"
					},
					{
						"astId": 1660,
						"contract": "contracts/tokens/Moola.sol:Moola",
						"label": "whitelist",
						"offset": 0,
						"slot": "204",
						"type": "t_mapping(t_address,t_bool)"
					},
					{
						"astId": 1664,
						"contract": "contracts/tokens/Moola.sol:Moola",
						"label": "nftLastClaimed",
						"offset": 0,
						"slot": "205",
						"type": "t_mapping(t_uint256,t_uint256)"
					}
				],
				"types": {
					"t_address": {
						"encoding": "inplace",
						"label": "address",
						"numberOfBytes": "20"
					},
					"t_array(t_uint256)45_storage": {
						"base": "t_uint256",
						"encoding": "inplace",
						"label": "uint256[45]",
						"numberOfBytes": "1440"
					},
					"t_array(t_uint256)49_storage": {
						"base": "t_uint256",
						"encoding": "inplace",
						"label": "uint256[49]",
						"numberOfBytes": "1568"
					},
					"t_array(t_uint256)50_storage": {
						"base": "t_uint256",
						"encoding": "inplace",
						"label": "uint256[50]",
						"numberOfBytes": "1600"
					},
					"t_bool": {
						"encoding": "inplace",
						"label": "bool",
						"numberOfBytes": "1"
					},
					"t_contract(IERC721EnumerableUpgradeable)1296": {
						"encoding": "inplace",
						"label": "contract IERC721EnumerableUpgradeable",
						"numberOfBytes": "20"
					},
					"t_mapping(t_address,t_bool)": {
						"encoding": "mapping",
						"key": "t_address",
						"label": "mapping(address => bool)",
						"numberOfBytes": "32",
						"value": "t_bool"
					},
					"t_mapping(t_address,t_mapping(t_address,t_uint256))": {
						"encoding": "mapping",
						"key": "t_address",
						"label": "mapping(address => mapping(address => uint256))",
						"numberOfBytes": "32",
						"value": "t_mapping(t_address,t_uint256)"
					},
					"t_mapping(t_address,t_uint256)": {
						"encoding": "mapping",
						"key": "t_address",
						"label": "mapping(address => uint256)",
						"numberOfBytes": "32",
						"value": "t_uint256"
					},
					"t_mapping(t_uint256,t_uint256)": {
						"encoding": "mapping",
						"key": "t_uint256",
						"label": "mapping(uint256 => uint256)",
						"numberOfBytes": "32",
						"value": "t_uint256"
					},
					"t_string_storage": {
						"encoding": "bytes",
						"label": "string",
						"numberOfBytes": "32"
					},
					"t_uint256": {
						"encoding": "inplace",
						"label": "uint256",
						"numberOfBytes": "32"
					},
					"t_uint8": {
						"encoding": "inplace",
						"label": "uint8",
						"numberOfBytes": "1"
					}
				}
			},
			"userdoc": {
				"kind": "user",
				"methods": {
					"decimals()": {
						"notice": ":"
					},
					"mint(address,uint256)": {
						"notice": ":"
					}
				},
				"version": 1
			}
		}
	}
}