{
	"data": {
		"bytecode": {
			"linkReferences": {},
			"object": "608060405234801561001057600080fd5b506113c1806100206000396000f3fe608060405234801561001057600080fd5b50600436106101425760003560e01c806370a08231116100b8578063a457c2d71161007c578063a457c2d71461028f578063a9059cbb146102a2578063be023d84146102b5578063d1a20509146102c8578063dd62ed3e146102e8578063f2fde38b146102fb57600080fd5b806370a0823114610228578063715018a614610251578063854cff2f146102595780638da5cb5b1461026c57806395d89b411461028757600080fd5b8063395093511161010a57806339509351146101bc57806340c10f19146101cf5780634cd88b76146101e45780634fc3f41a146101f757806359176c8d1461020a5780635c975abb1461021d57600080fd5b806306fdde0314610147578063095ea7b31461016557806318160ddd1461018857806323b872dd1461019a578063313ce567146101ad575b600080fd5b61014f61030e565b60405161015c91906111bf565b60405180910390f35b61017861017336600461111b565b6103a0565b604051901515815260200161015c565b6035545b60405190815260200161015c565b6101786101a83660046110db565b6103b8565b6040516012815260200161015c565b6101786101ca36600461111b565b6103dc565b6101e26101dd36600461111b565b6103fe565b005b6101e26101f2366004611146565b610461565b6101e26102053660046111a7565b610505565b6101e26102183660046111a7565b610534565b60975460ff16610178565b61018c610236366004611064565b6001600160a01b031660009081526033602052604090205490565b6101e26106b1565b6101e2610267366004611064565b6106e7565b6065546040516001600160a01b03909116815260200161015c565b61014f610735565b61017861029d36600461111b565b610744565b6101786102b036600461111b565b6107bf565b6101e26102c3366004611064565b6107cd565b61018c6102d63660046111a7565b600090815260cd602052604090205490565b61018c6102f63660046110a3565b610819565b6101e2610309366004611064565b610844565b60606036805461031d9061130f565b80601f01602080910402602001604051908101604052809291908181526020018280546103499061130f565b80156103965780601f1061036b57610100808354040283529160200191610396565b820191906000526020600020905b81548152906001019060200180831161037957829003601f168201915b5050505050905090565b6000336103ae8185856108df565b5060019392505050565b6000336103c6858285610a03565b6103d1858585610a7d565b506001949350505050565b6000336103ae8185856103ef8383610819565b6103f991906112e0565b6108df565b33600090815260cc602052604090205460ff166104535760405162461bcd60e51b815260206004820152600e60248201526d13db9b1e481dda1a5d195b1a5cdd60921b60448201526064015b60405180910390fd5b61045d8282610c4b565b5050565b600061046d6001610d2a565b90508015610485576000805461ff0019166101001790555b61048f8383610db2565b610497610de3565b61049f610e12565b6104b5336b204fce5e3e25026110000000610c4b565b603c60ca558015610500576000805461ff0019169055604051600181527f7f26b83ff96e1f2b6a682f133852f6798a09c465da95921460cefb38474024989060200160405180910390a15b505050565b6065546001600160a01b0316331461052f5760405162461bcd60e51b815260040161044a90611260565b60ca55565b60cb546040516331a9108f60e11b81526004810183905233916001600160a01b031690636352211e9060240160206040518083038186803b15801561057857600080fd5b505afa15801561058c573d6000803e3d6000fd5b505050506040513d601f19601f820116820180604052508101906105b09190611087565b6001600160a01b0316146105f55760405162461bcd60e51b815260206004820152600c60248201526b15539055551213d49256915160a21b604482015260640161044a565b600081815260cd6020526040902054620151809061061390426112f8565b101561064f5760405162461bcd60e51b815260206004820152600b60248201526a27a71021a7a7a62227aba760a91b604482015260640161044a565b61065b3360c954610c4b565b600081815260cd6020908152604091829020429081905560c9548351338152928301528183015290517f8dce8756778b482ef8cfef8c65faadc506ce94e081bb6cc3a2d3448d99de9a509181900360600190a150565b6065546001600160a01b031633146106db5760405162461bcd60e51b815260040161044a90611260565b6106e56000610e41565b565b6065546001600160a01b031633146107115760405162461bcd60e51b815260040161044a90611260565b6001600160a01b0316600090815260cc60205260409020805460ff19166001179055565b60606037805461031d9061130f565b600033816107528286610819565b9050838110156107b25760405162461bcd60e51b815260206004820152602560248201527f45524332303a2064656372656173656420616c6c6f77616e63652062656c6f77604482015264207a65726f60d81b606482015260840161044a565b6103d182868684036108df565b6000336103ae818585610a7d565b6065546001600160a01b031633146107f75760405162461bcd60e51b815260040161044a90611260565b60cb80546001600160a01b0319166001600160a01b0392909216919091179055565b6001600160a01b03918216600090815260346020908152604080832093909416825291909152205490565b6065546001600160a01b0316331461086e5760405162461bcd60e51b815260040161044a90611260565b6001600160a01b0381166108d35760405162461bcd60e51b815260206004820152602660248201527f4f776e61626c653a206e6577206f776e657220697320746865207a65726f206160448201526564647265737360d01b606482015260840161044a565b6108dc81610e41565b50565b6001600160a01b0383166109415760405162461bcd60e51b8152602060048201526024808201527f45524332303a20617070726f76652066726f6d20746865207a65726f206164646044820152637265737360e01b606482015260840161044a565b6001600160a01b0382166109a25760405162461bcd60e51b815260206004820152602260248201527f45524332303a20617070726f766520746f20746865207a65726f206164647265604482015261737360f01b606482015260840161044a565b6001600160a01b0383811660008181526034602090815260408083209487168084529482529182902085905590518481527f8c5be1e5ebec7d5bd14f71427d1e84f3dd0314c0f7b2291e5b200ac8c7c3b925910160405180910390a3505050565b6000610a0f8484610819565b90506000198114610a775781811015610a6a5760405162461bcd60e51b815260206004820152601d60248201527f45524332303a20696e73756666696369656e7420616c6c6f77616e6365000000604482015260640161044a565b610a7784848484036108df565b50505050565b6001600160a01b038316610ae15760405162461bcd60e51b815260206004820152602560248201527f45524332303a207472616e736665722066726f6d20746865207a65726f206164604482015264647265737360d81b606482015260840161044a565b6001600160a01b038216610b435760405162461bcd60e51b815260206004820152602360248201527f45524332303a207472616e7366657220746f20746865207a65726f206164647260448201526265737360e81b606482015260840161044a565b6001600160a01b03831660009081526033602052604090205481811015610bbb5760405162461bcd60e51b815260206004820152602660248201527f45524332303a207472616e7366657220616d6f756e7420657863656564732062604482015265616c616e636560d01b606482015260840161044a565b6001600160a01b03808516600090815260336020526040808220858503905591851681529081208054849290610bf29084906112e0565b92505081905550826001600160a01b0316846001600160a01b03167fddf252ad1be2c89b69c2b068fc378daa952ba7f163c4a11628f55a4df523b3ef84604051610c3e91815260200190565b60405180910390a3610a77565b6001600160a01b038216610ca15760405162461bcd60e51b815260206004820152601f60248201527f45524332303a206d696e7420746f20746865207a65726f206164647265737300604482015260640161044a565b8060356000828254610cb391906112e0565b90915550506001600160a01b03821660009081526033602052604081208054839290610ce09084906112e0565b90915550506040518181526001600160a01b038316906000907fddf252ad1be2c89b69c2b068fc378daa952ba7f163c4a11628f55a4df523b3ef9060200160405180910390a35050565b60008054610100900460ff1615610d71578160ff166001148015610d4d5750303b155b610d695760405162461bcd60e51b815260040161044a90611212565b506000919050565b60005460ff808416911610610d985760405162461bcd60e51b815260040161044a90611212565b506000805460ff191660ff92909216919091179055600190565b600054610100900460ff16610dd95760405162461bcd60e51b815260040161044a90611295565b61045d8282610e93565b600054610100900460ff16610e0a5760405162461bcd60e51b815260040161044a90611295565b6106e5610ee1565b600054610100900460ff16610e395760405162461bcd60e51b815260040161044a90611295565b6106e5610f11565b606580546001600160a01b038381166001600160a01b0319831681179093556040519116919082907f8be0079c531659141344cd1fd0a4f28419497f9722a3daafe3b4186f6b6457e090600090a35050565b600054610100900460ff16610eba5760405162461bcd60e51b815260040161044a90611295565b8151610ecd906036906020850190610f44565b508051610500906037906020840190610f44565b600054610100900460ff16610f085760405162461bcd60e51b815260040161044a90611295565b6106e533610e41565b600054610100900460ff16610f385760405162461bcd60e51b815260040161044a90611295565b6097805460ff19169055565b828054610f509061130f565b90600052602060002090601f016020900481019282610f725760008555610fb8565b82601f10610f8b57805160ff1916838001178555610fb8565b82800160010185558215610fb8579182015b82811115610fb8578251825591602001919060010190610f9d565b50610fc4929150610fc8565b5090565b5b80821115610fc45760008155600101610fc9565b600082601f830112610fed578081fd5b813567ffffffffffffffff8082111561100857611008611360565b604051601f8301601f19908116603f0116810190828211818310171561103057611030611360565b81604052838152866020858801011115611048578485fd5b8360208701602083013792830160200193909352509392505050565b600060208284031215611075578081fd5b813561108081611376565b9392505050565b600060208284031215611098578081fd5b815161108081611376565b600080604083850312156110b5578081fd5b82356110c081611376565b915060208301356110d081611376565b809150509250929050565b6000806000606084860312156110ef578081fd5b83356110fa81611376565b9250602084013561110a81611376565b929592945050506040919091013590565b6000806040838503121561112d578182fd5b823561113881611376565b946020939093013593505050565b60008060408385031215611158578182fd5b823567ffffffffffffffff8082111561116f578384fd5b61117b86838701610fdd565b93506020850135915080821115611190578283fd5b5061119d85828601610fdd565b9150509250929050565b6000602082840312156111b8578081fd5b5035919050565b6000602080835283518082850152825b818110156111eb578581018301518582016040015282016111cf565b818111156111fc5783604083870101525b50601f01601f1916929092016040019392505050565b6020808252602e908201527f496e697469616c697a61626c653a20636f6e747261637420697320616c72656160408201526d191e481a5b9a5d1a585b1a5e995960921b606082015260800190565b6020808252818101527f4f776e61626c653a2063616c6c6572206973206e6f7420746865206f776e6572604082015260600190565b6020808252602b908201527f496e697469616c697a61626c653a20636f6e7472616374206973206e6f74206960408201526a6e697469616c697a696e6760a81b606082015260800190565b600082198211156112f3576112f361134a565b500190565b60008282101561130a5761130a61134a565b500390565b600181811c9082168061132357607f821691505b6020821081141561134457634e487b7160e01b600052602260045260246000fd5b50919050565b634e487b7160e01b600052601160045260246000fd5b634e487b7160e01b600052604160045260246000fd5b6001600160a01b03811681146108dc57600080fdfea26469706673582212205862b08996d209c1fc6a0ee03bcc43640577bace9ae5e15c2b1eb96030b1a37464736f6c63430008040033",
			"opcodes": "PUSH1 0x80 PUSH1 0x40 MSTORE CALLVALUE DUP1 ISZERO PUSH2 0x10 JUMPI PUSH1 0x0 DUP1 REVERT JUMPDEST POP PUSH2 0x13C1 DUP1 PUSH2 0x20 PUSH1 0x0 CODECOPY PUSH1 0x0 RETURN INVALID PUSH1 0x80 PUSH1 0x40 MSTORE CALLVALUE DUP1 ISZERO PUSH2 0x10 JUMPI PUSH1 0x0 DUP1 REVERT JUMPDEST POP PUSH1 0x4 CALLDATASIZE LT PUSH2 0x142 JUMPI PUSH1 0x0 CALLDATALOAD PUSH1 0xE0 SHR DUP1 PUSH4 0x70A08231 GT PUSH2 0xB8 JUMPI DUP1 PUSH4 0xA457C2D7 GT PUSH2 0x7C JUMPI DUP1 PUSH4 0xA457C2D7 EQ PUSH2 0x28F JUMPI DUP1 PUSH4 0xA9059CBB EQ PUSH2 0x2A2 JUMPI DUP1 PUSH4 0xBE023D84 EQ PUSH2 0x2B5 JUMPI DUP1 PUSH4 0xD1A20509 EQ PUSH2 0x2C8 JUMPI DUP1 PUSH4 0xDD62ED3E EQ PUSH2 0x2E8 JUMPI DUP1 PUSH4 0xF2FDE38B EQ PUSH2 0x2FB JUMPI PUSH1 0x0 DUP1 REVERT JUMPDEST DUP1 PUSH4 0x70A08231 EQ PUSH2 0x228 JUMPI DUP1 PUSH4 0x715018A6 EQ PUSH2 0x251 JUMPI DUP1 PUSH4 0x854CFF2F EQ PUSH2 0x259 JUMPI DUP1 PUSH4 0x8DA5CB5B EQ PUSH2 0x26C JUMPI DUP1 PUSH4 0x95D89B41 EQ PUSH2 0x287 JUMPI PUSH1 0x0 DUP1 REVERT JUMPDEST DUP1 PUSH4 0x39509351 GT PUSH2 0x10A JUMPI DUP1 PUSH4 0x39509351 EQ PUSH2 0x1BC JUMPI DUP1 PUSH4 0x40C10F19 EQ PUSH2 0x1CF JUMPI DUP1 PUSH4 0x4CD88B76 EQ PUSH2 0x1E4 JUMPI DUP1 PUSH4 0x4FC3F41A EQ PUSH2 0x1F7 JUMPI DUP1 PUSH4 0x59176C8D EQ PUSH2 0x20A JUMPI DUP1 PUSH4 0x5C975ABB EQ PUSH2 0x21D JUMPI PUSH1 0x0 DUP1 REVERT JUMPDEST DUP1 PUSH4 0x6FDDE03 EQ PUSH2 0x147 JUMPI DUP1 PUSH4 0x95EA7B3 EQ PUSH2 0x165 JUMPI DUP1 PUSH4 0x18160DDD EQ PUSH2 0x188 JUMPI DUP1 PUSH4 0x23B872DD EQ PUSH2 0x19A JUMPI DUP1 PUSH4 0x313CE567 EQ PUSH2 0x1AD JUMPI JUMPDEST PUSH1 0x0 DUP1 REVERT JUMPDEST PUSH2 0x14F PUSH2 0x30E JUMP JUMPDEST PUSH1 0x40 MLOAD PUSH2 0x15C SWAP2 SWAP1 PUSH2 0x11BF JUMP JUMPDEST PUSH1 0x40 MLOAD DUP1 SWAP2 SUB SWAP1 RETURN JUMPDEST PUSH2 0x178 PUSH2 0x173 CALLDATASIZE PUSH1 0x4 PUSH2 0x111B JUMP JUMPDEST PUSH2 0x3A0 JUMP JUMPDEST PUSH1 0x40 MLOAD SWAP1 ISZERO ISZERO DUP2 MSTORE PUSH1 0x20 ADD PUSH2 0x15C JUMP JUMPDEST PUSH1 0x35 SLOAD JUMPDEST PUSH1 0x40 MLOAD SWAP1 DUP2 MSTORE PUSH1 0x20 ADD PUSH2 0x15C JUMP JUMPDEST PUSH2 0x178 PUSH2 0x1A8 CALLDATASIZE PUSH1 0x4 PUSH2 0x10DB JUMP JUMPDEST PUSH2 0x3B8 JUMP JUMPDEST PUSH1 0x40 MLOAD PUSH1 0x12 DUP2 MSTORE PUSH1 0x20 ADD PUSH2 0x15C JUMP JUMPDEST PUSH2 0x178 PUSH2 0x1CA CALLDATASIZE PUSH1 0x4 PUSH2 0x111B JUMP JUMPDEST PUSH2 0x3DC JUMP JUMPDEST PUSH2 0x1E2 PUSH2 0x1DD CALLDATASIZE PUSH1 0x4 PUSH2 0x111B JUMP JUMPDEST PUSH2 0x3FE JUMP JUMPDEST STOP JUMPDEST PUSH2 0x1E2 PUSH2 0x1F2 CALLDATASIZE PUSH1 0x4 PUSH2 0x1146 JUMP JUMPDEST PUSH2 0x461 JUMP JUMPDEST PUSH2 0x1E2 PUSH2 0x205 CALLDATASIZE PUSH1 0x4 PUSH2 0x11A7 JUMP JUMPDEST PUSH2 0x505 JUMP JUMPDEST PUSH2 0x1E2 PUSH2 0x218 CALLDATASIZE PUSH1 0x4 PUSH2 0x11A7 JUMP JUMPDEST PUSH2 0x534 JUMP JUMPDEST PUSH1 0x97 SLOAD PUSH1 0xFF AND PUSH2 0x178 JUMP JUMPDEST PUSH2 0x18C PUSH2 0x236 CALLDATASIZE PUSH1 0x4 PUSH2 0x1064 JUMP JUMPDEST PUSH1 0x1 PUSH1 0x1 PUSH1 0xA0 SHL SUB AND PUSH1 0x0 SWAP1 DUP2 MSTORE PUSH1 0x33 PUSH1 0x20 MSTORE PUSH1 0x40 SWAP1 KECCAK256 SLOAD SWAP1 JUMP JUMPDEST PUSH2 0x1E2 PUSH2 0x6B1 JUMP JUMPDEST PUSH2 0x1E2 PUSH2 0x267 CALLDATASIZE PUSH1 0x4 PUSH2 0x1064 JUMP JUMPDEST PUSH2 0x6E7 JUMP JUMPDEST PUSH1 0x65 SLOAD PUSH1 0x40 MLOAD PUSH1 0x1 PUSH1 0x1 PUSH1 0xA0 SHL SUB SWAP1 SWAP2 AND DUP2 MSTORE PUSH1 0x20 ADD PUSH2 0x15C JUMP JUMPDEST PUSH2 0x14F PUSH2 0x735 JUMP JUMPDEST PUSH2 0x178 PUSH2 0x29D CALLDATASIZE PUSH1 0x4 PUSH2 0x111B JUMP JUMPDEST PUSH2 0x744 JUMP JUMPDEST PUSH2 0x178 PUSH2 0x2B0 CALLDATASIZE PUSH1 0x4 PUSH2 0x111B JUMP JUMPDEST PUSH2 0x7BF JUMP JUMPDEST PUSH2 0x1E2 PUSH2 0x2C3 CALLDATASIZE PUSH1 0x4 PUSH2 0x1064 JUMP JUMPDEST PUSH2 0x7CD JUMP JUMPDEST PUSH2 0x18C PUSH2 0x2D6 CALLDATASIZE PUSH1 0x4 PUSH2 0x11A7 JUMP JUMPDEST PUSH1 0x0 SWAP1 DUP2 MSTORE PUSH1 0xCD PUSH1 0x20 MSTORE PUSH1 0x40 SWAP1 KECCAK256 SLOAD SWAP1 JUMP JUMPDEST PUSH2 0x18C PUSH2 0x2F6 CALLDATASIZE PUSH1 0x4 PUSH2 0x10A3 JUMP JUMPDEST PUSH2 0x819 JUMP JUMPDEST PUSH2 0x1E2 PUSH2 0x309 CALLDATASIZE PUSH1 0x4 PUSH2 0x1064 JUMP JUMPDEST PUSH2 0x844 JUMP JUMPDEST PUSH1 0x60 PUSH1 0x36 DUP1 SLOAD PUSH2 0x31D SWAP1 PUSH2 0x130F JUMP JUMPDEST DUP1 PUSH1 0x1F ADD PUSH1 0x20 DUP1 SWAP2 DIV MUL PUSH1 0x20 ADD PUSH1 0x40 MLOAD SWAP1 DUP2 ADD PUSH1 0x40 MSTORE DUP1 SWAP3 SWAP2 SWAP1 DUP2 DUP2 MSTORE PUSH1 0x20 ADD DUP3 DUP1 SLOAD PUSH2 0x349 SWAP1 PUSH2 0x130F JUMP JUMPDEST DUP1 ISZERO PUSH2 0x396 JUMPI DUP1 PUSH1 0x1F LT PUSH2 0x36B JUMPI PUSH2 0x100 DUP1 DUP4 SLOAD DIV MUL DUP4 MSTORE SWAP2 PUSH1 0x20 ADD SWAP2 PUSH2 0x396 JUMP JUMPDEST DUP3 ADD SWAP2 SWAP1 PUSH1 0x0 MSTORE PUSH1 0x20 PUSH1 0x0 KECCAK256 SWAP1 JUMPDEST DUP2 SLOAD DUP2 MSTORE SWAP1 PUSH1 0x1 ADD SWAP1 PUSH1 0x20 ADD DUP1 DUP4 GT PUSH2 0x379 JUMPI DUP3 SWAP1 SUB PUSH1 0x1F AND DUP3 ADD SWAP2 JUMPDEST POP POP POP POP POP SWAP1 POP SWAP1 JUMP JUMPDEST PUSH1 0x0 CALLER PUSH2 0x3AE DUP2 DUP6 DUP6 PUSH2 0x8DF JUMP JUMPDEST POP PUSH1 0x1 SWAP4 SWAP3 POP POP POP JUMP JUMPDEST PUSH1 0x0 CALLER PUSH2 0x3C6 DUP6 DUP3 DUP6 PUSH2 0xA03 JUMP JUMPDEST PUSH2 0x3D1 DUP6 DUP6 DUP6 PUSH2 0xA7D JUMP JUMPDEST POP PUSH1 0x1 SWAP5 SWAP4 POP POP POP POP JUMP JUMPDEST PUSH1 0x0 CALLER PUSH2 0x3AE DUP2 DUP6 DUP6 PUSH2 0x3EF DUP4 DUP4 PUSH2 0x819 JUMP JUMPDEST PUSH2 0x3F9 SWAP2 SWAP1 PUSH2 0x12E0 JUMP JUMPDEST PUSH2 0x8DF JUMP JUMPDEST CALLER PUSH1 0x0 SWAP1 DUP2 MSTORE PUSH1 0xCC PUSH1 0x20 MSTORE PUSH1 0x40 SWAP1 KECCAK256 SLOAD PUSH1 0xFF AND PUSH2 0x453 JUMPI PUSH1 0x40 MLOAD PUSH3 0x461BCD PUSH1 0xE5 SHL DUP2 MSTORE PUSH1 0x20 PUSH1 0x4 DUP3 ADD MSTORE PUSH1 0xE PUSH1 0x24 DUP3 ADD MSTORE PUSH14 0x13DB9B1E481DDA1A5D195B1A5CDD PUSH1 0x92 SHL PUSH1 0x44 DUP3 ADD MSTORE PUSH1 0x64 ADD JUMPDEST PUSH1 0x40 MLOAD DUP1 SWAP2 SUB SWAP1 REVERT JUMPDEST PUSH2 0x45D DUP3 DUP3 PUSH2 0xC4B JUMP JUMPDEST POP POP JUMP JUMPDEST PUSH1 0x0 PUSH2 0x46D PUSH1 0x1 PUSH2 0xD2A JUMP JUMPDEST SWAP1 POP DUP1 ISZERO PUSH2 0x485 JUMPI PUSH1 0x0 DUP1 SLOAD PUSH2 0xFF00 NOT AND PUSH2 0x100 OR SWAP1 SSTORE JUMPDEST PUSH2 0x48F DUP4 DUP4 PUSH2 0xDB2 JUMP JUMPDEST PUSH2 0x497 PUSH2 0xDE3 JUMP JUMPDEST PUSH2 0x49F PUSH2 0xE12 JUMP JUMPDEST PUSH2 0x4B5 CALLER PUSH12 0x204FCE5E3E25026110000000 PUSH2 0xC4B JUMP JUMPDEST PUSH1 0x3C PUSH1 0xCA SSTORE DUP1 ISZERO PUSH2 0x500 JUMPI PUSH1 0x0 DUP1 SLOAD PUSH2 0xFF00 NOT AND SWAP1 SSTORE PUSH1 0x40 MLOAD PUSH1 0x1 DUP2 MSTORE PUSH32 0x7F26B83FF96E1F2B6A682F133852F6798A09C465DA95921460CEFB3847402498 SWAP1 PUSH1 0x20 ADD PUSH1 0x40 MLOAD DUP1 SWAP2 SUB SWAP1 LOG1 JUMPDEST POP POP POP JUMP JUMPDEST PUSH1 0x65 SLOAD PUSH1 0x1 PUSH1 0x1 PUSH1 0xA0 SHL SUB AND CALLER EQ PUSH2 0x52F JUMPI PUSH1 0x40 MLOAD PUSH3 0x461BCD PUSH1 0xE5 SHL DUP2 MSTORE PUSH1 0x4 ADD PUSH2 0x44A SWAP1 PUSH2 0x1260 JUMP JUMPDEST PUSH1 0xCA SSTORE JUMP JUMPDEST PUSH1 0xCB SLOAD PUSH1 0x40 MLOAD PUSH4 0x31A9108F PUSH1 0xE1 SHL DUP2 MSTORE PUSH1 0x4 DUP2 ADD DUP4 SWAP1 MSTORE CALLER SWAP2 PUSH1 0x1 PUSH1 0x1 PUSH1 0xA0 SHL SUB AND SWAP1 PUSH4 0x6352211E SWAP1 PUSH1 0x24 ADD PUSH1 0x20 PUSH1 0x40 MLOAD DUP1 DUP4 SUB DUP2 DUP7 DUP1 EXTCODESIZE ISZERO DUP1 ISZERO PUSH2 0x578 JUMPI PUSH1 0x0 DUP1 REVERT JUMPDEST POP GAS STATICCALL ISZERO DUP1 ISZERO PUSH2 0x58C JUMPI RETURNDATASIZE PUSH1 0x0 DUP1 RETURNDATACOPY RETURNDATASIZE PUSH1 0x0 REVERT JUMPDEST POP POP POP POP PUSH1 0x40 MLOAD RETURNDATASIZE PUSH1 0x1F NOT PUSH1 0x1F DUP3 ADD AND DUP3 ADD DUP1 PUSH1 0x40 MSTORE POP DUP2 ADD SWAP1 PUSH2 0x5B0 SWAP2 SWAP1 PUSH2 0x1087 JUMP JUMPDEST PUSH1 0x1 PUSH1 0x1 PUSH1 0xA0 SHL SUB AND EQ PUSH2 0x5F5 JUMPI PUSH1 0x40 MLOAD PUSH3 0x461BCD PUSH1 0xE5 SHL DUP2 MSTORE PUSH1 0x20 PUSH1 0x4 DUP3 ADD MSTORE PUSH1 0xC PUSH1 0x24 DUP3 ADD MSTORE PUSH12 0x15539055551213D492569151 PUSH1 0xA2 SHL PUSH1 0x44 DUP3 ADD MSTORE PUSH1 0x64 ADD PUSH2 0x44A JUMP JUMPDEST PUSH1 0x0 DUP2 DUP2 MSTORE PUSH1 0xCD PUSH1 0x20 MSTORE PUSH1 0x40 SWAP1 KECCAK256 SLOAD PUSH3 0x15180 SWAP1 PUSH2 0x613 SWAP1 TIMESTAMP PUSH2 0x12F8 JUMP JUMPDEST LT ISZERO PUSH2 0x64F JUMPI PUSH1 0x40 MLOAD PUSH3 0x461BCD PUSH1 0xE5 SHL DUP2 MSTORE PUSH1 0x20 PUSH1 0x4 DUP3 ADD MSTORE PUSH1 0xB PUSH1 0x24 DUP3 ADD MSTORE PUSH11 0x27A71021A7A7A62227ABA7 PUSH1 0xA9 SHL PUSH1 0x44 DUP3 ADD MSTORE PUSH1 0x64 ADD PUSH2 0x44A JUMP JUMPDEST PUSH2 0x65B CALLER PUSH1 0xC9 SLOAD PUSH2 0xC4B JUMP JUMPDEST PUSH1 0x0 DUP2 DUP2 MSTORE PUSH1 0xCD PUSH1 0x20 SWAP1 DUP2 MSTORE PUSH1 0x40 SWAP2 DUP3 SWAP1 KECCAK256 TIMESTAMP SWAP1 DUP2 SWAP1 SSTORE PUSH1 0xC9 SLOAD DUP4 MLOAD CALLER DUP2 MSTORE SWAP3 DUP4 ADD MSTORE DUP2 DUP4 ADD MSTORE SWAP1 MLOAD PUSH32 0x8DCE8756778B482EF8CFEF8C65FAADC506CE94E081BB6CC3A2D3448D99DE9A50 SWAP2 DUP2 SWAP1 SUB PUSH1 0x60 ADD SWAP1 LOG1 POP JUMP JUMPDEST PUSH1 0x65 SLOAD PUSH1 0x1 PUSH1 0x1 PUSH1 0xA0 SHL SUB AND CALLER EQ PUSH2 0x6DB JUMPI PUSH1 0x40 MLOAD PUSH3 0x461BCD PUSH1 0xE5 SHL DUP2 MSTORE PUSH1 0x4 ADD PUSH2 0x44A SWAP1 PUSH2 0x1260 JUMP JUMPDEST PUSH2 0x6E5 PUSH1 0x0 PUSH2 0xE41 JUMP JUMPDEST JUMP JUMPDEST PUSH1 0x65 SLOAD PUSH1 0x1 PUSH1 0x1 PUSH1 0xA0 SHL SUB AND CALLER EQ PUSH2 0x711 JUMPI PUSH1 0x40 MLOAD PUSH3 0x461BCD PUSH1 0xE5 SHL DUP2 MSTORE PUSH1 0x4 ADD PUSH2 0x44A SWAP1 PUSH2 0x1260 JUMP JUMPDEST PUSH1 0x1 PUSH1 0x1 PUSH1 0xA0 SHL SUB AND PUSH1 0x0 SWAP1 DUP2 MSTORE PUSH1 0xCC PUSH1 0x20 MSTORE PUSH1 0x40 SWAP1 KECCAK256 DUP1 SLOAD PUSH1 0xFF NOT AND PUSH1 0x1 OR SWAP1 SSTORE JUMP JUMPDEST PUSH1 0x60 PUSH1 0x37 DUP1 SLOAD PUSH2 0x31D SWAP1 PUSH2 0x130F JUMP JUMPDEST PUSH1 0x0 CALLER DUP2 PUSH2 0x752 DUP3 DUP7 PUSH2 0x819 JUMP JUMPDEST SWAP1 POP DUP4 DUP2 LT ISZERO PUSH2 0x7B2 JUMPI PUSH1 0x40 MLOAD PUSH3 0x461BCD PUSH1 0xE5 SHL DUP2 MSTORE PUSH1 0x20 PUSH1 0x4 DUP3 ADD MSTORE PUSH1 0x25 PUSH1 0x24 DUP3 ADD MSTORE PUSH32 0x45524332303A2064656372656173656420616C6C6F77616E63652062656C6F77 PUSH1 0x44 DUP3 ADD MSTORE PUSH5 0x207A65726F PUSH1 0xD8 SHL PUSH1 0x64 DUP3 ADD MSTORE PUSH1 0x84 ADD PUSH2 0x44A JUMP JUMPDEST PUSH2 0x3D1 DUP3 DUP7 DUP7 DUP5 SUB PUSH2 0x8DF JUMP JUMPDEST PUSH1 0x0 CALLER PUSH2 0x3AE DUP2 DUP6 DUP6 PUSH2 0xA7D JUMP JUMPDEST PUSH1 0x65 SLOAD PUSH1 0x1 PUSH1 0x1 PUSH1 0xA0 SHL SUB AND CALLER EQ PUSH2 0x7F7 JUMPI PUSH1 0x40 MLOAD PUSH3 0x461BCD PUSH1 0xE5 SHL DUP2 MSTORE PUSH1 0x4 ADD PUSH2 0x44A SWAP1 PUSH2 0x1260 JUMP JUMPDEST PUSH1 0xCB DUP1 SLOAD PUSH1 0x1 PUSH1 0x1 PUSH1 0xA0 SHL SUB NOT AND PUSH1 0x1 PUSH1 0x1 PUSH1 0xA0 SHL SUB SWAP3 SWAP1 SWAP3 AND SWAP2 SWAP1 SWAP2 OR SWAP1 SSTORE JUMP JUMPDEST PUSH1 0x1 PUSH1 0x1 PUSH1 0xA0 SHL SUB SWAP2 DUP3 AND PUSH1 0x0 SWAP1 DUP2 MSTORE PUSH1 0x34 PUSH1 0x20 SWAP1 DUP2 MSTORE PUSH1 0x40 DUP1 DUP4 KECCAK256 SWAP4 SWAP1 SWAP5 AND DUP3 MSTORE SWAP2 SWAP1 SWAP2 MSTORE KECCAK256 SLOAD SWAP1 JUMP JUMPDEST PUSH1 0x65 SLOAD PUSH1 0x1 PUSH1 0x1 PUSH1 0xA0 SHL SUB AND CALLER EQ PUSH2 0x86E JUMPI PUSH1 0x40 MLOAD PUSH3 0x461BCD PUSH1 0xE5 SHL DUP2 MSTORE PUSH1 0x4 ADD PUSH2 0x44A SWAP1 PUSH2 0x1260 JUMP JUMPDEST PUSH1 0x1 PUSH1 0x1 PUSH1 0xA0 SHL SUB DUP2 AND PUSH2 0x8D3 JUMPI PUSH1 0x40 MLOAD PUSH3 0x461BCD PUSH1 0xE5 SHL DUP2 MSTORE PUSH1 0x20 PUSH1 0x4 DUP3 ADD MSTORE PUSH1 0x26 PUSH1 0x24 DUP3 ADD MSTORE PUSH32 0x4F776E61626C653A206E6577206F776E657220697320746865207A65726F2061 PUSH1 0x44 DUP3 ADD MSTORE PUSH6 0x646472657373 PUSH1 0xD0 SHL PUSH1 0x64 DUP3 ADD MSTORE PUSH1 0x84 ADD PUSH2 0x44A JUMP JUMPDEST PUSH2 0x8DC DUP2 PUSH2 0xE41 JUMP JUMPDEST POP JUMP JUMPDEST PUSH1 0x1 PUSH1 0x1 PUSH1 0xA0 SHL SUB DUP4 AND PUSH2 0x941 JUMPI PUSH1 0x40 MLOAD PUSH3 0x461BCD PUSH1 0xE5 SHL DUP2 MSTORE PUSH1 0x20 PUSH1 0x4 DUP3 ADD MSTORE PUSH1 0x24 DUP1 DUP3 ADD MSTORE PUSH32 0x45524332303A20617070726F76652066726F6D20746865207A65726F20616464 PUSH1 0x44 DUP3 ADD MSTORE PUSH4 0x72657373 PUSH1 0xE0 SHL PUSH1 0x64 DUP3 ADD MSTORE PUSH1 0x84 ADD PUSH2 0x44A JUMP JUMPDEST PUSH1 0x1 PUSH1 0x1 PUSH1 0xA0 SHL SUB DUP3 AND PUSH2 0x9A2 JUMPI PUSH1 0x40 MLOAD PUSH3 0x461BCD PUSH1 0xE5 SHL DUP2 MSTORE PUSH1 0x20 PUSH1 0x4 DUP3 ADD MSTORE PUSH1 0x22 PUSH1 0x24 DUP3 ADD MSTORE PUSH32 0x45524332303A20617070726F766520746F20746865207A65726F206164647265 PUSH1 0x44 DUP3 ADD MSTORE PUSH2 0x7373 PUSH1 0xF0 SHL PUSH1 0x64 DUP3 ADD MSTORE PUSH1 0x84 ADD PUSH2 0x44A JUMP JUMPDEST PUSH1 0x1 PUSH1 0x1 PUSH1 0xA0 SHL SUB DUP4 DUP2 AND PUSH1 0x0 DUP2 DUP2 MSTORE PUSH1 0x34 PUSH1 0x20 SWAP1 DUP2 MSTORE PUSH1 0x40 DUP1 DUP4 KECCAK256 SWAP5 DUP8 AND DUP1 DUP5 MSTORE SWAP5 DUP3 MSTORE SWAP2 DUP3 SWAP1 KECCAK256 DUP6 SWAP1 SSTORE SWAP1 MLOAD DUP5 DUP2 MSTORE PUSH32 0x8C5BE1E5EBEC7D5BD14F71427D1E84F3DD0314C0F7B2291E5B200AC8C7C3B925 SWAP2 ADD PUSH1 0x40 MLOAD DUP1 SWAP2 SUB SWAP1 LOG3 POP POP POP JUMP JUMPDEST PUSH1 0x0 PUSH2 0xA0F DUP5 DUP5 PUSH2 0x819 JUMP JUMPDEST SWAP1 POP PUSH1 0x0 NOT DUP2 EQ PUSH2 0xA77 JUMPI DUP2 DUP2 LT ISZERO PUSH2 0xA6A JUMPI PUSH1 0x40 MLOAD PUSH3 0x461BCD PUSH1 0xE5 SHL DUP2 MSTORE PUSH1 0x20 PUSH1 0x4 DUP3 ADD MSTORE PUSH1 0x1D PUSH1 0x24 DUP3 ADD MSTORE PUSH32 0x45524332303A20696E73756666696369656E7420616C6C6F77616E6365000000 PUSH1 0x44 DUP3 ADD MSTORE PUSH1 0x64 ADD PUSH2 0x44A JUMP JUMPDEST PUSH2 0xA77 DUP5 DUP5 DUP5 DUP5 SUB PUSH2 0x8DF JUMP JUMPDEST POP POP POP POP JUMP JUMPDEST PUSH1 0x1 PUSH1 0x1 PUSH1 0xA0 SHL SUB DUP4 AND PUSH2 0xAE1 JUMPI PUSH1 0x40 MLOAD PUSH3 0x461BCD PUSH1 0xE5 SHL DUP2 MSTORE PUSH1 0x20 PUSH1 0x4 DUP3 ADD MSTORE PUSH1 0x25 PUSH1 0x24 DUP3 ADD MSTORE PUSH32 0x45524332303A207472616E736665722066726F6D20746865207A65726F206164 PUSH1 0x44 DUP3 ADD MSTORE PUSH5 0x6472657373 PUSH1 0xD8 SHL PUSH1 0x64 DUP3 ADD MSTORE PUSH1 0x84 ADD PUSH2 0x44A JUMP JUMPDEST PUSH1 0x1 PUSH1 0x1 PUSH1 0xA0 SHL SUB DUP3 AND PUSH2 0xB43 JUMPI PUSH1 0x40 MLOAD PUSH3 0x461BCD PUSH1 0xE5 SHL DUP2 MSTORE PUSH1 0x20 PUSH1 0x4 DUP3 ADD MSTORE PUSH1 0x23 PUSH1 0x24 DUP3 ADD MSTORE PUSH32 0x45524332303A207472616E7366657220746F20746865207A65726F2061646472 PUSH1 0x44 DUP3 ADD MSTORE PUSH3 0x657373 PUSH1 0xE8 SHL PUSH1 0x64 DUP3 ADD MSTORE PUSH1 0x84 ADD PUSH2 0x44A JUMP JUMPDEST PUSH1 0x1 PUSH1 0x1 PUSH1 0xA0 SHL SUB DUP4 AND PUSH1 0x0 SWAP1 DUP2 MSTORE PUSH1 0x33 PUSH1 0x20 MSTORE PUSH1 0x40 SWAP1 KECCAK256 SLOAD DUP2 DUP2 LT ISZERO PUSH2 0xBBB JUMPI PUSH1 0x40 MLOAD PUSH3 0x461BCD PUSH1 0xE5 SHL DUP2 MSTORE PUSH1 0x20 PUSH1 0x4 DUP3 ADD MSTORE PUSH1 0x26 PUSH1 0x24 DUP3 ADD MSTORE PUSH32 0x45524332303A207472616E7366657220616D6F756E7420657863656564732062 PUSH1 0x44 DUP3 ADD MSTORE PUSH6 0x616C616E6365 PUSH1 0xD0 SHL PUSH1 0x64 DUP3 ADD MSTORE PUSH1 0x84 ADD PUSH2 0x44A JUMP JUMPDEST PUSH1 0x1 PUSH1 0x1 PUSH1 0xA0 SHL SUB DUP1 DUP6 AND PUSH1 0x0 SWAP1 DUP2 MSTORE PUSH1 0x33 PUSH1 0x20 MSTORE PUSH1 0x40 DUP1 DUP3 KECCAK256 DUP6 DUP6 SUB SWAP1 SSTORE SWAP2 DUP6 AND DUP2 MSTORE SWAP1 DUP2 KECCAK256 DUP1 SLOAD DUP5 SWAP3 SWAP1 PUSH2 0xBF2 SWAP1 DUP5 SWAP1 PUSH2 0x12E0 JUMP JUMPDEST SWAP3 POP POP DUP2 SWAP1 SSTORE POP DUP3 PUSH1 0x1 PUSH1 0x1 PUSH1 0xA0 SHL SUB AND DUP5 PUSH1 0x1 PUSH1 0x1 PUSH1 0xA0 SHL SUB AND PUSH32 0xDDF252AD1BE2C89B69C2B068FC378DAA952BA7F163C4A11628F55A4DF523B3EF DUP5 PUSH1 0x40 MLOAD PUSH2 0xC3E SWAP2 DUP2 MSTORE PUSH1 0x20 ADD SWAP1 JUMP JUMPDEST PUSH1 0x40 MLOAD DUP1 SWAP2 SUB SWAP1 LOG3 PUSH2 0xA77 JUMP JUMPDEST PUSH1 0x1 PUSH1 0x1 PUSH1 0xA0 SHL SUB DUP3 AND PUSH2 0xCA1 JUMPI PUSH1 0x40 MLOAD PUSH3 0x461BCD PUSH1 0xE5 SHL DUP2 MSTORE PUSH1 0x20 PUSH1 0x4 DUP3 ADD MSTORE PUSH1 0x1F PUSH1 0x24 DUP3 ADD MSTORE PUSH32 0x45524332303A206D696E7420746F20746865207A65726F206164647265737300 PUSH1 0x44 DUP3 ADD MSTORE PUSH1 0x64 ADD PUSH2 0x44A JUMP JUMPDEST DUP1 PUSH1 0x35 PUSH1 0x0 DUP3 DUP3 SLOAD PUSH2 0xCB3 SWAP2 SWAP1 PUSH2 0x12E0 JUMP JUMPDEST SWAP1 SWAP2 SSTORE POP POP PUSH1 0x1 PUSH1 0x1 PUSH1 0xA0 SHL SUB DUP3 AND PUSH1 0x0 SWAP1 DUP2 MSTORE PUSH1 0x33 PUSH1 0x20 MSTORE PUSH1 0x40 DUP2 KECCAK256 DUP1 SLOAD DUP4 SWAP3 SWAP1 PUSH2 0xCE0 SWAP1 DUP5 SWAP1 PUSH2 0x12E0 JUMP JUMPDEST SWAP1 SWAP2 SSTORE POP POP PUSH1 0x40 MLOAD DUP2 DUP2 MSTORE PUSH1 0x1 PUSH1 0x1 PUSH1 0xA0 SHL SUB DUP4 AND SWAP1 PUSH1 0x0 SWAP1 PUSH32 0xDDF252AD1BE2C89B69C2B068FC378DAA952BA7F163C4A11628F55A4DF523B3EF SWAP1 PUSH1 0x20 ADD PUSH1 0x40 MLOAD DUP1 SWAP2 SUB SWAP1 LOG3 POP POP JUMP JUMPDEST PUSH1 0x0 DUP1 SLOAD PUSH2 0x100 SWAP1 DIV PUSH1 0xFF AND ISZERO PUSH2 0xD71 JUMPI DUP2 PUSH1 0xFF AND PUSH1 0x1 EQ DUP1 ISZERO PUSH2 0xD4D JUMPI POP ADDRESS EXTCODESIZE ISZERO JUMPDEST PUSH2 0xD69 JUMPI PUSH1 0x40 MLOAD PUSH3 0x461BCD PUSH1 0xE5 SHL DUP2 MSTORE PUSH1 0x4 ADD PUSH2 0x44A SWAP1 PUSH2 0x1212 JUMP JUMPDEST POP PUSH1 0x0 SWAP2 SWAP1 POP JUMP JUMPDEST PUSH1 0x0 SLOAD PUSH1 0xFF DUP1 DUP5 AND SWAP2 AND LT PUSH2 0xD98 JUMPI PUSH1 0x40 MLOAD PUSH3 0x461BCD PUSH1 0xE5 SHL DUP2 MSTORE PUSH1 0x4 ADD PUSH2 0x44A SWAP1 PUSH2 0x1212 JUMP JUMPDEST POP PUSH1 0x0 DUP1 SLOAD PUSH1 0xFF NOT AND PUSH1 0xFF SWAP3 SWAP1 SWAP3 AND SWAP2 SWAP1 SWAP2 OR SWAP1 SSTORE PUSH1 0x1 SWAP1 JUMP JUMPDEST PUSH1 0x0 SLOAD PUSH2 0x100 SWAP1 DIV PUSH1 0xFF AND PUSH2 0xDD9 JUMPI PUSH1 0x40 MLOAD PUSH3 0x461BCD PUSH1 0xE5 SHL DUP2 MSTORE PUSH1 0x4 ADD PUSH2 0x44A SWAP1 PUSH2 0x1295 JUMP JUMPDEST PUSH2 0x45D DUP3 DUP3 PUSH2 0xE93 JUMP JUMPDEST PUSH1 0x0 SLOAD PUSH2 0x100 SWAP1 DIV PUSH1 0xFF AND PUSH2 0xE0A JUMPI PUSH1 0x40 MLOAD PUSH3 0x461BCD PUSH1 0xE5 SHL DUP2 MSTORE PUSH1 0x4 ADD PUSH2 0x44A SWAP1 PUSH2 0x1295 JUMP JUMPDEST PUSH2 0x6E5 PUSH2 0xEE1 JUMP JUMPDEST PUSH1 0x0 SLOAD PUSH2 0x100 SWAP1 DIV PUSH1 0xFF AND PUSH2 0xE39 JUMPI PUSH1 0x40 MLOAD PUSH3 0x461BCD PUSH1 0xE5 SHL DUP2 MSTORE PUSH1 0x4 ADD PUSH2 0x44A SWAP1 PUSH2 0x1295 JUMP JUMPDEST PUSH2 0x6E5 PUSH2 0xF11 JUMP JUMPDEST PUSH1 0x65 DUP1 SLOAD PUSH1 0x1 PUSH1 0x1 PUSH1 0xA0 SHL SUB DUP4 DUP2 AND PUSH1 0x1 PUSH1 0x1 PUSH1 0xA0 SHL SUB NOT DUP4 AND DUP2 OR SWAP1 SWAP4 SSTORE PUSH1 0x40 MLOAD SWAP2 AND SWAP2 SWAP1 DUP3 SWAP1 PUSH32 0x8BE0079C531659141344CD1FD0A4F28419497F9722A3DAAFE3B4186F6B6457E0 SWAP1 PUSH1 0x0 SWAP1 LOG3 POP POP JUMP JUMPDEST PUSH1 0x0 SLOAD PUSH2 0x100 SWAP1 DIV PUSH1 0xFF AND PUSH2 0xEBA JUMPI PUSH1 0x40 MLOAD PUSH3 0x461BCD PUSH1 0xE5 SHL DUP2 MSTORE PUSH1 0x4 ADD PUSH2 0x44A SWAP1 PUSH2 0x1295 JUMP JUMPDEST DUP2 MLOAD PUSH2 0xECD SWAP1 PUSH1 0x36 SWAP1 PUSH1 0x20 DUP6 ADD SWAP1 PUSH2 0xF44 JUMP JUMPDEST POP DUP1 MLOAD PUSH2 0x500 SWAP1 PUSH1 0x37 SWAP1 PUSH1 0x20 DUP5 ADD SWAP1 PUSH2 0xF44 JUMP JUMPDEST PUSH1 0x0 SLOAD PUSH2 0x100 SWAP1 DIV PUSH1 0xFF AND PUSH2 0xF08 JUMPI PUSH1 0x40 MLOAD PUSH3 0x461BCD PUSH1 0xE5 SHL DUP2 MSTORE PUSH1 0x4 ADD PUSH2 0x44A SWAP1 PUSH2 0x1295 JUMP JUMPDEST PUSH2 0x6E5 CALLER PUSH2 0xE41 JUMP JUMPDEST PUSH1 0x0 SLOAD PUSH2 0x100 SWAP1 DIV PUSH1 0xFF AND PUSH2 0xF38 JUMPI PUSH1 0x40 MLOAD PUSH3 0x461BCD PUSH1 0xE5 SHL DUP2 MSTORE PUSH1 0x4 ADD PUSH2 0x44A SWAP1 PUSH2 0x1295 JUMP JUMPDEST PUSH1 0x97 DUP1 SLOAD PUSH1 0xFF NOT AND SWAP1 SSTORE JUMP JUMPDEST DUP3 DUP1 SLOAD PUSH2 0xF50 SWAP1 PUSH2 0x130F JUMP JUMPDEST SWAP1 PUSH1 0x0 MSTORE PUSH1 0x20 PUSH1 0x0 KECCAK256 SWAP1 PUSH1 0x1F ADD PUSH1 0x20 SWAP1 DIV DUP2 ADD SWAP3 DUP3 PUSH2 0xF72 JUMPI PUSH1 0x0 DUP6 SSTORE PUSH2 0xFB8 JUMP JUMPDEST DUP3 PUSH1 0x1F LT PUSH2 0xF8B JUMPI DUP1 MLOAD PUSH1 0xFF NOT AND DUP4 DUP1 ADD OR DUP6 SSTORE PUSH2 0xFB8 JUMP JUMPDEST DUP3 DUP1 ADD PUSH1 0x1 ADD DUP6 SSTORE DUP3 ISZERO PUSH2 0xFB8 JUMPI SWAP2 DUP3 ADD JUMPDEST DUP3 DUP2 GT ISZERO PUSH2 0xFB8 JUMPI DUP3 MLOAD DUP3 SSTORE SWAP2 PUSH1 0x20 ADD SWAP2 SWAP1 PUSH1 0x1 ADD SWAP1 PUSH2 0xF9D JUMP JUMPDEST POP PUSH2 0xFC4 SWAP3 SWAP2 POP PUSH2 0xFC8 JUMP JUMPDEST POP SWAP1 JUMP JUMPDEST JUMPDEST DUP1 DUP3 GT ISZERO PUSH2 0xFC4 JUMPI PUSH1 0x0 DUP2 SSTORE PUSH1 0x1 ADD PUSH2 0xFC9 JUMP JUMPDEST PUSH1 0x0 DUP3 PUSH1 0x1F DUP4 ADD SLT PUSH2 0xFED JUMPI DUP1 DUP2 REVERT JUMPDEST DUP2 CALLDATALOAD PUSH8 0xFFFFFFFFFFFFFFFF DUP1 DUP3 GT ISZERO PUSH2 0x1008 JUMPI PUSH2 0x1008 PUSH2 0x1360 JUMP JUMPDEST PUSH1 0x40 MLOAD PUSH1 0x1F DUP4 ADD PUSH1 0x1F NOT SWAP1 DUP2 AND PUSH1 0x3F ADD AND DUP2 ADD SWAP1 DUP3 DUP3 GT DUP2 DUP4 LT OR ISZERO PUSH2 0x1030 JUMPI PUSH2 0x1030 PUSH2 0x1360 JUMP JUMPDEST DUP2 PUSH1 0x40 MSTORE DUP4 DUP2 MSTORE DUP7 PUSH1 0x20 DUP6 DUP9 ADD ADD GT ISZERO PUSH2 0x1048 JUMPI DUP5 DUP6 REVERT JUMPDEST DUP4 PUSH1 0x20 DUP8 ADD PUSH1 0x20 DUP4 ADD CALLDATACOPY SWAP3 DUP4 ADD PUSH1 0x20 ADD SWAP4 SWAP1 SWAP4 MSTORE POP SWAP4 SWAP3 POP POP POP JUMP JUMPDEST PUSH1 0x0 PUSH1 0x20 DUP3 DUP5 SUB SLT ISZERO PUSH2 0x1075 JUMPI DUP1 DUP2 REVERT JUMPDEST DUP2 CALLDATALOAD PUSH2 0x1080 DUP2 PUSH2 0x1376 JUMP JUMPDEST SWAP4 SWAP3 POP POP POP JUMP JUMPDEST PUSH1 0x0 PUSH1 0x20 DUP3 DUP5 SUB SLT ISZERO PUSH2 0x1098 JUMPI DUP1 DUP2 REVERT JUMPDEST DUP2 MLOAD PUSH2 0x1080 DUP2 PUSH2 0x1376 JUMP JUMPDEST PUSH1 0x0 DUP1 PUSH1 0x40 DUP4 DUP6 SUB SLT ISZERO PUSH2 0x10B5 JUMPI DUP1 DUP2 REVERT JUMPDEST DUP3 CALLDATALOAD PUSH2 0x10C0 DUP2 PUSH2 0x1376 JUMP JUMPDEST SWAP2 POP PUSH1 0x20 DUP4 ADD CALLDATALOAD PUSH2 0x10D0 DUP2 PUSH2 0x1376 JUMP JUMPDEST DUP1 SWAP2 POP POP SWAP3 POP SWAP3 SWAP1 POP JUMP JUMPDEST PUSH1 0x0 DUP1 PUSH1 0x0 PUSH1 0x60 DUP5 DUP7 SUB SLT ISZERO PUSH2 0x10EF JUMPI DUP1 DUP2 REVERT JUMPDEST DUP4 CALLDATALOAD PUSH2 0x10FA DUP2 PUSH2 0x1376 JUMP JUMPDEST SWAP3 POP PUSH1 0x20 DUP5 ADD CALLDATALOAD PUSH2 0x110A DUP2 PUSH2 0x1376 JUMP JUMPDEST SWAP3 SWAP6 SWAP3 SWAP5 POP POP POP PUSH1 0x40 SWAP2 SWAP1 SWAP2 ADD CALLDATALOAD SWAP1 JUMP JUMPDEST PUSH1 0x0 DUP1 PUSH1 0x40 DUP4 DUP6 SUB SLT ISZERO PUSH2 0x112D JUMPI DUP2 DUP3 REVERT JUMPDEST DUP3 CALLDATALOAD PUSH2 0x1138 DUP2 PUSH2 0x1376 JUMP JUMPDEST SWAP5 PUSH1 0x20 SWAP4 SWAP1 SWAP4 ADD CALLDATALOAD SWAP4 POP POP POP JUMP JUMPDEST PUSH1 0x0 DUP1 PUSH1 0x40 DUP4 DUP6 SUB SLT ISZERO PUSH2 0x1158 JUMPI DUP2 DUP3 REVERT JUMPDEST DUP3 CALLDATALOAD PUSH8 0xFFFFFFFFFFFFFFFF DUP1 DUP3 GT ISZERO PUSH2 0x116F JUMPI DUP4 DUP5 REVERT JUMPDEST PUSH2 0x117B DUP7 DUP4 DUP8 ADD PUSH2 0xFDD JUMP JUMPDEST SWAP4 POP PUSH1 0x20 DUP6 ADD CALLDATALOAD SWAP2 POP DUP1 DUP3 GT ISZERO PUSH2 0x1190 JUMPI DUP3 DUP4 REVERT JUMPDEST POP PUSH2 0x119D DUP6 DUP3 DUP7 ADD PUSH2 0xFDD JUMP JUMPDEST SWAP2 POP POP SWAP3 POP SWAP3 SWAP1 POP JUMP JUMPDEST PUSH1 0x0 PUSH1 0x20 DUP3 DUP5 SUB SLT ISZERO PUSH2 0x11B8 JUMPI DUP1 DUP2 REVERT JUMPDEST POP CALLDATALOAD SWAP2 SWAP1 POP JUMP JUMPDEST PUSH1 0x0 PUSH1 0x20 DUP1 DUP4 MSTORE DUP4 MLOAD DUP1 DUP3 DUP6 ADD MSTORE DUP3 JUMPDEST DUP2 DUP2 LT ISZERO PUSH2 0x11EB JUMPI DUP6 DUP2 ADD DUP4 ADD MLOAD DUP6 DUP3 ADD PUSH1 0x40 ADD MSTORE DUP3 ADD PUSH2 0x11CF JUMP JUMPDEST DUP2 DUP2 GT ISZERO PUSH2 0x11FC JUMPI DUP4 PUSH1 0x40 DUP4 DUP8 ADD ADD MSTORE JUMPDEST POP PUSH1 0x1F ADD PUSH1 0x1F NOT AND SWAP3 SWAP1 SWAP3 ADD PUSH1 0x40 ADD SWAP4 SWAP3 POP POP POP JUMP JUMPDEST PUSH1 0x20 DUP1 DUP3 MSTORE PUSH1 0x2E SWAP1 DUP3 ADD MSTORE PUSH32 0x496E697469616C697A61626C653A20636F6E747261637420697320616C726561 PUSH1 0x40 DUP3 ADD MSTORE PUSH14 0x191E481A5B9A5D1A585B1A5E9959 PUSH1 0x92 SHL PUSH1 0x60 DUP3 ADD MSTORE PUSH1 0x80 ADD SWAP1 JUMP JUMPDEST PUSH1 0x20 DUP1 DUP3 MSTORE DUP2 DUP2 ADD MSTORE PUSH32 0x4F776E61626C653A2063616C6C6572206973206E6F7420746865206F776E6572 PUSH1 0x40 DUP3 ADD MSTORE PUSH1 0x60 ADD SWAP1 JUMP JUMPDEST PUSH1 0x20 DUP1 DUP3 MSTORE PUSH1 0x2B SWAP1 DUP3 ADD MSTORE PUSH32 0x496E697469616C697A61626C653A20636F6E7472616374206973206E6F742069 PUSH1 0x40 DUP3 ADD MSTORE PUSH11 0x6E697469616C697A696E67 PUSH1 0xA8 SHL PUSH1 0x60 DUP3 ADD MSTORE PUSH1 0x80 ADD SWAP1 JUMP JUMPDEST PUSH1 0x0 DUP3 NOT DUP3 GT ISZERO PUSH2 0x12F3 JUMPI PUSH2 0x12F3 PUSH2 0x134A JUMP JUMPDEST POP ADD SWAP1 JUMP JUMPDEST PUSH1 0x0 DUP3 DUP3 LT ISZERO PUSH2 0x130A JUMPI PUSH2 0x130A PUSH2 0x134A JUMP JUMPDEST POP SUB SWAP1 JUMP JUMPDEST PUSH1 0x1 DUP2 DUP2 SHR SWAP1 DUP3 AND DUP1 PUSH2 0x1323 JUMPI PUSH1 0x7F DUP3 AND SWAP2 POP JUMPDEST PUSH1 0x20 DUP3 LT DUP2 EQ ISZERO PUSH2 0x1344 JUMPI PUSH4 0x4E487B71 PUSH1 0xE0 SHL PUSH1 0x0 MSTORE PUSH1 0x22 PUSH1 0x4 MSTORE PUSH1 0x24 PUSH1 0x0 REVERT JUMPDEST POP SWAP2 SWAP1 POP JUMP JUMPDEST PUSH4 0x4E487B71 PUSH1 0xE0 SHL PUSH1 0x0 MSTORE PUSH1 0x11 PUSH1 0x4 MSTORE PUSH1 0x24 PUSH1 0x0 REVERT JUMPDEST PUSH4 0x4E487B71 PUSH1 0xE0 SHL PUSH1 0x0 MSTORE PUSH1 0x41 PUSH1 0x4 MSTORE PUSH1 0x24 PUSH1 0x0 REVERT JUMPDEST PUSH1 0x1 PUSH1 0x1 PUSH1 0xA0 SHL SUB DUP2 AND DUP2 EQ PUSH2 0x8DC JUMPI PUSH1 0x0 DUP1 REVERT INVALID LOG2 PUSH5 0x6970667358 0x22 SLT KECCAK256 PC PUSH3 0xB08996 0xD2 MULMOD 0xC1 0xFC PUSH11 0xEE03BCC43640577BACE9A 0xE5 0xE1 0x5C 0x2B 0x1E 0xB9 PUSH1 0x30 0xB1 LOG3 PUSH21 0x64736F6C6343000804003300000000000000000000 "
		},
		"gasEstimates": {
			"creation": {
				"codeDepositCost": "1011400",
				"executionCost": "1054",
				"totalCost": "1012454"
			},
			"external": {
				"allowance(address,address)": "infinite",
				"approve(address,uint256)": "22541",
				"balanceOf(address)": "1254",
				"claimDairy(uint256)": "infinite",
				"decimals()": "289",
				"decreaseAllowance(address,uint256)": "23566",
				"getLastClaimed(uint256)": "1226",
				"increaseAllowance(address,uint256)": "23595",
				"initialize(string,string)": "infinite",
				"mint(address,uint256)": "infinite",
				"name()": "infinite",
				"owner()": "1090",
				"paused()": "1137",
				"renounceOwnership()": "23462",
				"setCooldown(uint256)": "21153",
				"setMoolaNFTAddress(address)": "22071",
				"setWhitelist(address)": "22111",
				"symbol()": "infinite",
				"totalSupply()": "1049",
				"transfer(address,uint256)": "44414",
				"transferFrom(address,address,uint256)": "infinite",
				"transferOwnership(address)": "infinite"
			}
		},
		"methodIdentifiers": {
			"allowance(address,address)": "dd62ed3e",
			"approve(address,uint256)": "095ea7b3",
			"balanceOf(address)": "70a08231",
			"claimDairy(uint256)": "59176c8d",
			"decimals()": "313ce567",
			"decreaseAllowance(address,uint256)": "a457c2d7",
			"getLastClaimed(uint256)": "d1a20509",
			"increaseAllowance(address,uint256)": "39509351",
			"initialize(string,string)": "4cd88b76",
			"mint(address,uint256)": "40c10f19",
			"name()": "06fdde03",
			"owner()": "8da5cb5b",
			"paused()": "5c975abb",
			"renounceOwnership()": "715018a6",
			"setCooldown(uint256)": "4fc3f41a",
			"setMoolaNFTAddress(address)": "be023d84",
			"setWhitelist(address)": "854cff2f",
			"symbol()": "95d89b41",
			"totalSupply()": "18160ddd",
			"transfer(address,uint256)": "a9059cbb",
			"transferFrom(address,address,uint256)": "23b872dd",
			"transferOwnership(address)": "f2fde38b"
		}
	},
	"abi": [
		{
			"anonymous": false,
			"inputs": [
				{
					"indexed": true,
					"internalType": "address",
					"name": "owner",
					"type": "address"
				},
				{
					"indexed": true,
					"internalType": "address",
					"name": "spender",
					"type": "address"
				},
				{
					"indexed": false,
					"internalType": "uint256",
					"name": "value",
					"type": "uint256"
				}
			],
			"name": "Approval",
			"type": "event"
		},
		{
			"anonymous": false,
			"inputs": [
				{
					"indexed": false,
					"internalType": "uint8",
					"name": "version",
					"type": "uint8"
				}
			],
			"name": "Initialized",
			"type": "event"
		},
		{
			"anonymous": false,
			"inputs": [
				{
					"indexed": true,
					"internalType": "address",
					"name": "previousOwner",
					"type": "address"
				},
				{
					"indexed": true,
					"internalType": "address",
					"name": "newOwner",
					"type": "address"
				}
			],
			"name": "OwnershipTransferred",
			"type": "event"
		},
		{
			"anonymous": false,
			"inputs": [
				{
					"indexed": false,
					"internalType": "address",
					"name": "account",
					"type": "address"
				}
			],
			"name": "Paused",
			"type": "event"
		},
		{
			"anonymous": false,
			"inputs": [
				{
					"indexed": true,
					"internalType": "address",
					"name": "from",
					"type": "address"
				},
				{
					"indexed": true,
					"internalType": "address",
					"name": "to",
					"type": "address"
				},
				{
					"indexed": false,
					"internalType": "uint256",
					"name": "value",
					"type": "uint256"
				}
			],
			"name": "Transfer",
			"type": "event"
		},
		{
			"anonymous": false,
			"inputs": [
				{
					"indexed": false,
					"internalType": "address",
					"name": "account",
					"type": "address"
				}
			],
			"name": "Unpaused",
			"type": "event"
		},
		{
			"anonymous": false,
			"inputs": [
				{
					"indexed": false,
					"internalType": "address",
					"name": "receiver",
					"type": "address"
				},
				{
					"indexed": false,
					"internalType": "uint256",
					"name": "amount",
					"type": "uint256"
				},
				{
					"indexed": false,
					"internalType": "uint256",
					"name": "time",
					"type": "uint256"
				}
			],
			"name": "dailyDairyClaimed",
			"type": "event"
		},
		{
			"inputs": [
				{
					"internalType": "address",
					"name": "owner",
					"type": "address"
				},
				{
					"internalType": "address",
					"name": "spender",
					"type": "address"
				}
			],
			"name": "allowance",
			"outputs": [
				{
					"internalType": "uint256",
					"name": "",
					"type": "uint256"
				}
			],
			"stateMutability": "view",
			"type": "function"
		},
		{
			"inputs": [
				{
					"internalType": "address",
					"name": "spender",
					"type": "address"
				},
				{
					"internalType": "uint256",
					"name": "amount",
					"type": "uint256"
				}
			],
			"name": "approve",
			"outputs": [
				{
					"internalType": "bool",
					"name": "",
					"type": "bool"
				}
			],
			"stateMutability": "nonpayable",
			"type": "function"
		},
		{
			"inputs": [
				{
					"internalType": "address",
					"name": "account",
					"type": "address"
				}
			],
			"name": "balanceOf",
			"outputs": [
				{
					"internalType": "uint256",
					"name": "",
					"type": "uint256"
				}
			],
			"stateMutability": "view",
			"type": "function"
		},
		{
			"inputs": [
				{
					"internalType": "uint256",
					"name": "_tokenId",
					"type": "uint256"
				}
			],
			"name": "claimDairy",
			"outputs": [],
			"stateMutability": "nonpayable",
			"type": "function"
		},
		{
			"inputs": [],
			"name": "decimals",
			"outputs": [
				{
					"internalType": "uint8",
					"name": "",
					"type": "uint8"
				}
			],
			"stateMutability": "view",
			"type": "function"
		},
		{
			"inputs": [
				{
					"internalType": "address",
					"name": "spender",
					"type": "address"
				},
				{
					"internalType": "uint256",
					"name": "subtractedValue",
					"type": "uint256"
				}
			],
			"name": "decreaseAllowance",
			"outputs": [
				{
					"internalType": "bool",
					"name": "",
					"type": "bool"
				}
			],
			"stateMutability": "nonpayable",
			"type": "function"
		},
		{
			"inputs": [
				{
					"internalType": "uint256",
					"name": "_tokenId",
					"type": "uint256"
				}
			],
			"name": "getLastClaimed",
			"outputs": [
				{
					"internalType": "uint256",
					"name": "",
					"type": "uint256"
				}
			],
			"stateMutability": "view",
			"type": "function"
		},
		{
			"inputs": [
				{
					"internalType": "address",
					"name": "spender",
					"type": "address"
				},
				{
					"internalType": "uint256",
					"name": "addedValue",
					"type": "uint256"
				}
			],
			"name": "increaseAllowance",
			"outputs": [
				{
					"internalType": "bool",
					"name": "",
					"type": "bool"
				}
			],
			"stateMutability": "nonpayable",
			"type": "function"
		},
		{
			"inputs": [
				{
					"internalType": "string",
					"name": "name_",
					"type": "string"
				},
				{
					"internalType": "string",
					"name": "symbol_",
					"type": "string"
				}
			],
			"name": "initialize",
			"outputs": [],
			"stateMutability": "nonpayable",
			"type": "function"
		},
		{
			"inputs": [
				{
					"internalType": "address",
					"name": "to",
					"type": "address"
				},
				{
					"internalType": "uint256",
					"name": "amount",
					"type": "uint256"
				}
			],
			"name": "mint",
			"outputs": [],
			"stateMutability": "nonpayable",
			"type": "function"
		},
		{
			"inputs": [],
			"name": "name",
			"outputs": [
				{
					"internalType": "string",
					"name": "",
					"type": "string"
				}
			],
			"stateMutability": "view",
			"type": "function"
		},
		{
			"inputs": [],
			"name": "owner",
			"outputs": [
				{
					"internalType": "address",
					"name": "",
					"type": "address"
				}
			],
			"stateMutability": "view",
			"type": "function"
		},
		{
			"inputs": [],
			"name": "paused",
			"outputs": [
				{
					"internalType": "bool",
					"name": "",
					"type": "bool"
				}
			],
			"stateMutability": "view",
			"type": "function"
		},
		{
			"inputs": [],
			"name": "renounceOwnership",
			"outputs": [],
			"stateMutability": "nonpayable",
			"type": "function"
		},
		{
			"inputs": [
				{
					"internalType": "uint256",
					"name": "_cooldown",
					"type": "uint256"
				}
			],
			"name": "setCooldown",
			"outputs": [],
			"stateMutability": "nonpayable",
			"type": "function"
		},
		{
			"inputs": [
				{
					"internalType": "address",
					"name": "_moola",
					"type": "address"
				}
			],
			"name": "setMoolaNFTAddress",
			"outputs": [],
			"stateMutability": "nonpayable",
			"type": "function"
		},
		{
			"inputs": [
				{
					"internalType": "address",
					"name": "_whitelist",
					"type": "address"
				}
			],
			"name": "setWhitelist",
			"outputs": [],
			"stateMutability": "nonpayable",
			"type": "function"
		},
		{
			"inputs": [],
			"name": "symbol",
			"outputs": [
				{
					"internalType": "string",
					"name": "",
					"type": "string"
				}
			],
			"stateMutability": "view",
			"type": "function"
		},
		{
			"inputs": [],
			"name": "totalSupply",
			"outputs": [
				{
					"internalType": "uint256",
					"name": "",
					"type": "uint256"
				}
			],
			"stateMutability": "view",
			"type": "function"
		},
		{
			"inputs": [
				{
					"internalType": "address",
					"name": "to",
					"type": "address"
				},
				{
					"internalType": "uint256",
					"name": "amount",
					"type": "uint256"
				}
			],
			"name": "transfer",
			"outputs": [
				{
					"internalType": "bool",
					"name": "",
					"type": "bool"
				}
			],
			"stateMutability": "nonpayable",
			"type": "function"
		},
		{
			"inputs": [
				{
					"internalType": "address",
					"name": "from",
					"type": "address"
				},
				{
					"internalType": "address",
					"name": "to",
					"type": "address"
				},
				{
					"internalType": "uint256",
					"name": "amount",
					"type": "uint256"
				}
			],
			"name": "transferFrom",
			"outputs": [
				{
					"internalType": "bool",
					"name": "",
					"type": "bool"
				}
			],
			"stateMutability": "nonpayable",
			"type": "function"
		},
		{
			"inputs": [
				{
					"internalType": "address",
					"name": "newOwner",
					"type": "address"
				}
			],
			"name": "transferOwnership",
			"outputs": [],
			"stateMutability": "nonpayable",
			"type": "function"
		}
	]
}